:100000000C94D2010C9403020C9403020C9403028E
:100010000C9403020C9403020C9403020C9403024C
:100020000C9403020C943E050C943E050C943E0582
:100030000C9403020C942A0C0C9403020C940302FB
:100040000C9403020C94C50F0C9403020C9403024D
:100050000C9403020C9403020C9403020C941014ED
:100060000C9403020C949B0D0C94710D0C940302E0
:100070000C9403020C9403020C9403020C940302EC
:100080000C9403020C9403020C9403020C940302DC
:100090000C9403020C9403020C9403020C94480584
:1000A0000C9403020C9403020C9403020C940302BC
:1000B0000C9403020C9403020C9403020C94C50DDF
:1000C0000C9403020C9403020C9403020C94470D4D
:1000D0000C941D0D0C9403020C94F30C0C94C90C9D
:1000E0000C9403020C0F110F160F200F2A0FA30FF1
:1000F000340F3C0F440F4E0F580F620F710F7B0FE0
:10010000A30F850F8F0F990FF212F512E412E81268
:10011000EE122C13F912FD12031307130B13111314
:10012000151319132C131F132313271307634236B8
:10013000B79BD8A71A39685618AEBAAB558C1D3C78
:10014000B7CC5763BD6DEDFD753EF6177231BF003C
:100150000000803F08000000BE922449123EABAA76
:10016000AA2ABECDCCCC4C3E00000080BEABAAAAD1
:10017000AA3E00000000BF000000803F0000000019
:1001800000084178D3BB4387D1133D190E3CC3BD52
:100190004282AD2B3E68EC8276BED98FE1A93E4CFF
:1001A00080EFFFBE01C4FF7F3F00000000000C9401
:1001B000F5120C94FD120C94C20A0C94C1110C940B
:1001C000850B0C94E5110C9423130C940C0F0C94D8
:1001D0001D120C94850F0C94F9120C94990F0C9429
:1001E000050C0C94EE120C94D1110C943C0F0C9451
:1001F00019130C942A0F0C94110F0C94C2110C9427
:100200000B130C94E50A0C94440F0C947E0A0C9486
:10021000D50B0C94580F0C94160F0C9403130C94DC
:10022000E8120C94340F0C94710F0C94620F0C9420
:100230007B0F0C94E4120C94D10A0C943E0B0C949A
:1002400027130C948F0F0C941F130C94F2120C9420
:10025000A30F0C942C130C944E0F0C9415130C94A8
:10026000D40B0C9407130C94200F0C94F81B0C94D3
:10027000F30A0C94FE1B0C9411130C94ED11000066
:1002800020002300260029002C002F00320000014E
:1002900000000301060109010200002100240027DB
:1002A000002A002D00300033000101000004010786
:1002B000010A0100002200250028002B002E003139
:1002C00000340002010000050108010B01050505CD
:1002D00005070508080808020202020A0A080804BD
:1002E00004040401010101010101010303030303EB
:1002F000030303040707070C0C0C0C0C0C0C0C027A
:1003000002020206060606060606060B0B0B0B0B80
:100310000B0B0B0102102020080810204010204079
:1003200080020102010804020101020408102040B9
:1003300080804020100804020180040201804020D7
:100340001008040201080402010102040810204000
:1003500080010204081020408000000A0B02090CF2
:100360000D0E08070304010000000000000000005B
:10037000000000000000000000000000000000007D
:10038000000000000012111000000000000000003A
:10039000000000000000000000000000000000005D
:1003A000FE1BF81B11241FBECFEFD1E2DEBFCDBF75
:1003B00000E00CBF13E0A0E0B2E0E6E6F8E400E005
:1003C0000BBF02C007900D92A432B107D9F728E005
:1003D000A4E2B3E001C01D92AB31B207E1F711E036
:1003E000C1EDD1E000E006C021970109802FFE0198
:1003F0000E944A1FC03DD10780E00807A9F70E946C
:100400006C150C9421240C9400004F925F926F9213
:100410007F928F929F92AF92BF92CF92DF92EF9294
:10042000FF92CF93DF934B015C0188EC97E00E9431
:1004300074108AEC97E00E94741020E030E0A9016B
:10044000C501B4010E94D91D81117CC04DEC5CEC4A
:100450006CEC7EEB86EC97E00E94AC0E4DEC5CEC15
:100460006CEC7EEB84EC97E00E94AC0E88EC97E09D
:100470000E949F1090958095709561957F4F8F4F4A
:100480009F4F0E94E01D2FE031ED40E85FE30E94A6
:100490003F1E0E9431206B017C01EB018AEC97E04A
:1004A0000E949F10072E000C880B990B0E94E01DE4
:1004B0002B013C0120E030E44BEF54E40E94672024
:1004C00018163CF440E050E0BA0184EC97E00E943A
:1004D000AC0EB6010D2C000C880B990B0E94E01D90
:1004E00020E030E44BEF54E40E946720181644F4F7
:1004F00040E050E060E070E886EC97E00E94AC0ECF
:100500006AE070E080E090E00E94D61320E030E4E2
:100510004BEF54E4C301B2010E94D91D87FD96CF71
:10052000D194C194D108B601DD0C880B990B0E94BF
:10053000E01D20E030E44BEF54E40E94D91D87FD1C
:1005400085CF02C0C0E0D0E020E030E040E85FE3CB
:10055000C501B4010E94D91D8111C8C09DECC92EEE
:100560009CECD92EED2C9EE3F92EB701A60184EC6C
:1005700097E00E94AC0EBE01DD0F880B990B0E9424
:10058000E01D20E030E447E954E40E94672018169B
:100590000CF0D7C02DEC3CEC4CEC5DE3C701B60190
:1005A0000E946720181654F42DEC3CEC4CE45DE3FB
:1005B000C701B6010E94521F6B017C01B701A60161
:1005C00084EC97E00E94AC0EB701A60186EC97E0A0
:1005D0000E94AC0E88EC97E00E949F10882499241A
:1005E0005401861A970AA80AB90AE4018AEC97E02E
:1005F0000E949F100E94E01D2FE031ED40E85FE374
:100600000E943F1E0E9431202B013C01B401990C35
:10061000880B990B0E94E01D4B015C0120E030E447
:1006200047E954E40E94672018160CF09DC02DEC99
:100630003CEC4CEC5DE3C701B6010E946720181644
:100640000CF0A5C02DEC3CEC4CE45DE3C701B60119
:100650000E94521F6B017C0120E030E44BEF54E418
:10066000C501B4010E94672018163CF440E050E038
:10067000BA0184EC97E00E94AC0E662777276419D4
:100680007509072E000C880B990B0E94E01D20E0D5
:1006900030E44BEF54E40E946720181644F440E025
:1006A00050E060E070E886EC97E00E94AC0E6AE0F3
:1006B00070E080E090E00E94D61320E030E44BEF41
:1006C00054E4C501B4010E94D91D87FD4ECFB2018B
:1006D000550C880B990B0E94E01D20E030E44BEF95
:1006E00054EC0E94672018160CF43FCF40E050E015
:1006F000BA0184EC97E00E94AC0E40E050E060E06C
:1007000070E886EC97E00E94AC0E88EC97E00E94BF
:1007100074108AEC97E00E94741064E670E080E048
:1007200090E0DF91CF91FF90EF90DF90CF90BF905E
:10073000AF909F908F907F906F905F904F900C94B0
:10074000D6132DEC3CEC4CEC5EE3C701B6010E94E5
:10075000D91D87FF33CF2AE037ED43EA5BE3C701BA
:10076000B6010E94531F28CF2DEC3CEC4CEC5EE30D
:10077000C701B6010E94D91D87FF6ECF2AE037ED71
:1007800043EA5BE3C701B6010E94531F63CF8DECC0
:10079000C82E8CECD82EED2C8DE3F82E5DCFE09199
:1007A0003605F09137050190F081E02D682F86E342
:1007B00095E019948F929F92AF92BF920F931F93DF
:1007C000CF93DF93CDB7DEB7A1970FB6F894DEBF16
:1007D0000FBECDBF19A2423008F44AE08E010F5D72
:1007E0001F4F842E912CA12CB12CA50194010E94A5
:1007F0001C1FE62FB901CA0101501109EA3014F497
:10080000E05D01C0E95CD801EC93232B242B252B60
:1008100061F7C8010E942C11A1960FB6F894DEBFB3
:100820000FBECDBFDF91CF911F910F91BF90AF90C1
:100830009F908F900895CF93C82F81E08093EF030E
:1008400082E58093EE031092ED031092EC0380EFAB
:1008500093E00E941D126C2F80EF93E00E941D1206
:1008600061E080EF93E00E947B126AE070E080E03C
:1008700090E0CF910C94D613EF92FF921F93CF93F9
:10088000DF93CDB7DEB72C970FB6F894DEBF0FBE5F
:10089000CDBF809171038111FCCF81E08093710302
:1008A000809370039FEF90936F0310926E0395E017
:1008B00090936D0380936C0380916C03846A8093A2
:1008C0006C0380916B03813061F410926B03809113
:1008D0006C038093BB008091BC0083FDF8CF85EC56
:1008E00001C085EE8093BC00809171038130E1F3FB
:1008F00080916E03863018F410916E0301C016E0EB
:10090000ABE4B3E024E733E0F9018E2F821B8117BB
:1009100018F48D918193F9CF1092730310937203A1
:10092000CE0101967C0180917303181749F080EF86
:1009300093E00E94D111F701819391937F01F3CF4E
:1009400089819A8190939503809394038B819C81F4
:1009500090939703809396038B859C859C01359596
:10096000279535952795A901437055272D813E81FF
:10097000220F331F220F331F242B352B3093990363
:10098000209398039C0174E0359527957A95E1F7BB
:10099000A901437055272F813885220F331F220F5D
:1009A000331F242B352B30939B0320939A039C01F8
:1009B000F6E035952795FA95E1F7A901437055279B
:1009C00029853A85220F331F220F331F242B352B05
:1009D00030939D0320939C039C0121703327F1E009
:1009E0002F2730939F0320939E0321E030E081FF67
:1009F00002C020E030E03093A1032093A00360E028
:100A000080E02C960FB6F894DEBF0FBECDBFDF910D
:100A1000CF911F91FF90EF900C941B040C942C111C
:100A2000CF92DF92EF92FF92CF93DF936C01990FF9
:100A3000EE08FF08F7FE17C08DE20E94CF03EC011D
:100A400066277727CB016C197D098E099F094AE03B
:100A50000E94DA038C0F9D1FDF91CF91FF90EF90E2
:100A6000DF90CF9008954AE0C701B601DF91CF91A2
:100A7000FF90EF90DF90CF900C94DA031F920F92CB
:100A80000FB60F9211240F900FBE0F901F90189564
:100A90001F920F920FB60F9211240BB60F922F9345
:100AA0003F934F935F936F937F938F939F93AF93F6
:100AB000BF93EF93FF938091B900887F803609F44C
:100AC0009CC068F5883209F45BC090F4803109F469
:100AD00054C038F4882309F4F6C0883009F44DC0B6
:100AE000F6C0883109F44CC0803209F45DC0EFC013
:100AF000803409F468C048F4803309F455C0883361
:100B000009F0E5C080936F03D8C0803509F44FC069
:100B1000883509F45DC0883409F0D9C0D6C0883959
:100B200009F4C7C0A8F4883709F467C038F48836D8
:100B300009F463C0803709F460C0C9C0883809F47B
:100B4000B8C0803909F45FC0803809F0C0C05BC00C
:100B5000803B09F486C038F4803A09F466C0883ACC
:100B600009F47FC0B4C0803C09F4A7C0883C09F4F4
:100B7000A4C0883B09F48AC0AAC080916C0310C04D
:100B800090916E0380916D03981770F5E0916E035C
:100B900081E08E0F80936E03F0E0E55BFC4F808177
:100BA0008093BB0085EC86C080936F038EC0E0917C
:100BB0006E0381E08E0F80936E038091BB00F0E0A6
:100BC000E55BFC4F808390916E0380916D036EC056
:100BD000E0916E0381E08E0F80936E038091BB00E5
:100BE000F0E0E55BFC4F80838091700381116DC064
:100BF00081E080936B0384EA61C083E0809371039A
:100C00001092C703CFCF8091C703803208F051C044
:100C1000E091C70381E08E0F8093C7038091BB00F2
:100C2000F0E0E955FC4F8083BDCF85EC8093BC009C
:100C3000109271038091C703803230F4E091C703B2
:100C4000F0E0E955FC4F10826091C70370E0E0913D
:100C5000A503F091A60387EA93E019951092C703C4
:100C600036C084E0809371031092A40310924A036B
:100C7000E091A203F091A303199580914A03811199
:100C800005C081E080934A0310922A03E091A403F7
:100C900081E08E0F8093A403F0E0E65DFC4F80813D
:100CA0008093BB009091A40380914A03981708F4A5
:100CB00079CF85E88093BC000AC085EC8093BC00A6
:100CC0001092710304C010926F030E947112FF9181
:100CD000EF91BF91AF919F918F917F916F915F91B4
:100CE0004F913F912F910F900BBE0F900FBE0F9021
:100CF0001F901895E0E0F0E019944F925F926F9288
:100D00007F928F929F92AF92BF92CF92DF92EF929B
:100D1000FF920F931F93CF93DF930E94041161E022
:100D20008091AC070E947B1360E08091AC070E9429
:100D30002D1360E08091AB070E947B1380EF93E05E
:100D40009093B6078093B5071092730310927203C5
:100D50001092ED031092EC030E945D1380E090E18D
:100D6000A0E0B0E08093B8079093B907A093BA07CA
:100D7000B093BB078AE090E0A0E0B0E08093BC07AE
:100D80009093BD07A093BE07B093BF0780E090E0AB
:100D9000A0E0B0E48093C0079093C107A093C2077E
:100DA000B093C30760E070E185E00E944E116FE9E7
:100DB00079E380E00E944E11C8ECD7E0C12CD12C21
:100DC000E12CF12C52E0652E53E0752E68E4862E5E
:100DD00063E0962E7BECA72E77E0B72EC7018555F2
:100DE000984F2C01FC019481828186010555184F92
:100DF000F801818F928F61E00E947B1361E0F8011E
:100E0000828D0E947B13F201908586818883F80190
:100E1000968F61E00E947B1360E0F801868D0E944E
:100E20007B1361E088810E942D131FB7F894809195
:100E3000E303811125C0F3018491F4019491E82F1B
:100E4000F0E0EE0FFF1FE756FD4FA591B4918C9196
:100E5000982321F461E085E30E942D1361E085E38E
:100E60000E947B138CB580618CBD8CB580648CBD79
:100E700061E084E30E947B1361E083E30E947B13C3
:100E80008091E3038F5F8093E3031FBFC501019748
:100E9000F1F760E088810E942D1388E80E946D10B0
:100EA00083E00E946D1061E088810E942D13C501CE
:100EB0000197F1F7CE010E947410F2E0CF0ED11C21
:100EC0002296EA94EF2821F0EE24E394F12C86CFC9
:100ED000C0EDD7E01C2F1C5F60E089910E947B135E
:100EE0001C13FACF0FED17E0CCEDD7E085E0C82E4C
:100EF0009CE0E92E22E0B22EDC2ED394D394FE01A6
:100F00003897F08088818C3008F044C061E08F2DE4
:100F10000E947B138881C89EF0011124EB55F94F84
:100F20009F2D9F732081207CF22EF92AF08213825C
:100F300014826E2D0E943E1FECE08E9FA0011124B2
:100F400020E030E0B901640F751FC69EF001C79E16
:100F5000F00D1124EB55F94F908196FD12C02F5FD3
:100F60003F4F2C30310571F781110BC0109280007A
:100F7000B09281001092850010928400B6BAB092AF
:100F80006F00E881CE9EF0011124EB55F94F80816E
:100F900080648083FE013297908132978081F801CE
:100FA00031978083F801908360E00E947B1361E0B9
:100FB000F80180810E947B1360E0F80180810E942B
:100FC0002D1321960E5F1F4FDC1299CFF8941092CB
:100FD000200189E08093210180E293E09093290130
:100FE00080932801109225011092240182E08093C1
:100FF000730078948093D3051092D7058091D4051F
:1010000060E00E947B13109273031092720310929F
:10101000ED031092EC030E945D1360EF85E50E94E2
:101020001B046BEF80E00E941B040E943C040E94A2
:10103000041161E08EE20E947B1361E08EE2DF9199
:10104000CF911F910F91FF90EF90DF90CF90BF90C5
:10105000AF909F908F907F906F905F904F900C9487
:101060002D130E943C0410929F0310929E0380E077
:1010700090E00895CF92DF92EF92FF9269017A019A
:10108000AB01BC0184EC97E00E94AC0EB701A60155
:10109000705886EC97E0FF90EF90DF90CF900C9423
:1010A000AC0E8F929F92AF92BF92CF92DF92EF924F
:1010B000FF920F931F93CF93DF938C01C0E0D0E09A
:1010C0006B01770FEE08FF084A01550FAA08BB080D
:1010D000C017D10794F461E088E00E942D13C70186
:1010E000B6010E94D61360E088E00E942D13C5016E
:1010F000B4010E94D6132196EBCFDF91CF911F91BF
:101100000F91FF90EF90DF90CF90BF90AF909F90A6
:101110008F9008954F925F926F927F928F929F92DD
:10112000AF92BF92CF92DF92EF92FF92982EA12CB6
:10113000B12CC12CD12C76018AE0A816B10449F15A
:10114000892D0E94B713BC01990F880B990B0E943F
:10115000E01D26EA3BE944EC5BEB0E943F1E9B014D
:10116000AC016DEF76EF8DE290E40E946C202DE7EC
:101170003FE34BEA52E40E943F1E9B01AC01C701D2
:10118000B6010E94531F6B017C018FEFA81AB80AA9
:10119000D3CF20E030E040E251E4C701B6010E9425
:1011A000BF1F6B017C019B01AC010E94BC20882306
:1011B00019F084E193E01AC046015701E894B7F8AA
:1011C0002FEF3FEF4FE75FE7C501B4010E94BC205E
:1011D00081110FC02FEF3FEF4FE75FE7C501B4016B
:1011E0000E94D91D18162CF488E193E00E942C115E
:1011F00072C02FEF3FEF4FE75FE4C701B6010E94D7
:10120000672018161CF48CE193E0F0CF2FEF3FEF2E
:101210004FE75FECC701B6010E94D91D87FDF3CFF0
:1012200020E030E0A901C701B6010E94D91D87FF67
:1012300007C08DE20E94CF03C701B601905802C0DB
:10124000C701B6012AE037ED43EA5BE30E94531F72
:101250002B013C010E9438204B015C010E94DE1DE5
:101260009B01AC01C301B2010E94521F2B013C0142
:101270004AE0C501B4010E94DA038EE20E94CF0366
:1012800020E030E040E251E4C301B2010E943F1E81
:101290002B013C010E9438204B01A12CB12C4AE0CB
:1012A000C501B4010E94DA03C501B4010E94DE1D2C
:1012B0009B01AC01C301B2010E94521F20E030E04B
:1012C00040E251E40E943F1E0E94382080E090E0FE
:1012D0004AE00E94DA030E943E11C701B601FF9066
:1012E000EF90DF90CF90BF90AF909F908F907F90C6
:1012F0006F905F904F900895CF93DF93C0E0D0E060
:101300000E943C0480919E0390919F03892B29F5B4
:1013100064E670E080E090E00E94D6130E943C04F6
:101320008091A0039091A103019709F421960E9456
:101330003C048091A0039091A103892BF9F2CA305B
:10134000D105F4F244E650E064E670E08AE090E013
:101350000E9451080E947D06D3CFDF91CF9108955E
:1013600040E050E0BA0184EC97E00E94AC0E40E00F
:1013700050E060E070E886EC97E00E94AC0E88ECEC
:1013800097E00E9474108AEC97E00C9474104F92CE
:101390005F926F927F928F929F92AF92BF92CF9205
:1013A000DF92EF92FF926C0188EC97E00E9474103C
:1013B0008AEC97E00E94741046010D2C000CAA08DC
:1013C000BB0826E9C21A25E0D20A0D2C000CEE0853
:1013D000FF0884E6482E512C612C712C88EC97E094
:1013E0000E949F109B01AC0188279927DC01821B7A
:1013F000930BA40BB50B88159905AA05BB050CF03A
:1014000054C088EC97E00E949F109B01AC01882794
:101410009927DC01821B930BA40BB50B86399540F1
:10142000A105B10564F488EC97E00E949F109095A7
:101430008095709561957F4F8F4F9F4F1AC088ECB4
:1014400097E00E949F109B01AC0188279927DC013F
:10145000821B930BA40BB50BC816D906EA06FB0634
:10146000ECF488EC97E00E949F10680D791D8A1DAE
:101470009B1DA30192010E94FD1ECA01B9010E9499
:10148000E01D29E23CE54FE05DE30E943F1E2DECAC
:101490003CEC4CEC5DE30E94531F04C06AE979E91F
:1014A00089E19FE30E945A1499CF40E050E0BA01CD
:1014B00084EC97E00E94AC0E40E050E060E070E801
:1014C00086EC97E00E94AC0E88EC97E00E947410C6
:1014D0008AEC97E00E94741064E670E080E090E08F
:1014E000FF90EF90DF90CF90BF90AF909F908F9044
:1014F0007F906F905F904F900C94D613CF92DF92B5
:10150000EF92FF920F931F93CF93DF936C017A01B9
:101510008B01C0E0D0E0CE15DF0589F0D8016D91D8
:101520008D01D601ED91FC910190F081E02DC60175
:101530001995892B11F47E0102C02196ECCFC701C9
:10154000DF91CF911F910F91FF90EF90DF90CF909F
:101550000895FC01A089B1898C91A689B78982FD83
:101560000FC09C91818D8F5F8F73228D821749F000
:10157000218DDF01A20FB11D5D969C93818F08958F
:101580008C910895FC01538D448D252F30E0842FDC
:1015900090E0821B930B541710F0CF96089501979B
:1015A0000895FC01918D828D981761F0828DDF0185
:1015B000A80FB11D5D968C91928D9F5F9F73928F46
:1015C00090E008958FEF9FEF0895FC01918D828D3B
:1015D000981731F0828DE80FF11D858D90E0089508
:1015E0008FEF9FEF0895FC01918D228D892F90E060
:1015F000805C9F4F821B91098F73992708958CEF10
:1016000093E00E94F30A21E0892B09F420E0822F65
:10161000089589E994E00E94F30A21E0892B09F4F6
:1016200020E0822F089586E395E00E94F30A21E0EE
:10163000892B09F420E0822F0895FC01848DDF01BD
:10164000A80FB11DA35ABF4F2C91848D90E0019635
:101650008F739927848FA689B7892C93A089B18924
:101660008C9180648C93938D848D981306C002882E
:10167000F389E02D80818F7D80830895EF92FF9222
:101680000F931F93CF93DF93EC0181E0888F9B8DA5
:101690008C8D981305C0E889F989808185FD24C067
:1016A000F62E0B8D10E00F5F1F4F0F731127E02EEA
:1016B0008C8DE8120CC00FB607FCFACFE889F989C7
:1016C000808185FFF5CFCE010E941D0BF1CF8B8D60
:1016D000FE01E80FF11DE35AFF4FF0820B8FEA89FC
:1016E000FB898081806207C0EE89FF896083E88979
:1016F000F98980818064808381E090E0DF91CF91DF
:101700001F910F91FF90EF900895CF93DF93EC011D
:10171000888D8823C9F0EA89FB89808185FD05C011
:10172000A889B9898C9186FD0FC00FB607FCF5CF4B
:10173000808185FFF2CFA889B9898C9185FFEDCF93
:10174000CE010E941D0BE7CFDF91CF91089580E07D
:1017500090E0892B21F00E94130B811119C080E0C9
:1017600090E0892B41F080E090E0892B21F00E94ED
:101770000000811110C00E94090B81110FC080E090
:1017800090E0892B81F00E94FF0A81110AC0089520
:101790000E940000E4CF0E940000EDCF0E947A0674
:1017A000EECF0C9400000895089580E090E0089535
:1017B0000E940C24FC01248131E03093EF0320933C
:1017C000EE031092ED031092EC038485682B80EFFA
:1017D00093E00E941D1261E080EF93E00C947B1275
:1017E0000F931F93CF938C01C62F64600E94DA0B76
:1017F0006C2F6B7FC8010E94DA0B83EC90E001979D
:10180000F1F7CF911F910F9108950F931F93CF93ED
:10181000DF938C01C62FD62FD07FD1606D2F0E9411
:10182000DA0B6D2FC8010E94F00B80E1C89FB00158
:101830001124C62FC1606C2FC8010E94DA0B6C2FD7
:10184000C8010E94F00B81E090E0DF91CF911F91E1
:101850000F9108951F920F920FB60F9211240BB69D
:101860000F922F933F934F935F936F937F938F9339
:101870009F93AF93BF93EF93FF938091E803909171
:10188000E903A091EA03B091EB03892B8A2B8B2B00
:1018900059F18091E703E091E503F091E60390812F
:1018A000892780838091E8039091E903A091EA035E
:1018B000B091EB03181619061A061B060CF056C059
:1018C0008091E8039091E903A091EA03B091EB03C2
:1018D0000197A109B1098093E8039093E903A093CC
:1018E000EA03B093EB0342C080910202E8E9F2E020
:1018F000E4919FEF90930202E230C9F050F4EE239E
:1019000099F0E13081F590916F009D7F90936F0089
:101910002AC0E43019F1E0F0E53029F59091730028
:101920009D7F909373001FC010926E001CC0909119
:1019300070009D7F9093700091E09093B000909123
:10194000B100987F94609093B1001092B3000BC0E7
:10195000909171009D7F9093710005C090917200ED
:101960009D7F9093720060E00E942D13FF91EF9194
:10197000BF91AF919F918F917F916F915F914F91A7
:101980003F912F910F900BBE0F900FBE0F901F90A5
:1019900018951F920F920FB60F9211240BB60F924B
:1019A0002F933F934F935F936F937F938F939F9367
:1019B000AF93BF93EF93FF938CEF93E00E941D0BC7
:1019C000FF91EF91BF91AF919F918F917F916F9117
:1019D0005F914F913F912F910F900BBE0F900FBED3
:1019E0000F901F9018951F920F920FB60F9211240F
:1019F0000BB60F922F933F934F935F936F937F9309
:101A00008F939F93AF93BF93EF93FF938CEF93E0EC
:101A10000E94A90AFF91EF91BF91AF919F918F9181
:101A20007F916F915F914F913F912F910F900BBEDE
:101A30000F900FBE0F901F9018951F920F920FB628
:101A40000F9211240BB60F922F933F934F935F93F6
:101A50006F937F938F939F93AF93BF93EF93FF9376
:101A600089E994E00E941D0BFF91EF91BF91AF9126
:101A70009F918F917F916F915F914F913F912F91A6
:101A80000F900BBE0F900FBE0F901F9018951F92D6
:101A90000F920FB60F9211240BB60F922F933F9314
:101AA0004F935F936F937F938F939F93AF93BF9366
:101AB000EF93FF9389E994E00E94A90AFF91EF91C7
:101AC000BF91AF919F918F917F916F915F914F9156
:101AD0003F912F910F900BBE0F900FBE0F901F9054
:101AE00018951F920F920FB60F9211240BB60F92FA
:101AF0002F933F934F935F936F937F938F939F9316
:101B0000AF93BF93EF93FF9386E395E00E941D0B85
:101B1000FF91EF91BF91AF919F918F917F916F91C5
:101B20005F914F913F912F910F900BBE0F900FBE81
:101B30000F901F9018951F920F920FB60F921124BD
:101B40000BB60F922F933F934F935F936F937F93B7
:101B50008F939F93AF93BF93EF93FF9386E395E0AB
:101B60000E94A90AFF91EF91BF91AF919F918F9130
:101B70007F916F915F914F913F912F910F900BBE8D
:101B80000F900FBE0F901F9018951F920F920FB6D7
:101B90000F9211240BB60F922F933F934F935F93A5
:101BA0006F937F938F939F93AF93BF93CF93DF9365
:101BB000EF93FF932091D40530E0F901E75AFC4FF1
:101BC0008491F901ED5EFC4FD491F901E353FD4F8F
:101BD000C491CC23A1F081110E94D712EC2FF0E028
:101BE000EE0FFF1FE258FD4FA591B491EC91ED234C
:101BF00031E020E009F430E0832F922F02C080E032
:101C000090E02091D8053091D9052F5F3F4F309358
:101C1000D9052093D8052091D705253618F026E060
:101C20002093D3052091D3052430D9F128F4223014
:101C300069F02330D9F060C0253009F453C0263054
:101C400009F05AC021E02093A40653C0009709F080
:101C500053C02091D8053091D9052436310508F4B8
:101C600043C01092A4061092D7051DC08130910583
:101C700009F042C0E091D70521E02E0F2093D7054F
:101C8000F0E02091D8053091D905EE0FFF1FED52FD
:101C9000FA4F308727831092D9051092D80524E097
:101CA00029C00097B9F4E091D70521E02E0F2093C9
:101CB000D705F0E02091D8053091D905EE0FFF1F30
:101CC000ED52FA4F308727831092D9051092D8052C
:101CD00023E010C02091D8053091D9052536310573
:101CE00058F007C0009741F41092D9051092D8051A
:101CF00003C025E02093D3052091D6052223B9F017
:101D0000892B51F48091D505882321F08091D50548
:101D100061E009C02F9A0BC08091D505882331F06E
:101D20008091D50560E00E942D1301C02F98FF918E
:101D3000EF91DF91CF91BF91AF919F918F917F9163
:101D40006F915F914F913F912F910F900BBE0F902C
:101D50000FBE0F901F9018958F929F92AF92BF92D7
:101D6000CF92DF92EF92FF920F931F93CF93DF9367
:101D7000EC016A017B0120E030E04FE753E4C7014A
:101D8000B6010E943F1E4B015C0120E030E0A9013A
:101D90000E94672018161CF4C501B40103C0C501D8
:101DA000B40190580E9431208B0120E030E0A9015D
:101DB000C701B6010E946720181614F460E001C044
:101DC00061E089810E942D130F3F110509F014F481
:101DD000112702C00FEF10E0C88161E08C2F0E9434
:101DE0007B130115110509F4B1C00F3F110509F46A
:101DF000AFC0EC2FF0E0E75AFC4FE4914E2F50E0DB
:101E0000FA013197E231F10508F09DC08827EE58BC
:101E1000FF4F8F4F0C944A1F84B5806884BD07BD67
:101E2000A7C084B5806284BD08BDA2C08091800037
:101E3000806880938000109389000093880098C088
:101E40008091800080628093800010938B000093CB
:101E50008A008EC0809180008860809380001093FB
:101E60008D0000938C0084C08091B00080688093C6
:101E7000B0000093B3007CC08091B000806280937A
:101E8000B0000093B40074C080919000806880938B
:101E9000900010939900009398006AC08091900080
:101EA00080628093900010939B0000939A0060C022
:101EB0008091900088608093900010939D00009323
:101EC0009C0056C08091A00080688093A000809103
:101ED000A0008F7B8093A0001093A9000093A8001E
:101EE00047C08091A00080628093A0001093AB0057
:101EF0000093AA003DC08091A00088608093A0005C
:101F00001093AD000093AC0033C080912001806835
:101F100080932001109329010093280129C080910A
:101F2000200180628093200110932B0100932A01ED
:101F30001FC08091200188608093200110932D01A3
:101F400000932C0115C00038110514F460E001C0A5
:101F500061E08C2FDF91CF911F910F91FF90EF9057
:101F6000DF90CF90BF90AF909F908F900C942D13E7
:101F7000DF91CF911F910F91FF90EF90DF90CF9065
:101F8000BF90AF909F908F9008951F920F920FB6C1
:101F90000F9211240BB60F922F933F934F935F93A1
:101FA0006F937F938F939F93AF93BF93EF93FF9321
:101FB0008091E40387FF05C0109285001092840091
:101FC00016C02091E403022E000C330B8091E10631
:101FD00090E0281739075CF43091E40325E03203E0
:101FE000F0011124EB55F94F808186FD15C08091D9
:101FF000E4038F5F8093E4032091E403022E000C3E
:10200000330B8091E10690E02817390794F4809112
:10201000E4038C302CF10DC03091E4033203F00165
:102020001124EB55F94F808160E08F730E942D13CE
:10203000DECF809184009091850084349C4918F40F
:1020400080E49CE905C0809184009091850004960D
:1020500090938900809388008FEF8093E4032AC0D7
:1020600040918400509185003091E40325E03203D3
:10207000F0011124EB55F94F81819281840F951F56
:1020800090938900809388003091E4033203F0013B
:102090001124EB55F94F808186FF0CC03091E40389
:1020A0003203F0011124EB55F94F808161E08F7309
:1020B0000E942D13FF91EF91BF91AF919F918F914E
:1020C0007F916F915F914F913F912F910F900BBE38
:1020D0000F900FBE0F901F9018958EBD00000DB48D
:1020E00007FEFDCF8EB50895CF93DF93EC0160E03E
:1020F00088810E942D1388E90E946D1080E00E9463
:102100006D1080E00E946D1080E00E946D1080E0F4
:102110000E946D1061E088810E942D138BE891E090
:102120000197F1F760E088810E942D1380EE0E94F4
:102130006D1061E08881DF91CF910C942D13AF92E7
:10214000BF92CF92DF92EF92FF920F931F93CF93A4
:10215000DF93CDB7DEB760970FB6F894DEBF0FBE42
:10216000CDBF5C0160E0FC0180810E942D1380E600
:102170000E946D108E010F5F1F4F7E01F1E1EF0E87
:10218000F11C680180E00E946D1090E0A0E0B0E0DA
:10219000F60181939193A193B1936F01EE15FF0521
:1021A00089F761E0F50180810E942D1380E090E0C5
:1021B000DC01F80141915191619171918F01BA2F28
:1021C000A92F982F8827840F951FA61FB71FEE15DC
:1021D000FF0579F79C01AD0166277727CB01621BCC
:1021E000730B840B950B60960FB6F894DEBF0FBE91
:1021F000CDBFDF91CF911F910F91FF90EF90DF90B6
:10220000CF90BF90AF900895E6E3F5E0A089B18943
:1022100082E08C93A485B5851C92A685B7858FEC4A
:102220008C93108EA489B58986E08C93A289B3899A
:102230008C9180618C93A289B3898C9188608C93F6
:10224000A289B3898C9180688C930288F389E02DF0
:1022500080818F7D80830895009769F0FC01019053
:102260000020E9F73197AF01481B590BBC0186E309
:1022700095E00C947E0A80E090E0089580E293E07F
:102280000C942C11CF93DF930E942C11EC010E942F
:102290003E118C0F9D1FDF91CF910895EF92FF9219
:1022A0001F93CF93DF931F92CDB7DEB7162F9BEA14
:1022B000E92E97E0F92ED7011C969C911C9721E0FE
:1022C0002093EF039093EE031092ED031092EC0332
:1022D0001A960D90BC91A02DED91FC911197019053
:1022E000F081E02D682FCD0179831995F701828562
:1022F0009385DC01ED91FC910190F081E02D7981D5
:10230000672F1995F70182859385DC01ED91FC918A
:102310000190F081E02D612F199561E0F701828530
:1023200093850F90DF91CF911F91FF90EF900C94C8
:102330007B1240914A03262F30E0240F311D2132B9
:102340003105DCF4209171032430C9F4FC0180E0F4
:1023500090E0861758F430914A032191DC01A65D84
:10236000BC4FA30FB11D2C930196F3CF80914A036C
:10237000680F60934A0380E0089581E0089582E049
:1023800008950895E091730380917203E81730F483
:10239000F0E0EC58FC4F808190E008958FEF9FEFC4
:1023A00008959091730380917203981750F4E92F68
:1023B000F0E0EC58FC4F208130E09F5F9093730376
:1023C00002C02FEF3FEFC90108958091720390E0A2
:1023D00020917303821B91090895CF92DF92EF92AF
:1023E000FF920F931F93CF93DF937C01262F972F9C
:1023F0008A018091EF03882391F0C62FD72F6E01B9
:10240000C40ED51ECC15DD0571F06991D701ED9193
:10241000FC910190F081E02DC7011995F3CF642F55
:10242000822F0E949911C801DF91CF911F910F91C6
:10243000FF90EF90DF90CF900895CF93DF931F929E
:10244000CDB7DEB769832091EF032223D1F020912D
:10245000EC03203240F021E030E0FC0133832283A2
:1024600080E090E015C08091ED03E82FF0E0E551A9
:10247000F84F998190838F5F8093ED038093EC03F5
:1024800005C061E0CE0101960E94991181E090E0C3
:102490000F90DF91CF9108953FB7F8948091E707AF
:1024A0009091E807A091E907B091EA0726B5A89BAB
:1024B00005C02F3F19F00196A11DB11D3FBFBA2FD6
:1024C000A92F982F8827820F911DA11DB11DBC0136
:1024D000CD0142E0660F771F881F991F4A95D1F7FB
:1024E000089585ED8093BC008091BC0084FDFCCFF5
:1024F0001092710308952091EC039091EE03213224
:1025000008F049C0809171038111FCCF32E0309313
:102510007103609370033FEF30936F0310926E036B
:1025200020936D03ABEEB7E04BE453E0FA013E2F8E
:10253000341B321718F43D913193F9CF10926C038C
:1025400020916C03990F922B90936C0390916B03E5
:10255000913061F410926B0390916C039093BB00E7
:102560009091BC0093FDF8CF95EC01C095EE90934F
:10257000BC00909171039230E1F390916F039F3F03
:1025800079F080916F03803241F080916F03803346
:1025900031F084E005C081E003C082E001C083E047
:1025A0001092ED031092EC031092EF03089590E067
:1025B000FC013197E231F10508F04EC08827EC5755
:1025C000FF4F8F4F0C944A1F809180008F7703C07C
:1025D000809180008F7D809380000895809180009D
:1025E000877FF9CF84B58F7702C084B58F7D84BD96
:1025F00008958091B0008F7703C08091B0008F7DE7
:102600008093B0000895809190008F7707C08091EB
:1026100090008F7D03C080919000877F8093900011
:1026200008958091A0008F7707C08091A0008F7DD2
:1026300003C08091A000877F8093A00008958091BF
:1026400020018F7707C0809120018F7D03C080918A
:102650002001877F8093200108951F93CF93DF93FC
:10266000282F30E0F901E75AFC4F8491F901ED5E23
:10267000FC4FD491F901E353FD4FC491CC23C9F031
:10268000162F81110E94D712EC2FF0E0EE0FFF1FE2
:10269000ED54FD4FA591B4918FB7F894111105C079
:1026A0009C91ED2FE095E92302C0EC91ED2BEC938A
:1026B0008FBFDF91CF911F9108951092710381E038
:1026C0008093700310926B0361E084E10E942D13EC
:1026D00061E085E10E942D13E9EBF0E080818E7FBF
:1026E000808380818D7F808388E48093B80085E437
:1026F0008093BC000895CF93DF9390E0FC01ED5EE2
:10270000FC4F2491FC01E353FD4F8491882361F138
:1027100090E0880F991FFC01E756FD4FC591D491B9
:10272000FC01ED54FD4FA591B491611109C09FB713
:10273000F8948881209582238883EC912E230BC006
:10274000623061F49FB7F8943881822F809583239B
:102750008883EC912E2B2C939FBF06C08FB7F894E3
:10276000E8812E2B28838FBFDF91CF910895863388
:1027700008F0865390917B00282F2870977F922B2A
:1027800090937B008770806480937C0080917A00B6
:10279000806480937A0080917A0086FDFCCF8091DE
:1027A00078002091790090E0922B08958F929F926B
:1027B000AF92BF92CF92DF92EF92FF926B017C01BA
:1027C0000E944C124B015C01C114D104E104F104DC
:1027D000F1F00E944C12DC01CB0188199909AA0979
:1027E000BB09883E9340A105B10570F321E0C21AF0
:1027F000D108E108F10888EE880E83E0981EA11C3C
:10280000B11CC114D104E104F10419F7DDCFFF902C
:10281000EF90DF90CF90BF90AF909F908F900895F2
:102820001F920F920FB60F9211242F933F938F9305
:102830009F93AF93BF938091E3079091E407A0919A
:10284000E507B091E6073091E20723E0230F2D372B
:1028500020F40196A11DB11D05C026E8230F0296A4
:10286000A11DB11D2093E2078093E3079093E40735
:10287000A093E507B093E6078091E7079091E807FA
:10288000A091E907B091EA070196A11DB11D8093BF
:10289000E7079093E807A093E907B093EA07BF9191
:1028A000AF919F918F913F912F910F900FBE0F90FD
:1028B0001F9018954F925F926F927F928F929F9286
:1028C000AF92BF92CF92DF92EF92FF92CF93DF93BE
:1028D00000D01F92CDB7DEB76B017C0188EC97E08A
:1028E0000E949F1090958095709561957F4F8F4FB6
:1028F0009F4F0E94E01D2B013C01609313087093D1
:10290000140880931508909316088AEC97E00E94AB
:102910009F100E94E01D69837A838B839C83609360
:102920000F087093100880931108909312089B0170
:10293000AC01C301B2010E94521F4B015C016093C4
:102940000B0870930C0880930D0890930E0820E0FC
:1029500030E040EA50E40E94D91D87FD26C020E007
:1029600030E040E251E4C501B4010E94D91D87FD69
:1029700025C020E030E040E751E4C501B4010E94E9
:10298000D91D87FD23C020E030E040EA51E4C501B5
:10299000B4010E94D91D87FD22C04AE9842E49E96D
:1029A000942EA92C4EE3B42E22C03DEC832E3CEC99
:1029B000932E3CE4A32E3DE3B32E19C02DEC822EC2
:1029C0002CEC922EA92C2DE3B22E11C09AE9892E5F
:1029D00099E9992E99E1A92E9EE3B92E08C08DECB4
:1029E000882E8CEC982E8CE4A82E8EE3B82E2981AC
:1029F0003A814B815C81C301B2010E9467201816A5
:102A0000ECF4A501940160E070E080E89FE30E948F
:102A1000521F9B01AC01C701B6010E943F1EAB01D2
:102A2000BC0184EC97E00E94AC0E20E030E040E86E
:102A30005FE3C501B4010E94531F26C029813A817A
:102A40004B815C81C301B2010E94D91D87FF25C063
:102A500020E030E040E85FE3C501B4010E94531F6D
:102A60009B01AC01C701B6010E943F1EAB01BC0136
:102A700084EC97E00E94AC0EA501940160E070E048
:102A800080E89FE30E94521F9B01AC01C701B60181
:102A90000E943F1EAB01BC0108C0B701A60184EC37
:102AA00097E00E94AC0EB701A601705886EC97E043
:102AB0000F900F900F900F90DF91CF91FF90EF90BC
:102AC000DF90CF90BF90AF909F908F907F906F904E
:102AD0005F904F900C94AC0ECF93DF93CDB7DEB7E1
:102AE00028970FB6F894DEBF0FBECDBF789484B59B
:102AF000826084BD84B5816084BD85B5826085BDFA
:102B000085B5816085BD80916E00816080936E0087
:102B10001092810080918100826080938100809179
:102B2000810081608093810080918000816080932A
:102B300080008091B10084608093B1008091B000EA
:102B400081608093B00080919100826080939100B9
:102B500080919100816080939100809190008160CC
:102B6000809390008091A10082608093A100809169
:102B7000A10081608093A1008091A000816080937A
:102B8000A000809121018260809321018091210128
:102B900081608093210180912001816080932001D8
:102BA00080917A00846080937A0080917A008260BC
:102BB00080937A0080917A00816080937A0080917E
:102BC0007A00806880937A001092C1000E947D068E
:102BD00002E010E00E943C048091A0039091A103C8
:102BE000019709F055C080919E0390919F03892B16
:102BF00009F04EC00E943C048091A0039091A10373
:102C0000019769F46AE070E080E090E00E94D613DA
:102C10000E943C0489E392E00E944211EDCF0E94A1
:102C20003C0483E492E00E94421180912803909139
:102C30002903009759F481E090E090932903809351
:102C4000280340E050E064EF71E00FC0813091054F
:102C500079F4E2E0F0E0F0932903E093280346E9F9
:102C600050E064EF71E082E090E00E94510802C001
:102C7000029709F38DE492E00E940E0580912803EB
:102C8000909129030E94100582E293E00E94421174
:102C90000E943C048091280390912903892B49F4D8
:102CA00062E370E080E090E00E94D6130E94A70BE0
:102CB00091CF1C821B828091A0039091A103892B4C
:102CC00079F780919E0390919F03019749F70E94A5
:102CD0003C048B819C8101969C838B8364E670E02D
:102CE00080E090E00E94D613EB81FC813A9719F7BF
:102CF00048EC50E068EE73E081E090E00E945108FB
:102D000044E650E069EE70E083E090E00E945108F4
:102D1000809128039091290398878F83212C312C4F
:102D2000EF81F885319709F0A9C284E592E00E940D
:102D3000421161E08EE20E942D130E943C048091BA
:102D40009E0390919F03019709F088C20E94310869
:102D500089E090E00E948A0820E030E040EA51E4F7
:102D60000E94D91D87FFF1C040E050E068EE73E09B
:102D700081E090E00E9451080E94B0090E94310851
:102D800060E070E080E89FE30E9405020E94310845
:102D900088EC97E00E94741088E00E94B713BC0191
:102DA000990F880B990B0E94E01D26EA3BE944EC41
:102DB0005BEB0E943F1E9B01AC016DEF76EF8DE255
:102DC00090E40E946C202DE73FE34BEA52E40E941E
:102DD0003F1E0E9431206932710554F56B01FFE0FE
:102DE000CF0ED11C0D2C000CEE08FF080E943108FC
:102DF0006AE979E989E99EE30E945A1488E090E043
:102E00000E948A084B015C01C701B6010E94E01DC7
:102E10009B01AC01C501B4010E94D91D87FF08C008
:102E20000E943C0480919E0390919F030197F1F2D0
:102E300088EC97E00E949F100E9431080E94B00920
:102E40000E947C0980ED97E00E94C7090E9431082A
:102E50000E947C0960E070E0CB010E9405020E94A4
:102E600031080E947C0980EA9FE00E94C7090E9405
:102E7000310888E090E00E948A080E943120615F5A
:102E80007F4F6B01770FEE08FF086AE979E989E95E
:102E90009EE30E945A1488E00E94B713BC01990F68
:102EA000880B990B0E94E01D26EA3BE944EC5BEBA2
:102EB0000E943F1E9B01AC016DEF76EF8DE290E426
:102EC0000E946C202DE73FE34BEA52E40E943F1E34
:102ED0004B015C01C701B6010E94E01D9B01AC01E2
:102EE000C501B4010E94D91D87FF08C00E943C049F
:102EF00080919E0390919F03019739F20E943108BF
:102F00000E947C0980ED97E00E94C7090E94310869
:102F10000E947C0960E070E0CB010E9405024DEC4C
:102F20005CEC6CE47EE384EC97E00E94AC0E4DEC2C
:102F30005CEC6CE47EE384EC97E00E94AC0E83E0F2
:102F400090E0909325038093240380E00E94B713C0
:102F50002C0181E00E94B7135C0182E00E94B7134C
:102F60009E838D8383E00E94B7137C0184E00E94DE
:102F7000B7136C0185E00E94B7139A83898386E0BA
:102F80000E94B7134C0187E00E94B7133C0140E058
:102F900050E060E87EE384EC97E00E94AC0E40E0F5
:102FA00050E060E87EEB86EC97E00E94AC0E87E68E
:102FB00092E00E940E05C7010E9410050E943E117A
:102FC0008DE692E00E940E05C6010E9410050E9447
:102FD0003E1183E792E00E940E0589819A810E944A
:102FE00010050E943E1189E792E00E940E05C4017F
:102FF0000E9410050E943E110E943E1129E5A21672
:1030000022E0B2060CF44CC08D819E81893592403D
:103010000CF446C0F9E5EF16F2E0FF060CF41FC30E
:1030200029E5C21622E0D2060CF440C089819A81BB
:1030300089359240DCF1F9E58F16F2E09F06B4F194
:1030400029E5621622E072068CF1809124039091AA
:103050002503039759F54DEC5CEC6CE47EE384ECBE
:1030600097E00E94AC0E4DEC5CEC6CE47EEB86ECE1
:1030700097E00E94AC0E66E970E080E090E00E946C
:10308000D6134DEC5CEC6CE47EE386EC97E00E949A
:10309000AC0E62EE74E080E090E00E94D61306C0B1
:1030A00089E5E81682E0F8060CF4D3C299E5C91662
:1030B00092E0D9060CF440C0E981FA81E935F2408A
:1030C000DCF189E5881682E09806B4F199E5691685
:1030D00092E079068CF1E4EF4E16E1E05E0664F5CD
:1030E0008091240390912503039709F46BC24DEC62
:1030F0005CEC6CE47EE384EC97E00E94AC0E4DEC5B
:103100005CEC6CE47EEB86EC97E00E94AC0E66E92A
:1031100070E080E090E00E94D6134DEC5CEC6CE433
:103120007EEB84EC97E00E94AC0E6CED75E080E0E5
:1031300090E00E94D61346C2F9E54F16F2E05F0612
:103140000CF446C029E5A21622E0B2060CF440C0F9
:103150008D819E8189359240DCF1F9E5EF16F2E030
:10316000FF060CF47CC229E5C21622E0D206B4F1B7
:1031700084EF681681E078068CF5809124039091A5
:103180002503039759F14DEC5CEC6CE47EE384EC91
:1031900097E00E94AC0E4DEC5CEC6CE47EEB86ECB0
:1031A00097E00E94AC0E66E970E080E090E00E943B
:1031B000D6134DEC5CEC6CE47EE386EC97E00E9469
:1031C000AC0E6CED75E080E090E00E94D61306C076
:1031D00099E5E91692E0F9060CF441C2E9E5CE164C
:1031E000E2E0DE060CF4F5C140E050E060E87EE38A
:1031F00084EC97E00E94AC0E40E050E060E87EEB8B
:1032000086EC97E00E94AC0EF9E58F16F2E09F067F
:1032100034F081E090E0909325038093240399E5B6
:10322000691692E0790634F0E1E0F0E0F0932503CE
:10323000E0932403F9E5AF16F2E0BF0624F0109303
:1032400025030093240329E5421622E052060CF4DC
:10325000C0C11093250300932403BBC140E050E09C
:10326000BA0184EC97E00E94AC0E40E050E060E0D0
:1032700070E886EC97E00E94AC0E67C18F8198855C
:10328000029709F062C189E892E00E9442118091A0
:103290009E0390919F03019709F050C189E090E04F
:1032A0000E948A0820E030E040EA51E40E94D91DE3
:1032B00087FF20C00E943C04809196039091970361
:1032C0008E3B9105BCF040E050E0BA0184EC97E001
:1032D0000E94AC0E40E050E060E070E886EC97E0C1
:1032E0000E94AC0E4AEF50E062EE74E082E090E0A3
:1032F0000E9451088CE992E00E940E058091000224
:10330000909101020E94100585EA92E00E940E054C
:1033100088EA92E00E940E0580912603909127038F
:103320000E94100585EA92E00E940E0580919403A8
:1033300090919503AC014D53510920919603309122
:1033400097034138510508F08AC0A9014D5351092E
:103350004138510508F083C084EB92E00E9442118D
:103360008091000290910102892B09F064C0E090E5
:103370002603F0902703B7010F2C000C880B990B44
:103380000E94E01D2DEC3CEC4CEC5EE30E943F1EE5
:103390004B015C0191E0E916F104F1F420E030E02A
:1033A000A901C501B4010E9467201816C4F42DECD0
:1033B0003CEC4CEC5DE3C501B4010E94521F4B0193
:1033C0005C019B01AC010E943A0864E670E080E079
:1033D00090E00E94D613E2CFEF20E09471F020E05D
:1033E00030E0A901CA01B9010E943A08E1E0F0E029
:1033F000F0930102E09300021EC020E030E0A9013A
:10340000C501B4010E94D91D87FFE9CF2DEC3CEC2A
:103410004CEC5DE3C501B4010E94531F4B015C01FC
:103420009B01AC010E943A0864E670E080E090E005
:103430000E94D613E2CF8091000290910102029780
:1034400039F420E030E0A901CA01B9010E943A082C
:1034500081E090E0909301028093000276C02E3BC1
:103460003105BCF02DEC3CEC4CEC5EE3CA01B9013B
:103470000E943A08E1E0F0E0F0932703E09326038E
:1034800010920102109200028AEB92E00E94421117
:103490005CC02D3331059CF489EC92E00E9442110E
:1034A0008FEF9FEF909327038093260310920102E2
:1034B000109200022DEC3CEC4CEC5EEB42C08E3BDB
:1034C0009105E4F081EE92E00E9442111093010216
:1034D000009300026091260370912703072E000CD1
:1034E000880B990B0E94E01D2AE939E949E95EE35E
:1034F0000E943F1E20E030E0A90125C0CD972CF5A9
:1035000087EF92E00E9442111093010200930002A3
:103510006091260370912703072E000C880B990BEE
:103520000E94E01D2AE939E949E95EE30E943F1E55
:103530009B01AC0160E070E0CB0105C020E030E011
:10354000A901CA01B9010E943A080E943C0464E63C
:1035500070E080E090E00E94D6138091A0039091EB
:10356000A1038130910521F49FEF291A390A04C083
:10357000892B11F4212C312C8CE093E00E940E0554
:10358000C1010E9410050E943E11EBE02E1631048D
:103590000CF4C6CB40E050E0BA0184EC97E00E9406
:1035A000AC0E40E050E060E070E886EC97E00E94EE
:1035B000AC0E44E650E064E670E08AE090E00E94E1
:1035C000510879CB99E5E91692E0F9060CF00CCE9A
:1035D00008C1E4EFCE16E1E0DE060CF0B6CF4AE912
:1035E00059E969E97EE384EC97E00E94AC0E40E083
:1035F00050E060E070E886EC97E00E94AC0E89E550
:10360000881682E0980634F0E1E0F0E0F0932503BC
:10361000E0932403F9E56F16F2E07F0634F081E0D1
:1036200090E0909325038093240399E5A91692E0F6
:10363000B90624F01093250300932403E9E54E1600
:10364000E2E05E060CF481CF10932503009324037F
:103650007CCF89E5481682E058060CF0BBC0F4EF39
:10366000EF16F1E0FF060CF070CFF9E5CF16F2E0AF
:10367000DF06BCF14AE959E969E97EEB86EC97E09F
:103680000E94AC0E40E050E0BA0184EC97E00E944A
:10369000AC0E29E5821622E0920634F081E090E03B
:1036A000909325038093240399E5691692E07906A7
:1036B00034F0E1E0F0E0F0932503E0932403F9E532
:1036C000AF16F2E0BF0624F0109325030093240305
:1036D00029E5421622E0520624F0109325030093B8
:1036E000240324EFC21621E0D2060CF02ECF8981EC
:1036F0009A818935924034F081E090E090932503DF
:103700008093240399E5891692E0990634F0E1E06C
:10371000F0E0F0932503E09324038D819E818935A9
:10372000924024F01093250300932403F9E5AF168B
:10373000F2E0BF0624F010932503009324038FE7E3
:1037400092E00E940E0580912403909125030E942F
:1037500010050E943E118091240390912503813031
:10376000910569F44DEC5CEC6CE47EEB86EC97E043
:103770000E94AC0E4DEC5CEC6CE47EEB20C0823021
:10378000910579F44DEC5CEC6CE47EE384EC97E01D
:103790000E94AC0E4DEC5CEC6CE47EE386EC97E0B2
:1037A00010C0039781F44DEC5CEC6CE47EEB86EC8E
:1037B00097E00E94AC0E4DEC5CEC6CE47EE384EC94
:1037C00097E00E94AC0E62E370E080E090E00E941F
:1037D000D613BBCE99E5A91692E0B9060CF0B8CC89
:1037E0003ECFE4EFEE16E1E0FE060CF443CFADCEA3
:1037F0008091E2069091E3060C948B221092F303E1
:103800001092F20388EE93E0A0E0B0E08093F4031E
:103810009093F503A093F603B093F7032DE032E005
:103820003093F1032093F0031092FF031092FE03F4
:103830008093000490930104A0930204B0930304C6
:103840002FE132E03093FD032093FC0345E351E088
:10385000509309044093080444E351E050930B044F
:1038600040930A0440E351E050930D0440930C044C
:1038700041E351E050930F0440930E0442E351E0C2
:10388000509311044093100446E351E05093130405
:10389000409312041092150410921604109217040B
:1038A0001092180410929C0410929B0480939D0423
:1038B00090939E04A0939F04B093A00430939A0425
:1038C0002093990445ED50E05093A6044093A5043D
:1038D00044ED50E05093A8044093A70440ED50E01D
:1038E0005093AA044093A90441ED50E05093AC04D6
:1038F0004093AB0442ED50E05093AE044093AD04CE
:1039000046ED50E05093B0044093AF041092B204DF
:103910001092B3041092B4041092B50410923905B9
:103920001092380580933A0590933B05A0933C058F
:10393000B0933D05309337052093360585EC90E034
:10394000909343058093420584EC90E09093450565
:103950008093440580EC90E0909347058093460562
:1039600081EC90E0909349058093480582EC90E0CB
:1039700090934B0580934A0586EC90E090934D051B
:1039800080934C0510924F051092500510925105EE
:103990001092520586E38093CC0787E38093CD078E
:1039A00088E38093CE0789E38093CF078BE18093F0
:1039B000D0078DE18093D1078AE18093D2078CE113
:1039C0008093D30784E08093D40787E08093D50762
:1039D0001092D60784EB8093D70786E18093D807AF
:1039E00088E18093D90787E18093DA0789E18093A2
:1039F000DB07E091E106EC3020F08FEF8093DC07ED
:103A000010C081E08E0F8093E106E093DC0725E093
:103A1000E29FF0011124EB55F94F88EB9BE0928374
:103A20008183E091E106EC3020F08FEF8093DD0799
:103A300010C081E08E0F8093E106E093DD0785E002
:103A4000E89FF0011124EB55F94F88EB9BE092833E
:103A500081838CE08093AB0784E28093AC0786E09F
:103A60008093AD0785E08093AE078FE18093AF0729
:103A70008EE18093B00783E28093B10782E2809366
:103A8000B20785E48093B30784E48093B40780E4AD
:103A90008093B7071092BC071092BD071092BE0723
:103AA0001092BF071092C0071092C1071092C20770
:103AB0001092C307EDEEF6E08FEF9FEFDC0112826C
:103AC00013821482158216821782108611868387CC
:103AD0009487A587B6878787908BA18BB28B128638
:103AE00011821082739627E0EB3AF20741F78DE0DE
:103AF00090E00E94F621FC011382128281E392E0A1
:103B000091838083118687E2848384E1828784E0C5
:103B100083871486F093EA06E093E9061092EB0699
:103B20001092EC0685E28093D4051092D60510928F
:103B3000E3061092E2061092E5061092E406109257
:103B4000E7061092E60661E070E080E090E00E94F7
:103B50002323009789F09093E3068093E206109266
:103B6000E5061092E4062091E6063091E706232B45
:103B7000C1F4FC01108215C08091E2069091E30629
:103B8000009711F00E948B221092E3061092E20639
:103B90001092E7061092E6061092E5061092E406EF
:103BA00008951092E7061092E60662E273E00C9424
:103BB0001A240E941B1E08F481E00895E89409C0AD
:103BC00097FB3EF490958095709561957F4F8F4F50
:103BD0009F4F9923A9F0F92F96E9BB279395F69566
:103BE000879577956795B795F111F8CFFAF4BB0FE4
:103BF00011F460FF1BC06F5F7F4F8F4F9F4F16C048
:103C0000882311F096E911C0772321F09EE8872FD1
:103C1000762F05C0662371F096E8862F70E060E08D
:103C20002AF09A95660F771F881FDAF7880F969506
:103C3000879597F90895990F0008550FAA0BE0E8AA
:103C4000FEEF16161706E807F907C0F0121613065E
:103C5000E407F50798F0621B730B840B950B39F49E
:103C60000A2661F0232B242B252B21F408950A2604
:103C700009F4A140A6958FEF811D811D08950E9432
:103C8000521E0C94C31E0E94B51E38F00E94BC1E2A
:103C900020F0952311F00C94AC1E0C94B21E11244C
:103CA0000C94F71E0E94D41E70F3959FC1F3950FDC
:103CB00050E0551F629FF001729FBB27F00DB11DB0
:103CC000639FAA27F00DB11DAA1F649F6627B00D40
:103CD000A11D661F829F2227B00DA11D621F739F29
:103CE000B00DA11D621F839FA00D611D221F749F37
:103CF0003327A00D611D231F849F600D211D822F7E
:103D0000762F6A2F11249F5750409AF0F1F08823A4
:103D10004AF0EE0FFF1FBB1F661F771F881F9150D1
:103D20005040A9F79E3F510580F00C94AC1E0C94B6
:103D3000F71E5F3FE4F3983ED4F386957795679539
:103D4000B795F795E7959F5FC1F7FE2B880F911DFB
:103D50009695879597F9089597F99F6780E870E0A1
:103D600060E008959FEF80EC089500240A941616F1
:103D7000170618060906089500240A941216130659
:103D8000140605060895092E0394000C11F48823E7
:103D900052F0BB0F40F4BF2B11F460FF04C06F5F03
:103DA0007F4F8F4F9F4F089557FD9058440F551FD9
:103DB00059F05F3F71F04795880F97FB991F61F0AD
:103DC0009F3F79F087950895121613061406551F24
:103DD000F2CF4695F1DF08C0161617061806991F90
:103DE000F1CF86957105610508940895E894BB2785
:103DF00066277727CB0197F90895052E97FB1EF4C8
:103E000000940E94141F57FD07D00E941C1F07FC3E
:103E100003D04EF40C94141F509540953095219585
:103E20003F4F4F4F5F4F08959095809570956195E6
:103E30007F4F8F4F9F4F0895A1E21A2EAA1BBB1BE5
:103E4000FD010DC0AA1FBB1FEE1FFF1FA217B30766
:103E5000E407F50720F0A21BB30BE40BF50B661F7C
:103E6000771F881F991F1A9469F760957095809540
:103E700090959B01AC01BD01CF010895991B79E09C
:103E800004C0991F961708F0961B881F7A95C9F7EA
:103E900080950895EE0FFF1F881F8BBF0790F69146
:103EA000E02D19945058BB27AA270E946A1F0C9432
:103EB000C31E0E94B51E38F00E94BC1E20F039F4CB
:103EC0009F3F19F426F40C94B21E0EF4E095E7FB24
:103ED0000C94AC1EE92F0E94D41E58F3BA17620747
:103EE00073078407950720F079F4A6F50C94F61E65
:103EF0000EF4E0950B2EBA2FA02D0B01B901900105
:103F00000C01CA01A0011124FF27591B99F0593F48
:103F100050F4503E68F11A16F040A22F232F342F90
:103F20004427585FF3CF469537952795A795F040DE
:103F30005395C9F77EF41F16BA0B620B730B840BF3
:103F4000BAF09150A1F0FF0FBB1F661F771F881FAB
:103F5000C2F70EC0BA0F621F731F841F48F4879503
:103F600077956795B795F7959E3F08F0B0CF9395F5
:103F7000880F08F09927EE0F9795879508950E946E
:103F8000D31F0C94C31E0E94BC1E58F00E94B51E85
:103F900040F029F45F3F29F00C94AC1E51110C94B1
:103FA000F71E0C94B21E0E94D41E68F39923B1F33D
:103FB000552391F3951B550BBB27AA27621773074F
:103FC000840738F09F5F5F4F220F331F441FAA1FE3
:103FD000A9F335D00E2E3AF0E0E832D0915050409F
:103FE000E695001CCAF72BD0FE2F29D0660F771F4D
:103FF000881FBB1F261737074807AB07B0E809F033
:10400000BB0B802DBF01FF2793585F4F3AF09E3FB7
:10401000510578F00C94AC1E0C94F71E5F3FE4F34E
:10402000983ED4F3869577956795B795F7959F5FFA
:10403000C9F7880F911D9695879597F90895E1E046
:10404000660F771F881FBB1F621773078407BA07A5
:1040500020F0621B730B840BBA0BEE1F88F7E09500
:1040600008950E9438206894B1110C94F71E0895A9
:104070000E94DC1E88F09F5798F0B92F9927B751FE
:10408000B0F0E1F0660F771F881F991F1AF0BA95FC
:10409000C9F714C0B13091F00E94F61EB1E0089546
:1040A0000C94F61E672F782F8827B85F39F0B93F38
:1040B000CCF3869577956795B395D9F73EF49095AF
:1040C0008095709561957F4F8F4F9F4F08950E9407
:1040D0001B1E08F48FEF0895FA01EE0FFF1F3096B4
:1040E00021053105A1F16115710561F48038BFE347
:1040F0009B0749F168949038810561F08038BFEFE3
:104100009B0741F099234AF5FF3FE1053105210561
:1041100019F1E8940894E795D901AA2329F4AB2F63
:10412000BE2FF85FD0F310C0FF5F70F4A695E0F7E4
:10413000F73950F019F0FF3A38F49F779F930DD07C
:104140000F9007FC9058089546F00C94B21E60E062
:1041500070E080E89FE308954FE79F775F934F9368
:104160003F932F930E946C212F913F914F915F912C
:104170000E943F1E0C94C9200E941B1E880B990BA5
:10418000089529F416F00C94AC1E0C94F61E0C94B1
:10419000B21E0E94DC1EA8F39638A0F707F80F9213
:1041A000E8942BE33AEA48EB5FE70E94551E0F9232
:1041B0000F920F924DB75EB70F920E94B421ECE2BE
:1041C000F1E00E94FB204F915F91EF91FF91E59507
:1041D000EE1FFF1F49F0FE57E0684427EE0F441F13
:1041E000FA95E1F74195550B0E942E210F9007FE9D
:1041F0000C9422210895DF93CF931F930F93FF9286
:10420000EF92DF927B018C01689406C0DA2EEF01F9
:104210000E94521EFE01E894A59125913591459189
:104220005591A6F3EF010E946A1FFE019701A801B4
:10423000DA9469F7DF90EF90FF900F911F91CF9183
:10424000DF9108959B01AC0160E070E080E89FE39E
:104250000C94BF1F0C94AC1E0C94E8210E94DC1E31
:10426000D8F39923C9F3940F511DA3F391505040F3
:1042700094F059F0882332F0660F771F881F915011
:104280005040C1F79E3F51052CF7880F911D969520
:10429000879597F908955F3FACF0983E9CF0BB2757
:1042A000869577956795B79508F4B1609395C1F7B2
:1042B000BB0F58F711F460FFE8CF6F5F7F4F8F4F50
:1042C0009F4FE3CF0C94F71E16F00C94E8210C944A
:1042D000B21E68940C94AC1E0E94DC1EA8F39923B5
:1042E000C1F3AEF3DF93CF931F930F93FF92C92FC8
:1042F000DD2788232AF02197660F771F881FDAF7BA
:1043000020E030E040E85FEB9FE3883920F0803E1A
:1043100038F021968F770E94531FE4E5F1E004C046
:104320000E94531FE1E8F1E00E94FB208B01BE01D7
:10433000EC01FB2E6F5771097595771F880B990B50
:104340000E94E01D28E132E741E35FE30E94521E34
:10435000AF2D9801AE01FF900F911F91CF91DF918A
:104360000E946A1F0C94C31EFA01DC01AA0FBB1F36
:104370009B01AC01BF5728F42227332744275078EC
:1043800020C0B75190F4AB2F002446953795279560
:10439000011CA395D2F3002071F0220F331F441F9C
:1043A000B395DAF30ED00C94521F61307105A0E87A
:1043B0008A07B94630F49B01AC0166277727882726
:1043C0009078309621F0208331834283538308957F
:1043D0009F3F31F0915020F4879577956795B79579
:1043E000880F911D9695879597F90895CF93DF9340
:1043F0008230910510F482E090E0E0911908F0918C
:104400001A0820E030E0C0E0D0E0309711F14081A0
:10441000518148175907C0F04817590761F4828144
:104420009381209719F09B838A832BC090931A085D
:104430008093190826C02115310519F0421753073A
:1044400018F49A01BE01DF01EF010280F381E02D33
:10445000DCCF2115310509F1281B390B243031053A
:1044600090F412968D919C9113976115710521F02E
:10447000FB019383828304C090931A0880931908E8
:10448000FD01329644C0FD01E20FF31F8193919329
:10449000225031092D933C933AC020911708309156
:1044A0001808232B41F42091050230910602309325
:1044B0001808209317082091030230910402211557
:1044C000310541F42DB73EB74091070250910802E3
:1044D000241B350BE0911708F0911808E217F30739
:1044E000A0F42E1B3F0B2817390778F0AC014E5F64
:1044F0005F4F2417350748F04E0F5F1F5093180881
:10450000409317088193919302C0E0E0F0E0CF015F
:10451000DF91CF9108950F931F93CF93DF9300976F
:1045200009F48CC0FC0132971382128200911908A1
:1045300010911A080115110581F420813181820F33
:10454000931F20911708309118082817390779F51B
:10455000F0931808E093170871C0D80140E050E0CC
:10456000AE17BF0750F412962D913C911397AD01F1
:104570002115310509F1D901F3CF9D01DA0133830A
:10458000228360817181860F971F8217930769F4D8
:10459000EC0128813981260F371F2E5F3F4F318371
:1045A00020838A819B8193838283452B29F4F09316
:1045B0001A08E093190842C01396FC93EE931297E1
:1045C000ED01499159919E01240F351FE217F30720
:1045D00071F480819181840F951F029611969C93AE
:1045E0008E938281938113969C938E931297E0E031
:1045F000F0E0D80112968D919C911397009719F0D5
:10460000F8018C01F6CF8D919C9198012E5F3F4F60
:10461000820F931F20911708309118082817390727
:1046200069F4309729F410921A081092190802C000
:10463000138212821093180800931708DF91CF910C
:104640001F910F9108956F927F928F929F92AF92D8
:10465000BF92CF92DF92EF92FF920F931F93CF936F
:10466000DF93EC01009789F4CB01DF91CF911F918B
:104670000F91FF90EF90DF90CF90BF90AF909F9001
:104680008F907F906F900C94F621FC01E60FF71F3E
:104690009C0122503109E217F30708F4ACC0D9019C
:1046A0000D911C91119706171707B0F005301105F1
:1046B00008F49FC0C80104978617970708F499C0AB
:1046C00002501109061B170B019311936D937C93F4
:1046D000CF010E948B228DC05B01A01AB10A4C0150
:1046E000800E911EA0911908B0911A0840E050E088
:1046F000E12CF12C109709F44AC0A815B905D1F5A1
:104700006D907C901197630182E0C80ED11CCA1491
:10471000DB0480F1A3014A195B096A0182E0C80E3B
:10472000D11C1296BC9012971396AC91B5E0CB16A3
:10473000D10440F0B282A38351834083D9016D93A9
:104740007C930AC00E5F1F4FC301800F911FF901B8
:1047500091838083EB2DFA2FE114F10431F0D7011E
:104760001396FC93EE93129744C0F0931A08E093CB
:1047700019083FC08D919C9111974817590708F46B
:10478000AC017D0112960D90BC91A02DB3CF80910C
:1047900017089091180888159905E1F446175707EE
:1047A000C8F48091030290910402009741F48DB700
:1047B0009EB74091070250910802841B950BE817A1
:1047C000F907C8F4F0931808E0931708F90171830A
:1047D00060830FC0CB010E94F6217C01009759F045
:1047E000A801BE010E941124CE010E948B22C701A4
:1047F00004C0CE0102C080E090E0DF91CF911F9114
:104800000F91FF90EF90DF90CF90BF90AF909F906F
:104810008F907F906F90089581E090E0F8940C94D1
:104820002124FB01DC0102C001900D924150504057
:10483000D8F70895FB01DC0101900D920020E1F70B
:10484000089511E0C1EDD1E000E006C0802FFE0127
:104850000E944A1F2196011DC23DD10780E0080732
:06486000A9F7F894FFCF58
:104866000100FF00001B082000000000001D12EDE3
:1048760011D50BC111E511D111C211000000003E86
:104886000B7E0AC20A850BF30AD10AE50A0000006C
:1048960000050C7E0AD50BD40B4320656E666F6E41
:1048A600636500432072656C6163686500094D6F3E
:1048B600646520006D6F646520312073656C6563E7
:1048C60074696F6E6E65002061333A200020613492
:1048D6003A20002061353A20002061363A20002037
:1048E600536F727469653A20006D6F6465203220DB
:1048F60073656C656374696F6E6E650009737461C8
:1049060077703A2000092000646972656374696FE4
:104916006E3A20005354415750004A276176616E23
:1049260063652043522A5353004265656565657089
:1049360020426565656565702042656565656570DB
:1049460000547269626F726420746F7574652023F7
:1049560064726F697465004261626F726420746F7D
:1049660075746520234761756368650074656D70AD
:10497600203D20006E616E00696E66006F766600EF
:044986000D0A000016
:00000001FF
