:100000000C94D2010C9403020C9403020C9403028E
:100010000C9403020C9403020C9403020C9403024C
:100020000C9403020C94BF070C94BF070C94BF07F9
:100030000C9403020C94020C0C9403020C94030223
:100040000C9403020C949D0F0C9403020C94030275
:100050000C9403020C9403020C9403020C941915E3
:100060000C9403020C94730D0C94490D0C94030230
:100070000C9403020C9403020C9403020C940302EC
:100080000C9403020C9403020C9403020C940302DC
:100090000C9403020C9403020C9403020C94C90701
:1000A0000C9403020C9403020C9403020C940302BC
:1000B0000C9403020C9403020C9403020C949D0D07
:1000C0000C9403020C9403020C9403020C941F0D75
:1000D0000C94F50C0C9403020C94CB0C0C94A10C16
:1000E0000C94030272097509640968096E09AC0968
:1000F00079097D09830987098B099109950999096E
:10010000AC099F09A309A709E40EE90EEE0EF80E4B
:10011000020F7B0F0C0F140F1C0F260F300F3A0F1E
:10012000490F530F7B0F5D0F670F710F0763423647
:10013000B79BD8A71A39685618AEBAAB558C1D3C78
:10014000B7CC5763BD6DEDFD753EF6177231BF003C
:100150000000803F08000000BE922449123EABAA76
:10016000AA2ABECDCCCC4C3E00000080BEABAAAAD1
:10017000AA3E00000000BF000000803F0000000019
:1001800000084178D3BB4387D1133D190E3CC3BD52
:100190004282AD2B3E68EC8276BED98FE1A93E4CFF
:1001A00080EFFFBE01C4FF7F3F00000000000C9401
:1001B000530F0C94E90E0C94F80E0C945E060C94FC
:1001C000331C0C9472090C944A060C949F090C94ED
:1001D00064090C94AC0B0C94160B0C9475090C94DC
:1001E000CB0A0C943A060C9483090C94A90A0C943B
:1001F00079090C94E40E0C94A3090C948E060C94CB
:100200005D0B0C94670F0C94EE0E0C9487090C9404
:10021000140F0C94020F0C94A7090C940C0F0C945F
:100220007D090C9468090C94DD0B0C945D0F0C9403
:1002300091090C94300F0C941C0F0C946E090C94C3
:1002400000060C94260F0C9495090C94710F0C94D5
:1002500099090C942D1C0C948B090C94AC090C94EA
:10026000490F0C943A0F0C947B0F0C94560A0C9483
:100270009A0A0C94AD0B0C94BD0A0C943B0600003A
:100280002100240027002A002D0030003300010146
:100290000000040107010A010000220025002800D7
:1002A0002B002E003100340002010000050108017E
:1002B0000B010505050507050808080802020202EA
:1002C0000A0A0808040404040101010101010101F2
:1002D0000303030303030303040707070C0C0C0CBD
:1002E0000C0C0C0C020202020606060606060606A6
:1002F0000B0B0B0B0B0B0B0B010210202008081033
:100300002040102040800201020108040201010285
:10031000040810204080804020100804020180045E
:1003200002018040201008040201080402010102B9
:1003300004081020408001020408102040800000C2
:100340000A0B02090C0D0E0807030401000000004F
:10035000000000000000000000000000000000009D
:10036000000000000000000000001211100000005A
:10037000000000000000000000000000000000007D
:1003800000000000000020002300260029002C00AF
:100390002F003200000100000301060109010200E4
:1003A000331C2D1C11241FBECFEFD1E2DEBFCDBF09
:1003B00000E00CBF13E0A0E0B2E0E0EDF8E400E004
:1003C0000BBF02C007900D92A432B107D9F728E005
:1003D000A4E2B3E001C01D92AB31B207E1F711E036
:1003E000C1EDD1E000E006C021970109802FFE0198
:1003F0000E947F1FC03DD10780E00807A9F70E9437
:1004000063150C9456240C940000E0E0F0E019947D
:100410004F925F926F927F928F929F92AF92BF9214
:10042000CF92DF92EF92FF920F931F93CF93DF93C0
:100430000E94131361E08091CC070E94FB0960E0E9
:100440008091CC070E94AD0960E08091CB070E94AB
:10045000FB0980E194E09093D6078093D507109232
:1004600045031092440310920D0410920C040E9454
:10047000DD0980E090E1A0E0B0E08093D8079093A0
:10048000D907A093DA07B093DB078AE090E0A0E0F9
:10049000B0E08093DC079093DD07A093DE07B09374
:1004A000DF0780E090E0A0E0B0E48093E007909365
:1004B000E107A093E207B093E30760E070E185E015
:1004C0000E945D136FE979E380E00E945D13C8EE3E
:1004D000D7E0C12CD12CE12CF12C57EE652E52E047
:1004E000752E6DE2862E63E0962E7BECA72E77E0CC
:1004F000B72EC7018553984F2C01FC01948182814E
:1005000086010553184FF801818F928F61E00E9498
:10051000FB0961E0F801828D0E94FB09F2019085E0
:1005200086818883F801968F61E00E94FB0960E074
:10053000F801868D0E94FB0961E088810E94AD0967
:100540001FB7F89480914303811125C0F301849172
:10055000F4019491E82FF0E0EE0FFF1FE258FD4FF9
:10056000A591B4918C91982321F461E085E30E94D8
:10057000AD0961E085E30E94FB098CB580618CBD0B
:100580008CB580648CBD61E084E30E94FB0961E06E
:1005900083E30E94FB09809143038F5F80934303B1
:1005A0001FBFC5010197F1F760E088810E94AD0986
:1005B00088E80E94451083E00E94451061E0888130
:1005C0000E94AD09C5010197F1F7CE010E944C10C0
:1005D000F2E0CF0ED11C2296EA94EF2821F0EE240F
:1005E000E394F12C86CFC0EFD7E01C2F1C5F60E0B6
:1005F00089910E94FB091C13FACF0FEF17E0CCEF93
:10060000D7E085E0C82E9CE0E92E22E0B22EDC2E59
:10061000D394D394FE013897F08088818C3008F011
:1006200044C061E08F2D0E94FB098881C89EF001C3
:100630001124EB53F94F9F2D9F732081207CF22EC4
:10064000F92AF082138214826E2D0E94731FECE04F
:100650008E9FA001112420E030E0B901640F751FC6
:10066000C69EF001C79EF00D1124EB53F94F908107
:1006700096FD12C02F5F3F4F2C30310571F781116D
:100680000BC010928000B0928100109285001092F1
:100690008400B6BAB0926F00E881CE9EF0011124BA
:1006A000EB53F94F808180648083FE013297908103
:1006B00032978081F80131978083F801908360E060
:1006C0000E94FB0961E0F80180810E94FB0960E063
:1006D000F80180810E94AD0921960E5F1F4FDC1248
:1006E00099CFF8941092200189E08093210180E253
:1006F00093E0909329018093280110922501109294
:10070000240182E08093730078948093F305109223
:10071000F7058091F40560E00E94FB091092450303
:100720001092440310920D0410920C040E94DD09F3
:1007300060EF85E50E94F2126BEF80E00E94F212FA
:100740000E94BD060E94131361E08EE20E94FB0925
:1007500061E08EE2DF91CF911F910F91FF90EF90BA
:10076000DF90CF90BF90AF909F908F907F906F90D1
:100770005F904F900C94AD09CF92DF92EF92FF9271
:1007800069017A01AB01BC0184EE97E00E94840EFE
:10079000B701A601705886EE97E0FF90EF90DF90CA
:1007A000CF900C94840E8F929F92AF92BF92CF9273
:1007B000DF92EF92FF920F931F93CF93DF938C0101
:1007C000C0E0D0E06B01770FEE08FF084A01550F3B
:1007D000AA08BB08C017D10794F461E088E00E9422
:1007E000AD09C701B6010E94DF1460E088E00E94F5
:1007F000AD09C501B4010E94DF142196EBCFDF9152
:10080000CF911F910F91FF90EF90DF90CF90BF900D
:10081000AF909F908F9008954F925F926F927F92CA
:100820008F929F92AF92BF92CF92DF92EF92FF9200
:10083000982EA12CB12CC12CD12C76018AE0A816BF
:10084000B10449F1892D0E94370ABC01990F880B28
:10085000990B0E94151E26EA3BE944EC5BEB0E94D3
:10086000741E9B01AC016DEF76EF8DE290E40E9467
:10087000A1202DE73FE34BEA52E40E94741E9B0146
:10088000AC01C701B6010E94881F6B017C018FEF8C
:10089000A81AB80AD3CF20E030E040E251E4C70103
:1008A000B6010E94F41F6B017C019B01AC010E9408
:1008B000F120882319F084E193E01AC04601570122
:1008C000E894B7F82FEF3FEF4FE75FE7C501B401BA
:1008D0000E94F12081110FC02FEF3FEF4FE75FE73C
:1008E000C501B4010E940E1E18162CF488E193E095
:1008F0000E943B1372C02FEF3FEF4FE75FE4C70149
:10090000B6010E949C2018161CF48CE193E0F0CFF5
:100910002FEF3FEF4FE75FECC701B6010E940E1EBD
:1009200087FDF3CF20E030E0A901C701B6010E94A6
:100930000E1E87FF07C08DE20E94A612C701B601F6
:10094000905802C0C701B6012AE037ED43EA5BE3E5
:100950000E94881F2B013C010E946D204B015C010D
:100960000E94131E9B01AC01C301B2010E94871FAC
:100970002B013C014AE0C501B4010E94B1128EE294
:100980000E94A61220E030E040E251E4C301B2012F
:100990000E94741E2B013C010E946D204B01A12C72
:1009A000B12C4AE0C501B4010E94B112C501B401E5
:1009B0000E94131E9B01AC01C301B2010E94871F5C
:1009C00020E030E040E251E40E94741E0E946D205D
:1009D00080E090E04AE00E94B1120E944D13C701EE
:1009E000B601FF90EF90DF90CF90BF90AF909F90B7
:1009F0008F907F906F905F904F900895CF93DF938B
:100A0000C0E0D0E00E94BD068091080490910904E6
:100A1000892B29F564E670E080E090E00E94DF1405
:100A20000E94BD0680910A0490910B04019709F47D
:100A300021960E94BD0680910A0490910B04892B97
:100A4000F9F2CA30D105F4F244E650E064E670E011
:100A50008AE090E00E94D3030E940802D3CFDF9186
:100A6000CF91089540E050E0BA0184EE97E00E94F3
:100A7000840E40E050E060E070E886EE97E00E946F
:100A8000840E88EE97E00E944C108AEE97E00C945A
:100A90004C104F925F926F927F928F929F92AF9283
:100AA000BF92CF92DF92EF92FF926C0188EE97E0B7
:100AB0000E944C108AEE97E00E944C1046010D2CCB
:100AC000000CAA08BB0826E9C21A25E0D20A0D2CA0
:100AD000000CEE08FF0884E6482E512C612C712C86
:100AE00088EE97E00E9477109B01AC018827992738
:100AF000DC01821B930BA40BB50B88159905AA0585
:100B0000BB050CF054C088EE97E00E9477109B0163
:100B1000AC0188279927DC01821B930BA40BB50B32
:100B200086399540A105B10564F488EE97E00E94EE
:100B3000771090958095709561957F4F8F4F9F4F5F
:100B40001AC088EE97E00E9477109B01AC018827BD
:100B50009927DC01821B930BA40BB50BC816D90691
:100B6000EA06FB06ECF488EE97E00E947710680D29
:100B7000791D8A1D9B1DA30192010E94321FCA018B
:100B8000B9010E94151E29E23CE54FE05DE30E9499
:100B9000741E2DEC3CEC4CEC5DE30E94881F04C0FD
:100BA0006AE979E989E19FE30E94A81399CF40E0BF
:100BB00050E0BA0184EE97E00E94840E40E050E0DD
:100BC00060E070E886EE97E00E94840E88EE97E081
:100BD0000E944C108AEE97E00E944C1064E670E090
:100BE00080E090E0FF90EF90DF90CF90BF90AF90CB
:100BF0009F908F907F906F905F904F900C94DF1438
:100C00008091440390E020914503821B910908954F
:100C100085ED8093BC008091BC0084FDFCCF1092D8
:100C2000D503089540918803262F30E0240F311D0D
:100C300021323105DCF42091D5032430C9F4FC01C4
:100C400080E090E0861758F4309188032191DC0110
:100C5000AA59BC4FA30FB11D2C930196F3CF8091DD
:100C60008803680F6093880380E0089581E0089509
:100C700082E008950895E091450380914403E817C8
:100C800030F4F0E0EA52FC4F808190E008958FEF5D
:100C90009FEF08959091450380914403981750F475
:100CA000E92FF0E0EA52FC4F208130E09F5F909303
:100CB000450302C02FEF3FEFC9010895CF92DF92A5
:100CC000EF92FF920F931F93CF93DF937C01262F18
:100CD000972F8A0180910F04882391F0C62FD72F78
:100CE0006E01C40ED51ECC15DD0571F06991D701DA
:100CF000ED91FC910190F081E02DC7011995F3CFA2
:100D0000642F822F0E941206C801DF91CF911F919C
:100D10000F91FF90EF90DF90CF900895CF93DF93E6
:100D20001F92CDB7DEB7698320910F042223D1F043
:100D300020910C04203240F021E030E0FC013383AC
:100D4000228380E090E015C080910D04E82FF0E050
:100D5000EA5BFC4F998190838F5F80930D048093B1
:100D60000C0405C061E0CE0101960E94120681E0EC
:100D700090E00F90DF91CF910895EF92FF921F9333
:100D8000CF93DF93CDB7DEB72C970FB6F894DEBFC5
:100D90000FBECDBF8091D5038111FCCF81E0809340
:100DA000D5038093D4039FEF9093D3031092D20383
:100DB00095E09093D1038093D0038091D003846A0F
:100DC0008093D0038091CF03813061F41092CF03E0
:100DD0008091D0038093BB008091BC0083FDF8CF4D
:100DE00085EC01C085EE8093BC008091D5038130F5
:100DF000E1F38091D203863018F41091D20301C040
:100E000016E0AFEAB3E026ED33E0F9018E2F821B46
:100E1000811718F48D918193F9CF109245031093A7
:100E20004403CE0101967C0180914503181749F0D7
:100E300080E194E00E944A06F701819391937F013B
:100E4000F3CF89819A819093FF038093FE038B8176
:100E50009C8190930104809300048B859C859C0168
:100E60003595279535952795A901437055272D81EF
:100E70003E81220F331F220F331F242B352B30933B
:100E80000304209302049C0174E0359527957A951C
:100E9000E1F7A901437055272F813885220F331FB1
:100EA000220F331F242B352B309305042093040489
:100EB0009C01F6E035952795FA95E1F7A901437075
:100EC000552729853A85220F331F220F331F242BE4
:100ED000352B30930704209306049C01217033279F
:100EE000F1E02F27309309042093080421E030E03B
:100EF00081FF02C020E030E030930B0420930A040D
:100F000060E080E02C960FB6F894DEBF0FBECDBF38
:100F1000DF91CF911F91FF90EF900C94F2120C94FF
:100F20003B13CF92DF92EF92FF92CF93DF936C014E
:100F3000990FEE08FF08F7FE17C08DE20E94A61277
:100F4000EC0166277727CB016C197D098E099F0973
:100F50004AE00E94B1128C0F9D1FDF91CF91FF904C
:100F6000EF90DF90CF9008954AE0C701B601DF917E
:100F7000CF91FF90EF90DF90CF900C94B1121F9221
:100F80000F920FB60F9211240F900FBE0F901F906B
:100F900018951F920F920FB60F9211240BB60F9255
:100FA0002F933F934F935F936F937F938F939F9371
:100FB000AF93BF93EF93FF938091B900887F803602
:100FC00009F49CC068F5883209F45BC090F4803164
:100FD00009F454C038F4882309F4F6C0883009F4C1
:100FE0004DC0F6C0883109F44CC0803209F45DC0B0
:100FF000EFC0803409F468C048F4803309F455C068
:10100000883309F0E5C08093D303D8C0803509F454
:101010004FC0883509F45DC0883409F0D9C0D6C006
:10102000883909F4C7C0A8F4883709F467C038F4D0
:10103000883609F463C0803709F460C0C9C08838B5
:1010400009F4B8C0803909F45FC0803809F0C0C025
:101050005BC0803B09F486C038F4803A09F466C06E
:10106000883A09F47FC0B4C0803C09F4A7C0883C2A
:1010700009F4A4C0883B09F48AC0AAC08091D003B7
:1010800010C09091D2038091D103981770F5E09130
:10109000D20381E08E0F8093D203F0E0E155FC4F44
:1010A00080818093BB0085EC86C08093D3038EC083
:1010B000E091D20381E08E0F8093D2038091BB0038
:1010C000F0E0E155FC4F80839091D2038091D103F1
:1010D0006EC0E091D20381E08E0F8093D2038091A5
:1010E000BB00F0E0E155FC4F80838091D403811177
:1010F0006DC081E08093CF0384EA61C083E0809378
:10110000D5031092AC03CFCF8091AC03803208F0AE
:1011100051C0E091AC0381E08E0F8093AC038091CD
:10112000BB00F0E0E457FC4F8083BDCF85EC80939B
:10113000BC001092D5038091AC03803230F4E09172
:10114000AC03F0E0E457FC4F10826091AC0370E018
:10115000E0918A03F0918B038CE893E0199510924B
:10116000AC0336C084E08093D503109289031092BB
:101170008803E0918603F091870319958091880395
:10118000811105C081E08093880310926603E0918D
:10119000890381E08E0F80938903F0E0EA59FC4FC8
:1011A00080818093BB009091890380918803981778
:1011B00008F479CF85E88093BC000AC085EC809361
:1011C000BC001092D50304C01092D3030E940806FD
:1011D000FF91EF91BF91AF919F918F917F916F910F
:1011E0005F914F913F912F910F900BBE0F900FBECB
:1011F0000F901F90189520910C0490910E042132AD
:1012000008F049C08091D5038111FCCF32E03093C2
:10121000D5036093D4033FEF3093D3031092D203EE
:101220002093D103A6E4B3E04FEA53E0FA013E2F46
:10123000341B321718F43D913193F9CF1092D0033B
:101240002091D003990F922B9093D0039091CF03CC
:10125000913061F41092CF039091D0039093BB0032
:101260009091BC0093FDF8CF95EC01C095EE909362
:10127000BC009091D5039230E1F39091D3039F3F4E
:1012800079F08091D303803241F08091D303803391
:1012900031F084E005C081E003C082E001C083E05A
:1012A00010920D0410920C0410920F04089590E017
:1012B000FC013197E231F10508F04EC08827EE5865
:1012C000FF4F8F4F0C947F1F809180008F7703C05A
:1012D000809180008F7D80938000089580918000B0
:1012E000877FF9CF84B58F7702C084B58F7D84BDA9
:1012F00008958091B0008F7703C08091B0008F7DFA
:101300008093B0000895809190008F7707C08091FE
:1013100090008F7D03C080919000877F8093900024
:1013200008958091A0008F7707C08091A0008F7DE5
:1013300003C08091A000877F8093A00008958091D2
:1013400020018F7707C0809120018F7D03C080919D
:101350002001877F8093200108951F93CF93DF930F
:10136000282F30E0F901E25CFC4F8491F901E8504C
:10137000FD4FD491F901EE54FD4FC491CC23C9F037
:10138000162F81110E945709EC2FF0E0EE0FFF1F7E
:10139000E856FD4FA591B4918FB7F894111105C08F
:1013A0009C91ED2FE095E92302C0EC91ED2BEC939D
:1013B0008FBFDF91CF911F9108951092D50381E0E7
:1013C0008093D4031092CF0361E084E10E94AD09C1
:1013D00061E085E10E94AD09E9EBF0E080818E7F5C
:1013E000808380818D7F808388E48093B80085E44A
:1013F0008093BC000895CF93DF9390E0FC01E85008
:10140000FD4F2491FC01EE54FD4F8491882361F13E
:1014100090E0880F991FFC01E258FD4FC591D491CF
:10142000FC01E856FD4FA591B491611109C09FB729
:10143000F8948881209582238883EC912E230BC019
:10144000623061F49FB7F8943881822F80958323AE
:101450008883EC912E2B2C939FBF06C08FB7F894F6
:10146000E8812E2B28838FBFDF91CF91089586339B
:1014700008F0865390917B00282F2870977F922B3D
:1014800090937B008770806480937C0080917A00C9
:10149000806480937A0080917A0086FDFCCF8091F1
:1014A00078002091790090E0922B0895CF92DF92FE
:1014B000EF92FF920F931F93CF93DF936C017A010A
:1014C0008B01C0E0D0E0CE15DF0589F0D8016D9129
:1014D0008D01D601ED91FC910190F081E02DC601C6
:1014E0001995892B11F47E0102C02196ECCFC7011A
:1014F000DF91CF911F910F91FF90EF90DF90CF90F0
:101500000895FC01A089B1898C91A689B78982FDD3
:101510000FC09C91818D8F5F8F73228D821749F050
:10152000218DDF01A20FB11D5D969C93818F0895DF
:101530008C910895FC01538D448D252F30E0842F2C
:1015400090E0821B930B541710F0CF9608950197EB
:101550000895FC01918D828D981761F0828DDF01D5
:10156000A80FB11D5D968C91928D9F5F9F73928F96
:1015700090E008958FEF9FEF0895FC01918D828D8B
:10158000981731F0828DE80FF11D858D90E0089558
:101590008FEF9FEF0895FC01918D228D892F90E0B0
:1015A000805C9F4F821B91098F73992708958CE16E
:1015B00094E00E94CB0A21E0892B09F420E0822FDD
:1015C000089589EB94E00E94CB0A21E0892B09F46D
:1015D00020E0822F089586E595E00E94CB0A21E065
:1015E000892B09F420E0822F0895FC01848DDF010E
:1015F000A80FB11DA35ABF4F2C91848D90E0019686
:101600008F739927848FA689B7892C93A089B18974
:101610008C9180648C93938D848D981306C002887E
:10162000F389E02D80818F7D80830895EF92FF9272
:101630000F931F93CF93DF93EC0181E0888F9B8DF5
:101640008C8D981305C0E889F989808185FD24C0B7
:10165000F62E0B8D10E00F5F1F4F0F731127E02E3A
:101660008C8DE8120CC00FB607FCFACFE889F98917
:10167000808185FFF5CFCE010E94F50AF1CF8B8DD9
:10168000FE01E80FF11DE35AFF4FF0820B8FEA894C
:10169000FB898081806207C0EE89FF896083E889C9
:1016A000F98980818064808381E090E0DF91CF912F
:1016B0001F910F91FF90EF900895CF93DF93EC016E
:1016C000888D8823C9F0EA89FB89808185FD05C062
:1016D000A889B9898C9186FD0FC00FB607FCF5CF9C
:1016E000808185FFF2CFA889B9898C9185FFEDCFE4
:1016F000CE010E94F50AE7CFDF91CF91089580E0F7
:1017000090E0892B21F00E94EB0A811119C080E042
:1017100090E0892B41F080E090E0892B21F00E943D
:101720000000811110C00E94E10A81110FC080E009
:1017300090E0892B81F00E94D70A81110AC0089598
:101740000E940000E4CF0E940000EDCF0E9405023D
:10175000EECF0C9400000895089580E090E0089585
:101760000E944124FC01248131E030930F04209336
:101770000E0410920D0410920C048485682B80E1F5
:1017800094E00E948E0661E080E194E00C94FB08F6
:101790000F931F93CF938C01C62F64600E94B20BEE
:1017A0006C2F6B7FC8010E94B20B83EC90E0019715
:1017B000F1F7CF911F910F9108950F931F93CF933E
:1017C000DF938C01C62FD62FD07FD1606D2F0E9462
:1017D000B20B6D2FC8010E94C80B80E1C89FB001F9
:1017E0001124C62FC1606C2FC8010E94B20B6C2F50
:1017F000C8010E94C80B81E090E0DF91CF911F915A
:101800000F9108951F920F920FB60F9211240BB6ED
:101810000F922F933F934F935F936F937F938F9389
:101820009F93AF93BF93EF93FF938091FA039091AF
:10183000FB03A091FC03B091FD03892B8A2B8B2B1A
:1018400059F18091F903E091F703F091F803908149
:10185000892780838091FA039091FB03A091FC0378
:10186000B091FD03181619061A061B060CF056C097
:101870008091FA039091FB03A091FC03B091FD03CA
:101880000197A109B1098093FA039093FB03A093F8
:10189000FC03B093FD0342C080910202EEE9F3E045
:1018A000E4919FEF90930202E230C9F050F4EE23EE
:1018B00099F0E13081F590916F009D7F90936F00DA
:1018C0002AC0E43019F1E0F0E53029F59091730079
:1018D0009D7F909373001FC010926E001CC090916A
:1018E00070009D7F9093700091E09093B000909174
:1018F000B100987F94609093B1001092B3000BC038
:10190000909171009D7F9093710005C0909172003D
:101910009D7F9093720060E00E94AD09FF91EF916E
:10192000BF91AF919F918F917F916F915F914F91F7
:101930003F912F910F900BBE0F900FBE0F901F90F5
:1019400018951F920F920FB60F9211240BB60F929B
:101950002F933F934F935F936F937F938F939F93B7
:10196000AF93BF93EF93FF938CE194E00E94F50A4D
:10197000FF91EF91BF91AF919F918F917F916F9167
:101980005F914F913F912F910F900BBE0F900FBE23
:101990000F901F9018951F920F920FB60F9211245F
:1019A0000BB60F922F933F934F935F936F937F9359
:1019B0008F939F93AF93BF93EF93FF938CE194E04A
:1019C0000E94810AFF91EF91BF91AF919F918F91FA
:1019D0007F916F915F914F913F912F910F900BBE2F
:1019E0000F900FBE0F901F9018951F920F920FB679
:1019F0000F9211240BB60F922F933F934F935F9347
:101A00006F937F938F939F93AF93BF93EF93FF93C6
:101A100089EB94E00E94F50AFF91EF91BF91AF919D
:101A20009F918F917F916F915F914F913F912F91F6
:101A30000F900BBE0F900FBE0F901F9018951F9226
:101A40000F920FB60F9211240BB60F922F933F9364
:101A50004F935F936F937F938F939F93AF93BF93B6
:101A6000EF93FF9389EB94E00E94810AFF91EF913D
:101A7000BF91AF919F918F917F916F915F914F91A6
:101A80003F912F910F900BBE0F900FBE0F901F90A4
:101A900018951F920F920FB60F9211240BB60F924A
:101AA0002F933F934F935F936F937F938F939F9366
:101AB000AF93BF93EF93FF9386E595E00E94F50AFD
:101AC000FF91EF91BF91AF919F918F917F916F9116
:101AD0005F914F913F912F910F900BBE0F900FBED2
:101AE0000F901F9018951F920F920FB60F9211240E
:101AF0000BB60F922F933F934F935F936F937F9308
:101B00008F939F93AF93BF93EF93FF9386E595E0F9
:101B10000E94810AFF91EF91BF91AF919F918F91A8
:101B20007F916F915F914F913F912F910F900BBEDD
:101B30000F900FBE0F901F9018951F920F920FB627
:101B40000F9211240BB60F922F933F934F935F93F5
:101B50006F937F938F939F93AF93BF93CF93DF93B5
:101B6000EF93FF932091F40530E0F901E25CFC4F24
:101B70008491F901E850FD4FD491F901EE54FD4FE5
:101B8000C491CC23A1F081110E945709EC2FF0E001
:101B9000EE0FFF1FEC57FC4FA591B491EC91ED2394
:101BA00031E020E009F430E0832F922F02C080E082
:101BB00090E02091F8053091F9052F5F3F4F309369
:101BC000F9052093F8052091F705253618F026E051
:101BD0002093F3052091F3052430D9F128F4223025
:101BE00069F02330D9F060C0253009F453C02630A5
:101BF00009F05AC021E02093C40653C0009709F0B1
:101C000053C02091F8053091F9052436310508F4C8
:101C100043C01092C4061092F7051DC08130910593
:101C200009F042C0E091F70521E02E0F2093F7055F
:101C3000F0E02091F8053091F905EE0FFF1FED500F
:101C4000FA4F308727831092F9051092F80524E0A7
:101C500029C00097B9F4E091F70521E02E0F2093F9
:101C6000F705F0E02091F8053091F905EE0FFF1F20
:101C7000ED50FA4F308727831092F9051092F8053E
:101C800023E010C02091F8053091F9052536310583
:101C900058F007C0009741F41092F9051092F8052A
:101CA00003C025E02093F3052091F6052223B9F027
:101CB000892B51F48091F505882321F08091F50559
:101CC00061E009C02F9A0BC08091F505882331F09F
:101CD0008091F50560E00E94AD0901C02F98FF9149
:101CE000EF91DF91CF91BF91AF919F918F917F91B4
:101CF0006F915F914F913F912F910F900BBE0F907D
:101D00000FBE0F901F9018958F929F92AF92BF9227
:101D1000CF92DF92EF92FF920F931F93CF93DF93B7
:101D2000EC016A017B0120E030E04FE753E4C7019A
:101D3000B6010E94741E4B015C0120E030E0A90155
:101D40000E949C2018161CF4C501B40103C0C501F3
:101D5000B40190580E9466208B0120E030E0A90178
:101D6000C701B6010E949C20181614F460E001C05F
:101D700061E089810E94AD090F3F110509F014F45B
:101D8000112702C00FEF10E0C88161E08C2F0E9484
:101D9000FB090115110509F4B1C00F3F110509F444
:101DA000AFC0EC2FF0E0E25CFC4FE4914E2F50E02E
:101DB000FA013197E231F10508F09DC08827EC5710
:101DC000FF4F8F4F0C947F1F84B5806884BD07BD83
:101DD000A7C084B5806284BD08BDA2C08091800088
:101DE000806880938000109389000093880098C0D9
:101DF0008091800080628093800010938B0000931C
:101E00008A008EC08091800088608093800010934B
:101E10008D0000938C0084C08091B0008068809316
:101E2000B0000093B3007CC08091B00080628093CA
:101E3000B0000093B40074C08091900080688093DB
:101E4000900010939900009398006AC080919000D0
:101E500080628093900010939B0000939A0060C072
:101E60008091900088608093900010939D00009373
:101E70009C0056C08091A00080688093A000809153
:101E8000A0008F7B8093A0001093A9000093A8006E
:101E900047C08091A00080628093A0001093AB00A7
:101EA0000093AA003DC08091A00088608093A000AC
:101EB0001093AD000093AC0033C080912001806886
:101EC00080932001109329010093280129C080915B
:101ED000200180628093200110932B0100932A013E
:101EE0001FC08091200188608093200110932D01F4
:101EF00000932C0115C00038110514F460E001C0F6
:101F000061E08C2FDF91CF911F910F91FF90EF90A7
:101F1000DF90CF90BF90AF909F908F900C94AD09C1
:101F2000DF91CF911F910F91FF90EF90DF90CF90B5
:101F3000BF90AF909F908F9008951F920F920FB611
:101F40000F9211240BB60F922F933F934F935F93F1
:101F50006F937F938F939F93AF93BF93EF93FF9371
:101F60008091F60387FF05C01092850010928400CF
:101F700016C02091F603022E000C330B809101074E
:101F800090E0281739075CF43091F60325E032031E
:101F9000F0011124EB53F94F808186FD15C080912B
:101FA000F6038F5F8093F6032091F603022E000C58
:101FB000330B8091010790E02817390794F4809142
:101FC000F6038C302CF10DC03091F6033203F00192
:101FD0001124EB53F94F808160E08F730E94AD09AB
:101FE000DECF809184009091850084349C4918F460
:101FF00080E49CE905C0809184009091850004965E
:1020000090938900809388008FEF8093F6032AC015
:1020100040918400509185003091F60325E0320311
:10202000F0011124EB53F94F81819281840F951FA8
:1020300090938900809388003091F6033203F00179
:102040001124EB53F94F808186FF0CC03091F603C9
:102050003203F0011124EB53F94F808161E08F735B
:102060000E94AD09FF91EF91BF91AF919F918F9128
:102070007F916F915F914F913F912F910F900BBE88
:102080000F900FBE0F901F9018958EBD00000DB4DD
:1020900007FEFDCF8EB50895CF93DF93EC0160E08E
:1020A00088810E94AD0988E90E94451080E00E9465
:1020B000451080E00E94451080E00E94451080E0BD
:1020C0000E94451061E088810E94AD098BE891E093
:1020D0000197F1F760E088810E94AD0980EE0E94CF
:1020E000451061E08881DF91CF910C94AD09AF92EA
:1020F000BF92CF92DF92EF92FF920F931F93CF93F5
:10210000DF93CDB7DEB760970FB6F894DEBF0FBE92
:10211000CDBF5C0160E0FC0180810E94AD0980E6DA
:102120000E9445108E010F5F1F4F7E01F1E1EF0EFF
:10213000F11C680180E00E94451090E0A0E0B0E052
:10214000F60181939193A193B1936F01EE15FF0571
:1021500089F761E0F50180810E94AD0980E090E09F
:10216000DC01F80141915191619171918F01BA2F78
:10217000A92F982F8827840F951FA61FB71FEE152C
:10218000FF0579F79C01AD0166277727CB01621B1C
:10219000730B840B950B60960FB6F894DEBF0FBEE1
:1021A000CDBFDF91CF911F910F91FF90EF90DF9006
:1021B000CF90BF90AF9008954F925F926F927F92B1
:1021C0008F929F92AF92BF92CF92DF92EF92FF9247
:1021D000CF93DF934B015C0188EE97E00E944C1097
:1021E0008AEE97E00E944C1020E030E0A901C50182
:1021F000B4010E940E1E81117CC04DEC5CEC6CECB5
:102200007EEB86EE97E00E94840E4DEC5CEC6CEC6D
:102210007EEB84EE97E00E94840E88EE97E00E94A9
:10222000771090958095709561957F4F8F4F9F4F58
:102230000E94151E2FE031ED40E85FE30E94741EFE
:102240000E9466206B017C01EB018AEE97E00E9400
:102250007710072E000C880B990B0E94151E2B017E
:102260003C0120E030E44BEF54E40E949C2018161F
:102270003CF440E050E0BA0184EE97E00E94840E06
:10228000B6010D2C000C880B990B0E94151E20E046
:1022900030E44BEF54E40E949C20181644F440E0D4
:1022A00050E060E070E886EE97E00E94840E6AE0FD
:1022B00070E080E090E00E94DF1420E030E44BEF1B
:1022C00054E4C301B2010E940E1E87FD96CFD19443
:1022D000C194D108B601DD0C880B990B0E94151E24
:1022E00020E030E44BEF54E40E940E1E87FD85CFC2
:1022F00002C0C0E0D0E020E030E040E85FE3C5018C
:10230000B4010E940E1E8111C8C09DECC92E9CEC28
:10231000D92EED2C9EE3F92EB701A60184EE97E0AD
:102320000E94840EBE01DD0F880B990B0E94151EC2
:1023300020E030E447E954E40E949C2018160CF099
:10234000D7C02DEC3CEC4CEC5DE3C701B6010E941C
:102350009C20181654F42DEC3CEC4CE45DE3C701D2
:10236000B6010E94871F6B017C01B701A60184EEB4
:1023700097E00E94840EB701A60186EE97E00E94C6
:10238000840E88EE97E00E947710882499245401E7
:10239000861A970AA80AB90AE4018AEE97E00E9411
:1023A00077100E94151E2FE031ED40E85FE30E9498
:1023B000741E0E9466202B013C01B401990C880B0D
:1023C000990B0E94151E4B015C0120E030E447E9A7
:1023D00054E40E949C2018160CF09DC02DEC3CEC9F
:1023E0004CEC5DE3C701B6010E949C2018160CF06E
:1023F000A5C02DEC3CEC4CE45DE3C701B6010E94A6
:10240000871F6B017C0120E030E44BEF54E4C501F1
:10241000B4010E949C2018163CF440E050E0BA0140
:1024200084EE97E00E94840E662777276419750969
:10243000072E000C880B990B0E94151E20E030E43B
:102440004BEF54E40E949C20181644F440E050E006
:1024500060E070E886EE97E00E94840E6AE070E02B
:1024600080E090E00E94DF1420E030E44BEF54E481
:10247000C501B4010E940E1E87FD4ECFB201550C5E
:10248000880B990B0E94151E20E030E44BEF54ECB2
:102490000E949C2018160CF43FCF40E050E0BA0197
:1024A00084EE97E00E94840E40E050E060E070E827
:1024B00086EE97E00E94840E88EE97E00E944C1012
:1024C0008AEE97E00E944C1064E670E080E090E0B5
:1024D000DF91CF91FF90EF90DF90CF90BF90AF90C2
:1024E0009F908F907F906F905F904F900C94DF142F
:1024F0002DEC3CEC4CEC5EE3C701B6010E940E1ED5
:1025000087FF33CF2AE037ED43EA5BE3C701B6012B
:102510000E94881F28CF2DEC3CEC4CEC5EE3C701F9
:10252000B6010E940E1E87FF6ECF2AE037ED43EA08
:102530005BE3C701B6010E94881F63CF8DECC82EF4
:102540008CECD82EED2C8DE3F82E5DCFE091560566
:10255000F09157050190F081E02D682F86E595E018
:1025600019948F929F92AF92BF920F931F93CF9324
:10257000DF93CDB7DEB7A1970FB6F894DEBF0FBEDD
:10258000CDBF19A2423008F44AE08E010F5D1F4F03
:10259000842E912CA12CB12CA50194010E94511FD5
:1025A000E62FB901CA0101501109EA3014F4E05DC7
:1025B00001C0E95CD801EC93232B242B252B61F778
:1025C000C8010E943B13A1960FB6F894DEBF0FBE60
:1025D000CDBFDF91CF911F910F91BF90AF909F9092
:1025E0008F900895CF93C82F81E080930F0482E5E8
:1025F00080930E0410920D0410920C0480E194E07C
:102600000E948E066C2F80E194E00E948E0661E0AD
:1026100080E194E00E94FB086AE070E080E090E0D6
:10262000CF910C94DF14E6E5F5E0A089B18982E052
:102630008C93A485B5851C92A685B7858FEC8C9369
:10264000108EA489B58986E08C93A289B3898C9178
:1026500080618C93A289B3898C9188608C93A289C4
:10266000B3898C9180688C930288F389E02D8081F6
:102670008F7D80830895009769F0FC010190002010
:10268000E9F73197AF01481B590BBC0186E595E08E
:102690000C94560A80E090E0089580E293E00C9458
:1026A0003B13CF93DF930E943B13EC010E944D1329
:1026B0008C0F9D1FDF91CF910895EF92FF921F9392
:1026C000CF93DF931F92CDB7DEB7162F9BECE92E89
:1026D00097E0F92ED7011C969C911C9721E020933E
:1026E0000F0490930E0410920D0410920C041A968D
:1026F0000D90BC91A02DED91FC9111970190F0816E
:10270000E02D682FCD0179831995F7018285938596
:10271000DC01ED91FC910190F081E02D7981672F32
:102720001995F70182859385DC01ED91FC9101906B
:10273000F081E02D612F199561E0F7018285938585
:102740000F90DF91CF911F91FF90EF900C94FB08B9
:102750004F925F926F927F928F929F92AF92BF92B1
:10276000CF92DF92EF92FF92CF93DF9300D01F9230
:10277000CDB7DEB76B017C0188EE97E00E94771041
:1027800090958095709561957F4F8F4F9F4F0E94D8
:10279000151E2B013C0160930A0870930B0880936F
:1027A0000C0890930D088AEE97E00E9477100E9423
:1027B000151E69837A838B839C83609306087093CC
:1027C000070880930808909309089B01AC01C30196
:1027D000B2010E94871F4B015C0160930208709355
:1027E0000308809304089093050820E030E040EA55
:1027F00050E40E940E1E87FD26C020E030E040E23B
:1028000051E4C501B4010E940E1E87FD25C020E0E1
:1028100030E040E751E4C501B4010E940E1E87FD7F
:1028200023C020E030E040EA51E4C501B4010E9439
:102830000E1E87FD22C04AE9842E49E9942EA92C58
:102840004EE3B42E22C03DEC832E3CEC932E3CE4B0
:10285000A32E3DE3B32E19C02DEC822E2CEC922E2C
:10286000A92C2DE3B22E11C09AE9892E99E9992E4F
:1028700099E1A92E9EE3B92E08C08DEC882E8CEC30
:10288000982E8CE4A82E8EE3B82E29813A814B81B4
:102890005C81C301B2010E949C201816ECF4A501D2
:1028A000940160E070E080E89FE30E94871F9B0135
:1028B000AC01C701B6010E94741EAB01BC0184EEDD
:1028C00097E00E94840E20E030E040E85FE3C5011D
:1028D000B4010E94881F26C029813A814B815C8106
:1028E000C301B2010E940E1E87FF25C020E030E028
:1028F00040E85FE3C501B4010E94881F9B01AC0161
:10290000C701B6010E94741EAB01BC0184EE97E0C2
:102910000E94840EA501940160E070E080E89FE3CE
:102920000E94871F9B01AC01C701B6010E94741E63
:10293000AB01BC0108C0B701A60184EE97E00E947C
:10294000840EB701A601705886EE97E00F900F90A5
:102950000F900F90DF91CF91FF90EF90DF90CF908D
:10296000BF90AF909F908F907F906F905F904F90AF
:102970000C94840E3FB7F89480911308909114083A
:10298000A0911508B091160826B5A89B05C02F3F49
:1029900019F00196A11DB11D3FBFBA2FA92F982F85
:1029A0008827820F911DA11DB11DBC01CD0142E000
:1029B000660F771F881F991F4A95D1F708958F9248
:1029C0009F92AF92BF92CF92DF92EF92FF926B01F4
:1029D0007C010E94BA144B015C01C114D104E104D2
:1029E000F104F1F00E94BA14DC01CB0188199909B5
:1029F000AA09BB09883E9340A105B10570F321E007
:102A0000C21AD108E108F10888EE880E83E0981E0A
:102A1000A11CB11CC114D104E104F10419F7DDCFEC
:102A2000FF90EF90DF90CF90BF90AF909F908F90EE
:102A300008951F920F920FB60F9211242F933F9378
:102A40008F939F93AF93BF9380910F08909110083D
:102A5000A0911108B091120830910E0823E0230FC5
:102A60002D3720F40196A11DB11D05C026E8230FC6
:102A70000296A11DB11D20930E0880930F0890931C
:102A80001008A0931108B093120880911308909138
:102A90001408A0911508B09116080196A11DB11D4A
:102AA0008093130890931408A0931508B093160808
:102AB000BF91AF919F918F913F912F910F900FBE3A
:102AC0000F901F901895CF93DF93CDB7DEB728975F
:102AD0000FB6F894DEBF0FBECDBF789484B5826088
:102AE00084BD84B5816084BD85B5826085BD85B5B2
:102AF000816085BD80916E00816080936E00109230
:102B000081008091810082608093810080918100AA
:102B1000816080938100809180008160809380003B
:102B20008091B10084608093B1008091B000816099
:102B30008093B00080919100826080939100809199
:102B400091008160809391008091900081608093DA
:102B500090008091A10082608093A1008091A100EB
:102B600081608093A1008091A00081608093A0008B
:102B700080912101826080932101809121018160F7
:102B800080932101809120018160809320018091B8
:102B90007A00846080937A0080917A0082608093CA
:102BA0007A0080917A00816080937A0080917A0027
:102BB000806880937A001092C1000E94080202E0AF
:102BC00010E00E94BD0680910A0490910B040197C9
:102BD00009F055C08091080490910904892B09F0EF
:102BE0004EC00E94BD0680910A0490910B0401978B
:102BF00069F46AE070E080E090E00E94DF140E94D7
:102C0000BD0689E392E00E945113EDCF0E94BD06FC
:102C100083E492E00E94511380912803909129034C
:102C2000009759F481E090E0909329038093280362
:102C300040E050E064EF71E00FC08130910579F41D
:102C4000E2E0F0E0F0932903E093280346E950E046
:102C500064EF71E082E090E00E94D30302C002972B
:102C600009F38DE492E00E948F07809128039091F0
:102C700029030E94910782E293E00E9451130E946F
:102C8000BD068091280390912903892B49F462E3C2
:102C900070E080E090E00E94DF140E947F0B91CFF3
:102CA0001C821B8280910A0490910B04892B79F776
:102CB0008091080490910904019749F70E94BD068C
:102CC0008B819C8101969C838B8364E670E080E01D
:102CD00090E00E94DF14EB81FC813A9719F748ECF1
:102CE00050E068EE73E081E090E00E94D30344E698
:102CF00050E069EE70E083E090E00E94D3038091A1
:102D000028039091290398878F83212C312CEF8100
:102D1000F885319709F0E4C284E592E00E945113EE
:102D200061E08EE20E94AD090E94BD068091080418
:102D300090910904019709F0C3C20E94FE0489E042
:102D400090E00E940C0420E030E040EA51E40E9450
:102D50000E1E87FFE9C040E050E068EE73E081E0BE
:102D600090E00E94D3030E9432050E94FE0460E0BE
:102D700070E080E89FE30E94DC100E94FE0488EE71
:102D800097E00E944C1088E00E94370ABC01990F1E
:102D9000880B990B0E94151E26EA3BE944EC5BEB7D
:102DA0000E94741E9B01AC016DEF76EF8DE290E402
:102DB0000E94A1202DE73FE34BEA52E40E94741EDB
:102DC0000E9466206932710554F56B01FFE0CF0E59
:102DD000D11C0D2C000CEE08FF080E94FE046AE9CD
:102DE00079E989E99EE30E94A81388E090E00E94B7
:102DF0000C044B015C01C701B6010E94151E9B012A
:102E0000AC01C501B4010E940E1E87FF08C00E94DC
:102E1000BD0680910804909109040197F1F288EEB3
:102E200097E00E9477100E94FE040E9432050E94E3
:102E3000FE0480ED97E00E9449050E94FE0460E0D8
:102E400070E0CB010E94DC100E94FE0480EA9FE04B
:102E50000E9449050E94FE0488E090E00E940C0454
:102E60000E946620615F7F4F6B01770FEE08FF08BD
:102E70006AE979E989E99EE30E94A81388E00E9443
:102E8000370ABC01990F880B990B0E94151E26EA80
:102E90003BE944EC5BEB0E94741E9B01AC016DEFBF
:102EA00076EF8DE290E40E94A1202DE73FE34BEA0C
:102EB00052E40E94741E4B015C01C701B6010E94DE
:102EC000151E9B01AC01C501B4010E940E1E87FFB7
:102ED00008C00E94BD0680910804909109040197E2
:102EE00039F20E94FE0480ED97E00E9449050E949D
:102EF000FE0460E070E0CB010E94DC104DEC5CEC65
:102F00006CE47EE384EE97E00E94840E4DEC5CEC72
:102F10006CE47EEB86EE97E00E94840E83E090E006
:102F2000909325038093240380E00E94370A2C01AC
:102F300081E00E94370A3C0182E00E94370A9E83AA
:102F40008D8383E00E94370A7C0184E00E94370A67
:102F50006C0185E00E94370A9A83898386E00E948B
:102F6000370A5C0187E00E94370A4C0140E050E0DC
:102F700060E87EE384EE97E00E94840E40E050E03B
:102F800060E87EEB86EE97E00E94840E87E692E092
:102F90000E948F07C7010E9491070E944D138DE682
:102FA00092E00E948F07C6010E9491070E944D1374
:102FB00083E792E00E948F0789819A810E9491079E
:102FC0000E944D1389E792E00E948F07C5010E947D
:102FD00091070E944D130E944D1329E5421622E0ED
:102FE0005206F4F189E5881682E09806CCF140E0BB
:102FF00050E0BA0184EE97E00E94840E40E050E079
:1030000060E070E886EE97E00E94840E48EC50E0A5
:1030100068EE73E081E090E00E94D30348EC50E05A
:1030200060E971E082E090E00E94D30348EC50E058
:1030300068E572E081E090E00E94D3034EEE52E03A
:1030400068EC70E081E090E00E94D30348EC50E02F
:103050006CE271E082E090E00E94D3030E940802DB
:1030600099E5691692E079060CF44CC0ED81FE8179
:10307000E935F2400CF446C089E5E81682E0F8062E
:103080000CF4DFC299E5C91692E0D9060CF440C0F1
:10309000E981FA81E935F240DCF189E5A81682E0A0
:1030A000B806B4F199E5891692E099068CF1809101
:1030B000240390912503039759F54DEC5CEC6CE4E7
:1030C0007EE384EE97E00E94840E4DEC5CEC6CE4B1
:1030D0007EEB86EE97E00E94840E66E970E080E069
:1030E00090E00E94DF144DEC5CEC6CE47EE386EE35
:1030F00097E00E94840E62EE74E080E090E00E940F
:10310000DF1406C0E9E5EE16E2E0FE060CF493C219
:10311000F9E5CF16F2E0DF060CF440C089819A8110
:1031200089359240DCF1F9E5AF16F2E0BF06B4F163
:1031300029E5821622E092068CF184EF481681E0A0
:10314000580664F58091240390912503039709F4B0
:103150006BC24DEC5CEC6CE47EE384EE97E00E9485
:10316000840E4DEC5CEC6CE47EEB86EE97E00E9406
:10317000840E66E970E080E090E00E94DF144DEC80
:103180005CEC6CE47EEB84EE97E00E94840E6CEDC8
:1031900075E080E090E00E94DF1446C299E5491690
:1031A00092E059060CF446C0E9E56E16E2E07E06B0
:1031B0000CF440C08D819E8189359240DCF1F9E5A7
:1031C000EF16F2E0FF060CF43CC229E5C21622E03D
:1031D000D206B4F184EF881681E098068CF58091D0
:1031E000240390912503039759F14DEC5CEC6CE4BA
:1031F0007EE384EE97E00E94840E4DEC5CEC6CE480
:103200007EEB86EE97E00E94840E66E970E080E037
:1032100090E00E94DF144DEC5CEC6CE47EE386EE03
:1032200097E00E94840E6CED75E080E090E00E94D3
:10323000DF1406C099E5E91692E0F9060CF401C224
:10324000E9E5CE16E2E0DE060CF440C240E050E0D4
:1032500060E87EE384EE97E00E94840E40E050E058
:1032600060E87EEB86EE97E00E94840EF9E5AF16EB
:10327000F2E0BF0634F081E090E090932503809364
:10328000240399E5891692E0990634F0E1E0F0E034
:10329000F0932503E0932403F9E56F16F2E07F062F
:1032A00024F0109325030093240329E5421622E01D
:1032B00052060CF40BC2109325030093240306C29C
:1032C00040E050E0BA0184EE97E00E94840E40E0B6
:1032D00050E060E070E886EE97E00E94840E67C1DF
:1032E0008F819885029709F062C189E892E00E9477
:1032F00051138091080490910904019709F050C17D
:1033000089E090E00E940C0420E030E040EA51E4C3
:103310000E940E1E87FF20C00E94BD0680910004FF
:10332000909101048E3B9105BCF040E050E0BA0161
:1033300084EE97E00E94840E40E050E060E070E888
:1033400086EE97E00E94840E4AEF50E062EE74E051
:1033500082E090E00E94D3038CE992E00E948F0704
:1033600080910002909101020E94910785EA92E00B
:103370000E948F0788EA92E00E948F0780912603BF
:10338000909127030E94910785EA92E00E948F079F
:103390008091FE039091FF03AC014D5351092091A0
:1033A0000004309101044138510508F08AC0A90198
:1033B0004D5351094138510508F083C084EB92E028
:1033C0000E9451138091000290910102892B09F013
:1033D00064C0E0902603F0902703B7010F2C000C87
:1033E000880B990B0E94151E2DEC3CEC4CEC5EE317
:1033F0000E94741E4B015C0191E0E916F104F1F4A6
:1034000020E030E0A901C501B4010E949C201816FB
:10341000C4F42DEC3CEC4CEC5DE3C501B4010E941E
:10342000871F4B015C019B01AC010E94BC0364E659
:1034300070E080E090E00E94DF14E2CFEF20E094A3
:1034400071F020E030E0A901CA01B9010E94BC037B
:10345000E1E0F0E0F0930102E09300021EC020E002
:1034600030E0A901C501B4010E940E1E87FFE9CF1B
:103470002DEC3CEC4CEC5DE3C501B4010E94881FCF
:103480004B015C019B01AC010E94BC0364E670E04F
:1034900080E090E00E94DF14E2CF809100029091E2
:1034A0000102029739F420E030E0A901CA01B90114
:1034B0000E94BC0381E090E090930102809300029F
:1034C00076C02E3B3105BCF02DEC3CEC4CEC5EE3C1
:1034D000CA01B9010E94BC03E1E0F0E0F0932703C8
:1034E000E093260310920102109200028AEB92E010
:1034F0000E9451135CC02D3331059CF489EC92E09D
:103500000E9451138FEF9FEF909327038093260320
:1035100010920102109200022DEC3CEC4CEC5EEBA0
:1035200042C08E3B9105E4F081EE92E00E9451137F
:10353000109301020093000260912603709127030B
:10354000072E000C880B990B0E94151E2AE939E9F9
:1035500049E95EE30E94741E20E030E0A90125C025
:10356000CD972CF587EF92E00E9451131093010242
:10357000009300026091260370912703072E000C30
:10358000880B990B0E94151E2AE939E949E95EE387
:103590000E94741E9B01AC0160E070E0CB0105C08D
:1035A00020E030E0A901CA01B9010E94BC030E94D9
:1035B000BD0664E670E080E090E00E94DF14809138
:1035C0000A0490910B048130910521F49FEF291A90
:1035D000390A04C0892B11F4212C312C8CE093E0A2
:1035E0000E948F07C1010E9491070E944D13EBE0DA
:1035F0002E1631040CF48BCB40E050E0BA0184EE7F
:1036000097E00E94840E40E050E060E070E886EEB3
:1036100097E00E94840E44E650E064E670E08AE0A1
:1036200090E00E94D3033ECB99E5E91692E0F906BB
:103630000CF00CCE0BC189E5481682E058060CF060
:10364000FEC0E4EFEE16E1E0FE060CF0B0CFF9E5C7
:10365000CF16F2E0DF060CF479C04AE959E969E9CE
:103660007EEB86EE97E00E94840E40E050E0BA01C7
:1036700084EE97E00E94840E29E5A21622E0B206AD
:1036800034F081E090E0909325038093240399E542
:10369000891692E0990634F0E1E0F0E0F09325031A
:1036A000E0932403F9E56F16F2E07F0624F010930F
:1036B00025030093240329E5421622E052060CF468
:1036C00045C0109325030093240340C0F4EFCF16A8
:1036D000F1E0DF060CF06BCF4AE959E969E97EE3D6
:1036E00084EE97E00E94840E40E050E060E070E8D5
:1036F00086EE97E00E94840E89E5A81682E0B8065F
:1037000034F0E1E0F0E0F0932503E0932403F9E5E1
:103710008F16F2E09F0634F081E090E0909325034D
:103720008093240399E5691692E0790624F01093BA
:10373000250300932403E9E54E16E2E05E060CF44F
:1037400036CF109325030093240331CF24EFC21604
:1037500021E0D2060CF02BCF89819A8189359240E5
:1037600034F081E090E0909325038093240399E561
:10377000A91692E0B90634F0E1E0F0E0F0932503F9
:10378000E09324038D819E818935924024F010932B
:10379000250300932403F9E56F16F2E07F0624F079
:1037A00010932503009324038FE792E00E948F0774
:1037B00080912403909125030E9491070E944D134C
:1037C00080912403909125038130910569F44DEC9B
:1037D0005CEC6CE47EEB86EE97E00E94840E4DEC90
:1037E0005CEC6CE47EEB20C08230910579F44DEC0A
:1037F0005CEC6CE47EE384EE97E00E94840E4DEC7A
:103800005CEC6CE47EE386EE97E010C0039781F4F5
:103810004DEC5CEC6CE47EEB86EE97E00E94840E4F
:103820004DEC5CEC6CE47EE384EE97E00E94840E49
:1038300062E370E080E090E00E94DF14B8CE99E58A
:10384000691692E079060CF0B5CCFBCEE4EFEE16EB
:10385000E1E0FE060CF401CFAACE80910207909120
:1038600003070C94C022109213041092120488EEE5
:1038700093E0A0E0B0E08093140490931504A0932B
:103880001604B09317042DE032E030931104209316
:10389000100410921F0410921E0480932004909331
:1038A0002104A0932204B09323042FE132E030934B
:1038B0001D0420931C0445E351E0509329044093D8
:1038C000280444E351E050932B0440932A0440E33E
:1038D00051E050932D0440932C0441E351E0509368
:1038E0002F0440932E0442E351E05093310440935F
:1038F000300446E351E05093330440933204109275
:103900003504109236041092370410923804109245
:10391000BC041092BB048093BD049093BE04A0939A
:10392000BF04B093C0043093BA042093B90445EDAA
:1039300050E05093C6044093C50444ED50E05093CA
:10394000C8044093C70440ED50E05093CA0440932C
:10395000C90441ED50E05093CC044093CB0442EDB8
:1039600050E05093CE044093CD0446ED50E0509388
:10397000D0044093CF041092D2041092D30410923A
:10398000D4041092D50410925905109258058093D2
:103990005A0590935B05A0935C05B0935D05309349
:1039A00057052093560585EC90E09093630580932E
:1039B000620584EC90E0909365058093640580EC4B
:1039C00090E0909367058093660581EC90E090937A
:1039D00069058093680582EC90E090936B05809375
:1039E0006A0586EC90E090936D0580936C051092CB
:1039F0006F0510927005109271051092720586E3A2
:103A00008093EC0787E38093ED0788E38093EE07CC
:103A100089E38093EF078BE18093F0078DE180933A
:103A2000F1078AE18093F2078CE18093F30784E049
:103A30008093F40787E08093F5071092F60784EBF4
:103A40008093F70786E18093F80788E18093F90770
:103A500087E18093FA0789E18093FB07E0910107F2
:103A6000EC3020F08FEF8093FC0710C081E08E0FC8
:103A700080930107E093FC0725E0E29FF001112409
:103A8000EB53F94F88EB9BE092838183E091010730
:103A9000EC3020F08FEF8093FD0710C081E08E0F97
:103AA00080930107E093FD0785E0E89FF001112472
:103AB000EB53F94F88EB9BE0928381838CE08093FA
:103AC000CB0784E28093CC0786E08093CD0785E026
:103AD0008093CE078FE18093CF078EE18093D0074C
:103AE00083E28093D10782E28093D20785E48093BA
:103AF000D30784E48093D40780E48093D70710929F
:103B0000DC071092DD071092DE071092DF0710929B
:103B1000E0071092E1071092E2071092E307EDE050
:103B2000F7E08FEF9FEFDC0112821382148215827F
:103B3000168217821086118683879487A587B68799
:103B40008787908BA18BB28B12861182108273961D
:103B500027E0EB3CF20741F78DE090E00E942B223A
:103B6000FC011382128281E392E0918380831186AB
:103B700087E2848384E1828784E083871486F093DC
:103B80000A07E093090710920B0710920C0785E2D1
:103B90008093F4051092F605109203071092020725
:103BA000109205071092040710920707109206075B
:103BB00061E070E080E090E00E945823009789F077
:103BC0009093030780930207109205071092040751
:103BD0002091060730910707232BC1F4FC011082C6
:103BE00015C08091020790910307009711F00E9481
:103BF000C02210920307109202071092070710923A
:103C000006071092050710920407089510920707FF
:103C10001092060762E273E00C944F240E94501E3B
:103C200008F481E00895E89409C097FB3EF490956C
:103C30008095709561957F4F8F4F9F4F9923A9F085
:103C4000F92F96E9BB279395F69587957795679514
:103C5000B795F111F8CFFAF4BB0F11F460FF1BC058
:103C60006F5F7F4F8F4F9F4F16C0882311F096E9EB
:103C700011C0772321F09EE8872F762F05C0662399
:103C800071F096E8862F70E060E02AF09A95660F52
:103C9000771F881FDAF7880F9695879597F908950B
:103CA000990F0008550FAA0BE0E8FEEF161617064D
:103CB000E807F907C0F012161306E407F50798F0B5
:103CC000621B730B840B950B39F40A2661F0232BCE
:103CD000242B252B21F408950A2609F4A140A6954A
:103CE0008FEF811D811D08950E94871E0C94F81E80
:103CF0000E94EA1E38F00E94F11E20F0952311F078
:103D00000C94E11E0C94E71E11240C942C1F0E94AD
:103D1000091F70F3959FC1F3950F50E0551F629FE7
:103D2000F001729FBB27F00DB11D639FAA27F00D14
:103D3000B11DAA1F649F6627B00DA11D661F829F3B
:103D40002227B00DA11D621F739FB00DA11D621F20
:103D5000839FA00D611D221F749F3327A00D611D3D
:103D6000231F849F600D211D822F762F6A2F11241F
:103D70009F5750409AF0F1F088234AF0EE0FFF1F52
:103D8000BB1F661F771F881F91505040A9F79E3FA9
:103D9000510580F00C94E11E0C942C1F5F3FE4F35E
:103DA000983ED4F3869577956795B795F795E795FF
:103DB0009F5FC1F7FE2B880F911D9695879597F908
:103DC000089597F99F6780E870E060E008959FEF9D
:103DD00080EC089500240A941616170618060906A2
:103DE000089500240A941216130614060506089571
:103DF000092E0394000C11F4882352F0BB0F40F4F9
:103E0000BF2B11F460FF04C06F5F7F4F8F4F9F4F38
:103E1000089557FD9058440F551F59F05F3F71F0BA
:103E20004795880F97FB991F61F09F3F79F0879521
:103E30000895121613061406551FF2CF4695F1DFAA
:103E400008C0161617061806991FF1CF869571053A
:103E5000610508940895E894BB2766277727CB016E
:103E600097F90895052E97FB1EF400940E94491FB0
:103E700057FD07D00E94511F07FC03D04EF40C944D
:103E8000491F50954095309521953F4F4F4F5F4FBB
:103E9000089590958095709561957F4F8F4F9F4FB6
:103EA0000895A1E21A2EAA1BBB1BFD010DC0AA1F7B
:103EB000BB1FEE1FFF1FA217B307E407F50720F093
:103EC000A21BB30BE40BF50B661F771F881F991F0E
:103ED0001A9469F760957095809590959B01AC0157
:103EE000BD01CF010895991B79E004C0991F961771
:103EF00008F0961B881F7A95C9F780950895EE0FF4
:103F0000FF1F881F8BBF0790F691E02D1994505822
:103F1000BB27AA270E949F1F0C94F81E0E94EA1E2E
:103F200038F00E94F11E20F039F49F3F19F426F476
:103F30000C94E71E0EF4E095E7FB0C94E11EE92FCC
:103F40000E94091F58F3BA17620773078407950781
:103F500020F079F4A6F50C942B1F0EF4E0950B2EAF
:103F6000BA2FA02D0B01B90190010C01CA01A001CB
:103F70001124FF27591B99F0593F50F4503E68F126
:103F80001A16F040A22F232F342F4427585FF3CF67
:103F9000469537952795A795F0405395C9F77EF438
:103FA0001F16BA0B620B730B840BBAF09150A1F081
:103FB000FF0FBB1F661F771F881FC2F70EC0BA0F07
:103FC000621F731F841F48F4879577956795B7958F
:103FD000F7959E3F08F0B0CF9395880F08F099278A
:103FE000EE0F9795879508950E9408200C94F81E6F
:103FF0000E94F11E58F00E94EA1E40F029F45F3F33
:1040000029F00C94E11E51110C942C1F0C94E71E06
:104010000E94091F68F39923B1F3552391F3951B6F
:10402000550BBB27AA2762177307840738F09F5FD9
:104030005F4F220F331F441FAA1FA9F335D00E2E46
:104040003AF0E0E832D091505040E695001CCAF7B3
:104050002BD0FE2F29D0660F771F881FBB1F261776
:1040600037074807AB07B0E809F0BB0B802DBF014D
:10407000FF2793585F4F3AF09E3F510578F00C941C
:10408000E11E0C942C1F5F3FE4F3983ED4F3869519
:1040900077956795B795F7959F5FC9F7880F911D3D
:1040A0009695879597F90895E1E0660F771F881F29
:1040B000BB1F621773078407BA0720F0621B730BDC
:1040C000840BBA0BEE1F88F7E09508950E946D20CF
:1040D0006894B1110C942C1F08950E94111F88F050
:1040E0009F5798F0B92F9927B751B0F0E1F0660FBC
:1040F000771F881F991F1AF0BA95C9F714C0B130FD
:1041000091F00E942B1FB1E008950C942B1F672F94
:10411000782F8827B85F39F0B93FCCF3869577952B
:104120006795B395D9F73EF4909580957095619514
:104130007F4F8F4F9F4F08950E94501E08F48FEFBE
:104140000895FA01EE0FFF1F309621053105A1F108
:104150006115710561F48038BFE39B0749F16894EC
:104160009038810561F08038BFEF9B0741F09923BB
:104170004AF5FF3FE1053105210519F1E89408945E
:10418000E795D901AA2329F4AB2FBE2FF85FD0F30E
:1041900010C0FF5F70F4A695E0F7F73950F019F002
:1041A000FF3A38F49F779F930DD00F9007FC9058FB
:1041B000089546F00C94E71E60E070E080E89FE30D
:1041C00008954FE79F775F934F933F932F930E94FC
:1041D000A1212F913F914F915F910E94741E0C94E9
:1041E000FE200E94501E880B990B089529F416F0AA
:1041F0000C94E11E0C942B1F0C94E71E0E94111FBF
:10420000A8F39638A0F707F80F92E8942BE33AEA60
:1042100048EB5FE70E948A1E0F920F920F924DB7F4
:104220005EB70F920E94E921ECE2F1E00E9430219A
:104230004F915F91EF91FF91E595EE1FFF1F49F0C0
:10424000FE57E0684427EE0F441FFA95E1F74195C9
:10425000550B0E9463210F9007FE0C94572108957F
:10426000DF93CF931F930F93FF92EF92DF927B0127
:104270008C01689406C0DA2EEF010E94871EFE01B1
:10428000E894A5912591359145915591A6F3EF01BB
:104290000E949F1FFE019701A801DA9469F7DF9041
:1042A000EF90FF900F911F91CF91DF9108959B01A7
:1042B000AC0160E070E080E89FE30C94F41F0C9484
:1042C000E11E0C941D220E94111FD8F39923C9F3FB
:1042D000940F511DA3F39150504094F059F088234E
:1042E00032F0660F771F881F91505040C1F79E3FF4
:1042F00051052CF7880F911D9695879597F908958C
:104300005F3FACF0983E9CF0BB278695779567950C
:10431000B79508F4B1609395C1F7BB0F58F711F446
:1043200060FFE8CF6F5F7F4F8F4F9F4FE3CF0C94BD
:104330002C1F16F00C941D220C94E71E68940C940C
:10434000E11E0E94111FA8F39923C1F3AEF3DF937E
:10435000CF931F930F93FF92C92FDD2788232AF055
:104360002197660F771F881FDAF720E030E040E8DA
:104370005FEB9FE3883920F0803E38F021968F77FD
:104380000E94881FE4E5F1E004C00E94881FE1E874
:10439000F1E00E9430218B01BE01EC01FB2E6F5732
:1043A00071097595771F880B990B0E94151E28E1DE
:1043B00032E741E35FE30E94871EAF2D9801AE0113
:1043C000FF900F911F91CF91DF910E949F1F0C943E
:1043D000F81EFA01DC01AA0FBB1F9B01AC01BF57FD
:1043E00028F4222733274427507820C0B75190F46F
:1043F000AB2F0024469537952795011CA395D2F342
:10440000002071F0220F331F441FB395DAF30ED052
:104410000C94871F61307105A0E88A07B94630F413
:104420009B01AC016627772788279078309621F08A
:10443000208331834283538308959F3F31F091500D
:1044400020F4879577956795B795880F911D969578
:10445000879597F90895CF93DF938230910510F4F3
:1044600082E090E0E0911908F0911A0820E030E035
:10447000C0E0D0E0309711F14081518148175907D1
:10448000C0F04817590761F482819381209719F091
:104490009B838A832BC090931A088093190826C0A7
:1044A0002115310519F04217530718F49A01BE017E
:1044B000DF01EF010280F381E02DDCCF2115310512
:1044C00009F1281B390B2430310590F412968D9197
:1044D0009C9113976115710521F0FB0193838283F1
:1044E00004C090931A0880931908FD01329644C0C5
:1044F000FD01E20FF31F81939193225031092D9317
:104500003C933AC02091170830911808232B41F4AE
:104510002091050230910602309318082093170865
:1045200020910302309104022115310541F42DB789
:104530003EB74091070250910802241B350BE091D1
:104540001708F0911808E217F307A0F42E1B3F0B91
:104550002817390778F0AC014E5F5F4F24173507F5
:1045600048F04E0F5F1F509318084093170881932F
:10457000919302C0E0E0F0E0CF01DF91CF91089588
:104580000F931F93CF93DF93009709F48CC0FC0126
:104590003297138212820091190810911A0801159E
:1045A000110581F420813181820F931F209117081A
:1045B000309118082817390779F5F0931808E09317
:1045C000170871C0D80140E050E0AE17BF0750F4A3
:1045D00012962D913C911397AD012115310509F1EA
:1045E000D901F3CF9D01DA01338322836081718188
:1045F000860F971F8217930769F4EC012881398190
:10460000260F371F2E5F3F4F318320838A819B8186
:1046100093838283452B29F4F0931A08E0931908B9
:1046200042C01396FC93EE931297ED014991599174
:104630009E01240F351FE217F30771F480819181E9
:10464000840F951F029611969C938E93828193817D
:1046500013969C938E931297E0E0F0E0D8011296A7
:104660008D919C911397009719F0F8018C01F6CF6A
:104670008D919C9198012E5F3F4F820F931F209147
:104680001708309118082817390769F4309729F46A
:1046900010921A081092190802C013821282109305
:1046A000180800931708DF91CF911F910F9108957B
:1046B0006F927F928F929F92AF92BF92CF92DF9232
:1046C000EF92FF920F931F93CF93DF93EC0100972C
:1046D00089F4CB01DF91CF911F910F91FF90EF9063
:1046E000DF90CF90BF90AF909F908F907F906F9012
:1046F0000C942B22FC01E60FF71F9C01225031097C
:10470000E217F30708F4ACC0D9010D911C91119781
:1047100006171707B0F00530110508F49FC0C8014F
:1047200004978617970708F499C002501109061BD1
:10473000170B019311936D937C93CF010E94C022BC
:104740008DC05B01A01AB10A4C01800E911EA09190
:104750001908B0911A0840E050E0E12CF12C1097B4
:1047600009F44AC0A815B905D1F56D907C90119750
:10477000630182E0C80ED11CCA14DB0480F1A301DE
:104780004A195B096A0182E0C80ED11C1296BC90DE
:1047900012971396AC91B5E0CB16D10440F0B282DB
:1047A000A38351834083D9016D937C930AC00E5F2C
:1047B0001F4FC301800F911FF90191838083EB2D5F
:1047C000FA2FE114F10431F0D7011396FC93EE9324
:1047D000129744C0F0931A08E09319083FC08D91D6
:1047E0009C9111974817590708F4AC017D01129666
:1047F0000D90BC91A02DB3CF80911708909118080F
:1048000088159905E1F446175707C8F4809103020B
:1048100090910402009741F48DB79EB74091070232
:1048200050910802841B950BE817F907C8F4F09320
:104830001808E0931708F901718360830FC0CB015A
:104840000E942B227C01009759F0A801BE010E9412
:104850004624CE010E94C022C70104C0CE0102C07E
:1048600080E090E0DF91CF911F910F91FF90EF904A
:10487000DF90CF90BF90AF909F908F907F906F9080
:10488000089581E090E0F8940C945624FB01DC013B
:1048900002C001900D9241505040D8F70895FB019D
:1048A000DC0101900D920020E1F7089511E0C1EDC7
:1048B000D1E000E006C0802FFE010E947F1F2196FC
:1048C000011DC23DD10780E00807A9F7F894FFCF8A
:1048D0000100FF00001B082000000000008E065EA3
:1048E00006AD0B3A0600064A063B0600000000161D
:1048F0000B560A9A0A5D0BCB0AA90ABD0A000000F2
:1049000000DD0B560AAD0BAC0B4320656E666F6E77
:10491000636500432072656C6163686500094D6FD3
:10492000646520006D6F646520312073656C65637C
:1049300074696F6E6E65002061333A200020613427
:104940003A20002061353A20002061363A200020CC
:10495000536F727469653A20006D6F646520322070
:1049600073656C656374696F6E6E6500097374615D
:1049700077703A2000092000646972656374696F7A
:104980006E3A20005354415750004A276176616EB9
:1049900063652043522A535300426565656565701F
:1049A0002042656565656570204265656565657071
:1049B00000547269626F726420746F75746520238D
:1049C00064726F697465004261626F726420746F13
:1049D00075746520234761756368650074656D7043
:1049E000203D20006E616E00696E66006F76660085
:0449F0000D0A0000AC
:00000001FF
