:100000000C94D2010C9403020C9403020C9403028E
:100010000C9403020C9403020C9403020C9403024C
:100020000C9403020C941E0E0C941E0E0C941E0EC7
:100030000C9403020C94E4170C9403020C94030236
:100040000C9403020C94C5150C9403020C94030247
:100050000C9403020C9403020C9403020C949A1760
:100060000C9403020C94BD120C9432130C940302F2
:100070000C9403020C9403020C9403020C940302EC
:100080000C9403020C9403020C9403020C940302DC
:100090000C9403020C9403020C9403020C94280E9B
:1000A0000C9403020C9403020C9403020C940302BC
:1000B0000C9403020C9403020C9403020C94C513D9
:1000C0000C9403020C9403020C9403020C949312FC
:1000D0000C9408130C9403020C94AD180C94831820
:1000E0000C940302C410C710B610BA10C010FE1052
:1000F000CB10CF10D510D910DD10E310E710EB10A6
:10010000FE10F110F510F9100C151115161520152B
:100110002A15A31534153C1544154E1558156215AE
:1001200071157B15A31585158F1599150763423633
:10013000B79BD8A71A39685618AEBAAB558C1D3C78
:10014000B7CC5763BD6DEDFD753EF6177231BF003C
:100150000000803F08000000BE922449123EABAA76
:10016000AA2ABECDCCCC4C3E00000080BEABAAAAD1
:10017000AA3E00000000BF000000803F0000000019
:1001800000084178D3BB4387D1133D190E3CC3BD52
:100190004282AD2B3E68EC8276BED98FE1A93E4CFF
:1001A00080EFFFBE01C4FF7F3F00000000000C9401
:1001B000EB100C944E150C94E3100C9416150C9443
:1001C000C0100C9420150C9499150C94F5100C94F7
:1001D000F1100C94F9100C947A0C0C94DD100C9422
:1001E000FE100C9434150C948B1C0C94A3130C94DB
:1001F00027120C9426120C94CB110C94AA0C0C947C
:10020000D5100C94C4100C94D9100C9485150C9432
:10021000B6100C94A8110C94560C0C94B01A0C94B3
:1002200062150C94E7100C94C7100C940C150C94E8
:100230003C150C947B150C9444150C94A3150C944C
:1002400058150C942A150C94CF100C94570C0C9440
:10025000D9110C94BA100C948F150C9471150C9440
:10026000CB100C9455120C94B7110C941C0C0C94DC
:100270005C130C9411150C9429170C94660C000057
:100280002100240027002A002D0030003300010146
:100290000000040107010A010000220025002800D7
:1002A0002B002E003100340002010000050108017E
:1002B0000B010505050507050808080802020202EA
:1002C0000A0A0808040404040101010101010101F2
:1002D0000303030303030303040707070C0C0C0CBD
:1002E0000C0C0C0C020202020606060606060606A6
:1002F0000B0B0B0B0B0B0B0B010210202008081033
:100300002040102040800201020108040201010285
:10031000040810204080804020100804020180045E
:1003200002018040201008040201080402010102B9
:1003300004081020408001020408102040800000C2
:100340000A0B02090C0D0E0807030401000000004F
:10035000000000000000000000000000000000009D
:10036000000000000000000000001211100000005A
:10037000000000000000000000000000000000007D
:1003800000000000000020002300260029002C00AF
:100390002F003200000100000301060109010200E4
:1003A000B01A8B1C11241FBECFEFD1E2DEBFCDBF30
:1003B00000E00CBF13E0A0E0B2E0E8E7FBE400E0FF
:1003C0000BBF02C007900D92A23FB107D9F728E0FA
:1003D000A2EFB3E001C01D92A23DB207E1F711E028
:1003E000C1EDD1E000E006C021970109802FFE0198
:1003F0000E94D320C03DD10780E00807A9F70E94E2
:10040000911C0C94AA250C9400002F923F924F92BD
:100410005F926F927F928F929F92AF92BF92CF9294
:10042000DF92EF92FF920F931F93CF93DF93CDB79D
:10043000DEB72B970FB6F894DEBF0FBECDBF9887FF
:100440008F831A82198282E0282E312C2F813885E1
:100450002130310509F048C389E392E00E94F80990
:1004600061E08EE20E94FF100E94D70F8091060883
:1004700090910708019709F025C30E94A21989E00D
:1004800090E00E943B1920E030E040E251E40E94FD
:10049000621F87FFC2C00E948B1940E050E06CEDE4
:1004A00075E081E090E00E94F11889E090E00E9400
:1004B0003B1920E030E048EC51E40E94F02118168E
:1004C00034F40E948B1981E090E00E9405020E94A2
:1004D000A21989E090E00E943B1920E030E048EC4E
:1004E00051E40E94621F18168CF04DEC5CEC6CE439
:1004F0007EEB80ED97E00E94AC144DEC5CEC6CE47C
:100500007EE382ED97E00E94AC14E3CF0E948B194A
:100510000E94A21984ED97E00E949F1684ED97E057
:100520000E94741600E010E08CE492E00E94F8094A
:10053000012B51F40E948B1946E950E060E971E00B
:1005400081E090E00E94F1184AE959E969E97EE307
:1005500080ED97E00E94AC1440E050E060E070E86D
:1005600082ED97E00E94AC140E94A21988E090E00E
:100570000E943B1901E010E020E030E040EF51E440
:100580000E94621F87FFD0CF02E010E08CE592E06E
:100590000E94F8090E94A219E12CF12C88E090E059
:1005A0000E943B1920E030E048EC52E40E94621FB8
:1005B00087FD8EC4FAC40E942A190E94A2198CEAEF
:1005C0009DE00E94F9190E94A2190E948B1946E928
:1005D00050E06AEF70E082E090E00E94F1180E9423
:1005E000610B4DEC5CEC6CE47EE380ED97E00E94E7
:1005F000AC144DEC5CEC6CE47EEB82ED97E00E9479
:10060000AC140E94A21983E090E09093F3038093CE
:10061000F20385E692E00E94F80980E00E948911C9
:100620002C0181E00E9489114C0182E00E94891115
:100630009C838B8383E00E9489117C0184E00E946B
:1006400089118C0185E00E9489113C0186E00E949D
:1006500089116C0187E00E9489115C0140E050E043
:1006600060E87EE380ED97E00E94AC1440E050E04B
:1006700060E87EEB82ED97E00E94AC148CE992E09A
:100680000E94EE0DC7010E94F00D0E94F40982EA5B
:1006900092E00E94EE0DC8010E94F00D0E94F40944
:1006A00088EA92E00E94EE0DC3010E94F00D0E94C4
:1006B000F4098EEA92E00E94EE0DC6010E94F00D50
:1006C0000E94F4090E94F4090E94A2198091F20389
:1006D0009091F303039709F087C084EB92E00E94A6
:1006E000F8090E94A2194DEC5CEC6CE47EE380ED0D
:1006F00097E00E94AC144DEC5CEC6CE47EEB82ED78
:1007000097E00E94AC1420E040E050E0822F2B875D
:1007100049875A870E9489112B8549855A858935D1
:10072000924014F041E050E02F5F283079F74130DB
:10073000510561F60E94A21984ED92E00E94F80929
:100740004DEC5CEC6CE47EE380ED97E00E94AC1431
:100750004DEC5CEC6CE47EEB82ED97E00E94AC1417
:100760000E94A21966E970E080E090E00E946017A4
:100770000E948B1946E950E060E971E081E090E069
:100780000E94F1180E94A2194DEC5CEC6CE47EE32F
:1007900082ED97E00E94AC144DEC5CEC6CE47EE3DF
:1007A00080ED97E00E94AC1464EF71E080E090E08F
:1007B0000E9460170E94A21983E00E94891180396B
:1007C00091403CF484E00E948911803991400CF4FE
:1007D000DCC41092F3031092F20362E370E080E055
:1007E00090E00E94601770CF31E9431631E0530664
:1007F0000CF45CC041E9841641E094060CF45DC041
:100800002B813C81213931400CF407C551E9E516B3
:1008100051E0F5060CF407C5013981E018070CF426
:1008200012C191E9691691E079060CF4B2C0E1E9D0
:10083000CE16E1E0DE060CF451C0F1E9AF16F1E0AE
:10084000BF060CF44BC040E050E0BA0180ED97E0E9
:100850000E94AC1440E050E060E070E882ED97E068
:100860000E94AC1448EC50E068EC70E081E090E04D
:100870000E94F11848EC50E060E971E081E090E0FE
:100880000E94F11848EC50E068E572E081E090E0E9
:100890000E94F11840E050E060E273E081E090E0F7
:1008A0000E94F118E0E0F0E0199518C0F1E9EF16A8
:1008B000F1E0FF060CF058C5B6C4E1E9EE16E1E040
:1008C000FE060CF4B0C4013921E012070CF45BC041
:1008D00021E9621621E072060CF44FC031E9C3161B
:1008E00031E0D3060CF449C041E9A41641E0B40656
:1008F0000CF443C050E9451651E05506F4F58091DB
:10090000F2039091F303039709F446C44DEC5CECB9
:100910006CE47EE380ED97E00E94AC144DEC5CEC5F
:100920006CE47EEB82ED97E00E94AC1466E970E027
:1009300080E090E00E9460170E948B1946E950E029
:100940006AEF70E082E090E00E94F1184DEC5CEC00
:100950006CE47EEB82ED97E00E94AC144DEC5CEC15
:100960006CE47EEB80ED97E00E94AC1468EE73E0DF
:1009700080E090E00E9460170FC481E9481681E092
:1009800058060CF45AC091E9891691E099060CF4C6
:1009900054C02B813C81213931400CF44EC051E9C7
:1009A000E51651E0F5060CF43EC4013981E0180764
:1009B0000CF449C090E9A91691E0B9060CF043C0C7
:1009C0008091F2039091F3030397E9F14DEC5CEC15
:1009D0006CE47EE380ED97E00E94AC144DEC5CEC9F
:1009E0006CE47EEB82ED97E00E94AC1466E970E067
:1009F00080E090E00E9460170E948B1946E950E069
:100A000060E971E081E090E00E94F1184DEC5CEC4F
:100A10006CE47EE382ED97E00E94AC144DEC5CEC5C
:100A20006CE47EE380ED97E00E94AC1468EE73E026
:100A300080E090E00E94601706C0E1E9EE16E1E078
:100A4000FE060CF4F0C30139F1E01F070CF4ABC350
:100A500040E050E060E87EE380ED97E00E94AC1457
:100A600040E050E060E87EEB82ED97E00E94AC143D
:100A700021E9C21621E0D20634F041E050E0509363
:100A8000F3034093F20351E9A51651E0B50634F0A3
:100A900081E090E09093F3038093F20391E989164B
:100AA00091E0990624F03092F3032092F203E1E9F9
:100AB0004E16E1E05E060CF476C33092F30320920A
:100AC000F20371C340E050E0BA0180ED97E00E946C
:100AD000AC1440E050E060E070E882ED97E00E94E6
:100AE000AC140E94A2199CC18F819885029709F0CD
:100AF00097C18BEE92E00E94F809809106089091D0
:100B00000708019709F085C16AE070E080E090E095
:100B10000E9460170E94D70F89E090E00E943B1965
:100B200020E030E040EA51E40E94621F87FF2BC0C2
:100B30000E94D70F8091FE079091FF078E3B910591
:100B400014F10E94D70F40E050E0BA0180ED97E029
:100B50000E94AC1440E050E060E070E882ED97E065
:100B60000E94AC148EEF92E00E94F80946E950E032
:100B70006EEE72E082E090E00E94F1180E94D70FC2
:100B800001E010E00EC089E090E00E943B1901E016
:100B900010E020E030E040EA51E40E94621F87FF4D
:100BA00000E00093F6031093F7030E94D70F0E9412
:100BB000D70F87E193E00E94EE0D809100029091A3
:100BC00001020E94F00D80E293E00E94EE0D83E2AC
:100BD00093E00E94EE0D8091F4039091F5030E9442
:100BE000F00D80E293E00E94EE0D8091FC07909161
:100BF000FD07AC014D5351092091FE073091FF07CD
:100C00004138510508F090C0A9014D5351094138B0
:100C1000510508F089C04091F6035091F703452B28
:100C200009F082C08FE293E00E94F80980910002EF
:100C300090910102892B09F063C00091F403109197
:100C4000F503B801012E000C880B990B0E94691F57
:100C50002DEC3CEC4CEC5EE30E94C81F6B017C0168
:100C600001301105F1F420E030E0A901C701B6011F
:100C70000E94F0211816C4F42DEC3CEC4CEC5DE322
:100C8000C701B6010E94DB206B017C019B01AC0116
:100C90000E94DA1864E670E080E090E00E9460173D
:100CA000E2CF0F3F1F4F71F020E030E0A901CA01F1
:100CB000B9010E94DA18E1E0F0E0F0930102E0935C
:100CC00000021EC020E030E0A901C701B6010E9469
:100CD000621F87FFE9CF2DEC3CEC4CEC5DE3C701D4
:100CE000B6010E94DC206B017C019B01AC010E94DB
:100CF000DA1864E670E080E090E00E946017E2CFCE
:100D00008091000290910102029739F420E030E0D6
:100D1000A901CA01B9010E94DA1821E030E030933C
:100D20000102209300027CC02E3B3105ECF02091A3
:100D3000F6033091F703232B69F52DEC3CEC4CECDA
:100D40005EE3CA01B9010E94DA1841E050E0509315
:100D5000F5034093F403109201021092000285E320
:100D600093E00E94F8095CC02D3331059CF484E4C3
:100D700093E00E94F8098FEF9FEF9093F503809323
:100D8000F40310920102109200022DEC3CEC4CECAA
:100D90005EEB42C08E3B9105E4F08CE593E00E944F
:100DA000F80930920102209200026091F4037091E0
:100DB000F503072E000C880B990B0E94691F2AE986
:100DC00039E949E95EE30E94C81F20E030E0A9014B
:100DD00025C0CD972CF582E793E00E94F809309268
:100DE0000102209200026091F4037091F503072E36
:100DF000000C880B990B0E94691F2AE939E949E91F
:100E00005EE30E94C81F9B01AC0160E070E0CB0173
:100E100005C020E030E0A901CA01B9010E94DA183A
:100E20000E94D70F64E670E080E090E00E946017B7
:100E300080910808909109088130910531F4E98189
:100E4000FA813196FA83E98304C0892B11F41A825E
:100E5000198287E893E00E94EE0D89819A810E94B1
:100E6000F00D0E94F40929813A812B3031050CF4F0
:100E7000EDCA40E050E0BA0180ED97E00E94AC146A
:100E800040E050E060E070E882ED97E00E94AC1432
:100E900044E650E068EC70E085E090E02B960FB6F9
:100EA000F894DEBF0FBECDBFDF91CF911F910F91A0
:100EB000FF90EF90DF90CF90BF90AF909F908F907A
:100EC0007F906F905F904F903F902F900C94F1180F
:100ED0008EEB93E00E94F8094AE959E969E97EE35B
:100EE00080ED97E00E94AC1440E050E060E070E8D4
:100EF00082ED97E00E94AC140E94A21988E090E075
:100F00000E943B190E94BA212B013C01072E000CC4
:100F1000880B990B0E94691F4B015C0188E090E0EF
:100F20000E943B199B01AC01C501B4010E94621FE4
:100F300087FF38C088E090E00E943B19A50194012A
:100F40000E94DB2020E030E040E251E40E94621F7A
:100F500087FF28C08FE893E00E94F80985EA93E0B4
:100F60000E94EE0DC2010E94F00D8BEA93E00E94F8
:100F7000F80988E090E00E943B1942E00E941A0DB7
:100F80008FE893E00E94F8093FEFE31AF30A62E367
:100F900070E080E090E00E94601733E0E316F10417
:100FA00024F4FCCAE12CF12CF2CF40E050E0BA016D
:100FB00080ED97E00E94AC1440E050E0BA0180ED73
:100FC00097E00E94AC140130110519F001E010E027
:100FD000DDCA85E592E00E94F80940E050E0BA01E0
:100FE00080ED97E00E94AC144AE959E969E97EEB8B
:100FF00082ED97E00E94AC146CE271E080E090E03A
:101000000E9460170E948B190E94A2190E94A219C7
:1010100088E090E00E943B190E94BA21CB010F9614
:101020009C01990F440B550B2B833C834D835E83AE
:101030004B0133E0830E911C092C000CAA08BB085D
:101040006B0143E0C41AD1080D2C000CEE08FF0818
:1010500088E090E00E943B192B013C016B817C8170
:101060008D819E810E94691F9B01AC01C301B20169
:101070000E94621F87FF36C00E94A21988E090E09C
:101080000E943B192B013C01C501B4010E94691F5C
:101090009B01AC01C301B2010E94F021181694F02B
:1010A00088E090E00E943B192B013C01C701B6018A
:1010B0000E94691F9B01AC01C301B2010E94621F23
:1010C00087FF07C00E94A21988E090E00E943B19A8
:1010D000BFCF6AE979E989E99EE30E944F0A0E943D
:1010E000A219B6CF0E948B190E94A2190E948B19D7
:1010F0000E94A21980ED97E00E94F9190E94A2199E
:101100000E942A190E948B1946E950E06AEF70E0AC
:1011100082E090E00E94F1180E94610B0E94A219E7
:1011200084E991E10E94F9190E94A2190E942A19EA
:1011300088E090E00E943B196B017C0188E090E020
:101140000E943B194B015C0120E030E040E751E494
:10115000C701B6010E94DC209B01AC01C501B401AE
:101160000E94621F87FF27CA4DEC5CEC6CE47EE3B3
:1011700080ED97E00E94AC144DEC5CEC6CE47EEBEF
:1011800082ED97E00E94AC14D9CF64EF71E080E06B
:1011900090E00E9460171DCB41E9E41641E0F4069F
:1011A0000CF056CC40C0003911400CF09ACC4DECFC
:1011B0005CEC6CE47EE380ED97E00E94AC144DECB7
:1011C0005CEC6CEC7DEB82ED97E00E94AC14F1E9F5
:1011D000CF16F1E0DF0634F021E030E03093F30386
:1011E0002093F20331E9A31631E0B30634F041E075
:1011F00050E05093F3034093F20351E9851651E018
:10120000950624F03092F3032092F20381E9481608
:1012100081E058060CF465CC44C0F1E9EF16F1E02A
:10122000FF060CF050CB80E9E81681E0F8060CF0E0
:1012300058CC013991E01907CCF14DEC5CEC6CE431
:101240007EEB82ED97E00E94AC144DEC5CEC6CEC14
:101250007DE380ED97E00E94AC14E1E9CE16E1E079
:10126000DE0634F021E030E03093F3032093F20304
:1012700031E9A31631E0B30634F041E050E0509379
:10128000F3034093F20351E9851651E0950624F0EB
:101290003092F3032092F20381E9481681E0580668
:1012A0002CF03092F3032092F2031BCC0039114052
:1012B0000CF017CC91E9691691E0790634F0E1E081
:1012C000F0E0F093F303E093F203F1E9CF16F1E0DD
:1012D000DF0634F021E030E03093F3032093F20393
:1012E0002B813C812139314024F03092F30320924C
:1012F000F20351E9851651E0950624F03092F3038C
:101300002092F20381EE92E00E94EE0D8091F203B2
:101310009091F3030E94F00D0E94F4098091F20372
:101320009091F3038130910579F44DEC5CEC6CE421
:101330007EEB82ED97E00E94AC144DEC5CEC6CE42B
:101340007EEB80ED97E0CBCB029709F0CACB4DEC5A
:101350005CEC6CE47EE380ED97E00E94AC144DEC15
:101360005CEC6CE47EE3B9CB013931E013070CF09F
:10137000AFCA69CBE2E4F5E0A089B18982E08C9341
:10138000A485B5851C92A685B7858FEC8C93108EAD
:10139000A489B58986E08C93A289B3898C918061F8
:1013A0008C93A289B3898C9188608C93A289B3892C
:1013B0008C9180688C930288F389E02D80818F7DE9
:1013C00080830895009769F0FC0101900020E9F7FF
:1013D0003197AF01481B590BBC0182E495E00C9496
:1013E000291780E090E0089588EC93E00C94E209DE
:1013F000CF93DF930E94E209EC010E94F4098C0F65
:101400009D1FDF91CF910895EF92FF921F93CF938D
:10141000DF931F92CDB7DEB7162F97EBE92E97E03B
:10142000F92ED7011C969C911C9721E02093FB0379
:101430009093FA031092F9031092F8031A960D9004
:10144000BC91A02DED91FC9111970190F081E02DC0
:10145000682FCD0179831995F70182859385DC0189
:10146000ED91FC910190F081E02D7981672F199524
:10147000F70182859385DC01ED91FC910190F0816B
:10148000E02D612F199561E0F701828593850F901A
:10149000DF91CF911F91FF90EF900C945A0F4F92D4
:1014A0005F926F927F928F929F92AF92BF92CF92F4
:1014B000DF92EF92FF92CF93DF9300D01F92CDB7D0
:1014C000DEB76B017C0184ED97E00E949F1690953A
:1014D0008095709561957F4F8F4F9F4F0E94691F38
:1014E0002B013C016093F6077093F7078093F80790
:1014F0009093F90786ED97E00E949F160E94691F5E
:1015000069837A838B839C836093F2077093F307DC
:101510008093F4079093F5079B01AC01C301B201DE
:101520000E94DB204B015C016093EE077093EF0794
:101530008093F0079093F10720E030E040EA50E418
:101540000E94621F87FD26C020E030E040E251E4A7
:10155000C501B4010E94621F87FD25C020E030E074
:1015600040E751E4C501B4010E94621F87FD23C01A
:1015700020E030E040EA51E4C501B4010E94621F5E
:1015800087FD22C04AE9842E49E9942EA92C4EE316
:10159000B42E22C03DEC832E3CEC932E3CE4A32ED3
:1015A0003DE3B32E19C02DEC822E2CEC922EA92CEB
:1015B0002DE3B22E11C09AE9892E99E9992E99E16D
:1015C000A92E9EE3B92E08C08DEC882E8CEC982EA7
:1015D0008CE4A82E8EE3B82E29813A814B815C8160
:1015E000C301B2010E94F0211816ECF4A501940188
:1015F00060E070E080E89FE30E94DB209B01AC018B
:10160000C701B6010E94C81FAB01BC0180ED97E085
:101610000E94AC1420E030E040E85FE3C501B40173
:101620000E94DC2026C029813A814B815C81C30164
:10163000B2010E94621F87FF25C020E030E040E831
:101640005FE3C501B4010E94DC209B01AC01C7012E
:10165000B6010E94C81FAB01BC0180ED97E00E945B
:10166000AC14A501940160E070E080E89FE30E9463
:10167000DB209B01AC01C701B6010E94C81FAB0172
:10168000BC0108C0B701A60180ED97E00E94AC1430
:10169000B701A601705882ED97E00F900F900F9060
:1016A0000F90DF91CF91FF90EF90DF90CF90BF90A0
:1016B000AF909F908F907F906F905F904F900C9421
:1016C000AC148F929F92AF92BF92CF92DF92EF9223
:1016D000FF9284ED97E00E94741686ED97E00E94D9
:1016E00074164DEC5CEC6CEC7EEB82ED97E00E94A6
:1016F000AC144DEC5CEC6CEC7EEB80ED97E00E9462
:10170000AC1484ED97E00E949F169095809570959B
:1017100061957F4F8F4F9F4F0E94691F2FE031EDE2
:1017200040E85FE30E94C81F0E94BA216B017C0160
:1017300086ED97E00E949F16072E000C880B990BF0
:101740000E94691F4B015C0120E030E44BEF54E440
:101750000E94F02118163CF440E050E0BA0180ED00
:1017600097E00E94AC14B6010D2C000C880B990B6D
:101770000E94691F20E030E44BEF54E40E94F02106
:10178000181644F440E050E060E070E882ED97E025
:101790000E94AC146AE070E080E090E00E94601764
:1017A00020E030E44BEF54E4C501B4010E94621F15
:1017B00087FD97CF662777276C197D09072E000CC8
:1017C000880B990B0E94691F20E030E44BEF54E432
:1017D0000E94621F87FD85CF40E050E0BA0180ED96
:1017E00097E00E94AC1440E050E060E070E882EDC9
:1017F00097E00E94AC1484ED97E00E94741686ED89
:1018000097E00E94741664E670E080E090E0FF903C
:10181000EF90DF90CF90BF90AF909F908F900C94FF
:101820006017E0914205F09143050190F081E02DB1
:10183000682F82E495E019948091FA0790E0209156
:10184000FB07821B9109089585ED8093BC00809170
:10185000BC0084FDFCCF10929908089540914C087B
:10186000262F30E0240F311D21323105DCF4209188
:1018700099082430C9F4FC0180E090E0861758F400
:1018800030914C082191DC01A65DB74FA30FB11D2B
:101890002C930196F3CF80914C08680F60934C080D
:1018A00080E0089581E0089582E008950895E09130
:1018B000FB078091FA07E81730F4F0E0E656F74F9F
:1018C000808190E008958FEF9FEF08959091FB073E
:1018D0008091FA07981750F4E92FF0E0E656F74F99
:1018E000208130E09F5F9093FB0702C02FEF3FEF16
:1018F000C9010895CF92DF92EF92FF920F931F9349
:10190000CF93DF937C01262F972F8A018091FB03D1
:10191000882391F0C62FD72F6E01C40ED51ECC158B
:10192000DD0571F06991D701ED91FC910190F08195
:10193000E02DC7011995F3CF642F822F0E942E0C42
:10194000C801DF91CF911F910F91FF90EF90DF9031
:10195000CF900895CF93DF931F92CDB7DEB7698301
:101960002091FB032223D1F02091F803203240F094
:1019700021E030E0FC013383228380E090E015C059
:101980008091F903E82FF0E0E65FF74F99819083AB
:101990008F5F8093F9038093F80305C061E0CE0167
:1019A00001960E942E0C81E090E00F90DF91CF9184
:1019B00008958F929F92AF92BF920F931F93CF93F0
:1019C000DF93CDB7DEB7A1970FB6F894DEBF0FBE99
:1019D000CDBF19A2423008F44AE08E010F5D1F4FBF
:1019E000842E912CA12CB12CA50194010E94A5203C
:1019F000E62FB901CA0101501109EA3014F4E05D83
:101A000001C0E95CD801EC93232B242B252B61F733
:101A1000C8010E94E209A1960FB6F894DEBF0FBE7E
:101A2000CDBFDF91CF911F910F91BF90AF909F904D
:101A30008F9008954F925F926F927F928F929F92B4
:101A4000AF92BF92CF92DF92EF92FF926B017C0137
:101A5000B42E9B01AC010E944522882319F08BEC27
:101A600093E027C026013701E89477F82FEF3FEF86
:101A70004FE75FE7C301B2010E94452281110DC00B
:101A80002FEF3FEF4FE75FE7C301B2010E94621FF4
:101A900018161CF48FEC93E00CC02FEF3FEF4FE7CC
:101AA0005FE4C701B6010E94F021181684F483EDAB
:101AB00093E0FF90EF90DF90CF90BF90AF909F901A
:101AC0008F907F906F905F904F900C94E2092FEF72
:101AD0003FEF4FE75FECC701B6010E94621F87FD31
:101AE000E6CF20E030E0A901C701B6010E94621FE5
:101AF00087FF09C08DE20E94110C4C01F7FAF094A7
:101B0000F7F8F09402C0812C912CA12C60E070E0D9
:101B100080E09FE3AB1441F020E030E040E251E48C
:101B20000E944821A394F6CF9B01AC01C701B601E6
:101B30000E94DC202B013C010E94C1216B017C0131
:101B40000E94671F9B01AC01C301B2010E94DB2010
:101B50002B013C014AE0C701B6010E94D90C7C016F
:101B6000E80CF91CBB2029F08EE20E94110CE80E53
:101B7000F91EDB2CDD2021F120E030E040E251E4D1
:101B8000C301B2010E94C81F2B013C010E94C12168
:101B90004B01A12CB12C4AE0C501B4010E94D90C23
:101BA000E80EF91EC501B4010E94671F9B01AC013C
:101BB000C301B2010E94DB202B013C01DA94DACF91
:101BC000C701FF90EF90DF90CF90BF90AF909F90B4
:101BD0008F907F906F905F904F9008950C94E209E2
:101BE000CF92DF92EF92FF92CF93DF936C01990F28
:101BF000EE08FF08F7FE17C08DE20E94110CEC0101
:101C000066277727CB016C197D098E099F094AE069
:101C10000E94D90C8C0F9D1FDF91CF91FF90EF9008
:101C2000DF90CF9008954AE0C701B601DF91CF91D0
:101C3000FF90EF90DF90CF900C94D90C1F920F92F1
:101C40000FB60F9211240F900FBE0F901F90189592
:101C50001F920F920FB60F9211240BB60F922F9373
:101C60003F934F935F936F937F938F939F93AF9324
:101C7000BF93EF93FF938091B900887F803609F47A
:101C80009CC068F5883209F45BC090F4803109F497
:101C900054C038F4882309F4F6C0883009F44DC0E4
:101CA000F6C0883109F44CC0803209F45DC0EFC041
:101CB000803409F468C048F4803309F455C088338F
:101CC00009F0E5C080939708D8C0803509F44FC06B
:101CD000883509F45DC0883409F0D9C0D6C0883988
:101CE00009F4C7C0A8F4883709F467C038F4883607
:101CF00009F463C0803709F460C0C9C0883809F4AA
:101D0000B8C0803909F45FC0803809F0C0C05BC03A
:101D1000803B09F486C038F4803A09F466C0883AFA
:101D200009F47FC0B4C0803C09F4A7C0883C09F422
:101D3000A4C0883B09F48AC0AAC08091940810C04E
:101D40009091960880919508981770F5E091960803
:101D500081E08E0F80939608F0E0ED58F74F808178
:101D60008093BB0085EC86C0809397088EC0E0917D
:101D7000960881E08E0F809396088091BB00F0E07A
:101D8000ED58F74F808390919608809195086EC02A
:101D9000E091960881E08E0F809396088091BB00B9
:101DA000F0E0ED58F74F80838091980881116DC065
:101DB00081E08093930884EA61C083E0809399086E
:101DC00010927008CFCF80917008803208F051C017
:101DD000E091700881E08E0F809370088091BB00C5
:101DE000F0E0E05BF74F8083BDCF85EC8093BC00D3
:101DF0001092990880917008803230F4E091700858
:101E0000F0E0E05BF74F10826091700870E0E091C5
:101E10004E08F0914F0880E598E0199510927008EF
:101E200036C084E08093990810924D0810924C08B7
:101E3000E0914A08F0914B08199580914C08811166
:101E400005C081E080934C0810922A08E0914D086B
:101E500081E08E0F80934D08F0E0E65DF74F8081C2
:101E60008093BB0090914D0880914C08981708F41E
:101E700079CF85E88093BC000AC085EC8093BC00D4
:101E80001092990804C0109297080E94240CFF91A8
:101E9000EF91BF91AF919F918F917F916F915F91E2
:101EA0004F913F912F910F900BBE0F900FBE0F904F
:101EB0001F9018952091F8039091FA03213208F0B1
:101EC00049C0809199088111FCCF32E03093990884
:101ED000609398083FEF30939708109296082093EC
:101EE0009508AAE0B8E043E758E0FA013E2F341B1A
:101EF000321718F43D913193F9CF10929408209144
:101F00009408990F922B9093940890919308913094
:101F100061F410929308909194089093BB00909173
:101F2000BC0093FDF8CF95EC01C095EE9093BC00FA
:101F3000909199089230E1F3909197089F3F79F042
:101F400080919708803241F080919708803331F07A
:101F500084E005C081E003C082E001C083E010920C
:101F6000F9031092F8031092FB030895CF93C82F42
:101F700081E08093FB0382E58093FA031092F903DA
:101F80001092F8038CEF93E00E94AA0C6C2F8CEF58
:101F900093E00E94AA0C61E08CEF93E00E945A0F3C
:101FA0006AE070E080E090E0CF910C946017EF92CF
:101FB000FF921F93CF93DF93CDB7DEB72C970FB669
:101FC000F894DEBF0FBECDBF809199088111FCCF80
:101FD00081E080939908809398089FEF90939708E9
:101FE0001092960895E090939508809394088091BC
:101FF0009408846A8093940880919308813061F4F6
:1020000010929308809194088093BB008091BC004B
:1020100083FDF8CF85EC01C085EE8093BC008091F4
:1020200099088130E1F380919608863018F4109178
:10203000960801C016E0A3E7B8E02AE938E0F90104
:102040008E2F821B811718F48D918193F9CF1092F6
:10205000FB071093FA07CE0101967C018091FB07E4
:10206000181749F08CEF93E00E94660CF7018193FA
:1020700091937F01F3CF89819A819093FD0780939B
:10208000FC078B819C819093FF078093FE078B85D3
:102090009C859C013595279535952795A901437019
:1020A00055272D813E81220F331F220F331F242BF2
:1020B000352B30930108209300089C0174E035957E
:1020C00027957A95E1F7A901437055272F81388527
:1020D000220F331F220F331F242B352B309303087D
:1020E000209302089C01F6E035952795FA95E1F7D3
:1020F000A9014370552729853A85220F331F220FE6
:10210000331F242B352B30930508209304089C01A2
:1021100021703327F1E02F2730930708209306081A
:1021200021E030E081FF02C020E030E03093090878
:102130002093080860E080E02C960FB6F894DEBF8C
:102140000FBECDBFDF91CF911F91FF90EF900C9408
:10215000B60F90E0FC013197E231F10508F04EC076
:102160008827EE58FF4F8F4F0C94D320809180002A
:102170008F7703C0809180008F7D809380000895C9
:1021800080918000877FF9CF84B58F7702C084B5B6
:102190008F7D84BD08958091B0008F7703C08091BA
:1021A000B0008F7D8093B0000895809190008F776C
:1021B00007C0809190008F7D03C080919000877F41
:1021C0008093900008958091A0008F7707C0809140
:1021D000A0008F7D03C08091A000877F8093A00026
:1021E0000895809120018F7707C0809120018F7D15
:1021F00003C080912001877F8093200108951F9361
:10220000CF93DF93282F30E0F901E25CFC4F8491FB
:10221000F901E850FD4FD491F901EE54FD4FC491FE
:10222000CC23C9F0162F81110E94A910EC2FF0E0E9
:10223000EE0FFF1FE856FD4FA591B4918FB7F894AC
:10224000111105C09C91ED2FE095E92302C0EC919E
:10225000ED2BEC938FBFDF91CF911F9108951092DA
:10226000990881E0809398081092930861E084E1D6
:102270000E94FF1061E085E10E94FF10E9EBF0E0B1
:1022800080818E7F808380818D7F808388E48093AE
:10229000B80085E48093BC000895CF93DF9390E06D
:1022A000FC01E850FD4F2491FC01EE54FD4F849158
:1022B000882361F190E0880F991FFC01E258FD4FDF
:1022C000C591D491FC01E856FD4FA591B4916111DF
:1022D00009C09FB7F8948881209582238883EC9168
:1022E0002E230BC0623061F49FB7F8943881822F9F
:1022F000809583238883EC912E2B2C939FBF06C05F
:102300008FB7F894E8812E2B28838FBFDF91CF9170
:102310000895863308F0865390917B00282F28700B
:10232000977F922B90937B008770806480937C00D2
:1023300080917A00806480937A0080917A0086FD93
:10234000FCCF809178002091790090E0922B089545
:10235000FC01538D448D252F30E0842F90E0821BAB
:10236000930B541710F0CF96089501970895FC0130
:10237000918D828D981761F0828DDF01A80FB11DBC
:102380005D968C91928D9F5F9F73928F90E00895E0
:102390008FEF9FEF0895FC01918D828D981731F09A
:1023A000828DE80FF11D858D90E008958FEF9FEFEE
:1023B0000895FC01918D228D892F90E0805C9F4FC4
:1023C000821B91098F739927089585EA94E00E94F2
:1023D000D91121E0892B09F420E0822F089582E4AD
:1023E00095E00E94D91121E0892B09F420E0822F89
:1023F000089580E090E0892B21F00E94EF11811177
:1024000019C080E090E0892B41F080E090E0892BBA
:1024100021F00E940000811110C00E94E51181117D
:102420000FC080E090E0892B81F00E945617811147
:102430000AC008950E940000E4CF0E940000EDCF82
:102440000E94D718EECF0C9400000895089580E004
:1024500090E00895FC01248131E03093FB03209348
:10246000FA031092F9031092F8038485682B8CEF1D
:1024700093E00E94AA0C61E08CEF93E00C945A0F59
:102480000F931F93CF938C01C62F64600E942A1272
:102490006C2F6B7FC8010E942A1283EC90E0019799
:1024A000F1F7CF911F910F9108950F931F93CF9341
:1024B000DF938C01C62FD62FD07FD1606D2F0E9465
:1024C0002A126D2FC8010E94401280E1C89FB001FE
:1024D0001124C62FC1606C2FC8010E942A126C2FD4
:1024E000C8010E94401281E090E0DF91CF911F91DE
:1024F0000F910895FC01A089B1898C91A689B789B3
:1025000082FD0FC09C91818D8F5F8F73228D82170A
:1025100049F0218DDF01A20FB11D5D969C93818F43
:1025200008958C9108951F920F920FB60F92112467
:102530000BB60F922F933F934F935F936F937F93BD
:102540008F939F93AF93BF93EF93FF9385EA94E0AC
:102550000E947A12FF91EF91BF91AF919F918F915D
:102560007F916F915F914F913F912F910F900BBE93
:102570000F900FBE0F901F9018951F920F920FB6DD
:102580000F9211240BB60F922F933F934F935F93AB
:102590006F937F938F939F93AF93BF93EF93FF932B
:1025A00082E495E00E947A12FF91EF91BF91AF9182
:1025B0009F918F917F916F915F914F913F912F915B
:1025C0000F900BBE0F900FBE0F901F901895FC013F
:1025D000848DDF01A80FB11DA35ABF4F2C91848DAC
:1025E00090E001968F739927848FA689B7892C93E1
:1025F000A089B1898C9180648C93938D848D98137C
:1026000006C00288F389E02D80818F7D8083089544
:102610001F920F920FB60F9211240BB60F922F93A9
:102620003F934F935F936F937F938F939F93AF935A
:10263000BF93EF93FF9385EA94E00E94E712FF9126
:10264000EF91BF91AF919F918F917F916F915F912A
:102650004F913F912F910F900BBE0F900FBE0F9097
:102660001F9018951F920F920FB60F9211240BB660
:102670000F922F933F934F935F936F937F938F931B
:102680009F93AF93BF93EF93FF9382E495E00E94F3
:10269000E712FF91EF91BF91AF919F918F917F9141
:1026A0006F915F914F913F912F910F900BBE0F90C3
:1026B0000FBE0F901F901895EF92FF920F931F93EC
:1026C000CF93DF93EC0181E0888F9B8D8C8D9813E5
:1026D00005C0E889F989808185FD24C0F62E0B8D1F
:1026E00010E00F5F1F4F0F731127E02E8C8DE81243
:1026F0000CC00FB607FCFACFE889F989808185FF05
:10270000F5CFCE010E94E712F1CF8B8DFE01E80FCD
:10271000F11DE35AFF4FF0820B8FEA89FB8980811C
:10272000806207C0EE89FF896083E889F98980812A
:102730008064808381E090E0DF91CF911F910F91C1
:10274000FF90EF900895CF93DF93EC01888D88235D
:10275000C9F0EA89FB89808185FD05C0A889B9890E
:102760008C9186FD0FC00FB607FCF5CF808185FFE9
:10277000F2CFA889B9898C9185FFEDCFCE010E9457
:10278000E712E7CFDF91CF9108951F920F920FB616
:102790000F9211240BB60F922F933F934F935F9399
:1027A0006F937F938F939F93AF93BF93CF93DF9359
:1027B000EF93FF932091E00530E0F901E25CFC4FDC
:1027C0008491F901E850FD4FD491F901EE54FD4F89
:1027D000C491CC23A1F081110E94A910EC2FF0E04C
:1027E000EE0FFF1FEC57FC4FA591B491EC91ED2338
:1027F00031E020E009F430E0832F922F02C080E026
:1028000090E02091E4053091E5052F5F3F4F309334
:10281000E5052093E4052091E305253618F026E030
:102820002093DF052091DF052430D9F128F42230F0
:1028300069F02330D9F060C0253009F453C0263048
:1028400009F05AC021E02093B00653C0009709F068
:1028500053C02091E4053091E5052436310508F494
:1028600043C01092B0061092E3051DC0813091055F
:1028700009F042C0E091E30521E02E0F2093E3052B
:10288000F0E02091E4053091E505EE0FFF1FE152E5
:10289000FA4F308727831092E5051092E40524E073
:1028A00029C00097B9F4E091E30521E02E0F2093B1
:1028B000E305F0E02091E4053091E505EE0FFF1F00
:1028C000E152FA4F308727831092E5051092E40514
:1028D00023E010C02091E4053091E505253631054F
:1028E00058F007C0009741F41092E5051092E405F6
:1028F00003C025E02093DF052091E2052223B9F0F3
:10290000892B51F48091E105882321F08091E10524
:1029100061E009C02F9A0BC08091E105882331F056
:102920008091E10560E00E94FF1001C02F98FF91A7
:10293000EF91DF91CF91BF91AF919F918F917F9157
:102940006F915F914F913F912F910F900BBE0F9020
:102950000FBE0F901F9018958F929F92AF92BF92CB
:10296000CF92DF92EF92FF920F931F93CF93DF935B
:10297000EC016A017B0120E030E04FE753E4C7013E
:10298000B6010E94C81F4B015C0120E030E0A901A4
:102990000E94F02118161CF4C501B40103C0C50142
:1029A000B40190580E94BA218B0120E030E0A901C7
:1029B000C701B6010E94F021181614F460E001C0AE
:1029C00061E089810E94FF100F3F110509F014F4A6
:1029D000112702C00FEF10E0C88161E08C2F0E9428
:1029E0004D110115110509F4B1C00F3F110509F48E
:1029F000AFC0EC2FF0E0E25CFC4FE4914E2F50E0D2
:102A0000FA013197E231F10508F09DC08827EC57B3
:102A1000FF4F8F4F0C94D32084B5806884BD07BDD1
:102A2000A7C084B5806284BD08BDA2C0809180002B
:102A3000806880938000109389000093880098C07C
:102A40008091800080628093800010938B000093BF
:102A50008A008EC0809180008860809380001093EF
:102A60008D0000938C0084C08091B00080688093BA
:102A7000B0000093B3007CC08091B000806280936E
:102A8000B0000093B40074C080919000806880937F
:102A9000900010939900009398006AC08091900074
:102AA00080628093900010939B0000939A0060C016
:102AB0008091900088608093900010939D00009317
:102AC0009C0056C08091A00080688093A0008091F7
:102AD000A0008F7B8093A0001093A9000093A80012
:102AE00047C08091A00080628093A0001093AB004B
:102AF0000093AA003DC08091A00088608093A00050
:102B00001093AD000093AC0033C080912001806829
:102B100080932001109329010093280129C08091FE
:102B2000200180628093200110932B0100932A01E1
:102B30001FC08091200188608093200110932D0197
:102B400000932C0115C00038110514F460E001C099
:102B500061E08C2FDF91CF911F910F91FF90EF904B
:102B6000DF90CF90BF90AF909F908F900C94FF100C
:102B7000DF91CF911F910F91FF90EF90DF90CF9059
:102B8000BF90AF909F908F9008951F920F920FB6B5
:102B90000F9211240BB60F922F933F934F935F9395
:102BA0006F937F938F939F93AF93BF93EF93FF9315
:102BB0008091BA0887FF05C01092850010928400AA
:102BC00016C02091BA08022E000C330B8091ED063E
:102BD00090E0281739075CF43091BA0825E03203F9
:102BE000F0011124EF54F94F808186FD15C08091CA
:102BF000BA088F5F8093BA082091BA08022E000CA1
:102C0000330B8091ED0690E02817390794F48091FA
:102C1000BA088C302CF10DC03091BA083203F001A3
:102C20001124EF54F94F808160E08F730E94FF10F0
:102C3000DECF809184009091850084349C4918F403
:102C400080E49CE905C08091840090918500049601
:102C500090938900809388008FEF8093BA082AC0F0
:102C600040918400509185003091BA0825E03203EC
:102C7000F0011124EF54F94F81819281840F951F47
:102C800090938900809388003091BA083203F00154
:102C90001124EF54F94F808186FF0CC03091BA089F
:102CA0003203F0011124EF54F94F808161E08F73FA
:102CB0000E94FF10FF91EF91BF91AF919F918F9173
:102CC0007F916F915F914F913F912F910F900BBE2C
:102CD0000F900FBE0F901F9018958EBD00000DB481
:102CE00007FEFDCF8EB50895CF93DF93EC0160E032
:102CF00088810E94FF1088E90E946D1680E00E9482
:102D00006D1680E00E946D1680E00E946D1680E0D6
:102D10000E946D1661E088810E94FF108BE891E0AF
:102D20000197F1F760E088810E94FF1080EE0E9419
:102D30006D1661E08881DF91CF910C94FF10AF9206
:102D4000BF92CF92DF92EF92FF920F931F93CF9398
:102D5000DF93CDB7DEB760970FB6F894DEBF0FBE36
:102D6000CDBF5C0160E0FC0180810E94FF1080E625
:102D70000E946D168E010F5F1F4F7E01F1E1EF0E75
:102D8000F11C680180E00E946D1690E0A0E0B0E0C8
:102D9000F60181939193A193B1936F01EE15FF0515
:102DA00089F761E0F50180810E94FF1080E090E0EA
:102DB000DC01F80141915191619171918F01BA2F1C
:102DC000A92F982F8827840F951FA61FB71FEE15D0
:102DD000FF0579F79C01AD0166277727CB01621BC0
:102DE000730B840B950B60960FB6F894DEBF0FBE85
:102DF000CDBFDF91CF911F910F91FF90EF90DF90AA
:102E0000CF90BF90AF9008953FB7F8948091CA08D3
:102E10009091CB08A091CC08B091CD0826B5A89B85
:102E200005C02F3F19F00196A11DB11D3FBFBA2F5C
:102E3000A92F982F8827820F911DA11DB11DBC01BC
:102E4000CD0142E0660F771F881F991F4A95D1F781
:102E50000895CF92DF92EF92FF920F931F93CF933B
:102E6000DF936C017A018B01C0E0D0E0CE15DF0565
:102E700089F0D8016D918D01D601ED91FC91019001
:102E8000F081E02DC6011995892B11F47E0102C055
:102E90002196ECCFC701DF91CF911F910F91FF9049
:102EA000EF90DF90CF9008950E94952588E094E000
:102EB0000E94D91121E0892B09F420E0822F089586
:102EC0008F929F92AF92BF92CF92DF92EF92FF923A
:102ED0006B017C010E9404174B015C01C114D104F9
:102EE000E104F104F1F00E940417DC01CB01881920
:102EF0009909AA09BB09883E9340A105B10570F361
:102F000021E0C21AD108E108F10888EE880E83E0BA
:102F1000981EA11CB11CC114D104E104F10419F7DD
:102F2000DDCFFF90EF90DF90CF90BF90AF909F905C
:102F30008F9008951F920F920FB60F9211242F9326
:102F40003F938F939F93AF93BF938091C6089091C7
:102F5000C708A091C808B091C9083091C50823E0FE
:102F6000230F2D3720F40196A11DB11D05C026E8C1
:102F7000230F0296A11DB11D2093C5088093C6089A
:102F80009093C708A093C808B093C9088091CA0855
:102F90009091CB08A091CC08B091CD080196A11DCD
:102FA000B11D8093CA089093CB08A093CC08B0932E
:102FB000CD08BF91AF919F918F913F912F910F902D
:102FC0000FBE0F901F9018951F920F920FB60F9281
:102FD00011240BB60F922F933F934F935F936F93F0
:102FE0007F938F939F93AF93BF93EF93FF938091C2
:102FF000BE089091BF08A091C008B091C108892B6C
:103000008A2B8B2B59F18091BD08E091BB08F09180
:10301000BC089081892780838091BE089091BF0869
:10302000A091C008B091C108181619061A061B060F
:103030000CF056C08091BE089091BF08A091C008C6
:10304000B091C1080197A109B1098093BE0890937E
:10305000BF08A093C008B093C10842C0809102028B
:10306000EEE9F3E0E4919FEF90930202E230C9F0C1
:1030700050F4EE2399F0E13081F590916F009D7F3F
:1030800090936F002AC0E43019F1E0F0E53029F5A3
:10309000909173009D7F909373001FC010926E00FB
:1030A0001CC0909170009D7F9093700091E0909370
:1030B000B0009091B100987F94609093B10010920D
:1030C000B3000BC0909171009D7F9093710005C07B
:1030D000909172009D7F9093720060E00E94FF10BB
:1030E000FF91EF91BF91AF919F918F917F916F91E0
:1030F0005F914F913F912F910F900BBE0F900FBE9C
:103100000F901F9018951F920F920FB60F921124D7
:103110000BB60F922F933F934F935F936F937F93D1
:103120008F939F93AF93BF93EF93FF9388E094E0C7
:103130000E94E712FF91EF91BF91AF919F918F9104
:103140007F916F915F914F913F912F910F900BBEA7
:103150000F900FBE0F901F9018951F920F920FB6F1
:103160000F9211240BB60F922F933F934F935F93BF
:103170006F937F938F939F93AF93BF93EF93FF933F
:1031800088E094E00E947A12FF91EF91BF91AF9195
:103190009F918F917F916F915F914F913F912F916F
:1031A0000F900BBE0F900FBE0F901F901895E0E090
:1031B000F0E01994CF92DF92EF92FF9269017A01C9
:1031C000AB01BC0180ED97E00E94AC14B701A601F1
:1031D000705882ED97E0FF90EF90DF90CF900C94C5
:1031E000AC148F929F92AF92BF92CF92DF92EF92E8
:1031F000FF920F931F93CF93DF938C01C0E0D0E039
:103200006B01770FEE08FF084A01550FAA08BB08AB
:10321000C017D10794F461E088E00E94FF10C70155
:10322000B6010E94601760E088E00E94FF10C501AF
:10323000B4010E9460172196EBCFDF91CF911F91CF
:103240000F91FF90EF90DF90CF90BF90AF909F9045
:103250008F900895CF93C0E08C2F0E9489118139FF
:10326000914024F081E090E00E940502CF5FC830D9
:1032700099F7CF910895CF92DF92EF92FF921F932B
:10328000CF93DF93182FC0E0D0E0C12CD12C760172
:10329000CA30D10539F1812F0E948911BC01990FE3
:1032A000880B990B0E94691F26EA3BE944EC5BEB13
:1032B0000E94C81F9B01AC016DEF76EF8DE290E498
:1032C0000E94F5212DE73FE34BEA52E40E94C81F1C
:1032D0009B01AC01C701B6010E94DC206B017C019F
:1032E0002196D6CF20E030E040E251E4C701B6019C
:1032F0000E9448216B017C0142E00E941A0D0E944D
:10330000F409C701B601DF91CF911F91FF90EF90B3
:10331000DF90CF90089540E050E0BA0180ED97E053
:103320000E94AC1440E050E060E070E882ED97E06D
:103330000E94AC1484ED97E00E94741686ED97E02D
:103340000C9474160F931F93CF93DF930E94D70FA3
:10335000C0E0D0E000E010E00E94D70F80910608A6
:1033600090910708892B09F03FC00E94D70F64E6AF
:1033700070E080E090E00E94601740E050E0BA0109
:1033800080ED97E00E94AC1440E050E060E070E80F
:1033900082ED97E00E94AC140E94D70F809108083C
:1033A00090910908019709F421960E94D70F809106
:1033B000080890910908892BA1F0CA30D10564F260
:1033C00044E650E068EC70E085E090E00E94F1187F
:1033D0000E948B19F801199581E090E00E94050286
:1033E000BBCFC0E0D0E0B8CFDF91CF911F910F915C
:1033F00008954F925F926F927F928F929F92AF92B9
:10340000BF92CF92DF92EF92FF926C0184ED97E032
:103410000E94741686ED97E00E94741646010D2CEA
:10342000000CAA08BB0826E9C21A25E0D20A0D2C16
:10343000000CEE08FF0884E6482E512C612C712CFC
:1034400084ED97E00E949F169B01AC018827992785
:10345000DC01821B930BA40BB50B88159905AA05FB
:10346000BB050CF054C084ED97E00E949F169B01B1
:10347000AC0188279927DC01821B930BA40BB50BA9
:1034800086399540A105B10564F484ED97E00E946A
:103490009F1690958095709561957F4F8F4F9F4FA8
:1034A0001AC084ED97E00E949F169B01AC0188270B
:1034B0009927DC01821B930BA40BB50BC816D90608
:1034C000EA06FB06ECF484ED97E00E949F16680D77
:1034D000791D8A1D9B1DA30192010E948620CA01AD
:1034E000B9010E94691F29E23CE54FE05DE30E94BB
:1034F000C81F2DEC3CEC4CEC5DE30E94DC2004C0CA
:103500006DEC7CEC8CEC9EE30E944F0A99CF40E07E
:1035100050E0BA0180ED97E00E94AC1440E050E02A
:1035200060E070E882ED97E00E94AC1484ED97E0D3
:103530000E94741686ED97E00E94741664E670E0AF
:1035400080E090E0FF90EF90DF90CF90BF90AF9041
:103550009F908F907F906F905F904F900C9460172A
:103560001092FF031092FE0388EE93E0A0E0B0E01B
:103570008093000490930104A0930204B093030489
:103580002DE032E03093FD032093FC0310920B04F6
:1035900010920A0480930C0490930D04A0930E04DF
:1035A000B0930F042FE132E0309309042093080414
:1035B00045E351E0509315044093140444E351E073
:1035C000509317044093160440E351E050931904BC
:1035D0004093180441E351E050931B0440931A04B4
:1035E00042E351E050931D0440931C0446E351E034
:1035F00050931F0440931E04109221041092220441
:1036000010922304109224041092A8041092A7048C
:103610008093A9049093AA04A093AB04B093AC0444
:103620003093A6042093A50445ED50E05093B204D6
:103630004093B10444ED50E05093B4044093B3047C
:1036400040ED50E05093B6044093B50441ED50E096
:103650005093B8044093B70442ED50E05093BA043D
:103660004093B90446ED50E05093BC044093BB0432
:103670001092BE041092BF041092C0041092C104B4
:103680001092450510924405809346059093470596
:10369000A0934805B0934905309343052093420514
:1036A00085EC90E090934F0580934E0584EC90E07C
:1036B000909351058093500580EC90E090935305D2
:1036C0008093520581EC90E09093550580935405CA
:1036D00082EC90E0909357058093560586EC90E03D
:1036E000909359058093580510925B0510925C05E4
:1036F00010925D0510925E0586E38093D80787E3FC
:103700008093D90788E38093DA0789E38093DB0706
:103710008BE18093DC078DE18093DD078AE1809364
:10372000DE078CE18093DF0784E08093E00787E089
:103730008093E1071092E20784EB8093E30786E130
:103740008093E40788E18093E50787E18093E607AB
:1037500089E18093E707E091ED06EC3020F08FEFF0
:103760008093E80710C081E08E0F8093ED06E09310
:10377000E80725E0E29FF0011124EF54F94F88EBB0
:103780009BE092838183E091ED06EC3020F08FEF97
:103790008093E90710C081E08E0F8093ED06E093DF
:1037A000E90785E0E89FF0011124EF54F94F88EB19
:1037B0009BE0928381838CE08093B70784E28093BF
:1037C000B80786E08093B90785E08093BA078FE158
:1037D0008093BB078EE18093BC0783E28093BD0793
:1037E00082E28093BE0785E48093BF0784E48093E0
:1037F000C00780E48093C3071092C8071092C907DE
:103800001092CA071092CB071092CC071092CD07E6
:103810001092CE071092CF07E9EFF6E08FEF9FEFFF
:10382000DC0112821382148215821682178210869E
:10383000118683879487A587B6878787908BA18B0E
:10384000B28B128611821082739627E0E73BF20753
:1038500041F78DE090E00E947F23FC0113821282E9
:1038600081E392E091838083118687E2848384E1FF
:10387000828784E083871486F093F606E093F5064A
:103880001092F7061092F80685E28093E0051092F8
:10389000E2051092EF061092EE061092F1061092D9
:1038A000F0061092F3061092F20661E070E080E0FC
:1038B00090E00E94AC24009789F09093EF068093EB
:1038C000EE061092F1061092F0062091F206309169
:1038D000F306232BC1F4FC01108215C08091EE0683
:1038E0009091EF06009711F00E9414241092EF06B9
:1038F0001092EE061092F3061092F2061092F10664
:103900001092F00608951092F3061092F2066AECF7
:1039100073E00C94A3258091EE069091EF060C9431
:103920001424789484B5826084BD84B5816084BD9C
:1039300085B5826085BD85B5816085BD80916E004D
:10394000816080936E00109281008091810082607E
:1039500080938100809181008160809381008091BB
:1039600080008160809380008091B10084608093AA
:10397000B1008091B00081608093B000809191008F
:10398000826080939100809191008160809391008A
:10399000809190008160809390008091A10082606E
:1039A0008093A1008091A10081608093A10080910B
:1039B000A00081608093A0008091210182608093AB
:1039C000210180912101816080932101809120015A
:1039D00081608093200180917A00846080937A00D6
:1039E00080917A00826080937A0080917A00816071
:1039F00080937A0080917A00806880937A00109298
:103A0000C1000E94BA0961E08091B8070E944D117F
:103A100060E08091B8070E94FF1060E08091B707D6
:103A20000E944D118CEF93E09093C2078093C107E1
:103A30001092FB071092FA071092F9031092F80304
:103A40000E942F1180E090E1A0E0B0E08093C407D5
:103A50009093C507A093C607B093C7078AE090E08C
:103A6000A0E0B0E08093C8079093C907A093CA076D
:103A7000B093CB0780E090E0A0E0B0E48093CC0767
:103A80009093CD07A093CE07B093CF0760E070E18D
:103A900085E00E94040A6FE979E380E00E94040A4D
:103AA000C4EDD7E0C12CD12CE12CF12C67EE662EB1
:103AB00062E0762E7DE2872E73E0972EEBECAE2E41
:103AC000E7E0BE2EC7018954984F2C01FC01948178
:103AD000828186010954184FF801818F928F61E02D
:103AE0000E944D1161E0F801828D0E944D11F2019A
:103AF000908586818883F801968F61E00E944D1140
:103B000060E0F801868D0E944D1161E088810E947D
:103B1000FF101FB7F8948091C208811125C0F301EE
:103B20008491F4019491E82FF0E0EE0FFF1FE2582A
:103B3000FD4FA591B4918C91982321F461E085E328
:103B40000E94FF1061E085E30E944D118CB58061F9
:103B50008CBD8CB580648CBD61E084E30E944D1106
:103B600061E083E30E944D118091C2088F5F8093D2
:103B7000C2081FBFC5010197F1F760E088810E946C
:103B8000FF1088E80E946D1683E00E946D1661E0C8
:103B900088810E94FF10C5010197F1F7CE010E94B4
:103BA0007416F2E0CF0ED11C2296EA94EF2821F091
:103BB000EE24E394F12C86CFCCEDD7E01C2F1C5FD4
:103BC00060E089910E944D111C13FACF0BEE17E0B3
:103BD000C8EED7E095E0C92E2CE0E22E32E0B32EFD
:103BE000DC2ED394D394FE013897F08088818C30FA
:103BF00008F044C061E08F2D0E944D118881C89E5D
:103C0000F0011124EF54F94F9F2D9F732081207CE8
:103C1000F22EF92AF082138214826E2D0E94C720A0
:103C20009CE0899FA001112420E030E0B901640FDD
:103C3000751FC69EF001C79EF00D1124EF54F94F79
:103C4000908196FD12C02F5F3F4F2C30310571F7E8
:103C500081110BC010928000B092810010928500FB
:103C600010928400B6BAB0926F00E881CE9EF00147
:103C70001124EF54F94F808180648083FE013297D4
:103C8000908132978081F80131978083F801908389
:103C900060E00E944D1161E0F80180810E944D11A9
:103CA00060E0F80180810E94FF1021960E5F1F4F97
:103CB000DC1299CFF8941092200189E080932101C1
:103CC00080E293E0909329018093280110922501CE
:103CD0001092240182E08093730078948093DF0532
:103CE0001092E3058091E00560E00E944D11109272
:103CF000FB071092FA071092F9031092F8030E9442
:103D00002F1160EF85E50E94B60F6BEF80E00E94F7
:103D1000B60F0E94D70F0E94BA0961E08EE20E949E
:103D20004D1161E08EE20E94FF1000E010E082E0A1
:103D3000E82EF12C0E94D70F809108089091090875
:103D4000019721F58091060890910708C0E0D0E026
:103D50000197F1F48091040890910508873B934006
:103D6000BCF0219664E670E080E090E00E9460176D
:103D7000CA30D10579F740E050E060E177E281E0B8
:103D800090E00E94F118F8011995E4CFC0E0D0E06E
:103D90008091080890910908019709F053C080911B
:103DA000060890910708892B09F04CC00E94D70F94
:103DB0008091080890910908019769F46AE070E021
:103DC00080E090E00E9460170E94D70F87ED93E09B
:103DD0000E94F809EDCF0E94D70F81EE93E00E9478
:103DE000F8098091C3089091C408009759F481E0C4
:103DF00090E09093C4088093C30840E050E064EFE3
:103E000071E00DC08130910569F4F092C408E09230
:103E1000C30846E950E064EF71E082E090E00E9460
:103E2000F11802C0029719F38BEE93E00E94EE0D99
:103E30008091C3089091C4080E94F00D8AEC93E031
:103E40000E94F8090E94D70F8091C3089091C4087E
:103E5000892B89F562E370E080E090E00E946017B2
:103E60000E94F91167CF8091060890910708019789
:103E700089F70E94D70F219664E670E080E090E019
:103E80000E946017CA30D105B1F448EC50E068EEEA
:103E900073E081E090E00E94F11844E650E069EEA2
:103EA00070E083E090E00E94F1188091C308909147
:103EB000C4080E9405028091080890910908892B86
:103EC00091F2C8CF0E94A41F08F481E00895E894FD
:103ED00009C097FB3EF490958095709561957F4F52
:103EE0008F4F9F4F9923A9F0F92F96E9BB27939500
:103EF000F695879577956795B795F111F8CFFAF410
:103F0000BB0F11F460FF1BC06F5F7F4F8F4F9F4F40
:103F100016C0882311F096E911C0772321F09EE89E
:103F2000872F762F05C0662371F096E8862F70E004
:103F300060E02AF09A95660F771F881FDAF7880FDE
:103F40009695879597F90895990F0008550FAA0B34
:103F5000E0E8FEEF16161706E807F907C0F012169C
:103F60001306E407F50798F0621B730B840B950B9F
:103F700039F40A2661F0232B242B252B21F40895F4
:103F80000A2609F4A140A6958FEF811D811D089591
:103F90000E94DB1F0C944C200E943E2038F00E94AF
:103FA000452020F0952311F00C9435200C943B20F3
:103FB00011240C9480200E945D2070F3959FC1F322
:103FC000950F50E0551F629FF001729FBB27F00DC7
:103FD000B11D639FAA27F00DB11DAA1F649F66271C
:103FE000B00DA11D661F829F2227B00DA11D621F6B
:103FF000739FB00DA11D621F839FA00D611D221F25
:10400000749F3327A00D611D231F849F600D211D08
:10401000822F762F6A2F11249F5750409AF0F1F08B
:1040200088234AF0EE0FFF1FBB1F661F771F881FF4
:1040300091505040A9F79E3F510580F00C943520D7
:104040000C9480205F3FE4F3983ED4F386957795F7
:104050006795B795F795E7959F5FC1F7FE2B880F9A
:10406000911D9695879597F9089597F99F6780E830
:1040700070E060E008959FEF80EC089500240A94BA
:104080001616170618060906089500240A94121633
:104090001306140605060895092E0394000C11F466
:1040A000882352F0BB0F40F4BF2B11F460FF04C013
:1040B0006F5F7F4F8F4F9F4F089557FD9058440F6C
:1040C000551F59F05F3F71F04795880F97FB991F77
:1040D00061F09F3F79F08795089512161306140634
:1040E000551FF2CF4695F1DF08C0161617061806C1
:1040F000991FF1CF86957105610508940895E8949C
:10410000BB2766277727CB0197F90895052E97FBE4
:104110001EF400940E949D2057FD07D00E94A52008
:1041200007FC03D04EF40C949D205095409530959B
:1041300021953F4F4F4F5F4F089590958095709513
:1041400061957F4F8F4F9F4F0895A1E21A2EAA1BB2
:10415000BB1BFD010DC0AA1FBB1FEE1FFF1FA21737
:10416000B307E407F50720F0A21BB30BE40BF50B34
:10417000661F771F881F991F1A9469F760957095BD
:10418000809590959B01AC01BD01CF010895991BCD
:1041900079E004C0991F961708F0961B881F7A953E
:1041A000C9F780950895EE0FFF1F881F8BBF0790FA
:1041B000F691E02D19945058BB27AA270E94F320AE
:1041C0000C944C200E943E2038F00E94452020F0A4
:1041D00039F49F3F19F426F40C943B200EF4E0953B
:1041E000E7FB0C943520E92F0E945D2058F3BA17A5
:1041F000620773078407950720F079F4A6F50C94FD
:104200007F200EF4E0950B2EBA2FA02D0B01B901E3
:1042100090010C01CA01A0011124FF27591B99F03C
:10422000593F50F4503E68F11A16F040A22F232F48
:10423000342F4427585FF3CF469537952795A79598
:10424000F0405395C9F77EF41F16BA0B620B730B3F
:10425000840BBAF09150A1F0FF0FBB1F661F771FB0
:10426000881FC2F70EC0BA0F621F731F841F48F465
:10427000879577956795B795F7959E3F08F0B0CFEE
:104280009395880F08F09927EE0F979587950895D5
:104290000E945C210C944C200E94452058F00E9402
:1042A0003E2040F029F45F3F29F00C943520511155
:1042B0000C9480200C943B200E945D2068F399238D
:1042C000B1F3552391F3951B550BBB27AA27621712
:1042D0007307840738F09F5F5F4F220F331F441F1F
:1042E000AA1FA9F335D00E2E3AF0E0E832D0915053
:1042F0005040E695001CCAF72BD0FE2F29D0660F40
:10430000771F881FBB1F261737074807AB07B0E882
:1043100009F0BB0B802DBF01FF2793585F4F3AF088
:104320009E3F510578F00C9435200C9480205F3F1F
:10433000E4F3983ED4F3869577956795B795F7950E
:104340009F5FC9F7880F911D9695879597F90895F6
:10435000E1E0660F771F881FBB1F62177307840792
:10436000BA0720F0621B730B840BBA0BEE1F88F7A1
:10437000E09508950E94C1216894B1110C948020A9
:1043800008950E94652088F09F5798F0B92F9927CB
:10439000B751B0F0E1F0660F771F881F991F1AF030
:1043A000BA95C9F714C0B13091F00E947F20B1E0F6
:1043B00008950C947F20672F782F8827B85F39F0F5
:1043C000B93FCCF3869577956795B395D9F73EF4C9
:1043D00090958095709561957F4F8F4F9F4F089571
:1043E0000E94A41F08F48FEF0895FA01EE0FFF1F3B
:1043F000309621053105A1F16115710561F4803810
:10440000BFE39B0749F168949038810561F08038DB
:10441000BFEF9B0741F099234AF5FF3FE1053105C6
:10442000210519F1E8940894E795D901AA2329F404
:10443000AB2FBE2FF85FD0F310C0FF5F70F4A695CE
:10444000E0F7F73950F019F0FF3A38F49F779F936F
:104450000DD00F9007FC9058089546F00C943B2027
:1044600060E070E080E89FE308954FE79F775F93F7
:104470004F933F932F930E94F5222F913F914F919D
:104480005F910E94C81F0C9452220E94A41F880BA7
:10449000990B089529F416F00C9435200C947F2084
:1044A0000C943B200E946520A8F39638A0F707F8EB
:1044B0000F92E8942BE33AEA48EB5FE70E94DE1F95
:1044C0000F920F920F924DB75EB70F920E943D234D
:1044D000ECE2F1E00E9484224F915F91EF91FF9115
:1044E000E595EE1FFF1F49F0FE57E0684427EE0FE9
:1044F000441FFA95E1F74195550B0E94B7220F90A2
:1045000007FE0C94AB220895DF93CF931F930F9374
:10451000FF92EF92DF927B018C01689406C0DA2E45
:10452000EF010E94DB1FFE01E894A59125913591D2
:1045300045915591A6F3EF010E94F320FE019701EA
:10454000A801DA9469F7DF90EF90FF900F911F9127
:10455000CF91DF9108959B01AC0160E070E080E8AD
:104560009FE30C9448210C9435200C9471230E94F5
:104570006520D8F39923C9F3940F511DA3F39150EB
:10458000504094F059F0882332F0660F771F881F4F
:1045900091505040C1F79E3F51052CF7880F911D57
:1045A0009695879597F908955F3FACF0983E9CF0FB
:1045B000BB27869577956795B79508F4B160939575
:1045C000C1F7BB0F58F711F460FFE8CF6F5F7F4F63
:1045D0008F4F9F4FE3CF0C94802016F00C947123E3
:1045E0000C943B2068940C9435200E946520A8F31D
:1045F0009923C1F3AEF3DF93CF931F930F93FF92F1
:10460000C92FDD2788232AF02197660F771F881F7F
:10461000DAF720E030E040E85FEB9FE3883920F0F4
:10462000803E38F021968F770E94DC20E4E5F1E0AF
:1046300004C00E94DC20E1E8F1E00E9484228B01AA
:10464000BE01EC01FB2E6F5771097595771F880B22
:10465000990B0E94691F28E132E741E35FE30E9462
:10466000DB1FAF2D9801AE01FF900F911F91CF91ED
:10467000DF910E94F3200C944C20FA01DC01AA0F78
:10468000BB1F9B01AC01BF5728F4222733274427C7
:10469000507820C0B75190F4AB2F00244695379541
:1046A0002795011CA395D2F3002071F0220F331F30
:1046B000441FB395DAF30ED00C94DB206130710502
:1046C000A0E88A07B94630F49B01AC01662777273A
:1046D00088279078309621F020833183428353835A
:1046E00008959F3F31F0915020F487957795679515
:1046F000B795880F911D9695879597F90895CF9353
:10470000DF938230910510F482E090E0E091D008D0
:10471000F091D10820E030E0C0E0D0E0309711F116
:104720004081518148175907C0F04817590761F473
:1047300082819381209719F09B838A832BC0909369
:10474000D1088093D00826C02115310519F04217F1
:10475000530718F49A01BE01DF01EF010280F381D3
:10476000E02DDCCF2115310509F1281B390B243050
:10477000310590F412968D919C91139761157105F6
:1047800021F0FB019383828304C09093D10880932E
:10479000D008FD01329644C0FD01E20FF31F819362
:1047A0009193225031092D933C933AC02091CE0829
:1047B0003091CF08232B41F420910502309106025D
:1047C0003093CF082093CE08209103023091040249
:1047D0002115310541F42DB73EB7409107025091A4
:1047E0000802241B350BE091CE08F091CF08E217A8
:1047F000F307A0F42E1B3F0B2817390778F0AC0104
:104800004E5F5F4F2417350748F04E0F5F1F5093E0
:10481000CF084093CE088193919302C0E0E0F0E08E
:10482000CF01DF91CF9108950F931F93CF93DF9323
:10483000009709F48CC0FC01329713821282009118
:10484000D0081091D1080115110581F42081318122
:10485000820F931F2091CE083091CF082817390777
:1048600079F5F093CF08E093CE0871C0D80140E00D
:1048700050E0AE17BF0750F412962D913C9113975C
:10488000AD012115310509F1D901F3CF9D01DA01FF
:104890003383228360817181860F971F821793076C
:1048A00069F4EC0128813981260F371F2E5F3F4FB5
:1048B000318320838A819B8193838283452B29F4D2
:1048C000F093D108E093D00842C01396FC93EE9386
:1048D0001297ED01499159919E01240F351FE2175E
:1048E000F30771F480819181840F951F02961196D0
:1048F0009C938E938281938113969C938E931297AF
:10490000E0E0F0E0D80112968D919C91139700970A
:1049100019F0F8018C01F6CF8D919C9198012E5FD2
:104920003F4F820F931F2091CE083091CF08281758
:10493000390769F4309729F41092D1081092D00801
:1049400002C0138212821093CF080093CE08DF9129
:10495000CF911F910F9108956F927F928F929F92A6
:10496000AF92BF92CF92DF92EF92FF920F931F937D
:10497000CF93DF93EC01009789F4CB01DF91CF91C6
:104980001F910F91FF90EF90DF90CF90BF90AF906D
:104990009F908F907F906F900C947F23FC01E60F87
:1049A000F71F9C0122503109E217F30708F4ACC04D
:1049B000D9010D911C91119706171707B0F005301A
:1049C000110508F49FC0C80104978617970708F4DB
:1049D00099C002501109061B170B019311936D9397
:1049E0007C93CF010E9414248DC05B01A01AB10AF0
:1049F0004C01800E911EA091D008B091D10840E0EA
:104A000050E0E12CF12C109709F44AC0A815B90523
:104A1000D1F56D907C901197630182E0C80ED11C96
:104A2000CA14DB0480F1A3014A195B096A0182E020
:104A3000C80ED11C1296BC9012971396AC91B5E09B
:104A4000CB16D10440F0B282A38351834083D901B5
:104A50006D937C930AC00E5F1F4FC301800F911F9F
:104A6000F90191838083EB2DFA2FE114F10431F0E9
:104A7000D7011396FC93EE93129744C0F093D1089C
:104A8000E093D0083FC08D919C911197481759072A
:104A900008F4AC017D0112960D90BC91A02DB3CF0E
:104AA0008091CE089091CF0888159905E1F44617BA
:104AB0005707C8F48091030290910402009741F4D3
:104AC0008DB79EB74091070250910802841B950B49
:104AD000E817F907C8F4F093CF08E093CE08F9017E
:104AE000718360830FC0CB010E947F237C010097FC
:104AF00059F0A801BE010E949A25CE010E941424FB
:104B0000C70104C0CE0102C080E090E0DF91CF91E8
:104B10001F910F91FF90EF90DF90CF90BF90AF90DB
:104B20009F908F907F906F90089581E090E0F8942F
:104B30000C94AA25FB01DC0102C001900D924150AA
:104B40005040D8F70895FB01DC0101900D92002040
:104B5000E1F7089511E0C1EDD1E000E006C0802F3B
:104B6000FE010E94D3202196011DC23DD10780E0A5
:084B70000807A9F7F894FFCF34
:104B78000100FF0000D208200000000000AA0C7A03
:104B88000C2712560C1C0C660C570C000000005C1D
:104B9800132917A811A313D911B711CB11000000BD
:104BA8000055122917271226126D6F6465203120CF
:104BB80073656C656374696F6E6E6500626F7563AB
:104BC8006C65203100736F7274696520626F75635C
:104BD8006C652032004A65207375697320736F72A3
:104BE800746965206465206C612063616C69737306
:104BF80020646520666F6E6374696F6E20706973D8
:104C080020736F72746965203D2033002061333A48
:104C180020002061343A20002061353A20002061CC
:104C2800363A20004A6520636865726368652075B6
:104C38006E65206C69676E652028736F727469658C
:104C4800203329006C69676E652074726F7576650C
:104C58000020536F727469653A20006D6F64652097
:104C6800322073656C656374696F6E6E6500094FF9
:104C780062737461636C652064726F697420646523
:104C880076616E742121000973746177703A20008F
:104C9800092000646972656374696F6E3A20005375
:104CA80054415750004A276176616E63652043522C
:104CB8002A535300426565656565702042656565E0
:104CC8006565702042656565656570005472696246
:104CD8006F726420746F757465202364726F6974D1
:104CE80065004261626F726420746F757465202379
:104CF8004761756368650074656D70203D20002A02
:104D08002A2A2A2A2A2A2A2A2A2A2A2A2A2A2A2AFB
:104D18002A2A2A2A006431203A2000096E6F757603
:104D2800656C6C652064697374616E636500626F9D
:104D380075636C65206431000D0A006E616E006950
:104D48006E66006F7666004320656E666F6E6365FB
:104D580000432072656C6163686500094D6F646586
:024D6800200029
:00000001FF
