:100000000C9491010C94C2010C94C2010C94C20195
:100010000C94C2010C94C2010C94C2010C94C20154
:100020000C94C2010C94340B0C94340B0C94340BD0
:100030000C94C2010C9473030C94C2010C94C20181
:100040000C94C2010C940E070C94C2010C94C201D2
:100050000C94C2010C94C2010C94C2010C942A0E9F
:100060000C94C2010C94E4040C94BA040C94C201E4
:100070000C94C2010C94C2010C94C2010C94C201F4
:100080000C94C2010C94C2010C94C2010C94C201E4
:100090000C94C2010C94C2010C94C2010C943E0B4E
:1000A0000C94C2010C94C2010C94C2010C94C201C4
:1000B0000C94C2010C94C2010C94C2010C940E0564
:1000C0000C94C2010C94C2010C94C2010C949004D3
:1000D0000C9466040C94C2010C943C040C9412041D
:1000E0000C94C20155065A065F0669067306EC06B3
:1000F0007D0685068D069706A106AB06BA06C406E0
:10010000EC06CE06D806E206E70CEA0CD90CDD0CAC
:10011000E30C210DEE0CF20CF80CFC0C000D060D9E
:100120000A0D0E0D210D140D180D1C0D0C94C4019B
:100130000C94E70C0C947D060C94CE060C94970658
:100140000C940E0D0C9439020C94060D0C9493151E
:100150000C94D90C0C94180D0C94FC0C0C94C40643
:100160000C9469060C94AA0A0C94A90A0C94210D0B
:100170000C948D060C94B90A0C94AB060C94BA0638
:100180000C94F80C0C94CB020C94D8060C948402BA
:100190000C9485060C941C0D0C94000D0C945F06B9
:1001A0000C94A1060C94CD0A0C9499150C94EE0CA9
:1001B0000C94F20C0C9417020C94EC060C945A0656
:1001C0000C94EA0C0C94E2060C941E030C941D0390
:1001D0000C942B020C94140D0C9455060C940A0DDF
:1001E0000C9473060C94E30C0C94050B0C94D50A38
:1001F0000C9408020C944E030C94DD0C00002000BB
:100200002300260029002C002F00320000010000EE
:100210000301060109010200002100240027002A31
:10022000002D003000330001010000040107010A25
:100230000100002200250028002B002E0031003490
:100240000002010000050108010B01050505050775
:100250000508080808020202020A0A080804040441
:10026000040101010101010101030303030303036D
:1002700003040707070C0C0C0C0C0C0C0C020202FC
:100280000206060606060606060B0B0B0B0B0B0BEF
:100290000B0102102020080810204010204080028E
:1002A00001020108040201010204081020408080BC
:1002B0004020100804020180040201804020100840
:1002C0000402010804020101020408102040800118
:1002D0000204081020408000000A0B02090C0D0ED9
:1002E00008070304010000000000000000000000F7
:1002F00000000000000000000000000000000000FE
:1003000000000012111000000000000000000000BA
:10031000000000000000000000000000000099152F
:10032000931511241FBECFEFD1E2DEBFCDBF00E099
:100330000CBF13E0A0E0B2E0E6E6F7E300E00BBF9D
:1003400002C007900D92A831B107D9F728E0A8E1C3
:10035000B3E001C01D92AD30B207E1F711E0C0E992
:10036000D1E000E006C021970109802FFE010E9424
:10037000C618CF38D10780E00807A9F70E94740E8D
:100380000C94A11B0C940000CF92DF92EF92FF928D
:100390000F931F93CF93DF936C017A018B01C0E021
:1003A000D0E0CE15DF0589F0D8016D918D01D60121
:1003B000ED91FC910190F081E02DC6011995892BFA
:1003C00011F47E0102C02196ECCFC701DF91CF91DD
:1003D0001F910F91FF90EF90DF90CF900895FC0157
:1003E000A089B1898C91A689B78982FD0FC09C91A3
:1003F000818D8F5F8F73228D821749F0218DDF01F0
:10040000A20FB11D5D969C93818F08958C910895E4
:10041000FC01538D448D252F30E0842F90E0821B0A
:10042000930B541710F0CF96089501970895FC018F
:10043000918D828D981761F0828DDF01A80FB11D1B
:100440005D968C91928D9F5F9F73928F90E008953F
:100450008FEF9FEF0895FC01918D828D981731F0F9
:10046000828DE80FF11D858D90E008958FEF9FEF4D
:100470000895FC01918D228D892F90E0805C9F4F23
:10048000821B91098F739927089581EB93E00E9455
:10049000390221E0892B09F420E0822F08958EE4AF
:1004A00094E00E94390221E0892B09F420E0822F98
:1004B00008958BEE94E00E94390221E0892B09F423
:1004C00020E0822F0895FC01848DDF01A80FB11D6B
:1004D000A35ABF4F2C91848D90E001968F7399277A
:1004E000848FA689B7892C93A089B1898C91806467
:1004F0008C93938D848D981306C00288F389E02D28
:1005000080818F7D80830895EF92FF920F931F93D8
:10051000CF93DF93EC0181E0888F9B8D8C8D9813B6
:1005200005C0E889F989808185FD24C0F62E0B8DF0
:1005300010E00F5F1F4F0F731127E02E8C8DE81214
:100540000CC00FB607FCFACFE889F989808185FFD6
:10055000F5CFCE010E946302F1CF8B8DFE01E80F33
:10056000F11DE35AFF4FF0820B8FEA89FB898081EE
:10057000806207C0EE89FF896083E889F9898081FC
:100580008064808381E090E0DF91CF911F910F9193
:10059000FF90EF900895CF93DF93EC01888D88232F
:1005A000C9F0EA89FB89808185FD05C0A889B989E0
:1005B0008C9186FD0FC00FB607FCF5CF808185FFBB
:1005C000F2CFA889B9898C9185FFEDCFCE010E9429
:1005D0006302E7CFDF91CF910895E0E0F0E0199456
:1005E00080E090E0892B21F00E945902811119C00E
:1005F00080E090E0892B41F080E090E0892B21F0B1
:100600000E940000811110C00E944F0281110FC092
:1006100080E090E0892B81F00E94450281110AC0A0
:1006200008950E940000E4CF0E940000EDCF0E94D8
:10063000ED02EECF0C9400000895089580E090E064
:1006400008950E948C1BFC01248131E03093A403A7
:100650002093A3031092A2031092A1038485682B18
:1006600085EA93E00E94050B61E085EA93E00C9433
:10067000700C0F931F93CF938C01C62F64600E9460
:1006800023036C2F6B7FC8010E94230383EC90E04F
:100690000197F1F7CF911F910F9108950F931F9339
:1006A000CF93DF938C01C62FD62FD07FD1606D2FD3
:1006B0000E9423036D2FC8010E94390380E1C89F67
:1006C000B0011124C62FC1606C2FC8010E94230302
:1006D0006C2FC8010E94390381E090E0DF91CF9137
:1006E0001F910F9108951F920F920FB60F92112430
:1006F0000BB60F922F933F934F935F936F937F931C
:100700008F939F93AF93BF93EF93FF938091460393
:1007100090914703A0914803B0914903892B8A2BFC
:100720008B2B59F180914503E0914303F0914403F1
:100730009081892780838091460390914703A091FF
:100740004803B0914903181619061A061B060CF047
:1007500056C08091460390914703A0914803B09101
:1007600049030197A109B109809346039093470378
:10077000A0934803B093490342C080910202E6E18E
:10078000F2E0E4919FEF90930202E230C9F050F45E
:10079000EE2399F0E13081F590916F009D7F909369
:1007A0006F002AC0E43019F1E0F0E53029F59091AE
:1007B00073009D7F909373001FC010926E001CC049
:1007C000909170009D7F9093700091E09093B000A5
:1007D0009091B100987F94609093B1001092B30013
:1007E0000BC0909171009D7F9093710005C0909116
:1007F00072009D7F9093720060E00E94220DFF9135
:10080000EF91BF91AF919F918F917F916F915F9188
:100810004F913F912F910F900BBE0F900FBE0F90F5
:100820001F9018951F920F920FB60F9211240BB6BE
:100830000F922F933F934F935F936F937F938F9379
:100840009F93AF93BF93EF93FF9381EB93E00E944D
:100850006302FF91EF91BF91AF919F918F917F9133
:100860006F915F914F913F912F910F900BBE0F9021
:100870000FBE0F901F9018951F920F920FB60F92F8
:1008800011240BB60F922F933F934F935F936F9367
:100890007F938F939F93AF93BF93EF93FF9381EBDE
:1008A00093E00E94EF01FF91EF91BF91AF919F9173
:1008B0008F917F916F915F914F913F912F910F9009
:1008C0000BBE0F900FBE0F901F9018951F920F92A6
:1008D0000FB60F9211240BB60F922F933F934F93A5
:1008E0005F936F937F938F939F93AF93BF93EF9398
:1008F000FF938EE494E00E946302FF91EF91BF9119
:10090000AF919F918F917F916F915F914F913F91A7
:100910002F910F900BBE0F900FBE0F901F90189548
:100920001F920F920FB60F9211240BB60F922F93B6
:100930003F934F935F936F937F938F939F93AF9367
:10094000BF93EF93FF938EE494E00E94EF01FF9139
:10095000EF91BF91AF919F918F917F916F915F9137
:100960004F913F912F910F900BBE0F900FBE0F90A4
:100970001F9018951F920F920FB60F9211240BB66D
:100980000F922F933F934F935F936F937F938F9328
:100990009F93AF93BF93EF93FF938BEE94E00E94EE
:1009A0006302FF91EF91BF91AF919F918F917F91E2
:1009B0006F915F914F913F912F910F900BBE0F90D0
:1009C0000FBE0F901F9018951F920F920FB60F92A7
:1009D00011240BB60F922F933F934F935F936F9316
:1009E0007F938F939F93AF93BF93EF93FF938BEE80
:1009F00094E00E94EF01FF91EF91BF91AF919F9121
:100A00008F917F916F915F914F913F912F910F90B7
:100A10000BBE0F900FBE0F901F9018951F920F9254
:100A20000FB60F9211240BB60F922F933F934F9353
:100A30005F936F937F938F939F93AF93BF93CF9366
:100A4000DF93EF93FF932091890530E0F901E9529C
:100A5000FD4F8491F901EF56FD4FD491F901E55B0B
:100A6000FD4FC491CC23A1F081110E94CC0CEC2F3E
:100A7000F0E0EE0FFF1FE450FE4FA591B491EC9112
:100A8000ED2331E020E009F430E0832F922F02C003
:100A900080E090E020918D0530918E052F5F3F4FD3
:100AA00030938E0520938D0520918C05253618F006
:100AB00026E020938805209188052430D9F128F478
:100AC000223069F02330D9F060C0253009F453C0DA
:100AD000263009F05AC021E02093590653C00097F0
:100AE00009F053C020918D0530918E0524363105D3
:100AF00008F443C01092590610928C051DC0813035
:100B0000910509F042C0E0918C0521E02E0F209361
:100B10008C05F0E020918D0530918E05EE0FFF1FC2
:100B2000E857FA4F3087278310928E0510928D0573
:100B300024E029C00097B9F4E0918C0521E02E0F44
:100B400020938C05F0E020918D0530918E05EE0FFD
:100B5000FF1FE857FA4F3087278310928E051092B7
:100B60008D0523E010C020918D0530918E0525362E
:100B7000310558F007C0009741F410928E0510928D
:100B80008D0503C025E02093880520918B05222345
:100B9000B9F0892B51F480918A05882321F0809146
:100BA0008A0561E009C02F9A0BC080918A058823CD
:100BB00031F080918A0560E00E94220D01C02F98DB
:100BC000FF91EF91DF91CF91BF91AF919F918F9165
:100BD0007F916F915F914F913F912F910F900BBE3D
:100BE0000F900FBE0F901F9018958F929F92AF920B
:100BF000BF92CF92DF92EF92FF920F931F93CF930A
:100C0000DF93EC016A017B0120E030E04FE753E421
:100C1000C701B6010E94DA174B015C0120E030E009
:100C2000A9010E94711918161CF4C501B40103C072
:100C3000C501B40190580E943B198B0120E030E0BF
:100C4000A901C701B6010E947119181614F460E0D9
:100C500001C061E089810E94220D0F3F110509F05A
:100C600014F4112702C00FEF10E0C88161E08C2F4F
:100C70000E94700D0115110509F4B1C00F3F110557
:100C800009F4AFC0EC2FF0E0E952FD4FE4914E2F94
:100C900050E0FA013197E231F10508F09DC0882754
:100CA000EE58FF4F8F4F0C94C61884B5806884BDF2
:100CB00007BDA7C084B5806284BD08BDA2C0809175
:100CC00080008068809380001093890000938800E2
:100CD00098C08091800080628093800010938B0088
:100CE00000938A008EC0809180008860809380008D
:100CF00010938D0000938C0084C08091B0008068B8
:100D00008093B0000093B3007CC08091B0008062FB
:100D10008093B0000093B40074C08091900080680C
:100D20008093900010939900009398006AC080917E
:100D3000900080628093900010939B0000939A0033
:100D400060C08091900088608093900010939D0017
:100D500000939C0056C08091A00080688093A00002
:100D60008091A0008F7B8093A0001093A900009336
:100D7000A80047C08091A00080628093A0001093DB
:100D8000AB000093AA003DC08091A00088608093D2
:100D9000A0001093AD000093AC0033C080912001FF
:100DA000806880932001109329010093280129C0B5
:100DB0008091200180628093200110932B01009389
:100DC0002A011FC080912001886080932001109328
:100DD0002D0100932C0115C00038110514F460E0BA
:100DE00001C061E08C2FDF91CF911F910F91FF9097
:100DF000EF90DF90CF90BF90AF909F908F900C942A
:100E0000220DDF91CF911F910F91FF90EF90DF9016
:100E1000CF90BF90AF909F908F9008951F920F92A8
:100E20000FB60F9211240BB60F922F933F934F934F
:100E30005F936F937F938F939F93AF93BF93EF9342
:100E4000FF938091420387FF05C0109285001092A6
:100E5000840016C020914203022E000C330B8091B7
:100E6000960690E0281739075CF43091420325E09C
:100E70003203F0011124E65AF94F808186FD15C036
:100E8000809142038F5F8093420320914203022EA0
:100E9000000C330B8091960690E02817390794F4E4
:100EA000809142038C302CF10DC03091420332030B
:100EB000F0011124E65AF94F808160E08F730E949F
:100EC000220DDECF809184009091850084349C496E
:100ED00018F480E49CE905C080918400909185001D
:100EE000049690938900809388008FEF809342034B
:100EF0002AC040918400509185003091420325E042
:100F00003203F0011124E65AF94F81819281840F56
:100F1000951F90938900809388003091420332039B
:100F2000F0011124E65AF94F808186FF0CC0309100
:100F300042033203F0011124E65AF94F808161E047
:100F40008F730E94220DFF91EF91BF91AF919F91FE
:100F50008F917F916F915F914F913F912F910F9062
:100F60000BBE0F900FBE0F901F9018958EBD000006
:100F70000DB407FEFDCF8EB50895AF92BF92CF920C
:100F8000DF92EF92FF920F931F93CF93DF93CDB732
:100F9000DEB760970FB6F894DEBF0FBECDBF5C0121
:100FA00060E0FC0180810E94220D80E60E94B6076D
:100FB0008E010F5F1F4F7E01F1E1EF0EF11C680102
:100FC00080E00E94B60790E0A0E0B0E0F6018193D7
:100FD0009193A193B1936F01EE15FF0589F761E03D
:100FE000F50180810E94220D80E090E0DC01F80193
:100FF00041915191619171918F01BA2FA92F982F31
:101000008827840F951FA61FB71FEE15FF0579F7D8
:101010009C01AD0166277727CB01621B730B840B04
:10102000950B60960FB6F894DEBF0FBECDBFDF9173
:10103000CF911F910F91FF90EF90DF90CF90BF90D5
:10104000AF900895CF92DF92EF92FF9269017A01FB
:10105000AB01BC0189E797E00E94F505B701A60145
:1010600070588BE797E0FF90EF90DF90CF900C9453
:10107000F5058F929F92AF92BF92CF92DF92EF923F
:10108000FF920F931F93CF93DF938C01C0E0D0E0CA
:101090006B01770FEE08FF084A01550FAA08BB083D
:1010A000C017D10794F461E088E00E94220DC701C7
:1010B000B6010E94CB0D60E088E00E94220DC501C0
:1010C000B4010E94CB0D2196EBCFDF91CF911F9100
:1010D0000F91FF90EF90DF90CF90BF90AF909F90D7
:1010E0008F900895009769F0FC0101900020E9F7C6
:1010F0003197AF01481B590BBC018BEE94E00C9467
:10110000C40180E090E00895EBEEF4E0A089B1899D
:1011100082E08C93A485B5851C92A685B7858FEC5B
:101120008C93108EA489B58986E08C93A289B389AB
:101130008C9180618C93A289B3898C9188608C9307
:10114000A289B3898C9180688C930288F389E02D01
:1011500080818F7D8083089584E193E00C947208F0
:10116000CF93DF930E947208EC010E94AC088C0FB1
:101170009D1FDF91CF910895EF92FF921F93CF9320
:10118000DF931F92CDB7DEB7162F90E6E92E97E0DA
:10119000F92ED7011C969C911C9721E02093A40363
:1011A0009093A3031092A2031092A1031A960D909C
:1011B000BC91A02DED91FC9111970190F081E02D53
:1011C000682FCD0179831995F70182859385DC011C
:1011D000ED91FC910190F081E02D7981672F1995B7
:1011E000F70182859385DC01ED91FC910190F081FE
:1011F000E02D612F199561E0F701828593850F90AD
:10120000DF91CF911F91FF90EF900C94700C8F9213
:101210009F92AF92BF92CF92DF92EF92FF920F9385
:101220001F93CF93DF93CDB7DEB7A1970FB6F89496
:10123000DEBF0FBECDBF6C01990FEE08FF08F7FEB1
:1012400031C0E091EB04F091EC040190F081E02DCD
:101250006DE28BEE94E019958C0122273327A901CA
:101260002C193D094E095F0919A2CE0181967C0116
:101270009AE0892E912CA12CB12CCA01B901A501AB
:1012800094010E949818605DF70162937F01211517
:1012900031054105510589F7CF010E947208800F81
:1012A000911F1DC0A701960119A28E010F5D1F4F4E
:1012B0008AE0C82ED12CE12CF12CCA01B901A7017A
:1012C00096010E949818605DF80162938F012115C4
:1012D00031054105510589F7CF010E947208A19699
:1012E0000FB6F894DEBF0FBECDBFDF91CF911F9137
:1012F0000F91FF90EF90DF90CF90BF90AF909F90B5
:101300008F9008950C947208CF93C82F81E080933A
:10131000A40382E58093A3031092A2031092A10379
:1013200085EA93E00E94050B6C2F85EA93E00E940A
:10133000050B61E085EA93E00E94700C6AE070E0C2
:1013400080E090E0CF910C94CB0DEF92FF921F9331
:10135000CF93DF93CDB7DEB72C970FB6F894DEBFEF
:101360000FBECDBF809170038111FCCF81E08093CF
:10137000700380936F039FEF90936E0310926D0341
:1013800095E090936C0380936B0380916B03846A68
:1013900080936B0380916A03813061F410926A0339
:1013A00080916B038093BB008091BC0083FDF8CFDC
:1013B00085EC01C085EE8093BC0080917003813084
:1013C000E1F380916D03863018F410916D0301C034
:1013D00016E0AAE4B3E023E733E0F9018E2F821B85
:1013E000811718F48D918193F9CF109272031093A5
:1013F0007103CE0101967C0180917203181749F0A8
:1014000085EA93E00E94B90AF701819391937F01E5
:10141000F3CF89819A8190939403809393038B8176
:101420009C8190939603809395038B859C859C016A
:101430003595279535952795A901437055272D8119
:101440003E81220F331F220F331F242B352B309365
:101450009803209397039C0174E0359527957A951E
:10146000E1F7A901437055272F813885220F331FDB
:10147000220F331F242B352B30939A03209399038B
:101480009C01F6E035952795FA95E1F7A90143709F
:10149000552729853A85220F331F220F331F242B0E
:1014A000352B30939C0320939B039C0121703327A1
:1014B000F1E02F2730939E0320939D0321E030E03D
:1014C00081FF02C020E030E03093A00320939F030F
:1014D00060E080E02C960FB6F894DEBF0FBECDBF63
:1014E000DF91CF911F91FF90EF900C94840985EDCF
:1014F0008093BC008091BC0084FDFCCF10927003EF
:1015000008954091D907262F30E0240F311D213254
:101510003105DCF4209170032430C9F4FC0180E033
:1015200090E0861758F43091D9072191DC01A95435
:10153000B84FA30FB11D2C930196F3CF8091D9071B
:10154000680F6093D90780E0089581E0089582E0F4
:1015500008950895E091720380917103E81730F4C3
:10156000F0E0ED58FC4F808190E008958FEF9FEF01
:1015700008959091720380917103981750F4E92FA8
:10158000F0E0ED58FC4F208130E09F5F90937203B4
:1015900002C02FEF3FEFC90108958091710390E0E1
:1015A00020917203821B91090895CF92DF92EF92EE
:1015B000FF920F931F93CF93DF937C01262F972FDA
:1015C0008A018091A403882391F0C62FD72F6E0142
:1015D000C40ED51ECC15DD0571F06991D701ED91D2
:1015E000FC910190F081E02DC7011995F3CF642F94
:1015F000822F0E94810AC801DF91CF911F910F9124
:10160000FF90EF90DF90CF900895CF93DF931F92DC
:10161000CDB7DEB769832091A4032223D1F02091B6
:10162000A103203240F021E030E0FC01338322832B
:1016300080E090E015C08091A203E82FF0E0E95629
:10164000F84F998190838F5F8093A2038093A103C9
:1016500005C061E0CE0101960E94810A81E090E020
:101660000F90DF91CF9108951F920F920FB60F92B6
:1016700011240F900FBE0F901F9018951F920F927C
:101680000FB60F9211240BB60F922F933F934F93E7
:101690005F936F937F938F939F93AF93BF93EF93DA
:1016A000FF938091B900887F803609F49CC068F56B
:1016B000883209F45BC090F4803109F454C038F4E6
:1016C000882309F4F6C0883009F44DC0F6C088318B
:1016D00009F44CC0803209F45DC0EFC0803409F4D5
:1016E00068C048F4803309F455C0883309F0E5C078
:1016F00080936E03D8C0803509F44FC0883509F453
:101700005DC0883409F0D9C0D6C0883909F4C7C093
:10171000A8F4883709F467C038F4883609F463C040
:10172000803709F460C0C9C0883809F4B8C080396E
:1017300009F45FC0803809F0C0C05BC0803B09F489
:1017400086C038F4803A09F466C0883A09F47FC04C
:10175000B4C0803C09F4A7C0883C09F4A4C0883B0D
:1017600009F48AC0AAC080916B0310C090916D03E8
:1017700080916C03981770F5E0916D0381E08E0FF6
:1017800080936D03F0E0E65BFC4F80818093BB00AB
:1017900085EC86C080936E038EC0E0916D0381E07E
:1017A0008E0F80936D038091BB00F0E0E65BFC4FF1
:1017B000808390916D0380916C036EC0E0916D0306
:1017C00081E08E0F80936D038091BB00F0E0E65BBB
:1017D000FC4F808380916F0381116DC081E0809305
:1017E0006A0384EA61C083E0809370031092FD076E
:1017F000CFCF8091FD07803208F051C0E091FD0706
:1018000081E08E0F8093FD078091BB00F0E0E352F2
:10181000F84F8083BDCF85EC8093BC00109270039D
:101820008091FD07803230F4E091FD07F0E0E35253
:10183000F84F10826091FD0770E0E091DB07F091B6
:10184000DC078DED97E019951092FD0736C084E016
:10185000809370031092DA071092D907E091D707AE
:10186000F091D80719958091D907811105C081E0C1
:101870008093D9071092B707E091DA0781E08E0FC5
:101880008093DA07F0E0E954F84F80818093BB0041
:101890009091DA078091D907981708F479CF85E8F5
:1018A0008093BC000AC085EC8093BC00109270034A
:1018B00004C010926E030E94770AFF91EF91BF91CE
:1018C000AF919F918F917F916F915F914F913F91D8
:1018D0002F910F900BBE0F900FBE0F901F90189579
:1018E0002091A1039091A303213208F049C0809177
:1018F00070038111FCCF32E03093700360936F036B
:101900003FEF30936E0310926D0320936C03A7E9B1
:10191000B7E04AE453E0FA013E2F341B321718F4C3
:101920003D913193F9CF10926B0320916B03990F86
:10193000922B90936B0390916A03913061F4109213
:101940006A0390916B039093BB009091BC0093FD50
:10195000F8CF95EC01C095EE9093BC009091700388
:101960009230E1F390916E039F3F79F080916E0386
:10197000803241F080916E03803331F084E005C005
:1019800081E003C082E001C083E01092A2031092C4
:10199000A1031092A403089590E0FC013197E23175
:1019A000F10508F04EC08827EC57FF4F8F4F0C947D
:1019B000C618809180008F7703C0809180008F7D52
:1019C00080938000089580918000877FF9CF84B54F
:1019D0008F7702C084B58F7D84BD08958091B0005B
:1019E0008F7703C08091B0008F7D8093B000089501
:1019F000809190008F7707C0809190008F7D03C009
:101A000080919000877F8093900008958091A0003E
:101A10008F7707C08091A0008F7D03C08091A000C8
:101A2000877F8093A0000895809120018F7707C061
:101A3000809120018F7D03C080912001877F80935A
:101A4000200108951F93CF93DF93282F30E0F901F1
:101A5000E952FD4F8491F901EF56FD4FD491F90100
:101A6000E55BFD4FC491CC23C9F0162F81110E9474
:101A7000CC0CEC2FF0E0EE0FFF1FEF5CFD4FA591BB
:101A8000B4918FB7F894111105C09C91ED2FE0959A
:101A9000E92302C0EC91ED2BEC938FBFDF91CF9146
:101AA0001F9108951092700381E080936F0310924C
:101AB0006A0361E084E10E94220D61E085E10E94F9
:101AC000220DE9EBF0E080818E7F808380818D7F25
:101AD000808388E48093B80085E48093BC000895F7
:101AE000CF93DF9390E0FC01EF56FD4F2491FC0172
:101AF000E55BFD4F8491882361F190E0880F991F89
:101B0000FC01E95EFD4FC591D491FC01EF5CFD4FF6
:101B1000A591B491611109C09FB7F894888120956F
:101B200082238883EC912E230BC0623061F49FB72F
:101B3000F8943881822F809583238883EC912E2B13
:101B40002C939FBF06C08FB7F894E8812E2B288373
:101B50008FBFDF91CF910895863308F0865390911F
:101B60007B00282F2870977F922B90937B008770A3
:101B7000806480937C0080917A00806480937A00F6
:101B800080917A0086FDFCCF8091780020917900C9
:101B900090E0922B08958F929F92AF92BF92CF9236
:101BA000DF92EF92FF926B017C010E94050E4B01C8
:101BB0005C01C114D104E104F104F1F00E94050EAE
:101BC000DC01CB0188199909AA09BB09883E934019
:101BD000A105B10570F321E0C21AD108E108F108AE
:101BE00088EE880E83E0981EA11CB11CC114D1049C
:101BF000E104F10419F7DDCFFF90EF90DF90CF9073
:101C0000BF90AF909F908F9008953FB7F8948091C8
:101C1000050890910608A0910708B091080826B51C
:101C2000A89B05C02F3F19F00196A11DB11D3FBF14
:101C3000BA2FA92F982F8827820F911DA11DB11DA2
:101C4000BC01CD0142E0660F771F881F991F4A959E
:101C5000D1F708951F920F920FB60F9211242F9370
:101C60003F938F939F93AF93BF938091010890917F
:101C70000208A0910308B09104083091000823E005
:101C8000230F2D3720F40196A11DB11D05C026E8B4
:101C9000230F0296A11DB11D209300088093010817
:101CA00090930208A0930308B0930408809105085C
:101CB00090910608A0910708B09108080196A11D0F
:101CC000B11D8093050890930608A0930708B09370
:101CD0000808BF91AF919F918F913F912F910F90E5
:101CE0000FBE0F901F901895CF93DF9300D000D0B8
:101CF000CDB7DEB7789484B5826084BD84B5816049
:101D000084BD85B5826085BD85B5816085BD8091C6
:101D10006E00816080936E0010928100809181003E
:101D20008260809381008091810081608093810036
:101D3000809180008160809380008091B1008460F8
:101D40008093B1008091B00081608093B000809159
:101D500091008260809391008091910081608093D6
:101D60009100809190008160809390008091A1000B
:101D700082608093A1008091A10081608093A10086
:101D80008091A00081608093A000809121018260F9
:101D900080932101809121018160809321018091B4
:101DA000200181608093200180917A00846080937B
:101DB0007A0080917A00826080937A0080917A0024
:101DC000816080937A0080917A00806880937A00A5
:101DD0001092C1000E94840861E0809161070E9416
:101DE000700D60E0809161070E94220D60E080919B
:101DF00060070E94700D85EA93E090936B078093D3
:101E00006A0710927203109271031092A20310924B
:101E1000A1030E94520D80E090E1A0E0B0E0809329
:101E20006D0790936E07A0936F07B09370078AE0D9
:101E300090E0A0E0B0E08093710790937207A093C8
:101E40007307B093740780E090E0A0E0B0E4809363
:101E5000750790937607A0937707B093780760E0B3
:101E600070E185E00E94BC086FE979E380E00E94A0
:101E7000BC088DE797E09A838983C12CD12CE12C93
:101E8000F12C40E8242E42E0342E56EC452E52E050
:101E9000552E6BECA62E67E0B62E7BE8872E992494
:101EA0009394D701A05AB84F3D0114969C91149772
:101EB00012968C918601005A184FF801818F928FEB
:101EC00061E00E94700D61E0D8015A968C910E94E9
:101ED000700DF30190858681A981BA818C93F801F8
:101EE000968F61E00E94700D60E0D8015E968C9143
:101EF0000E94700D61E0E981FA8180810E94220DCB
:101F00001FB7F89480911803811125C0F1018491C5
:101F1000F2019491E82FF0E0EE0FFF1FE95EFD4F14
:101F2000A591B4918C91982321F461E085E30E94FE
:101F3000220D61E085E30E94700D8CB580618CBD3F
:101F40008CB580648CBD61E084E30E94700D61E01B
:101F500083E30E94700D809118038F5F80931803B4
:101F60001FBFC5010197F1F760E0A981BA818C918B
:101F70000E94220D88E80E94B60783E00E94B607FF
:101F800061E0E981FA8180810E94220DC5010197FB
:101F9000F1F760E0A981BA818C910E94220D88E955
:101FA0000E94B60780E00E94B60780E00E94B60754
:101FB00080E00E94B60780E00E94B60761E0E981F8
:101FC000FA8180810E94220DC4010197F1F760E03F
:101FD000A981BA818C910E94220D80EE0E94B607E1
:101FE00061E0E981FA8180810E94220DF2E0CF0E4A
:101FF000D11C89819A8102969A838983EA94EF2879
:1020000021F0EE24E394F12C4CCF95E8E92E97E0F3
:10201000F92E14E01E0D60E0D7018D917D010E9424
:10202000700D1E11F8CF04E917E0E1E98E2EE7E00C
:102030009E2EF5E0CF2EACE0EA2EB2E0BB2E82E081
:10204000D82ED80CF4013897F080F40180818C30C0
:1020500008F046C061E08F2D0E94700DD4018C9174
:10206000C89EF0011124E65AF94F9F2D9F732081DD
:10207000207CF22EF92AF082138214826E2D0E94A7
:10208000BA18BCE08B9FA001112420E030E0B90118
:10209000640F751FC69EF001C79EF00D1124E65A0D
:1020A000F94F908196FD12C02F5F3F4F2C303105C4
:1020B00071F781110BC010928000B09281001092D4
:1020C000850010928400B6BAB0926F00D401EC91F2
:1020D000CE9EF0011124E65AF94F808180648083FE
:1020E000F4013297908132978081F8013197808393
:1020F000F801908360E00E94700D61E0D8018C913E
:102100000E94700D60E0F80180810E94220DFFEFB7
:102110008F1A9F0A0E5F1F4FD81094CFF894109219
:10212000200189E08093210180E293E090932901CE
:1021300080932801109225011092240182E080935F
:10214000730078948093880510928C05809189059E
:1021500060E00E94700D1092720310927103109251
:10216000A2031092A1030E94520D60EF85E50E9428
:1021700084096BEF80E00E9484090E94A5090E94F7
:1021800084080E94A50980919F039091A003019764
:1021900009F051C080919D0390919E03892B09F015
:1021A0004AC00E94A50980919F039091A0030197C6
:1021B00069F46AE070E080E090E00E94CB0D0E943C
:1021C000A50989E392E00E94B008EDCF0E94A5091D
:1021D00083E492E00E94B008809127039091280345
:1021E000009749F481E090E09093280380932703BF
:1021F00040E050E00BC08130910569F482E090E04E
:10220000909328038093270346E950E064EF71E040
:102210000E94390802C0029729F38DE492E00E94DF
:10222000820980912703909128030E94070986E183
:1022300093E00E94B0080E94A50980912703909125
:102240002803892B49F462E370E080E090E00E946B
:10225000CB0D0E94F00295CF212C312C80919F0351
:102260009091A003892B79F780919D0390919E0313
:10227000019749F70E94A5099FEF291A390A64E6D8
:1022800070E080E090E00E94CB0DAAE02A163104B5
:1022900029F744E650E064E670E083E090E00E94B5
:1022A0003908E0912703F0912803FA83E98300E0DD
:1022B00010E089819A81019709F0F4C084E592E0E9
:1022C0000E94B00880919D0390919E03019709F0B0
:1022D000D9C080E00E94AC0D6C0181E00E94AC0D81
:1022E0003C0182E00E94AC0D9C0183E02B833C8387
:1022F0000E94AC0D7C0184E00E94AC0D9E838D8316
:1023000085E00E94AC0D5C0186E00E94AC0D4C01A2
:1023100087E00E94AC0D2C014DEC5CEC6CE47EE39C
:1023200089E797E00E94F5054DEC5CEC6CE47EEBF0
:102330008BE797E00E94F50587E692E00E9482090C
:10234000C7010E9407090E94AC088DE692E00E9436
:1023500082098D819E810E9407090E94AC0883E753
:1023600092E00E948209C5010E9407090E94AC0800
:1023700089E792E00E948209C4010E9407090E9435
:10238000AC080E94AC082B813C8199E5E91692E0EB
:10239000F9060CF443C0AD81BE81A935B2400CF4FE
:1023A000EBC2F9E5AF16F2E0BF060CF4AFC349E5A6
:1023B000841642E094060CF4A9C389E5481682E02D
:1023C00058060CF4A3C394EFC91691E0D9060CF09B
:1023D0009DC34DEC5CEC6CEC7DE389E797E00E94DB
:1023E000F5054DEC5CEC6CEC7DEB8BE797E00E9427
:1023F000F50566E970E080E090E00E94CB0D4DECC1
:102400005CEC6CEC7DEB89E797E00E94F5056CEDE8
:1024100075E080E090E00E94CB0D23C0E9E5CE1688
:10242000E2E0DE060CF405C3F9E56F16F2E07F0684
:102430000CF4FFC22935A2E03A070CF4F4C2B9E566
:10244000EB16B2E0FB060CF4F4C2ED81FE81E93537
:10245000F2400CF030C3AD81BE81A935B2400CF41E
:1024600091C24DEC5CEC6CE47EE389E797E00E945E
:10247000F5054DEC5CEC6CE47EEB8BE797E00E949D
:10248000F50580C240E050E0BA0189E797E00E947C
:10249000F50540E050E060E070E88BE797E00E94CF
:1024A000F5052FC289819A81029709F02AC289E82D
:1024B00092E00E94B00880919D0390919E03019745
:1024C00009F018C28CE992E00E9482098091000212
:1024D000909101020E94070985EA92E00E94820918
:1024E00088EA92E00E948209809125039091260358
:1024F0000E94070985EA92E00E9482098091930375
:1025000090919403CD978138910508F08BC080910C
:10251000950390919603CD978138910508F082C07C
:1025200084EB92E00E94B008809100029091010239
:10253000892B09F064C0A0902503B0902603B50153
:102540000B2C000C880B990B0E947B1720E030E0CD
:1025500040E05FE30E94DA176B017C0191E0A9166D
:10256000B104F1F420E030E0A901C701B6010E94F6
:1025700071191816C4F42DEC3CEC4CEC5DE3C7016A
:10258000B6010E94CE186B017C019B01AC010E9438
:10259000220864E670E080E090E00E94CB0DE2CF7C
:1025A000AB20A09471F020E030E0A901CA01B9018C
:1025B0000E942208A1E0B0E0B0930102A0930002C3
:1025C0001EC020E030E0A901C701B6010E947417C7
:1025D00087FFE9CF2DEC3CEC4CEC5DE3C701B60185
:1025E0000E94CF186B017C019B01AC010E94220864
:1025F00064E670E080E090E00E94CB0DE2CF809135
:10260000000290910102029739F420E030E0A90124
:10261000CA01B9010E942208E1E0F0E0F093010252
:10262000E093000280919503909196038E3B910573
:102630000CF4F8C08DE797E00E94BD079095809557
:10264000709561957F4F8F4F9F4F0E947B174B0175
:102650005C01609321037093220380932303909382
:1026600024038FE797E00E94BD070E947B172B0190
:102670003C0160931D0370931E0380931F0390938E
:1026800020039B01AC01C501B4010E94CE186B016F
:102690007C016093190370931A0380931B0390933A
:1026A0001C0320E030E040EA50E40E94741787FDEC
:1026B00026C020E030E040E251E4C701B6010E94AC
:1026C000741787FD25C020E030E040E751E4C701E2
:1026D000B6010E94741787FD23C020E030E040EA75
:1026E00051E4C701B6010E94741787FD22C04AE970
:1026F000C42E49E9D42EED2C4EE3F42E22C03DEC3D
:10270000C32E3CECD32E3CE4E32E3DE3F32E19C064
:102710002DECC22E2CECD22EED2C2DE3F22E11C07E
:102720009AE9C92E99E9D92E99E1E92E9EE3F92E6D
:1027300008C08DECC82E8CECD82E8CE4E82E8EE3ED
:10274000F82EA3019201C501B4010E947119181657
:10275000ECF4A701960160E070E080E89FE30E943E
:10276000CE1820E030E040E05FE30E94DA17AB01D2
:10277000BC0189E797E00E94F50520E030E040E8E1
:102780005FE3C701B6010E94CF1824C0A3019201E4
:10279000C501B4010E94741787FF26C020E030E015
:1027A00040E85FE3C701B6010E94CF1820E030E0A7
:1027B00040E05FE30E94DA17AB01BC0189E797E0D4
:1027C0000E94F505A701960160E070E080E89FE3B4
:1027D0000E94CE1820E030E040E05FE30E94DA176C
:1027E000AB01BC0170580CC040E050E060E07FE3FA
:1027F00089E797E00E94F50540E050E060E07FEB5C
:102800008BE797E00E94F50581E090E09093260326
:102810008093250310920102109200028AEB92E04D
:102820000E94B0088091950390919603CD97B4F4DF
:1028300089EC92E00E94B008AFEFBFEFB09326039F
:10284000A0932503109201021092000220E030E0D4
:1028500040E05FEBCA01B9010E9422088091930316
:10286000909194038E3B9105FCF081EE92E00E94E2
:10287000B008E2E0F0E0F0930102E0930002609122
:10288000250370912603072E000C880B990B0E94DC
:102890007B172AE939E949E95EE30E94DA1720E06B
:1028A00030E0A9010E942208809193039091940343
:1028B000CD973CF587EF92E00E94B00882E090E06F
:1028C000909301028093000260912503709126038A
:1028D000072E000C880B990B0E947B172AE939E917
:1028E00049E95EE30E94DA179B01AC0160E070E009
:1028F000CB0105C020E030E0A901CA01B9010E9466
:1029000022080E94A50964E670E080E090E00E9441
:10291000CB0D80919F039091A0038130910519F414
:102920000F5F1F4F04C0892B11F400E010E08CE012
:1029300093E00E948209C8010E9407090E94AC0826
:102940000B3011050CF4B5CC40E050E0BA0189E73A
:1029500097E00E94F50540E050E060E070E88BE70A
:1029600097E00E94F50544E650E064E670E08AE0F6
:1029700090E00E94390872CC89E5C81682E0D8063A
:102980000CF0CAC0AD81BE81A43FB1400CF06BC059
:102990004DEC5CEC6CE47EE389E797E00E94F50582
:1029A00040E050E060E070E83BC0E12CF12C8D810C
:1029B0009E81843F91400CF056C0B9E5AB16B2E061
:1029C000BB061CF0EE24E394F12CE9E58E16E2E060
:1029D0009E061CF0EE24E394F12C293532400CF0D5
:1029E0005AC029E5621622E072060CF043C08FE758
:1029F00092E00E948209C7010E9407090E94AC0868
:102A000042E0E416F104D1F54DEC5CEC6CEC7DE3B6
:102A100089E797E00E94F5054DEC5CEC6CEC7DE3FA
:102A20008BE797E01EC089E5E81682E0F8060CF017
:102A300012CD94EFE91691E0F906ACF48D819E81F8
:102A4000893592400CF4B1CF4DEC5CEC6CE47EEB3C
:102A50008BE797E00E94F50540E050E0BA0189E776
:102A600097E00E94F50562E370E080E090E00E944C
:102A7000CB0D47CF52E0E52EF12CB9CF4DEC5CECFD
:102A80006CEC7DEB8BE797E00E94F5054DEC5CEC80
:102A90006CEC7DEBE4CFB9E56B16B2E07B0654F746
:102AA0008FE792E00E94820982E090E00E9407098D
:102AB0000E94AC08A9CF44EF441641E054060CF044
:102AC000CACC4DEC5CEC6CEC7DE389E797E00E94AE
:102AD000F5054DEC5CEC6CEC7DEB8BE797E00E9430
:102AE000F50566E970E080E090E00E94CB0D4DECCA
:102AF0005CEC6CEC7DE38BE797E00E94F5056CEDF8
:102B000075E080E090E00E94CB0DA5CC99E5C91658
:102B100092E0D9060CF4A5CC49E5641642E07406AF
:102B20000CF088CC98CC80919706909198060C94E4
:102B30000B1A1092A8031092A70388EE93E0A0E06E
:102B4000B0E08093A9039093AA03A093AB03B09342
:102B5000AC032DE032E03093A6032093A50310923E
:102B6000B4031092B3038093B5039093B603A0937C
:102B7000B703B093B8032FE132E03093B203209350
:102B8000B10345E351E05093BE034093BD0344E3DA
:102B900051E05093C0034093BF0340E351E0509392
:102BA000C2034093C10341E351E05093C4034093F7
:102BB000C30342E351E05093C6034093C50346E389
:102BC00051E05093C8034093C7031092CA03109278
:102BD000CB031092CC031092CD03109251041092AB
:102BE00050048093520490935304A0935404B093E0
:102BF000550430934F0420934E0445ED50E050931C
:102C00005B0440935A0444ED50E050935D044093BC
:102C10005C0440ED50E050935F0440935E0441ED4E
:102C200050E0509361044093600442ED50E05093B3
:102C300063044093620446ED50E050936504409372
:102C40006404109267041092680410926904109250
:102C50006A041092EE041092ED048093EF049093B6
:102C6000F004A093F104B093F2043093EC042093A9
:102C7000EB0485EC90E09093F8048093F70484ECE7
:102C800090E09093FA048093F90480EC90E09093A4
:102C9000FC048093FB0481EC90E09093FE0480930D
:102CA000FD0482EC90E0909300058093FF0486EC95
:102CB00090E0909302058093010510920405109214
:102CC0000505109206051092070586E3809381079B
:102CD00087E38093820788E38093830789E3809367
:102CE00084078BE1809385078DE1809386078AE1D5
:102CF000809387078CE18093880784E0809389071D
:102D000087E080938A0710928B0784EB80938C076F
:102D100086E180938D0788E180938E0787E1809319
:102D20008F0789E180939007E0919606EC3020F0C0
:102D30008FEF8093910710C081E08E0F80939606ED
:102D4000E093910725E0E29FF0011124E65AF94F44
:102D500088EB9BE092838183E0919606EC3020F033
:102D60008FEF8093920710C081E08E0F80939606BC
:102D7000E093920785E0E89FF0011124E65AF94FAD
:102D800088EB9BE0928381838CE08093600784E2F0
:102D90008093610786E08093620785E080936307F4
:102DA0008FE1809364078EE18093650783E28093CF
:102DB000660782E28093670785E48093680784E46E
:102DC0008093690780E480936C07109271071092DA
:102DD0007207109273071092740710927507109281
:102DE00076071092770710927807E2EAF6E08FEF05
:102DF0009FEFDC01128213821482158216821782E1
:102E00001086118683879487A587B6878787908BDE
:102E1000A18BB28B128611821082739627E0E03666
:102E2000F20741F78DE090E00E947619FC011382D1
:102E3000128281E392E091838083118687E284830A
:102E400084E1828784E083871486F0939F06E09371
:102E50009E061092A0061092A10685E28093890535
:102E600010928B05109298061092970610929A066F
:102E70001092990610929C0610929B0661E070E0F9
:102E800080E090E00E94A31A009789F09093980642
:102E90008093970610929A061092990620919B06AD
:102EA00030919C06232BC1F4FC01108215C0809147
:102EB000970690919806009711F00E940B1A1092B5
:102EC00098061092970610929C0610929B061092FC
:102ED0009A0610929906089510929C0610929B06ED
:102EE00066E173E00C949A1B0E94B61708F481E027
:102EF0000895E89409C097FB3EF4909580957095ED
:102F000061957F4F8F4F9F4F9923A9F0F92F96E935
:102F1000BB279395F695879577956795B795F111AA
:102F2000F8CFFAF4BB0F11F460FF1BC06F5F7F4F47
:102F30008F4F9F4F16C0882311F096E911C0772359
:102F400021F09EE8872F762F05C0662371F096E862
:102F5000862F70E060E02AF09A95660F771F881F31
:102F6000DAF7880F9695879597F90895990F0008D5
:102F7000550FAA0BE0E8FEEF16161706E807F9074B
:102F8000C0F012161306E407F50798F0621B730BE6
:102F9000840B950B39F40A2661F0232B242B252B67
:102FA00021F408950A2609F4A140A6958FEF811D0A
:102FB000811D08950E94ED170C945E180E94501810
:102FC00038F00E94571820F0952311F00C94471800
:102FD0000C944D1811240C9492180E946F1870F3E1
:102FE000959FC1F3950F50E0551F629FF001729FAE
:102FF000BB27F00DB11D639FAA27F00DB11DAA1FBD
:10300000649F6627B00DA11D661F829F2227B00D09
:10301000A11D621F739FB00DA11D621F839FA00D94
:10302000611D221F749F3327A00D611D231F849FE4
:10303000600D211D822F762F6A2F11249F5750403B
:103040009AF0F1F088234AF0EE0FFF1FBB1F661FB6
:10305000771F881F91505040A9F79E3F510580F07F
:103060000C9447180C9492185F3FE4F3983ED4F305
:10307000869577956795B795F795E7959F5FC1F723
:10308000FE2B880F911D9695879597F9089597F9CE
:103090009F6780E870E060E008959FEF80EC0895FE
:1030A00000240A9416161706180609060895002427
:1030B0000A9412161306140605060895092E0394A1
:1030C000000C11F4882352F0BB0F40F4BF2B11F415
:1030D00060FF04C06F5F7F4F8F4F9F4F089557FD74
:1030E0009058440F551F59F05F3F71F04795880F76
:1030F00097FB991F61F09F3F79F08795089512160D
:1031000013061406551FF2CF4695F1DF08C01616B8
:1031100017061806991FF1CF869571056105089469
:103120000895E894BB2766277727CB0197F9089580
:10313000A1E21A2EAA1BBB1BFD010DC0AA1FBB1FBB
:10314000EE1FFF1FA217B307E407F50720F0A21B2D
:10315000B30BE40BF50B661F771F881F991F1A949A
:1031600069F760957095809590959B01AC01BD01C4
:10317000CF010895991B79E004C0991F961708F0B4
:10318000961B881F7A95C9F780950895EE0FFF1F4B
:10319000881F8BBF0790F691E02D19945058BB27DC
:1031A000AA270E94E6180C945E180E94501838F066
:1031B0000E94571820F039F49F3F19F426F40C941C
:1031C0004D180EF4E095E7FB0C944718E92F0E9488
:1031D0006F1858F3BA17620773078407950720F032
:1031E00079F4A6F50C9491180EF4E0950B2EBA2FF5
:1031F000A02D0B01B90190010C01CA01A0011124FD
:10320000FF27591B99F0593F50F4503E68F11A16A8
:10321000F040A22F232F342F4427585FF3CF469539
:1032200037952795A795F0405395C9F77EF41F165B
:10323000BA0B620B730B840BBAF09150A1F0FF0F25
:10324000BB1F661F771F881FC2F70EC0BA0F621F11
:10325000731F841F48F4879577956795B795F79501
:103260009E3F08F0B0CF9395880F08F09927EE0F96
:103270009795879508950E9442196894B1110C940E
:10328000921808950E94771888F09F5798F0B92FE8
:103290009927B751B0F0E1F0660F771F881F991F8B
:1032A0001AF0BA95C9F714C0B13091F00E94911884
:1032B000B1E008950C949118672F782F8827B85F94
:1032C00039F0B93FCCF3869577956795B395D9F7E3
:1032D0003EF490958095709561957F4F8F4F9F4FED
:1032E00008950E94B61708F48FEF0895CF93DF93E7
:1032F0008230910510F482E090E0E0910B08F091AB
:103300000C0820E030E0C0E0D0E0309711F14081BF
:10331000518148175907C0F04817590761F4828155
:103320009381209719F09B838A832BC090930C087C
:1033300080930B0826C02115310519F04217530759
:1033400018F49A01BE01DF01EF010280F381E02D44
:10335000DCCF2115310509F1281B390B243031054B
:1033600090F412968D919C9113976115710521F03F
:10337000FB019383828304C090930C0880930B0815
:10338000FD01329644C0FD01E20FF31F819391933A
:10339000225031092D933C933AC020910908309175
:1033A0000A08232B41F42091050230910602309344
:1033B0000A08209309082091030230910402211584
:1033C000310541F42DB73EB74091070250910802F4
:1033D000241B350BE0910908F0910A08E217F30766
:1033E000A0F42E1B3F0B2817390778F0AC014E5F75
:1033F0005F4F2417350748F04E0F5F1F50930A08A0
:10340000409309088193919302C0E0E0F0E0CF017E
:10341000DF91CF9108950F931F93CF93DF93009780
:1034200009F48CC0FC0132971382128200910B08C0
:1034300010910C080115110581F420813181820F52
:10344000931F2091090830910A082817390779F548
:10345000F0930A08E093090871C0D80140E050E0F9
:10346000AE17BF0750F412962D913C911397AD0102
:103470002115310509F1D901F3CF9D01DA0133831B
:10348000228360817181860F971F8217930769F4E9
:10349000EC0128813981260F371F2E5F3F4F318382
:1034A00020838A819B8193838283452B29F4F09327
:1034B0000C08E0930B0842C01396FC93EE9312970E
:1034C000ED01499159919E01240F351FE217F30731
:1034D00071F480819181840F951F029611969C93BF
:1034E0008E938281938113969C938E931297E0E042
:1034F000F0E0D80112968D919C911397009719F0E6
:10350000F8018C01F6CF8D919C9198012E5F3F4F71
:10351000820F931F2091090830910A082817390754
:1035200069F4309729F410920C0810920B0802C02D
:103530001382128210930A0800930908DF91CF9139
:103540001F910F9108956F927F928F929F92AF92E9
:10355000BF92CF92DF92EF92FF920F931F93CF9380
:10356000DF93EC01009789F4CB01DF91CF911F919C
:103570000F91FF90EF90DF90CF90BF90AF909F9012
:103580008F907F906F900C947619FC01E60FF71FD7
:103590009C0122503109E217F30708F4ACC0D901AD
:1035A0000D911C91119706171707B0F00530110502
:1035B00008F49FC0C80104978617970708F499C0BC
:1035C00002501109061B170B019311936D937C9305
:1035D000CF010E940B1A8DC05B01A01AB10A4C01E9
:1035E000800E911EA0910B08B0910C0840E050E0B5
:1035F000E12CF12C109709F44AC0A815B905D1F5B2
:103600006D907C901197630182E0C80ED11CCA14A2
:10361000DB0480F1A3014A195B096A0182E0C80E4C
:10362000D11C1296BC9012971396AC91B5E0CB16B4
:10363000D10440F0B282A38351834083D9016D93BA
:103640007C930AC00E5F1F4FC301800F911FF901C9
:1036500091838083EB2DFA2FE114F10431F0D7012F
:103660001396FC93EE93129744C0F0930C08E093EA
:103670000B083FC08D919C9111974817590708F48A
:10368000AC017D0112960D90BC91A02DB3CF80911D
:10369000090890910A0888159905E1F4461757071B
:1036A000C8F48091030290910402009741F48DB711
:1036B0009EB74091070250910802841B950BE817B2
:1036C000F907C8F4F0930A08E0930908F901718337
:1036D00060830FC0CB010E9476197C01009759F0DE
:1036E000A801BE010E94911BCE010E940B1AC701C6
:1036F00004C0CE0102C080E090E0DF91CF911F9125
:103700000F91FF90EF90DF90CF90BF90AF909F9080
:103710008F907F906F90089581E090E0F8940C94E2
:10372000A11BFB01DC0102C001900D9241505040F1
:10373000D8F70895FB01DC0101900D920020E1F71C
:10374000089511E0C0E9D1E000E006C0802FFE013D
:103750000E94C6182196011DC139D10780E00807D3
:06376000A9F7F894FFCF69
:103766000100FF00000D08200000000000050BD539
:103776000A1E03A90ACD0AB90AAA0A000000008493
:1037860002C4010802CB02390217022B0200000014
:10379600004E03C4011E031D034320656E666F6E53
:1037A600636500432072656C6163686500094D6F4F
:1037B600646520006D6F646520312073656C6563F8
:1037C60074696F6E6E65002061333A2000206134A3
:1037D6003A20002061353A20002061363A20002048
:1037E600536F727469653A20006D6F6465203220EC
:1037F60073656C656374696F6E6E650009737461D9
:1038060077703A2000092000646972656374696FF5
:103816006E3A20005354415750004A276176616E34
:1038260063652043522A535300426565656565709A
:1038360020426565656565702042656565656570EC
:1038460000547269626F726420746F757465202308
:1038560064726F697465004261626F726420746F8E
:1038660075746520234761756368650074656D70BE
:08387600203D20000D0A0000B6
:00000001FF
