:100000000C94D2010C9403020C9403020C9403028E
:100010000C9403020C9403020C9403020C9403024C
:100020000C9403020C94DD0D0C94DD0D0C94DD0D8D
:100030000C9403020C94A3170C9403020C94030277
:100040000C9403020C9484150C9403020C94030288
:100050000C9403020C9403020C9403020C945917A1
:100060000C9403020C947C120C94F1120C94030275
:100070000C9403020C9403020C9403020C940302EC
:100080000C9403020C9403020C9403020C940302DC
:100090000C9403020C9403020C9403020C94E70DDD
:1000A0000C9403020C9403020C9403020C940302BC
:1000B0000C9403020C9403020C9403020C9484131A
:1000C0000C9403020C9403020C9403020C9452123D
:1000D0000C94C7120C9403020C946C180C944218E4
:1000E0000C94030283108610751079107F10BD10D8
:1000F0008A108E10941098109C10A210A610AA10AE
:10010000BD10B010B410B810CB14D014D514DF1437
:10011000E9146215F314FB1403150D1517152115B9
:1001200030153A15621544154E15581507634236B9
:10013000B79BD8A71A39685618AEBAAB558C1D3C78
:10014000B7CC5763BD6DEDFD753EF6177231BF003C
:100150000000803F08000000BE922449123EABAA76
:10016000AA2ABECDCCCC4C3E00000080BEABAAAAD1
:10017000AA3E00000000BF000000803F0000000019
:1001800000084178D3BB4387D1133D190E3CC3BD52
:100190004282AD2B3E68EC8276BED98FE1A93E4CFF
:1001A00080EFFFBE01C4FF7F3F00000000000C9401
:1001B000AA100C940D150C94A2100C94D5140C9448
:1001C0007F100C94DF140C9458150C94B4100C94FC
:1001D000B0100C94B8100C94390C0C949C100C9426
:1001E000BD100C94F3140C944A1C0C9462130C94E0
:1001F000E6110C94E5110C948A110C94690C0C9482
:1002000094100C9483100C9498100C9444150C9436
:1002100075100C9467110C94150C0C946F1A0C94B7
:1002200021150C94A6100C9486100C94CB140C94ED
:10023000FB140C943A150C9403150C9462150C9451
:1002400017150C94E9140C948E100C94160C0C9445
:1002500098110C9479100C944E150C9430150C9444
:100260008A100C9414120C9476110C94DB0B0C94E1
:100270001B130C94D0140C94E8160C94250C00005D
:100280002100240027002A002D0030003300010146
:100290000000040107010A010000220025002800D7
:1002A0002B002E003100340002010000050108017E
:1002B0000B010505050507050808080802020202EA
:1002C0000A0A0808040404040101010101010101F2
:1002D0000303030303030303040707070C0C0C0CBD
:1002E0000C0C0C0C020202020606060606060606A6
:1002F0000B0B0B0B0B0B0B0B010210202008081033
:100300002040102040800201020108040201010285
:10031000040810204080804020100804020180045E
:1003200002018040201008040201080402010102B9
:1003300004081020408001020408102040800000C2
:100340000A0B02090C0D0E0807030401000000004F
:10035000000000000000000000000000000000009D
:10036000000000000000000000001211100000005A
:10037000000000000000000000000000000000007D
:1003800000000000000020002300260029002C00AF
:100390002F003200000100000301060109010200E4
:1003A0006F1A4A1C11241FBECFEFD1E2DEBFCDBFB2
:1003B00000E00CBF13E0A0E0B2E0E6EFFAE400E0FA
:1003C0000BBF02C007900D92AA3DB107D9F728E0F4
:1003D000AAEDB3E001C01D92A83BB207E1F711E01E
:1003E000C1EDD1E000E006C021970109802FFE0198
:1003F0000E949220C03DD10780E00807A9F70E9423
:10040000501C0C9469250C9400002F923F924F923F
:100410005F926F927F928F929F92AF92BF92CF9294
:10042000DF92EF92FF920F931F93CF93DF93CDB79D
:10043000DEB72B970FB6F894DEBF0FBECDBF9887FF
:100440008F831A82198282E0282E312C2F813885E1
:100450002130310509F02FC389E392E00E94B709EA
:1004600061E08EE20E94BE100E94960F8091EC0720
:100470009091ED07019709F00CC30E94611989E082
:1004800090E00E94FA1820E030E040E251E40E943F
:10049000211F87FFB0C00E944A1940E050E06CED78
:1004A00075E081E090E00E94B0180E94611989E037
:1004B00090E00E94FA1820E030E048EC51E40E94FD
:1004C000211F18168CF04DEC5CEC6CE47EEB86EB97
:1004D00097E00E946B144DEC5CEC6CE47EE388EBDF
:1004E00097E00E946B14E3CF0E944A190E946119A1
:1004F0008AEB97E00E945E168AEB97E00E94331623
:1005000000E010E08CE492E00E94B709012B51F466
:100510000E944A1946E950E060E971E081E090E00C
:100520000E94B0184AE959E969E97EE386EB97E051
:100530000E946B1440E050E060E070E888EB97E0C8
:100540000E946B140E94611988E090E00E94FA18E2
:1005500001E010E020E030E040EF51E40E94211F74
:1005600087FFD0CF02E010E08CE592E00E94B7094F
:100570000E946119E12CF12C88E090E00E94FA18A9
:1005800020E030E048EC52E40E94211F87FD57C470
:10059000C0C40E94E9180E9461198CEA9DE00E9483
:1005A000B8190E9461190E944A1946E950E06AEFA1
:1005B00070E082E090E00E94B0180E94200B4DECA9
:1005C0005CEC6CE47EE386EB97E00E946B144DECF0
:1005D0005CEC6CE47EEB88EB97E00E946B140E946D
:1005E000611983E090E09093DB038093DA0385E662
:1005F00092E00E94B70980E00E9448112C0181E03E
:100600000E9448114C0182E00E9448119C838B8318
:1006100083E00E9448118C0184E00E9448117C0113
:1006200085E00E9448113C0186E00E9448116C015F
:1006300087E00E9448115C0140E050E060E87EE302
:1006400086EB97E00E946B1440E050E060E87EEBA0
:1006500088EB97E00E946B148CE992E00E94AD0D4C
:10066000C8010E94AF0D0E94B30982EA92E00E9485
:10067000AD0DC7010E94AF0D0E94B30988EA92E058
:100680000E94AD0DC3010E94AF0D0E94B3098EEA16
:1006900092E00E94AD0DC6010E94AF0D0E94B30909
:1006A0000E94B3090E9461198091DA039091DB03E3
:1006B000039709F087C084EB92E00E94B7090E947B
:1006C00061194DEC5CEC6CE47EE386EB97E00E94F4
:1006D0006B144DEC5CEC6CE47EEB88EB97E00E94D5
:1006E0006B1420E040E050E0822F2B8749875A8727
:1006F0000E9448112B8549855A858935924014F00E
:1007000041E050E02F5F283079F74130510561F624
:100710000E94611984ED92E00E94B7094DEC5CECF7
:100720006CE47EE386EB97E00E946B144DEC5CEC8E
:100730006CE47EEB88EB97E00E946B140E946119D9
:1007400066E970E080E090E00E941F170E944A195D
:1007500046E950E060E971E081E090E00E94B01865
:100760000E9461194DEC5CEC6CE47EE388EB97E051
:100770000E946B144DEC5CEC6CE47EE386EB97E03E
:100780000E946B1464EF71E080E090E00E941F17FC
:100790000E94611983E00E944811803991403CF425
:1007A00084E00E944811803991400CF4A5C4109255
:1007B000DB031092DA0362E370E080E090E00E94D5
:1007C0001F1770CF31E9431631E053060CF45CC0BB
:1007D00041E9841641E094060CF47FC52B813C81ED
:1007E000213931400CF474C5013951E015070CF47E
:1007F0008FC481E9E81681E0F8060CF40AC191E99A
:10080000691691E079060CF4ABC0E1E9CE16E1E09F
:10081000DE060CF44AC0F1E9AF16F1E0BF060CF4B5
:1008200044C040E050E0BA0186EB97E00E946B14B0
:1008300040E050E060E070E888EB97E00E946B14C5
:1008400048EC50E068EC70E081E090E00E94B01865
:1008500048EC50E060E971E081E090E00E94B0185F
:1008600048EC50E068E572E081E090E00E94B0184A
:1008700040E050E060E273E081E090E00E94B01858
:10088000E0E0F0E0199511C00139F1E01F070CF428
:100890003FC421E9E21621E0F2060CF4BAC021E9D6
:1008A000621621E072060CF44FC031E9C31631E044
:1008B000D3060CF449C041E9A41641E0B4060CF497
:1008C00043C050E9451651E05506F4F58091DA032E
:1008D0009091DB03039709F416C44DEC5CEC6CE4D7
:1008E0007EE386EB97E00E946B144DEC5CEC6CE4CD
:1008F0007EEB88EB97E00E946B1466E970E080E085
:1009000090E00E941F170E944A1946E950E06AEFE2
:1009100070E082E090E00E94B0184DEC5CEC6CE47A
:100920007EEB88EB97E00E946B144DEC5CEC6CE482
:100930007EEB86EB97E00E946B1468EE73E080E03C
:1009400090E00E941F17DFC381E9481681E0580636
:100950000CF45AC091E9891691E099060CF454C040
:100960002B813C81213931400CF44EC0013951E0DA
:1009700015070CF4CDC381E9E81681E0F8060CF404
:1009800048C090E9A91691E0B9060CF042C08091E8
:10099000DA039091DB030397E1F14DEC5CEC6CE43E
:1009A0007EE386EB97E00E946B144DEC5CEC6CE40C
:1009B0007EEB88EB97E00E946B1466E970E080E0C4
:1009C00090E00E941F170E944A1946E950E060E932
:1009D00071E081E090E00E94B0184DEC5CEC6CE4BA
:1009E0007EE388EB97E00E946B144DEC5CEC6CE4CA
:1009F0007EE386EB97E00E946B1468EE73E080E084
:100A000090E00E941F1705C00139E1E01E070CF4B9
:100A10007FC3F1E9EF16F1E0FF060CF4BDC340E03F
:100A200050E060E87EE386EB97E00E946B1440E0C4
:100A300050E060E87EEB88EB97E00E946B1421E9C0
:100A4000C21621E0D20634F041E050E05093DB03BF
:100A50004093DA0351E9A51651E0B50634F081E080
:100A600090E09093DB038093DA0391E9891691E09B
:100A7000990624F03092DB032092DA03E1E94E1666
:100A8000E1E05E060CF488C33092DB032092DA03C7
:100A900083C340E050E0BA0186EB97E00E946B14FC
:100AA00040E050E060E070E888EB97E00E946B1453
:100AB0000E9461196CC18F819885029709F067C106
:100AC0008BEE92E00E94B7098091EC079091ED07C0
:100AD000019709F055C16AE070E080E090E00E9463
:100AE0001F1789E090E00E94FA1820E030E040EA09
:100AF00051E40E94211F87FF20C00E94960F809121
:100B0000E4079091E5078E3B9105BCF040E050E092
:100B1000BA0186EB97E00E946B1440E050E060E081
:100B200070E888EB97E00E946B1446E950E06EEEA7
:100B300072E082E090E00E94B0188EEF92E00E9496
:100B4000AD0D80910002909101020E94AF0D87E0EF
:100B500093E00E94AD0D8AE093E00E94AD0D80917C
:100B6000DC039091DD030E94AF0D87E093E00E94CB
:100B7000AD0D8091E2079091E307AC014D5351090F
:100B80002091E4073091E5074138510508F089C00C
:100B9000A9014D5351094138510508F082C086E141
:100BA00093E00E94B7098091000290910102892B85
:100BB00009F063C00091DC031091DD03B801012E40
:100BC000000C880B990B0E94281F2DEC3CEC4CEC80
:100BD0005EE30E94871F6B017C0101301105F1F477
:100BE00020E030E0A901C701B6010E94AF2118162C
:100BF000C4F42DEC3CEC4CEC5DE3C701B6010E9463
:100C00009A206B017C019B01AC010E94991864E65B
:100C100070E080E090E00E941F17E2CF0F3F1F4F6F
:100C200071F020E030E0A901CA01B9010E949918D1
:100C3000E1E0F0E0F0930102E09300021EC020E04A
:100C400030E0A901C701B6010E94211F87FFE9CF4B
:100C50002DEC3CEC4CEC5DE3C701B6010E949B20FF
:100C60006B017C019B01AC010E94991864E670E065
:100C700080E090E00E941F17E2CF809100029091E7
:100C80000102029739F420E030E0A901CA01B9015C
:100C90000E94991821E030E0309301022093000275
:100CA00076C02E3B3105BCF02DEC3CEC4CEC5EE309
:100CB000CA01B9010E94991841E050E05093DD0348
:100CC0004093DC0310920102109200028CE193E049
:100CD0000E94B7095CC02D3331059CF48BE293E090
:100CE0000E94B7098FEF9FEF9093DD038093DC03A1
:100CF00010920102109200022DEC3CEC4CEC5EEBE9
:100D000042C08E3B9105E4F083E493E00E94B70972
:100D100030920102209200026091DC037091DD03A9
:100D2000072E000C880B990B0E94281F2AE939E92D
:100D300049E95EE30E94871F20E030E0A90125C059
:100D4000CD972CF589E593E00E94B7093092010216
:100D5000209200026091DC037091DD03072E000CED
:100D6000880B990B0E94281F2AE939E949E95EE3BB
:100D70000E94871F9B01AC0160E070E0CB0105C0C1
:100D800020E030E0A901CA01B9010E9499180E942F
:100D9000960F64E670E080E090E00E941F1780915B
:100DA000EE079091EF078130910531F4E981FA81E6
:100DB0003196FA83E98304C0892B11F41A821982CF
:100DC0008EE693E00E94AD0D89819A810E94AF0D5D
:100DD0000E94B30929813A812B3031050CF436CBBE
:100DE00040E050E0BA0186EB97E00E946B1440E0CF
:100DF00050E060E070E888EB97E00E946B1444E6F6
:100E000050E068EC70E085E090E02B960FB6F89427
:100E1000DEBF0FBECDBFDF91CF911F910F91FF902D
:100E2000EF90DF90CF90BF90AF909F908F907F908A
:100E30006F905F904F903F902F900C94B01885EA80
:100E400093E00E94B7094AE959E969E97EE386EB34
:100E500097E00E946B1440E050E060E070E888EB9F
:100E600097E00E946B140E94611988E090E00E9454
:100E7000FA180E9479212B013C01072E000C880BE7
:100E8000990B0E94281F4B015C0188E090E00E94B2
:100E9000FA189B01AC01C501B4010E94211F87FF14
:100EA000F2C088E090E00E94FA18A50194010E9427
:100EB0009A2020E030E040E251E40E94211F87FFA9
:100EC000E2C086E793E00E94B7098CE893E00E94B5
:100ED000AD0DC2010E94AF0D82E993E00E94B709F7
:100EE00088E090E00E94FA1842E00E94D90C86E760
:100EF00093E00E94B7093FEFE31AF30A62E370E060
:100F000080E090E00E941F1733E0E316F1040CF438
:100F100033CB40E050E0BA0186EB97E00E946B14BF
:100F200040E050E0BA0186EB97E00E946B1401307C
:100F3000110519F001E010E017CB85E592E00E9461
:100F4000B70940E050E0BA0186EB97E00E946B14CD
:100F50004AE959E969E97EEB88EB97E00E946B1456
:100F60006CE271E080E090E00E941F170E944A1935
:100F70000E9461190E94611988E090E00E94FA18AD
:100F80000E947921CB010F969C01990F440B550BC0
:100F90002B833C834D835E834B0133E0830E911C96
:100FA000092C000CAA08BB086B0143E0C41AD10845
:100FB0000D2C000CEE08FF0888E090E00E94FA1863
:100FC0002B013C016B817C818D819E810E94281FB9
:100FD0009B01AC01C301B2010E94211F87FD56C0D5
:100FE0000E944A190E9461190E944A190E946119BF
:100FF00080ED97E00E94B8190E9461190E94E918DB
:101000000E944A1946E950E06AEF70E082E090E001
:101010000E94B0180E94200B0E94611984E991E19E
:101020000E94B8190E9461190E94E91888E090E0B6
:101030000E94FA186B017C0188E090E00E94FA1887
:101040004B015C0120E030E040E751E4C701B6010C
:101050000E949B209B01AC01C501B4010E94211F8D
:1010600087FF97CA4DEC5CEC6CE47EE386EB97E07F
:101070000E946B144DEC5CEC6CE47EEB88EB97E02B
:101080000E946B14D9CFE12CF12C38CF0E9461194A
:1010900088E090E00E94FA182B013C01C501B401E0
:1010A0000E94281F9B01AC01C301B2010E94AF2125
:1010B000181694F088E090E00E94FA182B013C0189
:1010C000C701B6010E94281F9B01AC01C301B201F8
:1010D0000E94211F87FF07C00E94611988E090E0ED
:1010E0000E94FA1869CF6AE979E989E99EE30E94CA
:1010F0000E0A0E94611960CF64EF71E080E090E019
:101100000E941F1754CB013941E014070CF087CC23
:10111000003911400CF0CCCC91E9E91691E0F906C8
:101120000CF476C04DEC5CEC6CE47EEB88EB97E065
:101130000E946B144DEC5CEC6CEC7DE386EB97E06D
:101140000E946B14E1E9CE16E1E0DE0634F021E006
:1011500030E03093DB032093DA0331E9A31631E06A
:10116000B30634F041E050E05093DB034093DA03E0
:1011700051E9851651E0950624F03092DB03209268
:10118000DA0381E9481681E058060CF441C0309238
:10119000DB032092DA038CCC80E9E81681E0F806C4
:1011A0000CF086CC4DEC5CEC6CE47EE386EB97E0D7
:1011B0000E946B144DEC5CEC6CEC7DEB88EB97E0E3
:1011C0000E946B14F1E9CF16F1E0DF0634F021E064
:1011D00030E03093DB032093DA0331E9A31631E0EA
:1011E000B30634F041E050E05093DB034093DA0360
:1011F00051E9851651E0950624F03092DB032092E8
:10120000DA0381E9481681E058060CF451CCBFCFCF
:1012100090E9E91691E0F9060CF04ACC91E96916DB
:1012200091E0790634F0E1E0F0E0F093DB03E09345
:10123000DA03F1E9CF16F1E0DF0634F021E030E027
:101240003093DB032093DA032B813C812139314039
:1012500024F03092DB032092DA0351E9851651E045
:10126000950624F03092DB032092DA0381EE92E0BF
:101270000E94AD0D8091DA039091DB030E94AF0DC7
:101280000E94B3098091DA039091DB0381309105CC
:1012900079F44DEC5CEC6CE47EEB88EB97E00E941B
:1012A0006B144DEC5CEC6CE47EEB86EB97E0FECBD4
:1012B000029709F0FDCB4DEC5CEC6CE47EE386EB31
:1012C00097E00E946B144DEC5CEC6CE47EE3ECCB9D
:1012D0000139E1E01E0734F41BCF0139F1E01F07AB
:1012E0000CF416CF31E9E31631E0F3060CF0D7CA5F
:1012F00031CBE8E2F5E0A089B18982E08C93A48546
:10130000B5851C92A685B7858FEC8C93108EA48929
:10131000B58986E08C93A289B3898C9180618C9386
:10132000A289B3898C9188608C93A289B3898C91AE
:1013300080688C930288F389E02D80818F7D808383
:101340000895009769F0FC0101900020E9F73197BA
:10135000AF01481B590BBC0188E295E00C94E816DC
:1013600080E090E008958FEA93E00C94A109CF9378
:10137000DF930E94A109EC010E94B3098C0F9D1F0D
:10138000DF91CF910895EF92FF921F93CF93DF9358
:101390001F92CDB7DEB7162F9DE9E92E97E0F92E03
:1013A000D7011C969C911C9721E02093E103909318
:1013B000E0031092DF031092DE031A960D90BC91A9
:1013C000A02DED91FC9111970190F081E02D682FF7
:1013D000CD0179831995F70182859385DC01ED9123
:1013E000FC910190F081E02D7981672F1995F7012B
:1013F00082859385DC01ED91FC910190F081E02DD7
:10140000612F199561E0F701828593850F90DF9137
:10141000CF911F91FF90EF900C94190F4F925F9214
:101420006F927F928F929F92AF92BF92CF92DF92F4
:10143000EF92FF92CF93DF9300D01F92CDB7DEB72C
:101440006B017C018AEB97E00E945E169095809577
:10145000709561957F4F8F4F9F4F0E94281F2B01E2
:101460003C016093DC077093DD078093DE07909367
:10147000DF078CEB97E00E945E160E94281F6983AD
:101480007A838B839C836093D8077093D90780936A
:10149000DA079093DB079B01AC01C301B2010E9404
:1014A0009A204B015C016093D4077093D507809319
:1014B000D6079093D70720E030E040EA50E40E943E
:1014C000211F87FD26C020E030E040E251E4C50145
:1014D000B4010E94211F87FD25C020E030E040E7D5
:1014E00051E4C501B4010E94211F87FD23C020E003
:1014F00030E040EA51E4C501B4010E94211F87FD9C
:1015000022C04AE9842E49E9942EA92C4EE3B42E38
:1015100022C03DEC832E3CEC932E3CE4A32E3DE315
:10152000B32E19C02DEC822E2CEC922EA92C2DE37B
:10153000B22E11C09AE9892E99E9992E99E1A92E26
:101540009EE3B92E08C08DEC882E8CEC982E8CE48E
:10155000A82E8EE3B82E29813A814B815C81C3018C
:10156000B2010E94AF211816ECF4A501940160E0CD
:1015700070E080E89FE30E949A209B01AC01C701C4
:10158000B6010E94871FAB01BC0186EB97E00E9469
:101590006B1420E030E040E85FE3C501B4010E9435
:1015A0009B2026C029813A814B815C81C301B20115
:1015B0000E94211F87FF25C020E030E040E85FE364
:1015C000C501B4010E949B209B01AC01C701B6017B
:1015D0000E94871FAB01BC0186EB97E00E946B1451
:1015E000A501940160E070E080E89FE30E949A20EA
:1015F0009B01AC01C701B6010E94871FAB01BC0172
:1016000008C0B701A60186EB97E00E946B14B701F2
:10161000A601705888EB97E00F900F900F900F90F5
:10162000DF91CF91FF90EF90DF90CF90BF90AF9080
:101630009F908F907F906F905F904F900C946B1461
:101640008F929F92AF92BF92CF92DF92EF92FF92D2
:101650008AEB97E00E9433168CEB97E00E943316DA
:101660004DEC5CEC6CEC7EEB88EB97E00E946B142D
:101670004DEC5CEC6CEC7EEB86EB97E00E946B141F
:101680008AEB97E00E945E16909580957095619523
:101690007F4F8F4F9F4F0E94281F2FE031ED40E872
:1016A0005FE30E94871F0E9479216B017C018CEB14
:1016B00097E00E945E16072E000C880B990B0E9483
:1016C000281F4B015C0120E030E44BEF54E40E9402
:1016D000AF2118163CF440E050E0BA0186EB97E0E9
:1016E0000E946B14B6010D2C000C880B990B0E9404
:1016F000281F20E030E44BEF54E40E94AF2118167D
:1017000044F440E050E060E070E888EB97E00E942D
:101710006B146AE070E080E090E00E941F1720E008
:1017200030E44BEF54E4C501B4010E94211F87FD52
:1017300097CF662777276C197D09072E000C880B39
:10174000990B0E94281F20E030E44BEF54E40E94E4
:10175000211F87FD85CF40E050E0BA0186EB97E07E
:101760000E946B1440E050E060E070E888EB97E086
:101770000E946B148AEB97E00E9433168CEB97E083
:101780000E94331664E670E080E090E0FF90EF90F6
:10179000DF90CF90BF90AF909F908F900C941F17C9
:1017A000E0912805F09129050190F081E02D682F46
:1017B00088E295E019948091E00790E02091E1079C
:1017C000821B9109089585ED8093BC008091BC0037
:1017D00084FDFCCF10927F08089540913208262F97
:1017E00030E0240F311D21323105DCF420917F08D7
:1017F0002430C9F4FC0180E090E0861758F4309161
:1018000032082191DC01A05FB74FA30FB11D2C93CB
:101810000196F3CF80913208680F6093320880E020
:10182000089581E0089582E008950895E091E10728
:101830008091E007E81730F4F0E0E058F74F80813E
:1018400090E008958FEF9FEF08959091E1078091C8
:10185000E007981750F4E92FF0E0E058F74F2081A7
:1018600030E09F5F9093E10702C02FEF3FEFC90187
:101870000895CF92DF92EF92FF920F931F93CF9331
:10188000DF937C01262F972F8A018091E103882323
:1018900091F0C62FD72F6E01C40ED51ECC15DD05D5
:1018A00071F06991D701ED91FC910190F081E02DEB
:1018B000C7011995F3CF642F822F0E94ED0BC80149
:1018C000DF91CF911F910F91FF90EF90DF90CF901C
:1018D0000895CF93DF931F92CDB7DEB76983209130
:1018E000E1032223D1F02091DE03203240F021E0F9
:1018F00030E0FC013383228380E090E015C08091CA
:10190000DF03E82FF0E0E051F84F998190838F5F7B
:101910008093DF038093DE0305C061E0CE01019672
:101920000E94ED0B81E090E00F90DF91CF91089540
:101930008F929F92AF92BF920F931F93CF93DF939B
:10194000CDB7DEB7A1970FB6F894DEBF0FBECDBFFF
:1019500019A2423008F44AE08E010F5D1F4F842E19
:10196000912CA12CB12CA50194010E946420E62F9A
:10197000B901CA0101501109EA3014F4E05D01C057
:10198000E95CD801EC93232B242B252B61F7C801AC
:101990000E94A109A1960FB6F894DEBF0FBECDBF7D
:1019A000DF91CF911F910F91BF90AF909F908F903B
:1019B00008954F925F926F927F928F929F92AF9213
:1019C000BF92CF92DF92EF92FF926B017C01B42E17
:1019D0009B01AC010E940422882319F082EB93E062
:1019E00027C026013701E89477F82FEF3FEF4FE744
:1019F0005FE7C301B2010E94042281110DC02FEFE5
:101A00003FEF4FE75FE7C301B2010E94211F1816A5
:101A10001CF486EB93E00CC02FEF3FEF4FE75FE441
:101A2000C701B6010E94AF21181684F48AEB93E037
:101A3000FF90EF90DF90CF90BF90AF909F908F90EE
:101A40007F906F905F904F900C94A1092FEF3FEF24
:101A50004FE75FECC701B6010E94211F87FDE6CF6B
:101A600020E030E0A901C701B6010E94211F87FFD5
:101A700009C08DE20E94D00B4C01F7FAF094F7F800
:101A8000F09402C0812C912CA12C60E070E080E0E9
:101A90009FE3AB1441F020E030E040E251E40E94CB
:101AA0000721A394F6CF9B01AC01C701B6010E94A8
:101AB0009B202B013C010E9480216B017C010E9434
:101AC000261F9B01AC01C301B2010E949A202B0189
:101AD0003C014AE0C701B6010E94980C7C01E80C69
:101AE000F91CBB2029F08EE20E94D00BE80EF91EF3
:101AF000DB2CDD2021F120E030E040E251E4C301A5
:101B0000B2010E94871F2B013C010E9480214B01E2
:101B1000A12CB12C4AE0C501B4010E94980CE80E3A
:101B2000F91EC501B4010E94261F9B01AC01C3012F
:101B3000B2010E949A202B013C01DA94DACFC7014E
:101B4000FF90EF90DF90CF90BF90AF909F908F90DD
:101B50007F906F905F904F9008950C94A109CF9261
:101B6000DF92EF92FF92CF93DF936C01990FEE0813
:101B7000FF08F7FE17C08DE20E94D00BEC0166272C
:101B80007727CB016C197D098E099F094AE00E94D5
:101B9000980C8C0F9D1FDF91CF91FF90EF90DF90FD
:101BA000CF9008954AE0C701B601DF91CF91FF9031
:101BB000EF90DF90CF900C94980C1F920F920FB67D
:101BC0000F9211240F900FBE0F901F9018951F9227
:101BD0000F920FB60F9211240BB60F922F933F93D3
:101BE0004F935F936F937F938F939F93AF93BF9325
:101BF000EF93FF938091B900887F803609F49CC0F1
:101C000068F5883209F45BC090F4803109F454C05F
:101C100038F4882309F4F6C0883009F44DC0F6C0C2
:101C2000883109F44CC0803209F45DC0EFC08034C3
:101C300009F468C048F4803309F455C0883309F0CA
:101C4000E5C080937D08D8C0803509F44FC0883541
:101C500009F45DC0883409F0D9C0D6C0883909F4C8
:101C6000C7C0A8F4883709F467C038F4883609F487
:101C700063C0803709F460C0C9C0883809F4B8C0AF
:101C8000803909F45FC0803809F0C0C05BC0803B78
:101C900009F486C038F4803A09F466C0883A09F439
:101CA0007FC0B4C0803C09F4A7C0883C09F4A4C03C
:101CB000883B09F48AC0AAC080917A0810C090912C
:101CC0007C0880917B08981770F5E0917C0881E092
:101CD0008E0F80937C08F0E0E75AF74F8081809365
:101CE000BB0085EC86C080937D088EC0E0917C08A7
:101CF00081E08E0F80937C088091BB00F0E0E75A72
:101D0000F74F808390917C0880917B086EC0E091B2
:101D10007C0881E08E0F80937C088091BB00F0E00E
:101D2000E75AF74F808380917E0881116DC081E072
:101D30008093790884EA61C083E080937F081092E1
:101D40005608CFCF80915608803208F051C0E091FC
:101D5000560881E08E0F809356088091BB00F0E01A
:101D6000EA5CF74F8083BDCF85EC8093BC00109276
:101D70007F0880915608803230F4E0915608F0E0F8
:101D8000EA5CF74F10826091560870E0E0913408E9
:101D9000F091350886E398E019951092560836C000
:101DA00084E080937F081092330810923208E0910B
:101DB0003008F0913108199580913208811105C0E1
:101DC00081E08093320810921008E091330881E09E
:101DD0008E0F80933308F0E0E05FF74F80818093AF
:101DE000BB009091330880913208981708F479CF9E
:101DF00085E88093BC000AC085EC8093BC001092FB
:101E00007F0804C010927D080E94E30BFF91EF91C0
:101E1000BF91AF919F918F917F916F915F914F9102
:101E20003F912F910F900BBE0F900FBE0F901F9000
:101E300018952091DE039091E003213208F049C00B
:101E400080917F088111FCCF32E030937F0860934E
:101E50007E083FEF30937D0810927C0820937B082A
:101E6000A0EFB7E049E558E0FA013E2F341B3217E6
:101E700018F43D913193F9CF10927A0820917A08A5
:101E8000990F922B90937A0890917908913061F490
:101E90001092790890917A089093BB009091BC00C1
:101EA00093FDF8CF95EC01C095EE9093BC00909116
:101EB0007F089230E1F390917D089F3F79F0809107
:101EC0007D08803241F080917D08803331F084E0DC
:101ED00005C081E003C082E001C083E01092DF030F
:101EE0001092DE031092E1030895CF93C82F81E092
:101EF0008093E10382E58093E0031092DF03109268
:101F0000DE0382EE93E00E94690C6C2F82EE93E078
:101F10000E94690C61E082EE93E00E94190F6AE072
:101F200070E080E090E0CF910C941F17EF92FF9249
:101F30001F93CF93DF93CDB7DEB72C970FB6F894EE
:101F4000DEBF0FBECDBF80917F088111FCCF81E045
:101F500080937F0880937E089FEF90937D08109276
:101F60007C0895E090937B0880937A0880917A08AA
:101F7000846A80937A0880917908813061F41092A4
:101F8000790880917A088093BB008091BC0083FD22
:101F9000F8CF85EC01C085EE8093BC0080917F086E
:101FA0008130E1F380917C08863018F410917C0830
:101FB00001C016E0A9E5B8E020E838E0F9018E2F6D
:101FC000821B811718F48D918193F9CF1092E1074C
:101FD0001093E007CE0101967C018091E10718176C
:101FE00049F082EE93E00E94250CF70181939193D2
:101FF0007F01F3CF89819A819093E3078093E20771
:102000008B819C819093E5078093E4078B859C8569
:102010009C013595279535952795A901437055273E
:102020002D813E81220F331F220F331F242B352B8E
:102030003093E7072093E6079C0174E035952795D8
:102040007A95E1F7A901437055272F813885220F32
:10205000331F220F331F242B352B3093E907209396
:10206000E8079C01F6E035952795FA95E1F7A90177
:102070004370552729853A85220F331F220F331FBE
:10208000242B352B3093EB072093EA079C0121701A
:102090003327F1E02F273093ED072093EC0721E061
:1020A00030E081FF02C020E030E03093EF07209362
:1020B000EE0760E080E02C960FB6F894DEBF0FBE0E
:1020C000CDBFDF91CF911F91FF90EF900C94750FD2
:1020D00090E0FC013197E231F10508F04EC088270D
:1020E000EE58FF4F8F4F0C949220809180008F7795
:1020F00003C0809180008F7D80938000089580913F
:102100008000877FF9CF84B58F7702C084B58F7D3B
:1021100084BD08958091B0008F7703C08091B00096
:102120008F7D8093B0000895809190008F7707C0D5
:10213000809190008F7D03C080919000877F809375
:10214000900008958091A0008F7707C08091A00033
:102150008F7D03C08091A000877F8093A0000895A9
:10216000809120018F7707C0809120018F7D03C06F
:1021700080912001877F8093200108951F93CF9342
:10218000DF93282F30E0F901E25CFC4F8491F901E4
:10219000E850FD4FD491F901EE54FD4FC491CC238A
:1021A000C9F0162F81110E946810EC2FF0E0EE0F9D
:1021B000FF1FE856FD4FA591B4918FB7F894111108
:1021C00005C09C91ED2FE095E92302C0EC91ED2B29
:1021D000EC938FBFDF91CF911F91089510927F08EC
:1021E00081E080937E081092790861E084E10E948A
:1021F000BE1061E085E10E94BE10E9EBF0E0808155
:102200008E7F808380818D7F808388E48093B80077
:1022100085E48093BC000895CF93DF9390E0FC01A8
:10222000E850FD4F2491FC01EE54FD4F849188232A
:1022300061F190E0880F991FFC01E258FD4FC591B4
:10224000D491FC01E856FD4FA591B491611109C0EC
:102250009FB7F8948881209582238883EC912E2360
:102260000BC0623061F49FB7F8943881822F80955B
:1022700083238883EC912E2B2C939FBF06C08FB7AE
:10228000F894E8812E2B28838FBFDF91CF9108959A
:10229000863308F0865390917B00282F2870977F13
:1022A000922B90937B008770806480937C00809158
:1022B0007A00806480937A0080917A0086FDFCCF5A
:1022C000809178002091790090E0922B0895FC0194
:1022D000538D448D252F30E0842F90E0821B930B8B
:1022E000541710F0CF96089501970895FC01918D31
:1022F000828D981761F0828DDF01A80FB11D5D9668
:102300008C91928D9F5F9F73928F90E008958FEFD5
:102310009FEF0895FC01918D828D981731F0828D89
:10232000E80FF11D858D90E008958FEF9FEF0895E0
:10233000FC01918D228D892F90E0805C9F4F821B44
:1023400091098F73992708958BE894E00E94981162
:1023500021E0892B09F420E0822F089588E295E09E
:102360000E94981121E0892B09F420E0822F089522
:1023700080E090E0892B21F00E94AE11811119C0FC
:1023800080E090E0892B41F080E090E0892B21F003
:102390000E940000811110C00E94A41181110FC081
:1023A00080E090E0892B81F00E94151781110AC00E
:1023B00008950E940000E4CF0E940000EDCF0E942B
:1023C0009618EECF0C9400000895089580E090E0F8
:1023D0000895FC01248131E03093E1032093E00370
:1023E0001092DF031092DE038485682B82EE93E067
:1023F0000E94690C61E082EE93E00C94190F0F9338
:102400001F93CF938C01C62F64600E94E9116C2F3B
:102410006B7FC8010E94E91183EC90E00197F1F70E
:10242000CF911F910F9108950F931F93CF93DF9337
:102430008C01C62FD62FD07FD1606D2F0E94E9115D
:102440006D2FC8010E94FF1180E1C89FB0011124C7
:10245000C62FC1606C2FC8010E94E9116C2FC80102
:102460000E94FF1181E090E0DF91CF911F910F91C9
:102470000895FC01A089B1898C91A689B78982FD54
:102480000FC09C91818D8F5F8F73228D821749F0D1
:10249000218DDF01A20FB11D5D969C93818F089560
:1024A0008C9108951F920F920FB60F9211240BB6C4
:1024B0000F922F933F934F935F936F937F938F93DD
:1024C0009F93AF93BF93EF93FF938BE894E00E94A9
:1024D0003912FF91EF91BF91AF919F918F917F91B1
:1024E0006F915F914F913F912F910F900BBE0F9085
:1024F0000FBE0F901F9018951F920F920FB60F925C
:1025000011240BB60F922F933F934F935F936F93CA
:102510007F938F939F93AF93BF93EF93FF9388E243
:1025200095E00E943912FF91EF91BF91AF919F9179
:102530008F917F916F915F914F913F912F910F906C
:102540000BBE0F900FBE0F901F901895FC01848D4D
:10255000DF01A80FB11DA35ABF4F2C91848D90E0CD
:1025600001968F739927848FA689B7892C93A089A8
:10257000B1898C9180648C93938D848D981306C05F
:102580000288F389E02D80818F7D808308951F92DA
:102590000F920FB60F9211240BB60F922F933F9309
:1025A0004F935F936F937F938F939F93AF93BF935B
:1025B000EF93FF938BE894E00E94A612FF91EF91B6
:1025C000BF91AF919F918F917F916F915F914F914B
:1025D0003F912F910F900BBE0F900FBE0F901F9049
:1025E00018951F920F920FB60F9211240BB60F92EF
:1025F0002F933F934F935F936F937F938F939F930B
:10260000AF93BF93EF93FF9388E295E00E94A612E9
:10261000FF91EF91BF91AF919F918F917F916F91BA
:102620005F914F913F912F910F900BBE0F900FBE76
:102630000F901F901895EF92FF920F931F93CF93D7
:10264000DF93EC0181E0888F9B8D8C8D981305C002
:10265000E889F989808185FD24C0F62E0B8D10E074
:102660000F5F1F4F0F731127E02E8C8DE8120CC0E7
:102670000FB607FCFACFE889F989808185FFF5CF8D
:10268000CE010E94A612F1CF8B8DFE01E80FF11D45
:10269000E35AFF4FF0820B8FEA89FB8980818062C9
:1026A00007C0EE89FF896083E889F98980818064A9
:1026B000808381E090E0DF91CF911F910F91FF9097
:1026C000EF900895CF93DF93EC01888D8823C9F0B4
:1026D000EA89FB89808185FD05C0A889B9898C912B
:1026E00086FD0FC00FB607FCF5CF808185FFF2CFC6
:1026F000A889B9898C9185FFEDCFCE010E94A612E1
:10270000E7CFDF91CF9108951F920F920FB60F92EE
:1027100011240BB60F922F933F934F935F936F93B8
:102720007F938F939F93AF93BF93CF93DF93EF9359
:10273000FF932091C60530E0F901E25CFC4F8491E3
:10274000F901E850FD4FD491F901EE54FD4FC491C9
:10275000CC23A1F081110E946810EC2FF0E0EE0F65
:10276000FF1FEC57FC4FA591B491EC91ED2331E0A4
:1027700020E009F430E0832F922F02C080E090E047
:102780002091CA053091CB052F5F3F4F3093CB0589
:102790002093CA052091C905253618F026E020931C
:1027A000C5052091C5052430D9F128F4223069F0FF
:1027B0002330D9F060C0253009F453C0263009F029
:1027C0005AC021E02093960653C0009709F053C0E9
:1027D0002091CA053091CB052436310508F443C059
:1027E000109296061092C9051DC08130910509F01E
:1027F00042C0E091C90521E02E0F2093C905F0E009
:102800002091CA053091CB05EE0FFF1FEB53FA4F15
:10281000308727831092CB051092CA0524E029C087
:102820000097B9F4E091C90521E02E0F2093C90566
:10283000F0E02091CA053091CB05EE0FFF1FEB535E
:10284000FA4F308727831092CB051092CA0523E0F8
:1028500010C02091CA053091CB052536310558F0BE
:1028600007C0009741F41092CB051092CA0503C02F
:1028700025E02093C5052091C8052223B9F0892BB6
:1028800051F48091C705882321F08091C70561E04C
:1028900009C02F9A0BC08091C705882331F0809121
:1028A000C70560E00E94BE1001C02F98FF91EF9114
:1028B000DF91CF91BF91AF919F918F917F916F9158
:1028C0005F914F913F912F910F900BBE0F900FBED4
:1028D0000F901F9018958F929F92AF92BF92CF92B8
:1028E000DF92EF92FF920F931F93CF93DF93EC0150
:1028F0006A017B0120E030E04FE753E4C701B601F5
:102900000E94871F4B015C0120E030E0A9010E947A
:10291000AF2118161CF4C501B40103C0C501B401F0
:1029200090580E9479218B0120E030E0A901C70175
:10293000B6010E94AF21181614F460E001C061E0F6
:1029400089810E94BE100F3F110509F014F4112770
:1029500002C00FEF10E0C88161E08C2F0E940C11C3
:102960000115110509F4B1C00F3F110509F4AFC0FD
:10297000EC2FF0E0E25CFC4FE4914E2F50E0FA01C6
:102980003197E231F10508F09DC08827EC57FF4FE1
:102990008F4F0C94922084B5806884BD07BDA7C07A
:1029A00084B5806284BD08BDA2C08091800080682B
:1029B00080938000109389000093880098C08091D4
:1029C000800080628093800010938B0000938A00C7
:1029D0008EC08091800088608093800010938D006D
:1029E00000938C0084C08091B00080688093B00018
:1029F0000093B3007CC08091B00080628093B000EF
:102A00000093B40074C0809190008068809390001F
:102A100010939900009398006AC0809190008062A2
:102A20008093900010939B0000939A0060C0809167
:102A3000900088608093900010939D0000939C000C
:102A400056C08091A00080688093A0008091A00073
:102A50008F7B8093A0001093A9000093A80047C02B
:102A60008091A00080628093A0001093AB0000933F
:102A7000AA003DC08091A00088608093A0001093C0
:102A8000AD000093AC0033C080912001806880933A
:102A90002001109329010093280129C08091200171
:102AA00080628093200110932B0100932A011FC0A4
:102AB0008091200188608093200110932D01009364
:102AC0002C0115C00038110514F460E001C061E06C
:102AD0008C2FDF91CF911F910F91FF90EF90DF909E
:102AE000CF90BF90AF909F908F900C94BE10DF91CD
:102AF000CF911F910F91FF90EF90DF90CF90BF90FB
:102B0000AF909F908F9008951F920F920FB60F92E3
:102B100011240BB60F922F933F934F935F936F93B4
:102B20007F938F939F93AF93BF93EF93FF93809186
:102B3000A00887FF05C0109285001092840016C07F
:102B40002091A008022E000C330B8091D30690E058
:102B5000281739075CF43091A00825E03203F00112
:102B60001124E956F94F808186FD15C08091A00897
:102B70008F5F8093A0082091A008022E000C330BD9
:102B80008091D30690E02817390794F48091A0082B
:102B90008C302CF10DC03091A0083203F0011124CB
:102BA000E956F94F808160E08F730E94BE10DECF3E
:102BB000809184009091850084349C4918F480E4CD
:102BC0009CE905C0809184009091850004969093C3
:102BD0008900809388008FEF8093A0082AC04091DD
:102BE0008400509185003091A00825E03203F00167
:102BF0001124E956F94F81819281840F951F90939A
:102C00008900809388003091A0083203F0011124DC
:102C1000E956F94F808186FF0CC03091A00832033D
:102C2000F0011124E956F94F808161E08F730E9411
:102C3000BE10FF91EF91BF91AF919F918F917F91C6
:102C40006F915F914F913F912F910F900BBE0F901D
:102C50000FBE0F901F9018958EBD00000DB407FE9B
:102C6000FDCF8EB50895CF93DF93EC0160E08881AE
:102C70000E94BE1088E90E942C1680E00E942C164B
:102C800080E00E942C1680E00E942C1680E00E94BA
:102C90002C1661E088810E94BE108BE891E00197BC
:102CA000F1F760E088810E94BE1080EE0E942C1631
:102CB00061E08881DF91CF910C94BE10AF92BF92FA
:102CC000CF92DF92EF92FF920F931F93CF93DF93F8
:102CD000CDB7DEB760970FB6F894DEBF0FBECDBF9D
:102CE0005C0160E0FC0180810E94BE1080E60E94D1
:102CF0002C168E010F5F1F4F7E01F1E1EF0EF11CCC
:102D0000680180E00E942C1690E0A0E0B0E0F6019F
:102D100081939193A193B1936F01EE15FF0589F70C
:102D200061E0F50180810E94BE1080E090E0DC014E
:102D3000F80141915191619171918F01BA2FA92FA1
:102D4000982F8827840F951FA61FB71FEE15FF0524
:102D500079F79C01AD0166277727CB01621B730BC6
:102D6000840B950B60960FB6F894DEBF0FBECDBFF7
:102D7000DF91CF911F910F91FF90EF90DF90CF9057
:102D8000BF90AF9008953FB7F8948091B0089091AC
:102D9000B108A091B208B091B30826B5A89B05C0B0
:102DA0002F3F19F00196A11DB11D3FBFBA2FA92FCA
:102DB000982F8827820F911DA11DB11DBC01CD0147
:102DC00042E0660F771F881F991F4A95D1F7089533
:102DD000CF92DF92EF92FF920F931F93CF93DF93E7
:102DE0006C017A018B01C0E0D0E0CE15DF0589F0DF
:102DF000D8016D918D01D601ED91FC910190F0818A
:102E0000E02DC6011995892B11F47E0102C021968F
:102E1000ECCFC701DF91CF911F910F91FF90EF9001
:102E2000DF90CF9008950E9454258EEE93E00E948B
:102E3000981121E0892B09F420E0822F08958F92C8
:102E40009F92AF92BF92CF92DF92EF92FF926B016F
:102E50007C010E94C3164B015C01C114D104E10442
:102E6000F104F1F00E94C316DC01CB018819990925
:102E7000AA09BB09883E9340A105B10570F321E082
:102E8000C21AD108E108F10888EE880E83E0981E86
:102E9000A11CB11CC114D104E104F10419F7DDCF68
:102EA000FF90EF90DF90CF90BF90AF909F908F906A
:102EB00008951F920F920FB60F9211242F933F93F4
:102EC0008F939F93AF93BF938091AC089091AD087F
:102ED000A091AE08B091AF083091AB0823E0230F6A
:102EE0002D3720F40196A11DB11D05C026E8230F42
:102EF0000296A11DB11D2093AB088093AC0890935E
:102F0000AD08A093AE08B093AF088091B00890913F
:102F1000B108A091B208B091B3080196A11DB11DEE
:102F20008093B0089093B108A093B208B093B3080F
:102F3000BF91AF919F918F913F912F910F900FBEB5
:102F40000F901F9018951F920F920FB60F92112499
:102F50000BB60F922F933F934F935F936F937F9393
:102F60008F939F93AF93BF93EF93FF938091A408A8
:102F70009091A508A091A608B091A708892B8A2B4B
:102F80008B2B59F18091A308E091A108F091A20840
:102F90009081892780838091A4089091A508A091B1
:102FA000A608B091A708181619061A061B060CF0F9
:102FB00056C08091A4089091A508A091A608B09150
:102FC000A7080197A109B1098093A4089093A508C7
:102FD000A093A608B093A70842C080910202EEE930
:102FE000F3E0E4919FEF90930202E230C9F050F4D5
:102FF000EE2399F0E13081F590916F009D7F9093E1
:103000006F002AC0E43019F1E0F0E53029F5909125
:1030100073009D7F909373001FC010926E001CC0C0
:10302000909170009D7F9093700091E09093B0001C
:103030009091B100987F94609093B1001092B3008A
:103040000BC0909171009D7F9093710005C090918D
:1030500072009D7F9093720060E00E94BE10FF910D
:10306000EF91BF91AF919F918F917F916F915F9100
:103070004F913F912F910F900BBE0F900FBE0F906D
:103080001F9018951F920F920FB60F9211240BB636
:103090000F922F933F934F935F936F937F938F93F1
:1030A0009F93AF93BF93EF93FF938EEE93E00E94B5
:1030B000A612FF91EF91BF91AF919F918F917F9158
:1030C0006F915F914F913F912F910F900BBE0F9099
:1030D0000FBE0F901F9018951F920F920FB60F9270
:1030E00011240BB60F922F933F934F935F936F93DF
:1030F0007F938F939F93AF93BF93EF93FF938EEE46
:1031000093E00E943912FF91EF91BF91AF919F918F
:103110008F917F916F915F914F913F912F910F9080
:103120000BBE0F900FBE0F901F901895E0E0F0E0DF
:103130001994CF92DF92EF92FF9269017A01AB016D
:10314000BC0186EB97E00E946B14B701A601705892
:1031500088EB97E0FF90EF90DF90CF900C946B148A
:103160008F929F92AF92BF92CF92DF92EF92FF9297
:103170000F931F93CF93DF938C01C0E0D0E06B01DE
:10318000770FEE08FF084A01550FAA08BB08C017C1
:10319000D10794F461E088E00E94BE10C701B60137
:1031A0000E941F1760E088E00E94BE10C501B401B4
:1031B0000E941F172196EBCFDF91CF911F910F91A6
:1031C000FF90EF90DF90CF90BF90AF909F908F9047
:1031D0000895CF93C0E08C2F0E944811813991400F
:1031E00024F081E090E00E940502CF5FC83099F79B
:1031F000CF910895CF92DF92EF92FF921F93CF93DA
:10320000DF93182FC0E0D0E0C12CD12C7601CA305A
:10321000D10539F1812F0E944811BC01990F880B0B
:10322000990B0E94281F26EA3BE944EC5BEB0E94C5
:10323000871F9B01AC016DEF76EF8DE290E40E9459
:10324000B4212DE73FE34BEA52E40E94871F9B0124
:10325000AC01C701B6010E949B206B017C01219645
:10326000D6CF20E030E040E251E4C701B6010E9431
:1032700007216B017C0142E00E94D90C0E94B30936
:10328000C701B601DF91CF911F91FF90EF90DF90C2
:10329000CF90089540E050E0BA0186EB97E00E949D
:1032A0006B1440E050E060E070E888EB97E00E942B
:1032B0006B148AEB97E00E9433168CEB97E00C942A
:1032C00033160F931F93CF93DF930E94960FC0E0A6
:1032D000D0E000E010E00E94960F8091EC07909102
:1032E000ED07892B09F03FC00E94960F64E670E05D
:1032F00080E090E00E941F1740E050E0BA0186EBAA
:1033000097E00E946B1440E050E060E070E888EBCA
:1033100097E00E946B140E94960F8091EE079091A7
:10332000EF07019709F421960E94960F8091EE070E
:103330009091EF07892BA1F0CA30D10564F244E6E1
:1033400050E068EC70E085E090E00E94B0180E94C8
:103350004A19F801199581E090E00E940502BBCF5F
:10336000C0E0D0E0B8CFDF91CF911F910F910895C9
:103370004F925F926F927F928F929F92AF92BF9285
:10338000CF92DF92EF92FF926C018AEB97E00E945E
:1033900033168CEB97E00E94331646010D2C000C7F
:1033A000AA08BB0826E9C21A25E0D20A0D2C000C97
:1033B000EE08FF0884E6482E512C612C712C8AEB14
:1033C00097E00E945E169B01AC0188279927DC01DB
:1033D000821B930BA40BB50B88159905AA05BB0599
:1033E0000CF054C08AEB97E00E945E169B01AC0182
:1033F00088279927DC01821B930BA40BB50B863918
:103400009540A105B10564F48AEB97E00E945E1631
:1034100090958095709561957F4F8F4F9F4F1AC003
:103420008AEB97E00E945E169B01AC0188279927E2
:10343000DC01821B930BA40BB50BC816D906EA0658
:10344000FB06ECF48AEB97E00E945E16680D791D8E
:103450008A1D9B1DA30192010E944520CA01B9014A
:103460000E94281F29E23CE54FE05DE30E94871F90
:103470002DEC3CEC4CEC5DE30E949B2004C06DEC19
:103480007CEC8CEC9EE30E940E0A99CF40E050E069
:10349000BA0186EB97E00E946B1440E050E060E0D8
:1034A00070E888EB97E00E946B148AEB97E00E942B
:1034B00033168CEB97E00E94331664E670E080E0F0
:1034C00090E0FF90EF90DF90CF90BF90AF909F90F3
:1034D0008F907F906F905F904F900C941F17109279
:1034E000E5031092E40388EE93E0A0E0B0E080935F
:1034F000E6039093E703A093E803B093E9032DE07C
:1035000032E03093E3032093E2031092F103109230
:10351000F0038093F2039093F303A093F403B0932A
:10352000F5032FE132E03093EF032093EE0345E300
:1035300051E05093FB034093FA0344E351E050936E
:10354000FD034093FC0340E351E05093FF0340939D
:10355000FE0341E351E0509301044093000442E331
:1035600051E0509303044093020446E351E050932A
:10357000050440930404109207041092080410926A
:10358000090410920A0410928E0410928D04809304
:103590008F0490939004A0939104B093920430937D
:1035A0008C0420938B0445ED50E050939804409395
:1035B000970444ED50E050939A044093990440EDF1
:1035C00050E050939C0440939B0441ED50E0509395
:1035D0009E0440939D0442ED50E05093A00440931C
:1035E0009F0446ED50E05093A2044093A104109232
:1035F000A4041092A5041092A6041092A70410929D
:103600002B0510922A0580932C0590932D05A093ED
:103610002E05B0932F05309329052093280585ECBE
:1036200090E0909335058093340584EC90E090937E
:1036300037058093360580EC90E0909339058093B0
:10364000380581EC90E090933B0580933A0582EC3D
:1036500090E090933D0580933C0586EC90E090933C
:103660003F0580933E05109241051092420510924D
:1036700043051092440586E38093BE0787E3809359
:10368000BF0788E38093C00789E38093C1078BE17C
:103690008093C2078DE18093C3078AE18093C407BA
:1036A0008CE18093C50784E08093C60787E0809310
:1036B000C7071092C80784EB8093C90786E18093FF
:1036C000CA0788E18093CB0787E18093CC0789E123
:1036D0008093CD07E091D306EC3020F08FEF8093FC
:1036E000CE0710C081E08E0F8093D306E093CE0703
:1036F00025E0E29FF0011124E956F94F88EB9BE0A9
:1037000092838183E091D306EC3020F08FEF809399
:10371000CF0710C081E08E0F8093D306E093CF07D0
:1037200085E0E89FF0011124E956F94F88EB9BE012
:10373000928381838CE080939D0784E280939E072F
:1037400086E080939F0785E08093A0078FE18093B8
:10375000A1078EE18093A20783E28093A30782E210
:103760008093A40785E48093A50784E48093A6074B
:1037700080E48093A9071092AE071092AF071092D1
:10378000B0071092B1071092B2071092B3071092CF
:10379000B4071092B507EFEDF6E08FEF9FEFDC0175
:1037A0001282138214821582168217821086118665
:1037B00083879487A587B6878787908BA18BB28BE9
:1037C000128611821082739627E0ED39F20741F7D5
:1037D0008DE090E00E943E23FC011382128281E37F
:1037E00092E091838083118687E2848384E18287DB
:1037F00084E083871486F093DC06E093DB06109266
:10380000DD061092DE0685E28093C6051092C8059B
:103810001092D5061092D4061092D7061092D606B2
:103820001092D9061092D80661E070E080E090E036
:103830000E946B24009789F09093D5068093D4065C
:103840001092D7061092D6062091D8063091D9064C
:10385000232BC1F4FC01108215C08091D4069091F5
:10386000D506009711F00E94D3231092D50610922E
:10387000D4061092D9061092D8061092D70610924C
:10388000D60608951092D9061092D80661EB73E01F
:103890000C9462258091D4069091D5060C94D32384
:1038A000789484B5826084BD84B5816084BD85B51B
:1038B000826085BD85B5816085BD80916E00816027
:1038C00080936E00109281008091810082608093CD
:1038D00081008091810081608093810080918000CF
:1038E0008160809380008091B10084608093B100FA
:1038F0008091B00081608093B000809191008260DF
:1039000080939100809191008160809391008091DB
:1039100090008160809390008091A10082608093EC
:10392000A1008091A10081608093A1008091A000FE
:1039300081608093A00080912101826080932101A9
:10394000809121018160809321018091200181601B
:103950008093200180917A00846080937A00809126
:103960007A00826080937A0080917A0081608093EF
:103970007A0080917A00806880937A001092C1006A
:103980000E94790961E080919E070E940C1160E01D
:1039900080919E070E94BE1060E080919D070E946A
:1039A0000C1182EE93E09093A8078093A7071092E2
:1039B000E1071092E0071092DF031092DE030E94ED
:1039C000EE1080E090E1A0E0B0E08093AA07909331
:1039D000AB07A093AC07B093AD078AE090E0A0E0FE
:1039E000B0E08093AE079093AF07A093B007B09379
:1039F000B10780E090E0A0E0B0E48093B20790933C
:103A0000B307A093B407B093B50760E070E185E019
:103A10000E94C3096FE979E380E00E94C309CAEB01
:103A2000D7E0C12CD12CE12CF12C67EE662E62E0A0
:103A3000762E7DE2872E73E0972EEBECAE2EE7E03C
:103A4000BE2EC7018356984F2C01FC0194818281C0
:103A500086010356184FF801818F928F61E00E9412
:103A60000C1161E0F801828D0E940C11F201908529
:103A700086818883F801968F61E00E940C1160E0D6
:103A8000F801868D0E940C1161E088810E94BE10B1
:103A90001FB7F8948091A808811125C0F301849183
:103AA000F4019491E82FF0E0EE0FFF1FE258FD4F74
:103AB000A591B4918C91982321F461E085E30E9453
:103AC000BE1061E085E30E940C118CB580618CBD55
:103AD0008CB580648CBD61E084E30E940C1161E0D0
:103AE00083E30E940C118091A8088F5F8093A8083F
:103AF0001FBFC5010197F1F760E088810E94BE10E9
:103B000088E80E942C1683E00E942C1661E08881D0
:103B10000E94BE10C5010197F1F7CE010E94331635
:103B2000F2E0CF0ED11C2296EA94EF2821F0EE2489
:103B3000E394F12C86CFC2ECD7E01C2F1C5F60E031
:103B400089910E940C111C13FACF01ED17E0CEEC05
:103B5000D7E095E0C92E2CE0E22E32E0B32EDC2E29
:103B6000D394D394FE013897F08088818C3008F08C
:103B700044C061E08F2D0E940C118881C89EF00125
:103B80001124E956F94F9F2D9F732081207CF22E3E
:103B9000F92AF082138214826E2D0E9486209CE006
:103BA000899FA001112420E030E0B901640F751F46
:103BB000C69EF001C79EF00D1124E956F94F908181
:103BC00096FD12C02F5F3F4F2C30310571F78111E8
:103BD0000BC010928000B09281001092850010926C
:103BE0008400B6BAB0926F00E881CE9EF001112435
:103BF000E956F94F808180648083FE01329790817D
:103C000032978081F80131978083F801908360E0DA
:103C10000E940C1161E0F80180810E940C1160E0AB
:103C2000F80180810E94BE1021960E5F1F4FDC12AA
:103C300099CFF8941092200189E08093210180E2CD
:103C400093E090932901809328011092250110920E
:103C5000240182E08093730078948093C5051092CC
:103C6000C9058091C60560E00E940C111092E10721
:103C70001092E0071092DF031092DE030E94EE1014
:103C800060EF85E50E94750F6BEF80E00E94750F75
:103C90000E94960F0E94790961E08EE20E940C1149
:103CA00061E08EE20E94BE1000E010E082E0E82EAB
:103CB000F12C0E94960F8091EE079091EF070197EB
:103CC00021F58091EC079091ED07C0E0D0E00197DD
:103CD000F1F48091EA079091EB07873B9340BCF0A9
:103CE000219664E670E080E090E00E941F17CA30E1
:103CF000D10579F740E050E060E177E281E090E0C3
:103D00000E94B018F8011995E4CFC0E0D0E080918E
:103D1000EE079091EF07019709F053C08091EC07EF
:103D20009091ED07892B09F04CC00E94960F80916D
:103D3000EE079091EF07019769F46AE070E080E088
:103D400090E00E941F170E94960F8EEB93E00E9456
:103D5000B709EDCF0E94960F88EC93E00E94B70957
:103D60008091A9089091AA08009759F481E090E009
:103D70009093AA088093A90840E050E064EF71E0B6
:103D80000DC08130910569F4F092AA08E092A9086B
:103D900046E950E064EF71E082E090E00E94B018E4
:103DA00002C0029719F382ED93E00E94AD0D80915D
:103DB000A9089091AA080E94AF0D81EB93E00E94A0
:103DC000B7090E94960F8091A9089091AA08892BA3
:103DD00089F562E370E080E090E00E941F170E9486
:103DE000B81167CF8091EC079091ED07019789F7A3
:103DF0000E94960F219664E670E080E090E00E94B9
:103E00001F17CA30D105B1F448EC50E068EE73E0FA
:103E100081E090E00E94B01844E650E069EE70E066
:103E200083E090E00E94B0188091A9089091AA08C0
:103E30000E9405028091EE079091EF07892B91F285
:103E4000C8CF0E94631F08F481E00895E89409C078
:103E500097FB3EF490958095709561957F4F8F4FBD
:103E60009F4F9923A9F0F92F96E9BB279395F695D3
:103E7000879577956795B795F111F8CFFAF4BB0F51
:103E800011F460FF1BC06F5F7F4F8F4F9F4F16C0B5
:103E9000882311F096E911C0772321F09EE8872F3F
:103EA000762F05C0662371F096E8862F70E060E0FB
:103EB0002AF09A95660F771F881FDAF7880F969574
:103EC000879597F90895990F0008550FAA0BE0E818
:103ED000FEEF16161706E807F907C0F012161306CC
:103EE000E407F50798F0621B730B840B950B39F40C
:103EF0000A2661F0232B242B252B21F408950A2672
:103F000009F4A140A6958FEF811D811D08950E949F
:103F10009A1F0C940B200E94FD1F38F00E94042071
:103F200020F0952311F00C94F41F0C94FA1F112427
:103F30000C943F200E941C2070F3959FC1F3950FB5
:103F400050E0551F629FF001729FBB27F00DB11D1D
:103F5000639FAA27F00DB11DAA1F649F6627B00DAD
:103F6000A11D661F829F2227B00DA11D621F739F96
:103F7000B00DA11D621F839FA00D611D221F749FA4
:103F80003327A00D611D231F849F600D211D822FEB
:103F9000762F6A2F11249F5750409AF0F1F0882312
:103FA0004AF0EE0FFF1FBB1F661F771F881F91503F
:103FB0005040A9F79E3F510580F00C94F41F0C94DB
:103FC0003F205F3FE4F3983ED4F38695779567955D
:103FD000B795F795E7959F5FC1F7FE2B880F911D69
:103FE0009695879597F9089597F99F6780E870E00F
:103FF00060E008959FEF80EC089500240A9416165F
:10400000170618060906089500240A9412161306C6
:10401000140605060895092E0394000C11F4882354
:1040200052F0BB0F40F4BF2B11F460FF04C06F5F70
:104030007F4F8F4F9F4F089557FD9058440F551F46
:1040400059F05F3F71F04795880F97FB991F61F01A
:104050009F3F79F087950895121613061406551F91
:10406000F2CF4695F1DF08C0161617061806991FFD
:10407000F1CF86957105610508940895E894BB27F2
:1040800066277727CB0197F90895052E97FB1EF435
:1040900000940E945C2057FD07D00E94642007FC1A
:1040A00003D04EF40C945C205095409530952195AA
:1040B0003F4F4F4F5F4F0895909580957095619554
:1040C0007F4F8F4F9F4F0895A1E21A2EAA1BBB1B53
:1040D000FD010DC0AA1FBB1FEE1FFF1FA217B307D4
:1040E000E407F50720F0A21BB30BE40BF50B661FEA
:1040F000771F881F991F1A9469F7609570958095AE
:1041000090959B01AC01BD01CF010895991B79E009
:1041100004C0991F961708F0961B881F7A95C9F757
:1041200080950895EE0FFF1F881F8BBF0790F691B3
:10413000E02D19945058BB27AA270E94B2200C9456
:104140000B200E94FD1F38F00E94042020F039F45B
:104150009F3F19F426F40C94FA1F0EF4E095E7FB48
:104160000C94F41FE92F0E941C2058F3BA17620721
:1041700073078407950720F079F4A6F50C943E2088
:104180000EF4E0950B2EBA2FA02D0B01B901900172
:104190000C01CA01A0011124FF27591B99F0593FB6
:1041A00050F4503E68F11A16F040A22F232F342FFE
:1041B0004427585FF3CF469537952795A795F0404C
:1041C0005395C9F77EF41F16BA0B620B730B840B61
:1041D000BAF09150A1F0FF0FBB1F661F771F881F19
:1041E000C2F70EC0BA0F621F731F841F48F4879571
:1041F00077956795B795F7959E3F08F0B0CF939563
:10420000880F08F09927EE0F9795879508950E94DB
:104210001B210C940B200E94042058F00E94FD1FCB
:1042200040F029F45F3F29F00C94F41F51110C94D5
:104230003F200C94FA1F0E941C2068F39923B1F3CD
:10424000552391F3951B550BBB27AA2762177307BC
:10425000840738F09F5F5F4F220F331F441FAA1F50
:10426000A9F335D00E2E3AF0E0E832D0915050400C
:10427000E695001CCAF72BD0FE2F29D0660F771FBA
:10428000881FBB1F261737074807AB07B0E809F0A0
:10429000BB0B802DBF01FF2793585F4F3AF09E3F25
:1042A000510578F00C94F41F0C943F205F3FE4F329
:1042B000983ED4F3869577956795B795F7959F5F68
:1042C000C9F7880F911D9695879597F90895E1E0B4
:1042D000660F771F881FBB1F621773078407BA0713
:1042E00020F0621B730B840BBA0BEE1F88F7E0956E
:1042F00008950E9480216894B1110C943F20089584
:104300000E94242088F09F5798F0B92F9927B75121
:10431000B0F0E1F0660F771F881F991F1AF0BA9569
:10432000C9F714C0B13091F00E943E20B1E0089569
:104330000C943E20672F782F8827B85F39F0B93F5B
:10434000CCF3869577956795B395D9F73EF490951C
:104350008095709561957F4F8F4F9F4F08950E9474
:10436000631F08F48FEF0895FA01EE0FFF1F3096D8
:1043700021053105A1F16115710561F48038BFE3B4
:104380009B0749F168949038810561F08038BFEF50
:104390009B0741F099234AF5FF3FE10531052105CF
:1043A00019F1E8940894E795D901AA2329F4AB2FD1
:1043B000BE2FF85FD0F310C0FF5F70F4A695E0F752
:1043C000F73950F019F0FF3A38F49F779F930DD0EA
:1043D0000F9007FC9058089546F00C94FA1F60E087
:1043E00070E080E89FE308954FE79F775F934F93D6
:1043F0003F932F930E94B4222F913F914F915F9151
:104400000E94871F0C9411220E94631F880B990B36
:10441000089529F416F00C94F41F0C943E200C948B
:10442000FA1F0E942420A8F39638A0F707F80F92ED
:10443000E8942BE33AEA48EB5FE70E949D1F0F9256
:104440000F920F924DB75EB70F920E94FC22ECE2E2
:10445000F1E00E9443224F915F91EF91FF91E5952A
:10446000EE1FFF1F49F0FE57E0684427EE0F441F80
:10447000FA95E1F74195550B0E9476220F9007FEC1
:104480000C946A220895DF93CF931F930F93FF92AA
:10449000EF92DF927B018C01689406C0DA2EEF0167
:1044A0000E949A1FFE01E894A591259135914591AE
:1044B0005591A6F3EF010E94B220FE019701A801D9
:1044C000DA9469F7DF90EF90FF900F911F91CF91F1
:1044D000DF9108959B01AC0160E070E080E89FE30C
:1044E0000C9407210C94F41F0C9430230E94242078
:1044F000D8F39923C9F3940F511DA3F39150504061
:1045000094F059F0882332F0660F771F881F91507E
:104510005040C1F79E3F51052CF7880F911D96958D
:10452000879597F908955F3FACF0983E9CF0BB27C4
:10453000869577956795B79508F4B1609395C1F71F
:10454000BB0F58F711F460FFE8CF6F5F7F4F8F4FBD
:104550009F4FE3CF0C943F2016F00C9430230C9423
:10456000FA1F68940C94F41F0E942420A8F3992346
:10457000C1F3AEF3DF93CF931F930F93FF92C92F35
:10458000DD2788232AF02197660F771F881FDAF727
:1045900020E030E040E85FEB9FE3883920F0803E88
:1045A00038F021968F770E949B20E4E5F1E004C06B
:1045B0000E949B20E1E8F1E00E9443228B01BE01B2
:1045C000EC01FB2E6F5771097595771F880B990BBE
:1045D0000E94281F28E132E741E35FE30E949A1F0F
:1045E000AF2D9801AE01FF900F911F91CF91DF91F8
:1045F0000E94B2200C940B20FA01DC01AA0FBB1F11
:104600009B01AC01BF5728F4222733274427507859
:1046100020C0B75190F4AB2F0024469537952795CD
:10462000011CA395D2F3002071F0220F331F441F09
:10463000B395DAF30ED00C949A2061307105A0E89E
:104640008A07B94630F49B01AC0166277727882793
:104650009078309621F020833183428353830895EC
:104660009F3F31F0915020F4879577956795B795E6
:10467000880F911D9695879597F90895CF93DF93AD
:104680008230910510F482E090E0E091B608F0915C
:10469000B70820E030E0C0E0D0E0309711F1408171
:1046A000518148175907C0F04817590761F48281B2
:1046B0009381209719F09B838A832BC09093B7082E
:1046C0008093B60826C02115310519F0421753070B
:1046D00018F49A01BE01DF01EF010280F381E02DA1
:1046E000DCCF2115310509F1281B390B24303105A8
:1046F00090F412968D919C9113976115710521F09C
:10470000FB019383828304C09093B7088093B6081B
:10471000FD01329644C0FD01E20FF31F8193919396
:10472000225031092D933C933AC02091B408309126
:10473000B508232B41F420910502309106023093F5
:10474000B5082093B408209103023091040221158A
:10475000310541F42DB73EB7409107025091080250
:10476000241B350BE091B408F091B508E217F3076C
:10477000A0F42E1B3F0B2817390778F0AC014E5FD1
:104780005F4F2417350748F04E0F5F1F5093B50851
:104790004093B4088193919302C0E0E0F0E0CF0130
:1047A000DF91CF9108950F931F93CF93DF930097DD
:1047B00009F48CC0FC013297138212820091B60872
:1047C0001091B7080115110581F420813181820F04
:1047D000931F2091B4083091B5082817390779F54F
:1047E000F093B508E093B40871C0D80140E050E000
:1047F000AE17BF0750F412962D913C911397AD015F
:104800002115310509F1D901F3CF9D01DA01338377
:10481000228360817181860F971F8217930769F445
:10482000EC0128813981260F371F2E5F3F4F3183DE
:1048300020838A819B8193838283452B29F4F09383
:10484000B708E093B60842C01396FC93EE93129714
:10485000ED01499159919E01240F351FE217F3078D
:1048600071F480819181840F951F029611969C931B
:104870008E938281938113969C938E931297E0E09E
:10488000F0E0D80112968D919C911397009719F042
:10489000F8018C01F6CF8D919C9198012E5F3F4FCE
:1048A000820F931F2091B4083091B508281739075B
:1048B00069F4309729F41092B7081092B60802C034
:1048C000138212821093B5080093B408DF91CF9140
:1048D0001F910F9108956F927F928F929F92AF9246
:1048E000BF92CF92DF92EF92FF920F931F93CF93DD
:1048F000DF93EC01009789F4CB01DF91CF911F91F9
:104900000F91FF90EF90DF90CF90BF90AF909F906E
:104910008F907F906F900C943E23FC01E60FF71F61
:104920009C0122503109E217F30708F4ACC0D90109
:104930000D911C91119706171707B0F0053011055E
:1049400008F49FC0C80104978617970708F499C018
:1049500002501109061B170B019311936D937C9361
:10496000CF010E94D3238DC05B01A01AB10A4C0174
:10497000800E911EA091B608B091B70840E050E0BB
:10498000E12CF12C109709F44AC0A815B905D1F50E
:104990006D907C901197630182E0C80ED11CCA14FF
:1049A000DB0480F1A3014A195B096A0182E0C80EA9
:1049B000D11C1296BC9012971396AC91B5E0CB1611
:1049C000D10440F0B282A38351834083D9016D9317
:1049D0007C930AC00E5F1F4FC301800F911FF90126
:1049E00091838083EB2DFA2FE114F10431F0D7018C
:1049F0001396FC93EE93129744C0F093B708E0939C
:104A0000B6083FC08D919C9111974817590708F43B
:104A1000AC017D0112960D90BC91A02DB3CF809179
:104A2000B4089091B50888159905E1F44617570721
:104A3000C8F48091030290910402009741F48DB76D
:104A40009EB74091070250910802841B950BE8170E
:104A5000F907C8F4F093B508E093B408F90171833D
:104A600060830FC0CB010E943E237C01009759F068
:104A7000A801BE010E945925CE010E94D323C7017F
:104A800004C0CE0102C080E090E0DF91CF911F9181
:104A90000F91FF90EF90DF90CF90BF90AF909F90DD
:104AA0008F907F906F90089581E090E0F8940C943F
:104AB0006925FB01DC0102C001900D92415050407C
:104AC000D8F70895FB01DC0101900D920020E1F779
:104AD000089511E0C1EDD1E000E006C0802FFE0195
:104AE0000E9492202196011DC23DD10780E0080757
:064AF000A9F7F894FFCFC6
:104AF6000100FF0000B808200000000000690C3922
:104B06000CE611150CDB0B250C160C000000001B27
:104B160013E81667116213981176118A11000000C6
:104B2600001412E816E611E5116D6F646520312058
:104B360073656C656374696F6E6E6500626F75632D
:104B46006C65203100736F7274696520626F7563DE
:104B56006C652032004A65207375697320736F7225
:104B6600746965206465206C612063616C69737388
:104B760020646520666F6E6374696F6E207069735A
:104B860020736F72746965203D2033002061333ACB
:104B960020002061343A20002061353A200020614F
:104BA600363A20004A652063686572636865207539
:104BB6006E65206C69676E652028736F727469650F
:104BC600203329006C69676E652074726F7576658F
:104BD6000020536F727469653A20006D6F6465201A
:104BE600322073656C656374696F6E6E6500097358
:104BF600746177703A2000092000646972656374F5
:104C0600696F6E3A20005354415750004A27617627
:104C1600616E63652043522A53530042656565659C
:104C260065702042656565656570204265656565E8
:104C3600657000547269626F726420746F75746572
:104C4600202364726F697465004261626F7264202A
:104C5600746F7574652023476175636865007465B4
:104C66006D70203D20002A2A2A2A2A2A2A2A2A2A40
:104C76002A2A2A2A2A2A2A2A2A2A2A006431203A71
:104C86002000096E6F7576656C6C652064697374B7
:104C9600616E636500626F75636C65206431000D3B
:104CA6000A006E616E00696E66006F7666004320CC
:104CB600656E666F6E636500432072656C6163683E
:0A4CC6006500094D6F6465200000D1
:00000001FF
