:100000000C9491010C94C2010C94C2010C94C20195
:100010000C94C2010C94C2010C94C2010C94C20154
:100020000C94C2010C94AA030C94AA030C94AA0386
:100030000C94C2010C944E060C94C2010C94C201A3
:100040000C94C2010C945E0B0C94C2010C94C2017E
:100050000C94C2010C94C2010C94C2010C940406CD
:100060000C94C2010C9456080C94CB080C94C20159
:100070000C94C2010C94C2010C94C2010C94C201F4
:100080000C94C2010C94C2010C94C2010C94C201E4
:100090000C94C2010C94C2010C94C2010C94B403E0
:1000A0000C94C2010C94C2010C94C2010C94C201C4
:1000B0000C94C2010C94C2010C94C2010C945E0910
:1000C0000C94C2010C94C2010C94C2010C942C0833
:1000D0000C94A1080C94C2010C9417070C94ED0623
:1000E0000C94C20101050405F304F704FD043B056B
:1000F00008050C05120516051A0520052405280516
:100100003B052E0532053605A50AAA0AAF0AB90A2B
:10011000C30A3C0BCD0AD50ADD0AE70AF10AFB0A3D
:100120000A0B140B3C0B1E0B280B320B0C94140205
:100130000C9416050C94140B0C94F5080C94B40C48
:100140000C9464070C943C090C9436050C94EE074F
:100150000C9479110C94CD050C943C0B0C94050275
:100160000C941A050C94B90A0C94AF0A0C943B0534
:100170000C94A50A0C94F10A0C9472070C94FD04DB
:100180000C9424050C9428050C9412050C94D50AA3
:100190000C9432050C940A0B0C94CD0A0C94DD0AD5
:1001A0000C9401050C94AA0A0C94280B0C940C05D1
:1001B0000C9404050C94C2070C944C020C942E056C
:1001C0000C94FB0A0C941E0B0C94F7040C94200561
:1001D0000C9441070C94F7010C941C020C94C30A74
:1001E0000C94320B0C94E70A0C9408050C94C3078A
:1001F0000C9450070C94F3040C94F60100002100B9
:10020000240027002A002D003000330001010000E7
:10021000040107010A0100002200250028002B002C
:100220002E003100340002010000050108010B011D
:1002300005050505070508080808020202020A0A62
:100240000808040404040101010101010101030380
:10025000030303030303040707070C0C0C0C0C0C2B
:100260000C0C0202020206060606060606060B0B28
:100270000B0B0B0B0B0B0102102020080810204069
:10028000102040800201020108040201010204085A
:1002900010204080804020100804020180040201E8
:1002A0008040201008040201080402010102040831
:1002B00010204080010204081020408000000A0B3A
:1002C00002090C0D0E0807030401000000000000E5
:1002D000000000000000000000000000000000001E
:1002E00000000000000000001211100000000000DB
:1002F00000000000000000000000000000000000FE
:10030000000002000020002300260029002C002FFE
:100310000032000001000003010601090100B40CD5
:10032000791111241FBECFEFD1E2DEBFCDBF00E0B7
:100330000CBF12E0A0E0B2E0E2EAFAE200E00BBF9C
:1003400002C007900D92AC36B107D9F727E0ACE6B2
:10035000B2E001C01D92A332B207E1F711E0C0E99B
:10036000D1E000E006C021970109802FFE010E9424
:10037000D112CF38D10780E00807A9F70E948F0E6D
:100380000C943F150C94000085ED8093BC00809187
:10039000BC0084FDFCCF1092700208954091890644
:1003A000262F30E0240F311D21323105DCF420915D
:1003B00070022430C9F4FC0180E090E0861758F404
:1003C000309189062191DC01A959B94FA30FB11DC4
:1003D0002C930196F3CF80918906680F609389066C
:1003E00080E0089581E0089582E00895089581E015
:1003F00090E030916D0220916C02321710F480E091
:1004000090E0919581959109089580916D02909168
:100410006C02891730F48F5F80936D0280E090E06A
:1004200008958FEF9FEF089580916C0290E02091E6
:100430006D02821B91090895CF92DF92EF92FF9295
:100440000F931F93CF93DF937C01262F972F8A0161
:1004500080917102882391F0C62FD72F6E01C40EB0
:10046000D51ECC15DD0571F06991D701ED91FC9198
:100470000190F081E02DC7011995F3CF642F822FF1
:100480000E94CE01C801DF91CF911F910F91FF9083
:10049000EF90DF90CF900895CF93DF931F92CDB769
:1004A000DEB76983209171022223D1F0209174027A
:1004B000203240F021E030E0FC013383228380E0F1
:1004C00090E015C080917202E82FF0E0EC52F94FF5
:1004D000998190838F5F809372028093740205C02C
:1004E00061E0CE0101960E94CE0181E090E00F9084
:1004F000DF91CF910895009769F0FC0101900020F1
:10050000E9F73197AF01481B590BBC018BEB93E026
:100510000C94CD0580E090E00895209174029091B4
:100520007302213208F04AC0809170028111FCCF21
:1005300032E03093700231E030936F023FEF30933E
:10054000D3061092D2062093D106A4EDB6E041EB7B
:1005500056E0FA013E2F341B321718F43D913193C7
:10056000F9CF1092B0062091B006990F922B90937C
:10057000B00690916E02913061F410926E029091EB
:10058000B0069093BB009091BC0093FDF8CF95EC22
:1005900001C095EE9093BC00909170029230E1F30F
:1005A0009091D3069F3F79F08091D306803241F03D
:1005B0008091D306803331F084E005C081E003C030
:1005C00082E001C083E010927202109274021092D5
:1005D00071020895EF92FF921F93CF93DF931F92C2
:1005E000CDB7DEB7162F90E3E92E96E0F92ED701AE
:1005F0001C969C911C9721E02093710290937302AA
:1006000010927202109274021A960D90BC91A02D55
:10061000ED91FC9111970190F081E02D682FCD01B3
:1006200079831995F70182859385DC01ED91FC9121
:100630000190F081E02D7981672F1995F70182856E
:100640009385DC01ED91FC910190F081E02D612F0B
:1006500019950F90DF91CF911F91FF90EF900C941F
:100660008D028F929F92AF92BF920F931F93CF9361
:10067000DF93CDB7DEB7A1970FB6F894DEBF0FBEFC
:10068000CDBF19A2423008F44AE08E010F5D1F4F22
:10069000842E912CA12CB12CA50194010E94A312AF
:1006A000E62FB901CA0101501109EA3014F4E05DE6
:1006B00001C0E95CD801EC93232B242B252B61F797
:1006C000C8010E947B02A1960FB6F894DEBF0FBE50
:1006D000CDBFDF91CF911F910F91BF90AF909F90B1
:1006E0008F900895E091BB03F091BC030190F081DD
:1006F000E02D682F8BEB93E01994CF92DF92EF926D
:10070000FF92CF93DF936B017C0197FF12C08DE2C4
:100710000E947203EC0166277727CB016C197D09D3
:100720008E099F094AE00E9431037C01EC0EFD1EF8
:1007300004C04AE00E9431037C0187E392E00E94FA
:100740007B028E0D9F1DDF91CF91FF90EF90DF9088
:10075000CF9008951F920F920FB60F9211240F9011
:100760000FBE0F901F9018951F920F920FB60F9209
:1007700011240BB60F922F933F934F935F936F9378
:100780007F938F939F93AF93BF93EF93FF9380914A
:10079000B900887F803609F49CC068F5883209F476
:1007A0005BC090F4803109F454C038F4882309F414
:1007B000F6C0883009F44DC0F6C0883109F44CC049
:1007C000803209F45DC0EFC0803409F468C048F499
:1007D000803309F455C0883309F0E5C08093D3060F
:1007E000D8C0803509F44FC0883509F45DC088341D
:1007F00009F0D9C0D6C0883909F4C7C0A8F4883731
:1008000009F467C038F4883609F463C0803709F406
:1008100060C0C9C0883809F4B8C0803909F45FC025
:10082000803809F0C0C05BC0803B09F486C038F452
:10083000803A09F466C0883A09F47FC0B4C0803CAD
:1008400009F4A7C0883C09F4A4C0883B09F48AC015
:10085000AAC08091B00610C09091D2068091D106B6
:10086000981770F5E091D20681E08E0F8093D20642
:10087000F0E0EF54F94F80818093BB0085EC86C097
:100880008093D3068EC0E091D20681E08E0F8093D4
:10089000D2068091BB00F0E0EF54F94F8083909135
:1008A000D2068091D1066EC0E091D20681E08E0F13
:1008B0008093D2068091BB00F0E0EF54F94F808323
:1008C00080916F0281116DC081E080936E0284EA95
:1008D00061C083E0809370021092AD06CFCF80910B
:1008E000AD06803208F051C0E091AD0681E08E0F78
:1008F0008093AD068091BB00F0E0E357F94F808311
:10090000BDCF85EC8093BC00109270028091AD0643
:10091000803230F4E091AD06F0E0E357F94F1082F9
:100920006091AD0670E0E0918B06F0918C068DE849
:1009300096E019951092AD0636C084E0809370025F
:1009400010928A0610928906E0918706F091880637
:10095000199580918906811105C081E080938906EF
:1009600010926706E0918A0681E08E0F80938A06D6
:10097000F0E0E959F94F80818093BB0090918A069D
:1009800080918906981708F479CF85E88093BC0098
:100990000AC085EC8093BC001092700204C01092D3
:1009A000D3060E94C401FF91EF91BF91AF919F9137
:1009B0008F917F916F915F914F913F912F910F9008
:1009C0000BBE0F900FBE0F901F90189590E0FC018A
:1009D0003197E231F10508F04EC08827EE58FF4FFD
:1009E0008F4F0C94D112809180008F7703C080913B
:1009F00080008F7D80938000089580918000877FA4
:100A0000F9CF84B58F7702C084B58F7D84BD0895FA
:100A10008091B0008F7703C08091B0008F7D80936C
:100A2000B0000895809190008F7707C0809190006A
:100A30008F7D03C080919000877F80939000089500
:100A40008091A0008F7707C08091A0008F7D03C0A8
:100A50008091A000877F8093A0000895809120015D
:100A60008F7707C0809120018F7D03C08091200186
:100A7000877F8093200108951F93CF93DF93282FC2
:100A800030E0F901E454FD4F8491F901EA58FD4F3B
:100A9000D491F901E05DFD4FC491CC23C9F0162F2C
:100AA00081110E94E604EC2FF0E0EE0FFF1FEA5EDA
:100AB000FD4FA591B4918FB7F894111105C09C9189
:100AC000ED2FE095E92302C0EC91ED2BEC938FBF65
:100AD000DF91CF911F910895CF93DF9390E0FC01B8
:100AE000EA58FD4F2491FC01E05DFD4F849188237D
:100AF00061F190E0880F991FFC01E450FE4FC59111
:100B0000D491FC01EA5EFD4FA591B491611109C039
:100B10009FB7F8948881209582238883EC912E23B7
:100B20000BC0623061F49FB7F8943881822F8095B2
:100B300083238883EC912E2B2C939FBF06C08FB705
:100B4000F894E8812E2B28838FBFDF91CF910895F1
:100B50003FB7F8948091010790910207A091030795
:100B6000B091040726B5A89B05C02F3F19F0019648
:100B7000A11DB11D3FBFBA2FA92F982F8827820F23
:100B8000911DA11DB11DBC01CD0142E0660F771F73
:100B9000881F991F4A95D1F70895CF92DF92EF925F
:100BA000FF920F931F93CF93DF936C017A018B0118
:100BB000C0E0D0E0CE15DF0589F0D8016D918D0140
:100BC000D601ED91FC910190F081E02DC6011995BF
:100BD000892B11F47E0102C02196ECCFC701DF9171
:100BE000CF911F910F91FF90EF90DF90CF900895DC
:100BF0000E942A1581E892E00E94720721E0892B69
:100C000009F420E0822F08951F920F920FB60F92E1
:100C100011242F933F938F939F93AF93BF93809112
:100C2000FD069091FE06A091FF06B091000730915D
:100C3000FC0623E0230F2D3720F40196A11DB11DE2
:100C400005C026E8230F0296A11DB11D2093FC06C6
:100C50008093FD069093FE06A093FF06B0930007D5
:100C60008091010790910207A0910307B0910407BA
:100C70000196A11DB11D8093010790930207A093D7
:100C80000307B0930407BF91AF919F918F913F915C
:100C90002F910F900FBE0F901F9018951F920F92DB
:100CA0000FB60F9211240BB60F922F933F934F93D1
:100CB0005F936F937F938F939F93AF93BF93EF93C4
:100CC000FF938091F7069091F806A091F906B091F4
:100CD000FA06892B8A2B8B2B59F18091F606E0912D
:100CE000F406F091F5069081892780838091F706BC
:100CF0009091F806A091F906B091FA061816190617
:100D00001A061B060CF056C08091F7069091F80663
:100D1000A091F906B091FA060197A109B109809353
:100D2000F7069093F806A093F906B093FA0642C02E
:100D300080910002E2E0F3E0E4919FEF90930002E3
:100D4000E230C9F050F4EE2399F0E13081F5909152
:100D50006F009D7F90936F002AC0E43019F1E0F09E
:100D6000E53029F5909173009D7F909373001FC02B
:100D700010926E001CC0909170009D7F9093700047
:100D800091E09093B0009091B100987F946090931F
:100D9000B1001092B3000BC0909171009D7F9093B1
:100DA000710005C0909172009D7F9093720060E089
:100DB0000E943C05FF91EF91BF91AF919F918F9160
:100DC0007F916F915F914F913F912F910F900BBE4B
:100DD0000F900FBE0F901F9018951F920F920FB695
:100DE0000F9211240BB60F922F933F934F935F9363
:100DF0006F937F938F939F93AF93BF93EF93FF93E3
:100E000081E892E00E948008FF91EF91BF91AF913D
:100E10009F918F917F916F915F914F913F912F9112
:100E20000F900BBE0F900FBE0F901F9018951F9242
:100E30000F920FB60F9211240BB60F922F933F9380
:100E40004F935F936F937F938F939F93AF93BF93D2
:100E5000EF93FF9381E892E00E941308FF91EF91D6
:100E6000BF91AF919F918F917F916F915F914F91C2
:100E70003F912F910F900BBE0F900FBE0F901F90C0
:100E80001895FC01538D448D252F30E0842F90E080
:100E9000821B930B541710F0CF9608950197089575
:100EA000FC01918D828D981761F0828DDF01A80F72
:100EB000B11D5D968C91928D9F5F9F73928F90E094
:100EC00008958FEF9FEF0895FC01918D828D981703
:100ED00031F0828DE80FF11D858D90E008958FEF40
:100EE0009FEF0895FC01918D228D892F90E0805C09
:100EF0009F4F821B91098F73992708958EE193E08C
:100F00000E94720721E0892B09F420E0822F0895C6
:100F10008BEB93E00E94720721E0892B09F420E01B
:100F2000822F0895E0E0F0E0199480E090E0892BB2
:100F300021F00E948807811119C080E090E0892B80
:100F400041F080E090E0892B21F00E9400008111A7
:100F500010C00E947E0781110FC080E090E0892BB5
:100F600081F00E94FA0581110AC008950E940000D4
:100F7000E4CF0E940000EDCF0E949207EECF0C94C8
:100F800000000895089580E090E00895FC01248118
:100F900031E030937102209373021092720210922A
:100FA00074028485682B85E792E00E944C020C94C1
:100FB0008D020F931F93CF938C01C62F64600E9404
:100FC000C6076C2F6B7FC8010E94C60783EC90E0B8
:100FD0000197F1F7CF911F910F9108950F931F93F0
:100FE000CF93DF938C01C62FD62FD07FD1606D2F8A
:100FF0000E94C6076D2FC8010E94D90780E1C89FD3
:10100000B0011124C62FC1606C2FC8010E94C60711
:101010006C2FC8010E94D90781E090E0DF91CF9149
:101020001F910F910895FC01A089B1898C91A68927
:10103000B78982FD0FC09C91818D8F5F8F73228D48
:10104000821749F0218DDF01A20FB11D5D969C939F
:10105000818F08958C9108951F920F920FB60F9271
:1010600011240BB60F922F933F934F935F936F937F
:101070007F938F939F93AF93BF93EF93FF938EE1F3
:1010800093E00E941308FF91EF91BF91AF919F9160
:101090008F917F916F915F914F913F912F910F9021
:1010A0000BBE0F900FBE0F901F9018951F920F92BE
:1010B0000FB60F9211240BB60F922F933F934F93BD
:1010C0005F936F937F938F939F93AF93BF93EF93B0
:1010D000FF938BEB93E00E941308FF91EF91BF9178
:1010E000AF919F918F917F916F915F914F913F91C0
:1010F0002F910F900BBE0F900FBE0F901F90189561
:10110000FC01848DDF01A80FB11DA35ABF4F2C91A4
:10111000848D90E001968F739927848FA689B78973
:101120002C93A089B1898C9180648C93938D848D4C
:10113000981306C00288F389E02D80818F7D80831B
:1011400008951F920F920FB60F9211240BB60F92B3
:101150002F933F934F935F936F937F938F939F93BF
:10116000AF93BF93EF93FF938EE193E00E948008CB
:10117000FF91EF91BF91AF919F918F917F916F916F
:101180005F914F913F912F910F900BBE0F900FBE2B
:101190000F901F9018951F920F920FB60F92112467
:1011A0000BB60F922F933F934F935F936F937F9361
:1011B0008F939F93AF93BF93EF93FF938BEB93E04A
:1011C0000E948008FF91EF91BF91AF919F918F9105
:1011D0007F916F915F914F913F912F910F900BBE37
:1011E0000F900FBE0F901F901895EF92FF920F93E4
:1011F0001F93CF93DF93EC0181E0888F9B8D8C8DC3
:10120000981305C0E889F989808185FD24C0F62EF0
:101210000B8D10E00F5F1F4F0F731127E02E8C8D89
:10122000E8120CC00FB607FCFACFE889F989808173
:1012300085FFF5CFCE010E948008F1CF8B8DFE0196
:10124000E80FF11DE35AFF4FF0820B8FEA89FB890B
:101250008081806207C0EE89FF896083E889F9890F
:1012600080818064808381E090E0DF91CF911F9145
:101270000F91FF90EF900895CF93DF93EC01888D4D
:101280008823C9F0EA89FB89808185FD05C0A8898A
:10129000B9898C9186FD0FC00FB607FCF5CF808110
:1012A00085FFF2CFA889B9898C9185FFEDCFCE015A
:1012B0000E948008E7CFDF91CF9108951F920F928F
:1012C0000FB60F9211240BB60F922F933F934F93AB
:1012D0005F936F937F938F939F93AF93BF93CF93BE
:1012E000DF93EF93FF932091590430E0F901E45428
:1012F000FD4F8491F901EA58FD4FD491F901E05D69
:10130000FD4FC491CC23A1F081110E94E604EC2F83
:10131000F0E0EE0FFF1FED5FFC4FA591B491EC9153
:10132000ED2331E020E009F430E0832F922F02C05A
:1013300080E090E020915D0430915E042F5F3F4F8C
:1013400030935E0420935D0420915C04253618F0F0
:1013500026E020935804209158042430D9F128F431
:10136000223069F02330D9F060C0253009F453C031
:10137000263009F05AC021E02093290553C0009778
:1013800009F053C020915D0430915E04243631058C
:1013900008F443C01092290510925C041DC08130EE
:1013A000910509F042C0E0915C0421E02E0F2093EA
:1013B0005C04F0E020915D0430915E04EE0FFF1FAD
:1013C000E85AFB4F3087278310925E0410925D0429
:1013D00024E029C00097B9F4E0915C0421E02E0FCD
:1013E00020935C04F0E020915D0430915E04EE0FE8
:1013F000FF1FE85AFB4F3087278310925E0410923C
:101400005D0423E010C020915D0430915E04253618
:10141000310558F007C0009741F410925E04109215
:101420005D0403C025E02093580420915B0422232F
:10143000B9F0892B51F480915A04882321F08091CE
:101440005A0461E009C02F9A0BC080915A04882386
:1014500031F080915A0460E00E943C0501C02F9851
:10146000FF91EF91DF91CF91BF91AF919F918F91BC
:101470007F916F915F914F913F912F910F900BBE94
:101480000F900FBE0F901F9018958F929F92AF9262
:10149000BF92CF92DF92EF92FF920F931F93CF9361
:1014A000DF93EC016A017B0120E030E04FE753E479
:1014B000C701B6010E94E5114B015C0120E030E05C
:1014C000A9010E940F1318161CF4C501B40103C032
:1014D000C501B40190580E94D9128B0120E030E080
:1014E000A901C701B6010E940F13181614F460E099
:1014F00001C061E089810E943C050F3F110509F0A0
:1015000014F4112702C00FEF10E0C88161E08C2FA6
:101510000E946C050115110509F4B1C00F3F1105BA
:1015200009F4AFC0EC2FF0E0E454FD4FE4914E2FEE
:1015300050E0FA013197E231F10508F09DC08827AB
:10154000EC57FF4F8F4F0C94D11284B5806884BD47
:1015500007BDA7C084B5806284BD08BDA2C08091CC
:101560008000806880938000109389000093880039
:1015700098C08091800080628093800010938B00DF
:1015800000938A008EC080918000886080938000E4
:1015900010938D0000938C0084C08091B00080680F
:1015A0008093B0000093B3007CC08091B000806253
:1015B0008093B0000093B40074C080919000806864
:1015C0008093900010939900009398006AC08091D6
:1015D000900080628093900010939B0000939A008B
:1015E00060C08091900088608093900010939D006F
:1015F00000939C0056C08091A00080688093A0005A
:101600008091A0008F7B8093A0001093A90000938D
:10161000A80047C08091A00080628093A000109332
:10162000AB000093AA003DC08091A0008860809329
:10163000A0001093AD000093AC0033C08091200156
:10164000806880932001109329010093280129C00C
:101650008091200180628093200110932B010093E0
:101660002A011FC08091200188608093200110937F
:101670002D0100932C0115C00038110514F460E011
:1016800001C061E08C2FDF91CF911F910F91FF90EE
:10169000EF90DF90CF90BF90AF909F908F900C9481
:1016A0003C05DF91CF911F910F91FF90EF90DF905C
:1016B000CF90BF90AF909F908F9008951F920F9200
:1016C0000FB60F9211240BB60F922F933F934F93A7
:1016D0005F936F937F938F939F93AF93BF93EF939A
:1016E000FF9380911E0787FF05C01092850010921E
:1016F000840016C020911E07022E000C330B80912F
:10170000660590E0281739075CF430911E0725E044
:101710003203F0011124E65DFA4F808186FD15C089
:1017200080911E078F5F80931E0720911E07022E57
:10173000000C330B8091660590E02817390794F46C
:1017400080911E078C302CF10DC030911E073203A2
:10175000F0011124E65DFA4F808160E08F730E94F2
:101760003C05DECF809184009091850084349C49B3
:1017700018F480E49CE905C0809184009091850074
:10178000049690938900809388008FEF80931E07C2
:101790002AC0409184005091850030911E0725E0B9
:1017A0003203F0011124E65DFA4F81819281840FAA
:1017B000951F909389008093880030911E07320313
:1017C000F0011124E65DFA4F808186FF0CC0309154
:1017D0001E073203F0011124E65DFA4F808161E0BB
:1017E0008F730E943C05FF91EF91BF91AF919F9144
:1017F0008F917F916F915F914F913F912F910F90BA
:101800000BBE0F900FBE0F901F9018958EBD00005D
:101810000DB407FEFDCF8EB50895CF93DF93EC0195
:1018200060E088810E943C0588E90E94060C80E007
:101830000E94060C80E00E94060C80E00E94060CCC
:1018400080E00E94060C61E088810E943C058BE8E4
:1018500091E00197F1F760E088810E943C0580EEFD
:101860000E94060C61E08881DF91CF910C943C05C9
:10187000AF92BF92CF92DF92EF92FF920F931F939E
:10188000CF93DF93CDB7DEB760970FB6F894DEBF86
:101890000FBECDBF5C0160E0FC0180810E943C0571
:1018A00080E60E94060C8E010F5F1F4F7E01F1E162
:1018B000EF0EF11C680180E00E94060C90E0A0E0B1
:1018C000B0E0F60181939193A193B1936F01EE156E
:1018D000FF0589F761E0F50180810E943C0580E009
:1018E00090E0DC01F80141915191619171918F017A
:1018F000BA2FA92F982F8827840F951FA61FB71FCF
:10190000EE15FF0579F79C01AD0166277727CB011E
:10191000621B730B840B950B60960FB6F894DEBFB9
:101920000FBECDBFDF91CF911F910F91FF90EF9030
:10193000DF90CF90BF90AF90089540E050E0BA01A3
:1019400089E496E00E94450A40E050E060E070E8DB
:101950008BE496E00E94450A8DE496E00E940D0C0F
:101960008FE496E00C940D0C10927802109277029E
:1019700088EE93E0A0E0B0E08093790290937A0241
:10198000A0937B02B0937C022BE032E0309376028E
:101990002093750210928402109283028093850234
:1019A00090938602A0938702B09388022DE132E0E3
:1019B000309382022093810245E351E050938E02DE
:1019C00040938D0244E351E05093900240938F0284
:1019D00040E351E0509392024093910241E351E081
:1019E000509394024093930242E351E05093960245
:1019F0004093950246E351E050939802409397023A
:101A000010929A0210929B0210929C0210929D02D8
:101A100010922103109220038093220390932303BA
:101A2000A0932403B093250330931F0320931E0338
:101A300045ED50E050932B0340932A0344ED50E0D2
:101A400050932D0340932C0340ED50E050932F030F
:101A500040932E0341ED50E0509331034093300307
:101A600042ED50E0509333034093320346ED50E093
:101A70005093350340933403109237031092380388
:101A80001092390310923A031092BE031092BD03D4
:101A90008093BF039093C003A093C103B093C2038C
:101AA0003093BC032093BB0385EC90E09093C80374
:101AB0008093C70384EC90E09093CA038093C9039A
:101AC00080EC90E09093CC038093CB0381EC90E08A
:101AD0009093CE038093CD0382EC90E09093D0035B
:101AE0008093CF0386EC90E09093D2038093D10350
:101AF0001092D4031092D5031092D6031092D703FC
:101B000086E38093510687E38093520688E38093AF
:101B1000530689E3809354068BE1809355068DE14B
:101B2000809356068AE1809357068CE1809358068D
:101B300084E08093590687E080935A0610925B06F2
:101B400084EB80935C0686E180935D0688E1809358
:101B50005E0687E180935F0689E180936006E091ED
:101B60006605EC3020F08FEF8093610610C081E0B5
:101B70008E0F80936605E093610625E0E29FF001F9
:101B80001124E65DFA4F88EB9BE092838183E0911C
:101B90006605EC3020F08FEF8093620610C081E084
:101BA0008E0F80936605E093620685E0E89FF00162
:101BB0001124E65DFA4F88EB9BE0928381838CE0F1
:101BC0008093300684E28093310686E0809332066B
:101BD00085E0809333068FE1809334068EE1809315
:101BE000350683E28093360682E28093370685E4E9
:101BF0008093380684E48093390680E480933C0621
:101C0000109241061092420610924306109244062A
:101C1000109245061092460610924706109248060A
:101C2000E2E7F5E08FEF9FEFDC011282138214826E
:101C30001582168217821086118683879487A5875E
:101C4000B6878787908BA18BB28B12861182108208
:101C5000739626E0E033F20741F78DE090E00E94B2
:101C60001413FC01138212828FE292E0918380832D
:101C7000118687E2848384E1828784E083871486E7
:101C8000F0936F05E0936E05109270051092710548
:101C900085E28093590410925B04109268051092BB
:101CA000670510926A051092690510926C051092F2
:101CB0006B0561E070E080E090E00E9441140097C5
:101CC00089F0909368058093670510926A051092D9
:101CD000690520916B0530916C05232BC1F4FC0143
:101CE000108215C08091670590916805009711F0EA
:101CF0000E94A913109268051092670510926C0556
:101D000010926B0510926A05109269050895109261
:101D10006C0510926B0566E672E00C9438157894A9
:101D200084B5826084BD84B5816084BD85B58260E0
:101D300085BD85B5816085BD80916E008160809391
:101D40006E001092810080918100826080938100FA
:101D5000809181008160809381008091800081600A
:101D6000809380008091B10084608093B100809165
:101D7000B00081608093B000809191008260809378
:101D800091008091910081608093910080919000FA
:101D90008160809390008091A10082608093A10077
:101DA0008091A10081608093A1008091A00081605A
:101DB0008093A00080912101826080932101809115
:101DC00021018160809321018091200181608093B5
:101DD000200180917A00846080937A0080917A005B
:101DE000826080937A0080917A00816080937A008B
:101DF00080917A00806880937A001092C100E0910F
:101E0000CB03F091CC0382E08083E091C703F09193
:101E1000C8031082E091C903F091CA038FEC80835C
:101E20001092D303E091CF03F091D00386E080833A
:101E3000E091CD03F091CE03808180618083E091B9
:101E4000CD03F091CE03808188608083E091CD0343
:101E5000F091CE03808180688083E091CD03F09182
:101E6000CE0380818F7D808361E0809131060E9466
:101E70006C0560E0809131060E943C0560E0809135
:101E800030060E946C0585E792E090933B068093B4
:101E90003A0610926D0210926C0210927202109229
:101EA00074021092700281E080936F0210926E02B1
:101EB00061E084E10E943C0561E085E10E943C050F
:101EC0008091B9008E7F8093B9008091B9008D7F99
:101ED0008093B90088E48093B80085E48093BC00C7
:101EE00080E090E1A0E0B0E080933D0690933E0654
:101EF000A0933F06B09340068AE090E0A0E0B0E0F7
:101F00008093410690934206A0934306B093440603
:101F100080E090E0A0E0B0E4809345069093460610
:101F2000A0934706B093480660E070E185E00E9408
:101F3000EA026FE979E380E00E94EA02CDE4D6E0AC
:101F4000C12CD12CE12CF12C65E6462E62E0562EF8
:101F50007BEA872E72E0972EEBECAE2EE7E0BE2EEA
:101F6000C701805D994F3C01FC019481828186010B
:101F7000005D194FF801818F928F61E00E946C051E
:101F800061E0F801828D0E946C05F30190858681E5
:101F90008883F801968F61E00E946C0560E0F8018B
:101FA000868D0E946C0561E088810E943C051FB708
:101FB000F8948091FB06811125C0F2018491F4010F
:101FC0009491E82FF0E0EE0FFF1FE450FE4FA59133
:101FD000B4918C91982321F461E085E30E943C0543
:101FE00061E085E30E946C058CB580618CBD8CB589
:101FF00080648CBD61E084E30E946C0561E083E352
:102000000E946C058091FB068F5F8093FB061FBFCB
:10201000C5010197F1F760E088810E943C0588E8DE
:102020000E94060C83E00E94060C61E088810E94F9
:102030003C05C5010197F1F7CE010E940D0CF2E0BD
:10204000CF0ED11C2296EA94EF2821F0EE24E394DF
:10205000F12C86CFC5E5D6E01C2F1C5F60E089918E
:102060000E946C051C13FACF04E616E0C1E6D6E028
:1020700095E0C92E2CE0E22E32E0B32EDC2ED39474
:10208000D394FE013897F08088818C3008F044C0EA
:1020900061E08F2D0E946C058881C89EF00111249B
:1020A000E65DFA4F9F2D9F732081207CF22EF92A46
:1020B000F082138214826E2D0E94C5129CE0899FCB
:1020C000A001112420E030E0B901640F751FC69E05
:1020D000F001C79EF00D1124E65DFA4F908196FD48
:1020E00012C02F5F3F4F2C30310571F781110BC0AB
:1020F00010928000B09281001092850010928400AE
:10210000B6BAB0926F00E881CE9EF0011124E65D70
:10211000FA4F808180648083FE01329790813297EC
:102120008081F80131978083F801908360E00E94FC
:102130006C0561E0F80180810E946C0560E0F801A7
:1021400080810E943C0521960E5F1F4FDC1299CFC3
:10215000F8941092200189E08093210180E293E0BD
:102160009093290180932801109225011092240157
:1021700082E08093730078948093580410925C04FA
:102180008091590460E00E946C058AE392E00E940D
:102190007B024AE064E370E080E090E00E9431035B
:1021A0008EE20E9472034AE069E070E080E090E015
:1021B0000E9431034AE062E070E080E090E00E941B
:1021C000310381E592E00E947B0287E392E00E9466
:1021D0007B020E949D0C8FE496E00E94380C0E94C6
:1021E00086112CEA3FEA43E552E40E947F1187FF03
:1021F0001AC040E050E0BA0189E496E00E94450A26
:102200004AE959E969E97EEB8BE496E00E94450AC8
:1022100082E692E00E947B028FE496E00E94380CF6
:102220000E947D03D8CF0E949D0C8DE496E00E9411
:10223000380C90958095709561957F4F8F4F9F4F8B
:102240000E9486112CEA3FEA43E552E40E947F1186
:1022500087FF22C04AE959E969E97EE389E496E00B
:102260000E94450A40E050E060E070E88BE496E0B0
:102270000E94450A87E692E00E947B028DE496E088
:102280000E94380C90958095709561957F4F8F4F87
:102290009F4F0E947D03C9CF0E949D0C0E949D0C00
:1022A0000E94A8054B015C018AE0C82ED12CE12CCC
:1022B000F12C0E94A805DC01CB0188199909AA0913
:1022C000BB09883E9340A105B10558F021E0C21A30
:1022D000D108E108F10888EE880E83E0981EA11C61
:1022E000B11CC114D104E104F10419F70E9495074F
:1022F000D7CF80916705909168050C94A9130E942F
:10230000C11108F481E00895E89409C097FB3EF4F8
:1023100090958095709561957F4F8F4F9F4F992332
:10232000A9F0F92F96E9BB279395F69587957795B0
:102330006795B795F111F8CFFAF4BB0F11F460FF70
:102340001BC06F5F7F4F8F4F9F4F16C0882311F0C8
:1023500096E911C0772321F09EE8872F762F05C0DC
:10236000662371F096E8862F70E060E02AF09A9577
:10237000660F771F881FDAF7880F9695879597F96C
:102380000895990F0008550FAA0BE0E8FEEF161606
:102390001706E807F907C0F012161306E407F50759
:1023A00098F0621B730B840B950B39F40A2661F0CD
:1023B000232B242B252B21F408950A2609F4A14070
:1023C000A6958FEF811D811D08950E94F8110C9430
:1023D00069120E945B1238F00E94621220F095236D
:1023E00011F00C9452120C94581211240C949D125A
:1023F0000E947A1270F3959FC1F3950F50E0551F1C
:10240000629FF001729FBB27F00DB11D639FAA2749
:10241000F00DB11DAA1F649F6627B00DA11D661F98
:10242000829F2227B00DA11D621F739FB00DA11DB9
:10243000621F839FA00D611D221F749F3327A00D73
:10244000611D231F849F600D211D822F762F6A2F0F
:1024500011249F5750409AF0F1F088234AF0EE0F74
:10246000FF1FBB1F661F771F881F91505040A9F7A1
:102470009E3F510580F00C9452120C949D125F3FC8
:10248000E4F3983ED4F3869577956795B795F795DD
:10249000E7959F5FC1F7FE2B880F911D9695879555
:1024A00097F9089597F99F6780E870E060E00895D4
:1024B0009FEF80EC089500240A941616170618065C
:1024C0000906089500240A94121613061406050638
:1024D0000895092E0394000C11F4882352F0BB0FC9
:1024E00040F4BF2B11F460FF04C06F5F7F4F8F4F2C
:1024F0009F4F089557FD9058440F551F59F05F3F67
:1025000071F04795880F97FB991F61F09F3F79F015
:1025100087950895121613061406551FF2CF469597
:10252000F1DF08C0161617061806991FF1CF869519
:102530007105610508940895E894BB2766277727FD
:10254000CB0197F90895A1E21A2EAA1BBB1BFD012E
:102550000DC0AA1FBB1FEE1FFF1FA217B307E40782
:10256000F50720F0A21BB30BE40BF50B661F771FDA
:10257000881F991F1A9469F76095709580959095BA
:102580009B01AC01BD01CF010895991B79E004C006
:10259000991F961708F0961B881F7A95C9F78095A2
:1025A0000895EE0FFF1F881F8BBF0790F691E02D57
:1025B00019940E94E0126894B1110C949D12089530
:1025C0000E94821288F09F5798F0B92F9927B7512F
:1025D000B0F0E1F0660F771F881F991F1AF0BA95C7
:1025E000C9F714C0B13091F00E949C12B1E0089577
:1025F0000C949C12672F782F8827B85F39F0B93F69
:10260000CCF3869577956795B395D9F73EF4909579
:102610008095709561957F4F8F4F9F4F08950E94D1
:10262000C11108F48FEF0895CF93DF9382309105A5
:1026300010F482E090E0E0912107F091220720E081
:1026400030E0C0E0D0E0309711F14081518148176F
:102650005907C0F04817590761F482819381209788
:1026600019F09B838A832BC09093220780932107C4
:1026700026C02115310519F04217530718F49A01A5
:10268000BE01DF01EF010280F381E02DDCCF2115D7
:10269000310509F1281B390B2430310590F41296CD
:1026A0008D919C9113976115710521F0FB01938326
:1026B000828304C09093220780932107FD01329604
:1026C00044C0FD01E20FF31F819391932250310921
:1026D0002D933C933AC020911F0730912007232B64
:1026E00041F420910302309104023093200720939B
:1026F0001F0720910102309102022115310541F49A
:102700002DB73EB74091050250910602241B350BB0
:10271000E0911F07F0912007E217F307A0F42E1BAA
:102720003F0B2817390778F0AC014E5F5F4F241735
:10273000350748F04E0F5F1F5093200740931F0747
:102740008193919302C0E0E0F0E0CF01DF91CF915F
:1027500008950F931F93CF93DF93009709F48CC0D4
:10276000FC013297138212820091210710912207F7
:102770000115110581F420813181820F931F209171
:102780001F07309120072817390779F5F0932007A4
:10279000E0931F0771C0D80140E050E0AE17BF07BB
:1027A00050F412962D913C911397AD0121153105EE
:1027B00009F1D901F3CF9D01DA01338322836081CE
:1027C0007181860F971F8217930769F4EC012881A6
:1027D0003981260F371F2E5F3F4F318320838A8137
:1027E0009B8193838283452B29F4F0932207E09306
:1027F000210742C01396FC93EE931297ED01499185
:1028000059919E01240F351FE217F30771F480815F
:102810009181840F951F029611969C938E938281CD
:10282000938113969C938E931297E0E0F0E0D80189
:1028300012968D919C911397009719F0F8018C01D5
:10284000F6CF8D919C9198012E5F3F4F820F931F81
:1028500020911F07309120072817390769F4309716
:1028600029F4109222071092210702C013821282CB
:102870001093200700931F07DF91CF911F910F91B5
:1028800008956F927F928F929F92AF92BF92CF9254
:10289000DF92EF92FF920F931F93CF93DF93EC01A0
:1028A000009789F4CB01DF91CF911F910F91FF9099
:1028B000EF90DF90CF90BF90AF909F908F907F90E0
:1028C0006F900C941413FC01E60FF71F9C0122502B
:1028D0003109E217F30708F4ACC0D9010D911C913E
:1028E000119706171707B0F00530110508F49FC0BF
:1028F000C80104978617970708F499C00250110978
:10290000061B170B019311936D937C93CF010E94CB
:10291000A9138DC05B01A01AB10A4C01800E911E53
:10292000A0912107B091220740E050E0E12CF12C6A
:10293000109709F44AC0A815B905D1F56D907C909F
:102940001197630182E0C80ED11CCA14DB0480F128
:10295000A3014A195B096A0182E0C80ED11C1296D4
:10296000BC9012971396AC91B5E0CB16D10440F011
:10297000B282A38351834083D9016D937C930AC0B3
:102980000E5F1F4FC301800F911FF9019183808358
:10299000EB2DFA2FE114F10431F0D7011396FC93DB
:1029A000EE93129744C0F0932207E09321073FC0B3
:1029B0008D919C9111974817590708F4AC017D013E
:1029C00012960D90BC91A02DB3CF80911F079091CE
:1029D000200788159905E1F446175707C8F4809138
:1029E000010290910202009741F48DB79EB7409189
:1029F000050250910602841B950BE817F907C8F4ED
:102A0000F0932007E0931F07F901718360830FC0E3
:102A1000CB010E9414137C01009759F0A801BE015C
:102A20000E942F15CE010E94A913C70104C0CE0138
:102A300002C080E090E0DF91CF911F910F91FF9055
:102A4000EF90DF90CF90BF90AF909F908F907F904E
:102A50006F90089581E090E0F8940C943F15FB018D
:102A6000DC0102C001900D9241505040D8F708950A
:102A7000FB01DC0101900D920020E1F7089511E0C7
:102A8000C0E9D1E000E006C0802FFE010E94D11213
:102A90002196011DC139D10780E00807A9F7F894F4
:022AA000FFCF66
:102AA200FF000023072000000000004C021C02C3AC
:102AB20007F60114020502F70100000000F508CD37
:102AC2000541073C0972075007640700000000EE49
:102AD20007CD05C307C2070D0A003D3D3D3D3D3D03
:102AE2003D3D3D3D3D3D3D3D3D204E4252203D2040
:102AF20000203D3D3D3D3D3D3D3D3D3D3D3D3D3D5E
:0C2B02003D0031093009003109310900A3
:00000001FF
