:100000000C94D2010C9403020C9403020C9403028E
:100010000C9403020C9403020C9403020C9403024C
:100020000C9403020C9490100C9490100C9490106B
:100030000C9403020C94E00C0C9403020C94030245
:100040000C9403020C943A180C9403020C940302CF
:100050000C9403020C9403020C9403020C94960C6F
:100060000C9403020C94510E0C94270E0C94030272
:100070000C9403020C9403020C9403020C940302EC
:100080000C9403020C9403020C9403020C940302DC
:100090000C9403020C9403020C9403020C949A1027
:1000A0000C9403020C9403020C9403020C940302BC
:1000B0000C9403020C9403020C9403020C947B0E28
:1000C0000C9403020C9403020C9403020C94FD0D97
:1000D0000C94D30D0C9403020C94A90D0C947F0D79
:1000E0000C94030243124612351239123F127D124C
:1000F0004A124E12541258125C12621266126A129E
:100100007D12701274127812811786178B1795174B
:100110009F171818A917B117B917C317CD17D717F5
:10012000E617F0171818FA1704180E180763423666
:10013000B79BD8A71A39685618AEBAAB558C1D3C78
:10014000B7CC5763BD6DEDFD753EF6177231BF003C
:100150000000803F08000000BE922449123EABAA76
:10016000AA2ABECDCCCC4C3E00000080BEABAAAAD1
:10017000AA3E00000000BF000000803F0000000019
:1001800000084178D3BB4387D1133D190E3CC3BD52
:100190004282AD2B3E68EC8276BED98FE1A93E4CFF
:1001A00080EFFFBE01C4FF7F3F00000000000C9401
:1001B0003F120C9454120C944E120C949C0F0C94FD
:1001C00074120C94251E0C947D120C94CE160C9473
:1001D00004180C94B9170C94D90B0C946C0B0C9458
:1001E000F0170C94FC160C94C00F0C946A120C942B
:1001F000200C0C9479190C9495170C94F00F0C9416
:1002000039120C944A120C9486170C9446120C94D2
:10021000E6170C94D7170C948E0B0C9418180C94AA
:10022000C3170C94FA170C949D0F0C94620F0C9446
:1002300081170C94A9170C9470120C945D0B0C94FC
:100240008B170C94190B0C9435120C945C120C94B3
:1002500062120C9443120C949F170C94800B0C9414
:10026000AC0F0C94CD170C9458120C94B1170C943D
:10027000CD160C940E180C9466120C947812000093
:1002800020002300260029002C002F00320000014E
:1002900000000301060109010200002100240027DB
:1002A000002A002D00300033000101000004010786
:1002B000010A0100002200250028002B002E003139
:1002C00000340002010000050108010B01050505CD
:1002D00005070508080808020202020A0A080804BD
:1002E00004040401010101010101010303030303EB
:1002F000030303040707070C0C0C0C0C0C0C0C027A
:1003000002020206060606060606060B0B0B0B0B80
:100310000B0B0B0102102020080810204010204079
:1003200080020102010804020101020408102040B9
:1003300080804020100804020180040201804020D7
:100340001008040201080402010102040810204000
:1003500080010204081020408000000A0B02090CF2
:100360000D0E08070304010000000000000000005B
:10037000000000000000000000000000000000007D
:10038000000000000012111000000000000000003A
:10039000000000000000000000000000000000005D
:1003A0007919251E11241FBECFEFD1E2DEBFCDBFCC
:1003B00000E00CBF13E0A0E0B2E0EAE0F9E400E006
:1003C0000BBF02C007900D92AA3AB107D9F728E0F7
:1003D000AAEAB3E001C01D92AA38B207E1F711E022
:1003E000C1EDD1E000E006C021970109802FFE0198
:1003F0000E949C1FC03DD10780E00807A9F70E941A
:10040000541B0C9473240C9400002F923F924F9233
:100410005F926F927F928F929F92AF92BF92CF9294
:10042000DF92EF92FF920F931F93CF93DF93CDB79D
:10043000DEB72C970FB6F894DEBF0FBECDBF9887FE
:100440008F831E821D8202E010E02F8138852130CB
:10045000310509F0AEC289E392E00E94F50861E03F
:100460008EE20E947E120E9482138091D1079091A9
:10047000D207019709F08DC20E94C11589E090E072
:100480000E94B81420E030E040E251E40E942B1EAC
:1004900087FF93C00E94AA1540E050E06CED75E024
:1004A00081E090E00E946E1489E090E00E94B81410
:1004B00020E030E048EC51E40E942B1E18168CF02E
:1004C0004DEC5CEC6CE47EEB88E897E00E94211731
:1004D0004DEC5CEC6CE47EE38AE897E00E94211727
:1004E000E3CF0E94AA150E94C1158CE897E00E94F4
:1004F00014198CE897E00E94E9188CE492E00E94BD
:10050000F5084AE959E969E97EE388E897E00E943D
:10051000211740E050E060E070E88AE897E00E9430
:1005200021170E94C11588E090E00E94B81420E0D5
:1005300030E040EF51E40E942B1E87FFDECF92E0B7
:10054000C92ED12C8CE592E00E94F5080E94C115BD
:10055000E12CF12C88E090E00E94B81420E030E01B
:1005600040EF51E40E942B1E87FDF0C33FC40E9460
:10057000A7140E94C1158CEA9DE00E9416160E94E5
:10058000C1150E945E0A4DEC5CEC6CE47EE388E8E9
:1005900097E00E9421174DEC5CEC6CE47EEB8AE85E
:1005A00097E00E94211783E090E09093AB03809343
:1005B000AA0385E692E00E94F50880E00E940813F5
:1005C0005C0181E00E9408133C0182E00E94081354
:1005D0009A83898383E00E9408136C0184E00E945F
:1005E00008137C0185E00E9408132C0186E00E941C
:1005F00008134C0187E00E9408131C0140E050E002
:1006000060E87EE388E897E00E94211740E050E030
:1006100060E87EEB8AE897E00E9421178CE992E07F
:100620000E946010C6010E9462100E94F10882EAD6
:1006300092E00E946010C7010E9462100E94F108BF
:1006400088EA92E00E946010C2010E9462100E943B
:10065000F1088EEA92E00E946010C4010E946210CC
:100660000E94F1080E94F1088091AA039091AB03C7
:10067000039709F060C084EB92E00E94F5080E94A5
:10068000C1154DEC5CEC6CE47EE388E897E00E94D9
:1006900021174DEC5CEC6CE47EEB8AE897E00E945D
:1006A000211720E040E050E0822F2A874B875C87AB
:1006B0000E9408132A854B855C858935924014F089
:1006C00041E050E02F5F283079F74130510561F665
:1006D00084ED92E00E94F5084DEC5CEC6CE47EE366
:1006E00088E897E00E9421174DEC5CEC6CE47EEB0F
:1006F0008AE897E00E94211766E970E080E090E0C8
:100700000E9427134DEC5CEC6CE47EE38AE897E0F2
:100710000E94211768EE73E080E090E00E942713AA
:100720001092AB031092AA0362E370E080E090E0C5
:100730000E94271399CFF1E9AF16F1E0BF060CF440
:1007400045C020E9C21621E0D2060CF046C030E9CF
:10075000E31631E0F3060CF057C041E9241641E0FE
:1007600034060CF451C040E050E0BA0188E897E04C
:100770000E94211740E050E060E070E88AE897E0CE
:100780000E94211748EC50E068EC70E081E090E0B6
:100790000E946E1448EC50E060E971E081E090E066
:1007A0000E946E1448EC50E068E572E081E090E051
:1007B0000E946E1440E050E060E273E081E090E05F
:1007C0000E946E14E0E0F0E019951EC0F1E9CF162A
:1007D000F1E0DF060CF0BDC4F3C390E9C91691E067
:1007E000D90609F4BDC4F1E9EF16F1E0FF0664F0A3
:1007F00021E9421621E052060CF082C4E1E9AE166E
:10080000E1E0BE060CF44CC051E9651651E07506F6
:100810000CF440C029813A8121393140DCF151E9A1
:10082000C51651E0D5060CF4CBC381E9E81681E08A
:10083000F806B4F190E9291691E039068CF580911B
:10084000AA039091AB03039759F14DEC5CEC6CE477
:100850007EE388E897E00E9421174DEC5CEC6CE4A5
:100860007EEB8AE897E00E94211766E970E080E05D
:1008700090E00E9427134DEC5CEC6CE47EE38AE888
:1008800097E00E94211768EE73E080E090E00E94FC
:10089000271306C0E1E9CE16E1E0DE060CF490C3B2
:1008A000F1E9EF16F1E0FF06A4F140E050E060E866
:1008B0007EE388E897E00E94211740E050E060E87E
:1008C0007EEB8AE897E00E94211721E9821621E059
:1008D000920634F041E050E05093AB034093AA03FA
:1008E00051E9251651E0350634F081E090E090930F
:1008F000AB038093AA0391E9691691E0790624F08D
:100900001093AB030093AA03E1E9AE16E1E0BE0643
:10091000DCF540E9E41641E0F4060CF0BFC14DEC13
:100920005CEC6CE47EE388E897E00E9421174DECD4
:100930005CEC6CEC7DEB8AE897E00E942117F1E912
:100940008F16F1E09F0634F021E030E03093AB03E6
:100950002093AA0331E9231631E0330634F041E055
:1009600050E05093AB034093AA0351E9651651E060
:10097000750624F01093AB030093AA0381E9A8162F
:1009800081E0B8060CF48AC11093AB030093AA036C
:1009900085C140E050E0BA0188E897E00E94211745
:1009A00040E050E060E070E88AE897E00E9421179C
:1009B00075C18F819885029709F070C18BEE92E026
:1009C0000E94F5088091D1079091D207019709F014
:1009D00056C16AE070E080E090E00E94271389E051
:1009E00090E00E94B81420E030E040EA51E40E9418
:1009F0002B1E87FF20C00E9482138091C90790910F
:100A0000CA078E3B9105BCF040E050E0BA0188E88F
:100A100097E00E94211740E050E060E070E88AE82B
:100A200097E00E94211746E950E06EEE72E082E006
:100A300090E00E946E148EEF92E00E946010809110
:100A40000002909101020E94621087E093E00E94F0
:100A500060108AE093E00E9460108091AE03909154
:100A6000AF030E94621087E093E00E9460108091C3
:100A7000C7079091C807AC014D5351092091C90790
:100A80003091CA074138510508F08AC0A9014D5379
:100A900051094138510508F083C086E193E00E9476
:100AA000F5088091000290910102892B09F064C041
:100AB000E090AE03F090AF03B7010F2C000C880B51
:100AC000990B0E94321E2DEC3CEC4CEC5EE30E9434
:100AD000911E4B015C0191E0E916F104F1F420E074
:100AE00030E0A901C501B4010E94B9201816C4F470
:100AF0002DEC3CEC4CEC5DE3C501B4010E94A41F5D
:100B00004B015C019B01AC010E94571464E670E04C
:100B100080E090E00E942713E2CFEF20E09471F094
:100B200020E030E0A901CA01B9010E945714E1E0B8
:100B3000F0E0F0930102E09300021EC020E030E0FC
:100B4000A901C501B4010E942B1E87FFE9CF2DEC3E
:100B50003CEC4CEC5DE3C501B4010E94A51F4B01C8
:100B60005C019B01AC010E94571464E670E080E0D8
:100B700090E00E942713E2CF809100029091010241
:100B8000029739F420E030E0A901CA01B9010E94BE
:100B9000571421E030E0309301022093000276C028
:100BA0002E3B3105BCF02DEC3CEC4CEC5EE3CA0175
:100BB000B9010E94571441E050E05093AF034093B5
:100BC000AE0310920102109200028CE193E00E94A9
:100BD000F5085CC02D3331059CF48BE293E00E9454
:100BE000F5088FEF9FEF9093AF038093AE031092C1
:100BF0000102109200022DEC3CEC4CEC5EEB42C08A
:100C00008E3B9105E4F083E493E00E94F508109395
:100C10000102009300026091AE037091AF03072EB2
:100C2000000C880B990B0E94321E2AE939E949E928
:100C30005EE30E94911E20E030E0A90125C0CD971F
:100C40002CF589E593E00E94F508109301020093CA
:100C500000026091AE037091AF03072E000C880B69
:100C6000990B0E94321E2AE939E949E95EE30E94A4
:100C7000911E9B01AC0160E070E0CB0105C020E05B
:100C800030E0A901CA01B9010E94571460E088E070
:100C90000E947E121092AD031092AC030E94821348
:100CA00064E670E080E090E00E9427138091D30713
:100CB0009091D4078130910531F4ED81FE81319618
:100CC000FE83ED8304C0892B11F41E821D828EE603
:100CD00093E00E9460108D819E810E9462100E94AC
:100CE000F1082D813E812B3031050CF4AECB40E074
:100CF00050E0BA0188E897E00E94211740E050E0F8
:100D000060E070E88AE897E00E94211744E650E02E
:100D100068EC70E085E090E02C960FB6F894DEBFAA
:100D20000FBECDBFDF91CF911F910F91FF90EF903C
:100D3000DF90CF90BF90AF909F908F907F906F90FB
:100D40005F904F903F902F900C946E1486E793E045
:100D50000E94F5084AE959E969E97EE388E897E0E5
:100D60000E94211740E050E060E070E88AE897E0D8
:100D70000E9421170E94C11588E090E00E94B814DB
:100D80004B015C0188E090E00E94B8149B01AC012B
:100D9000C501B4012A8739874B875C870E9483206D
:100DA000072E000C880B990B0E94321E2A8539856C
:100DB0004B855C850E942B1E87FFC9C03FEFE31A5D
:100DC000F30A4AE0B7010F2C000C880B990B0E9424
:100DD0001F100E94F10864E670E080E090E00E943D
:100DE000271342E0E416F1040CF4B4CB40E050E0E9
:100DF000BA0188E897E00E94211740E050E0BA016C
:100E000088E897E00E942117CA94CD2821F0CC24CD
:100E1000C394D12C97CB85E592E00E94F50840E081
:100E200050E0BA0188E897E00E9421174AE959E9A1
:100E300069E97EEB8AE897E00E9421176CE271E095
:100E400080E090E00E9427130E94AA150E94C1151D
:100E50000E94C11588E090E00E94B8140E9483208F
:100E6000CB010F969C01990F440B550B29833A83B4
:100E70004B835C834B0133E0830E911C092C000CE7
:100E8000AA08BB086B0143E0C41AD1080D2C000C62
:100E9000EE08FF0888E090E00E94B8142B013C01A6
:100EA00069817A818B819C810E94321E9B01AC01F9
:100EB000C301B2010E942B1E87FD4CC00E94AA15DF
:100EC0000E94C1150E94AA150E94C11580ED97E0ED
:100ED0000E9416160E94C1150E94A7140E945E0A65
:100EE0000E94C11584E991E10E9416160E94C11565
:100EF0000E94A71488E090E00E94B8146B017C0166
:100F000088E090E00E94B8144B015C0120E030E0E2
:100F100040E751E4C701B6010E94A51F9B01AC0147
:100F2000C501B4010E942B1E87FF21CB4DEC5CEC68
:100F30006CE47EE388E897E00E9421174DEC5CECBE
:100F40006CE47EEB8AE897E00E942117D9CFE12C70
:100F5000F12C37CF0E94C11588E090E00E94B814B0
:100F60002B013C01C501B4010E94321E9B01AC0162
:100F7000C301B2010E94B920181694F088E090E0F5
:100F80000E94B8142B013C01C701B6010E94321E19
:100F90009B01AC01C301B2010E942B1E87FF07C059
:100FA0000E94C11588E090E00E94B81473CF6AE9EE
:100FB00079E989E99EE30E944C090E94C1156ACF34
:100FC00050E9C51651E0D5060CF068CE91E9E91656
:100FD00091E0F906ACF14DEC5CEC6CE47EEB8AE858
:100FE00097E00E9421174DEC5CEC6CEC7DE388E807
:100FF00097E00E942117E1E98E16E1E09E0634F0A9
:1010000021E030E03093AB032093AA0331E92316AB
:1010100031E0330634F041E050E05093AB034093AD
:10102000AA0351E9651651E0750624F01093AB034D
:101030000093AA0381E9A81681E0B8060CF0A4CCBD
:1010400080E9E81681E0F8060CF028CE91E949160F
:1010500091E0590634F0E1E0F0E0F093AB03E09367
:10106000AA03F1E98F16F1E09F0634F021E030E0A9
:101070003093AB032093AA0329813A81213931406F
:1010800024F01093AB030093AA0351E9651651E0D5
:10109000750624F01093AB030093AA0381EE92E04F
:1010A0000E9460108091AA039091AB030E9462108D
:1010B0000E94F1088091AA039091AB0381309105C1
:1010C00079F44DEC5CEC6CE47EEB8AE897E00E94EE
:1010D00021174DEC5CEC6CE47EEB88E897E066CC85
:1010E000029709F0DBCD4DEC5CEC6CE47EE388E824
:1010F00097E00E9421174DEC5CEC6CE47EE354CC4D
:1011000031E9831631E093060CF478CB40E9A4165C
:1011100041E0B4060CF072CB4DEC5CEC6CE47EE389
:1011200088E897E00E9421174DEC5CEC6CE47EEBC4
:101130008AE897E00E94211766E970E080E090E07D
:101140000E9427134DEC5CEC6CE47EEB88E897E0A2
:1011500098CB21E9E21621E0F2060CF049CBA0CBB6
:1011600031E9631631E073060CF054CB97CDEAEF0A
:10117000F4E0A089B18982E08C93A485B5851C92A6
:10118000A685B7858FEC8C93108EA489B58986E0EF
:101190008C93A289B3898C9180618C93A289B38945
:1011A0008C9188608C93A289B3898C9180688C9390
:1011B0000288F389E02D80818F7D808308950097D8
:1011C00069F0FC0101900020E9F73197AF01481B5D
:1011D000590BBC018AEF94E00C94190B80E090E06D
:1011E000089580E893E00C94DF08CF93DF930E948A
:1011F000DF08EC010E94F1088C0F9D1FDF91CF9159
:101200000895EF92FF921F93CF93DF931F92CDB774
:10121000DEB7162F9FE6E92E97E0F92ED7011C9630
:101220009C911C9721E02093B3039093B2031092FA
:10123000B1031092B0031A960D90BC91A02DED91C0
:10124000FC9111970190F081E02D682FCD017983F9
:101250001995F70182859385DC01ED91FC91019050
:10126000F081E02D7981672F1995F70182859385AB
:10127000DC01ED91FC910190F081E02D612F199539
:1012800061E0F701828593850F90DF91CF911F91E7
:10129000FF90EF900C94CC114F925F926F927F92DF
:1012A0008F929F92AF92BF92CF92DF92EF92FF9276
:1012B000CF93DF9300D01F92CDB7DEB76B017C01D7
:1012C0008CE897E00E94141990958095709561952F
:1012D0007F4F8F4F9F4F0E94321E2B013C01609326
:1012E000AE077093AF078093B0079093B1078EE875
:1012F00097E00E9414190E94321E69837A838B83BF
:101300009C836093AA077093AB078093AC0790937C
:10131000AD079B01AC01C301B2010E94A41F4B01A8
:101320005C016093A6077093A7078093A80790932A
:10133000A90720E030E040EA50E40E942B1E87FD20
:1013400026C020E030E040E251E4C501B4010E9433
:101350002B1E87FD25C020E030E040E751E4C501A9
:10136000B4010E942B1E87FD23C020E030E040EA3C
:1013700051E4C501B4010E942B1E87FD22C04AE939
:10138000842E49E9942EA92C4EE3B42E22C03DECC4
:10139000832E3CEC932E3CE4A32E3DE3B32E19C0E8
:1013A0002DEC822E2CEC922EA92C2DE3B22E11C006
:1013B0009AE9892E99E9992E99E1A92E9EE3B92EF1
:1013C00008C08DEC882E8CEC982E8CE4A82E8EE331
:1013D000B82E29813A814B815C81C301B2010E9400
:1013E000B9201816ECF4A501940160E070E080E8E3
:1013F0009FE30E94A41F9B01AC01C701B6010E949C
:10140000911EAB01BC0188E897E00E94211720E003
:1014100030E040E85FE3C501B4010E94A51F26C08B
:1014200029813A814B815C81C301B2010E942B1E4C
:1014300087FF25C020E030E040E85FE3C501B4014C
:101440000E94A51F9B01AC01C701B6010E94911E1D
:10145000AB01BC0188E897E00E942117A501940127
:1014600060E070E080E89FE30E94A41F9B01AC0154
:10147000C701B6010E94911EAB01BC0108C0B701B3
:10148000A60188E897E00E942117B701A6017058CD
:101490008AE897E00F900F900F900F90DF91CF9117
:1014A000FF90EF90DF90CF90BF90AF909F908F9084
:1014B0007F906F905F904F900C9421178F929F9226
:1014C000AF92BF92CF92DF92EF92FF928CE897E0BB
:1014D0000E94E9188EE897E00E94E9184DEC5CEC58
:1014E0006CEC7EEB8AE897E00E9421174DEC5CECF7
:1014F0006CEC7EEB88E897E00E9421178CE897E07F
:101500000E94141990958095709561957F4F8F4F2B
:101510009F4F0E94321E2FE031ED40E85FE30E94B2
:10152000911E0E9483206B017C018EE897E00E944F
:101530001419072E000C880B990B0E94321E4B01C8
:101540005C0120E030E44BEF54E40E94B92018160F
:101550003CF440E050E0BA0188E897E00E9421178F
:10156000B6010D2C000C880B990B0E94321E20E056
:1015700030E44BEF54E40E94B920181644F440E0E4
:1015800050E060E070E88AE897E00E9421176AE086
:1015900070E080E090E00E94271320E030E44BEF01
:1015A00054E4C501B4010E942B1E87FD97CF662726
:1015B00077276C197D09072E000C880B990B0E9468
:1015C000321E20E030E44BEF54E40E942B1E87FDD6
:1015D00085CF40E050E0BA0188E897E00E942117EB
:1015E00040E050E060E070E88AE897E00E94211750
:1015F0008CE897E00E94E9188EE897E00E94E918CD
:1016000064E670E080E090E0FF90EF90DF90CF9094
:10161000BF90AF909F908F900C942713E091FA04A5
:10162000F091FB040190F081E02D682F8AEF94E0A7
:101630001994CF92DF92EF92FF920F931F93CF9363
:10164000DF936C017A018B01C0E0D0E0CE15DF059D
:1016500089F0D8016D918D01D601ED91FC91019039
:10166000F081E02DC6011995892B11F47E0102C08D
:101670002196ECCFC701DF91CF911F910F91FF9081
:10168000EF90DF90CF900895FC01A089B1898C91F3
:10169000A689B78982FD0FC09C91818D8F5F8F7362
:1016A000228D821749F0218DDF01A20FB11D5D96B9
:1016B0009C93818F08958C910895FC01538D448DE6
:1016C000252F30E0842F90E0821B930B541710F0ED
:1016D000CF96089501970895FC01918D828D9817FA
:1016E00061F0828DDF01A80FB11D5D968C91928D06
:1016F0009F5F9F73928F90E008958FEF9FEF089503
:10170000FC01918D828D981731F0828DE80FF11DCB
:10171000858D90E008958FEF9FEF0895FC01918DE6
:10172000228D892F90E0805C9F4F821B91098F73DF
:101730009927089580EC93E00E948E0B21E0892B7D
:1017400009F420E0822F08958DE594E00E948E0B2D
:1017500021E0892B09F420E0822F08958AEF94E09C
:101760000E948E0B21E0892B09F420E0822F08953E
:10177000FC01848DDF01A80FB11DA35ABF4F2C912E
:10178000848D90E001968F739927848FA689B789FD
:101790002C93A089B1898C9180648C93938D848DD6
:1017A000981306C00288F389E02D80818F7D8083A5
:1017B0000895EF92FF920F931F93CF93DF93EC0165
:1017C00081E0888F9B8D8C8D981305C0E889F989FD
:1017D000808185FD24C0F62E0B8D10E00F5F1F4F1A
:1017E0000F731127E02E8C8DE8120CC00FB607FC8A
:1017F000FACFE889F989808185FFF5CFCE010E9473
:10180000B80BF1CF8B8DFE01E80FF11DE35AFF4FAE
:10181000F0820B8FEA89FB898081806207C0EE89A4
:10182000FF896083E889F98980818064808381E011
:1018300090E0DF91CF911F910F91FF90EF9008956D
:10184000CF93DF93EC01888D8823C9F0EA89FB8967
:10185000808185FD05C0A889B9898C9186FD0FC05E
:101860000FB607FCF5CF808185FFF2CFA889B98933
:101870008C9185FFEDCFCE010E94B80BE7CFDF91B1
:10188000CF91089580E090E0892B21F00E94AE0B6B
:10189000811119C080E090E0892B41F080E090E058
:1018A000892B21F00E940000811110C00E94A40B1E
:1018B00081110FC080E090E0892B81F00E949A0B8B
:1018C00081110AC008950E940000E4CF0E94000028
:1018D000EDCF0E945414EECF0C94000008950E94A6
:1018E0005E243FB7F8948091C1079091C207A09100
:1018F000C307B091C40726B5A89B05C02F3F19F0B8
:101900000196A11DB11D3FBFBA2FA92F982F88277F
:10191000820F911DA11DB11DBC01CD0142E0660FDA
:10192000771F881F991F4A95D1F708951F920F922C
:101930000FB60F9211242F933F938F939F93AF93E2
:10194000BF938091BD079091BE07A091BF07B09152
:10195000C0073091BC0723E0230F2D3720F40196F8
:10196000A11DB11D05C026E8230F0296A11DB11DC2
:101970002093BC078093BD079093BE07A093BF0739
:10198000B093C0078091C1079091C207A091C3078F
:10199000B091C4070196A11DB11D8093C10790931A
:1019A000C207A093C307B093C407BF91AF919F91A3
:1019B0008F913F912F910F900FBE0F901F90189510
:1019C0001F920F920FB60F9211240BB60F922F9306
:1019D0003F934F935F936F937F938F939F93AF93B7
:1019E000BF93EF93FF938091B5079091B607A091B5
:1019F000B707B091B807892B8A2B8B2B59F18091AF
:101A0000B407E091B207F091B307908189278083F2
:101A10008091B5079091B607A091B707B091B8072C
:101A2000181619061A061B060CF056C08091B50749
:101A30009091B607A091B707B091B8070197A10997
:101A4000B1098093B5079093B607A093B707B093F9
:101A5000B80742C080910202E8E9F2E0E4919FEF0A
:101A600090930202E230C9F050F4EE2399F0E13095
:101A700081F590916F009D7F90936F002AC0E430B4
:101A800019F1E0F0E53029F5909173009D7F909376
:101A900073001FC010926E001CC0909170009D7F5B
:101AA0009093700091E09093B0009091B100987F76
:101AB00094609093B1001092B3000BC090917100AC
:101AC0009D7F9093710005C0909172009D7F9093CF
:101AD000720060E00E947E12FF91EF91BF91AF9182
:101AE0009F918F917F916F915F914F913F912F9136
:101AF0000F900BBE0F900FBE0F901F9018951F9266
:101B00000F920FB60F9211240BB60F922F933F93A3
:101B10004F935F936F937F938F939F93AF93BF93F5
:101B2000EF93FF9380EC93E00E94B80BFF91EF914D
:101B3000BF91AF919F918F917F916F915F914F91E5
:101B40003F912F910F900BBE0F900FBE0F901F90E3
:101B500018951F920F920FB60F9211240BB60F9289
:101B60002F933F934F935F936F937F938F939F93A5
:101B7000AF93BF93EF93FF9380EC93E00E94440BED
:101B8000FF91EF91BF91AF919F918F917F916F9155
:101B90005F914F913F912F910F900BBE0F900FBE11
:101BA0000F901F9018951F920F920FB60F9211244D
:101BB0000BB60F922F933F934F935F936F937F9347
:101BC0008F939F93AF93BF93EF93FF938DE594E033
:101BD0000E94B80BFF91EF91BF91AF919F918F91B0
:101BE0007F916F915F914F913F912F910F900BBE1D
:101BF0000F900FBE0F901F9018951F920F920FB667
:101C00000F9211240BB60F922F933F934F935F9334
:101C10006F937F938F939F93AF93BF93EF93FF93B4
:101C20008DE594E00E94440BFF91EF91BF91AF913D
:101C30009F918F917F916F915F914F913F912F91E4
:101C40000F900BBE0F900FBE0F901F9018951F9214
:101C50000F920FB60F9211240BB60F922F933F9352
:101C60004F935F936F937F938F939F93AF93BF93A4
:101C7000EF93FF938AEF94E00E94B80BFF91EF91EE
:101C8000BF91AF919F918F917F916F915F914F9194
:101C90003F912F910F900BBE0F900FBE0F901F9092
:101CA00018951F920F920FB60F9211240BB60F9238
:101CB0002F933F934F935F936F937F938F939F9354
:101CC000AF93BF93EF93FF938AEF94E00E94440B8E
:101CD000FF91EF91BF91AF919F918F917F916F9104
:101CE0005F914F913F912F910F900BBE0F900FBEC0
:101CF0000F901F9018951F920F920FB60F921124FC
:101D00000BB60F922F933F934F935F936F937F93F5
:101D10008F939F93AF93BF93CF93DF93EF93FF93F3
:101D20002091980530E0F901E75AFC4F8491F901C0
:101D3000ED5EFC4FD491F901E353FD4FC491CC23E8
:101D4000A1F081110E942812EC2FF0E0EE0FFF1F8E
:101D5000E258FD4FA591B491EC91ED2331E020E0E4
:101D600009F430E0832F922F02C080E090E02091B0
:101D70009C0530919D052F5F3F4F30939D0520932B
:101D80009C0520919B05253618F026E020939705A9
:101D9000209197052430D9F128F4223069F02330BE
:101DA000D9F060C0253009F453C0263009F05AC07C
:101DB00021E02093680653C0009709F053C020919A
:101DC0009C0530919D052436310508F443C01092DE
:101DD000680610929B051DC08130910509F042C034
:101DE000E0919B0521E02E0F20939B05F0E02091D0
:101DF0009C0530919D05EE0FFF1FE956FA4F308785
:101E0000278310929D0510929C0524E029C000971D
:101E1000B9F4E0919B0521E02E0F20939B05F0E0A3
:101E200020919C0530919D05EE0FFF1FE956FA4F5A
:101E30003087278310929D0510929C0523E010C0E7
:101E400020919C0530919D052536310558F007C03D
:101E5000009741F410929D0510929C0503C025E067
:101E60002093970520919A052223B9F0892B51F4EC
:101E700080919905882321F08091990561E009C03E
:101E80002F9A0BC080919905882331F08091990594
:101E900060E00E947E1201C02F98FF91EF91DF91C8
:101EA000CF91BF91AF919F918F917F916F915F91F2
:101EB0004F913F912F910F900BBE0F900FBE0F903F
:101EC0001F9018958091C50790E02091C607821B4E
:101ED0009109089585ED8093BC008091BC0084FD3C
:101EE000FCCF10926408089540911708262F30E027
:101EF000240F311D21323105DCF420916408243097
:101F0000C9F4FC0180E090E0861758F4309117087E
:101F10002191DC01AB50B84FA30FB11D2C9301965A
:101F2000F3CF80911708680F6093170880E0089539
:101F300081E0089582E008950895E091C6078091B8
:101F4000C507E81730F4F0E0EB59F74F808190E0D7
:101F500008958FEF9FEF08959091C6078091C50770
:101F6000981750F4E92FF0E0EB59F74F208130E05B
:101F70009F5F9093C60702C02FEF3FEFC9010895FE
:101F8000CF92DF92EF92FF920F931F93CF93DF9345
:101F90007C01262F972F8A018091B303882391F02B
:101FA000C62FD72F6E01C40ED51ECC15DD0571F0DE
:101FB0006991D701ED91FC910190F081E02DC7016D
:101FC0001995F3CF642F822F0E94740FC801DF91FF
:101FD000CF911F910F91FF90EF90DF90CF900895D8
:101FE000CF93DF931F92CDB7DEB769832091B30300
:101FF0002223D1F02091B003203240F021E030E0E4
:10200000FC013383228380E090E015C08091B1030E
:10201000E82FF0E0EB52F84F998190838F5F809327
:10202000B1038093B00305C061E0CE0101960E9428
:10203000740F81E090E00F90DF91CF9108958F921F
:102040009F92AF92BF920F931F93CF93DF93CDB721
:10205000DEB7A1970FB6F894DEBF0FBECDBF19A2B1
:10206000423008F44AE08E010F5D1F4F842E912C00
:10207000A12CB12CA50194010E946E1FE62FB9017D
:10208000CA0101501109EA3014F4E05D01C0E95CB5
:10209000D801EC93232B242B252B61F7C8010E9438
:1020A000DF08A1960FB6F894DEBF0FBECDBFDF915B
:1020B000CF911F910F91BF90AF909F908F900895F7
:1020C0000C94DF08CF92DF92EF92FF92CF93DF93D1
:1020D0006C01990FEE08FF08F7FE17C08DE20E9411
:1020E0000E0BEC0166277727CB016C197D098E0951
:1020F0009F094AE00E941F108C0F9D1FDF91CF9116
:10210000FF90EF90DF90CF9008954AE0C701B601AD
:10211000DF91CF91FF90EF90DF90CF900C941F1044
:102120001F920F920FB60F9211240F900FBE0F90B7
:102130001F9018951F920F920FB60F9211240BB695
:102140000F922F933F934F935F936F937F938F9350
:102150009F93AF93BF93EF93FF938091B900887FD4
:10216000803609F49CC068F5883209F45BC090F4AD
:10217000803109F454C038F4882309F4F6C088305B
:1021800009F44DC0F6C0883109F44CC0803209F41E
:102190005DC0EFC0803409F468C048F4803309F4AE
:1021A00055C0883309F0E5C080936208D8C08035F7
:1021B00009F44FC0883509F45DC0883409F0D9C0EE
:1021C000D6C0883909F4C7C0A8F4883709F467C0B5
:1021D00038F4883609F463C0803709F460C0C9C098
:1021E000883809F4B8C0803909F45FC0803809F034
:1021F000C0C05BC0803B09F486C038F4803A09F463
:1022000066C0883A09F47FC0B4C0803C09F4A7C016
:10221000883C09F4A4C0883B09F48AC0AAC0809114
:102220005F0810C09091610880916008981770F560
:10223000E091610881E08E0F80936108F0E0E25C3C
:10224000F74F80818093BB0085EC86C08093620845
:102250008EC0E091610881E08E0F809361088091CB
:10226000BB00F0E0E25CF74F8083909161088091C1
:1022700060086EC0E091610881E08E0F8093610874
:102280008091BB00F0E0E25CF74F808380916308AF
:1022900081116DC081E080935E0884EA61C083E0B3
:1022A0008093640810923B08CFCF80913B08803226
:1022B00008F051C0E0913B0881E08E0F80933B080D
:1022C0008091BB00F0E0E55EF74F8083BDCF85ECE9
:1022D0008093BC001092640880913B08803230F4F7
:1022E000E0913B08F0E0E55EF74F108260913B081B
:1022F00070E0E0911908F0911A088BE198E01995C7
:1023000010923B0836C084E080936408109218084D
:1023100010921708E0911508F09116081995809110
:102320001708811105C081E0809317081092F50706
:10233000E091180881E08E0F80931808F0E0EB50D0
:10234000F84F80818093BB00909118088091170806
:10235000981708F479CF85E88093BC000AC085EC13
:102360008093BC001092640804C0109262080E941E
:102370006A0FFF91EF91BF91AF919F918F917F91E4
:102380006F915F914F913F912F910F900BBE0F90E6
:102390000FBE0F901F9018952091B0039091B2033B
:1023A000213208F049C0809164088111FCCF32E0ED
:1023B00030936408609363083FEF30936208109293
:1023C000610820936008A5EDB7E04EE358E0FA01FC
:1023D0003E2F341B321718F43D913193F9CF1092F0
:1023E0005F0820915F08990F922B90935F0890915E
:1023F0005E08913061F410925E0890915F089093AE
:10240000BB009091BC0093FDF8CF95EC01C095EE18
:102410009093BC00909164089230E1F3909162082F
:102420009F3F79F080916208803241F0809162088C
:10243000803331F084E005C081E003C082E001C058
:1024400083E01092B1031092B0031092B303089589
:1024500090E0FC013197E231F10508F04EC0882789
:10246000EE58FF4F8F4F0C949C1F809180008F7708
:1024700003C0809180008F7D8093800008958091BB
:102480008000877FF9CF84B58F7702C084B58F7DB8
:1024900084BD08958091B0008F7703C08091B00013
:1024A0008F7D8093B0000895809190008F7707C052
:1024B000809190008F7D03C080919000877F8093F2
:1024C000900008958091A0008F7707C08091A000B0
:1024D0008F7D03C08091A000877F8093A000089526
:1024E000809120018F7707C0809120018F7D03C0EC
:1024F00080912001877F8093200108951F93CF93BF
:10250000DF93282F30E0F901E75AFC4F8491F9015D
:10251000ED5EFC4FD491F901E353FD4FC491CC2300
:10252000C9F0162F81110E942812EC2FF0E0EE0F57
:10253000FF1FED54FD4FA591B4918FB7F894111181
:1025400005C09C91ED2FE095E92302C0EC91ED2BA5
:10255000EC938FBFDF91CF911F9108951092640883
:1025600081E08093630810925E0861E084E10E943C
:102570007E1261E085E10E947E12E9EBF0E080814D
:102580008E7F808380818D7F808388E48093B800F4
:1025900085E48093BC000895CF93DF9390E0FC0125
:1025A000ED5EFC4F2491FC01E353FD4F84918823A1
:1025B00061F190E0880F991FFC01E756FD4FC5912E
:1025C000D491FC01ED54FD4FA591B491611109C066
:1025D0009FB7F8948881209582238883EC912E23DD
:1025E0000BC0623061F49FB7F8943881822F8095D8
:1025F00083238883EC912E2B2C939FBF06C08FB72B
:10260000F894E8812E2B28838FBFDF91CF91089516
:10261000863308F0865390917B00282F2870977F8F
:10262000922B90937B008770806480937C008091D4
:102630007A00806480937A0080917A0086FDFCCFD6
:10264000809178002091790090E0922B08958F92EC
:102650009F92AF92BF92CF92DF92EF92FF926B0167
:102660007C010E94710C4B015C01C114D104E10496
:10267000F104F1F00E94710CDC01CB018819990979
:10268000AA09BB09883E9340A105B10570F321E07A
:10269000C21AD108E108F10888EE880E83E0981E7E
:1026A000A11CB11CC114D104E104F10419F7DDCF60
:1026B000FF90EF90DF90CF90BF90AF909F908F9062
:1026C0000895CF93C82F81E08093B30382E5809370
:1026D000B2031092B1031092B00384EB93E00E9416
:1026E000F00F6C2F84EB93E00E94F00F61E084EB1D
:1026F00093E00E94CC116AE070E080E090E0CF911E
:102700000C942713EF92FF921F93CF93DF93CDB7D3
:10271000DEB72C970FB6F894DEBF0FBECDBF809109
:1027200064088111FCCF81E0809364088093630882
:102730009FEF909362081092610895E09093600873
:1027400080935F0880915F08846A80935F0880911E
:102750005E08813061F410925E0880915F0880937A
:10276000BB008091BC0083FDF8CF85EC01C085EEF5
:102770008093BC00809164088130E1F3809161080E
:10278000863018F41091610801C016E0AEE3B8E09D
:1027900025E638E0F9018E2F821B811718F48D9100
:1027A0008193F9CF1092C6071093C507CE01019609
:1027B0007C018091C607181749F084EB93E00E94D2
:1027C000AC0FF701819391937F01F3CF89819A81B7
:1027D0009093C8078093C7078B819C819093CA0709
:1027E0008093C9078B859C859C01359527953595E8
:1027F0002795A901437055272D813E81220F331F54
:10280000220F331F242B352B3093CC072093CB077B
:102810009C0174E0359527957A95E1F7A9014370FD
:1028200055272F813885220F331F220F331F242B6A
:10283000352B3093CE072093CD079C01F6E03595DC
:102840002795FA95E1F7A9014370552729853A851F
:10285000220F331F220F331F242B352B3093D00729
:102860002093CF079C0121703327F1E02F2730936D
:10287000D2072093D10721E030E081FF02C020E0A1
:1028800030E03093D4072093D30760E080E02C96AB
:102890000FB6F894DEBF0FBECDBFDF91CF911F9171
:1028A000FF90EF900C946113E0E0F0E01994CF9268
:1028B000DF92EF92FF9269017A01AB01BC0188E8D7
:1028C00097E00E942117B701A60170588AE897E0A7
:1028D000FF90EF90DF90CF900C9421178F929F92F2
:1028E000AF92BF92CF92DF92EF92FF920F931F931E
:1028F000CF93DF938C01C0E0D0E06B01770FEE083F
:10290000FF084A01550FAA08BB08C017D10794F465
:1029100061E088E00E947E12C701B6010E94271381
:1029200060E088E00E947E12C501B4010E94271376
:102930002196EBCFDF91CF911F910F91FF90EF90F8
:10294000DF90CF90BF90AF909F908F900895CF93DE
:10295000C0E08C2F0E9408138139914024F081E05F
:1029600090E00E940502CF5FC83099F7CF9108959B
:102970004F925F926F927F928F929F92AF92BF928F
:10298000CF92DF92EF92FF92982EA12CB12CC12C06
:10299000D12C76018AE0A816B10449F1892D0E9454
:1029A0000813BC01990F880B990B0E94321E26EA6E
:1029B0003BE944EC5BEB0E94911E9B01AC016DEF87
:1029C00076EF8DE290E40E94BE202DE73FE34BEAD4
:1029D00052E40E94911E9B01AC01C701B6010E9406
:1029E000A51F6B017C018FEFA81AB80AD3CF20E096
:1029F00030E040E251E4C701B6010E9411206B01B2
:102A00007C019B01AC010E940E21882319F08EE904
:102A100093E01AC046015701E894B7F82FEF3FEF53
:102A20004FE75FE7C501B4010E940E2181110FC07D
:102A30002FEF3FEF4FE75FE7C501B4010E942B1E68
:102A400018162CF482EA93E00E94DF0872C02FEF80
:102A50003FEF4FE75FE4C701B6010E94B9201816A7
:102A60001CF486EA93E0F0CF2FEF3FEF4FE75FECE7
:102A7000C701B6010E942B1E87FDF3CF20E030E096
:102A8000A901C701B6010E942B1E87FF07C08DE276
:102A90000E940E0BC701B601905802C0C701B601D3
:102AA0002AE037ED43EA5BE30E94A51F2B013C01BE
:102AB0000E948A204B015C010E94301E9B01AC01E8
:102AC000C301B2010E94A41F2B013C014AE0C501D1
:102AD000B4010E941F108EE20E940E0B20E030E035
:102AE00040E251E4C301B2010E94911E2B013C015E
:102AF0000E948A204B01A12CB12C4AE0C501B401EF
:102B00000E941F10C501B4010E94301E9B01AC0140
:102B1000C301B2010E94A41F20E030E040E251E472
:102B20000E94911E0E948A2080E090E04AE00E946C
:102B30001F100E94F108C701B601FF90EF90DF90CF
:102B4000CF90BF90AF909F908F907F906F905F904D
:102B50004F90089540E050E0BA0188E897E00E9465
:102B6000211740E050E060E070E88AE897E00E94BA
:102B700021178CE897E00E94E9188EE897E00C9402
:102B8000E9180F931F93CF93DF930E948213C0E045
:102B9000D0E000E010E00E9482138091D107909174
:102BA000D207892BF1F50E94821360E088E00E9431
:102BB0007E1264E670E080E090E00E94271340E01F
:102BC00050E0BA0188E897E00E94211740E050E009
:102BD000BA0188E897E00E9421170E948213809131
:102BE000D3079091D407019709F421960E9482138C
:102BF0008091D3079091D407892B81F0CA30D105F9
:102C000054F244E650E068EC70E085E090E00E9409
:102C10006E140E94AA15F8011995BDCFC0E0D0E04E
:102C2000BACFDF91CF911F910F9108954F925F928C
:102C30006F927F928F929F92AF92BF92CF92DF92CC
:102C4000EF92FF926C018CE897E00E94E9188EE801
:102C500097E00E94E91846010D2C000CAA08BB0859
:102C600026E9C21A25E0D20A0D2C000CEE08FF0856
:102C700084E6482E512C612C712C8CE897E00E9440
:102C800014199B01AC0188279927DC01821B930B47
:102C9000A40BB50B88159905AA05BB050CF054C00B
:102CA0008CE897E00E9414199B01AC0188279927B2
:102CB000DC01821B930BA40BB50B86399540A10553
:102CC000B10564F48CE897E00E9414199095809502
:102CD000709561957F4F8F4F9F4F1AC08CE897E09A
:102CE0000E9414199B01AC0188279927DC01821BE3
:102CF000930BA40BB50BC816D906EA06FB06ECF439
:102D00008CE897E00E941419680D791D8A1D9B1D9F
:102D1000A30192010E944F1FCA01B9010E94321EF5
:102D200029E23CE54FE05DE30E94911E2DEC3CEC76
:102D30004CEC5DE30E94A51F04C06AE979E989E1D2
:102D40009FE30E944C0999CF40E050E0BA0188E827
:102D500097E00E94211740E050E060E070E88AE8C8
:102D600097E00E9421178CE897E00E94E9188EE80E
:102D700097E00E94E91864E670E080E090E0FF9040
:102D8000EF90DF90CF90BF90AF909F908F907F900B
:102D90006F905F904F900C942713089580E090E01F
:102DA0000895FC01248131E03093B3032093B203F2
:102DB0001092B1031092B0038485682B84EB93E0EA
:102DC0000E94F00F61E084EB93E00C94CC110F9320
:102DD0001F93CF938C01C62F64600E94D1166C2F75
:102DE0006B7FC8010E94D11683EC90E00197F1F748
:102DF000CF911F910F9108950F931F93CF93DF935E
:102E00008C01C62FD62FD07FD1606D2F0E94D11696
:102E10006D2FC8010E94E71680E1C89FB001112400
:102E2000C62FC1606C2FC8010E94D1166C2FC8013B
:102E30000E94E71681E090E0DF91CF911F910F9102
:102E400008958F929F92AF92BF92CF92DF92EF92AE
:102E5000FF920F931F93CF93DF93EC016A017B01E5
:102E600020E030E04FE753E4C701B6010E94911E15
:102E70004B015C0120E030E0A9010E94B920181646
:102E80001CF4C501B40103C0C501B40190580E94EF
:102E900083208B0120E030E0A901C701B6010E9428
:102EA000B920181614F460E001C061E089810E9425
:102EB0007E120F3F110509F014F4112702C00FEF25
:102EC00010E0C88161E08C2F0E94CC120115110521
:102ED00009F4B1C00F3F110509F4AFC0EC2FF0E0C9
:102EE000E75AFC4FE4914E2F50E0FA013197E2315E
:102EF000F10508F09DC08827EC57FF4F8F4F0C94C9
:102F00009C1F84B5806884BD07BDA7C084B580625E
:102F100084BD08BDA2C0809180008068809380003D
:102F2000109389000093880098C08091800080628F
:102F30008093800010938B0000938A008EC0809154
:102F4000800088608093800010938D0000938C0037
:102F500084C08091B00080688093B0000093B3007B
:102F60007CC08091B00080628093B0000093B40078
:102F700074C08091900080688093900010939900B5
:102F8000009398006AC080919000806280939000C6
:102F900010939B0000939A0060C08091900088601D
:102FA0008093900010939D0000939C0056C08091E8
:102FB000A00080688093A0008091A0008F7B809308
:102FC000A0001093A9000093A80047C08091A00022
:102FD00080628093A0001093AB000093AA003DC0D4
:102FE0008091A00088608093A0001093AD000093B2
:102FF000AC0033C080912001806880932001109341
:1030000029010093280129C08091200180628093CA
:10301000200110932B0100932A011FC080912001F1
:1030200088608093200110932D0100932C0115C01E
:103030000038110514F460E001C061E08C2FDF91CD
:10304000CF911F910F91FF90EF90DF90CF90BF90A5
:10305000AF909F908F900C947E12DF91CF911F9133
:103060000F91FF90EF90DF90CF90BF90AF909F9027
:103070008F9008951F920F920FB60F9211240BB6E6
:103080000F922F933F934F935F936F937F938F9301
:103090009F93AF93BF93EF93FF938091850887FF32
:1030A00005C0109285001092840016C020918508FA
:1030B000022E000C330B8091A50690E028173907EB
:1030C0005CF43091850825E03203F0011124E759C2
:1030D000F94F808186FD15C0809185088F5F8093B0
:1030E000850820918508022E000C330B8091A506DF
:1030F00090E02817390794F4809185088C302CF1E2
:103100000DC0309185083203F0011124E759F94FC1
:10311000808160E08F730E947E12DECF80918400F8
:103120009091850084349C4918F480E49CE905C0A2
:1031300080918400909185000496909389008093FB
:1031400088008FEF809385082AC0409184005091B9
:1031500085003091850825E03203F0011124E759FC
:10316000F94F81819281840F951F909389008093FC
:103170008800309185083203F0011124E759F94F96
:10318000808186FF0CC0309185083203F001112444
:10319000E759F94F808161E08F730E947E12FF91A1
:1031A000EF91BF91AF919F918F917F916F915F91BF
:1031B0004F913F912F910F900BBE0F900FBE0F902C
:1031C0001F9018958EBD00000DB407FEFDCF8EB583
:1031D0000895CF93DF93EC0160E088810E947E1216
:1031E00088E90E94E21880E00E94E21880E00E94D4
:1031F000E21880E00E94E21880E00E94E21861E09C
:1032000088810E947E128BE891E00197F1F760E0DF
:1032100088810E947E1280EE0E94E21861E088811F
:10322000DF91CF910C947E12AF92BF92CF92DF923A
:10323000EF92FF920F931F93CF93DF93CDB7DEB73B
:1032400060970FB6F894DEBF0FBECDBF5C0160E0A3
:10325000FC0180810E947E1280E60E94E2188E01AD
:103260000F5F1F4F7E01F1E1EF0EF11C680180E05E
:103270000E94E21890E0A0E0B0E0F6018193919303
:10328000A193B1936F01EE15FF0589F761E0F50198
:1032900080810E947E1280E090E0DC01F801419183
:1032A0005191619171918F01BA2FA92F982F882781
:1032B000840F951FA61FB71FEE15FF0579F79C0118
:1032C000AD0166277727CB01621B730B840B950B2F
:1032D00060960FB6F894DEBF0FBECDBFDF91CF91E1
:1032E0001F910F91FF90EF90DF90CF90BF90AF9024
:1032F00008951092B7031092B60388EE93E0A0E011
:10330000B0E08093B8039093B903A093BA03B0934D
:10331000BB032DE032E03093B5032093B403109249
:10332000C3031092C2038093C4039093C503A09378
:10333000C603B093C7032FE132E03093C10320935B
:10334000C00345E351E05093CD034093CC0344E3E5
:1033500051E05093CF034093CE0340E351E05093AC
:10336000D1034093D00341E351E05093D303409302
:10337000D20342E351E05093D5034093D40346E394
:1033800051E05093D7034093D6031092D903109283
:10339000DA031092DB031092DC03109260041092A7
:1033A0005F048093610490936204A0936304B093DC
:1033B000640430935E0420935D0445ED50E0509327
:1033C0006A044093690444ED50E050936C044093C8
:1033D0006B0440ED50E050936E0440936D0441ED5A
:1033E00050E05093700440936F0442ED50E05093CE
:1033F00072044093710446ED50E05093740440937E
:10340000730410927604109277041092780410924C
:1034100079041092FD041092FC048093FE049093B2
:10342000FF04A0930005B09301053093FB042093A3
:10343000FA0485EC90E0909307058093060584ECF0
:1034400090E0909309058093080580EC90E09093BC
:103450000B0580930A0581EC90E090930D05809315
:103460000C0582EC90E090930F0580930E0586EC9E
:1034700090E090931105809310051092130510921F
:103480001405109215051092160586E38093900797
:1034900087E38093910788E38093920789E3809381
:1034A00093078BE1809394078DE1809395078AE1E0
:1034B000809396078CE18093970784E08093980728
:1034C00087E08093990710929A0784EB80939B077B
:1034D00086E180939C0788E180939D0787E1809334
:1034E0009E0789E180939F07E091A506EC3020F0CC
:1034F0008FEF8093A00710C081E08E0F8093A50608
:10350000E093A00725E0E29FF0011124E759F94F6D
:1035100088EB9BE092838183E091A506EC3020F05C
:103520008FEF8093A10710C081E08E0F8093A506D6
:10353000E093A10785E0E89FF0011124E759F94FD6
:1035400088EB9BE0928381838CE080936F0784E219
:103550008093700786E08093710785E080937207FF
:103560008FE1809373078EE18093740783E28093E9
:10357000750782E28093760785E48093770784E479
:103580008093780780E480937B07109280071092E5
:10359000810710928207109283071092840710927D
:1035A00085071092860710928707E1EBF6E08FEF10
:1035B0009FEFDC0112821382148215821682178219
:1035C0001086118683879487A587B6878787908B17
:1035D000A18BB28B128611821082739627E0EF3690
:1035E000F20741F78DE090E00E944822FC0113822F
:1035F000128281E392E091838083118687E2848343
:1036000084E1828784E083871486F093AE06E0939A
:10361000AD061092AF061092B00685E28093980531
:1036200010929A051092A7061092A6061092A9066B
:103630001092A8061092AB061092AA0661E070E004
:1036400080E090E00E947523009789F09093A70690
:103650008093A6061092A9061092A8062091AA06A9
:103660003091AB06232BC1F4FC01108215C0809170
:10367000A6069091A706009711F00E94DD221092F5
:10368000A7061092A6061092AB061092AA061092F8
:10369000A9061092A80608951092AB061092AA06E9
:1036A00062E873E00C946C24789484B5826084BDE5
:1036B00084B5816084BD85B5826085BD85B5816036
:1036C00085BD80916E00816080936E0010928100B4
:1036D000809181008260809381008091810081606F
:1036E0008093810080918000816080938000809130
:1036F000B10084608093B1008091B00081608093BC
:10370000B00080919100826080939100809191003F
:1037100081608093910080919000816080939000FF
:103720008091A10082608093A1008091A1008160BE
:103730008093A1008091A00081608093A00080917F
:103740002101826080932101809121018160809319
:1037500021018091200181608093200180917A0075
:10376000846080937A0080917A00826080937A00EE
:1037700080917A00816080937A0080917A008068DD
:1037800080937A001092C1000E94B70861E0809196
:1037900070070E94CC1260E0809170070E947E1238
:1037A00060E080916F070E94CC1284EB93E09093CD
:1037B0007A07809379071092C6071092C507109276
:1037C000B1031092B0030E94AE1280E090E1A0E03D
:1037D000B0E080937C0790937D07A0937E07B09321
:1037E0007F078AE090E0A0E0B0E0809380079093AC
:1037F0008107A0938207B093830780E090E0A0E068
:10380000B0E48093840790938507A0938607B093D4
:10381000870760E070E185E00E9401096FE979E3C4
:1038200080E00E940109CCE8D7E0C12CD12CE12C2A
:10383000F12C62E0662E63E0762E78E4872E73E04A
:10384000972EEBECAE2EE7E0BE2EC7018159984FC4
:103850002C01FC019481828186010159184FF801E5
:10386000818F928F61E00E94CC1261E0F801828D1D
:103870000E94CC12F201908586818883F801968F90
:1038800061E00E94CC1260E0F801868D0E94CC12AB
:1038900061E088810E947E121FB7F8948091B90779
:1038A000811125C0F3018491F4019491E82FF0E097
:1038B000EE0FFF1FE756FD4FA591B4918C91982311
:1038C00021F461E085E30E947E1261E085E30E94BD
:1038D000CC128CB580618CBD8CB580648CBD61E0F0
:1038E00084E30E94CC1261E083E30E94CC128091B9
:1038F000B9078F5F8093B9071FBFC5010197F1F723
:1039000060E088810E947E1288E80E94E21883E0CD
:103910000E94E21861E088810E947E12C501019731
:10392000F1F7CE010E94E918F2E0CF0ED11C2296E9
:10393000EA94EF2821F0EE24E394F12C86CFC4E939
:10394000D7E01C2F1C5F60E089910E94CC121C13F1
:10395000FACF03EA17E0C0EAD7E095E0C92E2CE0E1
:10396000E22E32E0B32EDC2ED394D394FE013897AE
:10397000F08088818C3008F044C061E08F2D0E9477
:10398000CC128881C89EF0011124E759F94F9F2D70
:103990009F732081207CF22EF92AF08213821482F8
:1039A0006E2D0E94901F9CE0899FA001112420E0B1
:1039B00030E0B901640F751FC69EF001C79EF00D7F
:1039C0001124E759F94F908196FD12C02F5F3F4FA8
:1039D0002C30310571F781110BC010928000B0922C
:1039E00081001092850010928400B6BAB0926F00E8
:1039F000E881CE9EF0011124E759F94F808180645F
:103A00008083FE013297908132978081F80131974F
:103A10008083F801908360E00E94CC1261E0F8019D
:103A200080810E94CC1260E0F80180810E947E12A9
:103A300021960E5F1F4FDC1299CFF894109220014F
:103A400089E08093210180E293E0909329018093A3
:103A50002801109225011092240182E080937300C6
:103A600078948093970510929B058091980560E06B
:103A70000E94CC121092C6071092C5071092B10393
:103A80001092B0030E94AE1260EF85E50E946113B0
:103A90006BEF80E00E9461130E9482130E94B708BE
:103AA00061E08EE20E94CC1261E08EE20E947E1202
:103AB00000E010E082E0E82EF12C0E948213809159
:103AC000D3079091D407019721F58091D107909168
:103AD000D207C0E0D0E00197F1F48091CF07909138
:103AE000D007873B9340BCF0219664E670E080E00D
:103AF00090E00E942713CA30D10579F740E050E0EA
:103B000060E177E281E090E00E946E14F80119957F
:103B1000E4CFC0E0D0E08091D3079091D407019723
:103B200009F053C08091D1079091D207892B09F0F9
:103B30004CC00E9482138091D3079091D4070197C3
:103B400069F46AE070E080E090E00E9427130E9430
:103B5000821383E893E00E94F508EDCF0E94821360
:103B60008DE893E00E94F5088091BA079091BB0719
:103B7000009759F481E090E09093BB078093BA07D7
:103B800040E050E064EF71E00DC08130910569F4D0
:103B9000F092BB07E092BA0746E950E064EF71E0AB
:103BA00082E090E00E946E1402C0029719F387E948
:103BB00093E00E9460108091BA079091BB070E9429
:103BC000621082E893E00E94F5080E9482138091BF
:103BD000BA079091BB07892B89F562E370E080E01A
:103BE00090E00E9427130E94420C67CF8091D1077A
:103BF0009091D207019789F70E948213219664E67B
:103C000070E080E090E00E942713CA30D105B1F443
:103C100048EC50E068EE73E081E090E00E946E14A2
:103C200044E650E069EE70E083E090E00E946E149C
:103C30008091BA079091BB070E9405028091D3073B
:103C40009091D407892B91F2C8CF8091A6069091CC
:103C5000A7060C94DD220E946D1E08F481E00895F1
:103C6000E89409C097FB3EF4909580957095619516
:103C70007F4F8F4F9F4F9923A9F0F92F96E9BB27CC
:103C80009395F695879577956795B795F111F8CF48
:103C9000FAF4BB0F11F460FF1BC06F5F7F4F8F4FB3
:103CA0009F4F16C0882311F096E911C0772321F0A9
:103CB0009EE8872F762F05C0662371F096E8862F41
:103CC00070E060E02AF09A95660F771F881FDAF798
:103CD000880F9695879597F90895990F0008550FC5
:103CE000AA0BE0E8FEEF16161706E807F907C0F082
:103CF00012161306E407F50798F0621B730B840B8A
:103D0000950B39F40A2661F0232B242B252B21F463
:103D100008950A2609F4A140A6958FEF811D811D03
:103D200008950E94A41E0C94151F0E94071F38F0CE
:103D30000E940E1F20F0952311F00C94FE1E0C948F
:103D4000041F11240C94491F0E94261F70F3959F95
:103D5000C1F3950F50E0551F629FF001729FBB2782
:103D6000F00DB11D639FAA27F00DB11DAA1F649F1E
:103D70006627B00DA11D661F829F2227B00DA11DD1
:103D8000621F739FB00DA11D621F839FA00D611D57
:103D9000221F749F3327A00D611D231F849F600D78
:103DA000211D822F762F6A2F11249F5750409AF0A1
:103DB000F1F088234AF0EE0FFF1FBB1F661F771F2D
:103DC000881F91505040A9F79E3F510580F00C94F8
:103DD000FE1E0C94491F5F3FE4F3983ED4F3869592
:103DE00077956795B795F795E7959F5FC1F7FE2B98
:103DF000880F911D9695879597F9089597F99F6774
:103E000080E870E060E008959FEF80EC0895002462
:103E10000A941616170618060906089500240A942F
:103E200012161306140605060895092E0394000CB5
:103E300011F4882352F0BB0F40F4BF2B11F460FF44
:103E400004C06F5F7F4F8F4F9F4F089557FD90586D
:103E5000440F551F59F05F3F71F04795880F97FB4E
:103E6000991F61F09F3F79F0879508951216130608
:103E70001406551FF2CF4695F1DF08C01616170637
:103E80001806991FF1CF869571056105089408956C
:103E9000E894BB2766277727CB0197F90895052E6D
:103EA00097FB1EF400940E94661F57FD07D00E94E6
:103EB0006E1F07FC03D04EF40C94661F509540957E
:103EC000309521953F4F4F4F5F4F089590958095C6
:103ED000709561957F4F8F4F9F4F0895A1E21A2EE5
:103EE000AA1BBB1BFD010DC0AA1FBB1FEE1FFF1F9E
:103EF000A217B307E407F50720F0A21BB30BE40BEE
:103F0000F50B661F771F881F991F1A9469F7609534
:103F10007095809590959B01AC01BD01CF010895EE
:103F2000991B79E004C0991F961708F0961B881F0B
:103F30007A95C9F780950895EE0FFF1F881F8BBFF4
:103F40000790F691E02D19945058BB27AA270E949C
:103F5000BC1F0C94151F0E94071F38F00E940E1FF3
:103F600020F039F49F3F19F426F40C94041F0EF44A
:103F7000E095E7FB0C94FE1EE92F0E94261F58F3E4
:103F8000BA17620773078407950720F079F4A6F53E
:103F90000C94481F0EF4E0950B2EBA2FA02D0B01A8
:103FA000B90190010C01CA01A0011124FF27591B7E
:103FB00099F0593F50F4503E68F11A16F040A22F84
:103FC000232F342F4427585FF3CF469537952795F5
:103FD000A795F0405395C9F77EF41F16BA0B620BF4
:103FE000730B840BBAF09150A1F0FF0FBB1F661F3B
:103FF000771F881FC2F70EC0BA0F621F731F841F7E
:1040000048F4879577956795B795F7959E3F08F0A3
:10401000B0CF9395880F08F09927EE0F9795879565
:1040200008950E9425200C94151F0E940E1F58F021
:104030000E94071F40F029F45F3F29F00C94FE1EF8
:1040400051110C94491F0C94041F0E94261F68F301
:104050009923B1F3552391F3951B550BBB27AA2741
:1040600062177307840738F09F5F5F4F220F331F7B
:10407000441FAA1FA9F335D00E2E3AF0E0E832D043
:1040800091505040E695001CCAF72BD0FE2F29D046
:10409000660F771F881FBB1F261737074807AB0718
:1040A000B0E809F0BB0B802DBF01FF2793585F4F8D
:1040B0003AF09E3F510578F00C94FE1E0C94491F77
:1040C0005F3FE4F3983ED4F3869577956795B7956F
:1040D000F7959F5FC9F7880F911D9695879597F97A
:1040E0000895E1E0660F771F881FBB1F62177307F3
:1040F0008407BA0720F0621B730B840BBA0BEE1F08
:1041000088F7E09508950E948A206894B1110C9474
:10411000491F08950E942E1F88F09F5798F0B92FCD
:104120009927B751B0F0E1F0660F771F881F991FEC
:104130001AF0BA95C9F714C0B13091F00E94481F27
:10414000B1E008950C94481F672F782F8827B85F37
:1041500039F0B93FCCF3869577956795B395D9F744
:104160003EF490958095709561957F4F8F4F9F4F4E
:1041700008950E946D1E08F48FEF0895FA01EE0F66
:10418000FF1F309621053105A1F16115710561F41C
:104190008038BFE39B0749F168949038810561F04E
:1041A0008038BFEF9B0741F099234AF5FF3FE105B7
:1041B0003105210519F1E8940894E795D901AA235E
:1041C00029F4AB2FBE2FF85FD0F310C0FF5F70F45F
:1041D000A695E0F7F73950F019F0FF3A38F49F77D9
:1041E0009F930DD00F9007FC9058089546F00C94C3
:1041F000041F60E070E080E89FE308954FE79F7739
:104200005F934F933F932F930E94BE212F913F9135
:104210004F915F910E94911E0C941B210E946D1E74
:10422000880B990B089529F416F00C94FE1E0C943B
:10423000481F0C94041F0E942E1FA8F39638A0F765
:1042400007F80F92E8942BE33AEA48EB5FE70E9405
:10425000A71E0F920F920F924DB75EB70F920E945A
:104260000622ECE2F1E00E944D214F915F91EF9127
:10427000FF91E595EE1FFF1F49F0FE57E0684427C8
:10428000EE0F441FFA95E1F74195550B0E948021EE
:104290000F9007FE0C9474210895DF93CF931F9322
:1042A0000F93FF92EF92DF927B018C01689406C01E
:1042B000DA2EEF010E94A41EFE01E894A59125913B
:1042C000359145915591A6F3EF010E94BC1FFE0167
:1042D0009701A801DA9469F7DF90EF90FF900F91B2
:1042E0001F91CF91DF9108959B01AC0160E070E0D8
:1042F00080E89FE30C9411200C94FE1E0C943A224B
:104300000E942E1FD8F39923C9F3940F511DA3F3D4
:104310009150504094F059F0882332F0660F771F87
:10432000881F91505040C1F79E3F51052CF7880FD0
:10433000911D9695879597F908955F3FACF0983E4B
:104340009CF0BB27869577956795B79508F4B16083
:104350009395C1F7BB0F58F711F460FFE8CF6F5F7B
:104360007F4F8F4F9F4FE3CF0C94491F16F00C9453
:104370003A220C94041F68940C94FE1E0E942E1F77
:10438000A8F39923C1F3AEF3DF93CF931F930F9359
:10439000FF92C92FDD2788232AF02197660F771F08
:1043A000881FDAF720E030E040E85FEB9FE38839D0
:1043B00020F0803E38F021968F770E94A51FE4E51B
:1043C000F1E004C00E94A51FE1E8F1E00E944D2148
:1043D0008B01BE01EC01FB2E6F5771097595771F9C
:1043E000880B990B0E94321E28E132E741E35FE31C
:1043F0000E94A41EAF2D9801AE01FF900F911F9156
:10440000CF91DF910E94BC1F0C94151FFA01DC01B3
:10441000AA0FBB1F9B01AC01BF5728F422273327EB
:104420004427507820C0B75190F4AB2F0024469514
:1044300037952795011CA395D2F3002071F0220F28
:10444000331F441FB395DAF30ED00C94A41F6130D0
:104450007105A0E88A07B94630F49B01AC016627D4
:10446000772788279078309621F020833183428304
:10447000538308959F3F31F0915020F487957795AD
:104480006795B795880F911D9695879597F908952B
:10449000CF93DF938230910510F482E090E0E091B9
:1044A0008808F091890820E030E0C0E0D0E0309743
:1044B00011F14081518148175907C0F04817590739
:1044C00061F482819381209719F09B838A832BC0AA
:1044D000909389088093880826C02115310519F02A
:1044E0004217530718F49A01BE01DF01EF01028061
:1044F000F381E02DDCCF2115310509F1281B390BA3
:104500002430310590F412968D919C91139761158A
:10451000710521F0FB019383828304C09093890885
:1045200080938808FD01329644C0FD01E20FF31F1D
:1045300081939193225031092D933C933AC020915D
:10454000860830918708232B41F420910502309191
:104550000602309387082093860820910302309149
:1045600004022115310541F42DB73EB740910702F1
:1045700050910802241B350BE0918608F0918708C2
:10458000E217F307A0F42E1B3F0B2817390778F02A
:10459000AC014E5F5F4F2417350748F04E0F5F1F89
:1045A00050938708409386088193919302C0E0E07E
:1045B000F0E0CF01DF91CF9108950F931F93CF9338
:1045C000DF93009709F48CC0FC01329713821282AA
:1045D00000918808109189080115110581F4208146
:1045E0003181820F931F2091860830918708281708
:1045F000390779F5F0938708E093860871C0D801F0
:1046000040E050E0AE17BF0750F412962D913C9158
:104610001397AD012115310509F1D901F3CF9D01A2
:10462000DA013383228360817181860F971F82179D
:10463000930769F4EC0128813981260F371F2E5F1B
:104640003F4F318320838A819B8193838283452BD3
:1046500029F4F0938908E093880842C01396FC93EC
:10466000EE931297ED01499159919E01240F351F48
:10467000E217F30771F480819181840F951F0296F0
:1046800011969C938E938281938113969C938E9323
:104690001297E0E0F0E0D80112968D919C9113976B
:1046A000009719F0F8018C01F6CF8D919C9198013B
:1046B0002E5F3F4F820F931F20918608309187080D
:1046C0002817390769F4309729F410928908109255
:1046D000880802C01382128210938708009386080C
:1046E000DF91CF911F910F9108956F927F928F92DA
:1046F0009F92AF92BF92CF92DF92EF92FF920F9371
:104700001F93CF93DF93EC01009789F4CB01DF91E6
:10471000CF911F910F91FF90EF90DF90CF90BF90BE
:10472000AF909F908F907F906F900C944822FC01E7
:10473000E60FF71F9C0122503109E217F30708F436
:10474000ACC0D9010D911C91119706171707B0F055
:104750000530110508F49FC0C80104978617970714
:1047600008F499C002501109061B170B019311930D
:104770006D937C93CF010E94DD228DC05B01A01A56
:10478000B10A4C01800E911EA0918808B091890851
:1047900040E050E0E12CF12C109709F44AC0A81534
:1047A000B905D1F56D907C901197630182E0C80E38
:1047B000D11CCA14DB0480F1A3014A195B096A0108
:1047C00082E0C80ED11C1296BC9012971396AC9141
:1047D000B5E0CB16D10440F0B282A383518340836D
:1047E000D9016D937C930AC00E5F1F4FC301800FE8
:1047F000911FF90191838083EB2DFA2FE114F104CD
:1048000031F0D7011396FC93EE93129744C0F093C6
:104810008908E09388083FC08D919C9111974817B3
:10482000590708F4AC017D0112960D90BC91A02DA2
:10483000B3CF809186089091870888159905E1F497
:1048400046175707C8F4809103029091040200971D
:1048500041F48DB79EB74091070250910802841B26
:10486000950BE817F907C8F4F0938708E0938608DA
:10487000F901718360830FC0CB010E9448227C0143
:10488000009759F0A801BE010E946324CE010E9446
:10489000DD22C70104C0CE0102C080E090E0DF91BC
:1048A000CF911F910F91FF90EF90DF90CF90BF902D
:1048B000AF909F908F907F906F90089581E090E0EF
:1048C000F8940C947324FB01DC0102C001900D925A
:1048D00041505040D8F70895FB01DC0101900D9242
:1048E0000020E1F7089511E0C1EDD1E000E006C03D
:1048F000802FFE010E949C1F2196011DC23DD10701
:0A49000080E00807A9F7F894FFCF44
:10490A000100FF00008A08200000000000F00FC02C
:10491A000FCE169C0F620FAC0F9D0F00000000D93E
:10492A000B190B5D0B200C8E0B6C0B800B0000001F
:10493A0000FC16190BCE16CD166D6F64652031205A
:10494A0073656C656374696F6E6E6500626F75631B
:10495A006C65203100736F7274696520626F7563CC
:10496A006C652032004A65207375697320736F7213
:10497A00746965206465206C612063616C69737376
:10498A0020646520666F6E6374696F6E2070697348
:10499A0020736F72746965203D2033002061333AB9
:1049AA0020002061343A20002061353A200020613D
:1049BA00363A20004A652063686572636865207527
:1049CA006E65206C69676E652028736F72746965FD
:1049DA00203329006C69676E652074726F7576657D
:1049EA000020536F727469653A20006D6F64652008
:1049FA00322073656C656374696F6E6E6500097346
:104A0A00746177703A2000092000646972656374E2
:104A1A00696F6E3A20005354415750004A27617615
:104A2A00616E63652043522A53530042656565658A
:104A3A0065702042656565656570204265656565D6
:104A4A00657000547269626F726420746F75746560
:104A5A00202364726F697465004261626F72642018
:104A6A00746F7574652023476175636865007465A2
:104A7A006D70203D2000626F75636C6520643100A3
:104A8A000D0A004320656E666F6E636500432072EF
:104A9A00656C6163686500094D6F646520006E612D
:0A4AAA006E00696E66006F7666000C
:00000001FF
