:100000000C94D2010C9403020C9403020C9403028E
:100010000C9403020C9403020C9403020C9403024C
:100020000C9403020C94240F0C94240F0C94240FB2
:100030000C9403020C94B4030C9403020C9403027A
:100040000C9403020C944F070C9403020C940302CB
:100050000C9403020C9403020C9403020C948A1275
:100060000C9403020C9425050C94FB040C940302DD
:100070000C9403020C9403020C9403020C940302EC
:100080000C9403020C9403020C9403020C940302DC
:100090000C9403020C9403020C9403020C942E0F94
:1000A0000C9403020C9403020C9403020C940302BC
:1000B0000C9403020C9403020C9403020C944F055D
:1000C0000C9403020C9403020C9403020C94D104CC
:1000D0000C94A7040C9403020C947D040C94530418
:1000E0000C94030296069B06A006AA06B4062D07EA
:1000F000BE06C606CE06D806E206EC06FB060507D7
:100100002D070F0719072307D710DA10C910CD10D4
:10011000D3101111DE10E210E810EC10F010F61000
:10012000FA10FE101111041108110C110763423668
:10013000B79BD8A71A39685618AEBAAB558C1D3C78
:10014000B7CC5763BD6DEDFD753EF6177231BF003C
:100150000000803F08000000BE922449123EABAA76
:10016000AA2ABECDCCCC4C3E00000080BEABAAAAD1
:10017000AA3E00000000BF000000803F0000000019
:1001800000084178D3BB4387D1133D190E3CC3BD52
:100190004282AD2B3E68EC8276BED98FE1A93E4CFF
:1001A00080EFFFBE01C4FF7F3F00000000000C9401
:1001B000DA100C9405020C94BE060C9423070C94E0
:1001C000D3100C9458020C94740E0C94FE100C94E2
:1001D000A00E0C94980E0C942D070C949B060C9476
:1001E000FB060C94EC100C945F030C94EC060C943E
:1001F000750E0C940C030C940F070C94F6100C94D1
:10020000AA060C9449020C94041A0C94CE060C9481
:1002100011110C94C6060C946C020C948F030C9470
:10022000CD100C9408110C9496060C94840E0C942A
:10023000A0060C94B4060C94DE100C9405070C94E4
:10024000FA100C9419070C94E2100C9404110C94FD
:10025000F0100C94D8060C94D00E0C94FE190C944B
:10026000C9100C945E030C940C110C947A020C943B
:10027000E8100C94D7100C94C5020C94E206000010
:1002800020002300260029002C002F00320000014E
:1002900000000301060109010200002100240027DB
:1002A000002A002D00300033000101000004010786
:1002B000010A0100002200250028002B002E003139
:1002C00000340002010000050108010B01050505CD
:1002D00005070508080808020202020A0A080804BD
:1002E00004040401010101010101010303030303EB
:1002F000030303040707070C0C0C0C0C0C0C0C027A
:1003000002020206060606060606060B0B0B0B0B80
:100310000B0B0B0102102020080810204010204079
:1003200080020102010804020101020408102040B9
:1003300080804020100804020180040201804020D7
:100340001008040201080402010102040810204000
:1003500080010204081020408000000A0B02090CF2
:100360000D0E08070304010000000000000000005B
:10037000000000000000000000000000000000007D
:10038000000000000012111000000000000000003A
:10039000000000000000000000000000000000005D
:1003A000041AFE1911241FBECFEFD1E2DEBFCDBF6C
:1003B00000E00CBF13E0A0E0B2E0E8E6F4E400E007
:1003C0000BBF02C007900D92A831B107D9F728E002
:1003D000A8E1B3E001C01D92AD30B207E1F711E032
:1003E000C1EDD1E000E006C021970109802FFE0198
:1003F0000E94501DC03DD10780E00807A9F70E9468
:10040000D4120C9422220C940000CF92DF92EF922F
:10041000FF920F931F93CF93DF936C017A018B01AF
:10042000C0E0D0E0CE15DF0589F0D8016D918D01D7
:10043000D601ED91FC910190F081E02DC601199556
:10044000892B11F47E0102C02196ECCFC701DF9108
:10045000CF911F910F91FF90EF90DF90CF90089573
:10046000FC01A089B1898C91A689B78982FD0FC052
:100470009C91818D8F5F8F73228D821749F0218D22
:10048000DF01A20FB11D5D969C93818F08958C9121
:100490000895FC01538D448D252F30E0842F90E08A
:1004A000821B930B541710F0CF960895019708956F
:1004B000FC01918D828D981761F0828DDF01A80F6C
:1004C000B11D5D968C91928D9F5F9F73928F90E08E
:1004D00008958FEF9FEF0895FC01918D828D9817FD
:1004E00031F0828DE80FF11D858D90E008958FEF3A
:1004F0009FEF0895FC01918D228D892F90E0805C03
:100500009F4F821B91098F73992708958EE194E084
:100510000E947A0221E0892B09F420E0822F0895BD
:100520008BEB94E00E947A0221E0892B09F420E011
:10053000822F089588E595E00E947A0221E0892BB8
:1005400009F420E0822F0895FC01848DDF01A80FBB
:10055000B11DA35ABF4F2C91848D90E001968F73EB
:100560009927848FA689B7892C93A089B1898C910A
:1005700080648C93938D848D981306C00288F389D0
:10058000E02D80818F7D80830895EF92FF920F93FD
:100590001F93CF93DF93EC0181E0888F9B8D8C8D2F
:1005A000981305C0E889F989808185FD24C0F62E5D
:1005B0000B8D10E00F5F1F4F0F731127E02E8C8DF6
:1005C000E8120CC00FB607FCFACFE889F9898081E0
:1005D00085FFF5CFCE010E94A402F1CF8B8DFE01E5
:1005E000E80FF11DE35AFF4FF0820B8FEA89FB8978
:1005F0008081806207C0EE89FF896083E889F9897C
:1006000080818064808381E090E0DF91CF911F91B1
:100610000F91FF90EF900895CF93DF93EC01888DB9
:100620008823C9F0EA89FB89808185FD05C0A889F6
:10063000B9898C9186FD0FC00FB607FCF5CF80817C
:1006400085FFF2CFA889B9898C9185FFEDCFCE01C6
:100650000E94A402E7CFDF91CF910895E0E0F0E09F
:10066000199480E090E0892B21F00E949A02811178
:1006700019C080E090E0892B41F080E090E0892B68
:1006800021F00E940000811110C00E94900281118F
:100690000FC080E090E0892B81F00E9486028111DA
:1006A0000AC008950E940000E4CF0E940000EDCF30
:1006B0000E942E03EECF0C9400000895089580E070
:1006C00090E008950E940D22FC01248131E03093D6
:1006D00011042093100410920F0410920E048485CC
:1006E000682B82E194E00E94D00E61E082E194E008
:1006F0000C9460100F931F93CF938C01C62F6460EE
:100700000E9464036C2F6B7FC8010E94640383EC1A
:1007100090E00197F1F7CF911F910F9108950F93FA
:100720001F93CF93DF938C01C62FD62FD07FD1603C
:100730006D2F0E9464036D2FC8010E947A0380E12F
:10074000C89FB0011124C62FC1606C2FC8010E9440
:1007500064036C2FC8010E947A0381E090E0DF916E
:10076000CF911F910F9108951F920F920FB60F9284
:1007700011240BB60F922F933F934F935F936F9378
:100780007F938F939F93AF93BF93EF93FF9380914A
:100790003A0390913B03A0913C03B0913D03892B18
:1007A0008A2B8B2B59F180913903E0913703F0911B
:1007B000380390818927808380913A0390913B038D
:1007C000A0913C03B0913D03181619061A061B06AA
:1007D0000CF056C080913A0390913B03A0913C03EA
:1007E000B0913D030197A109B10980933A03909319
:1007F0003B03A0933C03B0933D0342C080910202AF
:10080000E8E9F2E0E4919FEF90930202E230C9F050
:1008100050F4EE2399F0E13081F590916F009D7FC7
:1008200090936F002AC0E43019F1E0F0E53029F52B
:10083000909173009D7F909373001FC010926E0083
:100840001CC0909170009D7F9093700091E09093F8
:10085000B0009091B100987F94609093B100109295
:10086000B3000BC0909171009D7F9093710005C003
:10087000909172009D7F9093720060E00E9412112F
:10088000FF91EF91BF91AF919F918F917F916F9168
:100890005F914F913F912F910F900BBE0F900FBE24
:1008A0000F901F9018951F920F920FB60F92112460
:1008B0000BB60F922F933F934F935F936F937F935A
:1008C0008F939F93AF93BF93EF93FF938EE194E049
:1008D0000E94A402FF91EF91BF91AF919F918F91E0
:1008E0007F916F915F914F913F912F910F900BBE30
:1008F0000F900FBE0F901F9018951F920F920FB67A
:100900000F9211240BB60F922F933F934F935F9347
:100910006F937F938F939F93AF93BF93EF93FF93C7
:100920008EE194E00E943002FF91EF91BF91AF9170
:100930009F918F917F916F915F914F913F912F91F7
:100940000F900BBE0F900FBE0F901F9018951F9227
:100950000F920FB60F9211240BB60F922F933F9365
:100960004F935F936F937F938F939F93AF93BF93B7
:10097000EF93FF938BEB94E00E94A402FF91EF9121
:10098000BF91AF919F918F917F916F915F914F91A7
:100990003F912F910F900BBE0F900FBE0F901F90A5
:1009A00018951F920F920FB60F9211240BB60F924B
:1009B0002F933F934F935F936F937F938F939F9367
:1009C000AF93BF93EF93FF938BEB94E00E943002C1
:1009D000FF91EF91BF91AF919F918F917F916F9117
:1009E0005F914F913F912F910F900BBE0F900FBED3
:1009F0000F901F9018951F920F920FB60F9211240F
:100A00000BB60F922F933F934F935F936F937F9308
:100A10008F939F93AF93BF93EF93FF9388E595E0F8
:100A20000E94A402FF91EF91BF91AF919F918F918E
:100A30007F916F915F914F913F912F910F900BBEDE
:100A40000F900FBE0F901F9018951F920F920FB628
:100A50000F9211240BB60F922F933F934F935F93F6
:100A60006F937F938F939F93AF93BF93EF93FF9376
:100A700088E595E00E943002FF91EF91BF91AF9120
:100A80009F918F917F916F915F914F913F912F91A6
:100A90000F900BBE0F900FBE0F901F9018951F92D6
:100AA0000F920FB60F9211240BB60F922F933F9314
:100AB0004F935F936F937F938F939F93AF93BF9366
:100AC000CF93DF93EF93FF932091F60530E0F90188
:100AD000E75AFC4F8491F901ED5EFC4FD491F90186
:100AE000E353FD4FC491CC23A1F081110E94BC10AF
:100AF000EC2FF0E0EE0FFF1FE258FD4FA591B491EF
:100B0000EC91ED2331E020E009F430E0832F922FC7
:100B100002C080E090E02091FA053091FB052F5F44
:100B20003F4F3093FB052093FA052091F9052536B8
:100B300018F026E02093F5052091F5052430D9F131
:100B400028F4223069F02330D9F060C0253009F450
:100B500053C0263009F05AC021E02093C60653C086
:100B6000009709F053C02091FA053091FB05243617
:100B7000310508F443C01092C6061092F9051DC055
:100B80008130910509F042C0E091F90521E02E0F76
:100B90002093F905F0E02091FA053091FB05EE0F66
:100BA000FF1FEB50FA4F308727831092FB051092FE
:100BB000FA0524E029C00097B9F4E091F90521E095
:100BC0002E0F2093F905F0E02091FA053091FB05F6
:100BD000EE0FFF1FEB50FA4F308727831092FB0573
:100BE0001092FA0523E010C02091FA053091FB0520
:100BF0002536310558F007C0009741F41092FB05E7
:100C00001092FA0503C025E02093F5052091F80520
:100C10002223B9F0892B51F48091F705882321F024
:100C20008091F70561E009C02F9A0BC08091F7050C
:100C3000882331F08091F70560E00E94121101C015
:100C40002F98FF91EF91DF91CF91BF91AF919F913D
:100C50008F917F916F915F914F913F912F910F9065
:100C60000BBE0F900FBE0F901F9018958F929F9202
:100C7000AF92BF92CF92DF92EF92FF920F931F93AA
:100C8000CF93DF93EC016A017B0120E030E04FE776
:100C900053E4C701B6010E94451C4B015C0120E0F2
:100CA00030E0A9010E946D1E18161CF4C501B401A4
:100CB00003C0C501B40190580E94371E8B0120E08B
:100CC00030E0A901C701B6010E946D1E181614F488
:100CD00060E001C061E089810E9412110F3F11059F
:100CE00009F014F4112702C00FEF10E0C88161E091
:100CF0008C2F0E9460110115110509F4B1C00F3F3E
:100D0000110509F4AFC0EC2FF0E0E75AFC4FE49175
:100D10004E2F50E0FA013197E231F10508F09DC005
:100D20008827EE58FF4F8F4F0C94501D84B5806874
:100D300084BD07BDA7C084B5806284BD08BDA2C0C4
:100D400080918000806880938000109389000093D8
:100D5000880098C08091800080628093800010930A
:100D60008B0000938A008EC0809180008860809301
:100D7000800010938D0000938C0084C08091B0009F
:100D800080688093B0000093B3007CC08091B00075
:100D900080628093B0000093B40074C08091900092
:100DA00080688093900010939900009398006AC027
:100DB0008091900080628093900010939B0000933C
:100DC0009A0060C08091900088608093900010939A
:100DD0009D0000939C0056C08091A0008068809385
:100DE000A0008091A0008F7B8093A0001093A900A9
:100DF0000093A80047C08091A00080628093A0006B
:100E00001093AB000093AA003DC08091A0008860C1
:100E10008093A0001093AD000093AC0033C080918C
:100E200020018068809320011093290100932801FC
:100E300029C08091200180628093200110932B01B2
:100E400000932A011FC080912001886080932001B7
:100E500010932D0100932C0115C00038110514F4D6
:100E600060E001C061E08C2FDF91CF911F910F9165
:100E7000FF90EF90DF90CF90BF90AF909F908F90BA
:100E80000C941211DF91CF911F910F91FF90EF9071
:100E9000DF90CF90BF90AF909F908F9008951F925A
:100EA0000F920FB60F9211240BB60F922F933F9310
:100EB0004F935F936F937F938F939F93AF93BF9362
:100EC000EF93FF938091360387FF05C01092850052
:100ED0001092840016C020913603022E000C330BB2
:100EE0008091030790E0281739075CF430913603AE
:100EF00025E03203F0011124E953F94F808186FD8A
:100F000015C0809136038F5F80933603209136039E
:100F1000022E000C330B8091030790E0281739074D
:100F200094F4809136038C302CF10DC0309136034F
:100F30003203F0011124E953F94F808160E08F738F
:100F40000E941211DECF809184009091850084343C
:100F50009C4918F480E49CE905C08091840090913C
:100F60008500049690938900809388008FEF80938A
:100F700036032AC040918400509185003091360399
:100F800025E03203F0011124E953F94F8181928168
:100F9000840F951F909389008093880030913603C9
:100FA0003203F0011124E953F94F808186FF0CC010
:100FB000309136033203F0011124E953F94F808157
:100FC00061E08F730E941211FF91EF91BF91AF9179
:100FD0009F918F917F916F915F914F913F912F9151
:100FE0000F900BBE0F900FBE0F901F9018958EBDE7
:100FF00000000DB407FEFDCF8EB50895CF93DF93AB
:10100000EC0160E088810E94121188E90E94F707D4
:1010100080E00E94F70780E00E94F70780E00E94CE
:10102000F70780E00E94F70761E088810E941211B3
:101030008BE891E00197F1F760E088810E9412113E
:1010400080EE0E94F70761E08881DF91CF910C94D8
:101050001211AF92BF92CF92DF92EF92FF920F9355
:101060001F93CF93DF93CDB7DEB760970FB6F89499
:10107000DEBF0FBECDBF5C0160E0FC0180810E943D
:10108000121180E60E94F7078E010F5F1F4F7E014D
:10109000F1E1EF0EF11C680180E00E94F70790E09B
:1010A000A0E0B0E0F60181939193A193B1936F0119
:1010B000EE15FF0589F761E0F50180810E941211AC
:1010C00080E090E0DC01F8014191519161917191D2
:1010D0008F01BA2FA92F982F8827840F951FA61F3D
:1010E000B71FEE15FF0579F79C01AD01662777273D
:1010F000CB01621B730B840B950B60960FB6F894B3
:10110000DEBF0FBECDBFDF91CF911F910F91FF903A
:10111000EF90DF90CF90BF90AF900895CF92DF9285
:10112000EF92FF9269017A01AB01BC0186EE97E074
:101130000E943606B701A601705888EE97E0FF902E
:10114000EF90DF90CF900C9436068F929F92AF92E3
:10115000BF92CF92DF92EF92FF920F931F93CF93A4
:10116000DF938C01C0E0D0E06B01770FEE08FF0841
:101170004A01550FAA08BB08C017D10794F461E0D3
:1011800088E00E941211C701B6010E94BB1160E005
:1011900088E00E941211C501B4010E94BB11219682
:1011A000EBCFDF91CF911F910F91FF90EF90DF90E8
:1011B000CF90BF90AF909F908F90089526EA3BE923
:1011C00044EC5BEB0E94451C9B01AC016DEF76EF9C
:1011D0008DE290E40E94721E2DE73FE34BEA52E459
:1011E0000E94451C0895CF92DF92EF92FF921F93C9
:1011F000CF93DF93182FC0E0D0E0C12CD12C760123
:10120000CA30D105A9F0812F0E949C11BC01990F11
:10121000880B990B0E94E61B0E94DE089B01AC0123
:10122000C701B6010E94591D6B017C012196E8CFD0
:1012300020E030E040E251E4C701B6010E94C51D44
:10124000DF91CF911F91FF90EF90DF90CF900895A5
:1012500040E050E0BA0186EE97E00E94360640E09A
:1012600050E060E070E888EE97E00E9436068AEE73
:1012700097E00E94FE078CEE97E00C94FE074F92D9
:101280005F926F927F928F929F92AF92BF92CF9216
:10129000DF92EF92FF926C018AEE97E00E94FE07C8
:1012A0008CEE97E00E94FE0746010D2C000CAA0868
:1012B000BB0826E9C21A25E0D20A0D2C000CEE0864
:1012C000FF0884E6482E512C612C712C8AEE97E0A1
:1012D0000E9429089B01AC0188279927DC01821B09
:1012E000930BA40BB50B88159905AA05BB050CF04B
:1012F00054C08AEE97E00E9429089B01AC01882720
:101300009927DC01821B930BA40BB50B8639954002
:10131000A105B10564F48AEE97E00E942908909532
:101320008095709561957F4F8F4F9F4F1AC08AEEC1
:1013300097E00E9429089B01AC0188279927DC01CE
:10134000821B930BA40BB50BC816D906EA06FB0645
:10135000ECF48AEE97E00E942908680D791D8A1D39
:101360009B1DA30192010E94031DCA01B9010E94A5
:10137000E61B29E23CE54FE05DE30E94451C2DECB5
:101380003CEC4CEC5DE30E94591D04C06AE979E92C
:1013900089E19FE30E94F60999CF40E050E0BA014D
:1013A00086EE97E00E94360640E050E060E070E88C
:1013B00088EE97E00E9436068AEE97E00E94FE07CC
:1013C0008CEE97E00E94FE0764E670E080E090E01B
:1013D000FF90EF90DF90CF90BF90AF909F908F9055
:1013E0007F906F905F904F900C94BB114F925F92E3
:1013F0006F927F928F929F92AF92BF92CF92DF9225
:10140000EF92FF92CF93DF9300D01F92CDB7DEB75C
:101410006B017C018AEE97E00E94290890958095E7
:10142000709561957F4F8F4F9F4F0E94E61B2B0158
:101430003C0160939D0370939E0380939F03909360
:10144000A0038CEE97E00E9429080E94E61B6983A6
:101450007A838B839C836093990370939A03809320
:101460009B0390939C039B01AC01C301B2010E94BA
:10147000581D4B015C016093950370939603809314
:1014800097039093980320E030E040EA50E40E94F4
:10149000DF1B87FD26C020E030E040E251E4C501BB
:1014A000B4010E94DF1B87FD25C020E030E040E74B
:1014B00051E4C501B4010E94DF1B87FD23C020E079
:1014C00030E040EA51E4C501B4010E94DF1B87FD12
:1014D00022C04AE9842E49E9942EA92C4EE3B42E69
:1014E00022C03DEC832E3CEC932E3CE4A32E3DE346
:1014F000B32E19C02DEC822E2CEC922EA92C2DE3AC
:10150000B22E11C09AE9892E99E9992E99E1A92E56
:101510009EE3B92E08C08DEC882E8CEC982E8CE4BE
:10152000A82E8EE3B82E29813A814B815C81C301BC
:10153000B2010E946D1E1816ECF4A501940160E042
:1015400070E080E89FE30E94581D9B01AC01C70139
:10155000B6010E94451CAB01BC0186EE97E00E94DB
:10156000360620E030E040E85FE3C501B4010E94A8
:10157000591D26C029813A814B815C81C301B2018A
:101580000E94DF1B87FF25C020E030E040E85FE3DA
:10159000C501B4010E94591D9B01AC01C701B601F0
:1015A0000E94451CAB01BC0186EE97E00E94360606
:1015B000A501940160E070E080E89FE30E94581D5F
:1015C0009B01AC01C701B6010E94451CAB01BC01E7
:1015D00008C0B701A60186EE97E00E943606B70163
:1015E000A601705888EE97E00F900F900F900F9023
:1015F000DF91CF91FF90EF90DF90CF90BF90AF90B1
:101600009F908F907F906F905F904F900C943606D4
:101610004F925F926F927F928F929F92AF92BF9202
:10162000CF92DF92EF92FF92CF93DF934B015C0159
:101630008AEE97E00E94FE078CEE97E00E94FE077C
:1016400020E030E0A901C501B4010E94DF1B811137
:101650007CC04DEC5CEC6CEC7EEB88EE97E00E947D
:1016600036064DEC5CEC6CEC7EEB86EE97E00E946F
:1016700036068AEE97E00E9429089095809570952D
:1016800061957F4F8F4F9F4F0E94E61B2FE031EDFA
:1016900040E85FE30E94451C0E94371E6B017C01FD
:1016A000EB018CEE97E00E942908072E000C880BB6
:1016B000990B0E94E61B2B013C0120E030E44BEF2C
:1016C00054E40E946D1E18163CF440E050E0BA014C
:1016D00086EE97E00E943606B6010D2C000C880BB2
:1016E000990B0E94E61B20E030E44BEF54E40E948B
:1016F0006D1E181644F440E050E060E070E888EE9B
:1017000097E00E9436066AE070E080E090E00E9478
:10171000BB1120E030E44BEF54E4C301B2010E945E
:10172000DF1B87FD96CFD194C194D108B601DD0CA3
:10173000880B990B0E94E61B20E030E44BEF54E449
:101740000E94DF1B87FD85CF02C0C0E0D0E020E013
:1017500030E040E85FE3C501B4010E94DF1B811166
:10176000C8C09DECC92E9CECD92EED2C9EE3F92E21
:10177000B701A60186EE97E00E943606BE01DD0F96
:10178000880B990B0E94E61B20E030E447E954E403
:101790000E946D1E18160CF0D7C02DEC3CEC4CECE2
:1017A0005DE3C701B6010E946D1E181654F42DECBE
:1017B0003CEC4CE45DE3C701B6010E94581D6B018F
:1017C0007C01B701A60186EE97E00E943606B701BC
:1017D000A60188EE97E00E9436068AEE97E00E9406
:1017E0002908882499245401861A970AA80AB90A54
:1017F000E4018CEE97E00E9429080E94E61B2FE08E
:1018000031ED40E85FE30E94451C0E94371E2B012A
:101810003C01B401990C880B990B0E94E61B4B010B
:101820005C0120E030E447E954E40E946D1E181684
:101830000CF09DC02DEC3CEC4CEC5DE3C701B60117
:101840000E946D1E18160CF0A5C02DEC3CEC4CE46B
:101850005DE3C701B6010E94581D6B017C0120E0C9
:1018600030E44BEF54E4C501B4010E946D1E18161C
:101870003CF440E050E0BA0186EE97E00E94360664
:101880006627772764197509072E000C880B990BBA
:101890000E94E61B20E030E44BEF54E40E946D1EF2
:1018A000181644F440E050E060E070E888EE97E0FD
:1018B0000E9436066AE070E080E090E00E94BB1172
:1018C00020E030E44BEF54E4C501B4010E94DF1B7B
:1018D00087FD4ECFB201550C880B990B0E94E61B79
:1018E00020E030E44BEF54EC0E946D1E18160CF40F
:1018F0003FCF40E050E0BA0186EE97E00E94360606
:1019000040E050E060E070E888EE97E00E94360624
:101910008AEE97E00E94FE078CEE97E00E94FE0799
:1019200064E670E080E090E0DF91CF91FF90EF906F
:10193000DF90CF90BF90AF909F908F907F906F90EF
:101940005F904F900C94BB112DEC3CEC4CEC5EE3A3
:10195000C701B6010E94DF1B87FF33CF2AE037EDB6
:1019600043EA5BE3C701B6010E94591D28CF2DEC65
:101970003CEC4CEC5EE3C701B6010E94DF1B87FF25
:101980006ECF2AE037ED43EA5BE3C701B6010E9460
:10199000591D63CF8DECC82E8CECD82EED2C8DE329
:1019A000F82E5DCF0C941D128F929F92AF92BF9232
:1019B000CF92DF92EF92FF920F931F93CF93DF931B
:1019C000CDB7DEB7A1970FB6F894DEBF0FBECDBF7F
:1019D0006C01990FEE08FF08F7FE31C0E091580541
:1019E000F09159050190F081E02D6DE288E595E0D8
:1019F00019958C0122273327A9012C193D094E097D
:101A00005F0919A2CE0181967C019AE0892E912C62
:101A1000A12CB12CCA01B901A50194010E94221D7B
:101A2000605DF70162937F01211531054105510584
:101A300089F7CF010E941D12800F911F1DC0A701C1
:101A4000960119A28E010F5D1F4F8AE0C82ED12C7E
:101A5000E12CF12CCA01B901A70196010E94221DB7
:101A6000605DF80162938F01211531054105510533
:101A700089F7CF010E941D12A1960FB6F894DEBF20
:101A80000FBECDBFDF91CF911F910F91FF90EF90CF
:101A9000DF90CF90BF90AF909F908F900895CF939D
:101AA000C82F81E08093110482E580931004109286
:101AB0000F0410920E0482E194E00E94D00E6C2F6D
:101AC00082E194E00E94D00E61E082E194E00E9405
:101AD00060106AE070E080E090E0CF910C94BB1160
:101AE000EF92FF921F93CF93DF93CDB7DEB72C9782
:101AF0000FB6F894DEBF0FBECDBF80916403811195
:101B0000FCCF81E080936403809363039FEF909305
:101B100062031092610395E09093600380935F03EA
:101B200080915F03846A80935F0380915E038130BC
:101B300061F410925E0380915F038093BB008091FB
:101B4000BC0083FDF8CF85EC01C085EE8093BC001E
:101B5000809164038130E1F380916103863018F451
:101B60001091610301C016E0AEE3B3E027E633E075
:101B7000F9018E2F821B811718F48D918193F9CF73
:101B80001092660310936503CE0101967C0180914B
:101B90006603181749F082E194E00E94840EF70171
:101BA000819391937F01F3CF89819A8190938803E8
:101BB000809387038B819C8190938A038093890310
:101BC0008B859C859C013595279535952795A90191
:101BD000437055272D813E81220F331F220F331F63
:101BE000242B352B30938C0320938B039C0174E0C2
:101BF000359527957A95E1F7A901437055272F81EF
:101C00003885220F331F220F331F242B352B30939F
:101C10008E0320938D039C01F6E035952795FA9568
:101C2000E1F7A9014370552729853A85220F331F13
:101C3000220F331F242B352B3093900320938F03D7
:101C40009C0121703327F1E02F27309392032093DA
:101C5000910321E030E081FF02C020E030E03093CA
:101C600094032093930360E080E02C960FB6F894E1
:101C7000DEBF0FBECDBFDF91CF911F91FF90EF90E0
:101C80000C944F0D85ED8093BC008091BC0084FDC9
:101C9000FCCF1092640308954091E703262F30E0B3
:101CA000240F311D21323105DCF4209164032430EE
:101CB000C9F4FC0180E090E0861758F43091E70306
:101CC0002191DC01AB53BC4FA30FB11D2C930196A6
:101CD000F3CF8091E703680F6093E70380E00895F6
:101CE00081E0089582E008950895E091660380916F
:101CF0006503E81730F4F0E0E959FC4F808190E08B
:101D000008958FEF9FEF089590916603809165038A
:101D1000981750F4E92FF0E0E959FC4F208130E0AA
:101D20009F5F9093660302C02FEF3FEFC9010895B4
:101D30008091650390E020916603821B91090895CC
:101D4000CF92DF92EF92FF920F931F93CF93DF9387
:101D50007C01262F972F8A0180911104882391F00E
:101D6000C62FD72F6E01C40ED51ECC15DD0571F020
:101D70006991D701ED91FC910190F081E02DC701AF
:101D80001995F3CF642F822F0E944C0EC801DF916A
:101D9000CF911F910F91FF90EF90DF90CF9008951A
:101DA000CF93DF931F92CDB7DEB7698320911104E3
:101DB0002223D1F020910E04203240F021E030E0C7
:101DC000FC013383228380E090E015C080910F04F2
:101DD000E82FF0E0EB55FC4F998190838F5F809363
:101DE0000F0480930E0405C061E0CE0101960E94AD
:101DF0004C0E81E090E00F90DF91CF9108953FB7B6
:101E0000F8948091A1039091A203A091A303B091B3
:101E1000A40326B5A89B05C02F3F19F00196A11D6C
:101E2000B11D3FBFBA2FA92F982F8827820F911D70
:101E3000A11DB11DBC01CD0142E0660F771F881FB7
:101E4000991F4A95D1F708951F920F920FB60F92DE
:101E500011240F900FBE0F901F9018951F920F9294
:101E60000FB60F9211240BB60F922F933F934F93FF
:101E70005F936F937F938F939F93AF93BF93EF93F2
:101E8000FF938091B900887F803609F49CC068F583
:101E9000883209F45BC090F4803109F454C038F4FE
:101EA000882309F4F6C0883009F44DC0F6C08831A3
:101EB00009F44CC0803209F45DC0EFC0803409F4ED
:101EC00068C048F4803309F455C0883309F0E5C090
:101ED00080936203D8C0803509F44FC0883509F477
:101EE0005DC0883409F0D9C0D6C0883909F4C7C0AC
:101EF000A8F4883709F467C038F4883609F463C059
:101F0000803709F460C0C9C0883809F4B8C0803986
:101F100009F45FC0803809F0C0C05BC0803B09F4A1
:101F200086C038F4803A09F466C0883A09F47FC064
:101F3000B4C0803C09F4A7C0883C09F4A4C0883B25
:101F400009F48AC0AAC080915F0310C09091610318
:101F500080916003981770F5E091610381E08E0F26
:101F600080936103F0E0E25CFC4F80818093BB00D2
:101F700085EC86C0809362038EC0E091610381E0AE
:101F80008E0F809361038091BB00F0E0E25CFC4F18
:101F9000808390916103809160036EC0E091610342
:101FA00081E08E0F809361038091BB00F0E0E25CE2
:101FB000FC4F80838091630381116DC081E0809329
:101FC0005E0384EA61C083E08093640310920B0493
:101FD000CFCF80910B04803208F051C0E0910B0408
:101FE00081E08E0F80930B048091BB00F0E0E551FF
:101FF000FC4F8083BDCF85EC8093BC0010926403BE
:1020000080910B04803230F4E0910B04F0E0E55154
:10201000FC4F108260910B0470E0E091E903F091B5
:10202000EA038BEE93E0199510920B0436C084E01E
:10203000809364031092E8031092E703E091E503B4
:10204000F091E60319958091E703811105C081E0C5
:102050008093E7031092C503E091E80381E08E0FBF
:102060008093E803F0E0EB53FC4F80818093BB004A
:102070009091E8038091E703981708F479CF85E8F9
:102080008093BC000AC085EC8093BC00109264036E
:1020900004C0109262030E94420EFF91EF91BF9123
:1020A000AF919F918F917F916F915F914F913F91F0
:1020B0002F910F900BBE0F900FBE0F901F90189591
:1020C00020910E0490911004213208F049C08091B3
:1020D00064038111FCCF32E03093640360936303A7
:1020E0003FEF309362031092610320936003A5EAEF
:1020F000B3E04EE353E0FA013E2F341B321718F4DD
:102100003D913193F9CF10925F0320915F03990FB6
:10211000922B90935F0390915E03913061F4109243
:102120005E0390915F039093BB009091BC0093FD80
:10213000F8CF95EC01C095EE9093BC0090916403AC
:102140009230E1F3909162039F3F79F080916203B6
:10215000803241F080916203803331F084E005C029
:1021600081E003C082E001C083E010920F0410926E
:102170000E0410921104089590E0FC013197E231B1
:10218000F10508F04EC08827EC57FF4F8F4F0C9495
:10219000501D809180008F7703C0809180008F7DDB
:1021A00080938000089580918000877FF9CF84B567
:1021B0008F7702C084B58F7D84BD08958091B00073
:1021C0008F7703C08091B0008F7D8093B000089519
:1021D000809190008F7707C0809190008F7D03C021
:1021E00080919000877F8093900008958091A00057
:1021F0008F7707C08091A0008F7D03C08091A000E1
:10220000877F8093A0000895809120018F7707C079
:10221000809120018F7D03C080912001877F809372
:10222000200108951F93CF93DF93282F30E0F90109
:10223000E75AFC4F8491F901ED5EFC4FD491F9010E
:10224000E353FD4FC491CC23C9F0162F81110E9496
:10225000BC10EC2FF0E0EE0FFF1FED54FD4FA591E9
:10226000B4918FB7F894111105C09C91ED2FE095B2
:10227000E92302C0EC91ED2BEC938FBFDF91CF915E
:102280001F9108951092640381E08093630310927C
:102290005E0361E084E10E94121161E085E10E9429
:1022A0001211E9EBF0E080818E7F808380818D7F49
:1022B000808388E48093B80085E48093BC0008950F
:1022C000CF93DF9390E0FC01ED5EFC4F2491FC0185
:1022D000E353FD4F8491882361F190E0880F991FAB
:1022E000FC01E756FD4FC591D491FC01ED54FD4F23
:1022F000A591B491611109C09FB7F8948881209588
:1023000082238883EC912E230BC0623061F49FB747
:10231000F8943881822F809583238883EC912E2B2B
:102320002C939FBF06C08FB7F894E8812E2B28838B
:102330008FBFDF91CF910895863308F08653909137
:102340007B00282F2870977F922B90937B008770BB
:10235000806480937C0080917A00806480937A000E
:1023600080917A0086FDFCCF8091780020917900E1
:1023700090E0922B08958F929F92AF92BF92CF924E
:10238000DF92EF92FF926B017C010E94FF0E4B01E6
:102390005C01C114D104E104F104F1F00E94FF0ECC
:1023A000DC01CB0188199909AA09BB09883E934031
:1023B000A105B10570F321E0C21AD108E108F108C6
:1023C00088EE880E83E0981EA11CB11CC114D104B4
:1023D000E104F10419F7DDCFFF90EF90DF90CF908B
:1023E000BF90AF909F908F900895E8E5F5E0A089A9
:1023F000B18982E08C93A485B5851C92A685B785AA
:102400008FEC8C93108EA489B58986E08C93A28979
:10241000B3898C9180618C93A289B3898C918860F7
:102420008C93A289B3898C9180688C930288F389FC
:10243000E02D80818F7D80830895009769F0FC01F5
:1024400001900020E9F73197AF01481B590BBC01FF
:1024500088E595E00C94050280E090E0089584E121
:1024600093E00C941D12CF93DF930E941D12EC0198
:102470000E942F128C0F9D1FDF91CF910895EF9234
:10248000FF921F93CF93DF931F92CDB7DEB7162F26
:102490009DECE92E97E0F92ED7011C969C911C9794
:1024A00021E0209311049093100410920F041092D5
:1024B0000E041A960D90BC91A02DED91FC911197F0
:1024C0000190F081E02D682FCD0179831995F701F6
:1024D00082859385DC01ED91FC910190F081E02DE6
:1024E0007981672F1995F70182859385DC01ED913C
:1024F000FC910190F081E02D612F199561E0F701C9
:10250000828593850F90DF91CF911F91FF90EF907F
:102510000C9460101F920F920FB60F9211242F93FC
:102520003F938F939F93AF93BF93809105089091B2
:102530000608A0910708B09108083091040823E02C
:10254000230F2D3720F40196A11DB11D05C026E8EB
:10255000230F0296A11DB11D209304088093050846
:1025600090930608A0930708B09308088091A103F0
:102570009091A203A091A303B091A4030196A11D81
:10258000B11D8093A1039093A203A093A303B093E2
:10259000A403BF91AF919F918F913F912F910F9085
:1025A0000FBE0F901F901895CF93DF93CDB7DEB776
:1025B00028970FB6F894DEBF0FBECDBF789484B5D0
:1025C000826084BD84B5816084BD85B5826085BD2F
:1025D00085B5816085BD80916E00816080936E00BD
:1025E00010928100809181008260809381008091AF
:1025F0008100816080938100809180008160809360
:1026000080008091B10084608093B1008091B0001F
:1026100081608093B00080919100826080939100EE
:102620008091910081608093910080919000816001
:10263000809390008091A10082608093A10080919E
:10264000A10081608093A1008091A00081608093AF
:10265000A00080912101826080932101809121015D
:10266000816080932101809120018160809320010D
:1026700080917A00846080937A0080917A008260F1
:1026800080937A0080917A00816080937A008091B3
:102690007A00806880937A001092C1000E94F51140
:1026A00061E08091CE070E94601160E08091CE07CA
:1026B0000E94121160E08091CD070E94601182E1BA
:1026C00094E09093D8078093D707109266031092F6
:1026D000650310920F0410920E040E94421180E0D4
:1026E00090E1A0E0B0E08093DA079093DB07A0933D
:1026F000DC07B093DD078AE090E0A0E0B0E08093D3
:10270000DE079093DF07A093E007B093E10780E036
:1027100090E0A0E0B0E48093E2079093E307A093F9
:10272000E407B093E50760E070E185E00E943F12A6
:102730006FE979E380E00E943F129AEE292E97E03C
:10274000392EC12CD12CE12CF12C22E0422E23E099
:10275000522E38E4832E33E0932E4BECA42E47E028
:10276000B42EC7018353984F3C01DC0114969C9111
:10277000149712968C9186010353184FF801818F9C
:10278000928F61E00E94601161E0D8015A968C91AD
:102790000E946011F30190858681D1018C93F8012C
:1027A000968F61E00E94601160E0D8015E968C9186
:1027B0000E94601161E0F10180810E9412111FB737
:1027C000F89480911803811125C0F2018491F401DD
:1027D0009491E82FF0E0EE0FFF1FE756FD4FA59113
:1027E000B4918C91982321F461E085E30E94121149
:1027F00061E085E30E9460118CB580618CBD8CB571
:1028000080648CBD61E084E30E94601161E083E339
:102810000E946011809118038F5F809318031FBF7F
:10282000C5010197F1F760E0D1018C910E9412116E
:1028300088E80E94F70783E00E94F70761E0F10152
:1028400080810E941211C5010197F1F7C1010E9418
:10285000FE07F2E0CF0ED11C22E0220E311CEA94DA
:10286000EF2821F0EE24E394F12C7BCF12EFE12E40
:1028700017E0F12E14E01E0D60E0D7018D917D016F
:102880000E9460111E11F8CF01E018E07EEF872E44
:1028900077E0972EE5E0CE2EFCE0EF2EA2E0BA2EF8
:1028A000B2E0DB2ED80CF4013897F080F40180817F
:1028B0008C3008F046C061E08F2D0E946011D40179
:1028C0008C91C89EF0011124E953F94F9F2D9F73FD
:1028D0002081207CF22EF92AF082138214826E2D40
:1028E0000E94441DBCE08B9FA001112420E030E039
:1028F000B901640F751FC69EF001C79EF00D11242B
:10290000E953F94F908196FD12C02F5F3F4F2C3055
:10291000310571F781110BC010928000B0928100D7
:102920001092850010928400B6BAB0926F00D40164
:10293000EC91CE9EF0011124E953F94F808180641F
:102940008083F4013297908132978081F80131972A
:102950008083F801908360E00E94601161E0D801FB
:102960008C910E94601160E0F80180810E94121138
:10297000FFEF8F1A9F0A0E5F1F4FD81094CFF89465
:102980001092200189E08093210180E293E09093EE
:10299000290180932801109225011092240182E0E0
:1029A0008093730078948093F5051092F9058091D7
:1029B000F60560E00E9460111092660310926503B4
:1029C00010920F0410920E040E94421160EF85E5F0
:1029D0000E944F0D6BEF80E00E944F0D0E94700D22
:1029E0000E94F51161E08EE20E94601161E08EE2CA
:1029F0000E94121122242394312C0E94700D809188
:102A0000930390919403019709F055C0809191032D
:102A100090919203892B09F04EC00E94700D809115
:102A2000930390919403019769F46AE070E080E069
:102A300090E00E94BB110E94700D89E392E00E9419
:102A40003312EDCF0E94700D83E492E00E943312A6
:102A500080911B0390911C03009759F481E090E052
:102A600090931C0380931B0340E050E064EF71E0FF
:102A70000FC08130910579F4A2E0B0E0B0931C035F
:102A8000A0931B0346E950E064EF71E082E090E020
:102A90000E94A50802C0029709F38DE492E00E940B
:102AA000D20C80911B0390911C030E94D40C86E1F0
:102AB00093E00E9433120E94700D80911B0390914D
:102AC0001C03892B49F462E370E080E090E00E94EF
:102AD000BB110E94310391CF612C712C8091930323
:102AE00090919403892B79F78091910390919203AF
:102AF000019749F70E94700DBFEF6B1A7B0A64E6DD
:102B000070E080E090E00E94BB11EAE06E16710474
:102B100029F744E650E064E670E083E090E00E942C
:102B2000A50880911B0390911C039A83898300E080
:102B300010E0A981BA81119709F098C184E592E06B
:102B40000E94331261E08EE20E9412118091910383
:102B500090919203019709F079C189E090E00E9479
:102B6000F30820E030E040EA51E40E94DF1B87FFD9
:102B700095C00E94280960E070E080E89FE30E9411
:102B8000080B8AEE97E00E94FE0788E00E949C11E5
:102B9000BC01990F880B990B0E94E61B0E94DE086E
:102BA0000E94371E6932710504F18AEE97E00E9497
:102BB00029080E94280980ED97E00E943F0960E003
:102BC00070E0CB010E94080B80EA9FE00E943F0961
:102BD00088E090E00E94F3080E94371E615F7F4FFB
:102BE0006B01770FEE08FF0821C06B01BFE0CB0E31
:102BF000D11C0D2C000CEE08FF086AE979E989E97F
:102C00009EE30E94F60988E090E00E94F3084B01E1
:102C10005C01C701B6010E94E61B9B01AC01C50126
:102C2000B4010E94DF1B87FDE8CFBFCF6AE979E9D5
:102C300089E99EE30E94F60988E00E949C11BC018C
:102C4000990F880B990B0E94E61B0E94DE084B012E
:102C50005C01C701B6010E94E61B9B01AC01C501E6
:102C6000B4010E94DF1B87FDE1CF80ED97E00E9459
:102C70003F0960E070E0CB010E94080B4DEC5CEC7A
:102C80006CE47EE386EE97E00E9436064DEC5CEC49
:102C90006CE47EE386EE97E00E94360680E00E94B8
:102CA0009C116C0181E00E949C115C0182E00E94F9
:102CB0009C119C0183E02D833E830E949C117C012A
:102CC00084E00E949C1198878F8385E00E949C116C
:102CD0002C0186E00E949C114C0187E00E949C110F
:102CE0009C838B834AE959E969E97EE386EE97E0A4
:102CF0000E9436064AE959E969E97EEB88EE97E0D9
:102D00000E94360687E692E00E94D20CC7010E941C
:102D1000D40C0E942F128DE692E00E94D20C8F817B
:102D200098850E94D40C0E942F1283E792E00E94A3
:102D3000D20CC2010E94D40C0E942F1289E792E0AB
:102D40000E94D20CC4010E94D40C0E942F120E9437
:102D50002F122D813E81E9E5EE16E2E0FE060CF42D
:102D600070C28F81988589359240ECF1B9E54B1698
:102D7000B2E05B060CF43BC3E9E58E16E2E09E068A
:102D80000CF435C38B819C81893592400CF42FC3A0
:102D9000B4EFCB16B1E0DB060CF029C34DEC5CECD4
:102DA0006CE47EE386EE97E00E9436064DEC5CEC28
:102DB0006CE47EEB88EE97E00E94360666E970E0F0
:102DC00080E090E00E94BB114DEC5CEC6CE47EEB8B
:102DD00086EE97E00E9436066CED75E080E090E0AC
:102DE0000E94BB1122C089E5C81682E0D8060CF407
:102DF0001DC2F9E5AF16F2E0BF068CF02935E2E01E
:102E00003E070CF4EDC2F9E5EF16F2E0FF060CF414
:102E10001EC28F819885893592400CF0B6C28F8191
:102E20009885893592400CF401C24AE959E969E96B
:102E30007EE386EE97E00E9436064AE959E969E9A1
:102E40007EEB88EE97E00E943606F0C140E050E04D
:102E5000BA0186EE97E00E94360640E050E060E05E
:102E600070E888EE97E00E943606A5C189819A81B4
:102E7000029709F0A0C189E892E00E943312809184
:102E8000910390919203019709F08EC189E090E03F
:102E90000E94F30820E030E040EA51E40E94DF1B8A
:102EA00087FF53C00E94280960E070E080E89FE33C
:102EB0000E94080B8AEE97E00E94FE0788E00E94BD
:102EC0009C11BC01990F880B990B0E94E61B0E9474
:102ED000DE080E94371E69327105B4F08AEE97E071
:102EE0000E9429080E94280968EE73E080E090E0C3
:102EF0000E94BB1180ED97E00E943F0960E070E006
:102F0000CB010E94080B21C06B019FE0C90ED11CB0
:102F10000D2C000CEE08FF086AE979E989E99EE3C7
:102F20000E94F60988E090E00E94F3084B015C01E2
:102F3000C701B6010E94E61B9B01AC01C501B401AB
:102F40000E94DF1B87FDE8CFC9CF8CE992E00E9489
:102F5000D20C80910002909101020E94D40C85EA6B
:102F600092E00E94D20C88EA92E00E94D20C8091FA
:102F7000190390911A030E94D40C85EA92E00E94F2
:102F8000D20C8091870390918803CD978138910569
:102F900008F087C08091890390918A03CD9781388A
:102FA000910508F07EC084EB92E00E94331280917C
:102FB000000290910102892B09F062C0A0901903D0
:102FC000B0901A03B5010B2C000C880B990B0E94D2
:102FD000E61B2DEC3CEC4CEC5EE30E94451C6B01C7
:102FE0007C01A1E0AA16B104F1F420E030E0A901CF
:102FF000C701B6010E946D1E1816C4F42DEC3CECFE
:103000004CEC5DE3C701B6010E94581D6B017C01C9
:103010009B01AC010E948E0864E670E080E090E0C5
:103020000E94BB11E2CFAB20A09461F020E030E021
:10303000A901CA01B9010E948E08309201022092B2
:1030400000021EC020E030E0A901C701B6010E94C5
:10305000DF1B87FFEBCF2DEC3CEC4CEC5DE3C701B5
:10306000B6010E94591D6B017C019B01AC010E94BD
:103070008E0864E670E080E090E00E94BB11E2CF31
:103080008091000290910102029739F420E030E033
:10309000A901CA01B9010E948E0830920102209252
:1030A00000028091890390918A038E3B9105A4F0E0
:1030B0002DEC3CEC4CEC5EE3CA01B9010E948E0899
:1030C00030921A032092190310920102109200020A
:1030D0008AEB92E00E9433128091890390918A03D7
:1030E000CD97B4F489EC92E00E943312EFEFFFEF3A
:1030F000F0931A03E0931903109201021092000258
:103100002DEC3CEC4CEC5EEBCA01B9010E948E0840
:1031100080918703909188038E3B9105FCF081EEAE
:1031200092E00E94331282E090E09093010280933B
:1031300000026091190370911A03072E000C880B8E
:10314000990B0E94E61B2AE939E949E95EE30E94EE
:10315000451C20E030E0A9010E948E088091870381
:1031600090918803CD973CF587EF92E00E9433124F
:10317000A2E0B0E0B0930102A093000260911903B5
:1031800070911A03072E000C880B990B0E94E61B06
:103190002AE939E949E95EE30E94451C9B01AC013B
:1031A00060E070E0CB0105C020E030E0A901CA0179
:1031B000B9010E948E080E94700D64E670E080E004
:1031C00090E00E94BB118091930390919403813011
:1031D000910519F40F5F1F4F04C0892B11F400E013
:1031E00010E08CE093E00E94D20CC8010E94D40C45
:1031F0000E942F120B3011050CF49BCC40E050E0E4
:10320000BA0186EE97E00E94360640E050E060E0AA
:1032100070E888EE97E00E94360644E650E064E6E7
:1032200070E08AE090E00E94A50858CCEF81F88514
:10323000E43FF1400CF0BFCF4DEC5CEC6CE47EE37E
:1032400008CEE9E5CE16E2E0DE060CF097C0B4EF5A
:10325000EB16B1E0FB060CF0AECFEF81F885E93557
:10326000F24074F04DEC5CEC6CE47EEB88EE97E0A1
:103270000E94360640E050E0BA0186EE97E0F3CDBA
:1032800083E0E82EF12C8F819885843F91400CF0EB
:1032900092CF89E5481682E058061CF0EE24E394AC
:1032A000F12C99E5891692E099061CF0EE24E3943E
:1032B000F12C293532400CF050C0B9E5AB16B2E024
:1032C000BB061CF092E0E92EF12C8FE792E00E9401
:1032D000D20CC7010E94D40C0E942F12E2E0EE161D
:1032E000F10479F44DEC5CEC6CEC7DE386EE97E058
:1032F0000E9436064DEC5CEC6CEC7DE388EE97E0CA
:1033000023C0F1E0EF16F10469F44DEC5CEC6CECD9
:103310007DEB88EE97E00E9436064DEC5CEC6CECA1
:103320007DEB10C023E0E216F10481F44DEC5CEC7F
:103330006CEC7DEB88EE97E00E9436064DEC5CEC81
:103340006CEC7DE386EE97E00E94360662E370E067
:1033500080E090E00E94BB112ECFB9E5AB16B2E041
:10336000BB060CF0AFCF8FE792E00E94D20C82E058
:1033700090E00E94D40C0E942F12B4CF49E5A4160D
:1033800042E0B4060CF03ACD62CFEB81FC81E43F21
:10339000F1400CF044CD4DEC5CEC6CE47EE386EE49
:1033A00097E00E9436064DEC5CEC6CE47EEB88EE18
:1033B00097E00E94360666E970E080E090E00E94A7
:1033C000BB114DEC5CEC6CE47EE388EE97E00E9470
:1033D00036066CED75E080E090E00E94BB111FCDD9
:1033E00049E5E41642E0F4060CF431CF18CD99E536
:1033F000C91692E0D9060CF0FCCC17CD80910407D9
:10340000909105070C948C201092150410921404CE
:1034100088EE93E0A0E0B0E0809316049093170448
:10342000A0931804B09319042DE032E030931304F4
:1034300020931204109221041092200480932204FD
:1034400090932304A0932404B09325042FE132E049
:1034500030931F0420931E0445E351E050932B0446
:1034600040932A0444E351E050932D0440932C04EC
:1034700040E351E050932F0440932E0441E351E088
:10348000509331044093300442E351E050933304AD
:103490004093320446E351E05093350440933404A2
:1034A00010923704109238041092390410923A04A2
:1034B0001092BE041092BD048093BF049093C00488
:1034C000A093C104B093C2043093BC042093BB0406
:1034D00045ED50E05093C8044093C70444ED50E0DC
:1034E0005093CA044093C90440ED50E05093CC047B
:1034F0004093CB0441ED50E05093CE044093CD0473
:1035000042ED50E05093D0044093CF0446ED50E09C
:103510005093D2044093D1041092D4041092D50455
:103520001092D6041092D70410925B0510925A059F
:1035300080935C0590935D05A0935E05B0935F0555
:10354000309359052093580585EC90E090936505DC
:103550008093640584EC90E0909367058093660502
:1035600080EC90E0909369058093680581EC90E091
:1035700090936B0580936A0582EC90E090936D05C3
:1035800080936C0586EC90E090936F0580936E05B8
:1035900010927105109272051092730510927405C5
:1035A00086E38093EE0787E38093EF0788E38093B9
:1035B000F00789E38093F1078BE18093F2078DE1B7
:1035C0008093F3078AE18093F4078CE18093F507F9
:1035D00084E08093F60787E08093F7071092F8075E
:1035E00084EB8093F90786E18093FA0788E1809362
:1035F000FB0787E18093FC0789E18093FD07E09159
:103600000307EC3020F08FEF8093FE0710C081E0BD
:103610008E0F80930307E093FE0725E0E29FF00101
:103620001124E953F94F88EB9BE092838183E09169
:103630000307EC3020F08FEF8093FF0710C081E08C
:103640008E0F80930307E093FF0785E0E89FF0016A
:103650001124E953F94F88EB9BE0928381838CE03E
:103660008093CD0784E28093CE0786E08093CF07D6
:1036700085E08093D0078FE18093D1078EE180931E
:10368000D20783E28093D30782E28093D40785E454
:103690008093D50784E48093D60780E48093D9078C
:1036A0001092DE071092DF071092E0071092E107F8
:1036B0001092E2071092E3071092E4071092E507D8
:1036C000EFE0F7E08FEF9FEFDC01128213821482AC
:1036D0001582168217821086118683879487A587A4
:1036E000B6878787908BA18BB28B1286118210824E
:1036F000739627E0ED3CF20741F78DE090E00E94E1
:10370000F71FFC011382128281E392E09183808390
:10371000118687E2848384E1828784E0838714862C
:10372000F0930C07E0930B0710920D0710920E0711
:1037300085E28093F6051092F80510920507109225
:1037400004071092070710920607109209071092BB
:10375000080761E070E080E090E00E94242100977B
:1037600089F0909305078093040710920707109241
:1037700006072091080730910907232BC1F4FC01AB
:10378000108215C08091040790910507009711F0F1
:103790000E948C20109205071092040710920907CE
:1037A00010920807109207071092060708951092CA
:1037B00009071092080766E173E00C941B220E942F
:1037C000211C08F481E00895E89409C097FB3EF4B9
:1037D00090958095709561957F4F8F4F9F4F99235E
:1037E000A9F0F92F96E9BB279395F69587957795DC
:1037F0006795B795F111F8CFFAF4BB0F11F460FF9C
:103800001BC06F5F7F4F8F4F9F4F16C0882311F0F3
:1038100096E911C0772321F09EE8872F762F05C007
:10382000662371F096E8862F70E060E02AF09A95A2
:10383000660F771F881FDAF7880F9695879597F997
:103840000895990F0008550FAA0BE0E8FEEF161631
:103850001706E807F907C0F012161306E407F50784
:1038600098F0621B730B840B950B39F40A2661F0F8
:10387000232B242B252B21F408950A2609F4A1409B
:10388000A6958FEF811D811D08950E94581C0C94F0
:10389000C91C0E94BB1C38F00E94C21C20F095235A
:1038A00011F00C94B21C0C94B81C11240C94FD1C47
:1038B0000E94DA1C70F3959FC1F3950F50E0551FDD
:1038C000629FF001729FBB27F00DB11D639FAA2775
:1038D000F00DB11DAA1F649F6627B00DA11D661FC4
:1038E000829F2227B00DA11D621F739FB00DA11DE5
:1038F000621F839FA00D611D221F749F3327A00D9F
:10390000611D231F849F600D211D822F762F6A2F3A
:1039100011249F5750409AF0F1F088234AF0EE0F9F
:10392000FF1FBB1F661F771F881F91505040A9F7CC
:103930009E3F510580F00C94B21C0C94FD1C5F3F1F
:10394000E4F3983ED4F3869577956795B795F79508
:10395000E7959F5FC1F7FE2B880F911D9695879580
:1039600097F9089597F99F6780E870E060E00895FF
:103970009FEF80EC089500240A9416161706180687
:103980000906089500240A94121613061406050663
:103990000895092E0394000C11F4882352F0BB0FF4
:1039A00040F4BF2B11F460FF04C06F5F7F4F8F4F57
:1039B0009F4F089557FD9058440F551F59F05F3F92
:1039C00071F04795880F97FB991F61F09F3F79F041
:1039D00087950895121613061406551FF2CF4695C3
:1039E000F1DF08C0161617061806991FF1CF869545
:1039F0007105610508940895E894BB276627772729
:103A0000CB0197F90895052E97FB1EF400940E94B0
:103A10001A1D57FD07D00E94221D07FC03D04EF44B
:103A20000C941A1D50954095309521953F4F4F4F5E
:103A30005F4F089590958095709561957F4F8F4F5A
:103A40009F4F0895A1E21A2EAA1BBB1BFD010DC0BA
:103A5000AA1FBB1FEE1FFF1FA217B307E407F5073E
:103A600020F0A21BB30BE40BF50B661F771F881F1A
:103A7000991F1A9469F760957095809590959B01B0
:103A8000AC01BD01CF010895991B79E004C0991FD5
:103A9000961708F0961B881F7A95C9F780950895A8
:103AA000EE0FFF1F881F8BBF0790F691E02D199432
:103AB0005058BB27AA270E94701D0C94C91C0E9455
:103AC000BB1C38F00E94C21C20F039F49F3F19F44F
:103AD00026F40C94B81C0EF4E095E7FB0C94B21C91
:103AE000E92F0E94DA1C58F3BA176207730784079C
:103AF000950720F079F4A6F50C94FC1C0EF4E095E3
:103B00000B2EBA2FA02D0B01B90190010C01CA0197
:103B1000A0011124FF27591B99F0593F50F4503E42
:103B200068F11A16F040A22F232F342F4427585F34
:103B3000F3CF469537952795A795F0405395C9F74C
:103B40007EF41F16BA0B620B730B840BBAF0915004
:103B5000A1F0FF0FBB1F661F771F881FC2F70EC0A3
:103B6000BA0F621F731F841F48F487957795679576
:103B7000B795F7959E3F08F0B0CF9395880F08F062
:103B80009927EE0F9795879508950E94D91D0C945B
:103B9000C91C0E94C21C58F00E94BB1C40F029F4B2
:103BA0005F3F29F00C94B21C51110C94FD1C0C9435
:103BB000B81C0E94DA1C68F39923B1F3552391F3E2
:103BC000951B550BBB27AA2762177307840738F08C
:103BD0009F5F5F4F220F331F441FAA1FA9F335D0E9
:103BE0000E2E3AF0E0E832D091505040E695001C9D
:103BF000CAF72BD0FE2F29D0660F771F881FBB1F57
:103C0000261737074807AB07B0E809F0BB0B802D34
:103C1000BF01FF2793585F4F3AF09E3F510578F060
:103C20000C94B21C0C94FD1C5F3FE4F3983ED4F35B
:103C3000869577956795B795F7959F5FC9F7880F34
:103C4000911D9695879597F90895E1E0660F771F86
:103C5000881FBB1F621773078407BA0720F0621B17
:103C6000730B840BBA0BEE1F88F7E09508950E9442
:103C70003E1E6894B1110C94FD1C08950E94E21C34
:103C800088F09F5798F0B92F9927B751B0F0E1F01D
:103C9000660F771F881F991F1AF0BA95C9F714C0CD
:103CA000B13091F00E94FC1CB1E008950C94FC1C12
:103CB000672F782F8827B85F39F0B93FCCF3869506
:103CC00077956795B395D9F73EF490958095709563
:103CD00061957F4F8F4F9F4F08950E94211C08F4DC
:103CE0008FEF0895FA01EE0FFF1F30962105310581
:103CF000A1F16115710561F48038BFE39B0749F1BB
:103D000068949038810561F08038BFEF9B0741F0DF
:103D100099234AF5FF3FE1053105210519F1E894A2
:103D20000894E795D901AA2329F4AB2FBE2FF85F99
:103D3000D0F310C0FF5F70F4A695E0F7F73950F0AC
:103D400019F0FF3A38F49F779F930DD00F9007FC3E
:103D50009058089546F00C94B81C60E070E080E83C
:103D60009FE308954FE79F775F934F933F932F9380
:103D70000E946D1F2F913F914F915F910E94451CB2
:103D80000C94CA1E29F416F00C94B21C0C94FC1C62
:103D90000C94B81C0E94E21CA8F39638A0F707F810
:103DA0000F92E8942BE33AEA48EB5FE70E945B1C32
:103DB0000F920F920F924DB75EB70F920E94B51FF0
:103DC000ECE2F1E00E94FC1E4F915F91EF91FF91B8
:103DD000E595EE1FFF1F49F0FE57E0684427EE0F00
:103DE000441FFA95E1F74195550B0E942F1F0F9044
:103DF00007FE0C94231F0895DF93CF931F930F9317
:103E0000FF92EF92DF927B018C01689406C0DA2E5C
:103E1000EF010E94581CFE01E894A591259135916F
:103E200045915591A6F3EF010E94701DFE01970187
:103E3000A801DA9469F7DF90EF90FF900F911F913E
:103E4000CF91DF9108959B01AC0160E070E080E8C4
:103E50009FE30C94C51D0C94B21C0C94E91F0E94A6
:103E6000E21CD8F39923C9F3940F511DA3F3915089
:103E7000504094F059F0882332F0660F771F881F66
:103E800091505040C1F79E3F51052CF7880F911D6E
:103E90009695879597F908955F3FACF0983E9CF012
:103EA000BB27869577956795B79508F4B16093958C
:103EB000C1F7BB0F58F711F460FFE8CF6F5F7F4F7A
:103EC0008F4F9F4FE3CF0C94FD1C16F00C94E91F0D
:103ED0000C94B81C68940C94B21C0E94E21CA8F3C9
:103EE0009923C1F3AEF3DF93CF931F930F93FF9208
:103EF000C92FDD2788232AF02197660F771F881F97
:103F0000DAF720E030E040E85FEB9FE3883920F00B
:103F1000803E38F021968F770E94591DE4E5F1E04C
:103F200004C00E94591DE1E8F1E00E94FC1E8B01D3
:103F3000BE01EC01FB2E6F5771097595771F880B39
:103F4000990B0E94E61B28E132E741E35FE30E9400
:103F5000581CAF2D9801AE01FF900F911F91CF918A
:103F6000DF910E94701D0C94C91CFA01DC01AA0F9C
:103F7000BB1F9B01AC01BF5728F4222733274427DE
:103F8000507820C0B75190F4AB2F00244695379558
:103F90002795011CA395D2F3002071F0220F331F47
:103FA000441FB395DAF30ED00C94581D613071059F
:103FB000A0E88A07B94630F49B01AC016627772751
:103FC00088279078309621F0208331834283538371
:103FD00008959F3F31F0915020F48795779567952C
:103FE000B795880F911D9695879597F90895CF936A
:103FF000DF938230910510F482E090E0E0910B08AD
:10400000F0910C0820E030E0C0E0D0E0309711F1F2
:104010004081518148175907C0F04817590761F48A
:1040200082819381209719F09B838A832BC0909380
:104030000C0880930B0826C02115310519F0421792
:10404000530718F49A01BE01DF01EF010280F381EA
:10405000E02DDCCF2115310509F1281B390B243067
:10406000310590F412968D919C911397611571050D
:1040700021F0FB019383828304C090930C0880930A
:104080000B08FD01329644C0FD01E20FF31F81933E
:104090009193225031092D933C933AC02091090805
:1040A00030910A08232B41F4209105023091060239
:1040B00030930A08209309082091030230910402EA
:1040C0002115310541F42DB73EB7409107025091BB
:1040D0000802241B350BE0910908F0910A08E21749
:1040E000F307A0F42E1B3F0B2817390778F0AC011B
:1040F0004E5F5F4F2417350748F04E0F5F1F5093F8
:104100000A08409309088193919302C0E0E0F0E02F
:10411000CF01DF91CF9108950F931F93CF93DF933A
:10412000009709F48CC0FC0132971382128200912F
:104130000B0810910C080115110581F420813181C3
:10414000820F931F2091090830910A082817390718
:1041500079F5F0930A08E093090871C0D80140E0AE
:1041600050E0AE17BF0750F412962D913C91139773
:10417000AD012115310509F1D901F3CF9D01DA0116
:104180003383228360817181860F971F8217930783
:1041900069F4EC0128813981260F371F2E5F3F4FCC
:1041A000318320838A819B8193838283452B29F4E9
:1041B000F0930C08E0930B0842C01396FC93EE9327
:1041C0001297ED01499159919E01240F351FE21775
:1041D000F30771F480819181840F951F02961196E7
:1041E0009C938E938281938113969C938E931297C6
:1041F000E0E0F0E0D80112968D919C911397009722
:1042000019F0F8018C01F6CF8D919C9198012E5FE9
:104210003F4F820F931F2091090830910A082817F9
:10422000390769F4309729F410920C0810920B08A2
:1042300002C01382128210930A0800930908DF91CA
:10424000CF911F910F9108956F927F928F929F92BD
:10425000AF92BF92CF92DF92EF92FF920F931F9394
:10426000CF93DF93EC01009789F4CB01DF91CF91DD
:104270001F910F91FF90EF90DF90CF90BF90AF9084
:104280009F908F907F906F900C94F71FFC01E60F2A
:10429000F71F9C0122503109E217F30708F4ACC064
:1042A000D9010D911C91119706171707B0F0053031
:1042B000110508F49FC0C80104978617970708F4F2
:1042C00099C002501109061B170B019311936D93AE
:1042D0007C93CF010E948C208DC05B01A01AB10A93
:1042E0004C01800E911EA0910B08B0910C0840E08B
:1042F00050E0E12CF12C109709F44AC0A815B9053B
:10430000D1F56D907C901197630182E0C80ED11CAD
:10431000CA14DB0480F1A3014A195B096A0182E037
:10432000C80ED11C1296BC9012971396AC91B5E0B2
:10433000CB16D10440F0B282A38351834083D901CC
:104340006D937C930AC00E5F1F4FC301800F911FB6
:10435000F90191838083EB2DFA2FE114F10431F000
:10436000D7011396FC93EE93129744C0F0930C0878
:10437000E0930B083FC08D919C9111974817590706
:1043800008F4AC017D0112960D90BC91A02DB3CF25
:104390008091090890910A0888159905E1F446175B
:1043A0005707C8F48091030290910402009741F4EA
:1043B0008DB79EB74091070250910802841B950B60
:1043C000E817F907C8F4F0930A08E0930908F9011F
:1043D000718360830FC0CB010E94F71F7C0100979F
:1043E00059F0A801BE010E941222CE010E948C2029
:1043F000C70104C0CE0102C080E090E0DF91CF9100
:104400001F910F91FF90EF90DF90CF90BF90AF90F2
:104410009F908F907F906F90089581E090E0F89446
:104420000C942222FB01DC0102C001900D9241504C
:104430005040D8F70895FB01DC0101900D92002057
:10444000E1F7089511E0C1EDD1E000E006C0802F52
:10445000FE010E94501D2196011DC23DD10780E042
:084460000807A9F7F894FFCF4B
:104468000100FF00000D08200000000000D00EA091
:104478000E5F03740E980E840E750E00000000C5C2
:1044880002050249020C037A0258026C020000007D
:10449800008F0305025F035E034320656E666F6E3F
:1044A800636500432072656C6163686500094D6F40
:1044B800646520006D6F646520312073656C6563E9
:1044C80074696F6E6E65002061333A200020613494
:1044D8003A20002061353A20002061363A20002039
:1044E800536F727469653A20006D6F6465203220DD
:1044F80073656C656374696F6E6E650009737461CA
:1045080077703A2000092000646972656374696FE6
:104518006E3A20005354415750004A276176616E25
:1045280063652043522A535300426565656565708B
:1045380020426565656565702042656565656570DD
:1045480000547269626F726420746F7574652023F9
:1045580064726F697465004261626F726420746F7F
:1045680075746520234761756368650074656D70AF
:08457800203D20000D0A0000A7
:00000001FF
