:100000000C945D010C948E010C948E010C948E0165
:100010000C948E010C948E010C948E010C948E0124
:100020000C948E010C940F080C940F080C940F087C
:100030000C948E010C9428040C948E010C948E0167
:100040000C948E010C94AA060C948E010C948E01D3
:100050000C948E010C948E010C948E010C94DE0392
:100060000C948E010C9499050C946F050C948E01E0
:100070000C948E010C948E010C948E010C948E01C4
:100080000C948E010C948E010C948E010C948E01B4
:100090000C948E010C948E010C948E010C94190812
:1000A0000C948E010C948E010C948E010C948E0194
:1000B0000C948E010C948E010C948E010C94C3054B
:1000C0000C948E010C948E010C948E010C944505B9
:1000D0000C941B050C948E010C94F1040C94C70431
:1000E0000C948E01C209C509B409B809BE09FC09FE
:1000F000C909CD09D309D709DB09E109E509E909EE
:10010000FC09EF09F309F7090C94E1090C944B0F72
:100110000C94450F0C94D7090C94BE090C94D30988
:100120000C94C9090C94CD090C9415030C942A0263
:100130000C94B4090C94B8090C9484070C947502BF
:100140000C9416030C94B0070C94F3090C94C20998
:100150000C94B5010C94F9010C94DB090C94EF0993
:100160000C9494070C94E0070C9485070C940802F7
:100170000C94A8070C94C5090C94E5090C94E909A2
:100180000C94BC020C94FC090C94F7090C941C020E
:100190000C944603000020002300260029002C00B8
:1001A0002F003200000100000301060109010200D6
:1001B000002100240027002A002D00300033000118
:1001C000010000040107010A0100002200250028A7
:1001D000002B002E00310034000201000005010850
:1001E000010B0105050505070508080808020202BC
:1001F000020A0A08080404040401010101010101C2
:10020000010303030303030303040707070C0C0C98
:100210000C0C0C0C0C020202020606060606060670
:10022000060B0B0B0B0B0B0B0B010210202008080D
:100230001020401020408002010201080402010148
:100240000204081020408080402010080402018031
:100250000402018040201008040201080402010188
:100260000204081020408001020408102040800091
:10027000000A0B02090C0D0E080703040100000020
:10028000000000000000000000000000000000006E
:10029000000000000000000000000012111000002B
:1002A000000000000000000000000000000000004E
:1002B0000000000000004B0F450F11241FBECFEFC0
:1002C000D1E2DEBFCDBF00E00CBF12E0A0E0B2E0A3
:1002D000E2E3F7E200E00BBF02C007900D92AC37FB
:1002E000B107D9F727E0ACE7B2E001C01D92A33611
:1002F000B207E1F711E0CCE5D1E000E006C02197BC
:100300000109802FFE010E945411CB35D10780E0F6
:100310000807A9F70E940D0C0C9487130C94000099
:100320003FB7F8948091A5029091A602A091A702F0
:10033000B091A80226B5A89B05C02F3F19F00196E1
:10034000A11DB11D3FBFBA2FA92F982F8827820F5B
:10035000911DA11DB11DBC01CD0142E0660F771FAB
:10036000881F991F4A95D1F70895CF92DF92EF9297
:10037000FF920F931F93CF93DF936C017A018B0150
:10038000C0E0D0E0CE15DF0589F0D8016D918D0178
:10039000D601ED91FC910190F081E02DC6011995F7
:1003A000892B11F47E0102C02196ECCFC701DF91A9
:1003B000CF911F910F91FF90EF90DF90CF90089514
:1003C000FC01A089B1898C91A689B78982FD0FC0F3
:1003D0009C91818D8F5F8F73228D821749F0218DC3
:1003E000DF01A20FB11D5D969C93818F08958C91C2
:1003F0000895FC01538D448D252F30E0842F90E02B
:10040000821B930B541710F0CF960895019708950F
:10041000FC01918D828D981761F0828DDF01A80F0C
:10042000B11D5D968C91928D9F5F9F73928F90E02E
:1004300008958FEF9FEF0895FC01918D828D98179D
:1004400031F0828DE80FF11D858D90E008958FEFDA
:100450009FEF0895FC01918D228D892F90E0805CA3
:100460009F4F821B91098F739927089589E793E025
:100470000E942A0221E0892B09F420E0822F0895AE
:1004800086E194E00E942A0221E0892B09F420E011
:10049000822F089583EB94E00E942A0221E0892BA9
:1004A00009F420E0822F0895FC01848DDF01A80F5C
:1004B000B11DA35ABF4F2C91848D90E001968F738C
:1004C0009927848FA689B7892C93A089B1898C91AB
:1004D00080648C93938D848D981306C00288F38971
:1004E000E02D80818F7D80830895EF92FF920F939E
:1004F0001F93CF93DF93EC0181E0888F9B8D8C8DD0
:10050000981305C0E889F989808185FD24C0F62EFD
:100510000B8D10E00F5F1F4F0F731127E02E8C8D96
:10052000E8120CC00FB607FCFACFE889F989808180
:1005300085FFF5CFCE010E945402F1CF8B8DFE01D5
:10054000E80FF11DE35AFF4FF0820B8FEA89FB8918
:100550008081806207C0EE89FF896083E889F9891C
:1005600080818064808381E090E0DF91CF911F9152
:100570000F91FF90EF900895CF93DF93EC01888D5A
:100580008823C9F0EA89FB89808185FD05C0A88997
:10059000B9898C9186FD0FC00FB607FCF5CF80811D
:1005A00085FFF2CFA889B9898C9185FFEDCFCE0167
:1005B0000E945402E7CFDF91CF910895E0E0F0E090
:1005C000199480E090E0892B21F00E944A02811169
:1005D00019C080E090E0892B41F080E090E0892B09
:1005E00021F00E940000811110C00E944002811180
:1005F0000FC080E090E0892B81F00E9436028111CB
:100600000AC008950E940000E4CF0E940000EDCFD0
:100610000E94DE02EECF0C94000008958EBD000013
:100620000DB407FEFDCF8EB50895089580E090E0EB
:1006300008950E947213FC01248131E030936C0311
:1006400020936B0310926A03109269038485682BD0
:100650008DE693E00E94E00761E08DE693E00C9464
:100660004B090F931F93CF938C01C62F64600E9498
:100670001B036C2F6B7FC8010E941B0383EC90E06F
:100680000197F1F7CF911F910F9108950F931F9349
:10069000CF93DF938C01C62FD62FD07FD1606D2FE3
:1006A0000E941B036D2FC8010E94310380E1C89F87
:1006B000B0011124C62FC1606C2FC8010E941B031A
:1006C0006C2FC8010E94310381E090E0DF91CF914F
:1006D0001F910F9108958F929F92AF92BF92CF92E8
:1006E000DF92EF92FF926B017C010E9490014B011F
:1006F0005C01C114D104E104F104F1F00E94900105
:10070000DC01CB0188199909AA09BB09883E9340ED
:10071000A105B10570F321E0C21AD108E108F10882
:1007200088EE880E83E0981EA11CB11CC114D10470
:10073000E104F10419F7DDCFFF90EF90DF90CF9047
:10074000BF90AF909F908F9008958F929F92AF929D
:10075000BF92CF92DF92EF92FF920F931F93CF93AE
:10076000DF938C01C0E0D0E06B01770FEE08FF084B
:100770004A01550FAA08BB08C017D10794F461E0DD
:1007800088E00E94FD09C701B6010E946B0360E08A
:1007900088E00E94FD09C501B4010E946B03219607
:1007A000EBCFDF91CF911F910F91FF90EF90DF90F2
:1007B000CF90BF90AF909F908F9008951F920F920F
:1007C0000FB60F9211242F933F938F939F93AF9364
:1007D000BF938091A1029091A202A091A302B09137
:1007E000A4023091A00223E0230F2D3720F40196BC
:1007F000A11DB11D05C026E8230F0296A11DB11D44
:100800002093A0028093A1029093A202A093A3023E
:10081000B093A4028091A5029091A602A091A70294
:10082000B091A8020196A11DB11D8093A5029093DD
:10083000A602A093A702B093A802BF91AF919F9187
:100840008F913F912F910F900FBE0F901F90189591
:100850001F920F920FB60F9211240BB60F922F9387
:100860003F934F935F936F937F938F939F93AF9338
:10087000BF93EF93FF938091990290919A02A09178
:100880009B02B0919C02892B8A2B8B2B59F1809172
:100890009802E0919602F0919702908189278083D7
:1008A0008091990290919A02A0919B02B0919C0232
:1008B000181619061A061B060CF056C080919902EC
:1008C00090919A02A0919B02B0919C020197A1097C
:1008D000B1098093990290939A02A0939B02B093DE
:1008E0009C0242C080910002EEEAF1E0E4919FEFA9
:1008F00090930002E230C9F050F4EE2399F0E13019
:1009000081F590916F009D7F90936F002AC0E43035
:1009100019F1E0F0E53029F5909173009D7F9093F7
:1009200073001FC010926E001CC0909170009D7FDC
:100930009093700091E09093B0009091B100987FF7
:1009400094609093B1001092B3000BC0909171002D
:100950009D7F9093710005C0909172009D7F909350
:10096000720060E00E94FD09FF91EF91BF91AF918D
:100970009F918F917F916F915F914F913F912F91B7
:100980000F900BBE0F900FBE0F901F9018951F92E7
:100990000F920FB60F9211240BB60F922F933F9325
:1009A0004F935F936F937F938F939F93AF93BF9377
:1009B000EF93FF9389E793E00E945402FF91EF9138
:1009C000BF91AF919F918F917F916F915F914F9167
:1009D0003F912F910F900BBE0F900FBE0F901F9065
:1009E00018951F920F920FB60F9211240BB60F920B
:1009F0002F933F934F935F936F937F938F939F9327
:100A0000AF93BF93EF93FF9389E793E00E94E001D8
:100A1000FF91EF91BF91AF919F918F917F916F91D6
:100A20005F914F913F912F910F900BBE0F900FBE92
:100A30000F901F9018951F920F920FB60F921124CE
:100A40000BB60F922F933F934F935F936F937F93C8
:100A50008F939F93AF93BF93EF93FF9386E194E0BF
:100A60000E945402FF91EF91BF91AF919F918F919E
:100A70007F916F915F914F913F912F910F900BBE9E
:100A80000F900FBE0F901F9018951F920F920FB6E8
:100A90000F9211240BB60F922F933F934F935F93B6
:100AA0006F937F938F939F93AF93BF93EF93FF9336
:100AB00086E194E00E94E001FF91EF91BF91AF9138
:100AC0009F918F917F916F915F914F913F912F9166
:100AD0000F900BBE0F900FBE0F901F9018951F9296
:100AE0000F920FB60F9211240BB60F922F933F93D4
:100AF0004F935F936F937F938F939F93AF93BF9326
:100B0000EF93FF9383EB94E00E945402FF91EF91E7
:100B1000BF91AF919F918F917F916F915F914F9115
:100B20003F912F910F900BBE0F900FBE0F901F9013
:100B300018951F920F920FB60F9211240BB60F92B9
:100B40002F933F934F935F936F937F938F939F93D5
:100B5000AF93BF93EF93FF9383EB94E00E94E00188
:100B6000FF91EF91BF91AF919F918F917F916F9185
:100B70005F914F913F912F910F900BBE0F900FBE41
:100B80000F901F9018951F920F920FB60F9211247D
:100B90000BB60F922F933F934F935F936F937F9377
:100BA0008F939F93AF93BF93CF93DF93EF93FF9375
:100BB0002091510530E0F901E159FD4F8491F9018F
:100BC000E75DFD4FD491F901ED51FE4FC491CC2367
:100BD000A1F081110E94A709EC2FF0E0EE0FFF1F9A
:100BE000EC56FE4FA591B491EC91ED2331E020E05D
:100BF00009F430E0832F922F02C080E090E0209132
:100C00005505309156052F5F3F4F30935605209381
:100C1000550520915405253618F026E020935005FF
:100C2000209150052430D9F128F4223069F0233086
:100C3000D9F060C0253009F453C0263009F05AC0FD
:100C400021E02093210653C0009709F053C0209162
:100C50005505309156052436310508F443C01092ED
:100C60002106109254051DC08130910509F042C043
:100C7000E091540521E02E0F20935405F0E02091DF
:100C8000550530915605EE0FFF1FE05BFA4F308798
:100C90002783109256051092550524E029C000972D
:100CA000B9F4E091540521E02E0F20935405F0E0B3
:100CB0002091550530915605EE0FFF1FE05BFA4F6E
:100CC00030872783109256051092550523E010C0F7
:100CD00020915505309156052536310558F007C04D
:100CE000009741F4109256051092550503C025E077
:100CF00020935005209153052223B9F0892B51F4FC
:100D000080915205882321F08091520561E009C04D
:100D10002F9A0BC080915205882331F080915205A3
:100D200060E00E94FD0901C02F98FF91EF91DF91D3
:100D3000CF91BF91AF919F918F917F916F915F9173
:100D40004F913F912F910F900BBE0F900FBE0F90C0
:100D50001F9018951F920F920FB60F9211240BB689
:100D60000F922F933F934F935F936F937F938F9344
:100D70009F93AF93BF93EF93FF938091950287FF6B
:100D800005C0109285001092840016C02091950233
:100D9000022E000C330B80915E0690E02817390775
:100DA0005CF43091950225E03203F0011124EE5DF0
:100DB000F94F808186FD15C0809195028F5F8093E9
:100DC000950220919502022E000C330B80915E0655
:100DD00090E02817390794F4809195028C302CF11B
:100DE0000DC0309195023203F0011124EE5DF94FF0
:100DF000808160E08F730E94FD09DECF80918400C6
:100E00009091850084349C4918F480E49CE905C0E5
:100E1000809184009091850004969093890080933E
:100E200088008FEF809395022AC0409184005091F2
:100E300085003091950225E03203F0011124EE5D2A
:100E4000F94F81819281840F951F9093890080933F
:100E50008800309195023203F0011124EE5DF94FC4
:100E6000808186FF0CC0309195023203F00111247D
:100E7000EE5DF94F808161E08F730E94FD09FF9163
:100E8000EF91BF91AF919F918F917F916F915F9102
:100E90004F913F912F910F900BBE0F900FBE0F906F
:100EA0001F90189585ED8093BC008091BC0084FD57
:100EB000FCCF1092380308954091EB02262F30E0CA
:100EC000240F311D21323105DCF420913803243008
:100ED000C9F4FC0180E090E0861758F43091EB02F1
:100EE0002191DC01A753BD4FA30FB11D2C93019697
:100EF000F3CF8091EB02680F6093EB0280E00895DE
:100F000081E0089582E008950895E0913A03809188
:100F10003903E81730F4F0E0E55CFC4F808190E0A5
:100F200008958FEF9FEF089590913A0380913903D0
:100F3000981750F4E92FF0E0E55CFC4F208130E099
:100F40009F5F90933A0302C02FEF3FEFC9010895CE
:100F50008091390390E020913A03821B9109089512
:100F6000CF92DF92EF92FF920F931F93CF93DF9375
:100F70007C01262F972F8A0180916C03882391F0A2
:100F8000C62FD72F6E01C40ED51ECC15DD0571F00E
:100F90006991D701ED91FC910190F081E02DC7019D
:100FA0001995F3CF642F822F0E945C07C801DF914F
:100FB000CF911F910F91FF90EF90DF90CF90089508
:100FC000CF93DF931F92CDB7DEB7698320916C0377
:100FD0002223D1F020916903203240F021E030E05B
:100FE000FC013383228380E090E015C080916A0386
:100FF000E82FF0E0E755FD4F998190838F5F809354
:101000006A038093690305C061E0CE0101960E94E6
:101010005C0781E090E00F90DF91CF9108951F92DF
:101020000F920FB60F9211240F900FBE0F901F90CA
:1010300018951F920F920FB60F9211240BB60F92B4
:101040002F933F934F935F936F937F938F939F93D0
:10105000AF93BF93EF93FF938091B900887F803661
:1010600009F49CC068F5883209F45BC090F48031C3
:1010700009F454C038F4882309F4F6C0883009F420
:101080004DC0F6C0883109F44CC0803209F45DC00F
:10109000EFC0803409F468C048F4803309F455C0C7
:1010A000883309F0E5C080933603D8C0803509F451
:1010B0004FC0883509F45DC0883409F0D9C0D6C066
:1010C000883909F4C7C0A8F4883709F467C038F430
:1010D000883609F463C0803709F460C0C9C0883815
:1010E00009F4B8C0803909F45FC0803809F0C0C085
:1010F0005BC0803B09F486C038F4803A09F466C0CE
:10110000883A09F47FC0B4C0803C09F4A7C0883C89
:1011100009F4A4C0883B09F48AC0AAC080913303B3
:1011200010C09091350380913403981770F5E091C9
:10113000350381E08E0F80933503F0E0EE5EFC4FC7
:1011400080818093BB0085EC86C0809336038EC07F
:10115000E091350381E08E0F809335038091BB00D1
:10116000F0E0EE5EFC4F8083909135038091340374
:101170006EC0E091350381E08E0F8093350380913E
:10118000BB00F0E0EE5EFC4F80838091370381115D
:101190006DC081E08093320384EA61C083E0809374
:1011A000380310920F03CFCF80910F03803208F0E5
:1011B00051C0E0910F0381E08E0F80930F03809167
:1011C000BB00F0E0E151FD4F8083BDCF85EC809303
:1011D000BC001092380380910F03803230F4E0910C
:1011E0000F03F0E0E151FD4F108260910F0370E0BA
:1011F000E091ED02F091EE028FEE92E019951092DF
:101200000F0336C084E0809338031092EC021092F2
:10121000EB02E091E902F091EA0219958091EB026C
:10122000811105C081E08093EB021092C902E09128
:10123000EC0281E08E0F8093EC02F0E0E753FD4F6B
:1012400080818093BB009091EC028091EB02981713
:1012500008F479CF85E88093BC000AC085EC8093C0
:10126000BC001092380304C0109236030E9452074B
:10127000FF91EF91BF91AF919F918F917F916F916E
:101280005F914F913F912F910F900BBE0F900FBE2A
:101290000F901F9018952091690390916B03213254
:1012A00008F049C0809138038111FCCF32E03093BF
:1012B0003803609337033FEF3093360310923503C2
:1012C00020933403A9EAB2E042E153E0FA013E2F51
:1012D000341B321718F43D913193F9CF1092330338
:1012E00020913303990F922B909333039091320303
:1012F000913061F410923203909133039093BB00CC
:101300009091BC0093FDF8CF95EC01C095EE9093C1
:10131000BC00909138039230E1F3909136039F3FE7
:1013200079F080913603803241F08091360380332A
:1013300031F084E005C081E003C082E001C083E0B9
:1013400010926A031092690310926C03089590E062
:10135000FC013197E231F10508F04EC08827EE58C4
:10136000FF4F8F4F0C945411809180008F7703C0F2
:10137000809180008F7D809380000895809180000F
:10138000877FF9CF84B58F7702C084B58F7D84BD08
:1013900008958091B0008F7703C08091B0008F7D59
:1013A0008093B0000895809190008F7707C080915E
:1013B00090008F7D03C080919000877F8093900084
:1013C00008958091A0008F7707C08091A0008F7D45
:1013D00003C08091A000877F8093A0000895809132
:1013E00020018F7707C0809120018F7D03C08091FD
:1013F0002001877F8093200108951F93CF93DF936F
:10140000282F30E0F901E159FD4F8491F901E75DA2
:10141000FD4FD491F901ED51FE4FC491CC23C9F099
:10142000162F81110E94A709EC2FF0E0EE0FFF1F8D
:10143000E753FE4FA591B4918FB7F894111105C0F1
:101440009C91ED2FE095E92302C0EC91ED2BEC93FC
:101450008FBFDF91CF911F9108951092380381E0E3
:10146000809337031092320361E084E10E94FD090A
:1014700061E085E10E94FD09E9EBF0E080818E7F6B
:10148000808380818D7F808388E48093B80085E4A9
:101490008093BC000895CF93DF9390E0FC01E75D5B
:1014A000FD4F2491FC01ED51FE4F8491882361F1A1
:1014B00090E0880F991FFC01E155FE4FC591D49132
:1014C000FC01E753FE4FA591B491611109C09FB78C
:1014D000F8948881209582238883EC912E230BC079
:1014E000623061F49FB7F8943881822F809583230E
:1014F0008883EC912E2B2C939FBF06C08FB7F89456
:10150000E8812E2B28838FBFDF91CF910895E3EBE5
:10151000F4E0A089B18982E08C93A485B5851C9202
:10152000A685B7858FEC8C93108EA489B58986E04B
:101530008C93A289B3898C9180618C93A289B389A1
:101540008C9188608C93A289B3898C9180688C93EC
:101550000288F389E02D80818F7D80830895009734
:1015600069F0FC0101900020E9F73197AF01481BB9
:10157000590BBC0183EB94E00C94B50180E090E042
:101580000895CF93DF930E94AF0AEC0188E792E0C1
:101590000E94AF0A8C0F9D1FDF91CF910895EF92AB
:1015A000FF921F93CF93DF931F92CDB7DEB7162F15
:1015B00098E2E92E97E0F92ED7011C969C911C9792
:1015C00021E020936C0390936B0310926A031092B6
:1015D00069031A960D90BC91A02DED91FC91119785
:1015E0000190F081E02D682FCD0179831995F701E5
:1015F00082859385DC01ED91FC910190F081E02DD5
:101600007981672F1995F70182859385DC01ED912A
:10161000FC910190F081E02D612F199561E0F701B7
:10162000828593850F90DF91CF911F91FF90EF906E
:101630000C944B09CF93C82F81E080936C0382E513
:1016400080936B0310926A03109269038DE693E016
:101650000E94E0076C2F8DE693E00E94E00761E0B6
:101660008DE693E00E944B096AE070E080E090E034
:10167000CF910C946B03EF92FF921F93CF93DF9364
:10168000CDB7DEB72C970FB6F894DEBF0FBECDBF37
:10169000809138038111FCCF81E0809338038093DF
:1016A00037039FEF909336031092350395E09093A4
:1016B00034038093330380913303846A809333032C
:1016C00080913203813061F41092320380913303B0
:1016D0008093BB008091BC0083FDF8CF85EC01C0F6
:1016E00085EE8093BC00809138038130E1F38091D6
:1016F0003503863018F41091350301C016E0A2E1DD
:10170000B3E02BE333E0F9018E2F821B811718F42D
:101710008D918193F9CF10923A0310933903CE0142
:1017200001967C0180913A03181749F08DE693E009
:101730000E949407F701819391937F01F3CF8981F0
:101740009A8190935C0380935B038B819C8190933F
:101750005E0380935D038B859C859C013595279561
:1017600035952795A901437055272D813E81220F7C
:10177000331F220F331F242B352B3093600320930C
:101780005F039C0174E0359527957A95E1F7A901EF
:10179000437055272F813885220F331F220F331FA7
:1017A000242B352B30936203209361039C01F6E0D8
:1017B00035952795FA95E1F7A901437055272985B5
:1017C0003A85220F331F220F331F242B352B3093E2
:1017D0006403209363039C0121703327F1E02F27DA
:1017E000309366032093650321E030E081FF02C05F
:1017F00020E030E0309368032093670360E080E0EE
:101800002C960FB6F894DEBF0FBECDBFDF91CF91FF
:101810001F91FF90EF900C941A0BCF93DF93CDB7ED
:10182000DEB7A1970FB6F894DEBF0FBECDBF789498
:1018300084B5826084BD84B5816084BD85B58260D5
:1018400085BD85B5816085BD80916E008160809386
:101850006E001092810080918100826080938100EF
:1018600080918100816080938100809180008160FF
:10187000809380008091B10084608093B10080915A
:10188000B00081608093B00080919100826080936D
:1018900091008091910081608093910080919000EF
:1018A0008160809390008091A10082608093A1006C
:1018B0008091A10081608093A1008091A00081604F
:1018C0008093A0008091210182608093210180910A
:1018D00021018160809321018091200181608093AA
:1018E000200180917A00846080937A0080917A0050
:1018F000826080937A0080917A00816080937A0080
:1019000080917A00806880937A001092C1000E94D2
:10191000870A61E0809129070E944B0A60E080916C
:1019200029070E94FD0960E0809128070E944B0A68
:101930008DE693E0909333078093320710923A0339
:101940001092390310926A03109269030E942D0AC3
:1019500080E090E1A0E0B0E08093350790933607F7
:10196000A0933707B09338078AE090E0A0E0B0E09A
:101970008093390790933A07A0933B07B0933C07B5
:1019800080E090E0A0E0B0E480933D0790933E07B4
:10199000A0933F07B093400760E070E185E00E94AC
:1019A000CF0A6FE979E380E00E94CF0A05E417E0EF
:1019B000A12CB12CC12CD12C88E1282E82E0382E0C
:1019C0009BEC892E97E0992E2BE8622E7724739456
:1019D0009601285D384F2901D90114969C911497DE
:1019E00012968C91F501E85DF84F7F01818F928FFF
:1019F00061E00E944B0A61E0D7015A968C910E94E7
:101A00004B0AF20190858681D8018C93F701968F5D
:101A100061E00E944B0A60E0D7015E968C910E94C3
:101A20004B0A61E0F80180810E94FD09FFB6F8943D
:101A300080919D02811126C0F1018491EEE5F2E0D2
:101A40009491E82FF0E0EE0FFF1FE155FE4FA591B6
:101A5000B4918C91982321F461E085E30E94FD0903
:101A600061E085E30E944B0A8CB580618CBD8CB52A
:101A700080648CBD61E084E30E944B0A61E083E3F3
:101A80000E944B0A80919D028F5F80939D02FFBE52
:101A9000C4010197F1F760E0D8018C910E94FD0923
:101AA00088E80E940E0383E00E940E0361E0F801C3
:101AB00080810E94FD09C4010197F1F760E0D8011F
:101AC0008C910E94FD0988E90E940E0380E00E942B
:101AD0000E0380E00E940E0380E00E940E0380E06F
:101AE0000E940E0361E0F80180810E94FD09C3019C
:101AF0000197F1F760E0D8018C910E94FD0980EE1A
:101B00000E940E0361E0F80180810E94FD09F2E06D
:101B1000AF0EB11C0E5F1F4FCA94CD2821F0CC240C
:101B2000C394D12C55CF0DE417E0E4E0FE2EF00E67
:101B300060E0D8018D918D010E944B0AF012F8CF20
:101B40003CE5E32E37E0F32E09E517E045E0A42E4F
:101B50005CE0C52E62E0962E72E0B72EB00EF80162
:101B60003897D080F80180818C3008F046C061E061
:101B70008D2D0E944B0AD8018C91A89EF001112452
:101B8000EE5DF94F9D2D9F732081207CD22ED92AA6
:101B9000D082138214826C2D0E944811BCE08B9F6E
:101BA000A001112420E030E0B901640F751FA69E4A
:101BB000F001A79EF00D1124EE5DF94F908196FD86
:101BC00012C02F5F3F4F2C30310571F781110BC0D0
:101BD00010928000909281001092850010928400F3
:101BE00096BA90926F00D801EC91AE9EF00111244C
:101BF000EE5DF94F808180648083F8013297908197
:101C000032978081F70131978083F701908360E0FC
:101C10000E944B0A61E0D7018C910E944B0A60E060
:101C2000F70180810E94FD090F5F1F4FF2E0EF0E68
:101C3000F11CB01294CFF8941092200189E08093A7
:101C4000210180E293E09093290180932801109272
:101C500025011092240182E0809373007894809390
:101C60005005109254058091510560E00E944B0A86
:101C700010923A031092390310926A03109269038A
:101C80000E942D0A60EF85E50E941A0B6BEF80E041
:101C90000E941A0B0E943B0B0E94870A8AE0482E82
:101CA000512C612C712C92E0A92EB12C88248394A4
:101CB000912C0E943B0B80916703909168030197E0
:101CC00009F095C08091650390916603892B09F016
:101CD0008EC00E943B0B809167039091680301972F
:101CE00069F46AE070E080E090E00E946B030E947B
:101CF0003B0B87E392E00E94C10AEDCF0E943B0BB1
:101D000081E492E00E94C10A80919E0290919F021C
:101D1000009759F490929F0280929E0240E050E01A
:101D200064EF71E081E090E00DC08130910569F4CD
:101D3000B0929F02A0929E0246E950E064EF71E0EB
:101D400082E090E00E94A50302C0029719F38BE4A1
:101D500092E00E94AF0AC0909E02D0909F020D2C8C
:101D6000000CEE08FF08F7FE26C0E091B304F091E6
:101D7000B4040190F081E02D6DE283EB94E01995BD
:101D800022273327A9012C193D094E095F0919A201
:101D90008E010F5D1F4FCA01B901A30192010E947C
:101DA0002611605DD8016E938D0121153105410525
:101DB000510589F715C0A701960119A28E010F5D83
:101DC0001F4FCA01B901A30192010E942611605D53
:101DD000F80162938F01211531054105510589F7FD
:101DE000C8010E94AF0A8AE792E00E94C10A0E94DD
:101DF0003B0B80919E0290919F02892B09F442C077
:101E000000E010E08091670390916803892BD1F581
:101E100080916503909166030197A1F50E943B0BA9
:101E20000F5F1F4F64E670E080E090E00E946B035C
:101E30000A30110539F744E650E064E670E083E0CB
:101E400090E00E94A50380919E0290919F028130B4
:101E5000910549F482E592E00E94C10A44EF51E005
:101E600064EF71E00AC0029769F685E692E00E948D
:101E7000C10A48EC50E06CED75E083E090E00E9410
:101E8000A503C0CF0E94E10214CF80915F0690911C
:101E900060060C94F1111092700310926F0388EE9B
:101EA00093E0A0E0B0E08093710390937203A0935D
:101EB0007303B09374032BE032E030936E032093EE
:101EC0006D0310927C0310927B0380937D039093AB
:101ED0007E03A0937F03B09380032DE132E0309323
:101EE0007A032093790345E351E0509386034093AE
:101EF000850344E351E0509388034093870340E314
:101F000051E050938A034093890341E351E0509399
:101F10008C0340938B0342E351E050938E03409334
:101F20008D0346E351E05093900340938F0310924A
:101F300092031092930310929403109295031092BF
:101F400019041092180480931A0490931B04A09310
:101F50001C04B0931D04309317042093160445ED20
:101F600050E0509323044093220444ED50E05093FA
:101F700025044093240440ED50E0509327044093FF
:101F8000260441ED50E0509329044093280442ED8B
:101F900050E050932B0440932A0446ED50E05093B8
:101FA0002D0440932C0410922F04109230041092B0
:101FB0003104109232041092B6041092B50480934A
:101FC000B7049093B804A093B904B093BA043093C3
:101FD000B4042093B30485EC90E09093C004809304
:101FE000BF0484EC90E09093C2048093C10480EC21
:101FF00090E09093C4048093C30481EC90E09093AC
:10200000C6048093C50482EC90E09093C80480934A
:10201000C70486EC90E09093CA048093C9041092A0
:10202000CC041092CD041092CE041092CF0486E31B
:102030008093490787E380934A0788E380934B079F
:1020400089E380934C078BE180934D078DE180936A
:102050004E078AE180934F078CE18093500784E01C
:102060008093510787E0809352071092530784EBC7
:102070008093540786E18093550788E18093560743
:1020800087E18093570789E180935807E0915E06C6
:10209000EC3020F08FEF8093590710C081E08E0F55
:1020A00080935E06E093590725E0E29FF00111243A
:1020B000EE5DF94F88EB9BE092838183E0915E06B1
:1020C000EC3020F08FEF80935A0710C081E08E0F24
:1020D00080935E06E0935A0785E0E89FF0011124A3
:1020E000EE5DF94F88EB9BE0928381838CE08093D7
:1020F000280784E28093290786E080932A0785E0F9
:1021000080932B078FE180932C078EE180932D071E
:1021100083E280932E0782E280932F0785E48093E9
:10212000300784E48093310780E480933407109271
:10213000390710923A0710923B0710923C07109211
:102140003D0710923E0710923F0710924007EAE6C3
:10215000F6E08FEF9FEFDC0112821382148215826A
:10216000168217821086118683879487A587B68783
:102170008787908BA18BB28B128611821082739607
:1021800027E0E832F20741F78DE090E00E945C1111
:10219000FC01138212828FE292E091838083118688
:1021A00087E2848384E1828784E083871486F093C6
:1021B0006706E0936606109268061092690685E24B
:1021C00080935105109253051092600610925F069D
:1021D00010926206109261061092640610926306D5
:1021E00061E070E080E090E00E948912009789F041
:1021F0009093600680935F061092620610926106CB
:102200002091630630916406232BC1F4FC011082F7
:1022100015C080915F0690916006009711F00E94B2
:10222000F1111092600610925F06109264061092EF
:102230006306109262061092610608951092640679
:10224000109263066AE772E00C948013A1E21A2EE2
:10225000AA1BBB1BFD010DC0AA1FBB1FEE1FFF1F4A
:10226000A217B307E407F50720F0A21BB30BE40B9A
:10227000F50B661F771F881F991F1A9469F76095E1
:102280007095809590959B01AC01BD01CF0108959B
:10229000991B79E004C0991F961708F0961B881FB8
:1022A0007A95C9F780950895EE0FFF1F881F8BBFA1
:1022B0000790F691E02D1994CF93DF93823091052A
:1022C00010F482E090E0E0916107F091620720E075
:1022D00030E0C0E0D0E0309711F1408151814817E3
:1022E0005907C0F04817590761F4828193812097FC
:1022F00019F09B838A832BC09093620780936107B8
:1023000026C02115310519F04217530718F49A0118
:10231000BE01DF01EF010280F381E02DDCCF21154A
:10232000310509F1281B390B2430310590F4129640
:102330008D919C9113976115710521F0FB01938399
:10234000828304C09093620780936107FD013296F7
:1023500044C0FD01E20FF31F819391932250310994
:102360002D933C933AC020915F0730916007232B57
:1023700041F42091030230910402309360072093CE
:102380005F0720910102309102022115310541F4CD
:102390002DB73EB74091050250910602241B350B24
:1023A000E0915F07F0916007E217F307A0F42E1B9E
:1023B0003F0B2817390778F0AC014E5F5F4F2417A9
:1023C000350748F04E0F5F1F5093600740935F073B
:1023D0008193919302C0E0E0F0E0CF01DF91CF91D3
:1023E00008950F931F93CF93DF93009709F48CC048
:1023F000FC013297138212820091610710916207EB
:102400000115110581F420813181820F931F2091E4
:102410005F07309160072817390779F5F093600757
:10242000E0935F0771C0D80140E050E0AE17BF07EE
:1024300050F412962D913C911397AD012115310561
:1024400009F1D901F3CF9D01DA0133832283608141
:102450007181860F971F8217930769F4EC01288119
:102460003981260F371F2E5F3F4F318320838A81AA
:102470009B8193838283452B29F4F0936207E09339
:10248000610742C01396FC93EE931297ED014991B8
:1024900059919E01240F351FE217F30771F48081D3
:1024A0009181840F951F029611969C938E93828141
:1024B000938113969C938E931297E0E0F0E0D801FD
:1024C00012968D919C911397009719F0F8018C0149
:1024D000F6CF8D919C9198012E5F3F4F820F931FF5
:1024E00020915F07309160072817390769F430970A
:1024F00029F4109262071092610702C013821282BF
:102500001093600700935F07DF91CF911F910F91A8
:1025100008956F927F928F929F92AF92BF92CF92C7
:10252000DF92EF92FF920F931F93CF93DF93EC0113
:10253000009789F4CB01DF91CF911F910F91FF900C
:10254000EF90DF90CF90BF90AF909F908F907F9053
:102550006F900C945C11FC01E60FF71F9C01225058
:102560003109E217F30708F4ACC0D9010D911C91B1
:10257000119706171707B0F00530110508F49FC032
:10258000C80104978617970708F499C002501109EB
:10259000061B170B019311936D937C93CF010E943F
:1025A000F1118DC05B01A01AB10A4C01800E911E81
:1025B000A0916107B091620740E050E0E12CF12C5E
:1025C000109709F44AC0A815B905D1F56D907C9013
:1025D0001197630182E0C80ED11CCA14DB0480F19C
:1025E000A3014A195B096A0182E0C80ED11C129648
:1025F000BC9012971396AC91B5E0CB16D10440F085
:10260000B282A38351834083D9016D937C930AC026
:102610000E5F1F4FC301800F911FF90191838083CB
:10262000EB2DFA2FE114F10431F0D7011396FC934E
:10263000EE93129744C0F0936207E09361073FC0A6
:102640008D919C9111974817590708F4AC017D01B1
:1026500012960D90BC91A02DB3CF80915F07909101
:10266000600788159905E1F446175707C8F480916B
:10267000010290910202009741F48DB79EB74091FC
:10268000050250910602841B950BE817F907C8F460
:10269000F0936007E0935F07F901718360830FC0D7
:1026A000CB010E945C117C01009759F0A801BE018A
:1026B0000E947713CE010E94F111C70104C0CE0120
:1026C00002C080E090E0DF91CF911F910F91FF90C9
:1026D000EF90DF90CF90BF90AF909F908F907F90C2
:1026E0006F90089581E090E0F8940C948713FB01BB
:1026F000DC0102C001900D9241505040D8F708957E
:10270000FB01DC0101900D920020E1F7089511E03A
:10271000CCE5D1E000E006C0802FFE010E945411FC
:102720002196011DCD35D10780E00807A9F7F8945F
:02273000FFCFD9
:10273200FF00006307200000000000E007B007165A
:10274200038407A80794078507000000007502B5F7
:1027520001F901BC022A0208021C02000000004624
:1027620003B501160315034320656E666F6E63653C
:1027720000432072656C6163686500094D6F646592
:1027820020006D6F646520312073656C6563746928
:102792006F6E6E65006D6F646520322073656C65C7
:0C27A2006374696F6E6E65000D0A000024
:00000001FF
