:100000000C94E6010C9417020C9417020C9417023E
:100010000C9417020C9417020C9417020C941702FC
:100020000C9417020C9459140C9459140C945914F0
:100030000C9417020C94F8100C9417020C941702ED
:100040000C9417020C94A4190C9417020C94170228
:100050000C9417020C9417020C9417020C94AE1017
:100060000C9417020C949C160C9411170C94170204
:100070000C9417020C9417020C9417020C9417029C
:100080000C9417020C9417020C9417020C9417028C
:100090000C9417020C9417020C9417020C9463141E
:1000A0000C9417020C9417020C9417020C9417026C
:1000B0000C9417020C9417020C9417020C94A417BA
:1000C0000C9417020C9417020C9417020C947216DD
:1000D0000C94E7160C9417020C94C1110C94971110
:1000E0000C941702AE0FB10FA00FA40FAA0FE80FC8
:1000F000B50FB90FBF0FC30FC70FCD0FD10FD50F5E
:10010000E80FDB0FDF0FE30FEB18F018F518FF18FF
:100110000919821913191B1923192D193719411996
:1001200050195A19821964196E197819072C7AA571
:10013000BA6CC590DA3B9365FC8BBC53F810FD3C60
:100140005692834DBD879D3AB63DCBC9BF5BBE730A
:10015000DA0FC93F07634236B79BD8A71A396856EA
:1001600018AEBAAB558C1D3CB7CC5763BD6DEDFDD9
:10017000753EF6177231BF000000803F0800000096
:10018000BE922449123EABAAAA2ABECDCCCC4C3E8C
:1001900000000080BEABAAAAAA3E00000000BF007B
:1001A0000000803F0000000000084178D3BB438777
:1001B000D1133D190E3CC3BD4282AD2B3E68EC828B
:1001C00076BED98FE1A93E4C80EFFFBE01C4FF7F10
:1001D0003F00000000000C94CC0E0C94E80F0C942F
:1001E0006E190C94C70F0C94BF0F0C94DF0F0C9476
:1001F000C30F0C94D10F0C94EB180C94B10F0C940A
:10020000A00F0C94AE0F0C940E1B0C940C160C94B7
:10021000DB150C94AA0F0C94510E0C94FC0E0C944C
:10022000D50F0C94E31F0C94B50F0C94600E0C9436
:1002300064190C940F1B0C942D190C94B90F0C9489
:1002400082170C94A10E0C94CD0F0C9437190C94BA
:10025000EA150C9413190C94F0180C945A190C9478
:10026000E30F0C94740E0C9482190C943B170C94AD
:10027000DB0F0C94F5110C94F5180C94FF180C94EA
:100280001B190C94A40F0C94121B0C9409190C94B8
:1002900041190C94371B0C9478190C94FE150C948E
:1002A00023190C9450190200002100240027002A71
:1002B000002D003000330001010000040107010A95
:1002C0000100002200250028002B002E0031003400
:1002D0000002010000050108010B010505050507E5
:1002E0000508080808020202020A0A0808040404B1
:1002F00004010101010101010103030303030303DD
:1003000003040707070C0C0C0C0C0C0C0C0202026B
:100310000206060606060606060B0B0B0B0B0B0B5E
:100320000B010210202008081020401020408002FD
:10033000010201080402010102040810204080802B
:1003400040201008040201800402018040201008AF
:100350000402010804020101020408102040800187
:100360000204081020408000000A0B02090C0D0E48
:100370000807030401000000000000000000000066
:10038000000000000000000000000000000000006D
:10039000000000121110000000000000000000002A
:1003A000000000000000000000000000000000202D
:1003B000002300260029002C002F0032000001003D
:1003C0000003010601090100371BE31F11241FBEB2
:1003D000CFEFD1E2DEBFCDBF00E00CBF13E0A0E065
:1003E000B2E0E2E8FDE400E00BBF02C007900D922E
:1003F000A036B107D9F728E0A0E6B3E001C01D920E
:10040000AE33B207E1F711E0C5EED1E000E006C07F
:1004100021970109802FFE010E945A21C43ED10775
:1004200080E00807A9F70E94121D0C94AF260C94D7
:100430000000E0E0F0E01994CF92DF92EF92FF929B
:1004400069017A01AB01BC018CE397E00E948B1833
:10045000B701A60170588EE397E0FF90EF90DF9010
:10046000CF900C948B188F929F92AF92BF92CF92A5
:10047000DF92EF92FF920F931F93CF93DF938C0144
:10048000C0E0D0E06B01770FEE08FF084A01550F7E
:10049000AA08BB08C017D10794F461E088E00E9465
:1004A000E90FC701B6010E94741060E088E00E9465
:1004B000E90FC501B4010E9474102196EBCFDF91C2
:1004C000CF911F910F91FF90EF90DF90CF90BF9051
:1004D000AF909F908F900895CF93C0E08C2F0E9493
:1004E00055108935924024F081E090E00E94B506D5
:1004F000CF5FC83099F7CF910895CF92DF92EF92F6
:10050000FF921F93CF93DF93182FC0E0D0E0C12C50
:10051000D12C7601CA30D10539F1812F0E945510B6
:10052000BC01990F880B990B0E94F01F26EA3BE94A
:1005300044EC5BEB0E944F209B01AC016DEF76EF2A
:100540008DE290E40E94D4222DE73FE34BEA52E48F
:100550000E944F209B01AC01C701B6010E9474218B
:100560006B017C012196D6CF20E030E040E251E4DF
:10057000C701B6010E94E0216B017C0142E00E94AC
:1005800037120E94290CC701B601DF91CF911F914C
:10059000FF90EF90DF90CF90089540E050E0BA01D7
:1005A0008CE397E00E948B1840E050E060E070E838
:1005B0008EE397E00E948B1880E497E00E94531A24
:1005C00082E497E00C94531A0F931F93CF93DF9319
:1005D000C0E0D0E000E010E00E9459138091EC07E9
:1005E0009091ED07892BE1F560E088E00E94E90F2A
:1005F00064E670E080E090E00E94741040E050E01B
:10060000BA018CE397E00E948B1840E050E0BA01F9
:100610008CE397E00E948B180E9459138091EE079B
:100620009091EF07019709F421960E945913809148
:10063000EE079091EF07892B81F0CA30D10564F263
:1006400044E650E062E370E08AE090E00E9433020A
:100650000E94CD02F8011995BFCFC0E0D0E0BCCF19
:10066000DF91CF911F910F9108958F929F92AF923A
:10067000BF92EF92FF920F931F93CF93DF9380E48B
:1006800097E00E947E1A80E497E00E94531A80E46B
:1006900097E00E947E1A9B01AC0188279927DC0114
:1006A000821B930BA40BB50B89369F41A105B105A5
:1006B0001CF0C0E0D0E020C04AE959E969E97EE3D6
:1006C0008CE397E00E948B1840E050E060E070E817
:1006D0008EE397E00E948B180E94E40288E090E08D
:1006E0000E947D0220E030E040EF51E40E94E91FCB
:1006F00087FFCDCFC1E0D0E080E497E00E947E1A72
:1007000080E497E00E94531A219709F089C092E093
:10071000E92EF12CC2E3D0E00E94E40209E210E0ED
:1007200088E090E00E947D024B015C01BE010D2E2D
:10073000000C880B990B0E94F01F9B01AC01C501B6
:10074000B4010E94E91F87FF2FC088E090E00E945B
:100750007D0220E030E040EF51E40E94E91F87FF76
:1007600023C00150110901F14AE959E969E97EE321
:100770008CE397E00E948B1840E050E060E070E866
:100780008EE397E00E948B180E94E40288E090E0DC
:100790000E947D020E945222EB0164E670E080E03C
:1007A00090E00E947410BCCF40E050E0BA018CE3AE
:1007B00097E00E948B1840E050E0BA018CE397E08C
:1007C0000E948B18EA94EF2821F0EE24E394F12C98
:1007D000A3CF40E050E0BA018CE397E00E948B1871
:1007E0004AE959E969E97EEB8EE397E00E948B18AC
:1007F0006CE271E080E090E00E94741060E088E0BC
:100800000E94E90F0E94CD02DF91CF911F910F91BD
:10081000FF90EF90BF90AF909F908F900C94E40268
:10082000DF91CF911F910F91FF90EF90BF90AF900C
:100830009F908F9008952F923F924F925F926F9268
:100840007F928F929F92AF92BF92CF92DF92EF9260
:10085000FF920F931F93CF93DF93CDB7DEB7289707
:100860000FB6F894DEBF0FBECDBF8C010E943503DA
:100870000E94E4020115110511F00E946C0288E04B
:1008800090E00E947D020E9452221B01CB010F9634
:100890009C01092E000C440B550B29833A834B8392
:1008A0005C830C979C01990F440B550B2D833E8361
:1008B0004F835887210133E0431A5108052C000C5F
:1008C0006608770888E090E00E947D026B017C0159
:1008D00069817A818B819C810E94F01F9B01AC0110
:1008E000C701B6010E94E91F87FF4FC10130110502
:1008F00039F188E090E00E947D026B017C016D81FE
:100900007E818F8198850E94F01F9B01AC01C701F9
:10091000B6010E94CF2218163CF188E090E00E94B8
:100920007D026B017C01C301B2010E94F01F9B019B
:10093000AC01C701B6010E94E91F87FD15C01EC1A9
:10094000D12CE12CF12C8D2D0E945510893592402F
:100950001CF0EE24E394F12CD39458E0D512F3CF9D
:10096000EF2809F012C1C5CF0E94E402011511055C
:1009700011F00E946C020E94350388E090E00E9412
:100980007D020E94522262197309072E000C880B07
:10099000990B0E94F01F4B015C0120E030E040EA1F
:1009A00051E40E94E0210E94622125E833EF4FE9E3
:1009B00054E40E944F206B017C0189E392E00E9485
:1009C000361342E0C701B6010E94371280E592E07B
:1009D0000E942D0C0E94CD0220E030E0A901C5014B
:1009E000B4010E94CF22181654F020E030E0A90193
:1009F000C501B4010E94E91F87FF5EC062C082E4A6
:100A000097E00E947E1A0E94F01FA70196010E94A3
:100A1000E91F87FF1AC040E050E0BA018CE397E07D
:100A20000E948B184AE959E969E97EEB8EE397E069
:100A30000E948B1881E692E00E94361382E497E0D0
:100A40000E947E1A0E940B13DACF0E94CD0280E42E
:100A500097E00E947E1A90958095709561957F4FE2
:100A60008F4F9F4F0E94F01FA70196010E94E91F20
:100A700087FFBBCF4AE959E969E97EE38CE397E058
:100A80000E948B1840E050E060E070E88EE397E051
:100A90000E948B1886E692E00E94361380E497E06D
:100AA0000E947E1A90958095709561957F4F8F4F2B
:100AB0009F4F0E940B13CBCF0E94CD020E94CD020C
:100AC00001CF80E497E00E947E1A90958095709502
:100AD00061957F4F8F4F9F4F0E94F01FA701960196
:100AE0000E94E91F87FF22C04AE959E969E97EE3CC
:100AF0008CE397E00E948B1840E050E060E070E8E3
:100B00008EE397E00E948B188BE692E00E943613EA
:100B100080E497E00E947E1A90958095709561958B
:100B20007F4F8F4F9F4F0E940B13CBCF0E94CD0260
:100B300082E497E00E947E1A0E94F01FA7019601AE
:100B40000E94E91F87FFB8CF40E050E0BA018CE374
:100B500097E00E948B184AE959E969E97EEB8EE338
:100B600097E00E948B1880E792E00E94361382E49F
:100B700097E00E947E1A0E940B13DACF6AE979E9A6
:100B800089E99EE30E94840C9DCE0E94CD020E94C2
:100B9000E402012BD1F028960FB6F894DEBF0FBE09
:100BA000CDBFDF91CF911F910F91FF90EF90DF901C
:100BB000CF90BF90AF909F908F907F906F905F90FD
:100BC0004F903F902F900C946C0228960FB6F8949B
:100BD000DEBF0FBECDBFDF91CF911F910F91FF9070
:100BE000EF90DF90CF90BF90AF909F908F907F90CD
:100BF0006F905F904F903F902F9008954F925F922B
:100C00006F927F928F929F92AF92BF92CF92DF921C
:100C1000EF92FF926C0180E497E00E94531A82E405
:100C200097E00E94531A46010D2C000CAA08BB083D
:100C300026E9C21A25E0D20A0D2C000CEE08FF08A6
:100C400084E6482E512C612C712C80E497E00E94A0
:100C50007E1A9B01AC0188279927DC01821B930B2C
:100C6000A40BB50B88159905AA05BB050CF054C05B
:100C700080E497E00E947E1A9B01AC0188279927A7
:100C8000DC01821B930BA40BB50B86399540A105A3
:100C9000B10564F480E497E00E947E1A90958095F7
:100CA000709561957F4F8F4F9F4F1AC080E497E0FA
:100CB0000E947E1A9B01AC0188279927DC01821BC8
:100CC000930BA40BB50BC816D906EA06FB06ECF489
:100CD00080E497E00E947E1A680D791D8A1D9B1D95
:100CE000A30192010E940D21CA01B9010E94F01FC7
:100CF00029E23CE54FE05DE30E944F202DEC3CEC07
:100D00004CEC5DE30E94742104C06AE979E989E151
:100D10009FE30E94840C99CF40E050E0BA018CE33D
:100D200097E00E948B1840E050E060E070E88EE3AE
:100D300097E00E948B1880E497E00E94531A82E4A7
:100D400097E00E94531A64E670E080E090E0FF9024
:100D5000EF90DF90CF90BF90AF909F908F907F905B
:100D60006F905F904F900C9474102F923F924F921F
:100D70005F926F927F928F929F92AF92BF92CF922B
:100D8000DF92EF92FF920F931F93CF93DF9300D0E8
:100D900000D0CDB7DEB79E838D83212C312C02E0AD
:100DA00010E08D819E81019709F054C285E792E0A1
:100DB0000E942D0C61E08EE20E94E90F0E945913FF
:100DC0008091EC079091ED07019709F033C20E94E2
:100DD000E40289E090E00E947D0220E030E048ECEF
:100DE00051E40E94E91F87FF7BC00E94CD020E9450
:100DF000E40280E090E00E941B040E94CD020E9469
:100E0000E40280ED97E00E94FE050E94E4020E9449
:100E10006C020E94960D0E94E40284E991E10E9416
:100E2000FE050E94E4020E946C0288E090E00E94AD
:100E30007D024B015C0188E090E00E947D026B0125
:100E40007C0120E030E040E751E4C501B4010E949C
:100E500074219B01AC01C701B6010E94E91F87FF05
:100E600011C04DEC5CEC6CE47EE38CE397E00E94F7
:100E70008B184DEC5CEC6CE47EEB8EE397E00E940B
:100E80008B18D9CF0E946C020E94E40280ED97E09B
:100E90000E94FE050E94E4020E946C020E94960DD0
:100EA0000E946C0281E090E00E941B040E946C0290
:100EB0004DEC5CEC6CE47EE38CE397E00E948B18D5
:100EC0004DEC5CEC6CE47EEB8EE397E00E948B18BB
:100ED0000E946C02E3E0F0E0F0936103E0936003B2
:100EE00080E00E9455105C0181E00E9455102C01A9
:100EF00082E00E9455109C838B8383E00E945510F2
:100F00007C0184E00E9455106C0185E00E94551020
:100F10009A83898386E00E9455104C0187E00E94E5
:100F200055103C0140E050E060E87EE38CE397E040
:100F30000E948B1840E050E060E87EEB8EE397E083
:100F40000E948B1888E892E00E943613C7010E9425
:100F50002B140E94290C8EE892E00E943613C601E1
:100F60000E942B140E94290C84E992E00E943613FF
:100F700089819A810E942B140E94290C8AE992E0AF
:100F80000E943613C4010E942B140E94290C0E9457
:100F9000290CF9E5AF16F2E0BF064CF128E5E216A0
:100FA00022E0F20624F588E5C81682E0D806FCF4B3
:100FB00099E5691692E07906D4F040E050E0BA0174
:100FC0008CE397E00E948B1840E050E060E070E80E
:100FD0008EE397E00E948B1848EC50E068EE73E0D7
:100FE00081E090E00E943302E0E0F0E019958B810F
:100FF0009C81893592400CF445C0F9E5EF16F2E08A
:10100000FF060CF4E9C229E5C21622E0D2060CF470
:101010003FC089819A8189359240D4F1F9E58F16D4
:10102000F2E09F06ACF18091600390916103039719
:1010300079F54DEC5CEC6CE47EE38CE397E00E9488
:101040008B184DEC5CEC6CE47EEB8EE397E00E9439
:101050008B1866E970E080E090E00E9474104DEC1F
:101060005CEC6CE47EE38EE397E00E948B1862EE0A
:1010700074E080E090E00E9474101092610310927E
:10108000600306C029E5E21622E0F2060CF4A4C2D1
:1010900089E5C81682E0D806DCF1E981FA81E935F4
:1010A000F240B4F189E5881682E098068CF198E563
:1010B000A91692E0B90664F58091600390916103EE
:1010C000039709F482C24DEC5CEC6CE47EE38CE3A4
:1010D00097E00E948B184DEC5CEC6CE47EEB8EE3A9
:1010E00097E00E948B1866E970E080E090E00E9433
:1010F00074104DEC5CEC6CE47EEB8CE397E00E94AA
:101100008B1868EE73E080E090E00E9474105DC27E
:10111000E9E5AE16E2E0BE060CF446C0F9E54F166E
:10112000F2E05F060CF440C08B819C8189359240CF
:10113000DCF1F9E5EF16F2E0FF060CF453C229E505
:10114000C21622E0D206B4F188E5681682E078067D
:101150008CF58091600390916103039759F14DECF8
:101160005CEC6CE47EE38CE397E00E948B184DEC22
:101170005CEC6CE47EEB8EE397E00E948B1866E9F2
:1011800070E080E090E00E9474104DEC5CEC6CE448
:101190007EE38EE397E00E948B1868EE73E080E0B8
:1011A00090E00E94741006C099E5E91692E0F906F5
:1011B0000CF418C2E9E5CE16E2E0DE060CF458C2E3
:1011C00040E050E060E87EE38CE397E00E948B18FB
:1011D00040E050E060E87EEB8EE397E00E948B18E1
:1011E000F9E58F16F2E09F0634F081E090E09093ED
:1011F00061038093600399E5691692E0790634F003
:10120000E1E0F0E0F0936103E0936003F9E54F164D
:10121000F2E05F0624F0109361030093600329E578
:10122000A21622E0B2060CF423C2109361030093CD
:1012300060031EC240E050E0BA018CE397E00E94D8
:101240008B1840E050E060E070E88EE397E00E9489
:101250008B1867C18D819E81029709F062C18AEA6D
:1012600092E00E942D0C8091EC079091ED07019780
:1012700009F050C189E090E00E947D0220E030E05A
:1012800040EA51E40E94E91F87FF20C00E945913E1
:101290008091E4079091E5078E3B9105BCF040E01A
:1012A00050E0BA018CE397E00E948B1840E050E0D8
:1012B00060E070E88EE397E00E948B1846E950E00A
:1012C0006EEE72E082E090E00E9433028DEB92E0DD
:1012D0000E94361380910002909101020E942B140B
:1012E00086EC92E00E94361389EC92E00E9436135D
:1012F00080916203909163030E942B1486EC92E02C
:101300000E9436138091E2079091E307AC014D53A0
:1013100051092091E4073091E5074138510508F063
:101320008AC0A9014D5351094138510508F083C0C5
:1013300085ED92E00E942D0C8091000290910102B7
:10134000892B09F064C0E0906203F0906303B70159
:101350000F2C000C880B990B0E94F01F2DEC3CEC1D
:101360004CEC5EE30E944F204B015C0191E0E916DA
:10137000F104F1F420E030E0A901C501B4010E94BC
:10138000CF221816C4F42DEC3CEC4CEC5DE3C50107
:10139000B4010E9473214B015C019B01AC010E94CE
:1013A0001C0264E670E080E090E00E947410E2CFDE
:1013B000EF20E09471F020E030E0A901CA01B9010A
:1013C0000E941C02E1E0F0E0F0930102E0930002D1
:1013D0001EC020E030E0A901C501B4010E94E91F50
:1013E00087FFE9CF2DEC3CEC4CEC5DE3C501B4018B
:1013F0000E9474214B015C019B01AC010E941C0204
:1014000064E670E080E090E00E947410E2CF80918A
:10141000000290910102029739F420E030E0A90126
:10142000CA01B9010E941C0281E090E09093010280
:101430008093000276C02E3B3105BCF02DEC3CECD5
:101440004CEC5EE3CA01B9010E941C02E1E0F0E04D
:10145000F0936303E0936203109201021092000282
:101460008BED92E00E942D0C5CC02D3331059CF475
:101470008AEE92E00E942D0C8FEF9FEF9093630312
:101480008093620310920102109200022DEC3CEC5A
:101490004CEC5EEB42C08E3B9105E4F082E093E0C1
:1014A0000E942D0C109301020093000260916203D0
:1014B00070916303072E000C880B990B0E94F01F9C
:1014C0002AE939E949E95EE30E944F2020E030E053
:1014D000A90125C0CD972CF588E193E00E942D0C41
:1014E0001093010200930002609162037091630304
:1014F000072E000C880B990B0E94F01F2AE939E98E
:1015000049E95EE30E944F209B01AC0160E070E07E
:10151000CB0105C020E030E0A901CA01B9010E9459
:101520001C020E94591364E670E080E090E00E9483
:1015300074108091EE079091EF078130910521F4AE
:101540009FEF291A390A04C0892B11F4212C312C60
:101550008DE293E00E943613C1010E942B140E9479
:10156000290CEBE02E1631040CF41BCC40E050E0CB
:10157000BA018CE397E00E948B1840E050E060E0F5
:1015800070E88EE397E00E948B1844E650E064E632
:1015900070E08AE090E026960FB6F894DEBF0FBEAA
:1015A000CDBFDF91CF911F910F91FF90EF90DF9012
:1015B000CF90BF90AF909F908F907F906F905F90F3
:1015C0004F903F902F900C943302F9E5EF16F2E024
:1015D000FF060CF0F5CDFCC0E9E5AE16E2E0BE0674
:1015E0000CF09CCD28E5E21622E0F2060CF099CF33
:1015F000F9E5CF16F2E0DF060CF47AC04DEC5CECB6
:101600006CE47EEB8EE397E00E948B184DEC5CEC73
:101610006CEC7DE38CE397E00E948B1829E5821641
:1016200022E0920634F081E090E090936103809391
:10163000600399E5691692E0790634F0E1E0F0E0A4
:10164000F0936103E0936003F9E54F16F2E05F0663
:1016500024F0109361030093600329E5A21622E0B1
:10166000B2060CF445C0109361030093600340C0C0
:1016700088E5C81682E0D8060CF053CF4DEC5CEC40
:101680006CE47EE38CE397E00E948B184DEC5CECFD
:101690006CEC7DEB8EE397E00E948B1889E5881651
:1016A00082E0980634F0E1E0F0E0F0936103E0932B
:1016B0006003F9E56F16F2E07F0634F081E090E018
:1016C000909361038093600399E5491692E059066F
:1016D00024F01093610300936003E9E5AE16E2E0A5
:1016E000BE060CF41ECF109361030093600319CF64
:1016F00098E5C91692E0D9060CF013CF89819A813A
:101700008935924034F081E090E0909361038093BA
:10171000600399E5891692E0990634F0E1E0F0E083
:10172000F0936103E09360038B819C818935924043
:1017300024F01093610300936003F9E54F16F2E083
:101740005F0624F0109361030093600380EA92E047
:101750000E94361380916003909161030E942B14C4
:101760000E94290C80916003909161038130910562
:1017700069F44DEC5CEC6CE47EEB8EE397E00E9448
:101780008B184DEC5CEC6CE47EEB1FC08230910555
:1017900069F44DEC5CEC6CE47EE38CE397E00E9432
:1017A0008B184DEC5CEC6CE47EE34FCD039709F0B5
:1017B000B8CE4DEC5CEC6CE47EEB8EE397E00E94DF
:1017C0008B184DEC5CEC6CE47EE38CE397E03FCD52
:1017D000F8E5EF16F2E0FF0609F010CFA2CEEEEA30
:1017E000F4E0A089B18982E08C93A485B5851C9230
:1017F000A685B7858FEC8C93108EA489B58986E079
:101800008C93A289B3898C9180618C93A289B389CE
:101810008C9188608C93A289B3898C9180688C9319
:101820000288F389E02D80818F7D80830895009761
:1018300069F0FC0101900020E9F73197AF01481BE6
:10184000590BBC018EEA94E00C94A10E80E090E06C
:10185000089585E393E00C94170CCF93DF930E94D7
:10186000170CEC010E94290C8C0F9D1FDF91CF916A
:101870000895EF92FF921F93CF93DF931F92CDB7FE
:10188000DEB7162F93E2E92E97E0F92ED7011C96CA
:101890009C911C9721E0209367039093660310921C
:1018A0006503109264031A960D90BC91A02DED91E2
:1018B000FC9111970190F081E02D682FCD01798383
:1018C0001995F70182859385DC01ED91FC910190DA
:1018D000F081E02D7981672F1995F7018285938535
:1018E000DC01ED91FC910190F081E02D612F1995C3
:1018F00061E0F701828593850F90DF91CF911F9171
:10190000FF90EF900C94370F4F925F926F927F92FF
:101910008F929F92AF92BF92CF92DF92EF92FF92FF
:10192000CF93DF9300D01F92CDB7DEB76B017C0160
:1019300080E497E00E947E1A90958095709561955D
:101940007F4F8F4F9F4F0E94F01F2B013C016093F0
:10195000620770936307809364079093650782E43E
:1019600097E00E947E1A0E94F01F69837A838B831E
:101970009C8360935E0770935F07809360079093EA
:1019800061079B01AC01C301B2010E9473214B01AD
:101990005C0160935A0770935B0780935C07909398
:1019A0005D0720E030E040EA50E40E94E91F87FD37
:1019B00026C020E030E040E251E4C501B4010E94BD
:1019C000E91F87FD25C020E030E040E751E4C50174
:1019D000B4010E94E91F87FD23C020E030E040EA07
:1019E00051E4C501B4010E94E91F87FD22C04AE904
:1019F000842E49E9942EA92C4EE3B42E22C03DEC4E
:101A0000832E3CEC932E3CE4A32E3DE3B32E19C071
:101A10002DEC822E2CEC922EA92C2DE3B22E11C08F
:101A20009AE9892E99E9992E99E1A92E9EE3B92E7A
:101A300008C08DEC882E8CEC982E8CE4A82E8EE3BA
:101A4000B82E29813A814B815C81C301B2010E9489
:101A5000CF221816ECF4A501940160E070E080E854
:101A60009FE30E9473219B01AC01C701B6010E9454
:101A70004F20AB01BC018CE397E00E948B1820E063
:101A800030E040E85FE3C501B4010E94742126C044
:101A900029813A814B815C81C301B2010E94E91F17
:101AA00087FF25C020E030E040E85FE3C501B401D6
:101AB0000E9474219B01AC01C701B6010E944F2016
:101AC000AB01BC018CE397E00E948B18A501940147
:101AD00060E070E080E89FE30E9473219B01AC010D
:101AE000C701B6010E944F20AB01BC0108C0B7017D
:101AF000A6018CE397E00E948B18B701A6017058ED
:101B00008EE397E00F900F900F900F90DF91CF91A1
:101B1000FF90EF90DF90CF90BF90AF909F908F900D
:101B20007F906F905F904F900C948B188F929F9244
:101B3000AF92BF92CF92DF92EF92FF9280E497E054
:101B40000E94531A82E497E00E94531A4DEC5CEC19
:101B50006CEC7EEB8EE397E00E948B184DEC5CEC16
:101B60006CEC7EEB8CE397E00E948B1880E497E0AE
:101B70000E947E1A90958095709561957F4F8F4F4A
:101B80009F4F0E94F01F2FE031ED40E85FE30E947D
:101B90004F200E9452226B017C0182E497E00E9458
:101BA0007E1A072E000C880B990B0E94F01F4B0128
:101BB0005C0120E030E44BEF54E40E94CF22181681
:101BC0003CF440E050E0BA018CE397E00E948B18AF
:101BD000B6010D2C000C880B990B0E94F01F20E021
:101BE00030E44BEF54E40E94CF22181644F440E056
:101BF00050E060E070E88EE397E00E948B186AE0A6
:101C000070E080E090E00E94741020E030E44BEF40
:101C100054E4C501B4010E94E91F87FD97CF6627F0
:101C200077276C197D09072E000C880B990B0E94F1
:101C3000F01F20E030E44BEF54E40E94E91F87FDE1
:101C400085CF40E050E0BA018CE397E00E948B180A
:101C500040E050E060E070E88EE397E00E948B186F
:101C600080E497E00E94531A82E497E00E94531A9E
:101C700064E670E080E090E0FF90EF90DF90CF901E
:101C8000BF90AF909F908F900C947410E091AE0431
:101C9000F091AF040190F081E02D682F8EEA94E07E
:101CA0001994E091C1078091C007E81730F4F0E083
:101CB000EE53F84F808190E008958FEF9FEF0895E5
:101CC0009091C1078091C007981750F4E92FF0E078
:101CD000EE53F84F208130E09F5F9093C10702C020
:101CE0002FEF3FEFC90108958091C00790E0209148
:101CF000C107821B910908953FB7F8948091750739
:101D000090917607A0917707B091780726B5A89BA8
:101D100005C02F3F19F00196A11DB11D3FBFBA2F7D
:101D2000A92F982F8827820F911DA11DB11DBC01DD
:101D3000CD0142E0660F771F881F991F4A95D1F7A2
:101D40000895CF92DF92EF92FF920F931F93CF935C
:101D5000DF936C017A018B01C0E0D0E0CE15DF0586
:101D600089F0D8016D918D01D601ED91FC91019022
:101D7000F081E02DC6011995892B11F47E0102C076
:101D80002196ECCFC701DF91CF911F910F91FF906A
:101D9000EF90DF90CF900895CF92DF92EF92FF9275
:101DA0000F931F93CF93DF937C01262F972F8A01E8
:101DB00080916703882391F0C62FD72F6E01C40E40
:101DC000D51ECC15DD0571F06991D701ED91FC911F
:101DD0000190F081E02DC7011995F3CF642F822F78
:101DE0000E949515C801DF91CF911F910F91FF902F
:101DF000EF90DF90CF900895CF93DF931F92CDB7F0
:101E0000DEB76983209167032223D1F02091640318
:101E1000203240F021E030E0FC013383228380E077
:101E200090E015C080916503E82FF0E0E758F84F87
:101E3000998190838F5F809365038093640305C0CD
:101E400061E0CE0101960E94951581E090E00F902F
:101E5000DF91CF9108950E949A2684E793E00E9433
:101E60000C1621E0892B09F420E0822F089520919F
:101E7000640390916603213208F049C08091BF0746
:101E80008111FCCF32E03093BF076093BE073FEF74
:101E90003093BD071092BC072093BB07A9E7B7E0BA
:101EA00049E957E0FA013E2F341B321718F43D91EF
:101EB0003193F9CF1092BA072091BA07990F922B5C
:101EC0009093BA079091B907913061F41092B907D5
:101ED0009091BA079093BB009091BC0093FDF8CF0E
:101EE00095EC01C095EE9093BC009091BF079230A5
:101EF000E1F39091BD079F3F79F08091BD0780325B
:101F000041F08091BD07803331F084E005C081E06D
:101F100003C082E001C083E0109265031092640365
:101F200010926703089590E0FC013197E231F105CA
:101F300008F04EC08827EE58FF4F8F4F0C945A215F
:101F4000809180008F7703C0809180008F7D809387
:101F50008000089580918000877FF9CF84B58F77C6
:101F600002C084B58F7D84BD08958091B0008F77C5
:101F700003C08091B0008F7D8093B0000895809160
:101F800090008F7707C0809190008F7D03C0809173
:101F90009000877F8093900008958091A0008F77B4
:101FA00007C08091A0008F7D03C08091A000877F33
:101FB0008093A0000895809120018F7707C08091C1
:101FC00020018F7D03C080912001877F80932001B5
:101FD00008951F93CF93DF93282F30E0F901E9593B
:101FE000FC4F8491F901EF5DFC4FD491F901E5526A
:101FF000FD4FC491CC23C9F0162F81110E94930F7D
:10200000EC2FF0E0EE0FFF1FEF53FD4FA591B491C1
:102010008FB7F894111105C09C91ED2FE095E9233D
:1020200002C0EC91ED2BEC938FBFDF91CF911F910C
:102030000895CF93DF9390E0FC01EF5DFC4F249176
:10204000FC01E552FD4F8491882361F190E0880FF7
:10205000991FFC01E955FD4FC591D491FC01EF5347
:10206000FD4FA591B491611109C09FB7F894888183
:10207000209582238883EC912E230BC0623061F47B
:102080009FB7F8943881822F809583238883EC91C1
:102090002E2B2C939FBF06C08FB7F894E8812E2B70
:1020A00028838FBFDF91CF910895863308F0865340
:1020B00090917B00282F2870977F922B90937B0024
:1020C0008770806480937C0080917A008064809324
:1020D0007A0080917A0086FDFCCF80917800209173
:1020E000790090E0922B08958F929F92AF92BF92C9
:1020F000CF92DF92EF92FF926B017C010E947C0EE7
:102100004B015C01C114D104E104F104F1F00E941F
:102110007C0EDC01CB0188199909AA09BB09883E0C
:102120009340A105B10570F321E0C21AD108E1087E
:10213000F10888EE880E83E0981EA11CB11CC11422
:10214000D104E104F10419F7DDCFFF90EF90DF90A7
:10215000CF90BF90AF909F908F9008951F920F9255
:102160000FB60F9211242F933F938F939F93AF93AA
:10217000BF938091710790917207A0917307B091FE
:1021800074073091700723E0230F2D3720F4019658
:10219000A11DB11D05C026E8230F0296A11DB11D8A
:1021A000209370078093710790937207A093730731
:1021B000B09374078091750790917607A091770787
:1021C000B09178070196A11DB11D8093750790937A
:1021D0007607A0937707B0937807BF91AF919F914F
:1021E0008F913F912F910F900FBE0F901F901895D8
:1021F0001F920F920FB60F9211240BB60F922F93CE
:102200003F934F935F936F937F938F939F93AF937E
:10221000BF93EF93FF938091690790916A07A09114
:102220006B07B0916C07892B8A2B8B2B59F180910E
:102230006807E0916607F09167079081892780839E
:102240008091690790916A07A0916B07B0916C0724
:10225000181619061A061B060CF056C0809169075D
:1022600090916A07A0916B07B0916C070197A10943
:10227000B1098093690790936A07A0936B07B093A5
:102280006C0742C080910202E6EAF2E0E4919FEF1F
:1022900090930202E230C9F050F4EE2399F0E1305D
:1022A00081F590916F009D7F90936F002AC0E4307C
:1022B00019F1E0F0E53029F5909173009D7F90933E
:1022C00073001FC010926E001CC0909170009D7F23
:1022D0009093700091E09093B0009091B100987F3E
:1022E00094609093B1001092B3000BC09091710074
:1022F0009D7F9093710005C0909172009D7F909397
:10230000720060E00E94E90FFF91EF91BF91AF91E1
:102310009F918F917F916F915F914F913F912F91FD
:102320000F900BBE0F900FBE0F901F9018951F922D
:102330000F920FB60F9211240BB60F922F933F936B
:102340004F935F936F937F938F939F93AF93BF93BD
:10235000EF93FF9384E793E00E94C616FF91EF91FD
:10236000BF91AF919F918F917F916F915F914F91AD
:102370003F912F910F900BBE0F900FBE0F901F90AB
:1023800018951F920F920FB60F9211240BB60F9251
:102390002F933F934F935F936F937F938F939F936D
:1023A000AF93BF93EF93FF9384E793E00E94591696
:1023B000FF91EF91BF91AF919F918F917F916F911D
:1023C0005F914F913F912F910F900BBE0F900FBED9
:1023D0000F901F90189585ED8093BC008091BC00F4
:1023E00084FDFCCF1092BF07089508958F929F92AD
:1023F000AF92BF920F931F93CF93DF93CDB7DEB70A
:10240000A1970FB6F894DEBF0FBECDBF19A2423020
:1024100008F44AE08E010F5D1F4F842E912CA12CF1
:10242000B12CA50194010E942C21E62FB901CA010B
:1024300001501109EA3014F4E05D01C0E95CD801F3
:10244000EC93232B242B252B61F7C8010E94170C3A
:10245000A1960FB6F894DEBF0FBECDBFDF91CF912E
:102460001F910F91BF90AF909F908F9008954F92C2
:102470005F926F927F928F929F92AF92BF92CF9214
:10248000DF92EF92FF926B017C01B42E9B01AC01B5
:102490000E946A23882319F083E593E027C0260170
:1024A0003701E89477F82FEF3FEF4FE75FE7C3017D
:1024B000B2010E946A2381110DC02FEF3FEF4FE759
:1024C0005FE7C301B2010E94E91F18161CF487E5FB
:1024D00093E00CC02FEF3FEF4FE75FE4C701B60179
:1024E0000E94CF22181684F48BE593E0FF90EF90C2
:1024F000DF90CF90BF90AF909F908F907F906F9024
:102500005F904F900C94170C2FEF3FEF4FE75FEC6D
:10251000C701B6010E94E91F87FDE6CF20E030E049
:10252000A901C701B6010E94E91F87FF09C08DE21A
:102530000E94460E4C01F7FAF094F7F8F09402C0AE
:10254000812C912CA12C60E070E080E09FE3AB1423
:1025500041F020E030E040E251E40E94E021A39409
:10256000F6CF9B01AC01C701B6010E9474212B017B
:102570003C010E9459226B017C010E94EE1F9B01CD
:10258000AC01C301B2010E9473212B013C014AE05E
:10259000C701B6010E94F6117C01E80CF91CBB20B2
:1025A00029F08EE20E94460EE80EF91EDB2CDD209B
:1025B00021F120E030E040E251E4C301B2010E9489
:1025C0004F202B013C010E9459224B01A12CB12C20
:1025D0004AE0C501B4010E94F611E80EF91EC501DA
:1025E000B4010E94EE1F9B01AC01C301B2010E9425
:1025F00073212B013C01DA94DACFC701FF90EF90F1
:10260000DF90CF90BF90AF909F908F907F906F9012
:102610005F904F900895CF92DF92EF92FF92CF9309
:10262000DF936B017C0197FF12C08DE20E94460E82
:10263000EC0166277727CB016C197D098E099F096C
:102640004AE00E94F6117C01EC0EFD1E04C04AE037
:102650000E94F6117C010E94290C8E0D9F1DDF91B6
:10266000CF91FF90EF90DF90CF9008950C94170CCE
:10267000CF93C82F81E08093670382E58093660340
:10268000109265031092640388E693E00E94FC0EAA
:102690006C2F88E693E00E94FC0E61E088E693E0F0
:1026A0000E94370F6AE070E080E090E0CF910C94D8
:1026B0007410EF92FF921F93CF93DF93CDB7DEB7E5
:1026C0002C970FB6F894DEBF0FBECDBF8091BF0729
:1026D0008111FCCF81E08093BF078093BE079FEFFD
:1026E0009093BD071092BC0795E09093BB07809331
:1026F000BA078091BA07846A8093BA078091B907B4
:10270000813061F41092B9078091BA078093BB00C1
:102710008091BC0083FDF8CF85EC01C085EE8093ED
:10272000BC008091BF078130E1F38091BC07863007
:1027300018F41091BC0701C016E0A9E9B7E022EC3B
:1027400037E0F9018E2F821B811718F48D91819348
:10275000F9CF1092C1071093C007CE0101967C01FA
:102760008091C107181749F088E693E00E94600E37
:10277000F701819391937F01F3CF89819A8190939F
:10278000E3078093E2078B819C819093E507809318
:10279000E4078B859C859C01359527953595279574
:1027A000A901437055272D813E81220F331F220F2F
:1027B000331F242B352B3093E7072093E6079C012A
:1027C00074E0359527957A95E1F7A901437055276F
:1027D0002F813885220F331F220F331F242B352BD7
:1027E0003093E9072093E8079C01F6E0359527959B
:1027F000FA95E1F7A9014370552729853A85220FFB
:10280000331F220F331F242B352B3093EB072093DC
:10281000EA079C0121703327F1E02F273093ED0761
:102820002093EC0721E030E081FF02C020E030E09F
:102830003093EF072093EE0760E080E02C960FB610
:10284000F894DEBF0FBECDBFDF91CF911F91FF90F7
:10285000EF900C943813CF92DF92EF92FF92CF93C8
:10286000DF936C01990FEE08FF08F7FE17C08DE2A9
:102870000E94460EEC0166277727CB016C197D0973
:102880008E099F094AE00E94F6118C0F9D1FDF916F
:10289000CF91FF90EF90DF90CF9008954AE0C7016D
:1028A000B601DF91CF91FF90EF90DF90CF900C9425
:1028B000F6111F920F920FB60F9211240F900FBEB8
:1028C0000F901F9018951F920F920FB60F92112420
:1028D0000BB60F922F933F934F935F936F937F931A
:1028E0008F939F93AF93BF93EF93FF938091B90022
:1028F000887F803609F49CC068F5883209F45BC093
:1029000090F4803109F454C038F4882309F4F6C0F7
:10291000883009F44DC0F6C0883109F44CC08032CB
:1029200009F45DC0EFC0803409F468C048F4803316
:1029300009F455C0883309F0E5C08093BD07D8C0BD
:10294000803509F44FC0883509F45DC0883409F03A
:10295000D9C0D6C0883909F4C7C0A8F4883709F4AB
:1029600067C038F4883609F463C0803709F460C062
:10297000C9C0883809F4B8C0803909F45FC080380C
:1029800009F0C0C05BC0803B09F486C038F4803ACF
:1029900009F466C0883A09F47FC0B4C0803C09F4E9
:1029A000A7C0883C09F4A4C0883B09F48AC0AAC027
:1029B0008091BA0710C09091BC078091BB0798170F
:1029C00070F5E091BC0781E08E0F8093BC07F0E0CA
:1029D000E756F84F80818093BB0085EC86C08093DA
:1029E000BD078EC0E091BC0781E08E0F8093BC07CD
:1029F0008091BB00F0E0E756F84F80839091BC07D0
:102A00008091BB076EC0E091BC0781E08E0F809380
:102A1000BC078091BB00F0E0E756F84F80838091BF
:102A2000BE0781116DC081E08093B90784EA61C05F
:102A300083E08093BF0710923608CFCF809136088D
:102A4000803208F051C0E091360881E08E0F80930B
:102A500036088091BB00F0E0EA5EF74F8083BDCF7F
:102A600085EC8093BC001092BF07809136088032BD
:102A700030F4E0913608F0E0EA5EF74F10826091A2
:102A8000360870E0E0911408F091150886E198E0AE
:102A900019951092360836C084E08093BF071092D3
:102AA000130810921208E0911008F091110819957E
:102AB00080911208811105C081E080931208109264
:102AC000F007E091130881E08E0F80931308F0E087
:102AD000E051F84F80818093BB0090911308809162
:102AE0001208981708F479CF85E88093BC000AC0D3
:102AF00085EC8093BC001092BF0704C01092BD0704
:102B00000E94EB11FF91EF91BF91AF919F918F9137
:102B10007F916F915F914F913F912F910F900BBEDD
:102B20000F900FBE0F901F90189540911208262FFE
:102B300030E0240F311D21323105DCF42091BF0734
:102B40002430C9F4FC0180E090E0861758F43091FD
:102B500012082191DC01A051B84FA30FB11D2C9395
:102B60000196F3CF80911208680F6093120880E0FD
:102B7000089581E0089582E008951092BF0781E0F2
:102B80008093BE071092B90761E084E10E94E90FCB
:102B900061E085E10E94E90FE9EBF0E080818E7F42
:102BA000808380818D7F808388E48093B80085E472
:102BB0008093BC000895FC01538D448D252F30E097
:102BC000842F90E0821B930B541710F0CF9608953A
:102BD00001970895FC01918D828D981761F0828D87
:102BE000DF01A80FB11D5D968C91928D9F5F9F7341
:102BF000928F90E008958FEF9FEF0895FC01918DE3
:102C0000828D981731F0828DE80FF11D858D90E04F
:102C100008958FEF9FEF0895FC01918D228D892FEC
:102C200090E0805C9F4F821B91098F7399270895D4
:102C300081E194E00E940C1621E0892B09F420E048
:102C4000822F08958EEA94E00E940C1621E0892BD1
:102C500009F420E0822F089580E090E0892B21F094
:102C60000E942216811119C080E090E0892B41F06A
:102C700080E090E0892B21F00E940000811110C0BB
:102C80000E94181681110FC080E090E0892B81F01E
:102C90000E942D0F81110AC008950E940000E4CF08
:102CA0000E940000EDCF0E941902EECF0C940000AC
:102CB0000895FC01A089B1898C91A689B78982FD0C
:102CC0000FC09C91818D8F5F8F73228D821749F089
:102CD000218DDF01A20FB11D5D969C93818F089518
:102CE0008C9108951F920F920FB60F9211240BB67C
:102CF0000F922F933F934F935F936F937F938F9395
:102D00009F93AF93BF93EF93FF9381E194E00E9471
:102D10005916FF91EF91BF91AF919F918F917F9144
:102D20006F915F914F913F912F910F900BBE0F903C
:102D30000FBE0F901F9018951F920F920FB60F9213
:102D400011240BB60F922F933F934F935F936F9382
:102D50007F938F939F93AF93BF93EF93FF938EEAED
:102D600094E00E945916FF91EF91BF91AF919F910E
:102D70008F917F916F915F914F913F912F910F9024
:102D80000BBE0F900FBE0F901F901895FC01848D05
:102D9000DF01A80FB11DA35ABF4F2C91848D90E085
:102DA00001968F739927848FA689B7892C93A08960
:102DB000B1898C9180648C93938D848D981306C017
:102DC0000288F389E02D80818F7D808308951F9292
:102DD0000F920FB60F9211240BB60F922F933F93C1
:102DE0004F935F936F937F938F939F93AF93BF9313
:102DF000EF93FF9381E194E00E94C616FF91EF915B
:102E0000BF91AF919F918F917F916F915F914F9102
:102E10003F912F910F900BBE0F900FBE0F901F9000
:102E200018951F920F920FB60F9211240BB60F92A6
:102E30002F933F934F935F936F937F938F939F93C2
:102E4000AF93BF93EF93FF938EEA94E00E94C61670
:102E5000FF91EF91BF91AF919F918F917F916F9172
:102E60005F914F913F912F910F900BBE0F900FBE2E
:102E70000F901F901895EF92FF920F931F93CF938F
:102E8000DF93EC0181E0888F9B8D8C8D981305C0BA
:102E9000E889F989808185FD24C0F62E0B8D10E02C
:102EA0000F5F1F4F0F731127E02E8C8DE8120CC09F
:102EB0000FB607FCFACFE889F989808185FFF5CF45
:102EC000CE010E94C616F1CF8B8DFE01E80FF11DD9
:102ED000E35AFF4FF0820B8FEA89FB898081806281
:102EE00007C0EE89FF896083E889F9898081806461
:102EF000808381E090E0DF91CF911F910F91FF904F
:102F0000EF900895CF93DF93EC01888D8823C9F06B
:102F1000EA89FB89808185FD05C0A889B9898C91E2
:102F200086FD0FC00FB607FCF5CF808185FFF2CF7D
:102F3000A889B9898C9185FFEDCFCE010E94C61674
:102F4000E7CFDF91CF9108951F920F920FB60F92A6
:102F500011240BB60F922F933F934F935F936F9370
:102F60007F938F939F93AF93BF93CF93DF93EF9311
:102F7000FF9320914C0530E0F901E959FC4F849111
:102F8000F901EF5DFC4FD491F901E552FD4FC49179
:102F9000CC23A1F081110E94930FEC2FF0E0EE0FF3
:102FA000FF1FE355FC4FA591B491EC91ED2331E067
:102FB00020E009F430E0832F922F02C080E090E0FF
:102FC00020915005309151052F5F3F4F30935105AF
:102FD0002093500520914F05253618F026E02093C8
:102FE0004B0520914B052430D9F128F4223069F0AB
:102FF0002330D9F060C0253009F453C0263009F0E1
:103000005AC021E020931C0653C0009709F053C01A
:1030100020915005309151052436310508F443C004
:1030200010921C0610924F051DC08130910509F0C9
:1030300042C0E0914F0521E02E0F20934F05F0E0B4
:103040002091500530915105EE0FFF1FE55BFA4FBF
:1030500030872783109251051092500524E029C033
:103060000097B9F4E0914F0521E02E0F20934F0512
:10307000F0E02091500530915105EE0FFF1FE55B08
:10308000FA4F30872783109251051092500523E0A4
:1030900010C020915005309151052536310558F06A
:1030A00007C0009741F4109251051092500503C0DB
:1030B00025E020934B0520914E052223B9F0892B62
:1030C00051F480914D05882321F080914D0561E0F8
:1030D00009C02F9A0BC080914D05882331F0809153
:1030E0004D0560E00E94E90F01C02F98FF91EF911C
:1030F000DF91CF91BF91AF919F918F917F916F9110
:103100005F914F913F912F910F900BBE0F900FBE8B
:103110000F901F9018958F929F92AF92BF92CF926F
:10312000DF92EF92FF920F931F93CF93DF93EC0107
:103130006A017B0120E030E04FE753E4C701B601AC
:103140000E944F204B015C0120E030E0A9010E9469
:10315000CF2218161CF4C501B40103C0C501B40187
:1031600090580E9452228B0120E030E0A901C70153
:10317000B6010E94CF22181614F460E001C061E08D
:1031800089810E94E90F0F3F110509F014F41127FE
:1031900002C00FEF10E0C88161E08C2F0E9419106F
:1031A0000115110509F4B1C00F3F110509F4AFC0B5
:1031B000EC2FF0E0E959FC4FE4914E2F50E0FA017A
:1031C0003197E231F10508F09DC08827EC57FF4F99
:1031D0008F4F0C945A2184B5806884BD07BDA7C069
:1031E00084B5806284BD08BDA2C0809180008068E3
:1031F00080938000109389000093880098C080918C
:10320000800080628093800010938B0000938A007E
:103210008EC08091800088608093800010938D0024
:1032200000938C0084C08091B00080688093B000CF
:103230000093B3007CC08091B00080628093B000A6
:103240000093B40074C080919000806880939000D7
:1032500010939900009398006AC08091900080625A
:103260008093900010939B0000939A0060C080911F
:10327000900088608093900010939D0000939C00C4
:1032800056C08091A00080688093A0008091A0002B
:103290008F7B8093A0001093A9000093A80047C0E3
:1032A0008091A00080628093A0001093AB000093F7
:1032B000AA003DC08091A00088608093A000109378
:1032C000AD000093AC0033C08091200180688093F2
:1032D0002001109329010093280129C08091200129
:1032E00080628093200110932B0100932A011FC05C
:1032F0008091200188608093200110932D0100931C
:103300002C0115C00038110514F460E001C061E023
:103310008C2FDF91CF911F910F91FF90EF90DF9055
:10332000CF90BF90AF909F908F900C94E90FDF915A
:10333000CF911F910F91FF90EF90DF90CF90BF90B2
:10334000AF909F908F9008951F920F920FB60F929B
:1033500011240BB60F922F933F934F935F936F936C
:103360007F938F939F93AF93BF93EF93FF9380913E
:10337000390887FF05C0109285001092840016C09E
:1033800020913908022E000C330B8091590690E0F1
:10339000281739075CF43091390825E03203F00131
:1033A0001124E35EF94F808186FD15C080913908B4
:1033B0008F5F8093390820913908022E000C330B5F
:1033C0008091590690E02817390794F480913908C4
:1033D0008C302CF10DC0309139083203F0011124EA
:1033E000E35EF94F808160E08F730E94E90FDECFCA
:1033F000809184009091850084349C4918F480E485
:103400009CE905C08091840090918500049690937A
:103410008900809388008FEF809339082AC04091FB
:103420008400509185003091390825E03203F00185
:103430001124E35EF94F81819281840F951F90934F
:10344000890080938800309139083203F0011124FB
:10345000E35EF94F808186FF0CC03091390832035A
:10346000F0011124E35EF94F808161E08F730E94C7
:10347000E90FFF91EF91BF91AF919F918F917F9154
:103480006F915F914F913F912F910F900BBE0F90D5
:103490000FBE0F901F9018958EBD00000DB407FE53
:1034A000FDCF8EB50895CF93DF93EC0160E0888166
:1034B0000E94E90F88E90E944C1A80E00E944C1A91
:1034C00080E00E944C1A80E00E944C1A80E00E942A
:1034D0004C1A61E088810E94E90F8BE891E0019726
:1034E000F1F760E088810E94E90F80EE0E944C1A9B
:1034F00061E08881DF91CF910C94E90FAF92BF9288
:10350000CF92DF92EF92FF920F931F93CF93DF93AF
:10351000CDB7DEB760970FB6F894DEBF0FBECDBF54
:103520005C0160E0FC0180810E94E90F80E60E945E
:103530004C1A8E010F5F1F4F7E01F1E1EF0EF11C5F
:10354000680180E00E944C1A90E0A0E0B0E0F60133
:1035500081939193A193B1936F01EE15FF0589F7C4
:1035600061E0F50180810E94E90F80E090E0DC01DC
:10357000F80141915191619171918F01BA2FA92F59
:10358000982F8827840F951FA61FB71FEE15FF05DC
:1035900079F79C01AD0166277727CB01621B730B7E
:1035A000840B950B60960FB6F894DEBF0FBECDBFAF
:1035B000DF91CF911F910F91FF90EF90DF90CF900F
:1035C000BF90AF900895FC01248131E030936703F0
:1035D0002093660310926503109264038485682B20
:1035E00088E693E00E94FC0E61E088E693E00C948C
:1035F000370F0F931F93CF938C01C62F64600E94E7
:10360000E31A6C2F6B7FC8010E94E31A83EC90E0F1
:103610000197F1F7CF911F910F910895089580E0E0
:1036200090E008950F931F93CF93DF938C01C62FE3
:10363000D62FD07FD1606D2F0E94E31A6D2FC80165
:103640000E94F91A80E1C89FB0011124C62FC16001
:103650006C2FC8010E94E31A6C2FC8010E94F91A4E
:1036600081E090E0DF91CF911F910F91089510922A
:103670006B0310926A0388EE93E0A0E0B0E08093C1
:103680006C0390936D03A0936E03B0936F032DE0D2
:1036900032E030936903209368031092770310920D
:1036A00076038093780390937903A0937A03B09381
:1036B0007B032FE132E0309375032093740345E3DD
:1036C00051E0509381034093800344E351E05093D1
:1036D00083034093820340E351E05093850340937A
:1036E000840341E351E0509387034093860342E310
:1036F00051E0509389034093880346E351E050938F
:103700008B0340938A0310928D0310928E031092C4
:103710008F0310929003109214041092130480935C
:10372000150490931604A0931704B09318043093D3
:1037300012042093110445ED50E050931E04409371
:103740001D0444ED50E05093200440931F0440EDCD
:1037500050E0509322044093210441ED50E05093F7
:1037600024044093230442ED50E0509326044093F8
:10377000250446ED50E0509328044093270410920E
:103780002A0410922B0410922C0410922D041092F3
:10379000B1041092B0048093B2049093B304A09348
:1037A000B404B093B5043093AF042093AE0485EC19
:1037B00090E09093BB048093BA0484EC90E09093E3
:1037C000BD048093BC0480EC90E09093BF04809390
:1037D000BE0481EC90E09093C1048093C00482EC1D
:1037E00090E09093C3048093C20486EC90E09093A1
:1037F000C5048093C4041092C7041092C8041092A8
:10380000C9041092CA0486E38093440787E3809337
:10381000450788E38093460789E3809347078BE158
:10382000809348078DE1809349078AE180934A0796
:103830008CE180934B0784E080934C0787E0809372
:103840004D0710924E0784EB80934F0786E18093DB
:10385000500788E18093510787E18093520789E1FF
:1038600080935307E0915906EC3020F08FEF80935E
:10387000540710C081E08E0F80935906E0935407DF
:1038800025E0E29FF0011124E35EF94F88EB9BE015
:1038900092838183E0915906EC3020F08FEF809382
:1038A000550710C081E08E0F80935906E0935507AD
:1038B00085E0E89FF0011124E35EF94F88EB9BE07F
:1038C000928381838CE08093230784E28093240792
:1038D00086E08093250785E0809326078FE180931B
:1038E00027078EE18093280783E28093290782E2ED
:1038F00080932A0785E480932B0784E480932C0728
:1039000080E480932F0710923407109235071092AD
:103910003607109237071092380710923907109225
:103920003A0710923B07E5E6F6E08FEF9FEFDC01E8
:1039300012821382148215821682178210861186D3
:1039400083879487A587B6878787908BA18BB28B57
:10395000128611821082739627E0E332F20741F754
:103960008DE090E00E948424FC011382128281E3A6
:1039700092E091838083118687E2848384E1828749
:1039800084E083871486F0936206E09361061092C8
:1039900063061092640685E280934C0510924E05F2
:1039A00010925B0610925A0610925D0610925C0609
:1039B00010925F0610925E0661E070E080E090E099
:1039C0000E94B125009789F090935B0680935A0678
:1039D00010925D0610925C0620915E0630915F06A3
:1039E000232BC1F4FC01108215C080915A069091DE
:1039F0005B06009711F00E94192510925B06109249
:103A00005A0610925F0610925E0610925D061092A2
:103A10005C06089510925F0610925E0664E772E0FD
:103A20000C94A826789484B5826084BD84B58160A6
:103A300084BD85B5826085BD85B5816085BD809179
:103A40006E00816080936E001092810080918100F1
:103A500082608093810080918100816080938100E9
:103A6000809180008160809380008091B1008460AB
:103A70008093B1008091B00081608093B00080910C
:103A80009100826080939100809191008160809389
:103A90009100809190008160809390008091A100BE
:103AA00082608093A1008091A10081608093A10039
:103AB0008091A00081608093A000809121018260AC
:103AC0008093210180912101816080932101809167
:103AD000200181608093200180917A00846080932E
:103AE0007A0080917A00826080937A0080917A00D7
:103AF000816080937A0080917A00806880937A0058
:103B00001092C1000E94EF0B61E0809124070E9497
:103B1000191060E0809124070E94E90F60E0809115
:103B200023070E94191088E693E090932E07809354
:103B30002D071092C1071092C007109265031092D2
:103B400064030E94BD1580E090E1A0E0B0E08093A6
:103B5000300790933107A0933207B09333078AE080
:103B600090E0A0E0B0E08093340790933507A093F5
:103B70003607B093370780E090E0A0E0B0E4809390
:103B8000380790933907A0933A07B0933B0760E05A
:103B900070E185E00E94390C6FE979E380E00E94D2
:103BA000390CC0E4D7E0C12CD12CE12CF12C60E120
:103BB000662E63E0762E76E5872E73E0972EEBEC8B
:103BC000AE2EE7E0BE2EC7018D5D984F2C01FC01A3
:103BD0009481828186010D5D184FF801818F928F4B
:103BE00061E00E94191061E0F801828D0E941910B5
:103BF000F201908586818883F801968F61E00E94AA
:103C0000191060E0F801868D0E94191061E088812A
:103C10000E94E90F1FB7F89480916D07811125C0AC
:103C2000F3018491F4019491E82FF0E0EE0FFF1F6F
:103C3000E955FD4FA591B4918C91982321F461E051
:103C400085E30E94E90F61E085E30E9419108CB5BD
:103C500080618CBD8CB580648CBD61E084E30E9482
:103C6000191061E083E30E94191080916D078F5F46
:103C700080936D071FBFC5010197F1F760E0888150
:103C80000E94E90F88E80E944C1A83E00E944C1AB7
:103C900061E088810E94E90FC5010197F1F7CE012B
:103CA0000E94531AF2E0CF0ED11C2296EA94EF281C
:103CB00021F0EE24E394F12C86CFC8E4D7E01C2F4A
:103CC0001C5F60E089910E9419101C13FACF07E570
:103CD00017E0C4E5D7E095E0C92E2CE0E22E32E0F3
:103CE000B32EDC2ED394D394FE013897F0808881D4
:103CF0008C3008F044C061E08F2D0E94191088813B
:103D0000C89EF0011124E35EF94F9F2D9F7320811F
:103D1000207CF22EF92AF082138214826E2D0E94EA
:103D20004E219CE0899FA001112420E030E0B901E0
:103D3000640F751FC69EF001C79EF00D1124E35E4F
:103D4000F94F908196FD12C02F5F3F4F2C30310507
:103D500071F781110BC010928000B0928100109217
:103D6000850010928400B6BAB0926F00E881CE9EB2
:103D7000F0011124E35EF94F808180648083FE01AD
:103D80003297908132978081F80131978083F801D2
:103D9000908360E00E94191061E0F80180810E9428
:103DA000191060E0F80180810E94E90F21960E5FF2
:103DB0001F4FDC1299CFF8941092200189E0809374
:103DC000210180E293E090932901809328011092D1
:103DD00025011092240182E08093730078948093EF
:103DE0004B0510924F0580914C0560E00E94191020
:103DF0001092C1071092C0071092650310926403DD
:103E00000E94BD1560EF85E50E9438136BEF80E0DE
:103E10000E9438130E9459130E94EF0B61E08EE25A
:103E20000E94191061E08EE20E94E90F00E010E0AC
:103E300082E0E82EF12C0E9459138091EE079091B8
:103E4000EF07019721F58091EC079091ED07C0E015
:103E5000D0E00197F1F48091EA079091EB07873B5E
:103E60009340BCF0219664E670E080E090E00E9410
:103E70007410CA30D10579F740E050E060E177E294
:103E800081E090E00E943302F8011995E4CFC0E090
:103E9000D0E08091EE079091EF07019709F053C0B1
:103EA0008091EC079091ED07892B09F04CC00E949E
:103EB00059138091EE079091EF07019769F46AE03A
:103EC00070E080E090E00E9474100E94591388E333
:103ED00093E00E942D0CEDCF0E94591382E493E0F1
:103EE0000E942D0C80916E0790916F07009759F4F6
:103EF00081E090E090936F0780936E0740E050E080
:103F000064EF71E00DC08130910569F4F0926F07A4
:103F1000E0926E0746E950E064EF71E082E090E0E5
:103F20000E94330202C0029719F38CE493E00E94CE
:103F3000361380916E0790916F070E942B1484E7CF
:103F400092E00E942D0C0E94591380916E0790916F
:103F50006F07892B89F562E370E080E090E00E94B2
:103F600074100E942C1667CF8091EC079091ED079A
:103F7000019789F70E945913219664E670E080E06A
:103F800090E00E947410CA30D105B1F448EC50E0C2
:103F900068EE73E081E090E00E94330244E650E076
:103FA00069EE70E083E090E00E94330280916E073A
:103FB00090916F070E94B5068091EE079091EF07F0
:103FC000892B91F2C8CF80915A0690915B060C9490
:103FD00019250E942B2008F481E00895E89409C077
:103FE00097FB3EF490958095709561957F4F8F4F2C
:103FF0009F4F9923A9F0F92F96E9BB279395F69542
:10400000879577956795B795F111F8CFFAF4BB0FBF
:1040100011F460FF1BC06F5F7F4F8F4F9F4F16C023
:10402000882311F096E911C0772321F09EE8872FAD
:10403000762F05C0662371F096E8862F70E060E069
:104040002AF09A95660F771F881FDAF7880F9695E2
:10405000879597F90895990F0008550FAA0BE0E886
:10406000FEEF16161706E807F907C0F0121613063A
:10407000E407F50798F0621B730B840B950B39F47A
:104080000A2661F0232B242B252B21F408950A26E0
:1040900009F4A140A6958FEF811D811D08950E940E
:1040A00062200C94D3200E94C52038F00E94CC20BE
:1040B00020F0952311F00C94BC200C94C220112404
:1040C0000C9407210E94E42070F3959FC1F3950F93
:1040D00050E0551F629FF001729FBB27F00DB11D8C
:1040E000639FAA27F00DB11DAA1F649F6627B00D1C
:1040F000A11D661F829F2227B00DA11D621F739F05
:10410000B00DA11D621F839FA00D611D221F749F12
:104110003327A00D611D231F849F600D211D822F59
:10412000762F6A2F11249F5750409AF0F1F0882380
:104130004AF0EE0FFF1FBB1F661F771F881F9150AD
:104140005040A9F79E3F510580F00C94BC200C9480
:1041500007215F3FE4F3983ED4F386957795679502
:10416000B795F795E7959F5FC1F7FE2B880F911DD7
:104170009695879597F9089597F99F6780E870E07D
:1041800060E008959FEF80EC089500240A941616CD
:10419000170618060906089500240A941216130635
:1041A000140605060895092E0394000C11F48823C3
:1041B00052F0BB0F40F4BF2B11F460FF04C06F5FDF
:1041C0007F4F8F4F9F4F089557FD9058440F551FB5
:1041D00059F05F3F71F04795880F97FB991F61F089
:1041E0009F3F79F087950895121613061406551F00
:1041F000F2CF4695F1DF08C0161617061806991F6C
:10420000F1CF86957105610508940895E894BB2760
:1042100066277727CB0197F90895052E97FB1EF4A3
:1042200000940E94242157FD07D00E942C2107FCF6
:1042300003D04EF40C94242150954095309521954F
:104240003F4F4F4F5F4F08959095809570956195C2
:104250007F4F8F4F9F4F0895A1E21A2EAA1BBB1BC1
:10426000FD010DC0AA1FBB1FEE1FFF1FA217B30742
:10427000E407F50720F0A21BB30BE40BF50B661F58
:10428000771F881F991F1A9469F76095709580951C
:1042900090959B01AC01BD01CF010895991B79E078
:1042A00004C0991F961708F0961B881F7A95C9F7C6
:1042B00080950895EE0FFF1F881F8BBF0790F69122
:1042C000E02D19949F939F770E9488220F900020E1
:1042D00042F49058A2EA2AED3FE049E450E40E94FB
:1042E0008B210C94D3205058BB27AA270E948B21E6
:1042F0000C94D3200E94C52038F00E94CC2020F0DE
:1043000039F49F3F19F426F40C94C2200EF4E09582
:10431000E7FB0C94BC20E92F0E94E42058F3BA1765
:10432000620773078407950720F079F4A6F50C94CB
:1043300006210EF4E0950B2EBA2FA02D0B01B9012A
:1043400090010C01CA01A0011124FF27591B99F00B
:10435000593F50F4503E68F11A16F040A22F232F17
:10436000342F4427585FF3CF469537952795A79567
:10437000F0405395C9F77EF41F16BA0B620B730B0E
:10438000840BBAF09150A1F0FF0FBB1F661F771F7F
:10439000881FC2F70EC0BA0F621F731F841F48F434
:1043A000879577956795B795F7959E3F08F0B0CFBD
:1043B0009395880F08F09927EE0F979587950895A4
:1043C0000E94F4210C94D3200E94CC2058F00E942B
:1043D000C52040F029F45F3F29F00C94BC20511116
:1043E0000C9407210C94C2200E94E42068F39923C6
:1043F000B1F3552391F3951B550BBB27AA276217E1
:104400007307840738F09F5F5F4F220F331F441FED
:10441000AA1FA9F335D00E2E3AF0E0E832D0915021
:104420005040E695001CCAF72BD0FE2F29D0660F0E
:10443000771F881FBB1F261737074807AB07B0E851
:1044400009F0BB0B802DBF01FF2793585F4F3AF057
:104450009E3F510578F00C94BC200C9407215F3FDF
:10446000E4F3983ED4F3869577956795B795F795DD
:104470009F5FC9F7880F911D9695879597F90895C5
:10448000E1E0660F771F881FBB1F62177307840761
:10449000BA0720F0621B730B840BBA0BEE1F88F770
:1044A000E09508950E9459226894B1110C94072157
:1044B00008950E94EC2088F09F5798F0B92F992713
:1044C000B751B0F0E1F0660F771F881F991F1AF0FF
:1044D000BA95C9F714C0B13091F00E940621B1E03D
:1044E00008950C940621672F782F8827B85F39F03C
:1044F000B93FCCF3869577956795B395D9F73EF498
:1045000090958095709561957F4F8F4F9F4F08953F
:10451000DF93CF931F930F938B01EC01ECE2F1E05B
:104520000E94A8220E94D3209801AE018B01EC01C9
:1045300060E070E080E89FE30E9473210E942A23DC
:104540009801AE010F911F91CF91DF910C946220E1
:10455000DF93CF931F930F93FF92EF92DF927B0134
:104560008C01689406C0DA2EEF010E946220FE01E1
:10457000E894A5912591359145915591A6F3EF01C8
:104580000E948B21FE019701A801DA9469F7DF9060
:10459000EF90FF900F911F91CF91DF9108950E94AE
:1045A0002B2008F48FEF0895FA01EE0FFF1F3096CD
:1045B00021053105A1F16115710561F48038BFE372
:1045C0009B0749F168949038810561F08038BFEF0E
:1045D0009B0741F099234AF5FF3FE105310521058D
:1045E00019F1E8940894E795D901AA2329F4AB2F8F
:1045F000BE2FF85FD0F310C0FF5F70F4A695E0F710
:10460000F73950F019F0FF3A38F49F779F930DD0A7
:104610000F9007FC9058089546F00C94C22060E07B
:1046200070E080E89FE308954FE79F775F934F9393
:104630003F932F930E9408242F913F914F915F91B8
:104640000E944F200C94772319F416F40C94C22086
:104650000C94A9230E94EC20B8F39923C9F3B6F374
:104660009F57550B87FF0E94B7230024A0E640EA1E
:10467000900180585695979528F4805C660F771FB7
:10468000881F20F026173707480730F4621B730B8A
:10469000840B202931294A2BA695179407942025AD
:1046A00031254A2758F7660F771F881F20F02617F5
:1046B0003707480730F4620B730B840B200D311D54
:1046C000411DA09581F7B901842F9158880F9695C7
:1046D000879508950E942B20880B990B089529F443
:1046E00016F00C94BC200C9406210C94C2200E945D
:1046F000EC20A8F39638A0F707F80F92E8942BE384
:104700003AEA48EB5FE70E9465200F920F920F9202
:104710004DB75EB70F920E945024E4E5F1E00E948D
:10472000A8224F915F91EF91FF91E595EE1FFF1F3A
:1047300049F0FE57E0684427EE0F441FFA95E1F771
:104740004195550B0E94CA230F9007FE0C94BE237F
:1047500008959F3F31F0915020F4879577956795A4
:10476000B795880F911D9695879597F90895915063
:104770005040660F771F881FD2F708959B01AC0148
:1047800060E070E080E89FE30C94E0210C94BC2092
:104790000C94A9230E94EC20D8F39923C9F3940F19
:1047A000511DA3F39150504094F059F0882332F0FA
:1047B000660F771F881F91505040C1F79E3F5105EB
:1047C0002CF7880F911D9695879597F908955F3F6F
:1047D000ACF0983E9CF0BB27869577956795B7958A
:1047E00008F4B1609395C1F7BB0F58F711F460FF5F
:1047F000E8CF6F5F7F4F8F4F9F4FE3CF0C94072120
:1048000016F00C94A9230C94C22068940C94BC203C
:104810000E94EC20A8F39923C1F3AEF3DF93CF936A
:104820001F930F93FF92C92FDD2788232AF021972A
:10483000660F771F881FDAF720E030E040E85FEB73
:104840009FE3883920F0803E38F021968F770E94D0
:104850007421ECE7F1E004C00E947421E9EAF1E080
:104860000E94A8228B01BE01EC01FB2E6F5771093B
:104870007595771F880B990B0E94F01F28E132E78E
:1048800041E35FE30E946220AF2D9801AE01FF90EB
:104890000F911F91CF91DF910E948B210C94D32017
:1048A000FA01DC01AA0FBB1F9B01AC01BF5728F422
:1048B000222733274427507820C0B75190F4AB2FDC
:1048C0000024469537952795011CA395D2F3002027
:1048D00071F0220F331F441FB395DAF30ED00C94FE
:1048E000732161307105A0E88A07B94630F49B0155
:1048F000AC016627772788279078309621F02083AF
:104900003183428353830895CF93DF93823091059F
:1049100010F482E090E0E0913C08F0913D0820E046
:1049200030E0C0E0D0E0309711F14081518148176C
:104930005907C0F04817590761F482819381209785
:1049400019F09B838A832BC090933D0880933C0889
:1049500026C02115310519F04217530718F49A01A2
:10496000BE01DF01EF010280F381E02DDCCF2115D4
:10497000310509F1281B390B2430310590F41296CA
:104980008D919C9113976115710521F0FB01938323
:10499000828304C090933D0880933C08FD013296C9
:1049A00044C0FD01E20FF31F81939193225031091E
:1049B0002D933C933AC020913A0830913B08232B29
:1049C00041F4209105023091060230933B08209378
:1049D0003A0820910302309104022115310541F477
:1049E0002DB73EB74091070250910802241B350BAA
:1049F000E0913A08F0913B08E217F307A0F42E1B70
:104A00003F0B2817390778F0AC014E5F5F4F241732
:104A1000350748F04E0F5F1F50933B0840933A080C
:104A20008193919302C0E0E0F0E0CF01DF91CF915C
:104A300008950F931F93CF93DF93009709F48CC0D1
:104A4000FC0132971382128200913C0810913D08BC
:104A50000115110581F420813181820F931F20916E
:104A60003A0830913B082817390779F5F0933B084D
:104A7000E0933A0871C0D80140E050E0AE17BF079C
:104A800050F412962D913C911397AD0121153105EB
:104A900009F1D901F3CF9D01DA01338322836081CB
:104AA0007181860F971F8217930769F4EC012881A3
:104AB0003981260F371F2E5F3F4F318320838A8134
:104AC0009B8193838283452B29F4F0933D08E093E7
:104AD0003C0842C01396FC93EE931297ED01499166
:104AE00059919E01240F351FE217F30771F480815D
:104AF0009181840F951F029611969C938E938281CB
:104B0000938113969C938E931297E0E0F0E0D80186
:104B100012968D919C911397009719F0F8018C01D2
:104B2000F6CF8D919C9198012E5F3F4F820F931F7E
:104B300020913A0830913B082817390769F43097DB
:104B400029F410923D0810923C0802C01382128290
:104B500010933B0800933A08DF91CF911F910F917A
:104B600008956F927F928F929F92AF92BF92CF9251
:104B7000DF92EF92FF920F931F93CF93DF93EC019D
:104B8000009789F4CB01DF91CF911F910F91FF9096
:104B9000EF90DF90CF90BF90AF909F908F907F90DD
:104BA0006F900C948424FC01E60FF71F9C012250A7
:104BB0003109E217F30708F4ACC0D9010D911C913B
:104BC000119706171707B0F00530110508F49FC0BC
:104BD000C80104978617970708F499C00250110975
:104BE000061B170B019311936D937C93CF010E94C9
:104BF00019258DC05B01A01AB10A4C01800E911ECF
:104C0000A0913C08B0913D0840E050E0E12CF12C2F
:104C1000109709F44AC0A815B905D1F56D907C909C
:104C20001197630182E0C80ED11CCA14DB0480F125
:104C3000A3014A195B096A0182E0C80ED11C1296D1
:104C4000BC9012971396AC91B5E0CB16D10440F00E
:104C5000B282A38351834083D9016D937C930AC0B0
:104C60000E5F1F4FC301800F911FF9019183808355
:104C7000EB2DFA2FE114F10431F0D7011396FC93D8
:104C8000EE93129744C0F0933D08E0933C083FC078
:104C90008D919C9111974817590708F4AC017D013B
:104CA00012960D90BC91A02DB3CF80913A089091AF
:104CB0003B0888159905E1F446175707C8F4809119
:104CC000030290910402009741F48DB79EB7409182
:104CD000070250910802841B950BE817F907C8F4E6
:104CE000F0933B08E0933A08F901718360830FC0A9
:104CF000CB010E9484247C01009759F0A801BE01D9
:104D00000E949F26CE010E941925C70104C0CE0132
:104D100002C080E090E0DF91CF911F910F91FF9052
:104D2000EF90DF90CF90BF90AF909F908F907F904B
:104D30006F90089581E090E0F8940C94AF26FB0109
:104D4000DC0102C001900D9241505040D8F7089507
:104D5000FB01DC0101900D920020E1F7089511E0C4
:104D6000C5EED1E000E006C0802FFE010E945A216E
:104D70002196011DC63ED10780E00807A9F7F894E7
:024D8000FFCF63
:104D82000100FF00003E08200000000000FC0ECCE5
:104D92000E0F1BF511740E600E510E000000003B49
:104DA20017A10EDB1582170C16EA15FE150000007E
:104DB20000121BA10E0F1B0E1B3D3D3D3D3D3D3D17
:104DC2003D3D3D3D3D3D3D3D204E4252203D20007A
:104DD200203D3D3D3D3D3D3D3D3D3D3D3D3D3D3D1E
:104DE2000031093009003109310900300931090067
:104DF20030093009006D6F646520312073656C6580
:104E02006374696F6E6E65002061333A2000206121
:104E1200343A20002061353A20002061363A2000E1
:104E220020536F727469653A20006D6F6465203299
:104E32002073656C656374696F6E6E6500097374C7
:104E42006177703A200009200064697265637469B1
:104E52006F6E3A20005354415750004A27617661E1
:104E62006E63652043522A5353004265656565654A
:104E7200702042656565656570204265656565659A
:104E82007000547269626F726420746F7574652069
:104E92002364726F697465004261626F7264207488
:104EA2006F75746520234761756368650074656D6D
:104EB20070203D20000D0A004320656E666F6E6310
:104EC2006500432072656C6163686500094D6F641B
:104ED2006520006E616E00696E66006F7666000086
:00000001FF
