:100000000C94D2010C9403020C9403020C9403028E
:100010000C9403020C9403020C9403020C9403024C
:100020000C9403020C945A100C945A100C945A100D
:100030000C9403020C94AA0C0C9403020C9403027B
:100040000C9403020C9404180C9403020C94030205
:100050000C9403020C9403020C9403020C94600CA5
:100060000C9403020C941B0E0C94F10D0C940302DF
:100070000C9403020C9403020C9403020C940302EC
:100080000C9403020C9403020C9403020C940302DC
:100090000C9403020C9403020C9403020C9464105D
:1000A0000C9403020C9403020C9403020C940302BC
:1000B0000C9403020C9403020C9403020C94450E5E
:1000C0000C9403020C9403020C9403020C94C70DCD
:1000D0000C949D0D0C9403020C94730D0C94490D1B
:1000E0000C9403020D121012FF1103120912471291
:1000F000141218121E12221226122C12301234124E
:1001000047123A123E1242124B17501755175F17FB
:100110006917E21773177B1783178D179717A117A6
:10012000B017BA17E217C417CE17D81707634236AD
:10013000B79BD8A71A39685618AEBAAB558C1D3C78
:10014000B7CC5763BD6DEDFD753EF6177231BF003C
:100150000000803F08000000BE922449123EABAA76
:10016000AA2ABECDCCCC4C3E00000080BEABAAAAD1
:10017000AA3E00000000BF000000803F0000000019
:1001800000084178D3BB4387D1133D190E3CC3BD52
:100190004282AD2B3E68EC8276BED98FE1A93E4CFF
:1001A00080EFFFBE01C4FF7F3F00000000000C9401
:1001B000660F0C94A30B0C94D8170C943E120C945D
:1001C000B0170C9434120C9414120C94EF1D0C9470
:1001D000BA170C9473170C94FF110C9442120C94E0
:1001E0007B170C9426120C94CE170C943A120C9494
:1001F000C6160C945F170C94360B0C941E120C94BC
:10020000760F0C944B170C9430120C9483170C94AB
:1002100022120C94BA0F0C94270B0C9447120C94D6
:1002200098160C94E2170C9409120C9403120C9477
:1002300043190C9450170C94C4170C9418120C9476
:100240002C120C9469170C94EA0B0C94670F0C9405
:100250000D120C944A0B0C9497170C9455170C9490
:100260008D170C94580B0C9497160C94A1170C94A2
:10027000E30A0C948A0F0C942C0F0C9410120000BB
:1002800020002300260029002C002F00320000014E
:1002900000000301060109010200002100240027DB
:1002A000002A002D00300033000101000004010786
:1002B000010A0100002200250028002B002E003139
:1002C00000340002010000050108010B01050505CD
:1002D00005070508080808020202020A0A080804BD
:1002E00004040401010101010101010303030303EB
:1002F000030303040707070C0C0C0C0C0C0C0C027A
:1003000002020206060606060606060B0B0B0B0B80
:100310000B0B0B0102102020080810204010204079
:1003200080020102010804020101020408102040B9
:1003300080804020100804020180040201804020D7
:100340001008040201080402010102040810204000
:1003500080010204081020408000000A0B02090CF2
:100360000D0E08070304010000000000000000005B
:10037000000000000000000000000000000000007D
:10038000000000000012111000000000000000003A
:10039000000000000000000000000000000000005D
:1003A0004319EF1D11241FBECFEFD1E2DEBFCDBF39
:1003B00000E00CBF13E0A0E0B2E0EEE9F8E400E0FA
:1003C0000BBF02C007900D92AA3AB107D9F728E0F7
:1003D000AAEAB3E001C01D92A838B207E1F711E024
:1003E000C1EDD1E000E006C021970109802FFE0198
:1003F0000E94661FC03DD10780E00807A9F70E9450
:100400001E1B0C943D240C9400002F923F924F929F
:100410005F926F927F928F929F92AF92BF92CF9294
:10042000DF92EF92FF920F931F93CF93DF93CDB79D
:10043000DEB72C970FB6F894DEBF0FBECDBF9887FE
:100440008F831E821D8202E010E02F8138852130CB
:10045000310509F087C289E392E00E94BF0861E09C
:100460008EE20E9448120E944C138091CF07909117
:10047000D007019709F066C20E948B1589E090E0D1
:100480000E94821420E030E048EC51E40E94F51D07
:1004900087FF6CC00E9474150E948B158AE897E054
:1004A0000E94DE188AE897E00E94B3188CE492E07C
:1004B0000E94BF084AE959E969E97EE386E897E0C6
:1004C0000E94EB1640E050E060E070E888E897E0BA
:1004D0000E94EB160E948B1588E090E00E94821427
:1004E00020E030E040EF51E40E94F51D87FFDECFB1
:1004F00092E0C92ED12C8CE592E00E94BF080E94A8
:100500008B15E12CF12C88E090E00E94821420E011
:1005100030E040EF51E40E94F51D87FDE2C331C495
:100520000E9471140E948B1580ED97E00E94E015E7
:100530000E948B150E94280A4DEC5CEC6CE47EE373
:1005400086E897E00E94EB164DEC5CEC6CE47EEBE9
:1005500088E897E00E94EB1683E090E09093AB036D
:100560008093AA0385E692E00E94BF0880E00E9483
:10057000D2125C0181E00E94D2123C0182E00E9412
:10058000D2129A83898383E00E94D2126C0184E0A4
:100590000E94D2127C0185E00E94D2122C0186E0DA
:1005A0000E94D2124C0187E00E94D2121C0140E04E
:1005B00050E060E87EE386E897E00E94EB1640E0BA
:1005C00050E060E87EEB88E897E00E94EB168CE94B
:1005D00092E00E942A10C6010E942C100E94BB08C3
:1005E00082EA92E00E942A10C7010E942C100E9409
:1005F000BB0888EA92E00E942A10C2010E942C10D7
:100600000E94BB088EEA92E00E942A10C4010E9458
:100610002C100E94BB080E94BB088091AA039091F5
:10062000AB03039709F060C084EB92E00E94BF081F
:100630000E948B154DEC5CEC6CE47EE386E897E061
:100640000E94EB164DEC5CEC6CE47EEB88E897E0E6
:100650000E94EB1620E040E050E0822F2C874A8772
:100660005B870E94D2122C854A855B858935924032
:1006700014F041E050E02F5F283079F74130510508
:1006800061F684ED92E00E94BF084DEC5CEC6CE4F6
:100690007EE386E897E00E94EB164DEC5CEC6CE4A0
:1006A0007EEB88E897E00E94EB1666E970E080E058
:1006B00090E00E94F1124DEC5CEC6CE47EE388E883
:1006C00097E00E94EB1668EE73E080E090E00E94F5
:1006D000F1121092AB031092AA0362E370E080E083
:1006E00090E00E94F11299CFF9E5AF16F2E0BF0653
:1006F0000CF445C028E5C21622E0D2060CF046C034
:1007000038E5E31632E0F3060CF057C049E524164D
:1007100042E034060CF451C040E050E0BA0186E8F3
:1007200097E00E94EB1640E050E060E070E888E857
:1007300097E00E94EB1648EC50E068EC70E081E036
:1007400090E00E94381448EC50E060E971E081E0EC
:1007500090E00E94381448EC50E068E572E081E0D7
:1007600090E00E94381440E050E060E273E081E0E5
:1007700090E00E943814E0E0F0E019951EC0F9E521
:10078000CF16F2E0DF060CF0AEC4E4C398E5C9165C
:1007900092E0D90609F4AEC4F9E5EF16F2E0FF06DF
:1007A00064F029E5421622E052060CF073C4E9E534
:1007B000AE16E2E0BE060CF44CC059E5651652E0F8
:1007C00075060CF440C029813A8129353240DCF1AC
:1007D00059E5C51652E0D5060CF4BCC389E5E81608
:1007E00082E0F806B4F198E5291692E039068CF516
:1007F0008091AA039091AB03039759F14DEC5CEC07
:100800006CE47EE386E897E00E94EB164DEC5CEC2E
:100810006CE47EEB88E897E00E94EB1666E970E0F6
:1008200080E090E00E94F1124DEC5CEC6CE47EE321
:1008300088E897E00E94EB1668EE73E080E090E0B5
:100840000E94F11206C0E9E5CE16E2E0DE060CF4E5
:1008500081C3F9E5EF16F2E0FF06A4F140E050E0B5
:1008600060E87EE386E897E00E94EB1640E050E007
:1008700060E87EEB88E897E00E94EB1629E5821697
:1008800022E0920634F041E050E05093AB034093F5
:10089000AA0359E5251652E0350634F081E090E0D0
:1008A0009093AB038093AA0399E5691692E07906C9
:1008B00024F01093AB030093AA03E9E5AE16E2E03F
:1008C000BE06DCF548E5E41642E0F4060CF0B1C1E2
:1008D0004DEC5CEC6CE47EE386E897E00E94EB165E
:1008E0004DEC5CEC6CEC7DEB88E897E00E94EB163D
:1008F000F9E58F16F2E09F0634F021E030E0309306
:10090000AB032093AA0339E5231632E0330634F013
:1009100041E050E05093AB034093AA0359E56516BC
:1009200052E0750624F01093AB030093AA0389E507
:10093000A81682E0B8060CF47CC11093AB030093B8
:10094000AA0377C140E050E0BA0186E897E00E9430
:10095000EB1640E050E060E070E888E897E00E9425
:10096000EB1667C18F819885029709F062C18BEE03
:1009700092E00E94BF088091CF079091D007019725
:1009800009F050C189E090E00E94821420E030E03C
:1009900040EA51E40E94F51D87FF20C00E944C13DD
:1009A0008091C7079091C8078E3B9105BCF040E04D
:1009B00050E0BA0186E897E00E94EB1640E050E074
:1009C00060E070E888E897E00E94EB1646E950E0A6
:1009D0006EEE72E082E090E00E9438148EEF92E0BA
:1009E0000E942A1080910002909101020E942C1016
:1009F00087E093E00E942A108AE093E00E942A1088
:100A00008091AC039091AD030E942C1087E093E09D
:100A10000E942A108091C5079091C607AC014D53E2
:100A200051092091C7073091C8074138510508F096
:100A30008AC0A9014D5351094138510508F083C0BE
:100A400086E193E00E94BF0880910002909101022C
:100A5000892B09F064C0E090AC03F090AD03B701BE
:100A60000F2C000C880B990B0E94FC1D2DEC3CEC0C
:100A70004CEC5EE30E945B1E4B015C0191E0E916C9
:100A8000F104F1F420E030E0A901C501B4010E94B5
:100A900083201816C4F42DEC3CEC4CEC5DE3C5014E
:100AA000B4010E946E1F4B015C019B01AC010E94CE
:100AB000211464E670E080E090E00E94F112E2CF41
:100AC000EF20E09471F020E030E0A901CA01B90103
:100AD0000E942114E1E0F0E0F0930102E0930002B3
:100AE0001EC020E030E0A901C501B4010E94F51D3F
:100AF00087FFE9CF2DEC3CEC4CEC5DE3C501B40184
:100B00000E946F1F4B015C019B01AC010E942114EC
:100B100064E670E080E090E00E94F112E2CF809104
:100B2000000290910102029739F420E030E0A9011F
:100B3000CA01B9010E94211421E030E03093010282
:100B40002093000276C02E3B3105BCF02DEC3CEC2E
:100B50004CEC5EE3CA01B9010E94211441E050E06F
:100B60005093AD034093AC03109201021092000227
:100B70008CE193E00E94BF085CC02D3331059CF4EA
:100B80008BE293E00E94BF088FEF9FEF9093AD033D
:100B90008093AC0310920102109200022DEC3CEC09
:100BA0004CEC5EEB42C08E3B9105E4F083E493E0B5
:100BB0000E94BF0810930102009300026091AC03F1
:100BC0007091AD03072E000C880B990B0E94FC1D41
:100BD0002AE939E949E95EE30E945B1E20E030E042
:100BE000A90125C0CD972CF589E593E00E94BF08A7
:100BF00010930102009300026091AC037091AD0369
:100C0000072E000C880B990B0E94FC1D2AE939E97C
:100C100049E95EE30E945B1E9B01AC0160E070E06D
:100C2000CB0105C020E030E0A901CA01B9010E9452
:100C300021140E944C1364E670E080E090E00E9472
:100C4000F1128091D1079091D2078130910531F452
:100C5000ED81FE813196FE83ED8304C0892B11F472
:100C60001E821D828EE693E00E942A108D819E8155
:100C70000E942C100E94BB082D813E812B30310533
:100C80000CF4E3CB40E050E0BA0186E897E00E9424
:100C9000EB1640E050E060E070E888E897E00E94E2
:100CA000EB1644E650E064E670E08AE090E02C96B3
:100CB0000FB6F894DEBF0FBECDBFDF91CF911F916D
:100CC0000F91FF90EF90DF90CF90BF90AF909F90EB
:100CD0008F907F906F905F904F903F902F900C94EB
:100CE000381486E793E00E94BF084AE959E969E9A8
:100CF0007EE386E897E00E94EB1640E050E060E07B
:100D000070E888E897E00E94EB160E948B1588E057
:100D100090E00E9482144B015C0188E090E00E9408
:100D200082149B01AC01C501B4012C8739874A8725
:100D30005B870E944D20072E000C880B990B0E94A8
:100D4000FC1D2C8539854A855B850E94F51D87FF32
:100D500081C03FEFE31AF30A4AE0B7010F2C000C01
:100D6000880B990B0E94E90F0E94BB0864E670E0B3
:100D700080E090E00E94F11242E0E416F1040CF4ED
:100D8000C2CB40E050E0BA0186E897E00E94EB1643
:100D900040E050E0BA0186E897E00E94EB16CA9462
:100DA000CD2821F0CC24C394D12CA5CB85E592E0AD
:100DB0000E94BF0840E050E0BA0186E897E00E9438
:100DC000EB164AE959E969E97EEB88E897E00E9469
:100DD000EB166CE271E080E090E00E94F1120E945C
:100DE00074150E948B150E948B1588E090E00E947C
:100DF00082140E944D20CB010F969C01990F440B49
:100E0000550B29833A834B835C834B0133E0830E7C
:100E1000911C092C000CAA08BB086B0143E0C41A02
:100E2000D1080D2C000CEE08FF0888E090E00E942D
:100E300082142B013C0169817A818B819C810E9403
:100E4000FC1D9B01AC01C301B2010E94F51D87FF8F
:100E500038C003C0E12CF12C7FCF0E948B1588E0B5
:100E600090E00E9482142B013C01C501B4010E9454
:100E7000FC1D9B01AC01C301B2010E948320181626
:100E800094F088E090E00E9482142B013C01C7019D
:100E9000B6010E94FC1D9B01AC01C301B2010E947E
:100EA000F51D87FF07C00E948B1588E090E00E9427
:100EB0008214BBCF6AE979E989E99EE30E941609A9
:100EC000B4CF0E9474150E948B150E9474150E9465
:100ED0008B1580ED97E00E94E0150E948B150E9413
:100EE00071140E94280A0E948B1584E991E10E94E6
:100EF000E0150E948B150E94711488E090E00E941A
:100F000082146B017C0188E090E00E9482144B0106
:100F10005C0120E030E040E751E4C701B6010E94E7
:100F20006F1F9B01AC01C501B4010E94F51D87FF35
:100F3000F7CA4DEC5CEC6CE47EE386E897E00E9437
:100F4000EB164DEC5CEC6CE47EEB88E897E00E94DD
:100F5000EB16D9CF58E5C51652E0D5060CF069CE90
:100F600099E5E91692E0F906ACF14DEC5CEC6CE425
:100F70007EEB88E897E00E94EB164DEC5CEC6CECA5
:100F80007DE386E897E00E94EB16E9E58E16E2E045
:100F90009E0634F021E030E03093AB032093AA03A7
:100FA00039E5231632E0330634F041E050E0509347
:100FB000AB034093AA0359E5651652E0750624F089
:100FC0001093AB030093AA0389E5A81682E0B80644
:100FD0000CF0B3CC88E5E81682E0F8060CF029CED8
:100FE00099E5491692E0590634F0E1E0F0E0F0931B
:100FF000AB03E093AA03F9E58F16F2E09F0634F005
:1010000021E030E03093AB032093AA0329813A8199
:101010002935324024F01093AB030093AA0359E51D
:10102000651652E0750624F01093AB030093AA03F3
:1010300081EE92E00E942A108091AA039091AB0366
:101040000E942C100E94BB088091AA039091AB03D0
:101050008130910579F44DEC5CEC6CE47EEB88E832
:1010600097E00E94EB164DEC5CEC6CE47EEB86E8BE
:1010700097E075CC029709F0DCCD4DEC5CEC6CE4AC
:101080007EE386E897E00E94EB164DEC5CEC6CE4A6
:101090007EE363CC39E5831632E093060CF487CB0C
:1010A00048E5A41642E0B4060CF081CB4DEC5CECB4
:1010B0006CE47EE386E897E00E94EB164DEC5CEC76
:1010C0006CE47EEB88E897E00E94EB1666E970E03E
:1010D00080E090E00E94F1124DEC5CEC6CE47EEB61
:1010E00086E897E0A7CB29E5E21622E0F2060CF0AD
:1010F00058CBAFCB39E5631632E073060CF063CB07
:1011000098CDE8EFF4E0A089B18982E08C93A485C2
:10111000B5851C92A685B7858FEC8C93108EA4891B
:10112000B58986E08C93A289B3898C9180618C9378
:10113000A289B3898C9188608C93A289B3898C91A0
:1011400080688C930288F389E02D80818F7D808375
:101150000895009769F0FC0101900020E9F73197AC
:10116000AF01481B590BBC0188EF94E00C94E30AD3
:1011700080E090E0089580E893E00C94A908CF9374
:10118000DF930E94A908EC010E94BB088C0F9D1FF1
:10119000DF91CF910895EF92FF921F93CF93DF934A
:1011A0001F92CDB7DEB7162F9DE6E92E97E0F92EF8
:1011B000D7011C969C911C9721E02093B10390933A
:1011C000B0031092AF031092AE031A960D90BC912B
:1011D000A02DED91FC9111970190F081E02D682FE9
:1011E000CD0179831995F70182859385DC01ED9115
:1011F000FC910190F081E02D7981672F1995F7011D
:1012000082859385DC01ED91FC910190F081E02DC8
:10121000612F199561E0F701828593850F90DF9129
:10122000CF911F91FF90EF900C9496114F925F9287
:101230006F927F928F929F92AF92BF92CF92DF92E6
:10124000EF92FF92CF93DF9300D01F92CDB7DEB71E
:101250006B017C018AE897E00E94DE1890958095EA
:10126000709561957F4F8F4F9F4F0E94FC1D2B0102
:101270003C016093AC077093AD078093AE079093E9
:10128000AF078CE897E00E94DE180E94FC1D69837E
:101290007A838B839C836093A8077093A9078093BC
:1012A000AA079093AB079B01AC01C301B2010E9456
:1012B0006E1F4B015C016093A4077093A507809398
:1012C000A6079093A70720E030E040EA50E40E9490
:1012D000F51D87FD26C020E030E040E251E4C50165
:1012E000B4010E94F51D87FD25C020E030E040E7F5
:1012F00051E4C501B4010E94F51D87FD23C020E023
:1013000030E040EA51E4C501B4010E94F51D87FDBB
:1013100022C04AE9842E49E9942EA92C4EE3B42E2A
:1013200022C03DEC832E3CEC932E3CE4A32E3DE307
:10133000B32E19C02DEC822E2CEC922EA92C2DE36D
:10134000B22E11C09AE9892E99E9992E99E1A92E18
:101350009EE3B92E08C08DEC882E8CEC982E8CE480
:10136000A82E8EE3B82E29813A814B815C81C3017E
:10137000B2010E9483201816ECF4A501940160E0EC
:1013800070E080E89FE30E946E1F9B01AC01C701E3
:10139000B6010E945B1EAB01BC0186E897E00E948B
:1013A000EB1620E030E040E85FE3C501B4010E94A5
:1013B0006F1F26C029813A814B815C81C301B20134
:1013C0000E94F51D87FF25C020E030E040E85FE384
:1013D000C501B4010E946F1F9B01AC01C701B6019A
:1013E0000E945B1EAB01BC0186E897E00E94EB16F1
:1013F000A501940160E070E080E89FE30E946E1F09
:101400009B01AC01C701B6010E945B1EAB01BC0190
:1014100008C0B701A60186E897E00E94EB16B70165
:10142000A601705888E897E00F900F900F900F90EA
:10143000DF91CF91FF90EF90DF90CF90BF90AF9072
:101440009F908F907F906F905F904F900C94EB16D1
:101450008F929F92AF92BF92CF92DF92EF92FF92C4
:101460008AE897E00E94B3188CE897E00E94B318CE
:101470004DEC5CEC6CEC7EEB88E897E00E94EB16A0
:101480004DEC5CEC6CEC7EEB86E897E00E94EB1692
:101490008AE897E00E94DE18909580957095619596
:1014A0007F4F8F4F9F4F0E94FC1D2FE031ED40E892
:1014B0005FE30E945B1E0E944D206B017C018CE863
:1014C00097E00E94DE18072E000C880B990B0E94F3
:1014D000FC1D4B015C0120E030E44BEF54E40E9422
:1014E000832018163CF440E050E0BA0186E897E00B
:1014F0000E94EB16B6010D2C000C880B990B0E9474
:10150000FC1D20E030E44BEF54E40E9483201816C9
:1015100044F440E050E060E070E888E897E00E9422
:10152000EB166AE070E080E090E00E94F11220E0AB
:1015300030E44BEF54E4C501B4010E94F51D87FD72
:1015400097CF662777276C197D09072E000C880B2B
:10155000990B0E94FC1D20E030E44BEF54E40E9404
:10156000F51D87FD85CF40E050E0BA0186E897E0A1
:101570000E94EB1640E050E060E070E888E897E0F9
:101580000E94EB168AE897E00E94B3188CE897E077
:101590000E94B31864E670E080E090E0FF90EF9066
:1015A000DF90CF90BF90AF909F908F900C94F112EE
:1015B000E091F804F091F9040190F081E02D682F9A
:1015C00088EF94E01994CF92DF92EF92FF920F93FD
:1015D0001F93CF93DF936C017A018B01C0E0D0E0C1
:1015E000CE15DF0589F0D8016D918D01D601ED9101
:1015F000FC910190F081E02DC6011995892B11F421
:101600007E0102C02196ECCFC701DF91CF911F91DF
:101610000F91FF90EF90DF90CF900895FC01A0898B
:10162000B1898C91A689B78982FD0FC09C91818D6B
:101630008F5F8F73228D821749F0218DDF01A20FFA
:10164000B11D5D969C93818F08958C910895FC0146
:10165000538D448D252F30E0842F90E0821B930B17
:10166000541710F0CF96089501970895FC01918DBD
:10167000828D981761F0828DDF01A80FB11D5D96F4
:101680008C91928D9F5F9F73928F90E008958FEF62
:101690009FEF0895FC01918D828D981731F0828D16
:1016A000E80FF11D858D90E008958FEF9FEF08956D
:1016B000FC01918D228D892F90E0805C9F4F821BD1
:1016C00091098F73992708958EEB93E00E94580B30
:1016D00021E0892B09F420E0822F08958BE594E026
:1016E0000E94580B21E0892B09F420E0822F0895F5
:1016F00088EF94E00E94580B21E0892B09F420E048
:10170000822F0895FC01848DDF01A80FB11DA35A1B
:10171000BF4F2C91848D90E001968F739927848F11
:10172000A689B7892C93A089B1898C9180648C9308
:10173000938D848D981306C00288F389E02D8081F3
:101740008F7D80830895EF92FF920F931F93CF9325
:10175000DF93EC0181E0888F9B8D8C8D981305C001
:10176000E889F989808185FD24C0F62E0B8D10E073
:101770000F5F1F4F0F731127E02E8C8DE8120CC0E6
:101780000FB607FCFACFE889F989808185FFF5CF8C
:10179000CE010E94820BF1CF8B8DFE01E80FF11D6F
:1017A000E35AFF4FF0820B8FEA89FB8980818062C8
:1017B00007C0EE89FF896083E889F98980818064A8
:1017C000808381E090E0DF91CF911F910F91FF9096
:1017D000EF900895CF93DF93EC01888D8823C9F0B3
:1017E000EA89FB89808185FD05C0A889B9898C912A
:1017F00086FD0FC00FB607FCF5CF808185FFF2CFC5
:10180000A889B9898C9185FFEDCFCE010E94820B0A
:10181000E7CFDF91CF91089580E090E0892B21F010
:101820000E94780B811119C080E090E0892B41F073
:1018300080E090E0892B21F00E940000811110C00F
:101840000E946E0B81110FC080E090E0892B81F027
:101850000E94640B81110AC008950E940000E4CF29
:101860000E940000EDCF0E941E14EECF0C940000E9
:1018700008950E9428243FB7F8948091BF07909163
:10188000C007A091C107B091C20726B5A89B05C0AB
:101890002F3F19F00196A11DB11D3FBFBA2FA92FEF
:1018A000982F8827820F911DA11DB11DBC01CD016C
:1018B00042E0660F771F881F991F4A95D1F7089558
:1018C0001F920F920FB60F9211242F933F938F9375
:1018D0009F93AF93BF938091BB079091BC07A0915A
:1018E000BD07B091BE073091BA0723E0230F2D3713
:1018F00020F40196A11DB11D05C026E8230F029614
:10190000A11DB11D2093BA078093BB079093BC071C
:10191000A093BD07B093BE078091BF079091C00709
:10192000A091C107B091C2070196A11DB11D80937E
:10193000BF079093C007A093C107B093C207BF91A0
:10194000AF919F918F913F912F910F900FBE0F906C
:101950001F9018951F920F920FB60F9211240BB67D
:101960000F922F933F934F935F936F937F938F9338
:101970009F93AF93BF93EF93FF938091B3079091A1
:10198000B407A091B507B091B607892B8A2B8B2B92
:1019900059F18091B207E091B007F091B1079081C1
:1019A000892780838091B3079091B407A091B507F0
:1019B000B091B607181619061A061B060CF056C089
:1019C0008091B3079091B407A091B507B091B60785
:1019D0000197A109B1098093B3079093B407A0932D
:1019E000B507B093B60742C080910202E8E9F2E081
:1019F000E4919FEF90930202E230C9F050F4EE239D
:101A000099F0E13081F590916F009D7F90936F0088
:101A10002AC0E43019F1E0F0E53029F59091730027
:101A20009D7F909373001FC010926E001CC0909118
:101A300070009D7F9093700091E09093B000909122
:101A4000B100987F94609093B1001092B3000BC0E6
:101A5000909171009D7F9093710005C090917200EC
:101A60009D7F9093720060E00E944812FF91EF9179
:101A7000BF91AF919F918F917F916F915F914F91A6
:101A80003F912F910F900BBE0F900FBE0F901F90A4
:101A900018951F920F920FB60F9211240BB60F924A
:101AA0002F933F934F935F936F937F938F939F9366
:101AB000AF93BF93EF93FF938EEB93E00E94820B63
:101AC000FF91EF91BF91AF919F918F917F916F9116
:101AD0005F914F913F912F910F900BBE0F900FBED2
:101AE0000F901F9018951F920F920FB60F9211240E
:101AF0000BB60F922F933F934F935F936F937F9308
:101B00008F939F93AF93BF93EF93FF938EEB93E0ED
:101B10000E940E0BFF91EF91BF91AF919F918F911A
:101B20007F916F915F914F913F912F910F900BBEDD
:101B30000F900FBE0F901F9018951F920F920FB627
:101B40000F9211240BB60F922F933F934F935F93F5
:101B50006F937F938F939F93AF93BF93EF93FF9375
:101B60008BE594E00E94820BFF91EF91BF91AF91C2
:101B70009F918F917F916F915F914F913F912F91A5
:101B80000F900BBE0F900FBE0F901F9018951F92D5
:101B90000F920FB60F9211240BB60F922F933F9313
:101BA0004F935F936F937F938F939F93AF93BF9365
:101BB000EF93FF938BE594E00E940E0BFF91EF9162
:101BC000BF91AF919F918F917F916F915F914F9155
:101BD0003F912F910F900BBE0F900FBE0F901F9053
:101BE00018951F920F920FB60F9211240BB60F92F9
:101BF0002F933F934F935F936F937F938F939F9315
:101C0000AF93BF93EF93FF9388EF94E00E94820B12
:101C1000FF91EF91BF91AF919F918F917F916F91C4
:101C20005F914F913F912F910F900BBE0F900FBE80
:101C30000F901F9018951F920F920FB60F921124BC
:101C40000BB60F922F933F934F935F936F937F93B6
:101C50008F939F93AF93BF93EF93FF9388EF94E09D
:101C60000E940E0BFF91EF91BF91AF919F918F91C9
:101C70007F916F915F914F913F912F910F900BBE8C
:101C80000F900FBE0F901F9018951F920F920FB6D6
:101C90000F9211240BB60F922F933F934F935F93A4
:101CA0006F937F938F939F93AF93BF93CF93DF9364
:101CB000EF93FF932091960530E0F901E75AFC4F2E
:101CC0008491F901ED5EFC4FD491F901E353FD4F8E
:101CD000C491CC23A1F081110E94F211EC2FF0E00D
:101CE000EE0FFF1FE258FD4FA591B491EC91ED234B
:101CF00031E020E009F430E0832F922F02C080E031
:101D000090E020919A0530919B052F5F3F4F3093D3
:101D10009B0520939A0520919905253618F026E019
:101D200020939505209195052430D9F128F422308F
:101D300069F02330D9F060C0253009F453C0263053
:101D400009F05AC021E02093660653C0009709F0BD
:101D500053C020919A0530919B052436310508F433
:101D600043C010926606109299051DC081309105FE
:101D700009F042C0E091990521E02E0F20939905CA
:101D8000F0E020919A0530919B05EE0FFF1FEB5676
:101D9000FA4F3087278310929B0510929A0524E012
:101DA00029C00097B9F4E091990521E02E0F209306
:101DB0009905F0E020919A0530919B05EE0FFF1FE9
:101DC000EB56FA4F3087278310929B0510929A05A5
:101DD00023E010C020919A0530919B0525363105EE
:101DE00058F007C0009741F410929B0510929A0595
:101DF00003C025E020939505209198052223B9F092
:101E0000892B51F480919705882321F080919705C3
:101E100061E009C02F9A0BC080919705882331F0AB
:101E20008091970560E00E94481201C02F98FF91B1
:101E3000EF91DF91CF91BF91AF919F918F917F9162
:101E40006F915F914F913F912F910F900BBE0F902B
:101E50000FBE0F901F9018958091C30790E02091BE
:101E6000C407821B9109089585ED8093BC00809181
:101E7000BC0084FDFCCF10926208089540911508C3
:101E8000262F30E0240F311D21323105DCF4209162
:101E900062082430C9F4FC0180E090E0861758F411
:101EA000309115082191DC01AD50B84FA30FB11D41
:101EB0002C930196F3CF80911508680F6093150855
:101EC00080E0089581E0089582E008950895E0910A
:101ED000C4078091C307E81730F4F0E0ED59F74FDD
:101EE000808190E008958FEF9FEF08959091C4074F
:101EF0008091C307981750F4E92FF0E0ED59F74FA0
:101F0000208130E09F5F9093C40702C02FEF3FEF26
:101F1000C9010895CF92DF92EF92FF920F931F9322
:101F2000CF93DF937C01262F972F8A018091B103F5
:101F3000882391F0C62FD72F6E01C40ED51ECC1565
:101F4000DD0571F06991D701ED91FC910190F0816F
:101F5000E02DC7011995F3CF642F822F0E943E0F09
:101F6000C801DF91CF911F910F91FF90EF90DF900B
:101F7000CF900895CF93DF931F92CDB7DEB76983DB
:101F80002091B1032223D1F02091AE03203240F002
:101F900021E030E0FC013383228380E090E015C033
:101FA0008091AF03E82FF0E0ED52F84F99819083D4
:101FB0008F5F8093AF038093AE0305C061E0CE01D5
:101FC00001960E943E0F81E090E00F90DF91CF914B
:101FD00008958F929F92AF92BF920F931F93CF93CA
:101FE000DF93CDB7DEB7A1970FB6F894DEBF0FBE73
:101FF000CDBF19A2423008F44AE08E010F5D1F4F99
:10200000842E912CA12CB12CA50194010E94381F83
:10201000E62FB901CA0101501109EA3014F4E05D5C
:1020200001C0E95CD801EC93232B242B252B61F70D
:10203000C8010E94A908A1960FB6F894DEBF0FBE92
:10204000CDBFDF91CF911F910F91BF90AF909F9027
:102050008F9008950C94A908CF92DF92EF92FF928F
:10206000CF93DF936C01990FEE08FF08F7FE17C0BE
:102070008DE20E94D80AEC0166277727CB016C1904
:102080007D098E099F094AE00E94E90F8C0F9D1F70
:10209000DF91CF91FF90EF90DF90CF9008954AE0CD
:1020A000C701B601DF91CF91FF90EF90DF90CF9005
:1020B0000C94E90F1F920F920FB60F9211240F90FC
:1020C0000FBE0F901F9018951F920F920FB60F9290
:1020D00011240BB60F922F933F934F935F936F93FF
:1020E0007F938F939F93AF93BF93EF93FF938091D1
:1020F000B900887F803609F49CC068F5883209F4FD
:102100005BC090F4803109F454C038F4882309F49A
:10211000F6C0883009F44DC0F6C0883109F44CC0CF
:10212000803209F45DC0EFC0803409F468C048F41F
:10213000803309F455C0883309F0E5C08093600806
:10214000D8C0803509F44FC0883509F45DC08834A3
:1021500009F0D9C0D6C0883909F4C7C0A8F48837B7
:1021600009F467C038F4883609F463C0803709F48D
:1021700060C0C9C0883809F4B8C0803909F45FC0AC
:10218000803809F0C0C05BC0803B09F486C038F4D9
:10219000803A09F466C0883A09F47FC0B4C0803C34
:1021A00009F4A7C0883C09F4A4C0883B09F48AC09C
:1021B000AAC080915D0810C090915F0880915E0870
:1021C000981770F5E0915F0881E08E0F80935F08AB
:1021D000F0E0E45CF74F80818093BB0085EC86C023
:1021E000809360088EC0E0915F0881E08E0F80933D
:1021F0005F088091BB00F0E0E45CF74F8083909132
:102200005F0880915E086EC0E0915F0881E08E0FEC
:1022100080935F088091BB00F0E0E45CF74F80831F
:102220008091610881116DC081E080935C0884EA2F
:1022300061C083E08093620810923908CFCF80910B
:102240003908803208F051C0E091390881E08E0FE2
:10225000809339088091BB00F0E0E75EF74F808300
:10226000BDCF85EC8093BC00109262088091390844
:10227000803230F4E0913908F0E0E75EF74F1082E9
:102280006091390870E0E0911708F091180889E131
:1022900098E019951092390836C084E0809362085E
:1022A0001092160810921508E0911308F091140886
:1022B000199580911508811105C081E0809315085A
:1022C0001092F307E091160881E08E0F80931608B4
:1022D000F0E0ED50F84F80818093BB00909116089C
:1022E00080911508981708F479CF85E88093BC0091
:1022F0000AC085EC8093BC001092620804C0109262
:1023000060080E94340FFF91EF91BF91AF919F91B0
:102310008F917F916F915F914F913F912F910F908E
:102320000BBE0F900FBE0F901F9018952091AE031B
:102330009091B003213208F049C080916208811168
:10234000FCCF32E030936208609361083FEF309336
:10235000600810925F0820935E08A3EDB7E04CE39D
:1023600058E0FA013E2F341B321718F43D91319397
:10237000F9CF10925D0820915D08990F922B9093F0
:102380005D0890915C08913061F410925C08909126
:102390005D089093BB009091BC0093FDF8CF95EC45
:1023A00001C095EE9093BC00909162089230E1F3E9
:1023B000909160089F3F79F080916008803241F0F1
:1023C00080916008803331F084E005C081E003C073
:1023D00082E001C083E01092AF031092AE0310922E
:1023E000B103089590E0FC013197E231F10508F066
:1023F0004EC08827EE58FF4F8F4F0C94661F809178
:1024000080008F7703C0809180008F7D8093800053
:10241000089580918000877FF9CF84B58F7702C0BF
:1024200084B58F7D84BD08958091B0008F7703C0FF
:102430008091B0008F7D8093B000089580919000CE
:102440008F7707C0809190008F7D03C080919000AE
:10245000877F8093900008958091A0008F7707C0B8
:102460008091A0008F7D03C08091A000877F809322
:10247000A0000895809120018F7707C080912001EE
:102480008F7D03C080912001877F80932001089574
:102490001F93CF93DF93282F30E0F901E75AFC4FC9
:1024A0008491F901ED5EFC4FD491F901E353FD4FA6
:1024B000C491CC23C9F0162F81110E94F211EC2F88
:1024C000F0E0EE0FFF1FED54FD4FA591B4918FB7D3
:1024D000F894111105C09C91ED2FE095E92302C0FD
:1024E000EC91ED2BEC938FBFDF91CF911F9108956D
:1024F0001092620881E08093610810925C0861E0AC
:1025000084E10E94481261E085E10E944812E9EBF3
:10251000F0E080818E7F808380818D7F808388E45E
:102520008093B80085E48093BC000895CF93DF9337
:1025300090E0FC01ED5EFC4F2491FC01E353FD4F64
:102540008491882361F190E0880F991FFC01E75680
:10255000FD4FC591D491FC01ED54FD4FA591B4916F
:10256000611109C09FB7F8948881209582238883E0
:10257000EC912E230BC0623061F49FB7F894388140
:10258000822F809583238883EC912E2B2C939FBFE1
:1025900006C08FB7F894E8812E2B28838FBFDF9178
:1025A000CF910895863308F0865390917B00282FB1
:1025B0002870977F922B90937B0087708064809324
:1025C0007C0080917A00806480937A0080917A0008
:1025D00086FDFCCF809178002091790090E0922BCD
:1025E00008958F929F92AF92BF92CF92DF92EF9217
:1025F000FF926B017C010E943B0C4B015C01C114FA
:10260000D104E104F104F1F00E943B0CDC01CB01A8
:1026100088199909AA09BB09883E9340A105B1050B
:1026200070F321E0C21AD108E108F10888EE880EA3
:1026300083E0981EA11CB11CC114D104E104F10473
:1026400019F7DDCFFF90EF90DF90CF90BF90AF9064
:102650009F908F900895CF93C82F81E08093B1030E
:1026600082E58093B0031092AF031092AE0382EB29
:1026700093E00E94BA0F6C2F82EB93E00E94BA0F96
:1026800061E082EB93E00E9496116AE070E080E0E6
:1026900090E0CF910C94F112EF92FF921F93CF93A1
:1026A000DF93CDB7DEB72C970FB6F894DEBF0FBE21
:1026B000CDBF809162088111FCCF81E080936208D8
:1026C000809361089FEF9093600810925F0895E0F7
:1026D00090935E0880935D0880915D08846A809382
:1026E0005D0880915C08813061F410925C088091F3
:1026F0005D088093BB008091BC0083FDF8CF85EC22
:1027000001C085EE8093BC00809162088130E1F3C6
:1027100080915F08863018F410915F0801C016E0C0
:10272000ACE3B8E023E638E0F9018E2F821B811775
:1027300018F48D918193F9CF1092C4071093C307B9
:10274000CE0101967C018091C407181749F082EBF5
:1027500093E00E94760FF701819391937F01F3CF6D
:1027600089819A819093C6078093C5078B819C814C
:102770009093C8078093C7078B859C859C013595EE
:10278000279535952795A901437055272D813E81C1
:10279000220F331F220F331F242B352B3093CA07F0
:1027A0002093C9079C0174E0359527957A95E1F748
:1027B000A901437055272F813885220F331F220F1F
:1027C000331F242B352B3093CC072093CB079C0150
:1027D000F6E035952795FA95E1F7A901437055275D
:1027E00029853A85220F331F220F331F242B352BC7
:1027F0003093CE072093CD079C0121703327F1E061
:102800002F273093D0072093CF0721E030E081FFBE
:1028100002C020E030E03093D2072093D10760E07F
:1028200080E02C960FB6F894DEBF0FBECDBFDF91CF
:10283000CF911F91FF90EF900C942B13E0E0F0E00C
:102840001994CF92DF92EF92FF9269017A01AB0166
:10285000BC0186E897E00E94EB16B701A60170580C
:1028600088E897E0FF90EF90DF90CF900C94EB1604
:102870008F929F92AF92BF92CF92DF92EF92FF9290
:102880000F931F93CF93DF938C01C0E0D0E06B01D7
:10289000770FEE08FF084A01550FAA08BB08C017BA
:1028A000D10794F461E088E00E944812C701B601A4
:1028B0000E94F11260E088E00E944812C501B40154
:1028C0000E94F1122196EBCFDF91CF911F910F91D2
:1028D000FF90EF90DF90CF90BF90AF909F908F9040
:1028E0000895CF93C0E08C2F0E94D2128935924078
:1028F00024F081E090E00E940502CF5FC83099F794
:10290000CF9108954F925F926F927F928F929F9294
:10291000AF92BF92CF92DF92EF92FF92982EA12CAE
:10292000B12CC12CD12C76018AE0A816B10449F152
:10293000892D0E94D212BC01990F880B990B0E941D
:10294000FC1D26EA3BE944EC5BEB0E945B1E9B010D
:10295000AC016DEF76EF8DE290E40E9488202DE7C8
:102960003FE34BEA52E40E945B1E9B01AC01C701AE
:10297000B6010E946F1F6B017C018FEFA81AB80A85
:10298000D3CF20E030E040E251E4C701B6010E941D
:10299000DB1F6B017C019B01AC010E94D8208823C6
:1029A00019F08EE993E01AC046015701E894B7F890
:1029B0002FEF3FEF4FE75FE7C501B4010E94D8203A
:1029C00081110FC02FEF3FEF4FE75FE7C501B40163
:1029D0000E94F51D18162CF482EA93E00E94A908C3
:1029E00072C02FEF3FEF4FE75FE4C701B6010E94CF
:1029F000832018161CF486EA93E0F0CF2FEF3FEF08
:102A00004FE75FECC701B6010E94F51D87FDF3CFCC
:102A100020E030E0A901C701B6010E94F51D87FF43
:102A200007C08DE20E94D80AC701B601905802C0C3
:102A3000C701B6012AE037ED43EA5BE30E946F1F4E
:102A40002B013C010E9454204B015C010E94FA1DA5
:102A50009B01AC01C301B2010E946E1F2B013C011E
:102A60004AE0C501B4010E94E90F8EE20E94D80A33
:102A700020E030E040E251E4C301B2010E945B1E5D
:102A80002B013C010E9454204B01A12CB12C4AE0A7
:102A9000C501B4010E94E90FC501B4010E94FA1DED
:102AA0009B01AC01C301B2010E946E1F20E030E027
:102AB00040E251E40E945B1E0E94542080E090E0BE
:102AC0004AE00E94E90F0E94BB08C701B601FF90CF
:102AD000EF90DF90CF90BF90AF909F908F907F90BE
:102AE0006F905F904F90089540E050E0BA0186E803
:102AF00097E00E94EB1640E050E060E070E888E864
:102B000097E00E94EB168AE897E00E94B3188CE8E1
:102B100097E00C94B3180F931F93CF93DF930E9409
:102B20004C13C0E0D0E000E010E00E944C13809114
:102B3000CF079091D007892BF1F50E944C1360E0EC
:102B400088E00E94481264E670E080E090E00E9415
:102B5000F11240E050E0BA0186E897E00E94EB16DF
:102B600040E050E0BA0186E897E00E94EB160E9430
:102B70004C138091D1079091D207019709F42196C7
:102B80000E944C138091D1079091D207892B81F03C
:102B9000CA30D10554F244E650E062E370E08AE0C6
:102BA00090E00E9438140E947415F8011995BDCF69
:102BB000C0E0D0E0BACFDF91CF911F910F9108957F
:102BC0004F925F926F927F928F929F92AF92BF923D
:102BD000CF92DF92EF92FF926C018AE897E00E9419
:102BE000B3188CE897E00E94B31846010D2C000C36
:102BF000AA08BB0826E9C21A25E0D20A0D2C000C4F
:102C0000EE08FF0884E6482E512C612C712C8AE8CE
:102C100097E00E94DE189B01AC0188279927DC0110
:102C2000821B930BA40BB50B88159905AA05BB0550
:102C30000CF054C08AE897E00E94DE189B01AC01BA
:102C400088279927DC01821B930BA40BB50B8639CF
:102C50009540A105B10564F48AE897E00E94DE186A
:102C600090958095709561957F4F8F4F9F4F1AC0BB
:102C70008AE897E00E94DE189B01AC01882799271B
:102C8000DC01821B930BA40BB50BC816D906EA0610
:102C9000FB06ECF48AE897E00E94DE18680D791DC7
:102CA0008A1D9B1DA30192010E94191FCA01B9012F
:102CB0000E94FC1D29E23CE54FE05DE30E945B1EA3
:102CC0002DEC3CEC4CEC5DE30E946F1F04C06AE904
:102CD00079E989E19FE30E94160999CF40E050E02D
:102CE000BA0186E897E00E94EB1640E050E060E011
:102CF00070E888E897E00E94EB168AE897E00E9467
:102D0000B3188CE897E00E94B31864E670E080E0A6
:102D100090E0FF90EF90DF90CF90BF90AF909F90AA
:102D20008F907F906F905F904F900C94F112089568
:102D300080E090E00895FC01248131E03093B103FC
:102D40002093B0031092AF031092AE038485682BDA
:102D500082EB93E00E94BA0F61E082EB93E00C9467
:102D600096110F931F93CF938C01C62F64600E941E
:102D70009B166C2F6B7FC8010E949B1683EC90E022
:102D80000197F1F7CF911F910F9108950F931F9322
:102D9000CF93DF938C01C62FD62FD07FD1606D2FBC
:102DA0000E949B166D2FC8010E94B11680E1C89F3A
:102DB000B0011124C62FC1606C2FC8010E949B1660
:102DC0006C2FC8010E94B11681E090E0DF91CF9195
:102DD0001F910F9108958F929F92AF92BF92CF92C1
:102DE000DF92EF92FF920F931F93CF93DF93EC014B
:102DF0006A017B0120E030E04FE753E4C701B601F0
:102E00000E945B1E4B015C0120E030E0A9010E94A2
:102E1000832018161CF4C501B40103C0C501B40118
:102E200090580E944D208B0120E030E0A901C7019D
:102E3000B6010E948320181614F460E001C061E01E
:102E400089810E9448120F3F110509F014F41127DF
:102E500002C00FEF10E0C88161E08C2F0E94961233
:102E60000115110509F4B1C00F3F110509F4AFC0F8
:102E7000EC2FF0E0E75AFC4FE4914E2F50E0FA01BE
:102E80003197E231F10508F09DC08827EC57FF4FDC
:102E90008F4F0C94661F84B5806884BD07BDA7C0A2
:102EA00084B5806284BD08BDA2C080918000806826
:102EB00080938000109389000093880098C08091CF
:102EC000800080628093800010938B0000938A00C2
:102ED0008EC08091800088608093800010938D0068
:102EE00000938C0084C08091B00080688093B00013
:102EF0000093B3007CC08091B00080628093B000EA
:102F00000093B40074C0809190008068809390001A
:102F100010939900009398006AC08091900080629D
:102F20008093900010939B0000939A0060C0809162
:102F3000900088608093900010939D0000939C0007
:102F400056C08091A00080688093A0008091A0006E
:102F50008F7B8093A0001093A9000093A80047C026
:102F60008091A00080628093A0001093AB0000933A
:102F7000AA003DC08091A00088608093A0001093BB
:102F8000AD000093AC0033C0809120018068809335
:102F90002001109329010093280129C0809120016C
:102FA00080628093200110932B0100932A011FC09F
:102FB0008091200188608093200110932D0100935F
:102FC0002C0115C00038110514F460E001C061E067
:102FD0008C2FDF91CF911F910F91FF90EF90DF9099
:102FE000CF90BF90AF909F908F900C944812DF913C
:102FF000CF911F910F91FF90EF90DF90CF90BF90F6
:10300000AF909F908F9008951F920F920FB60F92DE
:1030100011240BB60F922F933F934F935F936F93AF
:103020007F938F939F93AF93BF93EF93FF93809181
:10303000830887FF05C0109285001092840016C097
:1030400020918308022E000C330B8091A30690E0A0
:10305000281739075CF43091830825E03203F0012A
:103060001124E959F94F808186FD15C080918308AC
:103070008F5F8093830820918308022E000C330B0E
:103080008091A30690E02817390794F48091830873
:103090008C302CF10DC0309183083203F0011124E3
:1030A000E959F94F808160E08F730E944812DECFAA
:1030B000809184009091850084349C4918F480E4C8
:1030C0009CE905C0809184009091850004969093BE
:1030D0008900809388008FEF809383082AC04091F5
:1030E0008400509185003091830825E03203F0017F
:1030F0001124E959F94F81819281840F951F909392
:10310000890080938800309183083203F0011124F4
:10311000E959F94F808186FF0CC030918308320352
:10312000F0011124E959F94F808161E08F730E9409
:103130004812FF91EF91BF91AF919F918F917F9135
:103140006F915F914F913F912F910F900BBE0F9018
:103150000FBE0F901F9018958EBD00000DB407FE96
:10316000FDCF8EB50895CF93DF93EC0160E08881A9
:103170000E94481288E90E94AC1880E00E94AC18B6
:1031800080E00E94AC1880E00E94AC1880E00E94B1
:10319000AC1861E088810E9448128BE891E00197A9
:1031A000F1F760E088810E94481280EE0E94AC181E
:1031B00061E08881DF91CF910C944812AF92BF9269
:1031C000CF92DF92EF92FF920F931F93CF93DF93F3
:1031D000CDB7DEB760970FB6F894DEBF0FBECDBF98
:1031E0005C0160E0FC0180810E94481280E60E9440
:1031F000AC188E010F5F1F4F7E01F1E1EF0EF11C45
:10320000680180E00E94AC1890E0A0E0B0E0F60118
:1032100081939193A193B1936F01EE15FF0589F707
:1032200061E0F50180810E94481280E090E0DC01BD
:10323000F80141915191619171918F01BA2FA92F9C
:10324000982F8827840F951FA61FB71FEE15FF051F
:1032500079F79C01AD0166277727CB01621B730BC1
:10326000840B950B60960FB6F894DEBF0FBECDBFF2
:10327000DF91CF911F910F91FF90EF90DF90CF9052
:10328000BF90AF9008951092B5031092B40388EEEA
:1032900093E0A0E0B0E08093B6039093B703A093CF
:1032A000B803B093B9032DE032E03093B303209319
:1032B000B2031092C1031092C0038093C203909393
:1032C000C303A093C403B093C5032FE132E030934E
:1032D000BF032093BE0345E351E05093CB034093DB
:1032E000CA0344E351E05093CD034093CC0340E341
:1032F00051E05093CF034093CE0341E351E050930C
:10330000D1034093D00342E351E05093D303409361
:10331000D20346E351E05093D5034093D403109277
:10332000D7031092D8031092D9031092DA031092A7
:103330005E0410925D0480935F0490936004A093F8
:103340006104B093620430935C0420935B0445ED08
:1033500050E0509368044093670444ED50E050936C
:103360006A044093690440ED50E050936C0440932C
:103370006B0441ED50E050936E0440936D0442EDB8
:1033800050E05093700440936F0446ED50E050932A
:103390007204409371041092740410927504109298
:1033A0007604109277041092FB041092FA04809332
:1033B000FC049093FD04A093FE04B093FF043093AB
:1033C000F9042093F80485EC90E090930505809330
:1033D000040584EC90E0909307058093060580EC4B
:1033E00090E0909309058093080581EC90E090931C
:1033F0000B0580930A0582EC90E090930D05809375
:103400000C0586EC90E090930F0580930E051092CA
:10341000110510921205109213051092140586E3FF
:1034200080938E0787E380938F0788E380939007CC
:1034300089E3809391078BE1809392078DE18093DC
:1034400093078AE1809394078CE18093950784E049
:103450008093960787E0809397071092980784EBF4
:103460008093990786E180939A0788E180939B0770
:1034700087E180939C0789E180939D07E091A306F3
:10348000EC3020F08FEF80939E0710C081E08E0F0C
:103490008093A306E0939E0725E0E29FF0011124AC
:1034A000E959F94F88EB9BE092838183E091A30671
:1034B000EC3020F08FEF80939F0710C081E08E0FDB
:1034C0008093A306E0939F0785E0E89FF001112415
:1034D000E959F94F88EB9BE0928381838CE08093DC
:1034E0006D0784E280936E0786E080936F0785E026
:1034F000809370078FE1809371078EE1809372074C
:1035000083E28093730782E28093740785E480935B
:10351000750784E48093760780E48093790710929E
:103520007E0710927F0710928007109281071092F9
:103530008207109283071092840710928507EFEAA2
:10354000F6E08FEF9FEFDC01128213821482158266
:10355000168217821086118683879487A587B6877F
:103560008787908BA18BB28B128611821082739603
:1035700027E0ED36F20741F78DE090E00E9412223D
:10358000FC011382128281E392E091838083118691
:1035900087E2848384E1828784E083871486F093C2
:1035A000AC06E093AB061092AD061092AE0685E233
:1035B00080939605109298051092A5061092A40685
:1035C0001092A7061092A6061092A9061092A806BD
:1035D00061E070E080E090E00E943F23009789F076
:1035E0009093A5068093A4061092A7061092A606B3
:1035F0002091A8063091A906232BC1F4FC0110826A
:1036000015C08091A4069091A506009711F00E9424
:10361000A7221092A5061092A4061092A906109255
:10362000A8061092A7061092A60608951092A90661
:103630001092A80662E873E00C943624789484B55E
:10364000826084BD84B5816084BD85B5826085BD9E
:1036500085B5816085BD80916E00816080936E002C
:10366000109281008091810082608093810080911E
:1036700081008160809381008091800081608093CF
:1036800080008091B10084608093B1008091B0008F
:1036900081608093B000809191008260809391005E
:1036A0008091910081608093910080919000816071
:1036B000809390008091A10082608093A10080910E
:1036C000A10081608093A1008091A000816080931F
:1036D000A0008091210182608093210180912101CD
:1036E000816080932101809120018160809320017D
:1036F00080917A00846080937A0080917A00826061
:1037000080937A0080917A00816080937A00809122
:103710007A00806880937A001092C1000E9481082C
:1037200061E080916E070E94961260E080916E07C2
:103730000E94481260E080916D070E94961282EB11
:1037400093E090937807809377071092C4071092C4
:10375000C3071092AF031092AE030E94781280E06C
:1037600090E1A0E0B0E080937A0790937B07A0936C
:103770007C07B0937D078AE090E0A0E0B0E0809302
:103780007E0790937F07A0938007B093810780E026
:1037900090E0A0E0B0E48093820790938307A09329
:1037A0008407B093850760E070E185E00E94CB0854
:1037B0006FE979E380E00E94CB08CAE8D7E0C12C2A
:1037C000D12CE12CF12C62E0662E63E0762E78E4B9
:1037D000872E73E0972EEBECAE2EE7E0BE2EC701EE
:1037E0008359984F2C01FC019481828186010359F1
:1037F000184FF801818F928F61E00E94961261E06C
:10380000F801828D0E949612F2019085868188834C
:10381000F801968F61E00E94961260E0F801868DB3
:103820000E94961261E088810E9448121FB7F894A6
:103830008091B707811125C0F3018491F40194911F
:10384000E82FF0E0EE0FFF1FE756FD4FA591B49172
:103850008C91982321F461E085E30E94481261E095
:1038600085E30E9496128CB580618CBD8CB5806416
:103870008CBD61E084E30E94961261E083E30E94C4
:1038800096128091B7078F5F8093B7071FBFC5015E
:103890000197F1F760E088810E94481288E80E9451
:1038A000AC1883E00E94AC1861E088810E94481245
:1038B000C5010197F1F7CE010E94B318F2E0CF0ED7
:1038C000D11C2296EA94EF2821F0EE24E394F12C07
:1038D00086CFC2E9D7E01C2F1C5F60E089910E946F
:1038E00096121C13FACF01EA17E0CEE9D7E095E073
:1038F000C92E2CE0E22E32E0B32EDC2ED394D394EA
:10390000FE013897F08088818C3008F044C061E077
:103910008F2D0E9496128881C89EF0011124E959CA
:10392000F94F9F2D9F732081207CF22EF92AF0827F
:10393000138214826E2D0E945A1F9CE0899FA00161
:10394000112420E030E0B901640F751FC69EF0011C
:10395000C79EF00D1124E959F94F908196FD12C0D0
:103960002F5F3F4F2C30310571F781110BC0109242
:103970008000B09281001092850010928400B6BA47
:10398000B0926F00E881CE9EF0011124E959F94F01
:10399000808180648083FE0132979081329780819C
:1039A000F80131978083F801908360E00E949612BD
:1039B00061E0F80180810E94961260E0F801808148
:1039C0000E94481221960E5F1F4FDC1299CFF89487
:1039D0001092200189E08093210180E293E090938E
:1039E000290180932801109225011092240182E080
:1039F0008093730078948093950510929905809137
:103A0000960560E00E9496121092C4071092C307B8
:103A10001092AF031092AE030E94781260EF85E51A
:103A20000E942B136BEF80E00E942B130E944C131B
:103A30000E94810861E08EE20E94961261E08EE2AF
:103A40000E94481200E010E082E0E82EF12C0E9473
:103A50004C138091D1079091D207019721F5809165
:103A6000CF079091D007C0E0D0E00197F1F48091AA
:103A7000CD079091CE07873B9340BCF0219664E63A
:103A800070E080E090E00E94F112CA30D10579F731
:103A900040E050E060E177E281E090E00E9438147D
:103AA000F8011995E4CFC0E0D0E08091D107909162
:103AB000D207019709F053C08091CF079091D007AA
:103AC000892B09F04CC00E944C138091D107909132
:103AD000D207019769F46AE070E080E090E00E940C
:103AE000F1120E944C1383E893E00E94BF08EDCFCF
:103AF0000E944C138DE893E00E94BF088091B807A4
:103B00009091B907009759F481E090E09093B9073C
:103B10008093B80740E050E064EF71E00DC0813061
:103B2000910569F4F092B907E092B80746E950E0D0
:103B300064EF71E082E090E00E94381402C00297C6
:103B400019F387E993E00E942A108091B8079091B9
:103B5000B9070E942C1082E893E00E94BF080E94DF
:103B60004C138091B8079091B907892B89F562E3CE
:103B700070E080E090E00E94F1120E940C0C67CF90
:103B80008091CF079091D007019789F70E944C133D
:103B9000219664E670E080E090E00E94F112CA3065
:103BA000D105B1F448EC50E068EE73E081E090E0BC
:103BB0000E94381444E650E069EE70E083E090E043
:103BC0000E9438148091B8079091B9070E940502AD
:103BD0008091D1079091D207892B91F2C8CF809123
:103BE000A4069091A5060C94A7220E94371E08F403
:103BF00081E00895E89409C097FB3EF49095809584
:103C0000709561957F4F8F4F9F4F9923A9F0F92FA2
:103C100096E9BB279395F695879577956795B79520
:103C2000F111F8CFFAF4BB0F11F460FF1BC06F5F06
:103C30007F4F8F4F9F4F16C0882311F096E911C018
:103C4000772321F09EE8872F762F05C0662371F039
:103C500096E8862F70E060E02AF09A95660F771F4D
:103C6000881FDAF7880F9695879597F90895990F29
:103C70000008550FAA0BE0E8FEEF16161706E80736
:103C8000F907C0F012161306E407F50798F0621B57
:103C9000730B840B950B39F40A2661F0232B242B2C
:103CA000252B21F408950A2609F4A140A6958FEF4B
:103CB000811D811D08950E946E1E0C94DF1E0E94BE
:103CC000D11E38F00E94D81E20F0952311F00C94DC
:103CD000C81E0C94CE1E11240C94131F0E94F01EBB
:103CE00070F3959FC1F3950F50E0551F629FF0014F
:103CF000729FBB27F00DB11D639FAA27F00DB11D68
:103D0000AA1F649F6627B00DA11D661F829F2227F0
:103D1000B00DA11D621F739FB00DA11D621F839F77
:103D2000A00D611D221F749F3327A00D611D231F4D
:103D3000849F600D211D822F762F6A2F11249F579B
:103D400050409AF0F1F088234AF0EE0FFF1FBB1F9E
:103D5000661F771F881F91505040A9F79E3F51055D
:103D600080F00C94C81E0C94131F5F3FE4F3983E40
:103D7000D4F3869577956795B795F795E7959F5F07
:103D8000C1F7FE2B880F911D9695879597F9089599
:103D900097F99F6780E870E060E008959FEF80ECFE
:103DA000089500240A9416161706180609060895A1
:103DB00000240A9412161306140605060895092E07
:103DC0000394000C11F4882352F0BB0F40F4BF2B76
:103DD00011F460FF04C06F5F7F4F8F4F9F4F0895B6
:103DE00057FD9058440F551F59F05F3F71F04795AC
:103DF000880F97FB991F61F09F3F79F08795089591
:103E0000121613061406551FF2CF4695F1DF08C0AF
:103E1000161617061806991FF1CF869571056105CC
:103E200008940895E894BB2766277727CB0197F974
:103E30000895052E97FB1EF400940E94301F57FD35
:103E400007D00E94381F07FC03D04EF40C94301F9B
:103E500050954095309521953F4F4F4F5F4F0895B6
:103E600090958095709561957F4F8F4F9F4F0895E6
:103E7000A1E21A2EAA1BBB1BFD010DC0AA1FBB1F6E
:103E8000EE1FFF1FA217B307E407F50720F0A21BE0
:103E9000B30BE40BF50B661F771F881F991F1A944D
:103EA00069F760957095809590959B01AC01BD0177
:103EB000CF010895991B79E004C0991F961708F067
:103EC000961B881F7A95C9F780950895EE0FFF1FFE
:103ED000881F8BBF0790F691E02D19945058BB278F
:103EE000AA270E94861F0C94DF1E0E94D11E38F064
:103EF0000E94D81E20F039F49F3F19F426F40C9448
:103F0000CE1E0EF4E095E7FB0C94C81EE92F0E942C
:103F1000F01E58F3BA17620773078407950720F05D
:103F200079F4A6F50C94121F0EF4E0950B2EBA2F1F
:103F3000A02D0B01B90190010C01CA01A0011124AF
:103F4000FF27591B99F0593F50F4503E68F11A165B
:103F5000F040A22F232F342F4427585FF3CF4695EC
:103F600037952795A795F0405395C9F77EF41F160E
:103F7000BA0B620B730B840BBAF09150A1F0FF0FD8
:103F8000BB1F661F771F881FC2F70EC0BA0F621FC4
:103F9000731F841F48F4879577956795B795F795B4
:103FA0009E3F08F0B0CF9395880F08F09927EE0F49
:103FB0009795879508950E94EF1F0C94DF1E0E942D
:103FC000D81E58F00E94D11E40F029F45F3F29F01E
:103FD0000C94C81E51110C94131F0C94CE1E0E94F9
:103FE000F01E68F39923B1F3552391F3951B550BFC
:103FF000BB27AA2762177307840738F09F5F5F4FBC
:10400000220F331F441FAA1FA9F335D00E2E3AF0FA
:10401000E0E832D091505040E695001CCAF72BD012
:10402000FE2F29D0660F771F881FBB1F2617370763
:104030004807AB07B0E809F0BB0B802DBF01FF2795
:1040400093585F4F3AF09E3F510578F00C94C81E8C
:104050000C94131F5F3FE4F3983ED4F38695779555
:104060006795B795F7959F5FC9F7880F911D96954E
:10407000879597F90895E1E0660F771F881FBB1FAA
:10408000621773078407BA0720F0621B730B840B57
:10409000BA0BEE1F88F7E09508950E9454206894AB
:1040A000B1110C94131F08950E94F81E88F09F57B9
:1040B00098F0B92F9927B751B0F0E1F0660F771F4C
:1040C000881F991F1AF0BA95C9F714C0B13091F042
:1040D0000E94121FB1E008950C94121F672F782FD1
:1040E0008827B85F39F0B93FCCF386957795679507
:1040F000B395D9F73EF490958095709561957F4F73
:104100008F4F9F4F08950E94371E08F48FEF089538
:10411000FA01EE0FFF1F309621053105A1F161155F
:10412000710561F48038BFE39B0749F168949038CA
:10413000810561F08038BFEF9B0741F099234AF574
:10414000FF3FE1053105210519F1E8940894E79551
:10415000D901AA2329F4AB2FBE2FF85FD0F310C0EA
:10416000FF5F70F4A695E0F7F73950F019F0FF3AC9
:1041700038F49F779F930DD00F9007FC90580895C7
:1041800046F00C94CE1E60E070E080E89FE3089556
:104190004FE79F775F934F933F932F930E94882120
:1041A0002F913F914F915F910E945B1E0C94E520EF
:1041B0000E94371E880B990B089529F416F00C9471
:1041C000C81E0C94121F0C94CE1E0E94F81EA8F359
:1041D0009638A0F707F80F92E8942BE33AEA48EBF9
:1041E0005FE70E94711E0F920F920F924DB75EB75C
:1041F0000F920E94D021ECE2F1E00E9417214F9132
:104200005F91EF91FF91E595EE1FFF1F49F0FE577B
:10421000E0684427EE0F441FFA95E1F74195550BEE
:104220000E944A210F9007FE0C943E210895DF93CF
:10423000CF931F930F93FF92EF92DF927B018C013C
:10424000689406C0DA2EEF010E946E1EFE01E8940B
:10425000A5912591359145915591A6F3EF010E94C5
:10426000861FFE019701A801DA9469F7DF90EF90AD
:10427000FF900F911F91CF91DF9108959B01AC01A9
:1042800060E070E080E89FE30C94DB1F0C94C81E94
:104290000C9404220E94F81ED8F39923C9F3940FBA
:1042A000511DA3F39150504094F059F0882332F0FF
:1042B000660F771F881F91505040C1F79E3F5105F0
:1042C0002CF7880F911D9695879597F908955F3F74
:1042D000ACF0983E9CF0BB27869577956795B7958F
:1042E00008F4B1609395C1F7BB0F58F711F460FF64
:1042F000E8CF6F5F7F4F8F4F9F4FE3CF0C94131F1B
:1043000016F00C9404220C94CE1E68940C94C81ED3
:104310000E94F81EA8F39923C1F3AEF3DF93CF9365
:104320001F930F93FF92C92FDD2788232AF021972F
:10433000660F771F881FDAF720E030E040E85FEB78
:104340009FE3883920F0803E38F021968F770E94D5
:104350006F1FE4E5F1E004C00E946F1FE1E8F1E0A7
:104360000E9417218B01BE01EC01FB2E6F577109D2
:104370007595771F880B990B0E94FC1D28E132E789
:1043800041E35FE30E946E1EAF2D9801AE01FF90E6
:104390000F911F91CF91DF910E94861F0C94DF1E19
:1043A000FA01DC01AA0FBB1F9B01AC01BF5728F427
:1043B000222733274427507820C0B75190F4AB2FE1
:1043C0000024469537952795011CA395D2F300202C
:1043D00071F0220F331F441FB395DAF30ED00C9403
:1043E0006E1F61307105A0E88A07B94630F49B0161
:1043F000AC016627772788279078309621F02083B4
:1044000031834283538308959F3F31F0915020F4CC
:10441000879577956795B795880F911D96958795A0
:1044200097F90895CF93DF938230910510F482E0DD
:1044300090E0E0918608F091870820E030E0C0E04D
:10444000D0E0309711F14081518148175907C0F0F1
:104450004817590761F482819381209719F09B8353
:104460008A832BC0909387088093860826C02115E5
:10447000310519F04217530718F49A01BE01DF0104
:10448000EF010280F381E02DDCCF2115310509F128
:10449000281B390B2430310590F412968D919C9194
:1044A00013976115710521F0FB019383828304C08A
:1044B0009093870880938608FD01329644C0FD01E1
:1044C000E20FF31F81939193225031092D933C9376
:1044D0003AC02091840830918508232B41F4209123
:1044E00005023091060230938508209384082091BC
:1044F0000302309104022115310541F42DB73EB776
:104500004091070250910802241B350BE09184086A
:10451000F0918508E217F307A0F42E1B3F0B281734
:10452000390778F0AC014E5F5F4F2417350748F02C
:104530004E0F5F1F50938508409384088193919399
:1045400002C0E0E0F0E0CF01DF91CF9108950F933A
:104550001F93CF93DF93009709F48CC0FC0132972F
:1045600013821282009186081091870801151105A7
:1045700081F420813181820F931F20918408309132
:1045800085082817390779F5F0938508E0938408A2
:1045900071C0D80140E050E0AE17BF0750F412964A
:1045A0002D913C911397AD012115310509F1D901E8
:1045B000F3CF9D01DA013383228360817181860FFD
:1045C000971F8217930769F4EC0128813981260F20
:1045D000371F2E5F3F4F318320838A819B819383D6
:1045E0008283452B29F4F0938708E093860842C024
:1045F0001396FC93EE931297ED01499159919E0108
:10460000240F351FE217F30771F480819181840F25
:10461000951F029611969C938E9382819381139697
:104620009C938E931297E0E0F0E0D80112968D9162
:104630009C911397009719F0F8018C01F6CF8D919A
:104640009C9198012E5F3F4F820F931F2091840809
:10465000309185082817390769F4309729F41092AA
:1046600087081092860802C0138212821093850870
:1046700000938408DF91CF911F910F9108956F925D
:104680007F928F929F92AF92BF92CF92DF92EF92E2
:10469000FF920F931F93CF93DF93EC01009789F460
:1046A000CB01DF91CF911F910F91FF90EF90DF90A1
:1046B000CF90BF90AF909F908F907F906F900C9411
:1046C0001222FC01E60FF71F9C0122503109E2176C
:1046D000F30708F4ACC0D9010D911C91119706178E
:1046E0001707B0F00530110508F49FC0C801049702
:1046F0008617970708F499C002501109061B170B7B
:10470000019311936D937C93CF010E94A7228DC0DA
:104710005B01A01AB10A4C01800E911EA09186087F
:10472000B091870840E050E0E12CF12C109709F49B
:104730004AC0A815B905D1F56D907C901197630119
:1047400082E0C80ED11CCA14DB0480F1A3014A190F
:104750005B096A0182E0C80ED11C1296BC901297C8
:104760001396AC91B5E0CB16D10440F0B282A3838E
:1047700051834083D9016D937C930AC00E5F1F4F14
:10478000C301800F911FF90191838083EB2DFA2FD4
:10479000E114F10431F0D7011396FC93EE931297D4
:1047A00044C0F0938708E09386083FC08D919C91A8
:1047B00011974817590708F4AC017D0112960D9026
:1047C000BC91A02DB3CF8091840890918508881565
:1047D0009905E1F446175707C8F4809103029091B8
:1047E0000402009741F48DB79EB7409107025091A3
:1047F0000802841B950BE817F907C8F4F0938508A5
:10480000E0938408F901718360830FC0CB010E949B
:1048100012227C01009759F0A801BE010E942D24AC
:10482000CE010E94A722C70104C0CE0102C080E0D1
:1048300090E0DF91CF911F910F91FF90EF90DF906B
:10484000CF90BF90AF909F908F907F906F90089582
:1048500081E090E0F8940C943D24FB01DC0102C05F
:1048600001900D9241505040D8F70895FB01DC01B2
:1048700001900D920020E1F7089511E0C1EDD1E023
:1048800000E006C0802FFE010E94661F2196011DD8
:0E489000C23DD10780E00807A9F7F894FFCFDA
:10489E000100FF00008808200000000000BA0F8A07
:1048AE000F9816660F2C0F760F670F00000000A3EF
:1048BE000BE30A270BEA0B580B360B4A0B000000D2
:1048CE0000C616E30A981697166D6F6465203120A0
:1048DE0073656C656374696F6E6E6500626F756388
:1048EE006C65203100736F7274696520626F756339
:1048FE006C652032004A65207375697320736F7280
:10490E00746965206465206C612063616C697373E2
:10491E0020646520666F6E6374696F6E20706973B4
:10492E0020736F72746965203D2033002061333A25
:10493E0020002061343A20002061353A20002061A9
:10494E00363A20004A652063686572636865207593
:10495E006E65206C69676E652028736F7274696569
:10496E00203329006C69676E652074726F757665E9
:10497E000020536F727469653A20006D6F64652074
:10498E00322073656C656374696F6E6E65000973B2
:10499E00746177703A20000920006469726563744F
:1049AE00696F6E3A20005354415750004A27617682
:1049BE00616E63652043522A5353004265656565F7
:1049CE006570204265656565657020426565656543
:1049DE00657000547269626F726420746F757465CD
:1049EE00202364726F697465004261626F72642085
:1049FE00746F75746520234761756368650074650F
:104A0E006D70203D2000626F75636C65206431000F
:104A1E000D0A004320656E666F6E6365004320725B
:104A2E00656C6163686500094D6F646520006E6199
:0A4A3E006E00696E66006F76660078
:00000001FF
