:100000000C94D2010C9403020C9403020C9403028E
:100010000C9403020C9403020C9403020C9403024C
:100020000C9403020C94F00D0C94F00D0C94F00D54
:100030000C9403020C94B6170C9403020C94030264
:100040000C9403020C9497150C9403020C94030275
:100050000C9403020C9403020C9403020C946C178E
:100060000C9403020C948F120C9404130C9403024E
:100070000C9403020C9403020C9403020C940302EC
:100080000C9403020C9403020C9403020C940302DC
:100090000C9403020C9403020C9403020C94FA0DCA
:1000A0000C9403020C9403020C9403020C940302BC
:1000B0000C9403020C9403020C9403020C94971307
:1000C0000C9403020C9403020C9403020C9465122A
:1000D0000C94DA120C9403020C947F180C945518AB
:1000E0000C9403029610991088108C109210D01066
:1000F0009D10A110A710AB10AF10B510B910BD1016
:10010000D010C310C710CB10DE14E314E814F2149F
:10011000FC14751506150E15161520152A1534151F
:1001200043154D157515571561156B150763423647
:10013000B79BD8A71A39685618AEBAAB558C1D3C78
:10014000B7CC5763BD6DEDFD753EF6177231BF003C
:100150000000803F08000000BE922449123EABAA76
:10016000AA2ABECDCCCC4C3E00000080BEABAAAAD1
:10017000AA3E00000000BF000000803F0000000019
:1001800000084178D3BB4387D1133D190E3CC3BD52
:100190004282AD2B3E68EC8276BED98FE1A93E4CFF
:1001A00080EFFFBE01C4FF7F3F00000000000C9401
:1001B000BD100C9420150C94B5100C94E8140C94FC
:1001C00092100C94F2140C946B150C94C7100C94B0
:1001D000C3100C94CB100C944C0C0C94AF100C94DA
:1001E000D0100C9406150C945D1C0C9475130C9493
:1001F000F9110C94F8110C949D110C947C0C0C9436
:10020000A7100C9496100C94AB100C9457150C94EA
:1002100088100C947A110C94280C0C94821A0C946B
:1002200034150C94B9100C9499100C94DE140C94A1
:100230000E150C944D150C9416150C9475150C9404
:100240002A150C94FC140C94A1100C94290C0C94F9
:10025000AB110C948C100C9461150C9443150C94F8
:100260009D100C9427120C9489110C94EE0B0C9495
:100270002E130C94E3140C94FB160C94380C000011
:100280002100240027002A002D0030003300010146
:100290000000040107010A010000220025002800D7
:1002A0002B002E003100340002010000050108017E
:1002B0000B010505050507050808080802020202EA
:1002C0000A0A0808040404040101010101010101F2
:1002D0000303030303030303040707070C0C0C0CBD
:1002E0000C0C0C0C020202020606060606060606A6
:1002F0000B0B0B0B0B0B0B0B010210202008081033
:100300002040102040800201020108040201010285
:10031000040810204080804020100804020180045E
:1003200002018040201008040201080402010102B9
:1003300004081020408001020408102040800000C2
:100340000A0B02090C0D0E0807030401000000004F
:10035000000000000000000000000000000000009D
:10036000000000000000000000001211100000005A
:10037000000000000000000000000000000000007D
:1003800000000000000020002300260029002C00AF
:100390002F003200000100000301060109010200E4
:1003A000821A5D1C11241FBECFEFD1E2DEBFCDBF8C
:1003B00000E00CBF13E0A0E0B2E0ECE1FBE400E001
:1003C0000BBF02C007900D92AA3DB107D9F728E0F4
:1003D000AAEDB3E001C01D92A83BB207E1F711E01E
:1003E000C1EDD1E000E006C021970109802FFE0198
:1003F0000E94A520C03DD10780E00807A9F70E9410
:10040000631C0C947C250C9400002F923F924F9219
:100410005F926F927F928F929F92AF92BF92CF9294
:10042000DF92EF92FF920F931F93CF93DF93CDB79D
:10043000DEB72B970FB6F894DEBF0FBECDBF9887FF
:100440008F831A82198282E0282E312C2F813885E1
:100450002130310509F048C389E392E00E94CA09BE
:1004600061E08EE20E94D1100E94A90F8091EC07FA
:100470009091ED07019709F025C30E94741989E056
:1004800090E00E940D1920E030E040E251E40E942B
:10049000341F87FFC2C00E945D1940E050E06CED40
:1004A00075E081E090E00E94C31889E090E00E942E
:1004B0000D1920E030E048EC51E40E94C2211816EA
:1004C00034F40E945D1981E090E00E9405020E94D0
:1004D000741989E090E00E940D1920E030E048ECAA
:1004E00051E40E94341F18168CF04DEC5CEC6CE467
:1004F0007EEB86EB97E00E947E144DEC5CEC6CE4A6
:100500007EE388EB97E00E947E14E3CF0E945D19A2
:100510000E9474198AEB97E00E9471168AEB97E0AB
:100520000E94461600E010E08CE492E00E94CA09A6
:10053000012B51F40E945D1946E950E060E971E039
:1005400081E090E00E94C3184AE959E969E97EE335
:1005500086EB97E00E947E1440E050E060E070E897
:1005600088EB97E00E947E140E94741988E090E066
:100570000E940D1901E010E020E030E040EF51E46E
:100580000E94341F87FFD0CF02E010E08CE592E09C
:100590000E94CA090E947419E12CF12C88E090E0B5
:1005A0000E940D1920E030E048EC52E40E94341F14
:1005B00087FD5EC4CAC40E94FC180E9474198CEAAC
:1005C0009DE00E94CB190E9474190E945D1946E9B2
:1005D00050E06AEF70E082E090E00E94C3180E9451
:1005E000330B4DEC5CEC6CE47EE386EB97E00E9411
:1005F0007E144DEC5CEC6CE47EEB88EB97E00E94A3
:100600007E140E94741983E090E09093DB03809342
:10061000DA0385E692E00E94CA0980E00E945B113D
:100620002C0181E00E945B114C0182E00E945B1171
:100630009C838B8383E00E945B117C0184E00E9499
:100640005B118C0185E00E945B113C0186E00E94F9
:100650005B116C0187E00E945B115C0140E050E09F
:1006600060E87EE386EB97E00E947E1440E050E075
:1006700060E87EEB88EB97E00E947E148CE992E0C4
:100680000E94C00DC7010E94C20D0E94C60982EAE5
:1006900092E00E94C00DC8010E94C20D0E94C609CE
:1006A00088EA92E00E94C00DC3010E94C20D0E9420
:1006B000C6098EEA92E00E94C00DC6010E94C20DDA
:1006C0000E94C6090E94C6090E9474198091DA032B
:1006D0009091DB03039709F087C084EB92E00E94BE
:1006E000CA090E9474194DEC5CEC6CE47EE386EB65
:1006F00097E00E947E144DEC5CEC6CE47EEB88EBA2
:1007000097E00E947E1420E040E050E0822F2B878B
:1007100049875A870E945B112B8549855A858935FF
:10072000924014F041E050E02F5F283079F74130DB
:10073000510561F60E94741984ED92E00E94CA0985
:100740004DEC5CEC6CE47EE386EB97E00E947E145B
:100750004DEC5CEC6CE47EEB88EB97E00E947E1441
:100760000E94741966E970E080E090E00E94321700
:100770000E945D1946E950E060E971E081E090E097
:100780000E94C3180E9474194DEC5CEC6CE47EE38B
:1007900088EB97E00E947E144DEC5CEC6CE47EE309
:1007A00086EB97E00E947E1464EF71E080E090E0B9
:1007B0000E9432170E94741983E00E945B118039F5
:1007C00091403CF484E00E945B11803991400CF42C
:1007D000ACC41092DB031092DA0362E370E080E0B5
:1007E00090E00E94321770CF31E9431631E0530692
:1007F0000CF45CC041E9841641E094060CF45DC041
:100800002B813C81213931400CF479C551E9E51641
:1008100051E0F5060CF496C4013981E018070CF498
:1008200012C191E9691691E079060CF4B2C0E1E9D0
:10083000CE16E1E0DE060CF451C0F1E9AF16F1E0AE
:10084000BF060CF44BC040E050E0BA0186EB97E0E5
:100850000E947E1440E050E060E070E888EB97E092
:100860000E947E1448EC50E068EC70E081E090E07B
:100870000E94C31848EC50E060E971E081E090E02C
:100880000E94C31848EC50E068E572E081E090E017
:100890000E94C31840E050E060E273E081E090E025
:1008A0000E94C318E0E0F0E0199518C0F1E9EF16D6
:1008B000F1E0FF060CF02AC545C4E1E9EE16E1E0DF
:1008C000FE060CF43FC4013921E012070CF45BC0B2
:1008D00021E9621621E072060CF44FC031E9C3161B
:1008E00031E0D3060CF449C041E9A41641E0B40656
:1008F0000CF443C050E9451651E05506F4F58091DB
:10090000DA039091DB03039709F416C44DEC5CEC19
:100910006CE47EE386EB97E00E947E144DEC5CEC89
:100920006CE47EEB88EB97E00E947E1466E970E051
:1009300080E090E00E9432170E945D1946E950E085
:100940006AEF70E082E090E00E94C3184DEC5CEC2E
:100950006CE47EEB88EB97E00E947E144DEC5CEC3F
:100960006CE47EEB86EB97E00E947E1468EE73E009
:1009700080E090E00E943217DFC381E9481681E0F1
:1009800058060CF45AC091E9891691E099060CF4C6
:1009900054C02B813C81213931400CF44EC051E9C7
:1009A000E51651E0F5060CF4CDC3013981E01807D6
:1009B0000CF449C090E9A91691E0B9060CF043C0C7
:1009C0008091DA039091DB030397E9F14DEC5CEC45
:1009D0006CE47EE386EB97E00E947E144DEC5CECC9
:1009E0006CE47EEB88EB97E00E947E1466E970E091
:1009F00080E090E00E9432170E945D1946E950E0C5
:100A000060E971E081E090E00E94C3184DEC5CEC7D
:100A10006CE47EE388EB97E00E947E144DEC5CEC86
:100A20006CE47EE386EB97E00E947E1468EE73E050
:100A300080E090E00E94321706C0E1E9EE16E1E0A6
:100A4000FE060CF47FC30139F1E01F070CF4BFC3AD
:100A500040E050E060E87EE386EB97E00E947E1481
:100A600040E050E060E87EEB88EB97E00E947E1467
:100A700021E9C21621E0D20634F041E050E0509363
:100A8000DB034093DA0351E9A51651E0B50634F0D3
:100A900081E090E09093DB038093DA0391E989167B
:100AA00091E0990624F03092DB032092DA03E1E929
:100AB0004E16E1E05E060CF48AC33092DB0320920E
:100AC000DA0385C340E050E0BA0186EB97E00E946C
:100AD0007E1440E050E060E070E888EB97E00E9410
:100AE0007E140E9474196CC18F819885029709F059
:100AF00067C18BEE92E00E94CA098091EC07909149
:100B0000ED07019709F055C16AE070E080E090E0E0
:100B10000E94321789E090E00E940D1920E030E039
:100B200040EA51E40E94341F87FF20C00E94A90FB1
:100B30008091E4079091E5078E3B9105BCF040E081
:100B400050E0BA0186EB97E00E947E1440E050E04E
:100B500060E070E888EB97E00E947E1446E950E080
:100B60006EEE72E082E090E00E94C3188EEF92E099
:100B70000E94C00D80910002909101020E94C20D5E
:100B800087E093E00E94C00D8AE093E00E94C00DD0
:100B90008091DC039091DD030E94C20D87E093E019
:100BA0000E94C00D8091E2079091E307AC014D5384
:100BB00051092091E4073091E5074138510508F0CB
:100BC00089C0A9014D5351094138510508F082C02F
:100BD00086E193E00E94CA0980910002909101028F
:100BE000892B09F063C00091DC031091DD03B8018B
:100BF000012E000C880B990B0E943B1F2DEC3CEC46
:100C00004CEC5EE30E949A1F6B017C0101301105E0
:100C1000F1F420E030E0A901C701B6010E94C22131
:100C20001816C4F42DEC3CEC4CEC5DE3C701B601A6
:100C30000E94AD206B017C019B01AC010E94AC18AD
:100C400064E670E080E090E00E943217E2CF0F3F50
:100C50001F4F71F020E030E0A901CA01B9010E94E4
:100C6000AC18E1E0F0E0F0930102E09300021EC056
:100C700020E030E0A901C701B6010E94341F87FFC0
:100C8000E9CF2DEC3CEC4CEC5DE3C701B6010E94D2
:100C9000AE206B017C019B01AC010E94AC1864E6A4
:100CA00070E080E090E00E943217E2CF8091000275
:100CB00090910102029739F420E030E0A901CA01C5
:100CC000B9010E94AC1821E030E03093010220937A
:100CD000000276C02E3B3105BCF02DEC3CEC4CEC18
:100CE0005EE3CA01B9010E94AC1841E050E05093A4
:100CF000DD034093DC0310920102109200028CE1AC
:100D000093E00E94CA095CC02D3331059CF48BE24C
:100D100093E00E94CA098FEF9FEF9093DD038093C9
:100D2000DC0310920102109200022DEC3CEC4CEC22
:100D30005EEB42C08E3B9105E4F083E493E00E94B9
:100D4000CA0930920102209200026091DC03709186
:100D5000DD03072E000C880B990B0E943B1F2AE92C
:100D600039E949E95EE30E949A1F20E030E0A901D9
:100D700025C0CD972CF589E593E00E94CA093092F1
:100D80000102209200026091DC037091DD03072EC6
:100D9000000C880B990B0E943B1F2AE939E949E9AD
:100DA0005EE30E949A1F9B01AC0160E070E0CB0102
:100DB00005C020E030E0A901CA01B9010E94AC18C9
:100DC0000E94A90F64E670E080E090E00E94321774
:100DD0008091EE079091EF078130910531F4E98120
:100DE000FA813196FA83E98304C0892B11F41A82BF
:100DF00019828EE693E00E94C00D89819A810E943B
:100E0000C20D0E94C60929813A812B3031050CF4AC
:100E10001DCB40E050E0BA0186EB97E00E947E14C3
:100E200040E050E060E070E888EB97E00E947E14BC
:100E300044E650E068EC70E085E090E02B960FB659
:100E4000F894DEBF0FBECDBFDF91CF911F910F9100
:100E5000FF90EF90DF90CF90BF90AF909F908F90DA
:100E60007F906F905F904F903F902F900C94C3189D
:100E700085EA93E00E94CA094AE959E969E97EE3F3
:100E800086EB97E00E947E1440E050E060E070E85E
:100E900088EB97E00E947E140E94741988E090E02D
:100EA0000E940D190E948C212B013C01072E000C81
:100EB000880B990B0E943B1F4B015C0188E090E07E
:100EC0000E940D199B01AC01C501B4010E94341FA1
:100ED00087FF38C088E090E00E940D19A5019401B9
:100EE0000E94AD2020E030E040E251E40E94341F37
:100EF00087FF28C086E793E00E94CA098CE893E048
:100F00000E94C00DC2010E94C20D82E993E00E94BE
:100F1000CA0988E090E00E940D1942E00E94EC0CA2
:100F200086E793E00E94CA093FEFE31AF30A62E3FF
:100F300070E080E090E00E94321733E0E316F104A5
:100F400024F42CCBE12CF12CF2CF40E050E0BA019C
:100F500086EB97E00E947E1440E050E0BA0186EBF9
:100F600097E00E947E140130110519F001E010E0B5
:100F70000DCB85E592E00E94CA0940E050E0BA013D
:100F800086EB97E00E947E144AE959E969E97EEB15
:100F900088EB97E00E947E146CE271E080E090E0C4
:100FA0000E9432170E945D190E9474190E947419E0
:100FB00088E090E00E940D190E948C21CB010F96D1
:100FC0009C01990F440B550B2B833C834D835E830F
:100FD0004B0133E0830E911C092C000CAA08BB08BE
:100FE0006B0143E0C41AD1080D2C000CEE08FF0879
:100FF00088E090E00E940D192B013C016B817C81FF
:101000008D819E810E943B1F9B01AC01C301B201F7
:101010000E94341F87FF36C00E94741988E090E058
:101020000E940D192B013C01C501B4010E943B1F18
:101030009B01AC01C301B2010E94C221181694F0B9
:1010400088E090E00E940D192B013C01C701B60118
:101050000E943B1F9B01AC01C301B2010E94341FDF
:1010600087FF07C00E94741988E090E00E940D1964
:10107000BFCF6AE979E989E99EE30E94210A0E94CB
:101080007419B6CF0E945D190E9474190E945D19EF
:101090000E94741980ED97E00E94CB190E94741988
:1010A0000E94FC180E945D1946E950E06AEF70E06A
:1010B00082E090E00E94C3180E94330B0E947419D2
:1010C00084E991E10E94CB190E9474190E94FC18D6
:1010D00088E090E00E940D196B017C0188E090E0AF
:1010E0000E940D194B015C0120E030E040E751E423
:1010F000C701B6010E94AE209B01AC01C501B4013D
:101100000E94341F87FF57CA4DEC5CEC6CE47EE311
:1011100086EB97E00E947E144DEC5CEC6CE47EEB79
:1011200088EB97E00E947E14D9CF64EF71E080E0F5
:1011300090E00E9432174DCB41E9E41641E0F406FD
:101140000CF086CC50E9E51651E0F5060CF0C9CC60
:10115000013991E019070CF474C04DEC5CEC6CE4BF
:101160007EEB88EB97E00E947E144DEC5CEC6CEC1F
:101170007DE386EB97E00E947E14E1E9CE16E1E084
:10118000DE0634F021E030E03093DB032093DA0315
:1011900031E9A31631E0B30634F041E050E050935A
:1011A000DB034093DA0351E9851651E0950624F0FC
:1011B0003092DB032092DA0381E9481681E0580679
:1011C0000CF43FC03092DB032092DA038ACC003962
:1011D00011400CF086CC4DEC5CEC6CE47EE386EBCD
:1011E00097E00E947E144DEC5CEC6CEC7DEB88EBA0
:1011F00097E00E947E14F1E9CF16F1E0DF0634F0AB
:1012000021E030E03093DB032093DA0331E9A316C9
:1012100031E0B30634F041E050E05093DB034093FB
:10122000DA0351E9851651E0950624F03092DB038C
:101230002092DA0381E9481681E058060CF451CC7B
:10124000C1CF003911400CF04CCC91E9691691E006
:10125000790634F0E1E0F0E0F093DB03E093DA03A9
:10126000F1E9CF16F1E0DF0634F021E030E0309311
:10127000DB032093DA032B813C812139314024F0B8
:101280003092DB032092DA0351E9851651E095068E
:1012900024F03092DB032092DA0381EE92E00E9488
:1012A000C00D8091DA039091DB030E94C20D0E9471
:1012B000C6098091DA039091DB038130910579F4BE
:1012C0004DEC5CEC6CE47EEB88EB97E00E947E14C6
:1012D0004DEC5CEC6CE47EEB86EB97E000CC029787
:1012E00009F0FFCB4DEC5CEC6CE47EE386EB97E021
:1012F0000E947E144DEC5CEC6CE47EE3EECBF1E9F5
:10130000EF16F1E0FF060CF0DECA1CCF013931E028
:1013100013070CF0DDCA97CBE8E2F5E0A089B189AC
:1013200082E08C93A485B5851C92A685B7858FEC49
:101330008C93108EA489B58986E08C93A289B38999
:101340008C9180618C93A289B3898C9188608C93F5
:10135000A289B3898C9180688C930288F389E02DEF
:1013600080818F7D80830895009769F0FC01019052
:101370000020E9F73197AF01481B590BBC0188E207
:1013800095E00C94FB1680E090E008958FEA93E0DE
:101390000C94B409CF93DF930E94B409EC010E942E
:1013A000C6098C0F9D1FDF91CF910895EF92FF9298
:1013B0001F93CF93DF931F92CDB7DEB7162F9DE912
:1013C000E92E97E0F92ED7011C969C911C9721E0FD
:1013D0002093E1039093E0031092DF031092DE0369
:1013E0001A960D90BC91A02DED91FC911197019052
:1013F000F081E02D682FCD0179831995F701828561
:101400009385DC01ED91FC910190F081E02D7981D3
:10141000672F1995F70182859385DC01ED91FC9189
:101420000190F081E02D612F199561E0F70182852F
:1014300093850F90DF91CF911F91FF90EF900C94C7
:101440002C0F4F925F926F927F928F929F92AF92EA
:10145000BF92CF92DF92EF92FF92CF93DF9300D0B3
:101460001F92CDB7DEB76B017C018AEB97E00E943B
:10147000711690958095709561957F4F8F4F9F4F16
:101480000E943B1F2B013C016093DC077093DD073A
:101490008093DE079093DF078CEB97E00E94711634
:1014A0000E943B1F69837A838B839C836093D80758
:1014B0007093D9078093DA079093DB079B01AC0107
:1014C000C301B2010E94AD204B015C016093D407BF
:1014D0007093D5078093D6079093D70720E030E02C
:1014E00040EA50E40E94341F87FD26C020E030E02F
:1014F00040E251E4C501B4010E94341F87FD25C0BC
:1015000020E030E040E751E4C501B4010E94341FFF
:1015100087FD23C020E030E040EA51E4C501B4017A
:101520000E94341F87FD22C04AE9842E49E9942E87
:10153000A92C4EE3B42E22C03DEC832E3CEC932E1E
:101540003CE4A32E3DE3B32E19C02DEC822E2CECEF
:10155000922EA92C2DE3B22E11C09AE9892E99E979
:10156000992E99E1A92E9EE3B92E08C08DEC882E04
:101570008CEC982E8CE4A82E8EE3B82E29813A812B
:101580004B815C81C301B2010E94C2211816ECF4A8
:10159000A501940160E070E080E89FE30E94AD2027
:1015A0009B01AC01C701B6010E949A1FAB01BC01AF
:1015B00086EB97E00E947E1420E030E040E85FE395
:1015C000C501B4010E94AE2026C029813A814B8119
:1015D0005C81C301B2010E94341F87FF25C020E057
:1015E00030E040E85FE3C501B4010E94AE209B01FA
:1015F000AC01C701B6010E949A1FAB01BC0186EB8A
:1016000097E00E947E14A501940160E070E080E8FC
:101610009FE30E94AD209B01AC01C701B6010E946F
:101620009A1FAB01BC0108C0B701A60186EB97E089
:101630000E947E14B701A601705888EB97E00F90C6
:101640000F900F900F90DF91CF91FF90EF90DF9070
:10165000CF90BF90AF909F908F907F906F905F9052
:101660004F900C947E148F929F92AF92BF92CF9224
:10167000DF92EF92FF928AEB97E00E9446168CEB86
:1016800097E00E9446164DEC5CEC6CEC7EEB88EB30
:1016900097E00E947E144DEC5CEC6CEC7EEB86EBEC
:1016A00097E00E947E148AEB97E00E947116909555
:1016B0008095709561957F4F8F4F9F4F0E943B1F84
:1016C0002FE031ED40E85FE30E949A1F0E948C21D9
:1016D0006B017C018CEB97E00E947116072E000CC9
:1016E000880B990B0E943B1F4B015C0120E030E40A
:1016F0004BEF54E40E94C22118163CF440E050E045
:10170000BA0186EB97E00E947E14B6010D2C000C06
:10171000880B990B0E943B1F20E030E44BEF54E410
:101720000E94C221181644F440E050E060E070E8E6
:1017300088EB97E00E947E146AE070E080E090E021
:101740000E94321720E030E44BEF54E4C501B401AD
:101750000E94341F87FD97CF662777276C197D0974
:10176000072E000C880B990B0E943B1F20E030E4F1
:101770004BEF54E40E94341F87FD85CF40E050E0DA
:10178000BA0186EB97E00E947E1440E050E060E0F2
:1017900070E888EB97E00E947E148AEB97E00E9445
:1017A00046168CEB97E00E94461664E670E080E0F7
:1017B00090E0FF90EF90DF90CF90BF90AF909F9020
:1017C0008F900C943217E0912805F0912905019033
:1017D000F081E02D682F88E295E019948091E00770
:1017E00090E02091E107821B9109089585ED809397
:1017F000BC008091BC0084FDFCCF10927F0808954E
:1018000040913208262F30E0240F311D213231055E
:10181000DCF420917F082430C9F4FC0180E090E0E2
:10182000861758F4309132082191DC01A05FB74F40
:10183000A30FB11D2C930196F3CF80913208680F4E
:101840006093320880E0089581E0089582E0089571
:101850000895E091E1078091E007E81730F4F0E0A7
:10186000E058F74F808190E008958FEF9FEF089543
:101870009091E1078091E007981750F4E92FF0E08C
:10188000E058F74F208130E09F5F9093E10702C05E
:101890002FEF3FEFC9010895CF92DF92EF92FF92B1
:1018A0000F931F93CF93DF937C01262F972F8A01ED
:1018B0008091E103882391F0C62FD72F6E01C40ECB
:1018C000D51ECC15DD0571F06991D701ED91FC9124
:1018D0000190F081E02DC7011995F3CF642F822F7D
:1018E0000E94000CC801DF91CF911F910F91FF90D2
:1018F000EF90DF90CF900895CF93DF931F92CDB7F5
:10190000DEB769832091E1032223D1F02091DE0329
:10191000203240F021E030E0FC013383228380E07C
:1019200090E015C08091DF03E82FF0E0E051F84F20
:10193000998190838F5F8093DF038093DE0305C0DE
:1019400061E0CE0101960E94000C81E090E00F90D2
:10195000DF91CF9108958F929F92AF92BF920F9394
:101960001F93CF93DF93CDB7DEB7A1970FB6F8944F
:10197000DEBF0FBECDBF19A2423008F44AE08E018F
:101980000F5D1F4F842E912CA12CB12CA501940129
:101990000E947720E62FB901CA0101501109EA30EF
:1019A00014F4E05D01C0E95CD801EC93232B242BF7
:1019B000252B61F7C8010E94B409A1960FB6F894CF
:1019C000DEBF0FBECDBFDF91CF911F910F91BF90B2
:1019D000AF909F908F9008954F925F926F927F92F9
:1019E0008F929F92AF92BF92CF92DF92EF92FF922F
:1019F0006B017C01B42E9B01AC010E94172288234D
:101A000019F082EB93E027C026013701E89477F8BC
:101A10002FEF3FEF4FE75FE7C301B2010E941722AC
:101A200081110DC02FEF3FEF4FE75FE7C301B20118
:101A30000E94341F18161CF486EB93E00CC02FEFA5
:101A40003FEF4FE75FE4C701B6010E94C2211816BD
:101A500084F48AEB93E0FF90EF90DF90CF90BF90FB
:101A6000AF909F908F907F906F905F904F900C946D
:101A7000B4092FEF3FEF4FE75FECC701B6010E94BB
:101A8000341F87FDE6CF20E030E0A901C701B60191
:101A90000E94341F87FF09C08DE20E94E30B4C01B6
:101AA000F7FAF094F7F8F09402C0812C912CA12C55
:101AB00060E070E080E09FE3AB1441F020E030E0B4
:101AC00040E251E40E941A21A394F6CF9B01AC019D
:101AD000C701B6010E94AE202B013C010E94932158
:101AE0006B017C010E94391F9B01AC01C301B20153
:101AF0000E94AD202B013C014AE0C701B6010E94C3
:101B0000AB0C7C01E80CF91CBB2029F08EE20E9492
:101B1000E30BE80EF91EDB2CDD2021F120E030E0A4
:101B200040E251E4C301B2010E949A1F2B013C0123
:101B30000E9493214B01A12CB12C4AE0C501B401B4
:101B40000E94AB0CE80EF91EC501B4010E94391FBA
:101B50009B01AC01C301B2010E94AD202B013C01ED
:101B6000DA94DACFC701FF90EF90DF90CF90BF906B
:101B7000AF909F908F907F906F905F904F9008955F
:101B80000C94B409CF92DF92EF92FF92CF93DF9340
:101B90006C01990FEE08FF08F7FE17C08DE20E9456
:101BA000E30BEC0166277727CB016C197D098E09C1
:101BB0009F094AE00E94AB0C8C0F9D1FDF91CF91D3
:101BC000FF90EF90DF90CF9008954AE0C701B601F3
:101BD000DF91CF91FF90EF90DF90CF900C94AB0C02
:101BE0001F920F920FB60F9211240F900FBE0F90FD
:101BF0001F9018951F920F920FB60F9211240BB6DB
:101C00000F922F933F934F935F936F937F938F9395
:101C10009F93AF93BF93EF93FF938091B900887F19
:101C2000803609F49CC068F5883209F45BC090F4F2
:101C3000803109F454C038F4882309F4F6C08830A0
:101C400009F44DC0F6C0883109F44CC0803209F463
:101C50005DC0EFC0803409F468C048F4803309F4F3
:101C600055C0883309F0E5C080937D08D8C0803521
:101C700009F44FC0883509F45DC0883409F0D9C033
:101C8000D6C0883909F4C7C0A8F4883709F467C0FA
:101C900038F4883609F463C0803709F460C0C9C0DD
:101CA000883809F4B8C0803909F45FC0803809F079
:101CB000C0C05BC0803B09F486C038F4803A09F4A8
:101CC00066C0883A09F47FC0B4C0803C09F4A7C05C
:101CD000883C09F4A4C0883B09F48AC0AAC080915A
:101CE0007A0810C090917C0880917B08981770F555
:101CF000E0917C0881E08E0F80937C08F0E0E75A49
:101D0000F74F80818093BB0085EC86C080937D086F
:101D10008EC0E0917C0881E08E0F80937C088091DA
:101D2000BB00F0E0E75AF74F808390917C088091E8
:101D30007B086EC0E0917C0881E08E0F80937C0868
:101D40008091BB00F0E0E75AF74F808380917E08D6
:101D500081116DC081E08093790884EA61C083E0DD
:101D600080937F0810925608CFCF8091560880321A
:101D700008F051C0E091560881E08E0F809356081C
:101D80008091BB00F0E0EA5CF74F8083BDCF85EC2B
:101D90008093BC0010927F0880915608803230F406
:101DA000E0915608F0E0EA5CF74F10826091560827
:101DB00070E0E0913408F091350886E398E01995D9
:101DC0001092560836C084E080937F081092330842
:101DD00010923208E0913008F09131081995809105
:101DE0003208811105C081E08093320810921008FA
:101DF000E091330881E08E0F80933308F0E0E05FDC
:101E0000F74F80818093BB00909133088091320816
:101E1000981708F479CF85E88093BC000AC085EC58
:101E20008093BC0010927F0804C010927D080E942D
:101E3000F60BFF91EF91BF91AF919F918F917F91A1
:101E40006F915F914F913F912F910F900BBE0F902B
:101E50000FBE0F901F9018952091DE039091E00324
:101E6000213208F049C080917F088111FCCF32E017
:101E700030937F0860937E083FEF30937D08109287
:101E80007C0820937B08A0EFB7E049E558E0FA0111
:101E90003E2F341B321718F43D913193F9CF109235
:101EA0007A0820917A08990F922B90937A08909152
:101EB0007908913061F41092790890917A089093A2
:101EC000BB009091BC0093FDF8CF95EC01C095EE5E
:101ED0009093BC0090917F089230E1F390917D083F
:101EE0009F3F79F080917D08803241F080917D089C
:101EF000803331F084E005C081E003C082E001C09E
:101F000083E01092DF031092DE031092E103089544
:101F1000CF93C82F81E08093E10382E58093E003B3
:101F20001092DF031092DE0382EE93E00E947C0C9D
:101F30006C2F82EE93E00E947C0C61E082EE93E0D5
:101F40000E942C0F6AE070E080E090E0CF910C944A
:101F50003217EF92FF921F93CF93DF93CDB7DEB787
:101F60002C970FB6F894DEBF0FBECDBF80917F08CF
:101F70008111FCCF81E080937F0880937E089FEFE2
:101F800090937D0810927C0895E090937B08809355
:101F90007A0880917A08846A80937A088091790817
:101FA000813061F41092790880917A088093BB00A7
:101FB0008091BC0083FDF8CF85EC01C085EE809355
:101FC000BC0080917F088130E1F380917C088630ED
:101FD00018F410917C0801C016E0A9E5B8E020E8EB
:101FE00038E0F9018E2F821B811718F48D918193AF
:101FF000F9CF1092E1071093E007CE0101967C0122
:102000008091E107181749F082EE93E00E94380CA6
:10201000F701819391937F01F3CF89819A81909306
:10202000E3078093E2078B819C819093E50780937F
:10203000E4078B859C859C013595279535952795DB
:10204000A901437055272D813E81220F331F220F96
:10205000331F242B352B3093E7072093E6079C0191
:1020600074E0359527957A95E1F7A90143705527D6
:102070002F813885220F331F220F331F242B352B3E
:102080003093E9072093E8079C01F6E03595279502
:10209000FA95E1F7A9014370552729853A85220F62
:1020A000331F220F331F242B352B3093EB07209344
:1020B000EA079C0121703327F1E02F273093ED07C9
:1020C0002093EC0721E030E081FF02C020E030E007
:1020D0003093EF072093EE0760E080E02C960FB678
:1020E000F894DEBF0FBECDBFDF91CF911F91FF905F
:1020F000EF900C94880F90E0FC013197E231F105EC
:1021000008F04EC08827EE58FF4F8F4F0C94A52043
:10211000809180008F7703C0809180008F7D8093B5
:102120008000089580918000877FF9CF84B58F77F4
:1021300002C084B58F7D84BD08958091B0008F77F3
:1021400003C08091B0008F7D8093B000089580918E
:1021500090008F7707C0809190008F7D03C08091A1
:102160009000877F8093900008958091A0008F77E2
:1021700007C08091A0008F7D03C08091A000877F61
:102180008093A0000895809120018F7707C08091EF
:1021900020018F7D03C080912001877F80932001E3
:1021A00008951F93CF93DF93282F30E0F901E25C6D
:1021B000FC4F8491F901E850FD4FD491F901EE54A0
:1021C000FD4FC491CC23C9F0162F81110E947B10C2
:1021D000EC2FF0E0EE0FFF1FE856FD4FA591B491F4
:1021E0008FB7F894111105C09C91ED2FE095E9236C
:1021F00002C0EC91ED2BEC938FBFDF91CF911F913B
:10220000089510927F0881E080937E0810927908EB
:1022100061E084E10E94D11061E085E10E94D1106B
:10222000E9EBF0E080818E7F808380818D7F8083E9
:1022300088E48093B80085E48093BC000895CF9330
:10224000DF9390E0FC01E850FD4F2491FC01EE5437
:10225000FD4F8491882361F190E0880F991FFC0164
:10226000E258FD4FC591D491FC01E856FD4FA59170
:10227000B491611109C09FB7F89488812095822399
:102280008883EC912E230BC0623061F49FB7F894E1
:102290003881822F809583238883EC912E2B2C9379
:1022A0009FBF06C08FB7F894E8812E2B28838FBF7D
:1022B000DF91CF910895863308F0865390917B008B
:1022C000282F2870977F922B90937B0087708064D3
:1022D00080937C0080917A00806480937A00809162
:1022E0007A0086FDFCCF809178002091790090E003
:1022F000922B0895FC01538D448D252F30E0842FBF
:1023000090E0821B930B541710F0CF96089501971D
:102310000895FC01918D828D981761F0828DDF0107
:10232000A80FB11D5D968C91928D9F5F9F73928FC8
:1023300090E008958FEF9FEF0895FC01918D828DBD
:10234000981731F0828DE80FF11D858D90E008958A
:102350008FEF9FEF0895FC01918D228D892F90E0E2
:10236000805C9F4F821B91098F73992708958BE89A
:1023700094E00E94AB1121E0892B09F420E0822F28
:10238000089588E295E00E94AB1121E0892B09F4C1
:1023900020E0822F089580E090E0892B21F00E94B8
:1023A000C111811119C080E090E0892B41F080E0DB
:1023B00090E0892B21F00E940000811110C00E9442
:1023C000B71181110FC080E090E0892B81F00E944D
:1023D000281781110AC008950E940000E4CF0E94CE
:1023E0000000EDCF0E94A918EECF0C9400000895D4
:1023F000089580E090E00895FC01248131E030935D
:10240000E1032093E0031092DF031092DE03848542
:10241000682B82EE93E00E947C0C61E082EE93E0F8
:102420000C942C0F0F931F93CF938C01C62F6460D5
:102430000E94FC116C2F6B7FC8010E94FC1183EC81
:1024400090E00197F1F7CF911F910F9108950F93AD
:102450001F93CF93DF938C01C62FD62FD07FD160EF
:102460006D2F0E94FC116D2FC8010E94121280E195
:10247000C89FB0011124C62FC1606C2FC8010E94F3
:10248000FC116C2FC8010E94121281E090E0DF91D4
:10249000CF911F910F910895FC01A089B1898C9172
:1024A000A689B78982FD0FC09C91818D8F5F8F7344
:1024B000228D821749F0218DDF01A20FB11D5D969B
:1024C0009C93818F08958C9108951F920F920FB65F
:1024D0000F9211240BB60F922F933F934F935F935C
:1024E0006F937F938F939F93AF93BF93EF93FF93DC
:1024F0008BE894E00E944C12FF91EF91BF91AF9155
:102500009F918F917F916F915F914F913F912F910B
:102510000F900BBE0F900FBE0F901F9018951F923B
:102520000F920FB60F9211240BB60F922F933F9379
:102530004F935F936F937F938F939F93AF93BF93CB
:10254000EF93FF9388E295E00E944C12FF91EF9188
:10255000BF91AF919F918F917F916F915F914F91BB
:102560003F912F910F900BBE0F900FBE0F901F90B9
:102570001895FC01848DDF01A80FB11DA35ABF4F30
:102580002C91848D90E001968F739927848FA68972
:10259000B7892C93A089B1898C9180648C93938D99
:1025A000848D981306C00288F389E02D80818F7D89
:1025B000808308951F920F920FB60F9211240BB6CD
:1025C0000F922F933F934F935F936F937F938F93CC
:1025D0009F93AF93BF93EF93FF938BE894E00E9498
:1025E000B912FF91EF91BF91AF919F918F917F9120
:1025F0006F915F914F913F912F910F900BBE0F9074
:102600000FBE0F901F9018951F920F920FB60F924A
:1026100011240BB60F922F933F934F935F936F93B9
:102620007F938F939F93AF93BF93EF93FF9388E232
:1026300095E00E94B912FF91EF91BF91AF919F91E8
:102640008F917F916F915F914F913F912F910F905B
:102650000BBE0F900FBE0F901F901895EF92FF9238
:102660000F931F93CF93DF93EC0181E0888F9B8DB5
:102670008C8D981305C0E889F989808185FD24C077
:10268000F62E0B8D10E00F5F1F4F0F731127E02EFA
:102690008C8DE8120CC00FB607FCFACFE889F989D7
:1026A000808185FFF5CFCE010E94B912F1CF8B8DCD
:1026B000FE01E80FF11DE35AFF4FF0820B8FEA890C
:1026C000FB898081806207C0EE89FF896083E88989
:1026D000F98980818064808381E090E0DF91CF91EF
:1026E0001F910F91FF90EF900895CF93DF93EC012E
:1026F000888D8823C9F0EA89FB89808185FD05C022
:10270000A889B9898C9186FD0FC00FB607FCF5CF5B
:10271000808185FFF2CFA889B9898C9185FFEDCFA3
:10272000CE010E94B912E7CFDF91CF9108951F9299
:102730000F920FB60F9211240BB60F922F933F9367
:102740004F935F936F937F938F939F93AF93BF93B9
:10275000CF93DF93EF93FF932091C60530E0F9010B
:10276000E25CFC4F8491F901E850FD4FD491F901EE
:10277000EE54FD4FC491CC23A1F081110E947B1037
:10278000EC2FF0E0EE0FFF1FEC57FC4FA591B4913A
:10279000EC91ED2331E020E009F430E0832F922F1B
:1027A00002C080E090E02091CA053091CB052F5FF8
:1027B0003F4F3093CB052093CA052091C90525369C
:1027C00018F026E02093C5052091C5052430D9F1E5
:1027D00028F4223069F02330D9F060C0253009F4A4
:1027E00053C0263009F05AC021E02093960653C00A
:1027F000009709F053C02091CA053091CB052436CB
:10280000310508F443C0109296061092C9051DC008
:102810008130910509F042C0E091C90521E02E0FF9
:102820002093C905F0E02091CA053091CB05EE0F49
:10283000FF1FEB53FA4F308727831092CB0510927E
:10284000CA0524E029C00097B9F4E091C90521E048
:102850002E0F2093C905F0E02091CA053091CB05D9
:10286000EE0FFF1FEB53FA4F308727831092CB05F3
:102870001092CA0523E010C02091CA053091CB0503
:102880002536310558F007C0009741F41092CB056A
:102890001092CA0503C025E02093C5052091C80504
:1028A0002223B9F0892B51F48091C705882321F0A8
:1028B0008091C70561E009C02F9A0BC08091C705C0
:1028C000882331F08091C70560E00E94D11001C0DB
:1028D0002F98FF91EF91DF91CF91BF91AF919F9191
:1028E0008F917F916F915F914F913F912F910F90B9
:1028F0000BBE0F900FBE0F901F9018958F929F9256
:10290000AF92BF92CF92DF92EF92FF920F931F93FD
:10291000CF93DF93EC016A017B0120E030E04FE7C9
:1029200053E4C701B6010E949A1F4B015C0120E0ED
:1029300030E0A9010E94C22118161CF4C501B4019F
:1029400003C0C501B40190580E948C218B0120E086
:1029500030E0A901C701B6010E94C221181614F483
:1029600060E001C061E089810E94D1100F3F110534
:1029700009F014F4112702C00FEF10E0C88161E0E4
:102980008C2F0E941F110115110509F4B1C00F3FD2
:10299000110509F4AFC0EC2FF0E0E25CFC4FE491CC
:1029A0004E2F50E0FA013197E231F10508F09DC059
:1029B0008827EC57FF4F8F4F0C94A52084B5806873
:1029C00084BD07BDA7C084B5806284BD08BDA2C018
:1029D000809180008068809380001093890000932C
:1029E000880098C08091800080628093800010935E
:1029F0008B0000938A008EC0809180008860809355
:102A0000800010938D0000938C0084C08091B000F2
:102A100080688093B0000093B3007CC08091B000C8
:102A200080628093B0000093B40074C080919000E5
:102A300080688093900010939900009398006AC07A
:102A40008091900080628093900010939B0000938F
:102A50009A0060C0809190008860809390001093ED
:102A60009D0000939C0056C08091A00080688093D8
:102A7000A0008091A0008F7B8093A0001093A900FC
:102A80000093A80047C08091A00080628093A000BE
:102A90001093AB000093AA003DC08091A000886015
:102AA0008093A0001093AD000093AC0033C08091E0
:102AB0002001806880932001109329010093280150
:102AC00029C08091200180628093200110932B0106
:102AD00000932A011FC0809120018860809320010B
:102AE00010932D0100932C0115C00038110514F42A
:102AF00060E001C061E08C2FDF91CF911F910F91B9
:102B0000FF90EF90DF90CF90BF90AF909F908F900D
:102B10000C94D110DF91CF911F910F91FF90EF9006
:102B2000DF90CF90BF90AF909F908F9008951F92AD
:102B30000F920FB60F9211240BB60F922F933F9363
:102B40004F935F936F937F938F939F93AF93BF93B5
:102B5000EF93FF938091A00887FF05C01092850036
:102B60001092840016C02091A008022E000C330B96
:102B70008091D30690E0281739075CF43091A008C3
:102B800025E03203F0011124E956F94F808186FDDA
:102B900015C08091A0088F5F8093A0082091A008A5
:102BA000022E000C330B8091D30690E028173907D2
:102BB00094F48091A0088C302CF10DC03091A008C5
:102BC0003203F0011124E956F94F808160E08F73E0
:102BD0000E94D110DECF80918400909185008434D2
:102BE0009C4918F480E49CE905C080918400909190
:102BF0008500049690938900809388008FEF8093DE
:102C0000A0082AC040918400509185003091A0080E
:102C100025E03203F0011124E956F94F81819281B8
:102C2000840F951F90938900809388003091A008AD
:102C30003203F0011124E956F94F808186FF0CC060
:102C40003091A0083203F0011124E956F94F808138
:102C500061E08F730E94D110FF91EF91BF91AF910E
:102C60009F918F917F916F915F914F913F912F91A4
:102C70000F900BBE0F900FBE0F901F9018958EBD3A
:102C800000000DB407FEFDCF8EB50895CF93DF93FE
:102C9000EC0160E088810E94D11088E90E943F1613
:102CA00080E00E943F1680E00E943F1680E00E9474
:102CB0003F1680E00E943F1661E088810E94D1109B
:102CC0008BE891E00197F1F760E088810E94D110D4
:102CD00080EE0E943F1661E08881DF91CF910C94D5
:102CE000D110AF92BF92CF92DF92EF92FF920F93EB
:102CF0001F93CF93DF93CDB7DEB760970FB6F894ED
:102D0000DEBF0FBECDBF5C0160E0FC0180810E9490
:102D1000D11080E60E943F168E010F5F1F4F7E018B
:102D2000F1E1EF0EF11C680180E00E943F1690E097
:102D3000A0E0B0E0F60181939193A193B1936F016C
:102D4000EE15FF0589F761E0F50180810E94D11041
:102D500080E090E0DC01F801419151916191719125
:102D60008F01BA2FA92F982F8827840F951FA61F90
:102D7000B71FEE15FF0579F79C01AD016627772790
:102D8000CB01621B730B840B950B60960FB6F89406
:102D9000DEBF0FBECDBFDF91CF911F910F91FF908E
:102DA000EF90DF90CF90BF90AF9008953FB7F89429
:102DB0008091B0089091B108A091B208B091B30889
:102DC00026B5A89B05C02F3F19F00196A11DB11D86
:102DD0003FBFBA2FA92F982F8827820F911DA11DC1
:102DE000B11DBC01CD0142E0660F771F881F991FFE
:102DF0004A95D1F70895CF92DF92EF92FF920F9309
:102E00001F93CF93DF936C017A018B01C0E0D0E078
:102E1000CE15DF0589F0D8016D918D01D601ED91B8
:102E2000FC910190F081E02DC6011995892B11F4D8
:102E30007E0102C02196ECCFC701DF91CF911F9197
:102E40000F91FF90EF90DF90CF9008950E9467253B
:102E50008EEE93E00E94AB1121E0892B09F420E073
:102E6000822F08958F929F92AF92BF92CF92DF925E
:102E7000EF92FF926B017C010E94D6164B015C0120
:102E8000C114D104E104F104F1F00E94D616DC0172
:102E9000CB0188199909AA09BB09883E9340A1056D
:102EA000B10570F321E0C21AD108E108F10888EEFB
:102EB000880E83E0981EA11CB11CC114D104E1044A
:102EC000F10419F7DDCFFF90EF90DF90CF90BF9026
:102ED000AF909F908F9008951F920F920FB60F9210
:102EE00011242F933F938F939F93AF93BF93809120
:102EF000AC089091AD08A091AE08B091AF083091A8
:102F0000AB0823E0230F2D3720F40196A11DB11D3E
:102F100005C026E8230F0296A11DB11D2093AB0822
:102F20008093AC089093AD08A093AE08B093AF081F
:102F30008091B0089091B108A091B208B091B30807
:102F40000196A11DB11D8093B0089093B108A09384
:102F5000B208B093B308BF91AF919F918F913F9109
:102F60002F910F900FBE0F901F9018951F920F92E8
:102F70000FB60F9211240BB60F922F933F934F93DE
:102F80005F936F937F938F939F93AF93BF93EF93D1
:102F9000FF938091A4089091A508A091A608B091F4
:102FA000A708892B8A2B8B2B59F18091A308E091DC
:102FB000A108F091A2089081892780838091A408BC
:102FC0009091A508A091A608B091A7081816190617
:102FD0001A061B060CF056C08091A4089091A50813
:102FE000A091A608B091A7080197A109B109809303
:102FF000A4089093A508A093A608B093A70842C080
:1030000080910202EEE9F3E0E4919FEF90930202D7
:10301000E230C9F050F4EE2399F0E13081F590915F
:103020006F009D7F90936F002AC0E43019F1E0F0AB
:10303000E53029F5909173009D7F909373001FC038
:1030400010926E001CC0909170009D7F9093700054
:1030500091E09093B0009091B100987F946090932C
:10306000B1001092B3000BC0909171009D7F9093BE
:10307000710005C0909172009D7F9093720060E096
:103080000E94D110FF91EF91BF91AF919F918F91CD
:103090007F916F915F914F913F912F910F900BBE58
:1030A0000F900FBE0F901F9018951F920F920FB6A2
:1030B0000F9211240BB60F922F933F934F935F9370
:1030C0006F937F938F939F93AF93BF93EF93FF93F0
:1030D0008EEE93E00E94B912FF91EF91BF91AF91F4
:1030E0009F918F917F916F915F914F913F912F9120
:1030F0000F900BBE0F900FBE0F901F9018951F9250
:103100000F920FB60F9211240BB60F922F933F938D
:103110004F935F936F937F938F939F93AF93BF93DF
:10312000EF93FF938EEE93E00E944C12FF91EF918C
:10313000BF91AF919F918F917F916F915F914F91CF
:103140003F912F910F900BBE0F900FBE0F901F90CD
:103150001895E0E0F0E01994CF92DF92EF92FF92A1
:1031600069017A01AB01BC0186EB97E00E947E14F5
:10317000B701A601705888EB97E0FF90EF90DF90C1
:10318000CF900C947E148F929F92AF92BF92CF9269
:10319000DF92EF92FF920F931F93CF93DF938C01F7
:1031A000C0E0D0E06B01770FEE08FF084A01550F31
:1031B000AA08BB08C017D10794F461E088E00E9418
:1031C000D110C701B6010E94321760E088E00E946A
:1031D000D110C501B4010E9432172196EBCFDF91C7
:1031E000CF911F910F91FF90EF90DF90CF90BF9004
:1031F000AF909F908F900895CF93C0E08C2F0E9446
:103200005B118139914024F081E090E00E94050239
:10321000CF5FC83099F7CF910895CF92DF92EF92A8
:10322000FF921F93CF93DF93182FC0E0D0E0C12C03
:10323000D12C7601CA30D10539F1812F0E945B1162
:10324000BC01990F880B990B0E943B1F26EA3BE9B2
:1032500044EC5BEB0E949A1F9B01AC016DEF76EF93
:103260008DE290E40E94C7212DE73FE34BEA52E450
:103270000E949A1F9B01AC01C701B6010E94AE20BB
:103280006B017C012196D6CF20E030E040E251E492
:10329000C701B6010E941A216B017C0142E00E9425
:1032A000EC0C0E94C609C701B601DF91CF911F91B6
:1032B000FF90EF90DF90CF90089540E050E0BA018A
:1032C00086EB97E00E947E1440E050E060E070E8FA
:1032D00088EB97E00E947E148AEB97E00E944616E6
:1032E0008CEB97E00C9446160F931F93CF93DF93CC
:1032F0000E94A90FC0E0D0E000E010E00E94A90FFA
:103300008091EC079091ED07892B09F03FC00E9456
:10331000A90F64E670E080E090E00E94321740E080
:1033200050E0BA0186EB97E00E947E1440E050E046
:1033300060E070E888EB97E00E947E140E94A90F7D
:103340008091EE079091EF07019709F421960E9472
:10335000A90F8091EE079091EF07892BA1F0CA3059
:10336000D10564F244E650E068EC70E085E090E05E
:103370000E94C3180E945D19F801199581E090E040
:103380000E940502BBCFC0E0D0E0B8CFDF91CF9163
:103390001F910F9108954F925F926F927F928F923B
:1033A0009F92AF92BF92CF92DF92EF92FF926C0109
:1033B0008AEB97E00E9446168CEB97E00E94461637
:1033C00046010D2C000CAA08BB0826E9C21A25E00C
:1033D000D20A0D2C000CEE08FF0884E6482E512C72
:1033E000612C712C8AEB97E00E9471169B01AC0155
:1033F00088279927DC01821B930BA40BB50B88153A
:103400009905AA05BB050CF054C08AEB97E00E9411
:1034100071169B01AC0188279927DC01821B930B55
:10342000A40BB50B86399540A105B10564F48AEB70
:1034300097E00E94711690958095709561957F4FE9
:103440008F4F9F4F1AC08AEB97E00E9471169B0125
:10345000AC0188279927DC01821B930BA40BB50BC9
:10346000C816D906EA06FB06ECF48AEB97E00E9440
:103470007116680D791D8A1D9B1DA30192010E9482
:103480005820CA01B9010E943B1F29E23CE54FE0E8
:103490005DE30E949A1F2DEC3CEC4CEC5DE30E9436
:1034A000AE2004C06DEC7CEC8CEC9EE30E94210A03
:1034B00099CF40E050E0BA0186EB97E00E947E147D
:1034C00040E050E060E070E888EB97E00E947E14F6
:1034D0008AEB97E00E9446168CEB97E00E94461616
:1034E00064E670E080E090E0FF90EF90DF90CF9096
:1034F000BF90AF909F908F907F906F905F904F9014
:103500000C9432171092E5031092E40388EE93E0D6
:10351000A0E0B0E08093E6039093E703A093E80374
:10352000B093E9032DE032E03093E3032093E2030C
:103530001092F1031092F0038093F2039093F3033F
:10354000A093F403B093F5032FE132E03093EF033F
:103550002093EE0345E351E05093FB034093FA03BD
:1035600044E351E05093FD034093FC0340E351E0FA
:103570005093FF034093FE0341E351E05093010455
:103580004093000442E351E050930304409302044B
:1035900046E351E05093050440930404109207045D
:1035A000109208041092090410920A0410928E04DA
:1035B00010928D0480938F0490939004A0939104B3
:1035C000B093920430938C0420938B0445ED50E02B
:1035D000509398044093970444ED50E050939A041C
:1035E0004093990440ED50E050939C0440939B0419
:1035F00041ED50E050939E0440939D0442ED50E015
:103600005093A00440939F0446ED50E05093A204D1
:103610004093A1041092A4041092A5041092A60451
:103620001092A70410922B0510922A0580932C0566
:1036300090932D05A0932E05B0932F053093290567
:103640002093280585EC90E0909335058093340510
:1036500084EC90E0909337058093360580EC90E001
:10366000909339058093380581EC90E090933B0569
:1036700080933A0582EC90E090933D0580933C0561
:1036800086EC90E090933F0580933E0510924105B3
:1036900010924205109243051092440586E38093F0
:1036A000BE0787E38093BF0788E38093C00789E361
:1036B0008093C1078BE18093C2078DE18093C3079C
:1036C0008AE18093C4078CE18093C50784E08093EE
:1036D000C60787E08093C7071092C80784EB8093E2
:1036E000C90786E18093CA0788E18093CB0787E109
:1036F0008093CC0789E18093CD07E091D306EC302D
:1037000020F08FEF8093CE0710C081E08E0F809362
:10371000D306E093CE0725E0E29FF0011124E9569D
:10372000F94F88EB9BE092838183E091D306EC30E4
:1037300020F08FEF8093CF0710C081E08E0F809331
:10374000D306E093CF0785E0E89FF0011124E95606
:10375000F94F88EB9BE0928381838CE080939D07F7
:1037600084E280939E0786E080939F0785E08093A4
:10377000A0078FE18093A1078EE18093A20783E2E7
:103780008093A30782E28093A40785E48093A50732
:1037900084E48093A60780E48093A9071092AE0783
:1037A0001092AF071092B0071092B1071092B207B3
:1037B0001092B3071092B4071092B507EFEDF6E040
:1037C0008FEF9FEFDC011282138214821582168222
:1037D00017821086118683879487A587B687878787
:1037E000908BA18BB28B128611821082739627E088
:1037F000ED39F20741F78DE090E00E945123FC0182
:103800001382128281E392E091838083118687E2A2
:10381000848384E1828784E083871486F093DC06C6
:10382000E093DB061092DD061092DE0685E28093BF
:10383000C6051092C8051092D5061092D4061092B3
:10384000D7061092D6061092D9061092D80661E0DB
:1038500070E080E090E00E947E24009789F09093D1
:10386000D5068093D4061092D7061092D6062091E2
:10387000D8063091D906232BC1F4FC01108215C063
:103880008091D4069091D506009711F00E94E6230E
:103890001092D5061092D4061092D9061092D8062E
:1038A0001092D7061092D60608951092D90610925B
:1038B000D80661EB73E00C9475258091D406909145
:1038C000D5060C94E623789484B5826084BD84B5D3
:1038D000816084BD85B5826085BD85B5816085BD0B
:1038E00080916E00816080936E00109281008091C3
:1038F000810082608093810080918100816080934B
:103900008100809180008160809380008091B1006F
:1039100084608093B1008091B00081608093B0009A
:1039200080919100826080939100809191008160EC
:1039300080939100809190008160809390008091AD
:10394000A10082608093A1008091A100816080939A
:10395000A1008091A00081608093A000809121014E
:1039600082608093210180912101816080932101F7
:103970008091200181608093200180917A00846091
:1039800080937A0080917A00826080937A0080919F
:103990007A00816080937A0080917A0080688093B9
:1039A0007A001092C1000E948C0961E080919E070C
:1039B0000E941F1160E080919E070E94D11060E07C
:1039C00080919D070E941F1182EE93E09093A807BB
:1039D0008093A7071092E1071092E0071092DF038F
:1039E0001092DE030E94011180E090E1A0E0B0E0BF
:1039F0008093AA079093AB07A093AC07B093AD0751
:103A00008AE090E0A0E0B0E08093AE079093AF072B
:103A1000A093B007B093B10780E090E0A0E0B0E4DD
:103A20008093B2079093B307A093B407B093B50700
:103A300060E070E185E00E94D6096FE979E380E0FB
:103A40000E94D609CAEBD7E0C12CD12CE12CF12C75
:103A500067EE662E62E0762E7DE2872E73E0972E6B
:103A6000EBECAE2EE7E0BE2EC7018356984F2C013B
:103A7000FC019481828186010356184FF801818FE1
:103A8000928F61E00E941F1161E0F801828D0E9417
:103A90001F11F201908586818883F801968F61E07D
:103AA0000E941F1160E0F801868D0E941F1161E0E5
:103AB00088810E94D1101FB7F8948091A8088111C5
:103AC00025C0F3018491F4019491E82FF0E0EE0F0A
:103AD000FF1FE258FD4FA591B4918C91982321F4DA
:103AE00061E085E30E94D11061E085E30E941F112F
:103AF0008CB580618CBD8CB580648CBD61E084E345
:103B00000E941F1161E083E30E941F118091A808A9
:103B10008F5F8093A8081FBFC5010197F1F760E090
:103B200088810E94D11088E80E943F1683E00E949D
:103B30003F1661E088810E94D110C5010197F1F71D
:103B4000CE010E944616F2E0CF0ED11C2296EA94D6
:103B5000EF2821F0EE24E394F12C86CFC2ECD7E0DD
:103B60001C2F1C5F60E089910E941F111C13FACF6B
:103B700001ED17E0CEECD7E095E0C92E2CE0E22E67
:103B800032E0B32EDC2ED394D394FE013897F0802C
:103B900088818C3008F044C061E08F2D0E941F1195
:103BA0008881C89EF0011124E956F94F9F2D9F731B
:103BB0002081207CF22EF92AF082138214826E2D4D
:103BC0000E9499209CE0899FA001112420E030E010
:103BD000B901640F751FC69EF001C79EF00D112438
:103BE000E956F94F908196FD12C02F5F3F4F2C3060
:103BF000310571F781110BC010928000B0928100E5
:103C00001092850010928400B6BAB0926F00E881DD
:103C1000CE9EF0011124E956F94F808180648083A3
:103C2000FE013297908132978081F801319780832D
:103C3000F801908360E00E941F1161E0F80180812B
:103C40000E941F1160E0F80180810E94D11021962E
:103C50000E5F1F4FDC1299CFF8941092200189E07B
:103C60008093210180E293E09093290180932801C1
:103C7000109225011092240182E0809373007894C1
:103C80008093C5051092C9058091C60560E00E9429
:103C90001F111092E1071092E0071092DF031092BB
:103CA000DE030E94011160EF85E50E94880F6BEF33
:103CB00080E00E94880F0E94A90F0E948C0961E099
:103CC0008EE20E941F1161E08EE20E94D11000E09E
:103CD00010E082E0E82EF12C0E94A90F8091EE07FF
:103CE0009091EF07019721F58091EC079091ED07F6
:103CF000C0E0D0E00197F1F48091EA079091EB07E2
:103D0000873B9340BCF0219664E670E080E090E051
:103D10000E943217CA30D10579F740E050E060E1E7
:103D200077E281E090E00E94C318F8011995E4CF92
:103D3000C0E0D0E08091EE079091EF07019709F085
:103D400053C08091EC079091ED07892B09F04CC08E
:103D50000E94A90F8091EE079091EF07019769F4F7
:103D60006AE070E080E090E00E9432170E94A90FA4
:103D70008EEB93E00E94CA09EDCF0E94A90F88EC58
:103D800093E00E94CA098091A9089091AA0800971F
:103D900059F481E090E09093AA088093A90840E04C
:103DA00050E064EF71E00DC08130910569F4F0924C
:103DB000AA08E092A90846E950E064EF71E082E0C9
:103DC00090E00E94C31802C0029719F382ED93E0BD
:103DD0000E94C00D8091A9089091AA080E94C20D6E
:103DE00081EB93E00E94CA090E94A90F8091A90863
:103DF0009091AA08892B89F562E370E080E090E059
:103E00000E9432170E94CB1167CF8091EC079091EE
:103E1000ED07019789F70E94A90F219664E670E0EB
:103E200080E090E00E943217CA30D105B1F448EC2E
:103E300050E068EE73E081E090E00E94C31844E631
:103E400050E069EE70E083E090E00E94C31880913A
:103E5000A9089091AA080E9405028091EE0790910E
:103E6000EF07892B91F2C8CF0E94761F08F481E0FA
:103E70000895E89409C097FB3EF49095809570955D
:103E800061957F4F8F4F9F4F9923A9F0F92F96E9A6
:103E9000BB279395F695879577956795B795F1111B
:103EA000F8CFFAF4BB0F11F460FF1BC06F5F7F4FB8
:103EB0008F4F9F4F16C0882311F096E911C07723CA
:103EC00021F09EE8872F762F05C0662371F096E8D3
:103ED000862F70E060E02AF09A95660F771F881FA2
:103EE000DAF7880F9695879597F90895990F000846
:103EF000550FAA0BE0E8FEEF16161706E807F907BC
:103F0000C0F012161306E407F50798F0621B730B56
:103F1000840B950B39F40A2661F0232B242B252BD7
:103F200021F408950A2609F4A140A6958FEF811D7A
:103F3000811D08950E94AD1F0C941E200E94102028
:103F400038F00E94172020F0952311F00C940720E0
:103F50000C940D2011240C9452200E942F2070F3F9
:103F6000959FC1F3950F50E0551F629FF001729F1E
:103F7000BB27F00DB11D639FAA27F00DB11DAA1F2D
:103F8000649F6627B00DA11D661F829F2227B00D7A
:103F9000A11D621F739FB00DA11D621F839FA00D05
:103FA000611D221F749F3327A00D611D231F849F55
:103FB000600D211D822F762F6A2F11249F575040AC
:103FC0009AF0F1F088234AF0EE0FFF1FBB1F661F27
:103FD000771F881F91505040A9F79E3F510580F0F0
:103FE0000C9407200C9452205F3FE4F3983ED4F3E6
:103FF000869577956795B795F795E7959F5FC1F794
:10400000FE2B880F911D9695879597F9089597F93E
:104010009F6780E870E060E008959FEF80EC08956E
:1040200000240A9416161706180609060895002497
:104030000A9412161306140605060895092E039411
:10404000000C11F4882352F0BB0F40F4BF2B11F485
:1040500060FF04C06F5F7F4F8F4F9F4F089557FDE4
:104060009058440F551F59F05F3F71F04795880FE6
:1040700097FB991F61F09F3F79F08795089512167D
:1040800013061406551FF2CF4695F1DF08C0161629
:1040900017061806991FF1CF8695710561050894DA
:1040A0000895E894BB2766277727CB0197F90895F1
:1040B000052E97FB1EF400940E946F2057FD07D039
:1040C0000E94772007FC03D04EF40C946F2050958B
:1040D0004095309521953F4F4F4F5F4F08959095F4
:1040E0008095709561957F4F8F4F9F4F0895A1E206
:1040F0001A2EAA1BBB1BFD010DC0AA1FBB1FEE1F62
:10410000FF1FA217B307E407F50720F0A21BB30BAC
:10411000E40BF50B661F771F881F991F1A9469F728
:1041200060957095809590959B01AC01BD01CF0184
:104130000895991B79E004C0991F961708F0961B03
:10414000881F7A95C9F780950895EE0FFF1F881F85
:104150008BBF0790F691E02D19945058BB27AA27E2
:104160000E94C5200C941E200E94102038F00E944E
:10417000172020F039F49F3F19F426F40C940D20F9
:104180000EF4E095E7FB0C940720E92F0E942F2006
:1041900058F3BA17620773078407950720F079F47C
:1041A000A6F50C9451200EF4E0950B2EBA2FA02DFD
:1041B0000B01B90190010C01CA01A0011124FF27D4
:1041C000591B99F0593F50F4503E68F11A16F040CF
:1041D000A22F232F342F4427585FF3CF46953795CE
:1041E0002795A795F0405395C9F77EF41F16BA0B93
:1041F000620B730B840BBAF09150A1F0FF0FBB1F41
:10420000661F771F881FC2F70EC0BA0F621F731F89
:10421000841F48F4879577956795B795F7959E3FE6
:1042200008F0B0CF9395880F08F09927EE0F979577
:10423000879508950E942E210C941E200E9417201D
:1042400058F00E94102040F029F45F3F29F00C94B0
:10425000072051110C9452200C940D200E942F2005
:1042600068F39923B1F3552391F3951B550BBB27A5
:10427000AA2762177307840738F09F5F5F4F220FEA
:10428000331F441FAA1FA9F335D00E2E3AF0E0E8E1
:1042900032D091505040E695001CCAF72BD0FE2F2B
:1042A00029D0660F771F881FBB1F261737074807BF
:1042B000AB07B0E809F0BB0B802DBF01FF27935877
:1042C0005F4F3AF09E3F510578F00C9407200C9414
:1042D00052205F3FE4F3983ED4F386957795679537
:1042E000B795F7959F5FC9F7880F911D96958795AC
:1042F00097F90895E1E0660F771F881FBB1F6217CB
:1043000073078407BA0720F0621B730B840BBA0B88
:10431000EE1F88F7E09508950E9493216894B111EB
:104320000C94522008950E94372088F09F5798F0EF
:10433000B92F9927B751B0F0E1F0660F771F881FAA
:10434000991F1AF0BA95C9F714C0B13091F00E94C4
:104350005120B1E008950C945120672F782F8827C1
:10436000B85F39F0B93FCCF3869577956795B395EB
:10437000D9F73EF490958095709561957F4F8F4F5A
:104380009F4F08950E94761F08F48FEF0895FA0159
:10439000EE0FFF1F309621053105A1F16115710562
:1043A00061F48038BFE39B0749F168949038810538
:1043B00061F08038BFEF9B0741F099234AF5FF3F3A
:1043C000E1053105210519F1E8940894E795D90133
:1043D000AA2329F4AB2FBE2FF85FD0F310C0FF5FE4
:1043E00070F4A695E0F7F73950F019F0FF3A38F479
:1043F0009F779F930DD00F9007FC9058089546F03B
:104400000C940D2060E070E080E89FE308954FE792
:104410009F775F934F933F932F930E94C7222F91D3
:104420003F914F915F910E949A1F0C9424220E9409
:10443000761F880B990B089529F416F00C94072029
:104440000C9451200C940D200E943720A8F396382C
:10445000A0F707F80F92E8942BE33AEA48EB5FE7FE
:104460000E94B01F0F920F920F924DB75EB70F923E
:104470000E940F23ECE2F1E00E9456224F915F91DF
:10448000EF91FF91E595EE1FFF1F49F0FE57E068A1
:104490004427EE0F441FFA95E1F74195550B0E9412
:1044A00089220F9007FE0C947D220895DF93CF930D
:1044B0001F930F93FF92EF92DF927B018C01689420
:1044C00006C0DA2EEF010E94AD1FFE01E894A5910F
:1044D0002591359145915591A6F3EF010E94C52094
:1044E000FE019701A801DA9469F7DF90EF90FF9041
:1044F0000F911F91CF91DF9108959B01AC0160E076
:1045000070E080E89FE30C941A210C9407200C942F
:1045100043230E943720D8F39923C9F3940F511DE8
:10452000A3F39150504094F059F0882332F0660F75
:10453000771F881F91505040C1F79E3F51052CF7BF
:10454000880F911D9695879597F908955F3FACF078
:10455000983E9CF0BB27869577956795B79508F4AC
:10456000B1609395C1F7BB0F58F711F460FFE8CF26
:104570006F5F7F4F8F4F9F4FE3CF0C94522016F009
:104580000C9443230C940D2068940C9407200E94F3
:104590003720A8F39923C1F3AEF3DF93CF931F9392
:1045A0000F93FF92C92FDD2788232AF02197660FEA
:1045B000771F881FDAF720E030E040E85FEB9FE3E9
:1045C000883920F0803E38F021968F770E94AE2007
:1045D000E4E5F1E004C00E94AE20E1E8F1E00E94D1
:1045E00056228B01BE01EC01FB2E6F5771097595A8
:1045F000771F880B990B0E943B1F28E132E741E3AC
:104600005FE30E94AD1FAF2D9801AE01FF900F91A7
:104610001F91CF91DF910E94C5200C941E20FA01BA
:10462000DC01AA0FBB1F9B01AC01BF5728F4222756
:1046300033274427507820C0B75190F4AB2F002483
:10464000469537952795011CA395D2F3002071F06C
:10465000220F331F441FB395DAF30ED00C94AD2014
:1046600061307105A0E88A07B94630F49B01AC01BE
:104670006627772788279078309621F0208331832A
:104680004283538308959F3F31F0915020F48795E2
:1046900077956795B795880F911D9695879597F9AA
:1046A0000895CF93DF938230910510F482E090E07B
:1046B000E091B608F091B70820E030E0C0E0D0E02B
:1046C000309711F14081518148175907C0F04817C0
:1046D000590761F482819381209719F09B838A8323
:1046E0002BC09093B7088093B60826C021153105DA
:1046F00019F04217530718F49A01BE01DF01EF01C8
:104700000280F381E02DDCCF2115310509F1281B52
:10471000390B2430310590F412968D919C911397AA
:104720006115710521F0FB019383828304C090938E
:10473000B7088093B608FD01329644C0FD01E20F30
:10474000F31F81939193225031092D933C933AC0EA
:104750002091B4083091B508232B41F42091050233
:10476000309106023093B5082093B40820910302DB
:10477000309104022115310541F42DB73EB7409127
:10478000070250910802241B350BE091B408F09108
:10479000B508E217F307A0F42E1B3F0B28173907C3
:1047A00078F0AC014E5F5F4F2417350748F04E0F8D
:1047B0005F1F5093B5084093B4088193919302C052
:1047C000E0E0F0E0CF01DF91CF9108950F931F93C8
:1047D000CF93DF93009709F48CC0FC0132971382CA
:1047E00012820091B6081091B7080115110581F4E5
:1047F00020813181820F931F2091B4083091B50838
:104800002817390779F5F093B508E093B40871C01B
:10481000D80140E050E0AE17BF0750F412962D913A
:104820003C911397AD012115310509F1D901F3CF61
:104830009D01DA013383228360817181860F971F86
:104840008217930769F4EC0128813981260F371FFD
:104850002E5F3F4F318320838A819B8193838283A4
:10486000452B29F4F093B708E093B60842C013969D
:10487000FC93EE931297ED01499159919E01240FFB
:10488000351FE217F30771F480819181840F951F22
:10489000029611969C938E938281938113969C939A
:1048A0008E931297E0E0F0E0D80112968D919C91E2
:1048B0001397009719F0F8018C01F6CF8D919C9118
:1048C00098012E5F3F4F820F931F2091B4083091C3
:1048D000B5082817390769F4309729F41092B708FA
:1048E0001092B60802C0138212821093B50800938A
:1048F000B408DF91CF911F910F9108956F927F922D
:104900008F929F92AF92BF92CF92DF92EF92FF92DF
:104910000F931F93CF93DF93EC01009789F4CB01A2
:10492000DF91CF911F910F91FF90EF90DF90CF908B
:10493000BF90AF909F908F907F906F900C94512379
:10494000FC01E60FF71F9C0122503109E217F30723
:1049500008F4ACC0D9010D911C91119706171707E7
:10496000B0F00530110508F49FC0C8010497861700
:10497000970708F499C002501109061B170B019301
:1049800011936D937C93CF010E94E6238DC05B0150
:10499000A01AB10A4C01800E911EA091B608B091E8
:1049A000B70840E050E0E12CF12C109709F44AC020
:1049B000A815B905D1F56D907C901197630182E03F
:1049C000C80ED11CCA14DB0480F1A3014A195B098B
:1049D0006A0182E0C80ED11C1296BC901297139601
:1049E000AC91B5E0CB16D10440F0B282A3835183E1
:1049F0004083D9016D937C930AC00E5F1F4FC301A2
:104A0000800F911FF90191838083EB2DFA2FE11420
:104A1000F10431F0D7011396FC93EE93129744C042
:104A2000F093B708E093B6083FC08D919C91119721
:104A30004817590708F4AC017D0112960D90BC91FE
:104A4000A02DB3CF8091B4089091B5088815990531
:104A5000E1F446175707C8F48091030290910402CD
:104A6000009741F48DB79EB740910702509108021C
:104A7000841B950BE817F907C8F4F093B508E09389
:104A8000B408F901718360830FC0CB010E945123E8
:104A90007C01009759F0A801BE010E946C25CE014F
:104AA0000E94E623C70104C0CE0102C080E090E06E
:104AB000DF91CF911F910F91FF90EF90DF90CF90FA
:104AC000BF90AF909F908F907F906F90089581E0FE
:104AD00090E0F8940C947C25FB01DC0102C001906D
:104AE0000D9241505040D8F70895FB01DC01019030
:104AF0000D920020E1F7089511E0C1EDD1E000E052
:104B000006C0802FFE010E94A5202196011DC23DF6
:0C4B1000D10780E00807A9F7F894FFCF58
:104B1C000100FF0000B8082000000000007C0C4CD5
:104B2C000CF911280CEE0B380C290C000000002E8F
:104B3C0013FB167A117513AB1189119D110000002E
:104B4C00002712FB16F911F8116D6F6465203120E6
:104B5C0073656C656374696F6E6E6500626F756307
:104B6C006C65203100736F7274696520626F7563B8
:104B7C006C652032004A65207375697320736F72FF
:104B8C00746965206465206C612063616C69737362
:104B9C0020646520666F6E6374696F6E2070697334
:104BAC0020736F72746965203D2033002061333AA5
:104BBC0020002061343A20002061353A2000206129
:104BCC00363A20004A652063686572636865207513
:104BDC006E65206C69676E652028736F72746965E9
:104BEC00203329006C69676E652074726F75766569
:104BFC000020536F727469653A20006D6F646520F4
:104C0C00322073656C656374696F6E6E6500097331
:104C1C00746177703A2000092000646972656374CE
:104C2C00696F6E3A20005354415750004A27617601
:104C3C00616E63652043522A535300426565656576
:104C4C0065702042656565656570204265656565C2
:104C5C00657000547269626F726420746F7574654C
:104C6C00202364726F697465004261626F72642004
:104C7C00746F75746520234761756368650074658E
:104C8C006D70203D20002A2A2A2A2A2A2A2A2A2A1A
:104C9C002A2A2A2A2A2A2A2A2A2A2A006431203A4B
:104CAC002000096E6F7576656C6C65206469737491
:104CBC00616E636500626F75636C65206431000D15
:104CCC000A006E616E00696E66006F7666004320A6
:104CDC00656E666F6E636500432072656C61636818
:0A4CEC006500094D6F6465200000AB
:00000001FF
