:100000000C94D2010C9403020C9403020C9403028E
:100010000C9403020C9403020C9403020C9403024C
:100020000C9403020C9435070C9435070C94350797
:100030000C9403020C9496030C9403020C94030298
:100040000C9403020C94E80C0C9403020C9403022D
:100050000C9403020C9403020C9403020C944C03C2
:100060000C9403020C94E0090C94550A0C940302BE
:100070000C9403020C9403020C9403020C940302EC
:100080000C9403020C9403020C9403020C940302DC
:100090000C9403020C9403020C9403020C943F078B
:1000A0000C9403020C9403020C9403020C940302BC
:1000B0000C9403020C9403020C9403020C94E80ABF
:1000C0000C9403020C9403020C9403020C94B609E2
:1000D0000C942B0A0C9403020C948C090C94350498
:1000E0000C940302B602B902A802AC02B202F002FA
:1000F000BD02C102C702CB02CF02D502D902DD0286
:10010000F002E302E702EB022F0C340C390C430C33
:100110004D0CC60C570C5F0C670C710C7B0C850CDE
:10012000940C9E0CC60CA80CB20CBC0C0763423697
:10013000B79BD8A71A39685618AEBAAB558C1D3C78
:10014000B7CC5763BD6DEDFD753EF6177231BF003C
:100150000000803F08000000BE922449123EABAA76
:10016000AA2ABECDCCCC4C3E00000080BEABAAAAD1
:10017000AA3E00000000BF000000803F0000000019
:1001800000084178D3BB4387D1133D190E3CC3BD52
:100190004282AD2B3E68EC8276BED98FE1A93E4CFF
:1001A00080EFFFBE01C4FF7F3F00000000000C9401
:1001B0007B0C0C94390C0C94340C0C94C60C0C94E1
:1001C000F0020C94710C0C943B090C94DD020C941D
:1001D000E7020C94C7020C94EC100C945F0C0C9486
:1001E000B20C0C944D0C0C9467090C94B7040C944D
:1001F000850C0C94A0040C94CF020C94570C0C9416
:10020000EB020C9492040C943C090C94A8020C94FC
:10021000AF040C94A80C0C947F0A0C94C1020C94AB
:10022000B2020C94D9020C94E3020C94C9080C9409
:10023000C60A0C94B9020C94BD020C94AC020C9446
:10024000B6020C94C7120C94BC0C0C94E7040C94EA
:100250002F0C0C9464020C949E0C0C94CB020C9406
:10026000430C0C94EB080C9491040C94BA080C9475
:10027000670C0C94DD080C94940C0C94D5020200CD
:10028000002100240027002A002D00300033000147
:10029000010000040107010A0100002200250028D6
:1002A000002B002E0031003400020100000501087F
:1002B000010B0105050505070508080808020202EB
:1002C000020A0A08080404040401010101010101F1
:1002D000010303030303030303040707070C0C0CC8
:1002E0000C0C0C0C0C0202020206060606060606A0
:1002F000060B0B0B0B0B0B0B0B010210202008083D
:100300001020401020408002010201080402010177
:100310000204081020408080402010080402018060
:1003200004020180402010080402010804020101B7
:1003300002040810204080010204081020408000C0
:10034000000A0B02090C0D0E08070304010000004F
:10035000000000000000000000000000000000009D
:10036000000000000000000000000012111000005A
:10037000000000000000000000000000000000007D
:100380000000000000000020002300260029002CAF
:10039000002F0032000001000003010601090100E6
:1003A000EC10C71211241FBECFEFD1E2DEBFCDBFCC
:1003B00000E00CBF12E0A0E0B2E0E0E1F2E300E018
:1003C0000BBF02C007900D92A635B107D9F727E001
:1003D000A6E5B2E001C01D92AD30B207E1F711E031
:1003E000C1EDD1E000E006C021970109802FFE0198
:1003F0000E941F14C03DD10780E00807A9F70E94A2
:10040000970D0C94F6180C9400003FB7F894809167
:10041000630290916402A0916502B091660226B5D4
:10042000A89B05C02F3F19F00196A11DB11D3FBF2C
:10043000BA2FA92F982F8827820F911DA11DB11DBA
:10044000BC01CD0142E0660F771F881F991F4A95B6
:10045000D1F708958F929F92AF92BF92CF92DF9281
:10046000EF92FF926B017C010E9405024B015C013F
:10047000C114D104E104F104F1F00E940502DC0191
:10048000CB0188199909AA09BB09883E9340A105A7
:10049000B10570F321E0C21AD108E108F10888EE35
:1004A000880E83E0981EA11CB11CC114D104E10484
:1004B000F10419F7DDCFFF90EF90DF90CF90BF9060
:1004C000AF909F908F900895CF92DF92EF92FF921E
:1004D0000F931F93CF93DF936C017A018B01C0E0E0
:1004E000D0E0CE15DF0589F0D8016D918D01D601E0
:1004F000ED91FC910190F081E02DC6011995892BB9
:1005000011F47E0102C02196ECCFC701DF91CF919B
:100510001F910F91FF90EF90DF90CF9008950E9470
:10052000E1188CE792E00E94EB0821E0892B09F4A6
:1005300020E0822F089590E0FC013197E231F1052F
:1005400008F04EC08827EE58FF4F8F4F0C941F14B1
:10055000809180008F7703C0809180008F7D809391
:100560008000089580918000877FF9CF84B58F77D0
:1005700002C084B58F7D84BD08958091B0008F77CF
:1005800003C08091B0008F7D8093B000089580916A
:1005900090008F7707C0809190008F7D03C080917D
:1005A0009000877F8093900008958091A0008F77BE
:1005B00007C08091A0008F7D03C08091A000877F3D
:1005C0008093A0000895809120018F7707C08091CB
:1005D00020018F7D03C080912001877F80932001BF
:1005E0000895CF93DF9390E0FC01E750FD4F2491F5
:1005F000FC01ED54FD4F8491882361F190E0880F58
:10060000991FFC01E158FD4FC591D491FC01E756BB
:10061000FD4FA591B491611109C09FB7F8948881ED
:10062000209582238883EC912E230BC0623061F4E5
:100630009FB7F8943881822F809583238883EC912B
:100640002E2B2C939FBF06C08FB7F894E8812E2BDA
:1006500028838FBFDF91CF910895863308F08653AA
:1006600090917B00282F2870977F922B90937B008E
:100670008770806480937C0080917A00806480938E
:100680007A0080917A0086FDFCCF809178002091DD
:10069000790090E0922B08951F920F920FB60F925F
:1006A00011242F933F938F939F93AF93BF93809188
:1006B0005F0290916002A0916102B091620230915C
:1006C0005E0223E0230F2D3720F40196A11DB11DFA
:1006D00005C026E8230F0296A11DB11D20935E02DE
:1006E00080935F0290936002A0936102B0936202D4
:1006F0008091630290916402A0916502B0916602BC
:100700000196A11DB11D8093630290936402A09392
:100710006502B0936602BF91AF919F918F913F9117
:100720002F910F900FBE0F901F9018951F920F9250
:100730000FB60F9211240BB60F922F933F934F9346
:100740005F936F937F938F939F93AF93BF93EF9339
:10075000FF938091590290915A02A0915B02B0914F
:100760005C02892B8A2B8B2B59F180915802E091E6
:100770005602F09157029081892780838091590217
:1007800090915A02A0915B02B0915C021816190672
:100790001A061B060CF056C08091590290915A021D
:1007A000A0915B02B0915C020197A109B10980930D
:1007B000590290935A02A0935B02B0935C0242C02C
:1007C00080910002EEE7F2E0E4919FEF9093000247
:1007D000E230C9F050F4EE2399F0E13081F59091C8
:1007E0006F009D7F90936F002AC0E43019F1E0F014
:1007F000E53029F5909173009D7F909373001FC0A1
:1008000010926E001CC0909170009D7F90937000BC
:1008100091E09093B0009091B100987F9460909394
:10082000B1001092B3000BC0909171009D7F909326
:10083000710005C0909172009D7F9093720060E0FE
:100840000E947108FF91EF91BF91AF919F918F919D
:100850007F916F915F914F913F912F910F900BBEC0
:100860000F900FBE0F901F9018951F920F920FB60A
:100870000F9211240BB60F922F933F934F935F93D8
:100880006F937F938F939F93AF93BF93EF93FF9358
:100890008CE792E00E940A0AFF91EF91BF91AF911D
:1008A0009F918F917F916F915F914F913F912F9188
:1008B0000F900BBE0F900FBE0F901F90189585EDF7
:1008C0008093BC008091BC0084FDFCCF10926B0231
:1008D000089540918406262F30E0240F311D2132E7
:1008E0003105DCF420916B022430C9F4FC0180E076
:1008F00090E0861758F4309184062191DC01AE59BE
:10090000B94FA30FB11D2C930196F3CF80918406AC
:10091000680F6093840680E0089581E0089582E086
:100920000895089581E090E0309168022091670277
:10093000321710F480E090E0919581959109089527
:100940008091680290916702891730F48F5F8093DD
:10095000680280E090E008958FEF9FEF0895809106
:10096000670290E020916802821B91090895CF925E
:10097000DF92EF92FF920F931F93CF93DF937C014F
:10098000262F972F8A0180916C02882391F0C62F21
:10099000D72F6E01C40ED51ECC15DD0571F06991FF
:1009A000D701ED91FC910190F081E02DC7011995DF
:1009B000F3CF642F822F0E946904C801DF91CF9189
:1009C0001F910F91FF90EF90DF90CF900895CF93FC
:1009D000DF931F92CDB7DEB7698320916C0222238B
:1009E000D1F020916F02203240F021E030E0FC0194
:1009F0003383228380E090E015C080916D02E82F60
:100A0000F0E0E153F94F998190838F5F80936D02FD
:100A100080936F0205C061E0CE0101960E946904D7
:100A200081E090E00F90DF91CF910895009769F0F9
:100A3000FC0101900020E9F73197AF01481B590BE9
:100A4000BC0186EB93E00C94640280E090E0089592
:100A50008F929F92AF92BF920F931F93CF93DF938A
:100A6000CDB7DEB7A1970FB6F894DEBF0FBECDBFEE
:100A700019A2423008F44AE08E010F5D1F4F842E08
:100A8000912CA12CB12CA50194010E94F113E62F09
:100A9000B901CA0101501109EA3014F4E05D01C046
:100AA000E95CD801EC93232B242B252B61F7C8019B
:100AB0000E941605A1960FB6F894DEBF0FBECDBFFB
:100AC000DF91CF911F910F91BF90AF909F908F902A
:100AD000089520916F0290916E02213208F04AC071
:100AE00080916B028111FCCF32E030936B0231E0D8
:100AF00030936A023FEF3093CE061092CD062093DA
:100B0000CC06AFECB6E04CEA56E0FA013E2F341BBF
:100B1000321718F43D913193F9CF1092AB06209122
:100B2000AB06990F922B9093AB069091690291308E
:100B300061F4109269029091AB069093BB00909182
:100B4000BC0093FDF8CF95EC01C095EE9093BC00EE
:100B500090916B029230E1F39091CE069F3F79F035
:100B60008091CE06803241F08091CE06803331F004
:100B700084E005C081E003C082E001C083E0109200
:100B80006D0210926F0210926C020895EF92FF9224
:100B90001F93CF93DF931F92CDB7DEB7162F9BE243
:100BA000E92E96E0F92ED7011C969C911C9721E026
:100BB00020936C0290936E0210926D0210926F025D
:100BC0001A960D90BC91A02DED91FC91119701907A
:100BD000F081E02D682FCD0179831995F701828589
:100BE0009385DC01ED91FC910190F081E02D7981FC
:100BF000672F1995F70182859385DC01ED91FC91B2
:100C00000190F081E02D612F19950F90DF91CF9128
:100C10001F91FF90EF900C946905CF92DF92EF92B5
:100C2000FF92CF93DF93C0E0D0E0C12CD12C7601AE
:100C3000CA30D10539F188E00E942D03BC01990F1B
:100C4000880B990B0E94D41226EA3BE944EC5BEB3B
:100C50000E9433139B01AC016DEF76EF8DE290E4BF
:100C60000E9441152DE73FE34BEA52E40E94331303
:100C70009B01AC01C701B6010E9428146B017C01E5
:100C80002196D6CF20E030E040E251E4C701B60122
:100C90000E949414DF91CF91FF90EF90DF90CF905E
:100CA00008954F925F926F927F928F929F92AF9230
:100CB000BF92CF92DF92EF92FF926B017C01B42E34
:100CC0009B01AC010E949115882319F089E492E000
:100CD00027C026013701E89477F82FEF3FEF4FE761
:100CE0005FE7C301B2010E94911581110DC02FEF82
:100CF0003FEF4FE75FE7C301B2010E94CD12181624
:100D00001CF48DE492E00CC02FEF3FEF4FE75FE45F
:100D1000C701B6010E943C15181684F481E592E0E3
:100D2000FF90EF90DF90CF90BF90AF909F908F900B
:100D30007F906F905F904F900C9416052FEF3FEFD0
:100D40004FE75FECC701B6010E94CD1287FDE6CFE9
:100D500020E030E0A901C701B6010E94CD1287FF53
:100D600011C0E091B603F091B7030190F081E02D3E
:100D70006DE286EB93E019954C01F7FAF094F7F8E1
:100D8000F09402C0812C912CA12C60E070E080E0F6
:100D90009FE3AB1441F020E030E040E251E40E94D8
:100DA0009414A394F6CF9B01AC01C701B6010E9435
:100DB00028142B013C010E940D156B017C010E943F
:100DC000D2129B01AC01C301B2010E9427142B0176
:100DD0003C014AE0C701B6010E9428057C01E80CED
:100DE000F91CBB2069F0E091B603F091B7030190C4
:100DF000F081E02D6EE286EB93E01995E80EF91E86
:100E0000DB2CDD2021F120E030E040E251E4C301A1
:100E1000B2010E9433132B013C010E940D154B01BE
:100E2000A12CB12C4AE0C501B4010E942805E80EAE
:100E3000F91EC501B4010E94D2129B01AC01C3018D
:100E4000B2010E9427142B013C01DA94DACFC701CA
:100E5000FF90EF90DF90CF90BF90AF909F908F90DA
:100E60007F906F905F904F9008951F920F920FB6F2
:100E70000F9211240F900FBE0F901F9018951F9284
:100E80000F920FB60F9211240BB60F922F933F9330
:100E90004F935F936F937F938F939F93AF93BF9382
:100EA000EF93FF938091B900887F803609F49CC04E
:100EB00068F5883209F45BC090F4803109F454C0BD
:100EC00038F4882309F4F6C0883009F44DC0F6C020
:100ED000883109F44CC0803209F45DC0EFC0803421
:100EE00009F468C048F4803309F455C0883309F028
:100EF000E5C08093CE06D8C0803509F44FC0883550
:100F000009F45DC0883409F0D9C0D6C0883909F425
:100F1000C7C0A8F4883709F467C038F4883609F4E4
:100F200063C0803709F460C0C9C0883809F4B8C00C
:100F3000803909F45FC0803809F0C0C05BC0803BD5
:100F400009F486C038F4803A09F466C0883A09F496
:100F50007FC0B4C0803C09F4A7C0883C09F4A4C099
:100F6000883B09F48AC0AAC08091AB0610C090915A
:100F7000CD068091CC06981770F5E091CD0681E002
:100F80008E0F8093CD06F0E0E455F94F8081809379
:100F9000BB0085EC86C08093CE068EC0E091CD0666
:100FA00081E08E0F8093CD068091BB00F0E0E45588
:100FB000F94F80839091CD068091CC066EC0E09170
:100FC000CD0681E08E0F8093CD068091BB00F0E0CE
:100FD000E455F94F808380916A0281116DC081E0F0
:100FE0008093690284EA61C083E080936B0210926F
:100FF000A806CFCF8091A806803208F051C0E091BA
:10100000A80681E08E0F8093A8068091BB00F0E0D7
:10101000E857F94F8083BDCF85EC8093BC001092D8
:101020006B028091A806803230F4E091A806F0E0CF
:10103000E857F94F10826091A80670E0E0918606AB
:10104000F091870688E896E019951092A80636C0B8
:1010500084E080936B021092850610928406E091E2
:101060008206F0918306199580918406811105C04E
:1010700081E08093840610926206E091850681E00B
:101080008E0F80938506F0E0EE59F94F80818093B2
:10109000BB009091850680918406981708F479CF5B
:1010A00085E88093BC000AC085EC8093BC00109258
:1010B0006B0204C01092CE060E945F04FF91EF9174
:1010C000BF91AF919F918F917F916F915F914F9160
:1010D0003F912F910F900BBE0F900FBE0F901F905E
:1010E00018951F93CF93DF93282F30E0F901E15C2F
:1010F000FC4F8491F901E750FD4FD491F901ED5473
:10110000FD4FC491CC23C9F0162F81110E949B0280
:10111000EC2FF0E0EE0FFF1FE756FD4FA591B491C5
:101120008FB7F894111105C09C91ED2FE095E9233C
:1011300002C0EC91ED2BEC938FBFDF91CF911F910B
:101140000895FC01A089B1898C91A689B78982FD97
:101150000FC09C91818D8F5F8F73228D821749F014
:10116000218DDF01A20FB11D5D969C93818F0895A3
:101170008C910895FC01538D448D252F30E0842FF0
:1011800090E0821B930B541710F0CF9608950197AF
:101190000895FC01918D828D981761F0828DDF0199
:1011A000A80FB11D5D968C91928D9F5F9F73928F5A
:1011B00090E008958FEF9FEF0895FC01918D828D4F
:1011C000981731F0828DE80FF11D858D90E008951C
:1011D0008FEF9FEF0895FC01918D228D892F90E074
:1011E000805C9F4F821B91098F739927089589E135
:1011F00093E00E94EB0821E0892B09F420E0822F84
:10120000089586EB93E00E94EB0821E0892B09F416
:1012100020E0822F0895E0E0F0E0199480E090E073
:10122000892B21F00E940109811119C080E090E012
:10123000892B41F080E090E0892B21F00E94000092
:10124000811110C00E94F70881110FC080E090E06A
:10125000892B81F00E94910281110AC008950E9499
:101260000000E4CF0E940000EDCF0E940B09EECFFA
:101270000C9400000895089580E090E00895FC012A
:10128000248131E030936C0220936E0210926D0243
:1012900010926F028485682B80E792E00E94E70439
:1012A0000C9469050F931F93CF938C01C62F646034
:1012B0000E943F096C2F6B7FC8010E943F0983EC9D
:1012C00090E00197F1F7CF911F910F9108950F933F
:1012D0001F93CF93DF938C01C62FD62FD07FD16081
:1012E0006D2F0E943F096D2FC8010E94520980E1B5
:1012F000C89FB0011124C62FC1606C2FC8010E9485
:101300003F096C2FC8010E94520981E090E0DF91F3
:10131000CF911F910F9108951F920F920FB60F92C8
:1013200011240BB60F922F933F934F935F936F93BC
:101330007F938F939F93AF93BF93EF93FF938CE72C
:1013400092E00E94A108FF91EF91BF91AF919F9110
:101350008F917F916F915F914F913F912F910F905E
:101360000BBE0F900FBE0F901F9018951F920F92FB
:101370000FB60F9211240BB60F922F933F934F93FA
:101380005F936F937F938F939F93AF93BF93EF93ED
:10139000FF9389E193E00E94A108FF91EF91BF9133
:1013A000AF919F918F917F916F915F914F913F91FD
:1013B0002F910F900BBE0F900FBE0F901F9018959E
:1013C0001F920F920FB60F9211240BB60F922F930C
:1013D0003F934F935F936F937F938F939F93AF93BD
:1013E000BF93EF93FF9386EB93E00E94A108FF91D8
:1013F000EF91BF91AF919F918F917F916F915F918D
:101400004F913F912F910F900BBE0F900FBE0F90F9
:101410001F901895FC01848DDF01A80FB11DA35A00
:10142000BF4F2C91848D90E001968F739927848F04
:10143000A689B7892C93A089B1898C9180648C93FB
:10144000938D848D981306C00288F389E02D8081E6
:101450008F7D808308951F920F920FB60F921124F3
:101460000BB60F922F933F934F935F936F937F939E
:101470008F939F93AF93BF93EF93FF9389E193E093
:101480000E940A0AFF91EF91BF91AF919F918F91B6
:101490007F916F915F914F913F912F910F900BBE74
:1014A0000F900FBE0F901F9018951F920F920FB6BE
:1014B0000F9211240BB60F922F933F934F935F938C
:1014C0006F937F938F939F93AF93BF93EF93FF930C
:1014D00086EB93E00E940A0AFF91EF91BF91AF91D2
:1014E0009F918F917F916F915F914F913F912F913C
:1014F0000F900BBE0F900FBE0F901F901895EF929C
:10150000FF920F931F93CF93DF93EC0181E0888FBD
:101510009B8D8C8D981305C0E889F989808185FDA4
:1015200024C0F62E0B8D10E00F5F1F4F0F73112795
:10153000E02E8C8DE8120CC00FB607FCFACFE889BC
:10154000F989808185FFF5CFCE010E940A0AF1CF8B
:101550008B8DFE01E80FF11DE35AFF4FF0820B8FD8
:10156000EA89FB898081806207C0EE89FF896083F8
:10157000E889F98980818064808381E090E0DF914F
:10158000CF911F910F91FF90EF900895CF93DF932C
:10159000EC01888D8823C9F0EA89FB89808185FD6B
:1015A00005C0A889B9898C9186FD0FC00FB607FCCC
:1015B000F5CF808185FFF2CFA889B9898C9185FF0D
:1015C000EDCFCE010E940A0AE7CFDF91CF910895B7
:1015D0001F920F920FB60F9211240BB60F922F93FA
:1015E0003F934F935F936F937F938F939F93AF93AB
:1015F000BF93CF93DF93EF93FF932091540430E098
:10160000F901E15CFC4F8491F901E750FD4FD49161
:10161000F901ED54FD4FC491CC23A1F081110E943A
:101620009B02EC2FF0E0EE0FFF1FEB57FC4FA59154
:10163000B491EC91ED2331E020E009F430E0832F08
:10164000922F02C080E090E020915804309159041C
:101650002F5F3F4F30935904209358042091570433
:10166000253618F026E020935304209153042430AB
:10167000D9F128F4223069F02330D9F060C0253048
:1016800009F453C0263009F05AC021E02093240504
:1016900053C0009709F053C0209158043091590469
:1016A0002436310508F443C01092240510925704E3
:1016B0001DC08130910509F042C0E091570421E03E
:1016C0002E0F20935704F0E02091580430915904D4
:1016D000EE0FFF1FED5AFB4F3087278310925904FE
:1016E0001092580424E029C00097B9F4E0915704FF
:1016F00021E02E0F20935704F0E020915804309100
:101700005904EE0FFF1FED5AFB4F308727831092CD
:1017100059041092580423E010C0209158043091CD
:1017200059042536310558F007C0009741F410924E
:1017300059041092580403C025E0209353042091CB
:1017400056042223B9F0892B51F480915504882343
:1017500021F08091550461E009C02F9A0BC080915F
:101760005504882331F08091550460E00E9471088F
:1017700001C02F98FF91EF91DF91CF91BF91AF9171
:101780009F918F917F916F915F914F913F912F9199
:101790000F900BBE0F900FBE0F901F9018958F9259
:1017A0009F92AF92BF92CF92DF92EF92FF920F93F0
:1017B0001F93CF93DF93EC016A017B0120E030E0BF
:1017C0004FE753E4C701B6010E9433134B015C019C
:1017D00020E030E0A9010E943C1518161CF4C50158
:1017E000B40103C0C501B40190580E9406158B01D5
:1017F00020E030E0A901C701B6010E943C1518168F
:1018000014F460E001C061E089810E9471080F3F1B
:10181000110509F014F4112702C00FEF10E0C88180
:1018200061E08C2F0E94F1020115110509F4B1C08D
:101830000F3F110509F4AFC0EC2FF0E0E15CFC4F65
:10184000E4914E2F50E0FA013197E231F10508F0B2
:101850009DC08827EC57FF4F8F4F0C941F1484B501
:10186000806884BD07BDA7C084B5806284BD08BD03
:10187000A2C08091800080688093800010938900CE
:101880000093880098C080918000806280938000DF
:1018900010938B0000938A008EC080918000886036
:1018A0008093800010938D0000938C0084C0809101
:1018B000B00080688093B0000093B3007CC080913A
:1018C000B00080628093B0000093B40074C0809137
:1018D0009000806880939000109399000093980086
:1018E0006AC08091900080628093900010939B006A
:1018F00000939A0060C0809190008860809390006F
:1019000010939D0000939C0056C08091A0008068B9
:101910008093A0008091A0008F7B8093A000109303
:10192000A9000093A80047C08091A0008062809326
:10193000A0001093AB000093AA003DC08091A000CE
:1019400088608093A0001093AD000093AC0033C07A
:1019500080912001806880932001109329010093D9
:10196000280129C08091200180628093200110937A
:101970002B0100932A011FC0809120018860809371
:10198000200110932D0100932C0115C00038110582
:1019900014F460E001C061E08C2FDF91CF911F91C2
:1019A0000F91FF90EF90DF90CF90BF90AF909F90FE
:1019B0008F900C947108DF91CF911F910F91FF9040
:1019C000EF90DF90CF90BF90AF909F908F90089551
:1019D0001F920F920FB60F9211240BB60F922F93F6
:1019E0003F934F935F936F937F938F939F93AF93A7
:1019F000BF93EF93FF938091080787FF05C0109274
:101A000085001092840016C020910807022E000C59
:101A1000330B8091610590E0281739075CF4309111
:101A2000080725E03203F0011124EB5DFA4F8081B5
:101A300086FD15C0809108078F5F8093080720916D
:101A40000807022E000C330B8091610590E02817E7
:101A5000390794F4809108078C302CF10DC0309137
:101A600008073203F0011124EB5DFA4F808160E03A
:101A70008F730E947108DECF809184009091850061
:101A800084349C4918F480E49CE905C0809184006A
:101A900090918500049690938900809388008FEF41
:101AA000809308072AC040918400509185003091AE
:101AB000080725E03203F0011124EB5DFA4F818124
:101AC0009281840F951F90938900809388003091B4
:101AD00008073203F0011124EB5DFA4F808186FF85
:101AE0000CC0309108073203F0011124EB5DFA4F6E
:101AF000808161E08F730E947108FF91EF91BF9127
:101B0000AF919F918F917F916F915F914F913F9195
:101B10002F910F900BBE0F900FBE0F901F90189536
:101B20008EBD00000DB407FEFDCF8EB508957894EC
:101B300084B5826084BD84B5816084BD85B58260D2
:101B400085BD85B5816085BD80916E008160809383
:101B50006E001092810080918100826080938100EC
:101B600080918100816080938100809180008160FC
:101B7000809380008091B10084608093B100809157
:101B8000B00081608093B00080919100826080936A
:101B900091008091910081608093910080919000EC
:101BA0008160809390008091A10082608093A10069
:101BB0008091A10081608093A1008091A00081604C
:101BC0008093A00080912101826080932101809107
:101BD00021018160809321018091200181608093A7
:101BE000200180917A00846080937A0080917A004D
:101BF000826080937A0080917A00816080937A007D
:101C000080917A00806880937A001092C100E09100
:101C1000C603F091C70382E08083E091C203F09194
:101C2000C3031082E091C403F091C5038FEC80835D
:101C30001092CE03E091CA03F091CB0386E080833B
:101C4000E091C803F091C903808180618083E091B5
:101C5000C803F091C903808188608083E091C80344
:101C6000F091C903808180688083E091C803F0917E
:101C7000C90380818F7D808361E080912C060E9462
:101C8000F10260E080912C060E94710860E0809172
:101C90002B060E94F10280E792E090933606809333
:101CA0003506109268021092670210926D0210922F
:101CB0006F0210926B0281E080936A0210926902B7
:101CC00061E084E10E94710861E085E10E94710891
:101CD0008091B9008E7F8093B9008091B9008D7F8B
:101CE0008093B90088E48093B80085E48093BC00B9
:101CF00080E090E1A0E0B0E0809338069093390650
:101D0000A0933A06B0933B068AE090E0A0E0B0E0F2
:101D100080933C0690933D06A0933E06B0933F0609
:101D200080E090E0A0E0B0E480934006909341060C
:101D3000A0934206B093430660E070E185E00E9404
:101D4000C6056FE979E380E00E94C605C8E4D6E0E5
:101D5000C12CD12CE12CF12C58EE252E52E0352E41
:101D60006EE2462E63E0562E7BECA72E77E0B72E70
:101D7000EBE88E2E99249394C701855D994F3C0121
:101D8000FC01948182818601055D194FF801818FE4
:101D9000928F61E00E94F10261E0F801828D0E9461
:101DA000F102F301908586818883F801968F61E0C6
:101DB0000E94F10260E0F801868D0E94F10261E06C
:101DC00088810E9471081FB7F89480915D0281118B
:101DD00025C0F1018491F2019491E82FF0E0EE0F1B
:101DE000FF1FE158FD4FA591B4918C91982321F4E8
:101DF00061E085E30E94710861E085E30E94F102E1
:101E00008CB580618CBD8CB580648CBD61E084E351
:101E10000E94F10261E083E30E94F10280915D0281
:101E20008F5F80935D021FBFC5010197F1F760E0EE
:101E300088810E94710888E80E94900D83E00E94CA
:101E4000900D61E088810E947108C5010197F1F74A
:101E500060E088810E94710888E90E94900D80E00E
:101E60000E94900D80E00E94900D80E00E94900DF5
:101E700080E00E94900D61E088810E947108C40199
:101E80000197F1F760E088810E94710880EE0E945E
:101E9000900D61E088810E947108F2E0CF0ED11CA4
:101EA0002296EA94EF2821F0EE24E394F12C64CFFB
:101EB000C0E5D6E01C2F1C5F60E089910E94F10212
:101EC0001C13FACF0FE516E0CCE5D6E085E0C82E6E
:101ED0009CE0E92E22E0B22EDC2ED394D394FE01B6
:101EE0003897F08088818C3008F044C061E08F2DF5
:101EF0000E94F1028881C89EF0011124EB5DFA4F27
:101F00009F2D9F732081207CF22EF92AF08213826C
:101F100014826E2D0E941314ECE08E9FA0011124F8
:101F200020E030E0B901640F751FC69EF001C79E26
:101F3000F00D1124EB5DFA4F908196FD12C02F5FDA
:101F40003F4F2C30310571F781110BC0109280008A
:101F5000B09281001092850010928400B6BAB092BF
:101F60006F00E881CE9EF0011124EB5DFA4F808175
:101F700080648083FE013297908132978081F801DE
:101F800031978083F801908360E00E94F10261E064
:101F9000F80180810E94F10260E0F80180810E94D6
:101FA000710821960E5F1F4FDC1299CFF8941092A2
:101FB000200189E08093210180E293E09093290140
:101FC00080932801109225011092240182E08093D1
:101FD00073007894809353041092570480915404B2
:101FE00060E00E94F102C0E0D0E0E12CF12C00E0C2
:101FF00010E040E050E0BA0184E496E00E94CF0B8C
:102000004AE959E969E97EEB86E496E00E94CF0B44
:10201000209721F40E940D067B018C016BE470E097
:1020200080E090E00E942A0287E392E00E94160579
:1020300089E392E00E94160588E00E942D03BC010E
:10204000990F880B990B0E94D41226EA3BE944ECC5
:102050005BEB0E9433139B01AC016DEF76EF8DE2D9
:1020600090E40E9441152DE73FE34BEA52E40E94C1
:10207000331342E00E9451068BE392E00E94160562
:1020800042E0B701C8010E9451068FE392E00E942E
:10209000160521960E940D065B016C019701A801AF
:1020A0000E94CD1287FF03C075018601A2CF00E018
:1020B00010E0D0EAC0E4E12CF12C9501A601B801B2
:1020C0008D2F9C2F0E94CD1287FF62C04AE959E9EB
:1020D00069E97EE384E496E00E94CF0B40E050E0A3
:1020E00060E070E886E496E00E94CF0BE114F10412
:1020F00029F40E940D068B01D82FC92F6BE470E0E4
:1021000080E090E00E942A0282E492E00E9416059C
:1021100089E392E00E94160588E00E942D03BC012D
:10212000990F880B990B0E94D41226EA3BE944ECE4
:102130005BEB0E9433139B01AC016DEF76EF8DE2F8
:1021400090E40E9441152DE73FE34BEA52E40E94E0
:10215000331342E00E9451068BE392E00E94160581
:1021600042E0B8018D2F9C2F0E9451068FE392E030
:102170000E9416058FEFE81AF80A0E940D063B012F
:102180004C0198014D2F5C2F0E94CD1287FD20C07D
:1021900040E050E0BA0184E496E00E94CF0B40E0BA
:1021A00050E060E070E886E496E00E94CF0B84E4A3
:1021B00092E00E9416058FE392E00E9416056AE005
:1021C00070E080E090E00E942A020E940E090BCF8E
:1021D0008301D82DC92D71CF109273021092720213
:1021E00088EE93E0A0E0B0E08093740290937502D3
:1021F000A0937602B09377022BE032E03093710225
:102200002093700210927F0210927E0280938002CF
:1022100090938102A0938202B09383022DE132E079
:1022200030937D0220937C0245E351E05093890274
:102230004093880244E351E050938B0240938A021A
:1022400040E351E050938D0240938C0241E351E012
:1022500050938F0240938E0242E351E050939102DB
:102260004093900246E351E05093930240939202D0
:102270001092950210929602109297021092980274
:1022800010921C0310921B0380931D0390931E0356
:10229000A0931F03B093200330931A0320931903D4
:1022A00045ED50E0509326034093250344ED50E064
:1022B000509328034093270340ED50E050932A03A6
:1022C0004093290341ED50E050932C0340932B039E
:1022D00042ED50E050932E0340932D0346ED50E025
:1022E0005093300340932F03109232031092330324
:1022F00010923403109235031092B9031092B80370
:102300008093BA039093BB03A093BC03B093BD0327
:102310003093B7032093B60385EC90E09093C3030A
:102320008093C20384EC90E09093C5038093C40330
:1023300080EC90E09093C7038093C60381EC90E01B
:102340009093C9038093C80382EC90E09093CB03F1
:102350008093CA0386EC90E09093CD038093CC03E6
:102360001092CF031092D0031092D1031092D20397
:1023700086E380934C0687E380934D0688E3809341
:102380004E0689E380934F068BE1809350068DE1E2
:10239000809351068AE1809352068CE18093530624
:1023A00084E08093540687E0809355061092560689
:1023B00084EB8093570686E18093580688E18093EA
:1023C000590687E180935A0689E180935B06E09184
:1023D0006105EC3020F08FEF80935C0610C081E047
:1023E0008E0F80936105E0935C0625E0E29FF0018B
:1023F0001124EB5DFA4F88EB9BE092838183E0919F
:102400006105EC3020F08FEF80935D0610C081E015
:102410008E0F80936105E0935D0685E0E89FF001F3
:102420001124EB5DFA4F88EB9BE0928381838CE073
:1024300080932B0684E280932C0686E080932D0601
:1024400085E080932E068FE180932F068EE18093A6
:10245000300683E28093310682E28093320685E47F
:102460008093330684E48093340680E480933706B7
:1024700010923C0610923D0610923E0610923F06C6
:1024800010924006109241061092420610924306A6
:10249000EDE6F5E08FEF9FEFDC01128213821482EC
:1024A0001582168217821086118683879487A587E6
:1024B000B6878787908BA18BB28B12861182108290
:1024C000739626E0EB32F20741F78DE090E00E9430
:1024D000CB16FC01138212828FE292E091838083FB
:1024E000118687E2848384E1828784E0838714866F
:1024F000F0936A05E093690510926B0510926C05E4
:1025000085E2809354041092560410926305109251
:10251000620510926505109264051092670510928D
:10252000660561E070E080E090E00E94F817009797
:1025300089F090936305809362051092650510926F
:1025400064052091660530916705232BC1F4FC01D9
:10255000108215C08091620590916305009711F07B
:102560000E94601710926305109262051092670531
:1025700010926605109265051092640508951092F8
:102580006705109266056AE372E00C94EF1880917B
:102590006205909163050C9460170E940F1308F474
:1025A00081E00895E89409C097FB3EF490958095EA
:1025B000709561957F4F8F4F9F4F9923A9F0F92F09
:1025C00096E9BB279395F695879577956795B79587
:1025D000F111F8CFFAF4BB0F11F460FF1BC06F5F6D
:1025E0007F4F8F4F9F4F16C0882311F096E911C07F
:1025F000772321F09EE8872F762F05C0662371F0A0
:1026000096E8862F70E060E02AF09A95660F771FB3
:10261000881FDAF7880F9695879597F90895990F8F
:102620000008550FAA0BE0E8FEEF16161706E8079C
:10263000F907C0F012161306E407F50798F0621BBD
:10264000730B840B950B39F40A2661F0232B242B92
:10265000252B21F408950A2609F4A140A6958FEFB1
:10266000811D811D08950E9446130C94B7130E948A
:10267000A91338F00E94B01320F0952311F00C94A8
:10268000A0130C94A61311240C94EB130E94C813EE
:1026900070F3959FC1F3950F50E0551F629FF001B5
:1026A000729FBB27F00DB11D639FAA27F00DB11DCE
:1026B000AA1F649F6627B00DA11D661F829F222757
:1026C000B00DA11D621F739FB00DA11D621F839FDE
:1026D000A00D611D221F749F3327A00D611D231FB4
:1026E000849F600D211D822F762F6A2F11249F5702
:1026F00050409AF0F1F088234AF0EE0FFF1FBB1F05
:10270000661F771F881F91505040A9F79E3F5105C3
:1027100080F00C94A0130C94EB135F3FE4F3983E0D
:10272000D4F3869577956795B795F795E7959F5F6D
:10273000C1F7FE2B880F911D9695879597F90895FF
:1027400097F99F6780E870E060E008959FEF80EC64
:10275000089500240A941616170618060906089507
:1027600000240A9412161306140605060895092E6D
:102770000394000C11F4882352F0BB0F40F4BF2BDC
:1027800011F460FF04C06F5F7F4F8F4F9F4F08951C
:1027900057FD9058440F551F59F05F3F71F0479512
:1027A000880F97FB991F61F09F3F79F087950895F7
:1027B000121613061406551FF2CF4695F1DF08C016
:1027C000161617061806991FF1CF86957105610533
:1027D00008940895E894BB2766277727CB0197F9DB
:1027E0000895A1E21A2EAA1BBB1BFD010DC0AA1F52
:1027F000BB1FEE1FFF1FA217B307E407F50720F06A
:10280000A21BB30BE40BF50B661F771F881F991FE4
:102810001A9469F760957095809590959B01AC012D
:10282000BD01CF010895991B79E004C0991F961747
:1028300008F0961B881F7A95C9F780950895EE0FCA
:10284000FF1F881F8BBF0790F691E02D19945058F9
:10285000BB27AA270E943F140C94B7130E94A91308
:1028600038F00E94B01320F039F49F3F19F426F499
:102870000C94A6130EF4E095E7FB0C94A013E92F3B
:102880000E94C81358F3BA176207730784079507A5
:1028900020F079F4A6F50C94EA130EF4E0950B2ED3
:1028A000BA2FA02D0B01B90190010C01CA01A001A2
:1028B0001124FF27591B99F0593F50F4503E68F1FD
:1028C0001A16F040A22F232F342F4427585FF3CF3E
:1028D000469537952795A795F0405395C9F77EF40F
:1028E0001F16BA0B620B730B840BBAF09150A1F058
:1028F000FF0FBB1F661F771F881FC2F70EC0BA0FDE
:10290000621F731F841F48F4879577956795B79565
:10291000F7959E3F08F0B0CF9395880F08F0992760
:10292000EE0F9795879508950E94A8140C94B713FD
:102930000E94B01358F00E94A91340F029F45F3FA1
:1029400029F00C94A01351110C94EB130C94A613C2
:102950000E94C81368F39923B1F3552391F3951B93
:10296000550BBB27AA2762177307840738F09F5FB0
:102970005F4F220F331F441FAA1FA9F335D00E2E1D
:102980003AF0E0E832D091505040E695001CCAF78A
:102990002BD0FE2F29D0660F771F881FBB1F26174D
:1029A00037074807AB07B0E809F0BB0B802DBF0124
:1029B000FF2793585F4F3AF09E3F510578F00C94F3
:1029C000A0130C94EB135F3FE4F3983ED4F3869589
:1029D00077956795B795F7959F5FC9F7880F911D14
:1029E0009695879597F90895E1E0660F771F881F00
:1029F000BB1F621773078407BA0720F0621B730BB3
:102A0000840BBA0BEE1F88F7E09508950E940D1510
:102A10006894B1110C94EB1308950E94D01388F0C0
:102A20009F5798F0B92F9927B751B0F0E1F0660F92
:102A3000771F881F991F1AF0BA95C9F714C0B130D3
:102A400091F00E94EA13B1E008950C94EA13672F05
:102A5000782F8827B85F39F0B93FCCF38695779502
:102A60006795B395D9F73EF49095809570956195EB
:102A70007F4F8F4F9F4F08950E940F1308F48FEFE1
:102A80000895FA01EE0FFF1F309621053105A1F1DF
:102A90006115710561F48038BFE39B0749F16894C3
:102AA0009038810561F08038BFEF9B0741F0992392
:102AB0004AF5FF3FE1053105210519F1E894089435
:102AC000E795D901AA2329F4AB2FBE2FF85FD0F3E5
:102AD00010C0FF5F70F4A695E0F7F73950F019F0D9
:102AE000FF3A38F49F779F930DD00F9007FC9058D2
:102AF000089546F00C94A61360E070E080E89FE330
:102B000008954FE79F775F934F933F932F930E94D2
:102B100041162F913F914F915F910E9433130C9476
:102B20009E150E940F13880B990B089529F416F037
:102B30000C94A0130C94EA130C94A6130E94D013C7
:102B4000A8F39638A0F707F80F92E8942BE33AEA37
:102B500048EB5FE70E9449130F920F920F924DB717
:102B60005EB70F920E948916ECE2F1E00E94D01548
:102B70004F915F91EF91FF91E595EE1FFF1F49F097
:102B8000FE57E0684427EE0F441FFA95E1F74195A0
:102B9000550B0E9403160F9007FE0C94F71508952D
:102BA000DF93CF931F930F93FF92EF92DF927B01FE
:102BB0008C01689406C0DA2EEF010E944613FE01D4
:102BC000E894A5912591359145915591A6F3EF0192
:102BD0000E943F14FE019701A801DA9469F7DF9083
:102BE000EF90FF900F911F91CF91DF9108959B017E
:102BF000AC0160E070E080E89FE30C9494140C94C6
:102C0000A0130C94BD160E94D013D8F39923C9F3D6
:102C1000940F511DA3F39150504094F059F0882324
:102C200032F0660F771F881F91505040C1F79E3FCA
:102C300051052CF7880F911D9695879597F9089562
:102C40005F3FACF0983E9CF0BB27869577956795E3
:102C5000B79508F4B1609395C1F7BB0F58F711F41D
:102C600060FFE8CF6F5F7F4F8F4F9F4FE3CF0C9494
:102C7000EB1316F00C94BD160C94A61368940C94E8
:102C8000A0130E94D013A8F39923C1F3AEF3DF93EE
:102C9000CF931F930F93FF92C92FDD2788232AF02C
:102CA0002197660F771F881FDAF720E030E040E8B1
:102CB0005FEB9FE3883920F0803E38F021968F77D4
:102CC0000E942814E4E5F1E004C00E942814E1E821
:102CD000F1E00E94D0158B01BE01EC01FB2E6F5775
:102CE00071097595771F880B990B0E94D41228E102
:102CF00032E741E35FE30E944613AF2D9801AE0136
:102D0000FF900F911F91CF91DF910E943F140C947F
:102D1000B713FA01DC01AA0FBB1F9B01AC01BF571F
:102D200028F4222733274427507820C0B75190F445
:102D3000AB2F0024469537952795011CA395D2F318
:102D4000002071F0220F331F441FB395DAF30ED029
:102D50000C94271461307105A0E88A07B94630F455
:102D60009B01AC016627772788279078309621F061
:102D7000208331834283538308959F3F31F09150E4
:102D800020F4879577956795B795880F911D96954F
:102D9000879597F90895CF93DF938230910510F4CA
:102DA00082E090E0E0910B07F0910C0720E030E02A
:102DB000C0E0D0E0309711F14081518148175907A8
:102DC000C0F04817590761F482819381209719F068
:102DD0009B838A832BC090930C0780930B0726C09C
:102DE0002115310519F04217530718F49A01BE0155
:102DF000DF01EF010280F381E02DDCCF21153105E9
:102E000009F1281B390B2430310590F412968D916D
:102E10009C9113976115710521F0FB0193838283C7
:102E200004C090930C0780930B07FD01329644C0B9
:102E3000FD01E20FF31F81939193225031092D93ED
:102E40003C933AC02091090730910A07232B41F4A3
:102E5000209103023091040230930A07209309075E
:102E600020910102309102022115310541F42DB764
:102E70003EB74091050250910602241B350BE091AC
:102E80000907F0910A07E217F307A0F42E1B3F0B86
:102E90002817390778F0AC014E5F5F4F24173507CC
:102EA00048F04E0F5F1F50930A0740930907819324
:102EB000919302C0E0E0F0E0CF01DF91CF9108955F
:102EC0000F931F93CF93DF93009709F48CC0FC01FD
:102ED00032971382128200910B0710910C07011593
:102EE000110581F420813181820F931F2091090700
:102EF00030910A072817390779F5F0930A07E0930C
:102F0000090771C0D80140E050E0AE17BF0750F488
:102F100012962D913C911397AD012115310509F1C0
:102F2000D901F3CF9D01DA0133832283608171815E
:102F3000860F971F8217930769F4EC012881398166
:102F4000260F371F2E5F3F4F318320838A819B815D
:102F500093838283452B29F4F0930C07E0930B07AE
:102F600042C01396FC93EE931297ED01499159914B
:102F70009E01240F351FE217F30771F480819181C0
:102F8000840F951F029611969C938E938281938154
:102F900013969C938E931297E0E0F0E0D80112967E
:102FA0008D919C911397009719F0F8018C01F6CF41
:102FB0008D919C9198012E5F3F4F820F931F20911E
:102FC000090730910A072817390769F4309729F45F
:102FD00010920C0710920B0702C0138212821093FA
:102FE0000A0700930907DF91CF911F910F91089570
:102FF0006F927F928F929F92AF92BF92CF92DF9209
:10300000EF92FF920F931F93CF93DF93EC01009702
:1030100089F4CB01DF91CF911F910F91FF90EF9039
:10302000DF90CF90BF90AF909F908F907F906F90E8
:103030000C94CB16FC01E60FF71F9C0122503109BE
:10304000E217F30708F4ACC0D9010D911C91119758
:1030500006171707B0F00530110508F49FC0C80126
:1030600004978617970708F499C002501109061BA8
:10307000170B019311936D937C93CF010E946017FE
:103080008DC05B01A01AB10A4C01800E911EA09167
:103090000B07B0910C0740E050E0E12CF12C1097A9
:1030A00009F44AC0A815B905D1F56D907C90119727
:1030B000630182E0C80ED11CCA14DB0480F1A301B5
:1030C0004A195B096A0182E0C80ED11C1296BC90B5
:1030D00012971396AC91B5E0CB16D10440F0B282B2
:1030E000A38351834083D9016D937C930AC00E5F03
:1030F0001F4FC301800F911FF90191838083EB2D36
:10310000FA2FE114F10431F0D7011396FC93EE93FA
:10311000129744C0F0930C07E0930B073FC08D91CA
:103120009C9111974817590708F4AC017D0112963C
:103130000D90BC91A02DB3CF8091090790910A0703
:1031400088159905E1F446175707C8F480910102E4
:1031500090910202009741F48DB79EB7409105020D
:1031600050910602841B950BE817F907C8F4F093F9
:103170000A07E0930907F901718360830FC0CB014F
:103180000E94CB167C01009759F0A801BE010E9455
:10319000E618CE010E946017C70104C0CE0102C02C
:1031A00080E090E0DF91CF911F910F91FF90EF9021
:1031B000DF90CF90BF90AF909F908F907F906F9057
:1031C000089581E090E0F8940C94F618FB01DC017E
:1031D00002C001900D9241505040D8F70895FB0174
:1031E000DC0101900D920020E1F7089511E0C1ED9E
:1031F000D1E000E006C0802FFE010E941F1421963E
:10320000011DC23DD10780E00807A9F7F894FFCF60
:10321000FF00000D07200000000000E704B7043C99
:10322000099104AF04A0049204000000007F0A6426
:1032300002BA08C60AEB08C908DD080000000067EA
:103240000964023C093B0931000900203C20000DC3
:103250000A003200444F4E45006E616E00696E6692
:06326000006F766600001D
:00000001FF
