:100000000C94D2010C9403020C9403020C9403028E
:100010000C9403020C9403020C9403020C9403024C
:100020000C9403020C945F120C945F120C945F12F8
:100030000C9403020C94BD070C9403020C9403026D
:100040000C9403020C94020D0C9403020C94030212
:100050000C9403020C9403020C9403020C94730797
:100060000C9403020C94D80A0C94AE0A0C9403026C
:100070000C9403020C9403020C9403020C940302EC
:100080000C9403020C9403020C9403020C940302DC
:100090000C9403020C9403020C9403020C94691256
:1000A0000C9403020C9403020C9403020C940302BC
:1000B0000C9403020C9403020C9403020C94020BA4
:1000C0000C9403020C9403020C9403020C94840A13
:1000D0000C945A0A0C9403020C94300A0C94060AED
:1000E0000C940302490C4E0C530C5D0C670CE00C95
:1000F000710C790C810C8B0C950C9F0CAE0CB80C10
:10010000E00CC20CCC0CD60C1214151404140814F8
:100110000E144C1419141D14231427142B14311409
:10012000351439144C143F144314471407634236F2
:10013000B79BD8A71A39685618AEBAAB558C1D3C78
:10014000B7CC5763BD6DEDFD753EF6177231BF003C
:100150000000803F08000000BE922449123EABAA76
:10016000AA2ABECDCCCC4C3E00000080BEABAAAAD1
:10017000AA3E00000000BF000000803F0000000019
:1001800000084178D3BB4387D1133D190E3CC3BD52
:100190004282AD2B3E68EC8276BED98FE1A93E4CFF
:1001A00080EFFFBE01C4FF7F3F00000000000C9401
:1001B000950C0C945C080C94321B0C94C20C0C949F
:1001C00039140C944C140C94C3080C9423140C9400
:1001D00012140C94B80C0C9408140C94D4110C94B4
:1001E0001D140C94A0080C94D60C0C9447140C9479
:1001F00031140C94AF080C948B0C0C9430120C94AA
:10020000E1090C94710C0C941C090C9400120C94D0
:10021000810C0C94381B0C94490C0C94D5110C9443
:10022000670C0C94E00C0C945D0C0C94530C0C9427
:100230009F0C0C94CC0C0C9404140C94E4110C94AE
:1002400019140C94F8110C94B2090C944E0C0C94E3
:1002500015140C94D1080C94AE0C0C94790C0C94DD
:100260003F140C942B140C9427140C9435140C94F8
:10027000B3090C940E140C9463090C9443140200FB
:100280000020002300260029002C002F003200004F
:1002900001000003010601090100002100240027DC
:1002A000002A002D00300033000101000004010786
:1002B000010A0100002200250028002B002E003139
:1002C00000340002010000050108010B01050505CD
:1002D00005070508080808020202020A0A080804BD
:1002E00004040401010101010101010303030303EB
:1002F000030303040707070C0C0C0C0C0C0C0C027A
:1003000002020206060606060606060B0B0B0B0B80
:100310000B0B0B0102102020080810204010204079
:1003200080020102010804020101020408102040B9
:1003300080804020100804020180040201804020D7
:100340001008040201080402010102040810204000
:1003500080010204081020408000000A0B02090CF2
:100360000D0E08070304010000000000000000005B
:10037000000000000000000000000000000000007D
:10038000000000000012111000000000000000003A
:10039000000000000000000000000000000000005D
:1003A000381B321B11241FBECFEFD1E2DEBFCDBF01
:1003B00000E00CBF13E0A0E0B2E0E0EDF6E400E006
:1003C0000BBF02C007900D92A831B107D9F728E002
:1003D000A8E1B3E001C01D92AF30B207E1F711E030
:1003E000C1EDD1E000E006C021970109802FFE0198
:1003F0000E94841EC03DD10780E00807A9F70E9433
:10040000D7160C9456230C940000E0E0F0E0199409
:1004100040E050E0BA0181EE97E00E94E90B40E035
:1004200050E060E070E883EE97E00E94E90B85EE13
:1004300097E00E94B10D87EE97E00C94B10D4F92BA
:100440005F926F927F928F929F92AF92BF92CF9264
:10045000DF92EF92FF926C0185EE97E00E94B10D62
:1004600087EE97E00E94B10D46010D2C000CAA0802
:10047000BB0826E9C21A25E0D20A0D2C000CEE08B2
:10048000FF0884E6482E512C612C712C85EE97E0F4
:100490000E94DC0D9B01AC0188279927DC01821B9F
:1004A000930BA40BB50B88159905AA05BB050CF099
:1004B00054C085EE97E00E94DC0D9B01AC018827BB
:1004C0009927DC01821B930BA40BB50B8639954051
:1004D000A105B10564F485EE97E00E94DC0D9095CE
:1004E0008095709561957F4F8F4F9F4F1AC085EE15
:1004F00097E00E94DC0D9B01AC0188279927DC0165
:10050000821B930BA40BB50BC816D906EA06FB0693
:10051000ECF485EE97E00E94DC0D680D791D8A1DD4
:100520009B1DA30192010E94371ECA01B9010E94BE
:100530001A1D29E23CE54FE05DE30E94791D2DEC98
:100540003CEC4CEC5DE30E948D1E04C06AE979E945
:1005500089E19FE30E94C51599CF40E050E0BA01C0
:1005600081EE97E00E94E90B40E050E060E070E827
:1005700083EE97E00E94E90B85EE97E00E94B10DB3
:1005800087EE97E00E94B10D64E670E080E090E0B5
:10059000FF90EF90DF90CF90BF90AF909F908F90A3
:1005A0007F906F905F904F900C94F6148F929F9273
:1005B000AF92BF92CF92DF92EF92FF920F931F9371
:1005C000CF93DF938C01C0E0D0E06B01770FEE0892
:1005D000FF084A01550FAA08BB08C017D10794F4B9
:1005E00061E088E00E944D14C701B6010E94F61434
:1005F00060E088E00E944D14C501B4010E94F61429
:100600002196EBCFDF91CF911F910F91FF90EF904B
:10061000DF90CF90BF90AF909F908F900895CF9232
:10062000DF92EF92FF921F93CF93DF93182FC0E0DA
:10063000D0E0C12CD12C7601CA30D10539F1812FFF
:100640000E94D714BC01990F880B990B0E941A1DA8
:1006500026EA3BE944EC5BEB0E94791D9B01AC016F
:100660006DEF76EF8DE290E40E94A61F2DE73FE349
:100670004BEA52E40E94791D9B01AC01C701B6010F
:100680000E948D1E6B017C012196D6CF20E030E0C8
:1006900040E251E4C701B6010E94F91EDF91CF91FB
:1006A0001F91FF90EF90DF90CF9008954F925F924F
:1006B0006F927F928F929F92AF92BF92CF92DF9272
:1006C000EF92FF920F931F93CF93DF930E945310EB
:1006D00080919C0390919D03019709F08DC20E9427
:1006E000430E019709F013C189E090E00E940F03C7
:1006F00020E030E040EA51E40E94131D87FF07C16B
:100700000E9408020E94410E0E94430E019711F4BC
:100710000E94560360E070E080E89FE30E94680E4C
:100720000E94410E0E94430E019711F40E9456034D
:1007300085EE97E00E94B10D88E00E94D714BC01BD
:10074000990F880B990B0E941A1D26EA3BE944EC8D
:100750005BEB0E94791D9B01AC016DEF76EF8DE2A2
:1007600090E40E94A61F2DE73FE34BEA52E40E946B
:10077000791D0E946B1F693271056CF085EE97E060
:100780000E94DC0D0E94410E0E94430E019761F50C
:100790000E94560329C06B018FE0C80ED11C0D2C9E
:1007A000000CEE08FF080E94410E0E94430E0197C4
:1007B00011F40E9456036AE979E989E99EE30E94EF
:1007C000C51588E090E00E940F034B015C01C70152
:1007D000B6010E941A1D9B01AC01C501B4010E9423
:1007E000131D87FDE0CFCACF0E94080280ED97E07D
:1007F0000E941F020E94410E0E94430E019711F4B5
:100800000E94560360E070E0CB010E94680E0E94D7
:10081000410E0E94430E019711F40E94560380EA94
:100820009FE00E941F020E94410E0E94430E01970A
:1008300011F40E94560388E090E00E940F030E948A
:100840006B1F615F7F4F6B01770FEE08FF086AE94E
:1008500079E989E99EE30E94C51588E00E94D714D2
:10086000BC01990F880B990B0E941A1D26EA3BE9DF
:1008700044EC5BEB0E94791D9B01AC016DEF76EFC0
:100880008DE290E40E94A61F2DE73FE34BEA52E47D
:100890000E94791D4B015C01C701B6010E941A1D1F
:1008A0009B01AC01C501B4010E94131D87FDCFCF90
:1008B0000E94410E0E94430E019711F40E945603BC
:1008C00080ED97E00E941F020E94410E0E94430E9D
:1008D000019711F40E94560360E070E0CB010E9482
:1008E000680E4DEC5CEC6CE47EE381EE97E00E94D8
:1008F000E90B4DEC5CEC6CE47EE381EE97E00E944A
:10090000E90B83E090E0909332038093310380E021
:100910000E94D7145C0181E00E94D7147C0182E020
:100920000E94D7142C0183E00E94D714EC0184E0CC
:100930000E94D7148C0185E00E94D7143C0186E008
:100940000E94D7146C0187E00E94D7144C0140E04C
:1009500050E060E87EE381EE97E00E94E90B40E022
:1009600050E060E87EEB83EE97E00E94E90B89E3BC
:1009700092E00E942511CE010E9427110E946A1563
:100980008FE392E00E942511C8010E9427110E9466
:100990006A1585E492E00E942511C3010E94271187
:1009A0000E946A158BE492E00E942511C6010E9404
:1009B00027110E946A150E946A1589E5E81682E0EF
:1009C000F8060CF442C089E5481682E05806ECF1BE
:1009D000C93582E0D8070CF476C1093582E01807E2
:1009E000CCF189E5681682E07806A4F189E5C8169D
:1009F00082E0D8067CF189E5881682E0980654F1F9
:100A00004DEC5CEC6CE47EE381EE97E00E94E90B38
:100A10004DEC5CEC6CE47EEB83EE97E00E94E90B1E
:100A200066E970E080E090E00E94F6144DEC5CEC2A
:100A30006CE47EE383EE97E00E94E90B62EE74E0E3
:100A400080E090E00E94F61405C0C93582E0D80726
:100A50000CF433C1093582E018070CF45EC089E557
:100A6000681682E078060CF458C089E5C81682E062
:100A7000D8060CF452C089E5881682E098060CF47A
:100A80004CC084EFA81681E0B8060CF046C04DECCF
:100A90005CEC6CE47EE381EE97E00E94E90B4DECA8
:100AA0005CEC6CE47EEB83EE97E00E94E90B66E978
:100AB00070E080E090E00E94F6144DEC5CEC6CE499
:100AC0007EEB81EE97E00E94E90B6CED75E080E033
:100AD00090E00E94F614C93582E0D8070CF4C7C133
:100AE00040E050E060E87EE381EE97E00E94E90B91
:100AF00040E050E060E87EEB83EE97E00E94E90B77
:100B000089E5C81682E0D8060CF454C081E090E074
:100B100090933203809331034DC089E5A81682E09B
:100B2000B806ECF189E5E81682E0F806C4F189E53B
:100B3000481682E058069CF1C93582E0D8070CF4CB
:100B4000C2C0093582E018077CF184EF881681E085
:100B5000980654F54DEC5CEC6CE47EE381EE97E096
:100B60000E94E90B4DEC5CEC6CE47EEB83EE97E0CD
:100B70000E94E90B66E970E080E090E00E94F614C4
:100B80004DEC5CEC6CE47EE383EE97E00E94E90BB5
:100B90006CED75E080E090E00E94F61405C0C93568
:100BA00082E0D8070CF48FC0093582E018070CF4F6
:100BB00042C096CF89E5881682E0980634F081E03D
:100BC00090E0909332038093310389E5E81682E048
:100BD000F80634F082E090E0909332038093310382
:100BE00089E5A81682E0B80634F182E090E090939F
:100BF0003203809331031FC040E050E0BA0181EE20
:100C000097E00E94E90B40E050E060E070E883EE7E
:100C100097E0DF91CF911F910F91FF90EF90DF90C0
:100C2000CF90BF90AF909F908F907F906F905F908C
:100C30004F900C94E90B043F11400CF01CC14DEC9B
:100C40005CEC6CE47EE381EE97E00E94E90B40E00F
:100C500050E060E070E883EE97E00E94E90B89E5E0
:100C6000C81682E0D80634F081E090E09093320319
:100C70008093310389E5881682E0980634F081E09C
:100C800090E0909332038093310389E5E81682E087
:100C9000F80634F082E090E09093320380933103C1
:100CA00089E5A81682E0B8060CF4E5C082E090E081
:100CB0009093320380933103DEC089E5A81682E069
:100CC000B8060CF0CDC0C43FD1400CF0D4C00935FB
:100CD00082E01807DCF14DEC5CEC6CE47EEB83EE1B
:100CE00097E00E94E90B40E050E0BA0181EE97E006
:100CF0000E94E90B89E5C81682E0D80634F081E04D
:100D000090E0909332038093310389E5881682E066
:100D1000980634F081E090E09093320380933103A1
:100D200089E5E81682E0F80634F082E090E09093DE
:100D300032038093310389E5A81682E0B80634F0C7
:100D400082E090E09093320380933103043F11409E
:100D50000CF091C089E5681682E0780634F081E0F5
:100D600090E0909332038093310389E5C81682E0C6
:100D7000D80634F081E090E0909332038093310301
:100D800089E5481682E0580634F082E090E09093BE
:100D900032038093310389E5E81682E0F80634F0E7
:100DA00082E090E0909332038093310381E592E0FA
:100DB0000E94251180913103909132030E942711E6
:100DC0000E946A158091310390913203823091051F
:100DD00079F44DEC5CEC6CEC7DE381EE97E00E94E5
:100DE000E90B4DEC5CEC6CEC7DE383EE97E020C00E
:100DF0008130910569F44DEC5CEC6CEC7DEB83EE9D
:100E000097E00E94E90B4DEC5CEC6CEC7DEB0EC0C6
:100E1000039781F44DEC5CEC6CE47EEB83EE97E0A1
:100E20000E94E90B4DEC5CEC6CE47EE381EE97E014
:100E30000E94E90B62E370E080E090E0DF91CF91E7
:100E40001F910F91FF90EF90DF90CF90BF90AF90E8
:100E50009F908F907F906F905F904F900C94F614BE
:100E600089E5E81682E0F8060CF061CE2CCFC43F8D
:100E7000D1400CF430CFDF91CF911F910F91FF90B3
:100E8000EF90DF90CF90BF90AF909F908F907F902A
:100E90006F905F904F9008950E9441233FB7F89460
:100EA0008091440390914503A0914603B09147037C
:100EB00026B5A89B05C02F3F19F00196A11DB11DB5
:100EC0003FBFBA2FA92F982F8827820F911DA11DF0
:100ED000B11DBC01CD0142E0660F771F881F991F2D
:100EE0004A95D1F708951F920F920FB60F921124D1
:100EF0002F933F938F939F93AF93BF938091400322
:100F000090914103A0914203B091430330913F037C
:100F100023E0230F2D3720F40196A11DB11D05C03C
:100F200026E8230F0296A11DB11D20933F03809355
:100F3000400390934103A0934203B09343038091F5
:100F4000440390914503A0914603B0914703019655
:100F5000A11DB11D8093440390934503A0934603C4
:100F6000B0934703BF91AF919F918F913F912F9184
:100F70000F900FBE0F901F9018951F920F920FB6F3
:100F80000F9211240BB60F922F933F934F935F93C1
:100F90006F937F938F939F93AF93BF93EF93FF9341
:100FA0008091360390913703A0913803B0913903B3
:100FB000892B8A2B8B2B59F180913503E0913303D8
:100FC000F09134039081892780838091360390913A
:100FD0003703A0913803B0913903181619061A0681
:100FE0001B060CF056C08091360390913703A091F8
:100FF0003803B09139030197A109B10980933603F1
:1010000090933703A0933803B093390342C0809183
:101010000002EEE7F2E0E4919FEF90930002E230ED
:10102000C9F050F4EE2399F0E13081F590916F0012
:101030009D7F90936F002AC0E43019F1E0F0E53015
:1010400029F5909173009D7F909373001FC01092BB
:101050006E001CC0909170009D7F9093700091E095
:101060009093B0009091B100987F94609093B100FC
:101070001092B3000BC0909171009D7F909371000E
:1010800005C0909172009D7F9093720060E00E9475
:101090004D14FF91EF91BF91AF919F918F917F91EF
:1010A0006F915F914F913F912F910F900BBE0F90D9
:1010B0000FBE0F901F901895CF92DF92EF92FF9284
:1010C0000F931F93CF93DF936C017A018B01C0E0E4
:1010D000D0E0CE15DF0589F0D8016D918D01D601E4
:1010E000ED91FC910190F081E02DC6011995892BBD
:1010F00011F47E0102C02196ECCFC701DF91CF91A0
:101100001F910F91FF90EF90DF90CF900895FC0119
:10111000A089B1898C91A689B78982FD0FC09C9165
:10112000818D8F5F8F73228D821749F0218DDF01B2
:10113000A20FB11D5D969C93818F08958C910895A7
:10114000FC01538D448D252F30E0842F90E0821BCD
:10115000930B541710F0CF96089501970895FC0152
:10116000918D828D981761F0828DDF01A80FB11DDE
:101170005D968C91928D9F5F9F73928F90E0089502
:101180008FEF9FEF0895FC01918D828D981731F0BC
:10119000828DE80FF11D858D90E008958FEF9FEF10
:1011A0000895FC01918D228D892F90E0805C9F4FE6
:1011B000821B91098F739927089589E194E00E9419
:1011C000D10821E0892B09F420E0822F089586EBD5
:1011D00094E00E94D10821E0892B09F420E0822FBD
:1011E000089583E595E00E94D10821E0892B09F458
:1011F00020E0822F0895FC01848DDF01A80FB11D2E
:10120000A35ABF4F2C91848D90E001968F7399273C
:10121000848FA689B7892C93A089B1898C91806429
:101220008C93938D848D981306C00288F389E02DEA
:1012300080818F7D80830895EF92FF920F931F939B
:10124000CF93DF93EC0181E0888F9B8D8C8D981379
:1012500005C0E889F989808185FD24C0F62E0B8DB3
:1012600010E00F5F1F4F0F731127E02E8C8DE812D7
:101270000CC00FB607FCFACFE889F989808185FF99
:10128000F5CFCE010E94FB08F1CF8B8DFE01E80F58
:10129000F11DE35AFF4FF0820B8FEA89FB898081B1
:1012A000806207C0EE89FF896083E889F9898081BF
:1012B0008064808381E090E0DF91CF911F910F9156
:1012C000FF90EF900895CF93DF93EC01888D8823F2
:1012D000C9F0EA89FB89808185FD05C0A889B989A3
:1012E0008C9186FD0FC00FB607FCF5CF808185FF7E
:1012F000F2CFA889B9898C9185FFEDCFCE010E94EC
:10130000FB08E7CFDF91CF91089580E090E0892B33
:1013100021F00E94F108811119C080E090E0892B32
:1013200041F080E090E0892B21F00E9400008111C3
:1013300010C00E94E70881110FC080E090E0892B67
:1013400081F00E94DD0881110AC008950E9400000A
:10135000E4CF0E940000EDCF0E940502EECF0C9476
:1013600000000895089580E090E00895FC01248134
:1013700031E030930C0420930B0410920A04109275
:1013800009048485682B8DE094E00E94301261E0AE
:101390008DE094E00C949B130F931F93CF938C01DB
:1013A000C62F64600E94B6096C2F6B7FC8010E9433
:1013B000B60983EC90E00197F1F7CF911F910F915F
:1013C00008950F931F93CF93DF938C01C62FD62FD1
:1013D000D07FD1606D2F0E94B6096D2FC8010E9489
:1013E000CC0980E1C89FB0011124C62FC1606C2FC9
:1013F000C8010E94B6096C2FC8010E94CC0981E087
:1014000090E0DF91CF911F910F9108951F920F925D
:101410000FB60F9211240BB60F922F933F934F9359
:101420005F936F937F938F939F93AF93BF93EF934C
:10143000FF9389E194E00E94FB08FF91EF91BF9137
:10144000AF919F918F917F916F915F914F913F915C
:101450002F910F900BBE0F900FBE0F901F901895FD
:101460001F920F920FB60F9211240BB60F922F936B
:101470003F934F935F936F937F938F939F93AF931C
:10148000BF93EF93FF9389E194E00E948708FF9157
:10149000EF91BF91AF919F918F917F916F915F91EC
:1014A0004F913F912F910F900BBE0F900FBE0F9059
:1014B0001F9018951F920F920FB60F9211240BB622
:1014C0000F922F933F934F935F936F937F938F93DD
:1014D0009F93AF93BF93EF93FF9386EB94E00E94AB
:1014E000FB08FF91EF91BF91AF919F918F917F91F9
:1014F0006F915F914F913F912F910F900BBE0F9085
:101500000FBE0F901F9018951F920F920FB60F925B
:1015100011240BB60F922F933F934F935F936F93CA
:101520007F938F939F93AF93BF93EF93FF9386EB3C
:1015300094E00E948708FF91EF91BF91AF919F9136
:101540008F917F916F915F914F913F912F910F906C
:101550000BBE0F900FBE0F901F9018951F920F9209
:101560000FB60F9211240BB60F922F933F934F9308
:101570005F936F937F938F939F93AF93BF93EF93FB
:10158000FF9383E595E00E94FB08FF91EF91BF91E7
:10159000AF919F918F917F916F915F914F913F910B
:1015A0002F910F900BBE0F900FBE0F901F901895AC
:1015B0001F920F920FB60F9211240BB60F922F931A
:1015C0003F934F935F936F937F938F939F93AF93CB
:1015D000BF93EF93FF9383E595E00E948708FF9107
:1015E000EF91BF91AF919F918F917F916F915F919B
:1015F0004F913F912F910F900BBE0F900FBE0F9008
:101600001F9018951F920F920FB60F9211240BB6D0
:101610000F922F933F934F935F936F937F938F938B
:101620009F93AF93BF93CF93DF93EF93FF9320915B
:10163000F10530E0F901E75AFC4F8491F901ED5EC4
:10164000FC4FD491F901E353FD4FC491CC23A1F099
:1016500081110E94F713EC2FF0E0EE0FFF1FE1580D
:10166000FD4FA591B491EC91ED2331E020E009F418
:1016700030E0832F922F02C080E090E02091F505AA
:101680003091F6052F5F3F4F3093F6052093F50517
:101690002091F405253618F026E02093F0052091DE
:1016A000F0052430D9F128F4223069F02330D9F044
:1016B00060C0253009F453C0263009F05AC021E03B
:1016C0002093C10653C0009709F053C02091F5053F
:1016D0003091F6052436310508F443C01092C10656
:1016E0001092F4051DC08130910509F042C0E091CF
:1016F000F40521E02E0F2093F405F0E02091F5058C
:101700003091F605EE0FFF1FE051FA4F3087278327
:101710001092F6051092F50524E029C00097B9F45F
:10172000E091F40521E02E0F2093F405F0E02091E4
:10173000F5053091F605EE0FFF1FE051FA4F3087A7
:1017400027831092F6051092F50523E010C0209132
:10175000F5053091F6052536310558F007C000979C
:1017600041F41092F6051092F50503C025E0209390
:10177000F0052091F3052223B9F0892B51F48091D3
:10178000F205882321F08091F20561E009C02F9ACB
:101790000BC08091F205882331F08091F20560E062
:1017A0000E944D1401C02F98FF91EF91DF91CF91CE
:1017B000BF91AF919F918F917F916F915F914F9169
:1017C0003F912F910F900BBE0F900FBE0F901F9067
:1017D00018958F929F92AF92BF92CF92DF92EF9225
:1017E000FF920F931F93CF93DF93EC016A017B016C
:1017F00020E030E04FE753E4C701B6010E94791DB5
:101800004B015C0120E030E0A9010E94A11F1816E5
:101810001CF4C501B40103C0C501B40190580E9475
:101820006B1F8B0120E030E0A901C701B6010E94C7
:10183000A11F181614F460E001C061E089810E94C4
:101840004D140F3F110509F014F4112702C00FEFDA
:1018500010E0C88161E08C2F0E949B1401151105D6
:1018600009F4B1C00F3F110509F4AFC0EC2FF0E04F
:10187000E75AFC4FE4914E2F50E0FA013197E231E4
:10188000F10508F09DC08827EE58FF4F8F4F0C944C
:10189000841E84B5806884BD07BDA7C084B58062FE
:1018A00084BD08BDA2C080918000806880938000C4
:1018B000109389000093880098C080918000806216
:1018C0008093800010938B0000938A008EC08091DB
:1018D000800088608093800010938D0000938C00BE
:1018E00084C08091B00080688093B0000093B30002
:1018F0007CC08091B00080628093B0000093B400FF
:1019000074C080919000806880939000109399003B
:10191000009398006AC0809190008062809390004C
:1019200010939B0000939A0060C0809190008860A3
:101930008093900010939D0000939C0056C080916E
:10194000A00080688093A0008091A0008F7B80938E
:10195000A0001093A9000093A80047C08091A000A8
:1019600080628093A0001093AB000093AA003DC05A
:101970008091A00088608093A0001093AD00009338
:10198000AC0033C0809120018068809320011093C7
:1019900029010093280129C0809120018062809351
:1019A000200110932B0100932A011FC08091200178
:1019B00088608093200110932D0100932C0115C0A5
:1019C0000038110514F460E001C061E08C2FDF9154
:1019D000CF911F910F91FF90EF90DF90CF90BF902C
:1019E000AF909F908F900C944D14DF91CF911F91E9
:1019F0000F91FF90EF90DF90CF90BF90AF909F90AE
:101A00008F9008951F920F920FB60F9211240BB66C
:101A10000F922F933F934F935F936F937F938F9387
:101A20009F93AF93BF93EF93FF938091480387FFFA
:101A300005C0109285001092840016C020914803C2
:101A4000022E000C330B8091FE0690E02817390718
:101A50005CF43091480325E03203F0011124EE5389
:101A6000F94F808186FD15C0809148038F5F809378
:101A7000480320914803022E000C330B8091FE0690
:101A800090E02817390794F4809148038C302CF1AA
:101A90000DC0309148033203F0011124EE53F94F89
:101AA000808160E08F730E944D14DECF80918400AE
:101AB0009091850084349C4918F480E49CE905C029
:101AC0008091840090918500049690938900809382
:101AD00088008FEF809348032AC040918400509182
:101AE00085003091480325E03203F0011124EE53C4
:101AF000F94F81819281840F951F90938900809383
:101B00008800309148033203F0011124EE53F94F5D
:101B1000808186FF0CC0309148033203F00111240C
:101B2000EE53F94F808161E08F730E944D14FF9155
:101B3000EF91BF91AF919F918F917F916F915F9145
:101B40004F913F912F910F900BBE0F900FBE0F90B2
:101B50001F9018958EBD00000DB407FEFDCF8EB509
:101B60000895CF93DF93EC0160E088810E944D14CB
:101B700088E90E94AA0D80E00E94AA0D80E00E94E0
:101B8000AA0D80E00E94AA0D80E00E94AA0D61E0EB
:101B900088810E944D148BE891E00197F1F760E095
:101BA00088810E944D1480EE0E94AA0D61E0888118
:101BB000DF91CF910C944D14AF92BF92CF92DF92F0
:101BC000EF92FF920F931F93CF93DF93CDB7DEB7C2
:101BD00060970FB6F894DEBF0FBECDBF5C0160E02A
:101BE000FC0180810E944D1480E60E94AA0D8E01A6
:101BF0000F5F1F4F7E01F1E1EF0EF11C680180E0E5
:101C00000E94AA0D90E0A0E0B0E0F60181939193CC
:101C1000A193B1936F01EE15FF0589F761E0F5011E
:101C200080810E944D1480E090E0DC01F801419138
:101C30005191619171918F01BA2FA92F982F882707
:101C4000840F951FA61FB71FEE15FF0579F79C019E
:101C5000AD0166277727CB01621B730B840B950BB5
:101C600060960FB6F894DEBF0FBECDBFDF91CF9167
:101C70001F910F91FF90EF90DF90CF90BF90AF90AA
:101C800008950C9453100E94531081E090E020912D
:101C90009C0330919D032130310511F080E090E0EC
:101CA0000895CF92DF92EF92FF9269017A01AB0122
:101CB000BC0181EE97E00E94E90BB701A6017058C4
:101CC00083EE97E0FF90EF90DF90CF900C94E90BBC
:101CD0004F925F926F927F928F929F92AF92BF923C
:101CE000CF92DF92EF92FF92CF93DF934B015C0193
:101CF00085EE97E00E94B10D87EE97E00E94B10D4E
:101D000020E030E0A901C501B4010E94131D81113A
:101D10007CC04DEC5CEC6CEC7EEB83EE97E00E94BB
:101D2000E90B4DEC5CEC6CEC7EEB81EE97E00E94F5
:101D3000E90B85EE97E00E94DC0D909580957095FB
:101D400061957F4F8F4F9F4F0E941A1D2FE031EDFD
:101D500040E85FE30E94791D0E946B1F6B017C01CC
:101D6000EB0187EE97E00E94DC0D072E000C880B3C
:101D7000990B0E941A1D2B013C0120E030E44BEF2F
:101D800054E40E94A11F18163CF440E050E0BA0150
:101D900081EE97E00E94E90BB6010D2C000C880B38
:101DA000990B0E941A1D20E030E44BEF54E40E948E
:101DB000A11F181644F440E050E060E070E883EEA4
:101DC00097E00E94E90B6AE070E080E090E00E94FA
:101DD000F61420E030E44BEF54E4C301B2010E945A
:101DE000131D87FD96CFD194C194D108B601DD0CA7
:101DF000880B990B0E941A1D20E030E44BEF54E44D
:101E00000E94131D87FD85CF02C0C0E0D0E020E016
:101E100030E040E85FE3C501B4010E94131D811169
:101E2000C8C09DECC92E9CECD92EED2C9EE3F92E5A
:101E3000B701A60181EE97E00E94E90BBE01DD0F1C
:101E4000880B990B0E941A1D20E030E447E954E406
:101E50000E94A11F18160CF0D7C02DEC3CEC4CECE6
:101E60005DE3C701B6010E94A11F181654F42DECC2
:101E70003CEC4CE45DE3C701B6010E948C1E6B0193
:101E80007C01B701A60181EE97E00E94E90BB70142
:101E9000A60183EE97E00E94E90B85EE97E00E9491
:101EA000DC0D882499245401861A970AA80AB90AD5
:101EB000E40187EE97E00E94DC0D0E941A1D2FE0DE
:101EC00031ED40E85FE30E94791D0E946B1F2B01FA
:101ED0003C01B401990C880B990B0E941A1D4B010F
:101EE0005C0120E030E447E954E40E94A11F181689
:101EF0000CF09DC02DEC3CEC4CEC5DE3C701B60151
:101F00000E94A11F18160CF0A5C02DEC3CEC4CE46F
:101F10005DE3C701B6010E948C1E6B017C0120E0CD
:101F200030E44BEF54E4C501B4010E94A11F181620
:101F30003CF440E050E0BA0181EE97E00E94E90BEA
:101F40006627772764197509072E000C880B990BF3
:101F50000E941A1D20E030E44BEF54E40E94A11FC0
:101F6000181644F440E050E060E070E883EE97E03B
:101F70000E94E90B6AE070E080E090E00E94F614B5
:101F800020E030E44BEF54E4C501B4010E94131D7E
:101F900087FD4ECFB201550C880B990B0E941A1D7C
:101FA00020E030E44BEF54EC0E94A11F18160CF413
:101FB0003FCF40E050E0BA0181EE97E00E94E90B8C
:101FC00040E050E060E070E883EE97E00E94E90BAB
:101FD00085EE97E00E94B10D87EE97E00E94B10D6B
:101FE00064E670E080E090E0DF91CF91FF90EF90A9
:101FF000DF90CF90BF90AF909F908F907F906F9029
:102000005F904F900C94F6142DEC3CEC4CEC5EE39E
:10201000C701B6010E94131D87FF33CF2AE037EDB9
:1020200043EA5BE3C701B6010E948D1E28CF2DEC69
:102030003CEC4CEC5EE3C701B6010E94131D87FF28
:102040006ECF2AE037ED43EA5BE3C701B6010E9499
:102050008D1E63CF8DECC82E8CECD82EED2C8DE32D
:10206000F82E5DCFCF93C82F81E080930C0482E5DA
:1020700080930B0410920A04109209048DE094E0FE
:102080000E9430126C2F8DE094E00E94301261E0CB
:102090008DE094E00E949B136AE070E080E090E0A5
:1020A000CF910C94F614EF92FF921F93CF93DF938E
:1020B000CDB7DEB72C970FB6F894DEBF0FBECDBFFD
:1020C00080916F038111FCCF81E080936F03809337
:1020D0006E039FEF90936D0310926C0395E09093C5
:1020E0006B0380936A0380916A03846A80936A0316
:1020F00080916903813061F41092690380916A03D1
:102100008093BB008091BC0083FDF8CF85EC01C0BB
:1021100085EE8093BC0080916F038130E1F3809164
:102120006C03863018F410916C0301C016E0A9E42A
:10213000B3E022E733E0F9018E2F821B811718F4F8
:102140008D918193F9CF1092710310937003CE019A
:1021500001967C0180917103181749F08DE094E09D
:102160000E94E411F701819391937F01F3CF89815C
:102170009A8190939303809392038B819C81909397
:102180009503809394038B859C859C0135952795B9
:1021900035952795A901437055272D813E81220F42
:1021A000331F220F331F242B352B3093970320939B
:1021B00096039C0174E0359527957A95E1F7A9017E
:1021C000437055272F813885220F331F220F331F6D
:1021D000242B352B30939903209398039C01F6E030
:1021E00035952795FA95E1F7A9014370552729857B
:1021F0003A85220F331F220F331F242B352B3093A8
:102200009B0320939A039C0121703327F1E02F2731
:1022100030939D0320939C0321E030E081FF02C0B6
:1022200020E030E030939F0320939E0360E080E045
:102230002C960FB6F894DEBF0FBECDBFDF91CF91C5
:102240001F91FF90EF900C9432100C9458158F92C0
:102250009F92AF92BF92CF92DF92EF92FF920F9335
:102260001F93CF93DF93CDB7DEB7A1970FB6F89446
:10227000DEBF0FBECDBF6C01990FEE08FF08F7FE61
:1022800031C0E0915305F09154050190F081E02DAB
:102290006DE283E595E019958C0122273327A9018A
:1022A0002C193D094E095F0919A2CE0181967C01C6
:1022B0009AE0892E912CA12CB12CCA01B901A5015B
:1022C00094010E94561E605DF70162937F01211503
:1022D00031054105510589F7CF010E945815800F3E
:1022E000911F1DC0A701960119A28E010F5D1F4FFE
:1022F0008AE0C82ED12CE12CF12CCA01B901A7012A
:1023000096010E94561E605DF80162938F012115AF
:1023100031054105510589F7CF010E945815A19655
:102320000FB6F894DEBF0FBECDBFDF91CF911F91E6
:102330000F91FF90EF90DF90CF90BF90AF909F9064
:102340008F90089585ED8093BC008091BC0084FD42
:10235000FCCF10926F0308954091E203262F30E0E6
:10236000240F311D21323105DCF420916F0324301C
:10237000C9F4FC0180E090E0861758F43091E20344
:102380002191DC01A054BC4FA30FB11D2C930196E9
:10239000F3CF8091E203680F6093E20380E0089539
:1023A00081E0089582E008950895E091710380919D
:1023B0007003E81730F4F0E0EE58FC4F808190E0B5
:1023C00008958FEF9FEF08959091710380917003AE
:1023D000981750F4E92FF0E0EE58FC4F208130E0E0
:1023E0009F5F9093710302C02FEF3FEFC9010895E3
:1023F0008091700390E020917103821B91090895F0
:10240000CF92DF92EF92FF920F931F93CF93DF93C0
:102410007C01262F972F8A0180910C04882391F04C
:10242000C62FD72F6E01C40ED51ECC15DD0571F059
:102430006991D701ED91FC910190F081E02DC701E8
:102440001995F3CF642F822F0E94AC11C801DF9140
:10245000CF911F910F91FF90EF90DF90CF90089553
:10246000CF93DF931F92CDB7DEB7698320910C0421
:102470002223D1F020910904203240F021E030E005
:10248000FC013383228380E090E015C080910A0430
:10249000E82FF0E0E056FC4F998190838F5F8093A6
:1024A0000A048093090405C061E0CE0101960E94F0
:1024B000AC1181E090E00F90DF91CF9108951F92D1
:1024C0000F920FB60F9211240F900FBE0F901F9016
:1024D00018951F920F920FB60F9211240BB60F9200
:1024E0002F933F934F935F936F937F938F939F931C
:1024F000AF93BF93EF93FF938091B900887F8036AD
:1025000009F49CC068F5883209F45BC090F480310E
:1025100009F454C038F4882309F4F6C0883009F46B
:102520004DC0F6C0883109F44CC0803209F45DC05A
:10253000EFC0803409F468C048F4803309F455C012
:10254000883309F0E5C080936D03D8C0803509F465
:102550004FC0883509F45DC0883409F0D9C0D6C0B1
:10256000883909F4C7C0A8F4883709F467C038F47B
:10257000883609F463C0803709F460C0C9C0883860
:1025800009F4B8C0803909F45FC0803809F0C0C0D0
:102590005BC0803B09F486C038F4803A09F466C019
:1025A000883A09F47FC0B4C0803C09F4A7C0883CD5
:1025B00009F4A4C0883B09F48AC0AAC080916A03C8
:1025C00010C090916C0380916B03981770F5E091A7
:1025D0006C0381E08E0F80936C03F0E0E75BFC4FAF
:1025E00080818093BB0085EC86C080936D038EC094
:1025F000E0916C0381E08E0F80936C038091BB00AF
:10260000F0E0E75BFC4F808390916C0380916B035B
:102610006EC0E0916C0381E08E0F80936C0380911B
:10262000BB00F0E0E75BFC4F808380916E0381117B
:102630006DC081E08093690384EA61C083E0809388
:102640006F0310920604CFCF80910604803208F009
:1026500051C0E091060481E08E0F809306048091C2
:10266000BB00F0E0EA51FC4F8083BDCF85EC809346
:10267000BC0010926F0380910604803230F4E09128
:102680000604F0E0EA51FC4F10826091060470E00D
:10269000E091E403F091E50386EE93E01995109242
:1026A000060436C084E080936F031092E303109217
:1026B000E203E091E003F091E10319958091E203D8
:1026C000811105C081E08093E2031092C003E09184
:1026D000E30381E08E0F8093E303F0E0E054FC4FCE
:1026E00080818093BB009091E3038091E20398176F
:1026F00008F479CF85E88093BC000AC085EC80930C
:10270000BC0010926F0304C010926D030E94A211CE
:10271000FF91EF91BF91AF919F918F917F916F91B9
:102720005F914F913F912F910F900BBE0F900FBE75
:102730000F901F9018952091090490910B0421325D
:1027400008F049C080916F038111FCCF32E03093D3
:102750006F0360936E033FEF30936D0310926C0331
:1027600020936B03A0EAB3E049E453E0FA013E2F63
:10277000341B321718F43D913193F9CF10926A034C
:1027800020916A03990F922B90936A0390916903A9
:10279000913061F41092690390916A039093BB00A9
:1027A0009091BC0093FDF8CF95EC01C095EE90930D
:1027B000BC0090916F039230E1F390916D039F3FC5
:1027C00079F080916D03803241F080916D03803308
:1027D00031F084E005C081E003C082E001C083E005
:1027E00010920A041092090410920C04089590E0CB
:1027F000FC013197E231F10508F04EC08827EC5713
:10280000FF4F8F4F0C94841E809180008F7703C000
:10281000809180008F7D809380000895809180005A
:10282000877FF9CF84B58F7702C084B58F7D84BD53
:1028300008958091B0008F7703C08091B0008F7DA4
:102840008093B0000895809190008F7707C08091A9
:1028500090008F7D03C080919000877F80939000CF
:1028600008958091A0008F7707C08091A0008F7D90
:1028700003C08091A000877F8093A000089580917D
:1028800020018F7707C0809120018F7D03C0809148
:102890002001877F8093200108951F93CF93DF93BA
:1028A000282F30E0F901E75AFC4F8491F901ED5EE1
:1028B000FC4FD491F901E353FD4FC491CC23C9F0EF
:1028C000162F81110E94F713EC2FF0E0EE0FFF1F7F
:1028D000ED54FD4FA591B4918FB7F894111105C037
:1028E0009C91ED2FE095E92302C0EC91ED2BEC9348
:1028F0008FBFDF91CF911F91089510926F0381E0F8
:1029000080936E031092690361E084E10E944D148C
:1029100061E085E10E944D14E9EBF0E080818E7F5B
:10292000808380818D7F808388E48093B80085E4F4
:102930008093BC000895CF93DF9390E0FC01ED5E9F
:10294000FC4F2491FC01E353FD4F8491882361F1F6
:1029500090E0880F991FFC01E756FD4FC591D49177
:10296000FC01ED54FD4FA591B491611109C09FB7D1
:10297000F8948881209582238883EC912E230BC0C4
:10298000623061F49FB7F8943881822F8095832359
:102990008883EC912E2B2C939FBF06C08FB7F894A1
:1029A000E8812E2B28838FBFDF91CF910895863346
:1029B00008F0865390917B00282F2870977F922BE8
:1029C00090937B008770806480937C0080917A0074
:1029D000806480937A0080917A0086FDFCCF80919C
:1029E00078002091790090E0922B08958F929F9229
:1029F000AF92BF92CF92DF92EF92FF926B017C0178
:102A00000E944E074B015C01C114D104E104F104A2
:102A1000F1F00E944E07DC01CB0188199909AA093F
:102A2000BB09883E9340A105B10570F321E0C21AAD
:102A3000D108E108F10888EE880E83E0981EA11CF9
:102A4000B11CC114D104E104F10419F7DDCFFF90EA
:102A5000EF90DF90CF90BF90AF909F908F900895B0
:102A6000E3E5F5E0A089B18982E08C93A485B58582
:102A70001C92A685B7858FEC8C93108EA489B5899E
:102A800086E08C93A289B3898C9180618C93A28912
:102A9000B3898C9188608C93A289B3898C9180686A
:102AA0008C930288F389E02D80818F7D8083089547
:102AB000009769F0FC0101900020E9F73197AF0120
:102AC000481B590BBC0183E595E00C945C0880E041
:102AD00090E0089584E193E00C945815CF93DF9330
:102AE0000E945815EC010E946A158C0F9D1FDF9102
:102AF000CF910895EF92FF921F93CF93DF931F9290
:102B0000CDB7DEB7162F98ECE92E97E0F92ED70156
:102B10001C969C911C9721E020930C0490930B042D
:102B200010920A04109209041A960D90BC91A02DDF
:102B3000ED91FC9111970190F081E02D682FCD016E
:102B400079831995F70182859385DC01ED91FC91DC
:102B50000190F081E02D7981672F1995F701828529
:102B60009385DC01ED91FC910190F081E02D612FC6
:102B7000199561E0F701828593850F90DF91CF91E0
:102B80001F91FF90EF900C949B134F925F926F9266
:102B90007F928F929F92AF92BF92CF92DF92EF92ED
:102BA000FF92CF93DF9300D01F92CDB7DEB76B01BA
:102BB0007C0185EE97E00E94DC0D909580957095E4
:102BC00061957F4F8F4F9F4F0E941A1D2B013C0133
:102BD00060930708709308088093090890930A0887
:102BE00087EE97E00E94DC0D0E941A1D69837A83AC
:102BF0008B839C836093030870930408809305087B
:102C0000909306089B01AC01C301B2010E948C1E87
:102C10004B015C016093FF077093000880930108EB
:102C20009093020820E030E040EA50E40E94131D37
:102C300087FD26C020E030E040E251E4C501B40148
:102C40000E94131D87FD25C020E030E040E751E4DD
:102C5000C501B4010E94131D87FD23C020E030E0B0
:102C600040EA51E4C501B4010E94131D87FD22C052
:102C70004AE9842E49E9942EA92C4EE3B42E22C0B1
:102C80003DEC832E3CEC932E3CE4A32E3DE3B32E8F
:102C900019C02DEC822E2CEC922EA92C2DE3B22EF5
:102CA00011C09AE9892E99E9992E99E1A92E9EE3FE
:102CB000B92E08C08DEC882E8CEC982E8CE4A82EB2
:102CC0008EE3B82E29813A814B815C81C301B20128
:102CD0000E94A11F1816ECF4A501940160E070E0B9
:102CE00080E89FE30E948C1E9B01AC01C701B601E6
:102CF0000E94791DAB01BC0181EE97E00E94E90BB7
:102D000020E030E040E85FE3C501B4010E948D1E81
:102D100026C029813A814B815C81C301B2010E94A6
:102D2000131D87FF25C020E030E040E85FE3C501C8
:102D3000B4010E948D1E9B01AC01C701B6010E9427
:102D4000791DAB01BC0181EE97E00E94E90BA50162
:102D5000940160E070E080E89FE30E948C1E9B017C
:102D6000AC01C701B6010E94791DAB01BC0108C0CE
:102D7000B701A60181EE97E00E94E90BB701A60119
:102D8000705883EE97E00F900F900F900F90DF91A7
:102D9000CF91FF90EF90DF90CF90BF90AF909F903A
:102DA0008F907F906F905F904F900C94E90B789488
:102DB00084B5826084BD84B5816084BD85B5826040
:102DC00085BD85B5816085BD80916E0081608093F1
:102DD0006E0010928100809181008260809381005A
:102DE000809181008160809381008091800081606A
:102DF000809380008091B10084608093B1008091C5
:102E0000B00081608093B0008091910082608093D7
:102E10009100809191008160809391008091900059
:102E20008160809390008091A10082608093A100D6
:102E30008091A10081608093A1008091A0008160B9
:102E40008093A00080912101826080932101809174
:102E50002101816080932101809120018160809314
:102E6000200180917A00846080937A0080917A00BA
:102E7000826080937A0080917A00816080937A00EA
:102E800080917A00806880937A001092C1000E943D
:102E9000301561E08091C9070E949B1460E0809129
:102EA000C9070E944D1460E08091C8070E949B14DE
:102EB0008DE094E09093D3078093D2071092710332
:102EC0001092700310920A04109209040E947D145B
:102ED00080E090E1A0E0B0E08093D5079093D60722
:102EE000A093D707B093D8078AE090E0A0E0B0E0C5
:102EF0008093D9079093DA07A093DB07B093DC07A0
:102F000080E090E0A0E0B0E48093DD079093DE07DE
:102F1000A093DF07B093E00760E070E185E00E94D6
:102F20007A156FE979E380E00E947A15C5EED7E063
:102F3000C12CD12CE12CF12C72E0472E73E0572EDE
:102F4000E8E48E2EE3E09E2EFBECAF2EF7E0BF2EE2
:102F5000C7018853984F3C01FC019481828186010E
:102F60000853184FF801818F928F61E00E949B14E3
:102F700061E0F801828D0E949B14F30190858681A7
:102F80008883F801968F61E00E949B1460E0F8014D
:102F9000868D0E949B1461E088810E944D141FB7AA
:102FA000F89480913A03811125C0F2018491F401D3
:102FB0009491E82FF0E0EE0FFF1FE756FD4FA5912B
:102FC000B4918C91982321F461E085E30E944D1423
:102FD00061E085E30E949B148CB580618CBD8CB54B
:102FE00080648CBD61E084E30E949B1461E083E314
:102FF0000E949B1480913A038F5F80933A031FBF16
:10300000C5010197F1F760E088810E944D1488E8BE
:103010000E94AA0D83E00E94AA0D61E088810E94AF
:103020004D14C5010197F1F7CE010E94B10DF2E0F8
:10303000CF0ED11C2296EA94EF2821F0EE24E394DF
:10304000F12C86CFCDEED7E01C2F1C5F60E089917C
:103050000E949B141C13FACF0CEF17E0C9EFD7E0C6
:1030600025E0C22E3CE0E32E42E0B42EDC2ED394C9
:10307000D394FE013897F08088818C3008F044C0EA
:1030800061E08F2D0E949B148881C89EF00111245D
:10309000EE53F94F9F2D9F732081207CF22EF92A49
:1030A000F082138214826E2D0E94781EECE08E9FB7
:1030B000A001112420E030E0B901640F751FC69E05
:1030C000F001C79EF00D1124EE53F94F908196FD4B
:1030D00012C02F5F3F4F2C30310571F781110BC0AB
:1030E00010928000B09281001092850010928400AE
:1030F000B6BAB0926F00E881CE9EF0011124EE5373
:10310000F94F808180648083FE01329790813297ED
:103110008081F80131978083F801908360E00E94FC
:103120009B1461E0F80180810E949B1460E0F8012B
:1031300080810E944D1421960E5F1F4FDC1299CFA3
:10314000F8941092200189E08093210180E293E0BD
:103150009093290180932801109225011092240157
:1031600082E08093730078948093F0051092F405C8
:103170008091F10560E00E949B14109271031092FF
:10318000700310920A04109209040E947D1460EFEB
:1031900085E50E9432106BEF80E00E9432100E94A1
:1031A00053100E94301561E08EE20E949B1461E092
:1031B0008EE20E944D1482E0882E912C22242A94C3
:1031C000322C01E010E00E94531080919E039091F8
:1031D0009F03019709F055C080919C0390919D0336
:1031E000892B09F04EC00E94531080919E0390914C
:1031F0009F03019769F46AE070E080E090E00E942C
:10320000F6140E9453108BE592E00E946E15EDCFEC
:103210000E94531085E692E00E946E1580913D0356
:1032200090913E03009759F481E090E090933E0323
:1032300080933D0340E050E064EF71E00FC08130C7
:10324000910579F4E2E0F0E0F0933E03E0933D0372
:1032500046E950E064EF71E082E090E00E94D6021F
:1032600002C0029709F38FE692E00E942511809137
:103270003D0390913E030E94271186E193E00E9456
:103280006E150E94531080913D0390913E03892B4F
:1032900049F462E370E080E090E00E94F6140E943E
:1032A000850991CFE12CF12C80919E0390919F0391
:1032B000892B79F780919C0390919D03019749F7A1
:1032C0000E945310FFEFEF1AFF0A64E670E080E0FF
:1032D00090E00E94F6148AE0E816F10429F744E62B
:1032E00050E064E670E083E090E00E94D602A09097
:1032F0003D03B0903E03C0E0D0E091E0A916B104D8
:1033000059F486E792E00E946E1561E08EE20E9419
:103310004D140E9456036CC1E2E0AE16B10409F0F0
:1033200067C189E892E00E946E1580919C0390919C
:103330009D03019709F055C189E090E00E940F03B9
:1033400020E030E040EA51E40E94131D87FF20C0D6
:103350000E94531080919403909195038E3B9105A8
:10336000BCF040E050E0BA0181EE97E00E94E90B2A
:1033700040E050E060E070E883EE97E00E94E90BE7
:103380004AEF50E062EE74E082E090E00E94D602E4
:103390008CE992E00E942511809101029091020235
:1033A0000E94271185EA92E00E94251188EA92E0A6
:1033B0000E94251180913B0390913C030E942711AC
:1033C00085EA92E00E9425118091920390919303E7
:1033D000CD978138910508F087C080919403909132
:1033E0009503CD978138910508F07EC084EB92E07B
:1033F0000E946E158091010290910202892B09F0C2
:1034000062C0C0903B03D0903C03B6010D2C000C71
:10341000880B990B0E941A1D2DEC3CEC4CEC5EE3E2
:103420000E94791D2B013C01F1E0CF16D104F1F48B
:1034300020E030E0A901C301B2010E94A11F1816CB
:10344000C4F42DEC3CEC4CEC5DE3C301B2010E94F2
:103450008C1E2B013C019B01AC010E94510E64E6C5
:1034600070E080E090E00E94F614E2CFCD20C0949E
:1034700061F020E030E0A901CA01B9010E94510EBB
:1034800010930202009301021EC020E030E0A90167
:10349000C301B2010E94131D87FFEBCF2DEC3CEC62
:1034A0004CEC5DE3C301B2010E948D1E2B013C0177
:1034B0009B01AC010E94510E64E670E080E090E058
:1034C0000E94F614E2CF80910102909102020297CD
:1034D00039F420E030E0A901CA01B9010E94510E7F
:1034E000109302020093010280919403909195033E
:1034F0008E3B9105A4F02DEC3CEC4CEC5EE3CA0154
:10350000B9010E94510E10933C0300933B031092AB
:103510000202109201028AEB92E00E946E158091E5
:10352000940390919503CD97A4F489EC92E00E94C6
:103530006E1530923C0320923B03109202021092CF
:1035400001022DEC3CEC4CEC5EEBCA01B9010E948F
:10355000510E80919203909193038E3B9105ECF074
:1035600081EE92E00E946E1590920202809201021A
:1035700060913B0370913C03072E000C880B990B64
:103580000E941A1D2AE939E949E95EE30E94791D82
:1035900020E030E0A9010E94510E809192039091A9
:1035A0009303CD972CF587EF92E00E946E159092D1
:1035B00002028092010260913B0370913C03072E4E
:1035C000000C880B990B0E941A1D2AE939E949E978
:1035D0005EE30E94791D9B01AC0160E070E0CB01CD
:1035E00005C020E030E0A901CA01B9010E94510ED6
:1035F0000E94531064E670E080E090E00E94F614B0
:1036000080919E0390919F038130910511F4219642
:1036100004C0892B11F4C0E0D0E08CE093E00E945C
:103620002511CE010E9427110E946A15CB30D105C9
:103630000CF463CE40E050E0BA0181EE97E00E94C6
:10364000E90B40E050E060E070E883EE97E00E9414
:10365000E90B44E650E064E670E08AE090E00E9406
:10366000D60222CE8091FF06909100070C94C021D3
:103670001092100410920F0488EE93E0A0E0B0E0E6
:103680008093110490931204A0931304B093140434
:103690002DE032E030930E0420930D0410921C04B0
:1036A00010921B0480931D0490931E04A0931F048A
:1036B000B09320042FE132E030931A0420931904D0
:1036C00045E351E0509326044093250444E351E040
:1036D000509328044093270440E351E050932A0478
:1036E0004093290441E351E050932C0440932B0470
:1036F00042E351E050932E0440932D0446E351E001
:103700005093300440932F041092320410923304EB
:1037100010923404109235041092B9041092B80437
:103720008093BA049093BB04A093BC04B093BD04EF
:103730003093B7042093B60445ED50E05093C30492
:103740004093C20444ED50E05093C5044093C40438
:1037500040ED50E05093C7044093C60441ED50E063
:103760005093C9044093C80442ED50E05093CB04F9
:103770004093CA0446ED50E05093CD044093CC04EE
:103780001092CF041092D0041092D1041092D2045F
:103790001092560510925505809357059093580541
:1037A000A0935905B0935A053093540520935305BF
:1037B00085EC90E09093600580935F0584EC90E049
:1037C000909362058093610580EC90E0909364058E
:1037D0008093630581EC90E0909366058093650586
:1037E00082EC90E0909368058093670586EC90E00A
:1037F00090936A058093690510926C0510926D058F
:1038000010926E0510926F0586E38093E90787E3B7
:103810008093EA0788E38093EB0789E38093EC07C2
:103820008BE18093ED078DE18093EE078AE1809331
:10383000EF078CE18093F00784E08093F10787E045
:103840008093F2071092F30784EB8093F40786E1EC
:103850008093F50788E18093F60787E18093F70767
:1038600089E18093F807E091FE06EC3020F08FEFBD
:103870008093F90710C081E08E0F8093FE06E093DD
:10388000F90725E0E29FF0011124EE53F94F88EB90
:103890009BE092838183E091FE06EC3020F08FEF75
:1038A0008093FA0710C081E08E0F8093FE06E093AC
:1038B000FA0785E0E89FF0011124EE53F94F88EBF9
:1038C0009BE0928381838CE08093C80784E280939D
:1038D000C90786E08093CA0785E08093CB078FE114
:1038E0008093CC078EE18093CD0783E28093CE074F
:1038F00082E28093CF0785E48093D00784E48093AD
:10390000D10780E48093D4071092D9071092DA0788
:103910001092DB071092DC071092DD071092DE0791
:103920001092DF071092E007EAE0F7E08FEF9FEFD9
:10393000DC0112821382148215821682178210868D
:10394000118683879487A587B6878787908BA18BFD
:10395000B28B128611821082739627E0E83CF20740
:1039600041F78DE090E00E942B21FC01138212822E
:1039700081E392E091838083118687E2848384E1EE
:10398000828784E083871486F0930707E093060715
:10399000109208071092090785E28093F1051092B2
:1039A000F305109200071092FF0610920207109282
:1039B0000107109204071092030761E070E080E0B5
:1039C00090E00E945822009789F09093000780931E
:1039D000FF06109202071092010720910307309111
:1039E0000407232BC1F4FC01108215C08091FF064F
:1039F00090910007009711F00E94C02110920007DB
:103A00001092FF061092040710920307109202070B
:103A1000109201070895109204071092030766E1BF
:103A200073E00C944F230E94551D08F481E0089523
:103A3000E89409C097FB3EF4909580957095619548
:103A40007F4F8F4F9F4F9923A9F0F92F96E9BB27FE
:103A50009395F695879577956795B795F111F8CF7A
:103A6000FAF4BB0F11F460FF1BC06F5F7F4F8F4FE5
:103A70009F4F16C0882311F096E911C0772321F0DB
:103A80009EE8872F762F05C0662371F096E8862F73
:103A900070E060E02AF09A95660F771F881FDAF7CA
:103AA000880F9695879597F90895990F0008550FF7
:103AB000AA0BE0E8FEEF16161706E807F907C0F0B4
:103AC00012161306E407F50798F0621B730B840BBC
:103AD000950B39F40A2661F0232B242B252B21F496
:103AE00008950A2609F4A140A6958FEF811D811D36
:103AF00008950E948C1D0C94FD1D0E94EF1D38F04E
:103B00000E94F61D20F0952311F00C94E61D0C94F4
:103B1000EC1D11240C94311E0E940E1E70F3959F13
:103B2000C1F3950F50E0551F629FF001729FBB27B4
:103B3000F00DB11D639FAA27F00DB11DAA1F649F50
:103B40006627B00DA11D661F829F2227B00DA11D03
:103B5000621F739FB00DA11D621F839FA00D611D89
:103B6000221F749F3327A00D611D231F849F600DAA
:103B7000211D822F762F6A2F11249F5750409AF0D3
:103B8000F1F088234AF0EE0FFF1FBB1F661F771F5F
:103B9000881F91505040A9F79E3F510580F00C942A
:103BA000E61D0C94311E5F3FE4F3983ED4F38695F6
:103BB00077956795B795F795E7959F5FC1F7FE2BCA
:103BC000880F911D9695879597F9089597F99F67A6
:103BD00080E870E060E008959FEF80EC0895002495
:103BE0000A941616170618060906089500240A9462
:103BF00012161306140605060895092E0394000CE8
:103C000011F4882352F0BB0F40F4BF2B11F460FF76
:103C100004C06F5F7F4F8F4F9F4F089557FD90589F
:103C2000440F551F59F05F3F71F04795880F97FB80
:103C3000991F61F09F3F79F087950895121613063A
:103C40001406551FF2CF4695F1DF08C01616170669
:103C50001806991FF1CF869571056105089408959E
:103C6000E894BB2766277727CB0197F90895052E9F
:103C700097FB1EF400940E944E1E57FD07D00E9431
:103C8000561E07FC03D04EF40C944E1E50954095E2
:103C9000309521953F4F4F4F5F4F089590958095F8
:103CA000709561957F4F8F4F9F4F0895A1E21A2E17
:103CB000AA1BBB1BFD010DC0AA1FBB1FEE1FFF1FD0
:103CC000A217B307E407F50720F0A21BB30BE40B20
:103CD000F50B661F771F881F991F1A9469F7609567
:103CE0007095809590959B01AC01BD01CF01089521
:103CF000991B79E004C0991F961708F0961B881F3E
:103D00007A95C9F780950895EE0FFF1F881F8BBF26
:103D10000790F691E02D19945058BB27AA270E94CE
:103D2000A41E0C94FD1D0E94EF1D38F00E94F61D8C
:103D300020F039F49F3F19F426F40C94EC1D0EF496
:103D4000E095E7FB0C94E61DE92F0E940E1E58F348
:103D5000BA17620773078407950720F079F4A6F570
:103D60000C94301E0EF4E0950B2EBA2FA02D0B01F3
:103D7000B90190010C01CA01A0011124FF27591BB0
:103D800099F0593F50F4503E68F11A16F040A22FB6
:103D9000232F342F4427585FF3CF46953795279527
:103DA000A795F0405395C9F77EF41F16BA0B620B26
:103DB000730B840BBAF09150A1F0FF0FBB1F661F6D
:103DC000771F881FC2F70EC0BA0F621F731F841FB0
:103DD00048F4879577956795B795F7959E3F08F0D6
:103DE000B0CF9395880F08F09927EE0F9795879598
:103DF00008950E940D1F0C94FD1D0E94F61D58F0A1
:103E00000E94EF1D40F029F45F3F29F00C94E61D5D
:103E100051110C94311E0C94EC1D0E940E1E68F37F
:103E20009923B1F3552391F3951B550BBB27AA2773
:103E300062177307840738F09F5F5F4F220F331FAD
:103E4000441FAA1FA9F335D00E2E3AF0E0E832D075
:103E500091505040E695001CCAF72BD0FE2F29D078
:103E6000660F771F881FBB1F261737074807AB074A
:103E7000B0E809F0BB0B802DBF01FF2793585F4FBF
:103E80003AF09E3F510578F00C94E61D0C94311EDB
:103E90005F3FE4F3983ED4F3869577956795B795A1
:103EA000F7959F5FC9F7880F911D9695879597F9AC
:103EB0000895E1E0660F771F881FBB1F6217730725
:103EC0008407BA0720F0621B730B840BBA0BEE1F3A
:103ED00088F7E09508950E94721F6894B1110C94C0
:103EE000311E08950E94161E88F09F5798F0B92F32
:103EF0009927B751B0F0E1F0660F771F881F991F1F
:103F00001AF0BA95C9F714C0B13091F00E94301E72
:103F1000B1E008950C94301E672F782F8827B85F82
:103F200039F0B93FCCF3869577956795B395D9F776
:103F30003EF490958095709561957F4F8F4F9F4F80
:103F400008950E94551D08F48FEF0895FA01EE0FB1
:103F5000FF1F309621053105A1F16115710561F44E
:103F60008038BFE39B0749F168949038810561F080
:103F70008038BFEF9B0741F099234AF5FF3FE105E9
:103F80003105210519F1E8940894E795D901AA2390
:103F900029F4AB2FBE2FF85FD0F310C0FF5F70F491
:103FA000A695E0F7F73950F019F0FF3A38F49F770B
:103FB0009F930DD00F9007FC9058089546F00C94F5
:103FC000EC1D60E070E080E89FE308954FE79F7785
:103FD0005F934F933F932F930E94A1202F913F9186
:103FE0004F915F910E94791D0C94FE1F29F416F0E9
:103FF0000C94E61D0C94301E0C94EC1D0E94161EB1
:10400000A8F39638A0F707F80F92E8942BE33AEA62
:1040100048EB5FE70E948F1D0F920F920F924DB7F2
:104020005EB70F920E94E920ECE2F1E00E9430209E
:104030004F915F91EF91FF91E595EE1FFF1F49F0C2
:10404000FE57E0684427EE0F441FFA95E1F74195CB
:10405000550B0E9463200F9007FE0C945720089583
:10406000DF93CF931F930F93FF92EF92DF927B0129
:104070008C01689406C0DA2EEF010E948C1DFE01AF
:10408000E894A5912591359145915591A6F3EF01BD
:104090000E94A41EFE019701A801DA9469F7DF903F
:1040A000EF90FF900F911F91CF91DF9108959B01A9
:1040B000AC0160E070E080E89FE30C94F91E0C9482
:1040C000E61D0C941D210E94161ED8F39923C9F3F6
:1040D000940F511DA3F39150504094F059F0882350
:1040E00032F0660F771F881F91505040C1F79E3FF6
:1040F00051052CF7880F911D9695879597F908958E
:104100005F3FACF0983E9CF0BB278695779567950E
:10411000B79508F4B1609395C1F7BB0F58F711F448
:1041200060FFE8CF6F5F7F4F8F4F9F4FE3CF0C94BF
:10413000311E16F00C941D210C94EC1D68940C9407
:10414000E61D0E94161EA8F39923C1F3AEF3DF9378
:10415000CF931F930F93FF92C92FDD2788232AF057
:104160002197660F771F881FDAF720E030E040E8DC
:104170005FEB9FE3883920F0803E38F021968F77FF
:104180000E948D1EE4E5F1E004C00E948D1EE1E86E
:10419000F1E00E9430208B01BE01EC01FB2E6F5735
:1041A00071097595771F880B990B0E941A1D28E1DC
:1041B00032E741E35FE30E948C1DAF2D9801AE0111
:1041C000FF900F911F91CF91DF910E94A41E0C943C
:1041D000FD1DFA01DC01AA0FBB1F9B01AC01BF57FB
:1041E00028F4222733274427507820C0B75190F471
:1041F000AB2F0024469537952795011CA395D2F344
:10420000002071F0220F331F441FB395DAF30ED054
:104210000C948C1E61307105A0E88A07B94630F411
:104220009B01AC016627772788279078309621F08C
:10423000208331834283538308959F3F31F091500F
:1042400020F4879577956795B795880F911D96957A
:10425000879597F90895CF93DF938230910510F4F5
:1042600082E090E0E0910D08F0910E0820E030E04F
:10427000C0E0D0E0309711F14081518148175907D3
:10428000C0F04817590761F482819381209719F093
:104290009B838A832BC090930E0880930D0826C0C1
:1042A0002115310519F04217530718F49A01BE0180
:1042B000DF01EF010280F381E02DDCCF2115310514
:1042C00009F1281B390B2430310590F412968D9199
:1042D0009C9113976115710521F0FB0193838283F3
:1042E00004C090930E0880930D08FD01329644C0DF
:1042F000FD01E20FF31F81939193225031092D9319
:104300003C933AC020910B0830910C08232B41F4C8
:10431000209105023091060230930C0820930B087F
:1043200020910302309104022115310541F42DB78B
:104330003EB74091070250910802241B350BE091D3
:104340000B08F0910C08E217F307A0F42E1B3F0BAB
:104350002817390778F0AC014E5F5F4F24173507F7
:1043600048F04E0F5F1F50930C0840930B08819349
:10437000919302C0E0E0F0E0CF01DF91CF9108958A
:104380000F931F93CF93DF93009709F48CC0FC0128
:1043900032971382128200910D0810910E080115B8
:1043A000110581F420813181820F931F20910B0828
:1043B00030910C082817390779F5F0930C08E09331
:1043C0000B0871C0D80140E050E0AE17BF0750F4B1
:1043D00012962D913C911397AD012115310509F1EC
:1043E000D901F3CF9D01DA0133832283608171818A
:1043F000860F971F8217930769F4EC012881398192
:10440000260F371F2E5F3F4F318320838A819B8188
:1044100093838283452B29F4F0930E08E0930D08D3
:1044200042C01396FC93EE931297ED014991599176
:104430009E01240F351FE217F30771F480819181EB
:10444000840F951F029611969C938E93828193817F
:1044500013969C938E931297E0E0F0E0D8011296A9
:104460008D919C911397009719F0F8018C01F6CF6C
:104470008D919C9198012E5F3F4F820F931F209149
:104480000B0830910C082817390769F4309729F484
:1044900010920E0810920D0802C01382128210931F
:1044A0000C0800930B08DF91CF911F910F91089595
:1044B0006F927F928F929F92AF92BF92CF92DF9234
:1044C000EF92FF920F931F93CF93DF93EC0100972E
:1044D00089F4CB01DF91CF911F910F91FF90EF9065
:1044E000DF90CF90BF90AF909F908F907F906F9014
:1044F0000C942B21FC01E60FF71F9C01225031097F
:10450000E217F30708F4ACC0D9010D911C91119783
:1045100006171707B0F00530110508F49FC0C80151
:1045200004978617970708F499C002501109061BD3
:10453000170B019311936D937C93CF010E94C021BF
:104540008DC05B01A01AB10A4C01800E911EA09192
:104550000D08B0910E0840E050E0E12CF12C1097CE
:1045600009F44AC0A815B905D1F56D907C90119752
:10457000630182E0C80ED11CCA14DB0480F1A301E0
:104580004A195B096A0182E0C80ED11C1296BC90E0
:1045900012971396AC91B5E0CB16D10440F0B282DD
:1045A000A38351834083D9016D937C930AC00E5F2E
:1045B0001F4FC301800F911FF90191838083EB2D61
:1045C000FA2FE114F10431F0D7011396FC93EE9326
:1045D000129744C0F0930E08E0930D083FC08D91F0
:1045E0009C9111974817590708F4AC017D01129668
:1045F0000D90BC91A02DB3CF80910B0890910C0829
:1046000088159905E1F446175707C8F4809103020D
:1046100090910402009741F48DB79EB74091070234
:1046200050910802841B950BE817F907C8F4F09322
:104630000C08E0930B08F901718360830FC0CB0174
:104640000E942B217C01009759F0A801BE010E9415
:104650004623CE010E94C021C70104C0CE0102C082
:1046600080E090E0DF91CF911F910F91FF90EF904C
:10467000DF90CF90BF90AF909F908F907F906F9082
:10468000089581E090E0F8940C945623FB01DC013E
:1046900002C001900D9241505040D8F70895FB019F
:1046A000DC0101900D920020E1F7089511E0C1EDC9
:1046B000D1E000E006C0802FFE010E94841E2196FA
:1046C000011DC23DD10780E00807A9F7F894FFCF8C
:1046D000FF010000000F0820000000000030120061
:1046E00012B309D411F811E411D511000000001C17
:1046F000095C08A0086309D108AF08C308000000DE
:1047000000E1095C08B309B2092061333A200020B6
:1047100061343A20002061353A20002061363A2089
:104720000020536F727469653A20004320656E66FD
:104730006F6E636500432072656C61636865000994
:104740004D6F646520006D6F646520312073656C6A
:10475000656374696F6E6E65006D6F6465203220ED
:1047600073656C656374696F6E6E6500097374615F
:1047700077703A2000092000646972656374696F7C
:104780006E3A20005354415750004A276176616EBB
:1047900063652043522A5353004265656565657021
:1047A0002042656565656570204265656565657073
:1047B00000547269626F726420746F75746520238F
:1047C00064726F697465004261626F726420746F15
:1047D00075746520234761756368650074656D7045
:0847E000203D20000D0A00003D
:00000001FF
